:100000008094002045B6000069B0000019B60000D9
:1000100019B6000019B6000019B600000000000073
:10002000000000000000000000000000A9B1000076
:1000300019B600000000000019B10000992B010062
:100040003DB300003DB300003DB300003DB30000F0
:10005000F9B001003DB300003DB300003DB3000026
:100060003DB300003DB300003DB300003DB30000D0
:100070003DB300003DB300003DB300003DB30000C0
:100080003DB300003DB300003DB300003DB30000B0
:100090003DB300003DB300003DB300003DB30000A0
:1000A0003DB300003DB300003DB300003DB3000090
:1000B0003DB300003DB300003DB300003DB3000080
:1000C0003DB300003DB300003DB300002DB2010080
:0C00D0003DB300003DB300003DB3000054
:0400DC00FFFFFFFF24
:1000E00001F0FF01102A2BDB10F0070F08D010F8E9
:1000F000013B013A8B422DD010F0070F42B3F6D1ED
:10010000F0B441EA012141EA014122F007047FF005
:1001100000070023F0E80256083C85EA010586EA5C
:10012000010685FA47F5A3FA87F586FA47F6A5FA98
:1001300087F68EB9EED1F0BC01F0FF0102F00702A4
:1001400032B110F8013B013A83EA010313B1F8D14F
:100150000020704701387047002D06BF3546033830
:10016000073815F0010F07D1013015F4807F02BF69
:10017000013015F4C03F0130F0BC0138704700BFBA
:1001800081F0004102E000BF83F0004330B54FEA48
:1001900041044FEA430594EA050F08BF90EA020FB5
:1001A0001FBF54EA000C55EA020C7FEA645C7FEA48
:1001B000655C00F0E2804FEA5454D4EB5555B8BF6B
:1001C0006D420CDD2C4480EA020281EA030382EADC
:1001D000000083EA010180EA020281EA0303362D6E
:1001E00088BF30BD11F0004F4FEA01314FF4801C41
:1001F0004CEA113102D0404261EB410113F0004F53
:100200004FEA03334CEA133302D0524263EB430309
:1002100094EA050F00F0A780A4F10104D5F1200EA7
:100220000DDB02FA0EFC22FA05F2801841F1000102
:1002300003FA0EF2801843FA05F359410EE0A5F1D6
:1002400020050EF1200E012A03FA0EFC28BF4CF007
:10025000020C43FA05F3C01851EBE37101F00045BD
:1002600007D54FF0000EDCF1000C7EEB00006EEBCA
:100270000101B1F5801F1BD3B1F5001F0CD3490854
:100280005FEA30004FEA3C0C04F101044FEA4452AB
:1002900012F5800F80F09A80BCF1004F08BF5FEA32
:1002A000500C50F1000041EB045141EA050130BD12
:1002B0005FEA4C0C404141EB0101013C28BFB1F524
:1002C000801FE9D291F0000F04BF01460020B1FA6F
:1002D00081F308BF2033A3F10B03B3F120020CDA42
:1002E0000C3208DD02F1140CC2F10C0201FA0CF020
:1002F00021FA02F10CE002F11402D8BFC2F1200C85
:1003000001FA02F120FA0CFCDCBF41EA0C0190403A
:10031000E41AA2BF01EB0451294330BD6FEA040483
:100320001F3C1CDA0C340EDC04F11404C4F120026E
:1003300020FA04F001FA02F340EA030021FA04F380
:1003400045EA030130BDC4F10C04C4F1200220FAD7
:1003500002F001FA04F340EA0300294630BD21FA15
:1003600004F0294630BD94F0000F83F4801306BFDB
:1003700081F480110134013D4EE77FEA645C18BFCF
:100380007FEA655C29D094EA050F08BF90EA020F66
:1003900005D054EA000C04BF1946104630BD91EA5E
:1003A000030F1EBF0021002030BD5FEA545C05D161
:1003B0004000494128BF41F0004130BD14F58004A0
:1003C0003CBF01F5801130BD01F0004545F0FE4114
:1003D00041F470014FF0000030BD7FEA645C1ABF49
:1003E000194610467FEA655C1CBF0B46024650EA80
:1003F000013406BF52EA033591EA030F41F40021AC
:1004000030BD00BF90F0000F04BF0021704730B531
:100410004FF4806404F132044FF000054FF0000106
:1004200050E700BF90F0000F04BF0021704730B5C7
:100430004FF4806404F1320410F0004548BF40429C
:100440004FF000013EE700BF42004FEAE2014FEAF1
:1004500031014FEA02701FBF12F07F4393F07F4FCC
:1004600081F06051704732F07F4208BF704793F0CF
:100470007F4F04BF41F40021704730B54FF46074E2
:1004800001F0004521F000411CE700BF50EA0102E5
:1004900008BF704730B54FF000050AE050EA01028E
:1004A00008BF704730B511F0004502D5404261EBFE
:1004B00041014FF4806404F132045FEA915C3FF43F
:1004C000D8AE4FF003025FEADC0C18BF03325FEADC
:1004D000DC0C18BF033202EBDC02C2F1200300FA8D
:1004E00003FC20FA02F001FA03FE40EA0E0021FAB2
:1004F00002F11444BDE600BF70B54FF0FF0C4CF4A0
:10050000E06C1CEA11541DBF1CEA135594EA0C0F51
:1005100095EA0C0F00F0DEF82C4481EA030621EA8C
:100520004C5123EA4C5350EA013518BF52EA0335C7
:1005300041F4801143F4801338D0A0FB02CE4FF079
:100540000005E1FB02E506F00042E0FB03E54FF0A9
:100550000006E1FB03569CF0000F18BF4EF0010EA1
:10056000A4F1FF04B6F5007F64F5407404D25FEA9D
:100570004E0E6D4146EB060642EAC62141EA555150
:100580004FEAC52040EA5E504FEACE2EB4F1FD0C92
:1005900088BFBCF5E06F1ED8BEF1004F08BF5FEA10
:1005A000500E50F1000041EB045170BD06F00046C2
:1005B00046EA010140EA020081EA0301B4EB5C046F
:1005C000C2BFD4EB0C0541EA045170BD41F4801167
:1005D0004FF0000E013C00F3AB8014F1360FDEBF8C
:1005E000002001F0004170BDC4F10004203C35DA68
:1005F0000C341BDC04F11404C4F1200500FA05F3EB
:1006000020FA04F001FA05F240EA020001F000428B
:1006100021F0004110EBD37021FA04F642EB060101
:100620005EEA430E08BF20EAD37070BDC4F10C042B
:10063000C4F1200500FA04F320FA05F001FA04F2EF
:1006400040EA020001F0004110EBD37041F10001DB
:100650005EEA430E08BF20EAD37070BDC4F12005E6
:1006600000FA05F24EEA020E20FA04F301FA05F24E
:1006700043EA020321FA04F001F0004121FA04F2F6
:1006800020EA020000EBD3705EEA430E08BF20EAC6
:10069000D37070BD94F0000F0FD101F00046400000
:1006A00041EB010111F4801F08BF013CF7D041EA82
:1006B000060195F0000F18BF704703F00046520086
:1006C00043EB030313F4801F08BF013DF7D043EA57
:1006D0000603704794EA0C0F0CEA135518BF95EA0D
:1006E0000C0F0CD050EA410618BF52EA4306D1D194
:1006F00081EA030101F000414FF0000070BD50EAB3
:10070000410606BF1046194652EA430619D094EA3C
:100710000C0F02D150EA013613D195EA0C0F05D126
:1007200052EA03361CBF104619460AD181EA03017A
:1007300001F0004141F0FE4141F470014FF0000032
:1007400070BD41F0FE4141F4780170BD70B54FF0CD
:10075000FF0C4CF4E06C1CEA11541DBF1CEA13554D
:1007600094EA0C0F95EA0C0F00F0A7F8A4EB05042F
:1007700081EA030E52EA03354FEA013100F0888026
:100780004FEA03334FF0805545EA131343EA1263EF
:100790004FEA022245EA111545EA10654FEA0026A4
:1007A0000EF000419D4208BF964244F1FD0404F55D
:1007B000407402D25B084FEA3202B61A65EB0305B9
:1007C0005B084FEA32024FF480104FF4002CB6EB76
:1007D000020E75EB030E22BFB61A754640EA0C00F6
:1007E0005B084FEA3202B6EB020E75EB030E22BF36
:1007F000B61A754640EA5C005B084FEA3202B6EB77
:10080000020E75EB030E22BFB61A754640EA9C0035
:100810005B084FEA3202B6EB020E75EB030E22BF05
:10082000B61A754640EADC0055EA060E18D04FEAC3
:10083000051545EA16754FEA06164FEAC30343EA63
:1008400052734FEAC2025FEA1C1CC0D111F4801F30
:100850000BD141EA00014FF000004FF0004CB6E729
:1008600011F4801F04BF01430020B4F1FD0C88BFC8
:10087000BCF5E06F3FF6AFAEB5EB030C04BFB6EBD3
:10088000020C5FEA500C50F1000041EB045170BDC6
:100890000EF0004E4EEA113114EB5C04C2BFD4EBF3
:1008A0000C0541EA045170BD41F480114FF0000E77
:1008B000013C90E645EA060E8DE60CEA135594EAF3
:1008C0000C0F08BF95EA0C0F3FF43BAF94EA0C0FF6
:1008D0000AD150EA01347FF434AF95EA0C0F7FF46B
:1008E00025AF104619462CE795EA0C0F06D152EABF
:1008F00003353FF4FDAE1046194622E750EA4106A3
:1009000018BF52EA43067FF4C5AE50EA41047FF4B3
:100910000DAF52EA43057FF4EBAE12E74FEA410216
:10092000B2F1E04324BFB3F5001CDCF1FE5C0DD94D
:1009300001F0004C4FEAC0024CEA5070B2F1004F97
:1009400040EB830008BF20F00100704711F0804F9A
:1009500021D113F13872BCBF01F00040704741F45F
:1009600080114FEA5252C2F11802C2F1200C10FA63
:100970000CF320FA02F018BF40F001004FEAC12347
:100980004FEAD32303FA0CFC40EA0C0023FA02F3EB
:100990004FEA4303CCE77FEA625307D150EA0133C1
:1009A0001EBF4FF0FE4040F44000704701F0004091
:1009B00040F0FE4040F40000704700BF80F000406F
:1009C00002E000BF81F0004142001FBF5FEA410327
:1009D00092EA030F7FEA226C7FEA236C6AD04FEA27
:1009E0001262D2EB1363C1BFD2184140484041406C
:1009F000B8BF5B42192B88BF704710F0004F40F41E
:100A0000000020F07F4018BF404211F0004F41F439
:100A1000000121F07F4118BF494292EA030F3FD005
:100A2000A2F1010241FA03FC10EB0C00C3F1200318
:100A300001FA03F100F0004302D5494260EB4000A7
:100A4000B0F5000F13D3B0F1807F06D340084FEA12
:100A5000310102F10102FE2A51D2B1F1004F40EB07
:100A6000C25008BF20F0010040EA0300704749006F
:100A700040EB0000013A28BFB0F5000FEDD2B0FA0C
:100A800080FCACF1080CB2EB0C0200FA0CF0AABF2F
:100A900000EBC25052421843BCBFD04018437047CD
:100AA00092F0000F81F4000106BF80F400000132D3
:100AB000013BB5E74FEA41037FEA226C18BF7FEAAA
:100AC000236C21D092EA030F04D092F0000F08BFEC
:100AD0000846704790EA010F1CBF0020704712F0D3
:100AE0007F4F04D1400028BF40F00040704712F112
:100AF00000723CBF00F50000704700F0004343F077
:100B0000FE4040F4000070477FEA226216BF0846AC
:100B10007FEA23630146420206BF5FEA412390EA6F
:100B2000010F40F4800070474FF0000304E000BF65
:100B300010F0004348BF40425FEA000C08BF704716
:100B400043F0964301464FF000001CE050EA0102DA
:100B500008BF70474FF000030AE000BF50EA0102EF
:100B600008BF704711F0004302D5404261EB4101DC
:100B70005FEA010C02BF84460146002043F0B64301
:100B800008BFA3F18053A3F50003BCFA8CF2083A26
:100B9000A3EBC25310DB01FA02FC634400FA02FC2F
:100BA000C2F12002BCF1004F20FA02F243EB020036
:100BB00008BF20F00100704702F1200201FA02FC98
:100BC000C2F1200250EA4C0021FA02F243EB02008B
:100BD00008BF20EADC70704753B94AB9002908BF42
:100BE00000281CBF4FF0FF314FF0FF3000F00CB871
:100BF000ADF1080C6DE904CE01F0B8FDDDF804E0BC
:100C0000DDE9022304B07047704700BF4FF0FF3C9E
:100C100006E000BF4FF0010C02E000BF4FF0010CF6
:100C20004DF804CD4FEA410C7FEA6C5C4FEA430C6F
:100C300018BF7FEA6C5C1BD001B050EA410C0CBFBE
:100C400052EA430C91EA030F02BF90EA020F002020
:100C5000704710F1000F91EA030F58BF994208BF87
:100C600090422CBFD8176FEAE37040F00100704744
:100C70004FEA410C7FEA6C5C02D150EA013C07D19B
:100C80004FEA430C7FEA6C5CD6D152EA033CD3D0E6
:100C90005DF8040B704700BF8446104662468C46E0
:100CA0001946634600E000BF01B5FFF7B7FF002813
:100CB00048BF10F1000F01BD4DF808EDFFF7F4FF3C
:100CC0000CBF012000205DF808FB00BF4DF808EDC7
:100CD000FFF7EAFF34BF012000205DF808FB00BFEA
:100CE0004DF808EDFFF7E0FF94BF012000205DF80C
:100CF00008FB00BF4DF808EDFFF7CEFF94BF0120C1
:100D000000205DF808FB00BF4DF808EDFFF7C4FFB9
:100D100034BF012000205DF808FB00BF4FEA410C02
:100D20007FEA6C5C02D150EA013C0AD14FEA430CE5
:100D30007FEA6C5C02D152EA033C02D14FF0000022
:100D400070474FF0010070474FEA410212F5001260
:100D500015D211D56FF47873B3EB625212D94FEA02
:100D6000C12343F0004343EA505311F0004F23FAEC
:100D700002F018BF404270474FF00000704750EA41
:100D8000013005D111F0004008BF6FF000407047FE
:100D90004FF00000704700BF80EA101404F0F01418
:100DA00080EA0410604081EA111404F0F01481EA32
:100DB0000411614082EA121404F0F01482EA041271
:100DC000624083EA131404F0F01483EA04136340CE
:100DD00080EA102404F47F4480EA0420604081EA21
:100DE000112404F47F4481EA0421614082EA122440
:100DF00004F47F4482EA0422624083EA132404F468
:100E00007F4483EA0423634081EA500404F05534AC
:100E100080EA4400614083EA520404F0553482EAD7
:100E20004402634082EA900404F0333480EA840090
:100E3000624083EA910404F0333481EA8401634020
:100E4000704700BF82EA900404F0333480EA8400E3
:100E5000624083EA910404F0333481EA8401634000
:100E600081EA500404F0553480EA4400614083EA8A
:100E7000520404F0553482EA4402634080EA1024AC
:100E800004F47F4480EA0420604081EA112404F4E1
:100E90007F4481EA0421614082EA122404F47F4401
:100EA00082EA0422624083EA132404F47F4483EA42
:100EB0000423634080EA101404F0F01480EA041064
:100EC000604081EA111404F0F01481EA04116140D9
:100ED00082EA121404F0F01482EA0412624083EAF7
:100EE000131404F0F01483EA04136340704700BF46
:100EF0002DE9F04F4FF2F00280EA1031114080EA04
:100F00000130484041088208C3084FF0000EA3E0BA
:100F100000F0113001F0113102F0113203F0113301
:100F200040EA410040EA820040EAC3004FF2F0028A
:100F300080EA1031114080EA01304840BDE8F08F6E
:100F40002DE9F14F94464FEA930B8A68CB68086805
:100F50004968FFF721FF0BF1060E33E083EA1344E3
:100F600080EA134582EA134746BA96EA3444604061
:100F700000F00F1684EA063420F00F1684EA1610EB
:100F800054BA94EA0106724002F00F1486EA04365D
:100F900022F00F1486EA14124CBA6540694001F041
:100FA0000F1485EA043521F00F1485EA14115CBA98
:100FB00067407B4003F00F1487EA043723F00F14D7
:100FC00087EA1413BCE8F0006040694072407B403F
:100FD00000F0E03400F0103500F00F3040EA54002B
:100FE00040EAC50080EA900404F0332480EA8400DB
:100FF000604001F0E03401F0103501F00F3141EABA
:10100000540141EAC50181EA910404F0332481EAE4
:101010008401614002F0E03402F0103502F00F323A
:1010200042EA540242EAC50282EA920404F03324FE
:1010300082EA8402624003F0E03403F0103503F0EA
:101040000F3343EA540343EAC50383EA930404F0ED
:10105000332483EA8403634081EA324787EA1345F5
:1010600081EA354690EA060484EA034B82EA1B4291
:1010700080EA044484EA054483EA144A85EA144475
:101080008BEA044B84EA374481EA0B4181EA16413A
:1010900004EA0A00454082EA04082BEA08004140BD
:1010A0008AEA0B0602EA060084EA34438AEA3A46F0
:1010B00003EA060778404540414088EA38478BEA12
:1010C0003B4007EA000985EA090583EA070946402B
:1010D00006EA0906714085EA010005EA3546464000
:1010E00006EA314181EA304181EA364606EA304675
:1010F00086EA3546344008EA010886EA01052A40B6
:1011000086EA364003405A4081EA31431F407C4022
:1011100080EA030709EA070988EA0908544088EACF
:10112000020806EA0A0601EA0B018AEA0B021540E8
:101130008AEA3A42104045408BEA3B4003405E4019
:101140004240174079404D404E40E443F64386EA22
:1011500018435D4085EA054083EA134386EA03416C
:1011600083EA384284EA114383EA04435FEA334363
:10117000BEF1010E3FF6F2AE3FF5CAAEBCE8F0009C
:101180006040694072407B40FFF75CFE10BC20600D
:101190006160A260E360BDE8F08F00BF2DE9F0411F
:1011A00002F11C050646074600EB850851F8040BC2
:1011B00046F8040B043AF9D14FF0010CFFF798FE02
:1011C0005FEA302080EA0C004FEA4C0C4FEA1C2109
:1011D00040F21B1201FB02F28CEA020C1ECF4140CE
:1011E0004A4053405C401EC62000464510D02C2D7E
:1011F000E4D03C2D06D1FFF77BFE06CF41404A40AC
:1012000006C6100006CF41404A4006C61000D5E78A
:1012100036E90F00FFF7C0FD86E80F00043DF7D167
:10122000BDE8F0812DE9F14F03F11C0402EB840CC1
:101230004FEA930B8A68CB6808684968FFF7ACFDF2
:101240003CE9F0006040694072407B400BF1060EC3
:101250004EE083EA134480EA134582EA134746BA14
:1012600096EA3444604000F00F1684EA063420F019
:101270000F1684EA161054BA94EA0106724002F07E
:101280000F1486EA043622F00F1486EA14124CBAC0
:101290006540694001F00F1485EA043521F00F1410
:1012A00085EA14115CBA67407B4003F00F1487EAAB
:1012B000043723F00F1487EA141344BA44404DBA9C
:1012C0004D4056BA56405FBA5F4087EA174886EAF3
:1012D000174B84EA17464FEA38488BEA1B4485EAE5
:1012E0001B4788EA1B4580EA3440694072407B40D6
:1012F00000F0703400F0803500F00F3040EA440018
:1013000040EAD50080EA900404F0332480EA8400A7
:10131000604001F0703401F0803501F00F3141EA96
:10132000440141EAD50181EA910404F0332481EAC1
:101330008401614002F0703402F0803502F00F3217
:1013400042EA440242EAD50282EA920404F03324DB
:1013500082EA8402624003F0703403F0803503F0C7
:101360000F3343EA440343EAD50383EA930404F0CA
:10137000332483EA84036340C943DB4381EA0004E6
:1013800083EA044686EA020183EA014382EA33459E
:1013900083EA144383EA040484EA00077FEA040A28
:1013A0008AEA024A8AEA010B87EA11488AEA374A3E
:1013B00080EA060181EA1A418AEA030A04EA0A007D
:1013C000454088EA040707EA0B0041408AEA0B0619
:1013D00008EA060084EA34428AEA3A4602EA060348
:1013E00058404540414087EA37438BEA3B4003EA97
:1013F000000985EA090582EA0309464009EA06066A
:10140000714085EA010005EA3546464006EA314169
:1014100081EA304181EA364606EA304686EA3546B8
:1014200034400F4086EA010508EA050886EA36409E
:10143000024088EA020881EA314213405C4080EAB7
:10144000020309EA030987EA0907674088EA0408F2
:1014500006EA0A0601EA0B018AEA0B0425408AEA39
:101460003A44204045408BEA3B4B02EA0B0256408F
:1014700084EA0B04234059406E40694087EA3640B5
:1014800080EA384080EA060380EA104481EA134586
:1014900085EA344585EA17427D4082EA354180EA93
:1014A00005403CE9F0006040694072407B40BEF17D
:1014B000010E3FF6CEAEFFF7C5FC10BC20606160A8
:1014C000A260E360BDE8F08FFFF768BE2DE9F0038E
:1014D00091E8F803B2E802105B1854EB0C04B2E890
:1014E00002104D4156EB0C0692E806104F4158EBA6
:1014F000020859EB0C098941013B74F1000475F1B4
:10150000000576F1FF3677F1FF3778F1FF3879F192
:10151000FF3951F1000113EBD17354F1000455F17F
:1015200000054E414F4158EB010859EB010980E895
:10153000F803BDE8F00370472DE9F00391E8F803E4
:10154000B2E802105B1A74EB0C04B2E802108D4191
:1015500076EB0C0692E806108F4178EB020879EBE7
:101560000C09894113EBD17354F1000455F10005C6
:101570004E414F4158EB010859EB010980E8F8034F
:10158000BDE8F003704700BF0A4600BF2DE9F04FE9
:1015900041EC140A92EC070A91E8390010EE101A97
:1015A000A0FB01784FF00009E3FB01894FF0000A2E
:1015B000E4FB019A4FF0000BE5FB01AB12EE101AB1
:1015C0004FF0000CE0FB01BC4FF0000EE3FB01CE3E
:1015D0004FF00002E4FB01E205EE107A10EE901AE3
:1015E0004FF00006E0FB0186E3FB6196E4FB61A699
:1015F000E5FB61B612EE901AE0FB61C6E3FB61E623
:10160000E4FB612605EE908A11EE101A4FF00007F8
:10161000E0FB0197E3FB61A7E4FB61B7E5FB61C772
:1016200013EE101AE0FB61E7E3FB6127E4FB61675F
:1016300006EE109A11EE901A4FF00008E0FB01A898
:10164000E3FB61B8E4FB61C8E5FB61E814EE900AD6
:1016500000F1100019C8E0FB6128E3FB6168E4FBBE
:10166000617806EE90AA10EE101A4FF00009E0FB28
:1016700001B9E3FB61C9E4FB61E912EE101AE5FB75
:101680006129E0FB6169E3FB6179E4FB618907EEB5
:1016900010BA10EE901A4FF0000AE0FB01CAE3FB0B
:1016A00061EAE4FB612A12EE901AE5FB616AE0FB55
:1016B000617AE3FB618AE4FB619A11EE101A4FF044
:1016C000000BE0FB01EBE3FB612BE4FB616B13EE32
:1016D000101AE5FB617BE0FB618BE3FB619BE4FBA4
:1016E00061AB55EC364AB4EB080475EB09057CEBAD
:1016F0000A0C7EEB0B0E72F1000276F1000677F118
:10170000000760EB00001EEB080E52EB090256EBDF
:101710000A0657EB0B0740F1000851EC150A16EECC
:10172000103A801AB141BB4174EB080475F1000511
:101730007CF1000C7EF1000E6BEB0B0BA4187541D5
:101740005CEB070C5EEB080E4BF10002013871F107
:10175000000173F1000374F1FF3475F1FF357CF182
:10176000FF3C7EF1FF3E62F10002D21710EBD27017
:1017700051F1000153F10003544155415CEB020C5F
:101780005EEB020E14EE107AA7E83B50BDE8F08F36
:101790002DE9F00791E8F807B2E802105B1854EB66
:1017A0000C04B2E802104D4156EB0C06B2E80210F0
:1017B0004F4158EB0C08B2E8021059EB01095AEB03
:1017C0000C0A8941B3F1FF3374F1FF3475F1FF3531
:1017D00076F1000677F1000778F1000879F1010948
:1017E0007AF1FF3A51F100015B184C414D4156F13D
:1017F000000657F1000758F1000859EBD1795AEB70
:10180000010A80E8F807BDE8F00770472DE9F00706
:1018100091E8F807B2E802105B1A74EB0C04B2E826
:1018200002108D4176EB0C06B2E802108F4178EB86
:101830000C08B2E8021079EB01097AEB0C0A894135
:101840005B184C414D4156F1000657F1000758F125
:10185000000859EBD1795AEB010A80E8F807BDE896
:10186000F00770470A4600BF2DE9F04F40EC171A09
:1018700092EC080A1EC910EE100AA1FB00784FF086
:101880000009E2FB00894FF0000AE3FB009A4FF0E9
:10189000000BE4FB00AB12EE100A4FF0000CE1FB72
:1018A00000BC4FF0000EE2FB00CE4FF00005E3FB62
:1018B00000E54FF00006E4FB005604EE107A10EE4F
:1018C000900A4FF00007E1FB0087E2FB6097E3FB23
:1018D00060A7E4FB60B712EE900AE1FB60C7E2FB91
:1018E00060E7E3FB6057E4FB606704EE908A11EE6B
:1018F000100A4FF00008E1FB0098E2FB60A8E3FB50
:1019000060B8E4FB60C813EE100AE1FB60E8E2FB9C
:101910006058E3FB6068E4FB607805EE109A11EE16
:10192000900A4FF00009E1FB00A9E2FB60B9E3FB7C
:1019300060C9E4FB60E913EE900AE1FB6059E2FB49
:101940006069E3FB6079E4FB608905EE90AA17EE1D
:10195000101A01F110011EC910EE100A4FF0000A12
:10196000E1FB00BAE2FB60CAE3FB60EAE4FB605A19
:1019700012EE100AE1FB606AE2FB607AE3FB608A28
:10198000E4FB609A06EE10BA10EE900A4FF0000BDE
:10199000E1FB00CBE2FB60EBE3FB605BE4FB606B35
:1019A00012EE900AE1FB607BE2FB608BE3FB609B45
:1019B000E4FB60AB06EE90CA11EE100A4FF0000C8B
:1019C000E1FB00ECE2FB605CE3FB606CE4FB607C51
:1019D00013EE100AE1FB608CE2FB609CE3FB60AC61
:1019E000E4FB60BC07EE10EA11EE900A4FF0000E27
:1019F000E1FB005EE2FB606EE3FB607EE4FB608E79
:101A000013EE900AE1FB609EE2FB60AEE3FB60BE7A
:101A1000E4FB60CE53EC162A17EE104A12EB0A02D2
:101A200053EB0B0354EB0C0455EB0E05002040F177
:101A3000000012EB0B0253EB0C0354EB0E0455EBBE
:101A40000E0546410020474158EB000859EB0A09B2
:101A500040F10000B2EB0E0273F1000374F10004D8
:101A600075EB0A0576EB0B0677EB0C0778EB0A08AB
:101A700079EB0C0960F10000B5EB0B0576EB0C0679
:101A800077EB0E0778EB0B0879EB0E0960F100009D
:101A90006FEAE07AB2EB0A0273EB0A0374EB0A0412
:101AA00075F1000576F1000677F1000778EBDA783A
:101AB00079EB0A0960F100004FEAE07A12EB0A02C2
:101AC00053EB0A0354EB0A0455F1000556F10006E6
:101AD00057F1000758EBDA7859EB0A0940F100009A
:101AE0004FEAE07A12EB0A0253EB0A0354EB0A04C2
:101AF00055F1000556F1000657F1000758EBDA786A
:101B000059EB0A095BEC14AA51EC150A1AEB060A08
:101B10005BEB070B50EB080051EB09015FF0000C89
:101B20004CF1000C1AEB070A5BEB080B50EB0900B9
:101B300051EB090152EB0C025FF0000C53EB0C036C
:101B400054EB0C0475414CF1000CBAEB090A7BF123
:101B5000000B70F10000B141BA4173EB0803B441CE
:101B600075EB08056CF1000CC91B72EB080273EBF6
:101B70000903BC4175EB09056CF1000C6FEAEC76CA
:101B8000BAEB060A7BEB060BB04171F1000172F172
:101B9000000273F1000374EBD674B5416CF1000CD4
:101BA0004FEAEC761AEB060A5BEB060B704151F13B
:101BB000000152F1000253F1000354EBD674754159
:101BC0004CF1000C4FEAEC761AEB060A5BEB060BC5
:101BD000704151F1000152F1000253F1000354EB46
:101BE000D674754117EE907AA7E8000C87E83F009D
:101BF000BDE8F08F2DE9F04F92E8F00F4FF0020EA4
:101C000088EA781C8CEAF84C0BEBBC1C8AEA0903C6
:101C100003EA080383EA0A039C4450F8043B9C440B
:101C200051F8043B9C44674444EA050B0BEA060B5D
:101C300004EA05034BEA030BE34484EAF42383EA52
:101C400034530BEBB30B87EA771C8CEAF74C0AEBA7
:101C5000BC1C89EA080303EA070383EA09039C44DE
:101C600050F8043B9C4451F8043B9C4466444BEAC6
:101C7000040A0AEA050A0BEA04034AEA030AE244F0
:101C80008BEAFB2383EA3B530AEBB30A86EA761C12
:101C90008CEAF64C09EBBC1C88EA070303EA06034E
:101CA00083EA08039C4450F8043B9C4451F8043BED
:101CB0009C4465444AEA0B0909EA04090AEA0B0351
:101CC00049EA0309E1448AEAFA2383EA3A5309EB31
:101CD000B30985EA751C8CEAF54C08EBBC1C87EA55
:101CE000060303EA050383EA07039C4450F8043B18
:101CF0009C4451F8043B9C44644449EA0A0808EABD
:101D00000B0809EA0A0348EA0308E04489EAF923D0
:101D100083EA395308EBB30884EA741C8CEAF44C68
:101D200007EBBC1C86EA050303EA040383EA060307
:101D30009C4450F8043B9C4451F8043B9C44E344CD
:101D400048EA090707EA0A0708EA090347EA030716
:101D5000674488EAF82383EA385307EBB3078BEA32
:101D60007B1C8CEAFB4C06EBBC1C85EA040303EAF3
:101D70000B0383EA05039C4450F8043B9C4451F850
:101D8000043B9C44E24447EA080606EA090607EADF
:101D9000080346EA0306664487EAF72383EA3753D3
:101DA00006EBB3068AEA7A1C8CEAFA4C05EBBC1CFB
:101DB00084EA0B0303EA0A0383EA04039C4450F811
:101DC000043B9C4451F8043B9C44E14446EA07052B
:101DD00005EA080506EA070345EA0305654486EABD
:101DE000F62383EA365305EBB30589EA791C8CEABE
:101DF000F94C04EBBC1C8BEA0A0303EA090383EAEF
:101E00000B039C4450F8043B9C4451F8043B9C4415
:101E1000E04445EA060404EA070405EA060344EA46
:101E20000304644485EAF52383EA355304EBB304E1
:101E3000BEF1010E7FF4E4AE82E8F00FBDE8F08F52
:101E40002DE9F04F90E8FC03D0E9091CD0E90EAB76
:101E50000A444FEA7A4E8EEAFA4E8EEA9A2E72447D
:101E60004FEAF31E8EEAB34E8EEAD30E72446344F9
:101E70004FEA7B4E8EEAFB4E8EEA9B2E73444FEA6E
:101E8000F41E8EEAB44E8EEAD40E7344D0E90B1AD7
:101E90000C444FEA724E8EEAF24E8EEA922E744451
:101EA0004FEAF51E8EEAB54E8EEAD50E74445544BF
:101EB0004FEA734E8EEAF34E8EEA932E75444FEA44
:101EC000F61E8EEAB64E8EEAD60E7544D0E90DEABD
:101ED00076444FEA744E8EEAF44E8EEA942E76449F
:101EE0004FEAF71E8EEAB74E8EEAD70E7644574475
:101EF0004FEA754E8EEAF54E8EEA952E77444FEAFC
:101F0000F81E8EEAB84E8EEAD80E7744D8444FEACF
:101F1000764E8EEAF64E8EEA962EF0444FEAF91E81
:101F20008EEAB94E8EEAD90EF044D0E908AB91445E
:101F30004FEA774E8EEAF74E8EEA972EF1444FEA3B
:101F4000FA1E8EEABA4E8EEADA0EF1449A444FEA4D
:101F5000784E8EEAF84E8EEA982EF2444FEAFB1E37
:101F60008EEABB4E8EEADB0EF244A3444FEA794E72
:101F70008EEAF94E8EEA992EF3444FEAFC1E8EEA61
:101F8000BC4E8EEADC0EF344AC444FEA7A4E8EEA45
:101F9000FA4E8EEA9A2EF4444FEAF11E8EEAB14EC2
:101FA0008EEAD10EF444A0E8FC1FD0E9014531448B
:101FB0004FEA7B4E8EEAFB4E8EEA9B2E71444FEA2F
:101FC000F41E8EEAB44E8EEAD40E71443C444FEABD
:101FD0007C4E8EEAFC4E8EEA9C2E74444FEAF51E2F
:101FE0008EEAB54E8EEAD50E7444D0E903674544B7
:101FF0004FEA714E8EEAF14E8EEA912E75444FEA09
:10200000F61E8EEAB64E8EEAD60E75444E444FEA60
:10201000744E8EEAF44E8EEA942E76444FEAF71E02
:102020008EEAB74E8EEAD70E764457444FEA754E85
:102030008EEAF54E8EEA952E77444FEAF21E8EEA2E
:10204000B24E8EEAD20E7744F2C0BDE8F08F00BFE8
:102050002DE9F00391E8F803B2E802105B1854EBA5
:102060000C04B2E802104D4156EB0C0692E8061043
:102070004F4158EB020859EB0C0980E8F803804106
:102080000130BDE8F00370472DE9F00391E8F80353
:10209000B2E802105B1A74EB0C04B2E802108D4136
:1020A00076EB0C0692E806108F4178EB020879EB8C
:1020B0000C0980E8F80380414042BDE8F003704716
:1020C0002DE9F003524290E83800B1E88003174050
:1020D000DB1918EA020854EB080419EA020955EB67
:1020E000090538C090E8780091E8820311404B411F
:1020F00017407C4118EA020855EB080519EA020965
:1021000056EB090678C080410130BDE8F003704706
:102110002DE9F003524290E83800B1E880031740FF
:10212000DB1B18EA020874EB080419EA020975EBD4
:10213000090538C090E8780091E8820311408B418E
:102140001740BC4118EA020875EB080519EA0209B4
:1021500076EB090678C080414042BDE8F003704745
:1021600090E8300091E8C000A31B1340E41AF61871
:10217000EB1B1340ED1AFF1830C0C0C1704700BF01
:10218000F0B55242FFF7ECFFFFF7EAFFFFF7E8FF79
:1021900004680E68A31B1340E41AF61804600E606E
:1021A000F0BD00BF0A4600BF2DE9F04F41EC140A14
:1021B00092EC070A91E8390010EE101AA0FB019A80
:1021C0004FF0000BE3FB01AB4FF0000CE4FB01BC54
:1021D0004FF0000EE5FB01CE12EE101A4FF0000298
:1021E000E0FB01E24FF00006E3FB01264FF00007A1
:1021F000E4FB016705EE109A10EE901A4FF000080C
:10220000E0FB01A8E3FB61B8E4FB61C8E5FB61E822
:1022100012EE901AE0FB6128E3FB6168E4FB617851
:1022200005EE90AA11EE101A4FF00009E0FB01B97B
:10223000E3FB61C9E4FB61E9E5FB612913EE101AD8
:10224000E0FB6169E3FB6179E4FB618906EE10BAAA
:1022500011EE901A4FF0000AE0FB01CAE3FB61EABD
:10226000E4FB612AE5FB616A14EE900A00F11000BC
:1022700019C8E0FB617AE3FB618AE4FB619A06EE30
:1022800090CA10EE101A4FF0000BE0FB01EBE3FBDD
:10229000612BE4FB616B12EE101AE5FB617BE0FB46
:1022A000618BE3FB619BE4FB61AB07EE10EA10EE90
:1022B000901A4FF0000CE0FB012CE3FB616CE4FB97
:1022C000617C12EE901AE5FB618CE0FB619CE3FB04
:1022D00061ACE4FB61BC11EE101A4FF0000EE0FBA4
:1022E000016EE3FB617EE4FB618E13EE101AE5FBE9
:1022F000619EE0FB61AEE3FB61BEE4FB61CE14EEE8
:10230000100AA0EC055A80E8C45FBDE8F08F00BF5A
:1023100070B491E87800B2E802105B1854EB0C043A
:10232000B2E802104D4156EB0C0680E8780080417F
:10233000013070BC704700BF70B491E87800B2E81B
:1023400002105B1A74EB0C04B2E802108D4176EBBC
:102350000C0680E878008041404270BC704700BFA6
:102360002DE9F00791E8F807B2E802105B1854EB8A
:102370000C04B2E802104D4156EB0C06B2E8021014
:102380004F4158EB0C08B2E8021059EB01095AEB27
:102390000C0A80E8F80780410130BDE8F00770477B
:1023A0002DE9F00791E8F807B2E802105B1A74EB28
:1023B0000C04B2E802108D4176EB0C06B2E8021074
:1023C0008F4178EB0C08B2E8021079EB01097AEB47
:1023D0000C0A80E8F80780414042BDE8F0077047EA
:1023E0002DE9F007524290E87800B1E880071740E5
:1023F000DB1918EA020854EB080419EA020955EB44
:1024000009051AEA020A56EB0A0678C090E8780035
:10241000B1E8800717407B4118EA020854EB080432
:1024200019EA020955EB09051AEA020A56EB0A06EF
:1024300078C080410130BDE8F00770472DE9F00712
:10244000524290E87800B1E880071740DB1B18EA99
:10245000020874EB080419EA020975EB09051AEA87
:10246000020A76EB0A0678C090E87800B1E88007A7
:102470001740BB4118EA020874EB080419EA020984
:1024800075EB09051AEA020A76EB0A0678C0804164
:102490004042BDE8F007704790E8300091E8C00086
:1024A000A31B1340E41AF618EB1B1340ED1AFF1898
:1024B00030C0C0C1704700BFF0B55242FFF7ECFF1B
:1024C000FFF7EAFFFFF7E8FFFFF7E6FFF0BD00BF09
:1024D0002DE9F0073AC91668A1FB069A4FF0000CE7
:1024E000E3FB06AC4FF00007E4FB06C74FF0000823
:1024F000E5FB067840F8049B56684FF00009E1FBC5
:1025000006A9E3FB66C9E4FB6679E5FB668940F84A
:1025100004AB96684FF0000AE1FB06CAE3FB667A5B
:10252000E4FB668AE5FB669A40F804CBD6684FF078
:10253000000CE1FB067CE3FB668CE4FB669CE5FBA0
:1025400066AC80E88017BDE8F00770470A4600BF18
:102550002DE9F04F40EC171A92EC080A1EC910EE54
:10256000100AA1FB00784FF00009E2FB00894FF050
:10257000000AE3FB009A4FF0000BE4FB00AB12EE05
:10258000100A4FF0000CE1FB00BC4FF0000EE2FB24
:1025900000CE4FF00005E3FB00E54FF00006E4FB42
:1025A000005604EE107A10EE900A4FF00007E1FB9F
:1025B0000087E2FB6097E3FB60A7E4FB60B712EEE5
:1025C000900AE1FB60C7E2FB60E7E3FB6057E4FBD6
:1025D000606704EE908A11EE100A4FF00008E1FBEC
:1025E0000098E2FB60A8E3FB60B8E4FB60C813EE70
:1025F000100AE1FB60E8E2FB6058E3FB6068E4FB83
:10260000607805EE109A11EE900A4FF00009E1FB98
:1026100000A9E2FB60B9E3FB60C9E4FB60E913EEEB
:10262000900AE1FB6059E2FB6069E3FB6079E4FB3F
:10263000608905EE90AA17EE101A01F110011EC96B
:1026400010EE100A4FF0000AE1FB00BAE2FB60CA8C
:10265000E3FB60EAE4FB605A12EE100AE1FB606AF9
:10266000E2FB607AE3FB608AE4FB609A06EE10BA54
:1026700010EE900A4FF0000BE1FB00CBE2FB60EBA9
:10268000E3FB605BE4FB606B12EE900AE1FB607BB6
:10269000E2FB608BE3FB609BE4FB60AB06EE90CA61
:1026A00011EE100A4FF0000CE1FB00ECE2FB605C65
:1026B000E3FB606CE4FB607C13EE100AE1FB608CD2
:1026C000E2FB609CE3FB60ACE4FB60BC07EE10EA5D
:1026D00011EE900A4FF0000EE1FB005EE2FB606E2F
:1026E000E3FB607EE4FB608E13EE900AE1FB609EEC
:1026F000E2FB60AEE3FB60BEE4FB60CE17EE900A47
:10270000A0EC074A80E8E05FBDE8F08F30B44FF0FE
:10271000000310F8014B11F8015B013A84EA05044B
:1027200043EA0403F5D1A3F101034FEAD37030BCAF
:10273000704700BF4FF0000310F8012B013943EA46
:102740000203F9D1A3F101034FEAD370704700BF30
:1027500011F8013B00F8013B013AF9D1704700BF85
:10276000002200F8012B0139FBD170472DE9F04F11
:10277000099E88468E46154604461946002B40F0B1
:10278000C7804245B2FA82F746D94FB1C7F1200C53
:1027900008FA07F320FA0CFCBD404CEA030EBC40DB
:1027A0004FEA15481FFA85FCBEFBF8F9220C08FB1E
:1027B00019E309FB0CFA42EA03439A4528D9EB18BE
:1027C00009F1FF3004D29A4502D9A9F102002B4445
:1027D000A3EB0A03A4B2B3FBF8F208FB123302FB2B
:1027E0000CFC44EA0344A44514D92C1902F1FF332C
:1027F00003D2A44501D9931E2C44A4EB0C0443EA54
:1028000000401EB1FC40002334607360BDE8F08FCF
:102810004846DDE71346F0E702B9FFDE8FBBA8EBC1
:10282000020301214FEA154EAAB2B3FBFEFC200CB5
:102830000EFB1C330CFB02F840EA0343984563D9B6
:10284000EB180CF1FF3004D2984502D9ACF102002C
:102850002B44A3EB0803A4B2B3FBFEFC0EFB1C331A
:102860000CFB02F244EA0344A2424FD92C190CF1AA
:10287000FF3304D2A24202D9ACF102032C44A41AC1
:10288000BDE7C7F1200C28FA0CF908FA07F320FA83
:102890000CFCBD404CEA03024FEA154EABB2B9FB4B
:1028A000FEFC110C0EFB1C900CFB03F841EA0040EF
:1028B000804504FA07F423D928180CF1FF3104D21B
:1028C000804502D9ACF102012844A0EB080092B285
:1028D000B0FBFEFC0EFB1C000CFB03F842EA0043BD
:1028E00098450FD9EB180CF1FF3204D2984502D964
:1028F000ACF102022B44A3EB080342EA014191E749
:102900006146E2E76246F6E76046A2E76346B6E75D
:10291000434505D90EB1C6E900080021084675E710
:10292000B3FA83FCBCF1000F10D1434501D38242BE
:102930000AD8841A68EB030301209E46002E68D053
:10294000C6E9004E002161E76046F7E7CCF1200EB2
:1029500003FA0CF322FA0EF41C4320FA0EF108FAE3
:102960000CF328FA0EFB19434FEA144902FA0CF54E
:10297000BBFBF9F8A3B209FB18BB0A0C08FB03FA6E
:1029800042EA0B42924500FA0CF73ED9A21808F130
:10299000FF3004D2924502D9A8F102002244A2EBF2
:1029A0000A0289B2B2FBF9F809FB182208FB03F30B
:1029B00041EA024293422AD9A21808F1FF3104D217
:1029C000934202D9A8F10201224441EA0040A0FB4F
:1029D0000598D21A42454B46414602D306D14F458F
:1029E00004D2B9EB050368EB040101388EB1FC1A7F
:1029F00062EB010707FA0EFE24FA0CF34EEA03031A
:102A000027FA0CF7C6E900379CE74046C7E741467E
:102A1000DBE73146FAE610F8012B11F8013B012AF9
:102A200028BF9A42F7D0D01A7047034613F8012BFB
:102A3000002AFBD1181A013870470000000000007E
:102A400070B59FED157B84B000248DED007B029462
:102A5000234605460BF040FD061E0DDB2B68009358
:102A600028460F49002200230BF0CEFE051EA8BF0A
:102A7000204608DB04B070BD09F0A0F8764206607D
:102A80004FF0FF30F6E709F099F86D4205604FF01E
:102A9000FF30EFE7AFF3008000800100000000008E
:102AA000C19A0000000000002DE9F04F9FED4E7B21
:102AB0008BB05B068DED087B149D04460F46904657
:102AC00003D4836E13F0020373D000220023CDE9F8
:102AD00008230026B146236800934549204600227A
:102AE00000230BF091FEB0F1000A75DB4FF0000AF5
:102AF00007962CE09DED087B159ECDF810C08DED5E
:102B0000027BCDF804A000960BF05AFE8346BBF181
:102B1000000F32DA1BF1690F02D01BF10B0F30D11D
:102B2000DDE90812B2F1FF3F08BFB1F1FF3F28D144
:102B30001CF06AFB079B181A69EB0101012871F16F
:102B4000000329DB40F6CD4000211BF005FFD4F83F
:102B500000C02B46424639462046002DCAD1DDE949
:102B60000801CDF808C0CDE90001394620460BF038
:102B7000D1FD8346BBF1000FCCDB58460BB0BDE85E
:102B8000F08F09F01BF8CBF100034FF0FF3B03601F
:102B900058460BB0BDE8F08F1BF1690F15D009F056
:102BA0000DF84FF0FF3B6923036058460BB0BDE8BA
:102BB000F08F08AA05210BF0E7FE4FF4A0200021BA
:102BC0001CF06CFB0646894685E708F0F7FF0C23EE
:102BD00003604FF0FF3BD0E708F0F0FFCAF10003BD
:102BE00003604FF0FF3BC8E7FFFFFFFFFFFFFFFF62
:102BF000C19A0000000000002DE9F04F2DED028B7E
:102C000083B088460E9D9DF8449016461F460446A4
:102C1000002800F0C680AC4B984280F09480AB490D
:102C2000AB4840F28E5203F04FFDA84840F28E515F
:102C300005F028FFB4F89630D90740F13281B9F198
:102C4000000F75D197B1C3F3C202022A08BF4FF03B
:102C5000000970D1172D6ED97A6807F1040A42B9BC
:102C6000BA6832B9FA6822B93A6912B96FF07807CE
:102C700055E0E26A002A58D1226B002A55D1626BD6
:102C8000002A52D1A26B002A4FD11B054DD45046C9
:102C90000AF02EFD0546002800F0F78028460AF0CD
:102CA00057FE40B284F89800B9F1000F01D0002E11
:102CB0004FD009F0A7FF50B10368BFF35B8FDB680B
:102CC000BFF35B8FDA0758BF6FF0720727D59FED10
:102CD0007C8B94F9980009F095FF8DED008BB4F88A
:102CE000962094F89430C2F3C20231460CF0EAF90F
:102CF0000546002800F0D88094F894106C610CF020
:102D000023F80F9BA364109B2360B4F89430112B1D
:102D100083462CD06FF07A0728460BF0CBFF38465D
:102D200003B0BDEC028BBDE8F08F94F99800BBE7CF
:102D3000002D87D127B36FF01507384603B0BDECDF
:102D4000028BBDE8F08F03F5C3639842BFF467AF11
:102D500070E7D9F80C20002AABD0D9F8085005EB61
:102D6000C2026B680835AA421E44FAD1A1E7B4F842
:102D70009630C3F3C203022B2AD06FF01507CBE7BE
:102D8000B8F1000F3FF472AFC3F3C202022AD2D1EE
:102D9000D8E900750FB1C1465CE704F12807C146C8
:102DA0005AE740F28E524949494803F08DFC4748A2
:102DB00040F28E5105F066FE4649454840F25512F4
:102DC00003F082FC434840F2551105F05BFE31E709
:102DD0005346002229462046B7F802A00BF046FBD6
:102DE000071E99DBB345204628BFB3460BF0A8FA6F
:102DF0000646B0B1002E61DB28460CF09FF9B4F80E
:102E00009630C3F3C203022B39D0284609F05AFC8E
:102E1000071E81DB5F46384603B0BDEC028BBDE880
:102E2000F08FE18B524628460DF066FA06460028E0
:102E3000E0D1DA46B9F1000F39D0D9F80C3023B916
:102E4000DAE7D9F80C30B34215D9D9F8083003EBDA
:102E5000C60253F836105268524528BF52462846DB
:102E600090460CF037FB071E06F10106FFF654AF43
:102E7000BAEB080AE5D1002FBED03E46BAE794F877
:102E8000941028460CF0F0FCBFE71249104840F2BD
:102E90008B2203F019FC0F4840F28B2105F0F2FD64
:102EA000FCE66FF008073AE76FF0680737E75A4625
:102EB000414628460CF00EFB0746DCE737462BE779
:102EC00000800000000000009048002024D403008F
:102ED00090CF03004CD003002DE9F047054686B0A3
:102EE0009946002428230F46CDE9024390460CF072
:102EF00025F902A928460CF00BFB002800F0CF8032
:102F000083793A2B064665D0112B60D0062B5BD017
:102F1000AC68002C00F0B4804FF0000CA38924684A
:102F20009C44002CFAD195F82410A8699FED5E7B93
:102F3000022202FB01C18DED007B04313A230CF02B
:102F4000C1F80446002800F0A78095F82420296ADB
:102F50000CF0C0FAB0F1000A2FDBA3689B68A362F3
:102F600095F82C20A96A20460CF0B4FAB0F1000ABA
:102F700023DBA06895F82C10083009F02DF8A06824
:102F800050F8083F236295F8241009F025F895F8C9
:102F90002C3084F8243095F8243084F82C30337E9B
:102FA000FF2B06F1180163D006F1080220460CF051
:102FB0000FFC064620B36FF0040A20460BF07AFEA1
:102FC000504606B0BDE8F0874FF03C0CABE74FF041
:102FD000300CA8E7039904940423284605930CF0C9
:102FE000B3F804A928460CF093FA002845D090F9CC
:102FF0000130A34241DA28460CF0A0F8B37983E708
:1030000004904FF0040A04A92046CDF814A00CF057
:103010007FFA0028CFD080F8018007708670C670D4
:1030200004A920460CF0A0FA0028C4D1042F29D00E
:103030005246014620460CF093F8824620460BF09B
:1030400065FEBAF1000FB8D10246294620460CF0C1
:103050009DF80028B1D120460CF070F83A212046A6
:103060000CF002FC204609F02DFB0028A5DBA7E7A9
:10307000A0690AF0B9FA014696E76FF0150A9FE7D2
:10308000A44650E799FA89F33A4604A920460493E6
:103090000CF020FA8246D1E76FF00B0A90E76FF050
:1030A000040A8DE7AFF300800080000000000000FC
:1030B00010B58C1882B01CF0EBF84FEA401C4A01A6
:1030C000BCEB000C42EAD06262EB01024FEA8C03D7
:1030D0009200181842EA9C7241EB0203DB0043EABB
:1030E0005073C0F3103040EA4340241A002C16DD20
:1030F0004FF4004340F2E7300021C4FB03014FF4DA
:103100007A720023FDF768FD9FED097B02460B46AE
:1031100009488DED007B1CF05DF902B010BD074B36
:1031200001221A7002B0BDE8104009F07FB800BF5C
:103130000000000000000000900800203E6A00200F
:10314000494BD3F80423900702D5D3F804218AB958
:103150004FF02002EFF3118382F31288BFF36F8FD9
:10316000414AD2F80413C9030ED483F31188BFF384
:103170006F8F70473D4A0021C3F80411D3F8043122
:10318000136801331360E3E7F0B53949BFF35B8F90
:1031900083B051E8000F20F0010441E80045002D04
:1031A000F7D1BFF35B8F18B9D2F84021002A4FD076
:1031B0002D4A0021C2F84011D2F8401183F3118842
:1031C000BFF36F8F294B1B68190A1B06BFF35F8F74
:1031D000D2F80425D31841F10001B2F5801F0AD2BC
:1031E000244AD2E90067B34271EB070203D213F11C
:1031F000807341F100014FF02000EFF3118280F362
:103200001288BFF36F8F1C4CD4E90267B34271EB95
:10321000070317D39FED127B134D216863680020CD
:103220004FF4803C84ED027B2060C5F848C382F3F4
:103230001188BFF36F8F49B1009332463B468847F0
:1032400003B0F0BD82F31188BFF36F8F03B0F0BD00
:1032500083F31188BFF36F8F03B0F0BDAFF300802D
:10326000FFFFFFFFFFFFFFFF001001400C51002098
:103270000451002020250020282500200000000007
:103280002DE9F0472DED028B9FED358B364FDFF8A2
:10329000DC9082B0064600F591684FF0FF334FF0A6
:1032A000FF32404619F06CFB43680446002B42D0C5
:1032B000257A0235EDB2802D2CD88DED008B0023C0
:1032C0001A46294630680BF0FDFE2A46054668B3CB
:1032D000616810310CF0FEF82946824688B9237CDB
:1032E00085F84130637C85F84030A27C95F8423007
:1032F00062F3410385F84230306809F085FA00280E
:1033000025DA606812F03EFF0023636028460BF068
:10331000D1FCC2E73946484640F2F92203F0D4F91D
:10332000384640F2F92105F0ADFBC6E7606812F0BF
:1033300029FF6560B1E73946484640F2EA2203F0CA
:10334000C3F9384640F2EA2105F09CFBB0E760681B
:1033500012F018FFC4F804A09FE700BFAFF300808D
:103360000000000000000000E0D7030090CF030041
:103370000A7B02B97047F0B50B4691F800C0497955
:103380000CF1010C8909ACEB020C012991B08646C5
:1033900000EB0C042DD0022929D13D4D501C0523F2
:1033A0002880AB7021462723E81C39F031F82846E5
:1033B00011B0BDE8F04010F021BD2146DC799879CC
:1033C000DB7A8DF8153004F0030340EA0320ADF8F2
:1033D000130017230220ADF810308DF812002423BB
:1033E0000DF1160039F014F8284610F007FD11B061
:1033F000F0BD9FED257B8DED007B8DED027B4FF0C9
:10340000805110F80C60D1F8A470B1F8A810B4F88D
:103410000500ADF80C00CDE9047104AD95E803009A
:103420000090D4F80100ADF804100290002EC4D032
:10343000022EDCD1112ADAD15EF80C20CDF816204C
:103440006268CDF81A20227C8DF82620DA79A668E9
:10345000E168DC7A9B79CDF8221002F0030243EA9E
:103460000223152104222846CDF81E60ADF8133042
:103470008DF81540ADF810108DF8122010F0BEFC3C
:10348000B5E700BFAFF300800000000000000000BF
:103490006C520020000000002DE9F04389B0044682
:1034A000109F97F800C00CF00705012D0CD0032DDC
:1034B00007D190F8C05ACCF3021CC5F3021565453C
:1034C00065D009B0BDE8F083CCF3021590F86E0525
:1034D0009146B91C2A461E4614F010FDB0F10008B2
:1034E000EFDB6768BB6805A99B6838469847BB68EF
:1034F0000DF11601DB6838469847BDF814204FEAF5
:10350000192302F5C87102F2262043EA066308FB7C
:10351000010003EB0020BDF8162020F00101B2EB02
:1035200009024FEA012966EB460312EB090243EB5D
:103530001063681EA0EB0808B8FA88F82D014FEA5E
:10354000581845F00305C4F8C22A84F8C63A069212
:1035500045EAC81507220793BB6884F8C05A02924F
:10356000002504F52C62019200959E69B4F86E3531
:1035700084F8C13A38462B462A46B04794F8C03AF8
:1035800065F3061384F8C03A09B0BDE8F0837E788D
:1035900088462A4600F6C221304614F0AFFCB0F14E
:1035A00000098EDB09F10103AB4204D1D8F80830E1
:1035B00040461B6A98479FED147BD7F80200BB7901
:1035C000D8F808200DF116018DED067B00910690CC
:1035D0008DF81C30916A4046DDE90623884709EBE7
:1035E00049022244BDF81610D4F87C35A2F8EF1A2F
:1035F000129982F8EE6A94F8752584F87425CB1A2E
:10360000C4F878355DE700BF00000000000000004E
:103610002DE9F04F2DED048B89B01546169FDDF88E
:1036200060803A7802F00709B9F1020F04461E469D
:103630000BD0B9F1040F00F08A80B9F1000F2ED041
:1036400009B0BDEC048BBDE8F08F90F89935002BE4
:10365000F6D1C2F3021390F8C02AC2F302129A42C2
:10366000EED1787804F6C22114F048FC0028E7DB9C
:10367000204614F059FC43B203F1B4022344797894
:1036800083F89A1504EBC203204644F832505E607A
:1036900009B0BDEC048BBDE8F04F14F049BCC2F397
:1036A000021A90F86E055246B91C14F027FC031E4E
:1036B0000593C5DBD4F804B0DBF8082006A99268AE
:1036C00058469047BDF81810059B01F5C87C280A9C
:1036D00001F2262140EA066003FB0C1100EB0121F8
:1036E0000AF1FF30C01AAAEB0302B0FA80F04FEAE9
:1036F0000A13400943F0020343EAC0134FF0020EDD
:10370000DBF808C084F8C03ACDF808E004F52C6E68
:10371000CDF80090CDF804E0DCF81880B4F86EC560
:1037200084F8C1CA4B46D2B221F001015846C047C5
:103730007A7884F898250123C4F89055C4F89465E4
:1037400084F8993509B0BDEC048BBDE8F08F8B6827
:1037500008465B6A984797F8019094F898354B456E
:103760007FF46EAF94F89935002B3FF469AF3B7846
:1037700013F0700FC3F302103FF462AF94F86EC5FC
:103780003A46002304E00133D9B288427FF658AFAD
:103790009178614502F10B02F5D103EB830203EB53
:1037A0004203DA1CB9189FED587BD4F888B5D4F8D9
:1037B0008CC5B8580A79AB458DED067B06908DF81F
:1037C0001C207CEB0600DDE9061204F5B26E01D385
:1037D00006F58076DEF80400D4F890E5B5EB0B052D
:1037E00066EB0C06DE4570EB0C0A80F08380BBEBC9
:1037F0000E0B6CEB000A083307EB030CF85894F936
:10380000C0759CF80430CDF81CA0042F06908DF8EC
:103810001C3048DC08461146FDF798F9314608EEA1
:10382000100A2846FDF792F9514609EE100A58464B
:10383000FDF78CF908EE900ADDE90601FDF786F93F
:1038400038EE097A06EE900A37EE287A68EE097AA1
:1038500066EEA88A37EE267A77EEE87A07EB47031A
:10386000C7EE877A234403F6E82583F8EE9A17EE2D
:10387000900AFCF7E9FD27A3D3E90023FCF73CFEFF
:1038800026A3D3E90023FCF737FEFDF747F8DFED69
:10389000207A07EE100A67EE277AFDEEE77A17EE38
:1038A000903AA5F80730D4F87C3594F8C22594F8FE
:1038B000751584F87415A8EB0303042AC4F8783549
:1038C0000ED906F015FE94F8C1359A1D0133B0FBF0
:1038D000F2F101FB120084F8C00584F8C135AFE6AF
:1038E000531CDBB2052B84F8C235EAD0013784F8CB
:1038F000C075A5E6BBEB0E0B0CF5807C6CEB000AEB
:1039000079E700BFAFF30080000000000000000076
:103910000000C842BC058A4421DDB141FA48CE3BD3
:103920001835B13D000000002DE9F0410469D4E9EB
:1039300030012DED028BD4F8C850D4ED348A94EDCB
:10394000358AD4F8CC6068EE888AA842984671EB34
:103950000603C4ED378A174639D2281A66EB0101EF
:10396000FDF7F4F808EE100A41463846FDF7EEF888
:10397000F7EE007A07EE100A77EEE88AF6EE007AA4
:1039800067EE288A38EE688A68EE277A17EE900A82
:10399000FCF75AFD15A3D3E90023FCF7ADFD15A3F1
:1039A000D3E90023FCF7A8FDFCF7B8FF9FED0E7AE2
:1039B000089B07EE900A67EE877ABDEC028BFDEE5E
:1039C000E77A002017EE902A1A80BDE8F081281AC5
:1039D00006F5807666EB0101FDF7B8F808EE100AEF
:1039E000C2E700BFAFF300800000C842BC058A44B4
:1039F00021DDB141FA48CE3B1835B13D0000000051
:103A00002DE9F04F90F86C8090F86E2008F1FF33AC
:103A1000062B91B000F2F382B8F1060F00F0EF82AE
:103A200090F870E0BEF1180F044600F2E882012A17
:103A300000F2E58290F86F10032900F2E082836FB4
:103A4000062B00F2DC8290F86D3090F871C0DFF840
:103A5000BC930CEB430C39F81EA0E64BDFF8B0E347
:103A600013F8087001EB820B3EF81210DFF8A4E3A4
:103A700009911EF80710DFF8A0E306915EF8271001
:103A8000DFF898E307911EF80710DFF894E3089138
:103A90005EF82790DFF88CE35EF82B100391D6498F
:103AA00031F812200492D54A32F81C200592D44AEB
:103AB0000026D25D019604230FAD194600950292AF
:103AC0003246B0F872B014F0A1FECDE9005632468D
:103AD0000423082120460F9E14F098FE0F9BC4F883
:103AE000AC30BBF1000F00F012825FFA8BF30B9346
:103AF0004FEA1B230C9394F86D30002B40F010829A
:103B000026F44036102346F480024FEADA0A4FF0DA
:103B1000640B0A9394F87C3094F86E00002B00F04C
:103B20000F82012822F4802200F06582B54B53F801
:103B300027608DF83C20110C01270423C2F30722D3
:103B40008DF83E10090A8DF83D208DF83F100022B7
:103B5000194600950197204614F058FE8DF83CA0B8
:103B6000022342F604022E21CDE900574FEA1A2A19
:103B700020468DF83DA014F049FE6D238DF83C30B1
:103B8000CDE900573B4640F606022E21204614F0B0
:103B90003DFE94F86E30BB4200F0E781CDE900575E
:103BA00007238DF83C3016238DF83D3041F6060290
:103BB00002232E21204614F029FE4FEA1943012743
:103BC0008DF83E301B0A8DF83C908DF83F30C9F3DC
:103BD0000729042307222B210095019720468DF801
:103BE0003D9014F013FE089B8DF83C300B223B46B1
:103BF0002B21CDE90057204614F008FE069B8DF8D6
:103C00003C300B223B462821CDE90057204614F0DA
:103C1000FDFD079B8DF83C301A0C8DF83E20C3F358
:103C20000723120A8DF83D308DF83F2004230C2223
:103C30002821CDE90057204614F0E8FD059B8DF8BA
:103C40003C301B0A8DF83D3002231A462721CDE96E
:103C50000057204614F0DAFD049B8DF83C301B0A17
:103C60008DF83D30042202232721CDE9005720465C
:103C700014F0CCFD4FF00009022306222721CDE9E4
:103C8000005720468DF83CB08DF83D9014F0BEFDF5
:103C9000039B8DF83C301A0C8DF83E20C3F30723AC
:103CA000120A8DF83D308DF83F2004230822272189
:103CB000CDE90057204614F0A9FD0A9B8DF83C3051
:103CC00026223B462721CDE90057204614F09EFDD1
:103CD0000B9B8DF83C300C9B8DF83D30202202234D
:103CE0002721CDE90057204614F090FD099B8DF85F
:103CF0003C301B0A8DF83D30042202232321CDE9FC
:103D00000057204614F082FD07238DF83C30A9238C
:103D10008DF83D3002238DF83E3025238DF83F305D
:103D2000CDE9005704230C222321204614F06EFD18
:103D300094F87100002840F032810127009594F832
:103D40006E30019794F870C094F874104FEA08121E
:103D500007FA03F342EACC629B0442EA080803F440
:103D60004023890501F0F86148EA03030B4303434C
:103D70008DF83C301B0C4FF000088DF83E301B0ACC
:103D80008DF83F30424604231F2120468DF83D80A8
:103D900014F03CFDCDE9005794F86E30A16F07FA9E
:103DA00003F294F86D305B0343EA0243164A52F87B
:103DB000212013431A0CC4F8AC308DF83C308DF838
:103DC0003E20C3F30723120A8DF83D308DF83F20C3
:103DD000042342460821204614F018FD029B8DF86A
:103DE0003C300B223B462A21CDE90057204614F0F7
:103DF0000DFD19E0E8DB030080DC030074DC030048
:103E000028DC0300BCDC030030DC0300F0DB030033
:103E1000E4DB03006CDC0300A4DC030064DC0300CF
:103E20004CDC030084DC0300330C8DF83E301B0AAD
:103E30008DF83C608DF83F30424604231E21CDE9C9
:103E40000057C6F3072620468DF83D6014F0DEFCCF
:103E500042238DF83C3042463B460D21CDE90057C8
:103E6000204614F0D3FC0423CDE9005742461A2122
:103E700020468DF83C808DF83D808DF83E808DF891
:103E80003F8014F0C3FCA06F94F86E30063007FA40
:103E900000F080B2BB4200F1080076D0FCF7C2FA15
:103EA00069A3D3E90023FCF727FBFCF737FD94F85F
:103EB0006D30C4F88000022B5ED0012B00F08580AD
:103EC000DFED537A9FED537A5349544AC4F8841076
:103ED000002BC4F8882018BFF0EE477A94F86C30B5
:103EE000DFED4F6A013BDBB2032B97BF4D4A9FEDDD
:103EF0004E7A02EB830393ED007A67EE877A002017
:103F000087EEA67A84ED347A11B0BDE8F08F4123B4
:103F10001022CDE90B3294F86D30002B3FF4F0AD58
:103F2000A36F26F48602002B4AD028230A9394F824
:103F30007C3094F86E004FF0200B002B7FF4F1AD35
:103F400042F4802207F1080101280D924FEA410155
:103F500044D0204614F0B6FD0D9A064600287FF4A2
:103F6000E8AD324B53F82760E3E5CDE90053072372
:103F70008DF83C30062317E62D4A2E4BDFED257ACF
:103F8000C4F88420C4F88830A8E7FCF74BFA1EA3D5
:103F9000D3E90023FCF7B0FAFCF7C0FC87E7CDE9D2
:103FA0000057254894F86D10415C8DF83C103B4655
:103FB0004A462121204614F029FC4FF40030BCE68B
:103FC0004FF0100BCDF828B0A4E5194A1B4BDFEDDC
:103FD000117AC4F88420C4F888307FE70131204684
:103FE00014F070FD0D9A064600287FF4A2AD144B24
:103FF00053F827609DE5134B53F8276099E56FF060
:10400000850081E7AFF30080D7A3703D0ACD8F40D4
:104010008009EE3E80096E40163B10480CB0914678
:1040200000247449B0DB0300F29321B9ECDC0300F7
:104030000A3B904674B1914324DC030000B0114563
:1040400004DD0300D4DC03001F85EB51B80C8F4066
:104050002DE9F04F2DED028B83B0824619F096FDCD
:104060004FF02003EFF3118B83F31288BFF36F8FB0
:104070005D4818F0ABF95E46002800F09080DFF84C
:1040800078915948DFF87481584D18F0BBF9D9F888
:104090000040C8F800A04C4561D09FED518B524FB5
:1040A00051462B68D5F804A0019320464FEAE17CE5
:1040B000002C00F088802369D4F814E099427CEB4E
:1040C0000E0BA1EB0302C0F28180C8F80020019A18
:1040D0009A184AEBE37384ED048BC5E900231AF0C8
:1040E000B5FE384618F080F9E8B186F31188BFF3C1
:1040F0006F8FA368204698474FF02003EFF3118697
:1041000083F31288BFF36F8F384618F05FF9B34618
:1041100098B1384618F076F9D9F800404C451CD0D3
:10412000D8F80010BDE732493248AC2202F0CCFA90
:104130002F48AC2104F0A6FCD7E781222D482C495A
:1041400002F0C2FA2A48812104F09CFC384618F09B
:1041500059F9D9F800404C45E2D1D8F800A04FEA0F
:10416000EA7C2B6813EB0A032B606B684FF00004AA
:1041700043EB0C036B60C8F800401AF083FE214645
:104180000EF0C0FE184818F02FF990B18BF311888B
:10419000BFF36F8F03B0BDEC028BBDE8F08F144905
:1041A0001448812202F090FA1148812104F06AFC3F
:1041B00065E70F490F48AC2202F086FA0C48AC21A3
:1041C00004F060FCE2E78A46B346CAE75B1A236163
:1041D0006EEB0C038A466361B346C2E7AFF300801F
:1041E00000000000000000002468002000290020DA
:1041F000CCCF030090CF0300900200202068002065
:104200002DE9F04F2DED048BCFB08B4691461E4625
:1042100082461CF0C5FE036813931846FEF705FCA2
:10422000BBF80C300D9018061AD5DBF81030BBB96E
:10423000402150461BF0F2FECBF80000CBF81000F6
:1042400058B90C23CAF800304FF0FF330F930F9882
:104250004FB0BDEC048BBDE8F08F4023CBF8143099
:104260009FED937B0025CDE923558DED0A7BCDE9AC
:10427000155525AC229405950995119514950F9522
:104280004B461D4613F8012B0AB1252AF9D1B5EB8F
:1042900009070DD0249B3B442493239B0133072B18
:1042A000C4E90097239379DC08340F9B3B440F93B8
:1042B0002B78002B01F0F08000234FF0FF32013506
:1042C0008DF86B3004920E9398460A272B212A46CC
:1042D00012F8013B06930C92069B203B5A2B00F2EE
:1042E0006085DFE813F07E005E055E0586005E05F2
:1042F0005E055E0565005E055E05890093005E054E
:10430000900096005E05B300B600B600B600B60099
:10431000B600B600B600B600B6005E055E055E05E6
:104320005E055E055E055E0517015E05E900FC00A1
:104330001701170117015E055E055E055E05C600E3
:104340005E055E0578045E055E055E05B3045E05E8
:10435000D4045E055E05E8045E055E055E055E0547
:104360005E055E055E055E0517015E05E900FE005F
:10437000170117011701C900FE00E0005E05D60015
:104380005E055E047A04A204E0005E05B3047C00CE
:10439000D6045E055E05F2045E057C0022AA59463D
:1043A000504638F0F7FA002840F0238125AC7CE72E
:1043B00050461CF0F5FD436814931846FEF735FB94
:1043C000119050461CF0ECFD83680993119B2B2142
:1043D0002BB1099B1BB11B780BB148F480680C9D75
:1043E00075E79DF86B30002BF9D120238DF86B30E9
:1043F000F5E748F00108F2E756F8043B0E93002B6E
:10440000EDDA5B420E9348F00408E8E78DF86B1094
:10441000E5E70C9A12F8013B06932A2B13D156F8C4
:10442000040B0C9240EAE0730493D8E7049807FB6E
:104430000033049312F8013B0693069B303B092B93
:10444000F4D90C9248E700230493F6E748F080087B
:10445000C5E700230C9A0E93069B0E98303B07FB92
:1044600000330E9312F8013B0693303B092BF3D92E
:10447000E7E748F00808B2E70C9B1B78682B01BF00
:104480000C9B01330C9348F4007818BF48F04008A7
:10449000A5E70C9B1B786C2B48F010089FD10C9B58
:1044A00001330C939BE748F0100898E7AFF30080C6
:1044B00000000000000000003246002052F8043BDB
:1044C00007928DF8D4308DF86B000123039004938C
:1044D00007460646089005460DF1D409A7E148F0C5
:1044E0001008331D18F0100F079308D03668002EFF
:1044F00003DA2D2376428DF86B3001237EE318F02A
:10450000400F366801D036B2F1E718F4007F18BFCB
:1045100076B2ECE7073626F00703B3EC027B8DEDAD
:104520000A7B07930A9B09EE103A0B9B23F000438A
:1045300009EE903A4FF0FF323A4B51EC190BFCF771
:10454000EDFB18BB374B51EC190B4FF0FF32FCF76A
:10455000C7FBD8B9DDE90A0100220023FCF7B6FB4E
:1045600010B12D238DF86B302F4A3048069B002167
:10457000472BD4BF914681460323CDE9031328F08E
:10458000800800273E463B4600F0BABFDDE90A231B
:1045900010461946FCF7C2FB40B10B9B244A254844
:1045A000002BBCBF2D238DF86B30DFE7069B23F07B
:1045B0002003412B089325D130238DF86C30069BC6
:1045C000612B0CBF782358238DF86D30049B632B2F
:1045D00048F0020830DD591C50461BF01FFD814693
:1045E000002840F00182BBF80C3043F04003ABF8E8
:1045F0000C30BBF80C3013F0400F0F9B18BF4FF07E
:10460000FF3323E6049B013300F0F081089B472B26
:1046100040F0EF81049B002B40F0EB8103930123DA
:1046200004930CE0FFFFEF7FD7FB0300DBFB0300ED
:10463000DFFB0300E3FB030003900DF1D40948F412
:10464000807310930B9B002B80F2D5810A9B08EEA0
:10465000103A0B9B03F1004308EE903A2D23189378
:10466000089B412B40F0E581B0EE480AF0EE680A65
:104670001CA81DF041F900224FF07F5351EC100BA4
:10468000FBF73AFF0022002306460F46FCF714FB17
:1046900008B101231C93AB4BAB4A0699612918BFA3
:1046A0001A46049B1792013B05934D46A74B0022E7
:1046B00030463946FBF720FF0F460646FCF744FB21
:1046C0001990FBF7AFFE02460B4630463946FBF722
:1046D0005BFD199A179B9B5C05F8013B059B1293A8
:1046E0005A1C06460F4607D0013B059300220023C3
:1046F000FCF7E2FA0028D9D0954B00223046394623
:10470000FCF702FB60B9924B002230463946FCF7B9
:10471000D3FA002800F08881199BDB0740F18481DF
:10472000179B2095D97B3020209A531E209312F896
:10473000013C8B4200F06781392B0BBF179B013383
:104740009B7ADBB202F8013CA5EB09030593089BB9
:104750001C9D472B40F0B581EF1C03DB049BAB4253
:1047600080F2DA81069B023B069306999DF8182099
:1047700021F02001412908BF0F3205F1FF3306BFA8
:10478000D2B201210021002B1C93B8BFC5F1010357
:104790008DF87820B4BF2D222B22092B8DF879209B
:1047A00040F3A8810DF187020A26114693FBF6F526
:1047B00006FB1530303001F8010C1846632802F171
:1047C000FF322B46F1DC3033881E02F8013C0DF13C
:1047D00087050DF17A020346AB42C0F086810DF1E8
:1047E0008902521AA84288BF00220DF17A031A44A6
:1047F0001EABD31A059A1593012A1344049302DCC5
:1048000018F0010F03D0049B0D9A1344049328F46D
:104810008063002643F48073109308963546189BF6
:1048200013B12D238DF86B30DDF840800027049BF9
:10483000BB42B8BF3B4610939DF86B3013B1109B41
:104840000133109318F0020317931EBF109B02331D
:10485000109318F08403189322D10E9B109A9B1A80
:10486000002B12931CDD1298DDE923231028394810
:10487000206002F1010204F1080100F3A182129804
:1048800060600344072ACDE9232340F3AE8222AAC5
:104890005946504638F07EF8002840F0DB8525ACBC
:1048A0009DF86B3073B10DF16B03236001236360DE
:1048B000249B01332493239B0133072B239300F381
:1048C00096820834179B6BB11BAB23600223636095
:1048D000249B02332493239B0133072B239300F360
:1048E00090820834189B802B22D10E9B109A9B1A21
:1048F000002B12931CDD1298DDE9232310281648A3
:10490000206002F1010204F1080100F38482129890
:1049100060600344072ACDE9232340F3918222AA51
:104920005946504638F036F8002840F0938525ACBB
:10493000049BFF1A002F27DDDDE9233206482060A3
:10494000102F0BE095FB0300A6FB03000000304096
:104950000000E03FE9FB0300F9FB030003F1010362
:1049600004F1080100F36E826760072B1744CDE95C
:10497000233740F37A8222AA5946504638F00AF883
:10498000002840F0678525AC18F4807F249F40F014
:104990007382049BC4F800901F4463602497239B98
:1049A0000133072B239300F3AC82083418F0040F73
:1049B00040F03285DDE90E2310998A42ACBF9B1886
:1049C0005B180F93249B3BB122AA5946504637F0FF
:1049D000E1FF002840F03E8500232393039B002B3A
:1049E00040F0548525ACEBE0039028E603900623C5
:1049F00016E6039023E69DED0A7B0023B0EE478A7E
:104A0000F0EE678A2BE602F8010C8DE603F8010B45
:104A1000CA1A002AFADA129A129B013203F1010330
:104A2000B8BF00231D448FE6129A2B46A9183020E8
:104A3000EEE7089B462B05D0452B1BD1049B5D1C44
:104A4000022101E0049D032120AB01931DAB0093E3
:104A50002A461CAB5046B0EE480AF0EE680A00F059
:104A600057FD089B472B814606D118F0010F03D153
:104A7000209D69E6049DE3E7089B462B09EB0506AC
:104A80000FD199F80030302B09D151EC180B0022CE
:104A90000023FCF711F910B9C5F101051C951C9B09
:104AA0001E4451EC180B00220023FCF705F900B15D
:104AB00020963022209B9E42DAD9591C20911A70F0
:104AC000F8E7089B462B7FF450AE049A08F00103E8
:104AD000002D43EA02031ADD002B34D00D9BEB18A6
:104AE0001A4404926623069333E013F8016B02F82C
:104AF000016B71E641B930228DF87A200DF17B020D
:104B0000303302F8013B73E60DF17A02F8E7E3B1C6
:104B10000D9B049A0133E3E7059BAB4207DC18F0D9
:104B2000010F2BD00D9BEB1804936723DBE7059B4C
:104B30000D9A002D13440493F7DC049AC5F1010388
:104B40001A441346F0E70495CCE766230693012345
:104B5000049318F48063089321D00026002D089652
:104B60007FF75DAE099B1B78FF2B09D1089B049A48
:104B70001199334401FB0323049350E60495D4E7D1
:104B8000AB42F3DAED1A099B5B7833B1089B013332
:104B90000893099B01330993E4E70136E2E7089E95
:104BA0003DE6324618F0100F52F8043B079202D04F
:104BB0000F9A1A6004E018F0400F06D00F9A1A807E
:104BC000079EDDF83090FFF75BBB18F4007FEFD055
:104BD0000F9A1A70F4E748F01008331D18F0100F00
:104BE000079301D0366803E018F0400F18D03688DC
:104BF00028F48068002300228DF86B20049A01328B
:104C000000F0558428F080020392002E40F0548476
:104C1000049A002A00F0BA80012B40F0508471E021
:104C200018F4007FDED03678E2E73346782253F876
:104C3000046B079330238DF86C308D4B169348F03E
:104C400002088DF86D2002230692D4E73346002532
:104C500053F8049B0793049B8DF86B50581C10D09D
:104C60001A4629464846FBF73BFA0390002800F015
:104C7000A480A0EB0903CDE903532F462E460895E7
:104C8000D5E54846FDF7D1FECDE9035079E448F07B
:104C90001008331D18F0100F079301D0366803E099
:104CA00018F0400F02D036880123A4E718F4007FE3
:104CB000F4D03678F8E76F4B169318F0100F06F122
:104CC0000403079303D0366805E0694BF4E718F056
:104CD000400F10D0368818F0010F08D03EB13023B5
:104CE0008DF86C30069B8DF86D3048F0020828F482
:104CF000806802237FE718F4007FE4D03678EAE783
:104D0000092E05D830368DF837610DF23719EDE3ED
:104D100000230593039B4EAA0A2703F48065B6FB84
:104D2000F7F307FB1363303302F8013C059B0133B3
:104D300002F1FF390593C5B1099B059A1B789A4288
:104D400013D1FF2A11D0092E0FD9119B1499A9EB69
:104D500003091A46484637F0C2FB099B5B781BB132
:104D6000099B0133099300230593092EB6FBF7F342
:104D700040F2BC831E464A46D1E706F00F03169A5E
:104D80003609D35C09F8013DF7D1AFE333B918F028
:104D9000010F03D030238DF83731B6E70DF59C793C
:104DA000A4E3069B002B00F0778300208DF8D4301D
:104DB0008DF86B000796FFF788BB039FFFF7E2BBF8
:104DC00010200344072ACDE92323606008DD22AACE
:104DD0005946504637F0DEFD002840F03B8325A9B8
:104DE000129B103B12930C463DE50C4658E522AA57
:104DF0005946504637F0CEFD002840F02B8325ACB5
:104E000060E522AA5946504637F0C4FD002840F01C
:104E1000218325AC66E510200344072ACDE923232E
:104E2000606008DD22AA5946504637F0B3FD0028DD
:104E300040F0108325A9129B103B12930C465AE5B3
:104E40000C4675E510200244072BCDE92332606043
:104E500008DD22AA5946504637F09CFD002840F054
:104E6000F98225A9103F0C4666E50C468CE500BF8B
:104E7000A6FB030095FB0300069B652B40F33282E3
:104E8000DDE90A0100220023FBF716FF002868D0A5
:104E90006D4B236001231F446360239B24970133E0
:104EA000072B239337DC08341C9B059A934203DBC2
:104EB00018F0010F3FF47AAD139B23600D9B0D9A00
:104EC0006360249B13442493239B0133072B239378
:104ED0002BDC0834059B5D1E002D7FF767AD5B4E14
:104EE0001027DDE92332102D03F1010304F108013D
:104EF000266024DC2A4465602492072B239340F328
:104F0000888222AA5946504637F044FD002840F0D6
:104F1000A18225AC4AE522AA5946504637F03AFD0F
:104F2000002840F0978225ACBEE722AA5946504699
:104F300037F030FD002840F08D8225ACCAE71032F2
:104F4000072BCDE92332676008DD22AA5946504677
:104F500037F020FD002840F07D8225A9103D0C4649
:104F6000BFE71C9B002B73DC374B236001231F44DE
:104F70006360239B24970133072B23933DDC083484
:104F800005991C9A249B0A4308F001010A433FF447
:104F90000DAD139A22600D9A626013442493239BF3
:104FA0000133072B239332DC08341C9D002D1BDAC0
:104FB000264E6D4223461027DDE92321102D02F1F4
:104FC000010204F108041E602BDC5D60072A0D4419
:104FD000CDE9232508DD22AA5946504637F0DAFCF0
:104FE000002840F0378225AC059B059A6360249B1E
:104FF000C4F8009013442493D1E422AA59465046A1
:1050000037F0C8FC002840F0258225ACB8E722AA7A
:105010005946504637F0BEFC002840F01B8225ACB4
:10502000C3E71031072ACDE923215F6008DD22AAFA
:105030005946504637F0AEFC002840F00B8225ACB4
:10504000103D2346B8E700BFE7FB0300F9FB030070
:10505000059BAB42A8BF2B46002B049309DD1F44E0
:10506000C4E90093239B24970133072B239375DC1A
:105070000834049B002BACBFEF1A2F46002F18DD1D
:10508000DDE9233296482060102F03F1010304F17B
:1050900008016DDC6760072B1744CDE923377ADD03
:1050A00022AA5946504637F075FC002840F0D281BC
:1050B00025AC18F4806F4D4409D0089B002B6CD1AF
:1050C000002E6CD1059B4B449D4228BF1D461C9B66
:1050D000059A934202DB18F0010F0ED0139B236058
:1050E0000D9B0D9A6360249B13442493239B0133EF
:1050F000072B239300F3CD800834059B1C9E09EBFE
:1051000003029E1B521B9642A8BF1646002E0BDDC3
:10511000249B33442493239B0133072BC4E900567B
:10512000239300F3C08008341C9D059B002EA3EB45
:105130000505A8BFAD1B002D7FF738AC684E1027C2
:10514000DDE92332102D03F1010304F1080126608B
:1051500000F3B380656015442495CEE622AA594633
:10516000504637F017FC002840F0748125AC80E7EA
:1051700010200244072BCDE92332606008DD22AA0B
:105180005946504637F006FC002840F0638125A9B7
:10519000103F0C4674E70C468BE7002E49D0013EC9
:1051A000149B2360119B119A6360249B13442493E6
:1051B000239B0133072B239342DC0834059B099A78
:1051C0004B4412785B1B9A42A8BF1A46002A0492ED
:1051D0000ADD249B13442493239B0133072BC4E94A
:1051E0000052239336DC0834099B1F78049B002B64
:1051F000A8BFFF1A002F18DDDDE9233238482060F0
:10520000102F03F1010304F108012DDC6760072B67
:105210001744CDE923373ADD22AA5946504637F0E4
:10522000B9FB002840F0168125AC099B1B781D4472
:1052300043E7099B013B0993089B013B0893AFE7B8
:1052400022AA5946504637F0A5FB002840F00281BB
:1052500025ACB3E722AA5946504637F09BFB0028FD
:1052600040F0F88025ACBFE710200244072BCDE9C1
:105270002332606008DD22AA5946504637F08AFB87
:10528000002840F0E78025A9103F0C46B4E70C4603
:10529000CBE722AA5946504637F07CFB002840F065
:1052A000D98025AC29E722AA5946504637F072FB2F
:1052B000002840F0CF8025AC36E71032072BCDE92F
:1052C0002332676008DD22AA5946504637F062FB58
:1052D000002840F0BF8025A9103D0C4630E700BFF4
:1052E000F9FB0300059A239B012A07F1010703F14B
:1052F000010304F1080502DC18F0010F7ED0012241
:10530000072BCDE92337C4F80090626008DD22AA9C
:105310005946504637F03EFB002840F09B8025ADB3
:10532000139B2B600D9B0D9A6B60249B134424935D
:10533000239B0133072B239332DC0835059BDDE9E2
:105340000A015C1E00220023FBF7B6FC002830D1C6
:105350002399249B059A0131013B09F10100134473
:105360000729C5E90004CDE9231350DD22AA5946D7
:10537000504637F00FFB00286CD125AD1EAB2B60DB
:10538000159B159A6B60249B13442493239B013334
:10539000072B23933FF7B5AD05F10804FFF706BBD4
:1053A00022AA5946504637F0F5FA002852D125ADC9
:1053B000C4E7002CE2DD544E1027DDE92332102C27
:1053C00003F1010305F108012E6007DC6C60072B77
:1053D0001444CDE92334C9DC0D46CFE71032072B46
:1053E000CDE923326F6006DD22AA5946504637F0D8
:1053F000D1FA78BB25A9103C0D46DEE70122072B28
:10540000CDE92337C4F800906260B7DDAEE7083518
:10541000B4E70C46FFF7CABA0E9B109A9D1A002DEE
:105420007FF7C8AA394E1027DDE92332102D03F18A
:105430000103266018DC6560072B1544CDE9233590
:105440007FF7B8AA22AA5946504637F0A3FA002897
:105450003FF4B0AA039B002B3FF4CBA8194650465B
:105460001AF090FDFFF7C5B81032072BCDE92332B3
:10547000676002DC0834103DD6E722AA5946504640
:1054800037F088FA0028E5D125ACF4E703995046B7
:105490001AF078FDFFF7A6BA249B002B3FF4A9A8C9
:1054A00022AA5946504637F075FAFFF7A2B8CDF850
:1054B0000C80002E3FF4B0AB012B3FF421AC022B4B
:1054C0000DF59C793FF459AC06F007033033F6082C
:1054D0004A4609F8013DF7D10399C90706D5302B93
:1054E00004D0302309F8013CA2F102094EABA3EB32
:1054F0000903049F04930023DDF80C8003931E46E8
:1055000008931D46FFF793B9F9FB0300E9FB03007D
:105510002DE9F04F2DED048B57EC106B93B0456ADD
:10552000DDF88080069110EE10AA044609920C93D3
:10553000BB4675B910201AF015FD0246606220B90D
:10554000A74BEA21A7481AF0D5FCC0E90155056030
:10555000C560636A196851B15A684A600123934073
:105560008B6020461BF0DEFE636A00221A603B1E41
:10557000AABF002323F0004BC8F800309A4BBCBFF1
:105580000122C8F8002033EA0B031BD10C9A42F227
:105590000F731360CBF31303334300F09285219B09
:1055A00063B9924B22E0924B01930833219A136026
:1055B000019813B0BDEC048BBDE8F08F8B4B0193C9
:1055C0000333F3E70022002350465946FBF774FBF0
:1055D0004BEC19AB804658B10C9A01231360219B08
:1055E000002B00F06B8583481860431E0193DFE7B2
:1055F0004BEC10AB10AA11A920461CF00FF9CBF30D
:105600000A5508EE100A002D00F0848019EE903A39
:10561000C3F3130343F07F57564647F44017A5F2F0
:10562000FF35CDF83880744B002230463946FAF702
:10563000ABFD65A3D3E90023FAF75EFF64A3D3E9CA
:105640000023FAF7A3FD064628460F46FAF7EAFEBE
:1056500061A3D3E90023FAF74FFF02460B46304619
:105660003946FAF793FD06460F46FBF76DFB00221D
:105670000090002330463946FBF728FB50B10098D4
:10568000FAF7D0FE32463B46FBF716FB10B9009BFB
:10569000013B0093009B162B5AD8009A574B03EB03
:1056A000C203D3E9002351EC190BFBF70FFB0028D1
:1056B00050D0009B013B009300230B93109B5D1B7C
:1056C0006B1E059345BFC5F101030493002300231E
:1056D0004CBF05930493009B002B3DDB059B009A78
:1056E0000A921344059300230793069B092B00F2AB
:1056F0008980052BC4BF043B0693069BA3F10203DC
:10570000CCBF00250125032B00F28780DFE803F0E2
:105710002D3A3859DDE910531D4405F23243202B50
:10572000C1BFC3F1400305F212400BFA03F326FA9E
:1057300000F0DABFC3F1200306FA03F01843FAF7CA
:1057400061FE01230646A1F1F877013D0E936AE759
:105750000123B2E70B90B1E7049B009A9B1A0493D4
:105760005342079300230A93BFE700230893099B42
:10577000002B55DC0123CDE902331A4609920CE0D7
:105780000123F3E70023099A0893009B1344029333
:105790000133012B0393B8BF0123606A00224260EA
:1057A000042202F114069E4241683DD920461BF0B6
:1057B00079FD019000283BD1114B02464FF4D57181
:1057C000C0E60123DFE700BF61436F63A787D23FD5
:1057D000B3C8608B288AC63FFB799F501344D33FE0
:1057E00016FC03002DFC03000000F07F12FC0300F8
:1057F00009FC0300E8FB03000000F83F70CE030043
:1058000089FC030001250023069308954FF0FF3320
:10581000CDE9023300221223B0E701230893F5E714
:10582000099BCDE90233B8E7013141605200B8E786
:10583000636A019A1A60039B0E2B00F29D80002D73
:1058400000F09A80009B002B32DDB74A03F00F0373
:1058500002EBC303D3E90089009BD8054FEA231765
:1058600016D5B24B51EC190BD3E90823FAF76EFFAA
:1058700007F00F0782468B460325AC4E57B94246C8
:105880004B4650465946FAF761FF82468B4628E060
:105890000225F2E7F90708D540464946D6E9002334
:1058A000FAF72AFE0135804689467F100836E5E77B
:1058B00000F09B80009B9D4F5E429B4B06F00F02C9
:1058C00003EBC203D3E9002351EC190BFAF714FEE2
:1058D000361182468B4600230225002E7AD1002BFA
:1058E000D3D10B9B002B00F08280914B00225046BD
:1058F0005946FBF7EBF9002879D0039B002B76D0B3
:10590000029B002B36DD009B504659465F1E00224D
:10591000884BFAF7F1FD029E82468B4601352846F8
:10592000FAF780FD52465B46FAF7E6FD824B00220D
:10593000FAF72CFCD046D9468246A1F1507B002EC6
:1059400058D17E4B002240464946FAF71DFC52468C
:105950005B4680468946FBF7D7F9002840F09582E0
:1059600052460BF1004340464946FBF7AFF9002889
:1059700040F089825BEC19AB119B002BC0F248818F
:10598000009A0E2A00F34481674B03EBC203D3E96C
:105990000089099B002B80F2D580039B002B00F32C
:1059A000D18040F06F82654B002240464946FAF7AD
:1059B000A3FD52465B46FBF79DF9039E3746002840
:1059C00040F04582019D312305F8013B009B0133E6
:1059D000009340E2F20705D5D7E90023FAF78CFDE2
:1059E000013501237610083777E7022579E7009F14
:1059F000039E94E701994C4B31440D91089903EBB8
:105A0000C60353E90223002943D04D490020FAF789
:105A10009DFE52465B46FAF7B7FB019D82468B46D8
:105A200049464046FBF790F90646FAF7FBFC02466A
:105A30000B4640464946FAF7A7FB303605F8016B9E
:105A400052465B4680468946FBF740F9002863D101
:105A500042464B4636490020FAF796FB52465B46D3
:105A6000FBF734F9002840F0B5800D9B9D4281D0B2
:105A7000304B002250465946FAF73EFD2D4B8246E8
:105A80008B46404649460022FAF736FD8046894655
:105A9000C6E750465946FAF72FFD0D9B019D0F931F
:105AA00082468B4649464046FBF74EF90646FAF7D2
:105AB000B9FC303602460B4640464946FAF764FBCD
:105AC00005F8016B0D9B9D42804689464FF0000210
:105AD00024D11B4B50465946FAF758FB02460B4659
