:1000000000C00020DDEC000049E20000B1EC00007F
:10001000B1EC0000B1EC0000B1EC00000000000009
:1000200000000000000000000000000091E300005C
:10003000B1EC000000000000FDE20000B1EC0000A7
:100040001DE500001DE500001DE500001DE50000A8
:100050001DE500001DE500001DE500001DE5000098
:100060001DE500001DE500001DE500001DE5000088
:100070001DE500001DE500001DE500001DE5000078
:100080001DE500001DE500001DE500001DE5000068
:100090001DE500001DE500001DE500001DE5000058
:1000A0001DE500001DE500001DE500001DE5000048
:1000B0001DE500001DE500001DE500001DE5000038
:1000C0001DE500001DE500001DE500001DE5000028
:0C00D0001DE500001DE500001DE500001E
:0400DC00FFFFFFFF24
:1000E00001F0FF01102A2BDB10F0070F08D010F8E9
:1000F000013B013A8B422DD010F0070F42B3F6D1ED
:10010000F0B441EA012141EA014122F007047FF005
:1001100000070023F0E80256083C85EA010586EA5C
:10012000010685FA47F5A3FA87F586FA47F6A5FA98
:1001300087F68EB9EED1F0BC01F0FF0102F00702A4
:1001400032B110F8013B013A83EA010313B1F8D14F
:100150000020704701387047002D06BF3546033830
:10016000073815F0010F07D1013015F4807F02BF69
:10017000013015F4C03F0130F0BC0138704700BFBA
:1001800081F0004102E000BF83F0004330B54FEA48
:1001900041044FEA430594EA050F08BF90EA020FB5
:1001A0001FBF54EA000C55EA020C7FEA645C7FEA48
:1001B000655C00F0E2804FEA5454D4EB5555B8BF6B
:1001C0006D420CDD2C4480EA020281EA030382EADC
:1001D000000083EA010180EA020281EA0303362D6E
:1001E00088BF30BD11F0004F4FEA01314FF4801C41
:1001F0004CEA113102D0404261EB410113F0004F53
:100200004FEA03334CEA133302D0524263EB430309
:1002100094EA050F00F0A780A4F10104D5F1200EA7
:100220000DDB02FA0EFC22FA05F2801841F1000102
:1002300003FA0EF2801843FA05F359410EE0A5F1D6
:1002400020050EF1200E012A03FA0EFC28BF4CF007
:10025000020C43FA05F3C01851EBE37101F00045BD
:1002600007D54FF0000EDCF1000C7EEB00006EEBCA
:100270000101B1F5801F1BD3B1F5001F0CD3490854
:100280005FEA30004FEA3C0C04F101044FEA4452AB
:1002900012F5800F80F09A80BCF1004F08BF5FEA32
:1002A000500C50F1000041EB045141EA050130BD12
:1002B0005FEA4C0C404141EB0101013C28BFB1F524
:1002C000801FE9D291F0000F04BF01460020B1FA6F
:1002D00081F308BF2033A3F10B03B3F120020CDA42
:1002E0000C3208DD02F1140CC2F10C0201FA0CF020
:1002F00021FA02F10CE002F11402D8BFC2F1200C85
:1003000001FA02F120FA0CFCDCBF41EA0C0190403A
:10031000E41AA2BF01EB0451294330BD6FEA040483
:100320001F3C1CDA0C340EDC04F11404C4F120026E
:1003300020FA04F001FA02F340EA030021FA04F380
:1003400045EA030130BDC4F10C04C4F1200220FAD7
:1003500002F001FA04F340EA0300294630BD21FA15
:1003600004F0294630BD94F0000F83F4801306BFDB
:1003700081F480110134013D4EE77FEA645C18BFCF
:100380007FEA655C29D094EA050F08BF90EA020F66
:1003900005D054EA000C04BF1946104630BD91EA5E
:1003A000030F1EBF0021002030BD5FEA545C05D161
:1003B0004000494128BF41F0004130BD14F58004A0
:1003C0003CBF01F5801130BD01F0004545F0FE4114
:1003D00041F470014FF0000030BD7FEA645C1ABF49
:1003E000194610467FEA655C1CBF0B46024650EA80
:1003F000013406BF52EA033591EA030F41F40021AC
:1004000030BD00BF90F0000F04BF0021704730B531
:100410004FF4806404F132044FF000054FF0000106
:1004200050E700BF90F0000F04BF0021704730B5C7
:100430004FF4806404F1320410F0004548BF40429C
:100440004FF000013EE700BF42004FEAE2014FEAF1
:1004500031014FEA02701FBF12F07F4393F07F4FCC
:1004600081F06051704732F07F4208BF704793F0CF
:100470007F4F04BF41F40021704730B54FF46074E2
:1004800001F0004521F000411CE700BF50EA0102E5
:1004900008BF704730B54FF000050AE050EA01028E
:1004A00008BF704730B511F0004502D5404261EBFE
:1004B00041014FF4806404F132045FEA915C3FF43F
:1004C000D8AE4FF003025FEADC0C18BF03325FEADC
:1004D000DC0C18BF033202EBDC02C2F1200300FA8D
:1004E00003FC20FA02F001FA03FE40EA0E0021FAB2
:1004F00002F11444BDE600BF70B54FF0FF0C4CF4A0
:10050000E06C1CEA11541DBF1CEA135594EA0C0F51
:1005100095EA0C0F00F0DEF82C4481EA030621EA8C
:100520004C5123EA4C5350EA013518BF52EA0335C7
:1005300041F4801143F4801338D0A0FB02CE4FF079
:100540000005E1FB02E506F00042E0FB03E54FF0A9
:100550000006E1FB03569CF0000F18BF4EF0010EA1
:10056000A4F1FF04B6F5007F64F5407404D25FEA9D
:100570004E0E6D4146EB060642EAC62141EA555150
:100580004FEAC52040EA5E504FEACE2EB4F1FD0C92
:1005900088BFBCF5E06F1ED8BEF1004F08BF5FEA10
:1005A000500E50F1000041EB045170BD06F00046C2
:1005B00046EA010140EA020081EA0301B4EB5C046F
:1005C000C2BFD4EB0C0541EA045170BD41F4801167
:1005D0004FF0000E013C00F3AB8014F1360FDEBF8C
:1005E000002001F0004170BDC4F10004203C35DA68
:1005F0000C341BDC04F11404C4F1200500FA05F3EB
:1006000020FA04F001FA05F240EA020001F000428B
:1006100021F0004110EBD37021FA04F642EB060101
:100620005EEA430E08BF20EAD37070BDC4F10C042B
:10063000C4F1200500FA04F320FA05F001FA04F2EF
:1006400040EA020001F0004110EBD37041F10001DB
:100650005EEA430E08BF20EAD37070BDC4F12005E6
:1006600000FA05F24EEA020E20FA04F301FA05F24E
:1006700043EA020321FA04F001F0004121FA04F2F6
:1006800020EA020000EBD3705EEA430E08BF20EAC6
:10069000D37070BD94F0000F0FD101F00046400000
:1006A00041EB010111F4801F08BF013CF7D041EA82
:1006B000060195F0000F18BF704703F00046520086
:1006C00043EB030313F4801F08BF013DF7D043EA57
:1006D0000603704794EA0C0F0CEA135518BF95EA0D
:1006E0000C0F0CD050EA410618BF52EA4306D1D194
:1006F00081EA030101F000414FF0000070BD50EAB3
:10070000410606BF1046194652EA430619D094EA3C
:100710000C0F02D150EA013613D195EA0C0F05D126
:1007200052EA03361CBF104619460AD181EA03017A
:1007300001F0004141F0FE4141F470014FF0000032
:1007400070BD41F0FE4141F4780170BD70B54FF0CD
:10075000FF0C4CF4E06C1CEA11541DBF1CEA13554D
:1007600094EA0C0F95EA0C0F00F0A7F8A4EB05042F
:1007700081EA030E52EA03354FEA013100F0888026
:100780004FEA03334FF0805545EA131343EA1263EF
:100790004FEA022245EA111545EA10654FEA0026A4
:1007A0000EF000419D4208BF964244F1FD0404F55D
:1007B000407402D25B084FEA3202B61A65EB0305B9
:1007C0005B084FEA32024FF480104FF4002CB6EB76
:1007D000020E75EB030E22BFB61A754640EA0C00F6
:1007E0005B084FEA3202B6EB020E75EB030E22BF36
:1007F000B61A754640EA5C005B084FEA3202B6EB77
:10080000020E75EB030E22BFB61A754640EA9C0035
:100810005B084FEA3202B6EB020E75EB030E22BF05
:10082000B61A754640EADC0055EA060E18D04FEAC3
:10083000051545EA16754FEA06164FEAC30343EA63
:1008400052734FEAC2025FEA1C1CC0D111F4801F30
:100850000BD141EA00014FF000004FF0004CB6E729
:1008600011F4801F04BF01430020B4F1FD0C88BFC8
:10087000BCF5E06F3FF6AFAEB5EB030C04BFB6EBD3
:10088000020C5FEA500C50F1000041EB045170BDC6
:100890000EF0004E4EEA113114EB5C04C2BFD4EBF3
:1008A0000C0541EA045170BD41F480114FF0000E77
:1008B000013C90E645EA060E8DE60CEA135594EAF3
:1008C0000C0F08BF95EA0C0F3FF43BAF94EA0C0FF6
:1008D0000AD150EA01347FF434AF95EA0C0F7FF46B
:1008E00025AF104619462CE795EA0C0F06D152EABF
:1008F00003353FF4FDAE1046194622E750EA4106A3
:1009000018BF52EA43067FF4C5AE50EA41047FF4B3
:100910000DAF52EA43057FF4EBAE12E74FEA410216
:1009200012F5001215D211D56FF47873B3EB625241
:1009300012D94FEAC12343F0004343EA505311F068
:10094000004F23FA02F018BF404270474FF00000FA
:10095000704750EA013005D111F0004008BF6FF038
:10096000004070474FF00000704700BF80F000402B
:1009700002E000BF81F0004142001FBF5FEA410377
:1009800092EA030F7FEA226C7FEA236C6AD04FEA77
:100990001262D2EB1363C1BFD218414048404140BC
:1009A000B8BF5B42192B88BF704710F0004F40F46E
:1009B000000020F07F4018BF404211F0004F41F48A
:1009C000000121F07F4118BF494292EA030F3FD056
:1009D000A2F1010241FA03FC10EB0C00C3F1200369
:1009E00001FA03F100F0004302D5494260EB4000F8
:1009F000B0F5000F13D3B0F1807F06D340084FEA63
:100A0000310102F10102FE2A51D2B1F1004F40EB57
:100A1000C25008BF20F0010040EA030070474900BF
:100A200040EB0000013A28BFB0F5000FEDD2B0FA5C
:100A300080FCACF1080CB2EB0C0200FA0CF0AABF7F
:100A400000EBC25052421843BCBFD040184370471D
:100A500092F0000F81F4000106BF80F40000013223
:100A6000013BB5E74FEA41037FEA226C18BF7FEAFA
:100A7000236C21D092EA030F04D092F0000F08BF3C
:100A80000846704790EA010F1CBF0020704712F023
:100A90007F4F04D1400028BF40F00040704712F162
:100AA00000723CBF00F50000704700F0004343F0C7
:100AB000FE4040F4000070477FEA226216BF0846FD
:100AC0007FEA23630146420206BF5FEA412390EAC0
:100AD000010F40F4800070474FF0000304E000BFB6
:100AE00010F0004348BF40425FEA000C08BF704767
:100AF00043F0964301464FF000001CE050EA01022B
:100B000008BF70474FF000030AE000BF50EA01023F
:100B100008BF704711F0004302D5404261EB41012C
:100B20005FEA010C02BF84460146002043F0B64351
:100B300008BFA3F18053A3F50003BCFA8CF2083A76
:100B4000A3EBC25310DB01FA02FC634400FA02FC7F
:100B5000C2F12002BCF1004F20FA02F243EB020086
:100B600008BF20F00100704702F1200201FA02FCE8
:100B7000C2F1200250EA4C0021FA02F243EB0200DB
:100B800008BF20EADC70704753B94AB9002908BF92
:100B900000281CBF4FF0FF314FF0FF3000F00CB8C1
:100BA000ADF1080C6DE904CE01F0F8FADDF804E0CF
:100BB000DDE9022304B07047704700BF2DE9F14F13
:100BC00003F11C0402EB840C4FEA930B8A68CB6898
:100BD0000868496800F046F93CE9F0006040694067
:100BE00072407B400BF1060E4EE083EA134480EA2C
:100BF000134582EA134746BA96EA3444604000F04F
:100C00000F1684EA063420F00F1684EA161054BA40
:100C100094EA0106724002F00F1486EA043622F0CC
:100C20000F1486EA14124CBA6540694001F00F14A3
:100C300085EA043521F00F1485EA14115CBA674087
:100C40007B4003F00F1487EA043723F00F1487EA80
:100C5000141344BA44404DBA4D4056BA56405FBA98
:100C60005F4087EA174886EA174B84EA17464FEA3F
:100C700038488BEA1B4485EA1B4788EA1B4580EA13
:100C80003440694072407B4000F0703400F08035A1
:100C900000F00F3040EA440040EAD50080EA9004BA
:100CA00004F0332480EA8400604001F0703401F0E5
:100CB000803501F00F3141EA440141EAD50181EA72
:100CC000910404F0332481EA8401614002F070341D
:100CD00002F0803502F00F3242EA440242EAD502C5
:100CE00082EA920404F0332482EA8402624003F030
:100CF000703403F0803503F00F3343EA440343EAD2
:100D0000D50383EA930404F0332483EA8403634025
:100D1000C943DB4381EA000483EA044686EA020110
:100D200083EA014382EA334583EA14435C4084EA60
:100D300000077FEA040A8AEA024A8AEA010B87EA84
:100D400011488AEA374A80EA060181EA1A418AEAAA
:100D5000030A04EA0A00454088EA040707EA0B0090
:100D600041408AEA0B0608EA060084EA34428AEA2D
:100D70003A4602EA060358404540414087EA374375
:100D80008BEA3B4003EA000985EA090582EA030988
:100D9000464006EA0906714085EA010005EA354643
:100DA000464006EA314181EA304181EA364606EAA8
:100DB000304686EA354634400F4086EA010508EAA7
:100DC000050886EA3640024088EA020881EA314294
:100DD00013405C4080EA020309EA030987EA090735
:100DE000674088EA040806EA0A0601EA0B018AEA73
:100DF0000B0425408AEA3A44204045408BEA3B4BAD
:100E000002EA0B02564084EA0B04234059406E402C
:100E1000694087EA364080EA384080EA060380EA83
:100E2000104481EA134585EA344585EA17427D403E
:100E300082EA354180EA05403CE9F00060406940C3
:100E400072407B40BEF1010E3FF6CFAE20BC00F0F9
:100E50005FF828606960AA60EB60BDE8F08F00BFB2
:100E600000F000BA80EA101404F0F01480EA0410D4
:100E7000604081EA111404F0F01481EA0411614029
:100E800082EA121404F0F01482EA0412624083EA47
:100E9000131404F0F01483EA0413634080EA10246E
:100EA00004F47F4480EA0420604081EA112404F4C1
:100EB0007F4481EA0421614082EA122404F47F44E1
:100EC00082EA0422624083EA132404F47F4483EA22
:100ED0000423634081EA500404F0553480EA44005E
:100EE000614083EA520404F0553482EA44026340CC
:100EF00082EA900404F0333480EA8400624083EA9A
:100F0000910404F0333481EA84016340704700BFE8
:100F100082EA900404F0333480EA8400624083EA79
:100F2000910404F0333481EA8401634081EA50047F
:100F300004F0553480EA4400614083EA520404F02E
:100F4000553482EA4402634080EA102404F47F446A
:100F500080EA0420604081EA112404F47F4481EA9D
:100F60000421614082EA122404F47F4482EA0422CC
:100F7000624083EA132404F47F4483EA0423634039
:100F800080EA101404F0F01480EA0410604081EA52
:100F9000111404F0F01481EA0411614082EA121481
:100FA00004F0F01482EA0412624083EA131404F09D
:100FB000F01483EA04136340704700BF2DE9F14F3A
:100FC00094464FEA930B8A68CB6808684968FFF734
:100FD00049FF0BF1060E33E083EA134480EA134520
:100FE00082EA134746BA96EA3444604000F00F168E
:100FF00084EA063420F00F1684EA161054BA94EAF4
:101000000106724002F00F1486EA043622F00F1433
:1010100086EA14124CBA6540694001F00F1485EA63
:10102000043521F00F1485EA14115CBA67407B4047
:1010300003F00F1487EA043723F00F1487EA141320
:10104000BCE8F0006040694072407B4000F0E03452
:1010500000F0103500F00F3040EA540040EAC500BF
:1010600080EA900404F0332480EA8400604001F0B8
:10107000E03401F0103501F00F3141EA540141EA4A
:10108000C50181EA910404F0332481EA84016140BE
:1010900002F0E03402F0103502F00F3242EA54025E
:1010A00042EAC50282EA920404F0332482EA84020E
:1010B000624003F0E03403F0103503F00F3343EAED
:1010C000540343EAC50383EA930404F0332483EA18
:1010D0008403634081EA324787EA134581EA354653
:1010E00090EA060484EA034B82EA1B4280EA044445
:1010F00084EA054483EA144A85EA14448BEA044BE3
:1011000084EA374481EA0B4181EA164104EA0A0085
:10111000454082EA04082BEA080041408AEA0B06AF
:1011200002EA060084EA34438AEA3A4603EA0607FA
:1011300078404540414088EA38478BEA3B4007EA1F
:10114000000985EA090583EA0709464006EA090617
:10115000714085EA010005EA3546464006EA31411C
:1011600081EA304181EA364606EA304686EA35466B
:10117000344008EA010886EA01052A4086EA36403A
:1011800003405A4081EA31431F407C4080EA030714
:1011900009EA070988EA0908544088EA020806EAC9
:1011A0000A0601EA0B018AEA0B0215408AEA3A4272
:1011B000104045408BEA3B4003405E4042401740B0
:1011C00079404D404E40E443F64386EA18435D4083
:1011D00085EA054083EA134386EA034183EA3842FD
:1011E00084EA114383EA04435FEA3343BEF1010E0C
:1011F0003FF6F2AE1ED4BCE8F00060406940724099
:101200007B4020BCFFF784FE28606960AA60EB6029
:10121000BDE8F08F2DE9E0414FF2F00280EA103195
:10122000114080EA0130484041088208C3084FF06D
:10123000000E4FE700F0113001F0113102F01132D1
:1012400003F0113340EA410040EA820040EAC30063
:101250004FF2F00280EA1031114080EA013048403C
:10126000BDE8E0812DE9F04F02F11C050646074676
:1012700000EB850851F8040B043A46F8040BF9D149
:101280004FF0010CFFF7C6FF5FEA302080EA0C0048
:101290001ECF41404A4053405C401EC62000464598
:1012A00017D04FEA4C0C1CF4807F18BFACF1E50C52
:1012B0002C2DE7D03C2D06D1FFF7ACFF06CF4140E7
:1012C0004A4006C6100006CF41404A4006C61000FC
:1012D000D8E736E90F00FFF7C5FD043D86E80F00AB
:1012E000F7D1BDE8F08F00BF2DE9F00391E8F803D6
:1012F000B2E802105B1854EB0C04B2E802104D4146
:1013000056EB0C0692E806104F4158EB020859EBD9
:101310000C0980E8F80380410130BDE8F003704714
:101320002DE9F00391E8F803B2E802105B1A74EBC0
:101330000C04B2E802108D4176EB0C0692E8061020
:101340008F4178EB020879EB0C0980E8F8038041C3
:101350004042BDE8F00370472DE9F003524290E8A7
:101360003800B1E880031740DB1918EA020854EB93
:10137000080419EA020955EB090538C090E878001D
:1013800091E8820311404B4117407C4118EA020862
:1013900055EB080519EA020956EB090678C08041A9
:1013A0000130BDE8F00370472DE9F003524290E8A8
:1013B0003800B1E880031740DB1B18EA020874EB21
:1013C000080419EA020975EB090538C090E87800AD
:1013D00091E8820311408B411740BC4118EA020892
:1013E00075EB080519EA020976EB090678C0804119
:1013F0004042BDE8F00370472DE9F00152424FF042
:10140000030890E8300091E8C000A31B1340E41AE1
:10141000F618EB1B1340ED1AFF1830C0C0C1B8F12D
:101420000108EED104680E68A31B1340E41AF618F5
:1014300004600E60BDE8F001704700BF00B592EC9B
:10144000070AB1E8005E07EE101A56EC102A58ECB5
:10145000117AA9FB0250AAFB0234E9FB6603EBFBFD
:10146000624340EC145AAAFB0605ECFB6235E9FB2B
:101470006740E9FB6830EEFB6250AAFB0721EAFBFC
:101480006851EBFB680112EE108AEBFB6632ECFB55
:101490006652EAFB6802EBFB681243EC154AA9FBB3
:1014A000084312EE908AE9FB6803EAFB6813EBFB42
:1014B0006823EBFB6754EEFB660413EE108AE9FB2E
:1014C0006814EAFB6824EBFB683406EE105A17EE4A
:1014D000109A99E8000CACFB076511EE909AECFBB2
:1014E0006915EEFB6925EAFB6935EBFB694510EEF2
:1014F000109AEAFB6906EBFB691612EE109AECFBF8
:101500006926EEFB6936EAFB6946EBFB695610EE8D
:10151000909AAAFB0987EBFB692712EE909AECFBE5
:101520006937EEFB6947EAFB6957EBFB696711EE28
:10153000109AEEFB6918EAFB6928EBFB693813EE99
:10154000109AECFB6948EEFB6958EAFB6968EBFB13
:10155000697800BD2DE9F04F07EE900AFFF76EFFA6
:1015600017EE909AA9EC054A89E8FF01BDE8F08FD3
:1015700000B591E8805FA7FB0750A7FB0834E7FBA5
:101580006803E7FB694340EC145AA7FB0905E7FB36
:101590006A35E8FB6840E7FB6A30E7FB6B50A8FB65
:1015A0000921E7FB6B51E7FB6C01E8FB6932E8FBC3
:1015B0006A52E7FB6C02E7FB6E1243EC154AA8FB8C
:1015C0000A43E8FB6B03E7FB6E13E8FB6E23E9FBC2
:1015D0006954E8FB6B04E8FB6C14E8FB6E24E9FB40
:1015E0006E3406EE105AA9FB0A65E8FB6C15E9FBA0
:1015F0006C25E9FB6E35EAFB6E45E9FB6A06E9FB03
:101600006B16E9FB6C26EAFB6C36EAFB6E46EBFBDD
:101610006E56A9FB0B87EAFB6B27EAFB6C37EBFBEB
:101620006C47EBFB6E57ECFB6E67EAFB6A18EAFB54
:101630006B28EBFB6B38EBFB6C48ECFB6C58ECFB62
:101640006E68EEFB6E7800BD2DE9F04F07EE900A54
:10165000FFF78EFF17EE909AA9EC054A89E8FF0183
:10166000BDE8F08F2DE9F00791E8F807B2E8021025
:101670005B1854EB0C04B2E802104D4156EB0C061B
:10168000B2E802104F4158EB0C08B2E8021059EBD7
:1016900001095AEB0C0A80E8F80780410130BDE8E7
:1016A000F00770472DE9F00791E8F807B2E802105B
:1016B0005B1A74EB0C04B2E802108D4176EB0C0659
:1016C000B2E802108F4178EB0C08B2E8021079EB17
:1016D00001097AEB0C0A80E8F80780414042BDE836
:1016E000F00770472DE9F007524290E87800B1E822
:1016F00080071740DB1918EA020854EB080419EABE
:10170000020955EB09051AEA020A56EB0A0678C0E7
:1017100090E87800B1E8800717407B4118EA02089A
:1017200054EB080419EA020955EB09051AEA020A02
:1017300056EB0A0678C080410130BDE8F0077047DB
:101740002DE9F007524290E87800B1E88007174091
:10175000DB1B18EA020874EB080419EA020975EBAE
:1017600009051AEA020A76EB0A0678C090E87800C2
:10177000B1E880071740BB4118EA020874EB08047F
:1017800019EA020975EB09051AEA020A76EB0A065C
:1017900078C080414042BDE8F00770472DE9F00174
:1017A00052424FF0040890E8300091E8C000A31BBB
:1017B0001340E41AF618EB1B1340ED1AFF1830C063
:1017C000C0C1B8F10108EED1BDE8F001704700BF1B
:1017D00000B592EC080AB1E8805707EE101A53ECF6
:1017E000102A56EC114AA7FB0251A8FB020BE7FB9B
:1017F0006310E9FB62B041EC145AA8FB0351EAFB09
:101800006201E7FB64B5E7FB6605E8FB661505EEDC
:1018100010BAA9FB03B6EAFB6316ECFB6356E8FBC0
:10182000640BE9FB641BEAFB645BECFB646B05EE99
:10183000900AACFB023012EE104AEEFB6250E9FB5C
:101840006460EAFB64B0E7FB6431E8FB645112EECC
:10185000904AE8FB6461E9FB64B1EAFB640106EECF
:10186000103AA7FB043213EE104AE7FB6462E8FB70
:1018700064B2E9FB6402EAFB641211EE904AE9FBF0
:101880006453EAFB646313EE904AE7FB64B3E8FB3E
:101890006403E9FB6413EAFB642306EE905A17EE37
:1018A000109A99E8000610EE108AA9FB0854EAFB8A
:1018B00068B412EE108AECFB6804EEFB6814E9FBD6
:1018C0006824EAFB683410EE908AEEFB6865E9FB59
:1018D00068B5EAFB680512EE908AECFB6815EEFB32
:1018E0006825E9FB6835EAFB684507EE106A11EEEA
:1018F000108AAEFB0876E9FB6806EAFB681613EE71
:10190000108AECFB6826EEFB6836E9FB6846EAFBCA
:10191000685611EE908AECFB68B7EEFB6807E9FBAE
:101920006817EAFB682713EE908AECFB6837EEFB3A
:101930006847E9FB6857EAFB686700BD2DE9F04F8F
:1019400007EE900AFFF744FF17EE908A07EE90BA71
:10195000A8EC084A88E8FF00BDE8F08F00B591E8E0
:101960009857A3FB0352A3FB0401E3FB6420E3FBB2
:10197000671042EC145AA3FB0752E3FB6802E4FB36
:101980006415E3FB6805E3FB6925A4FB07B6E3FBED
:101990006926E3FB6A56E4FB670BE4FB682BE3FB79
:1019A0006A5BE3FB6C6B40EC151AA4FB0810E4FBCC
:1019B0006950E3FB6C60E3FB6EB0E7FB6721E4FB7F
:1019C0006951E4FB6A61E3FB6EB1E4FB6E0106EE74
:1019D000102AA7FB0832E4FB6A62E4FB6CB2E4FB6A
:1019E0006E02E7FB6E12E7FB6853E7FB6963E4FBFB
:1019F0006CB3E7FB6C03E7FB6E13E8FB6E2306EEAC
:101A0000905AA7FB0954E7FB6AB4E7FB6C04E8FBB8
:101A10006C14E8FB6E24E9FB6E34E8FB6865E7FBB9
:101A20006AB5E8FB6A05E8FB6C15E9FB6C25E9FB88
:101A30006E35EAFB6E4507EE106AA8FB0976E8FBF7
:101A40006A06E9FB6A16E9FB6C26EAFB6C36EAFBE0
:101A50006E46ECFB6E56E8FB69B7E9FB6907E9FBEC
:101A60006A17EAFB6A27EAFB6C37ECFB6C47ECFB76
:101A70006E57EEFB6E6700BD2DE9F04F07EE900A42
:101A8000FFF76CFF17EE908A07EE90BAA8EC084AB1
:101A900088E8FF00BDE8F08F30B44FF0000310F885
:101AA000014B11F8015B013A84EA050443EA04039F
:101AB000F5D1A3F101034FEAD37030BC704700BFEA
:101AC0004FF0000310F8012B013943EA0203F9D16A
:101AD000A3F101034FEAD370704700BF30B411F88F
:101AE000014B12F8015B6C4000F8014B013BF6D151
:101AF00030BC70472DE9F00391E8F803B2E802101A
:101B00005B1854EB0C04B2E802104D4156EB0C0686
:101B100092E806104F4158EB020859EB0C09894135
:101B2000013B74F1000475F1000576F1FF3677F1A1
:101B3000FF3778F1FF3879F1FF3951F1000113EBEC
:101B4000D17354F1000455F100054E414F4158EB5B
:101B5000010859EB010980E8F803BDE8F00370477C
:101B60002DE9F00391E8F803B2E802105B1A74EB78
:101B70000C04B2E802108D4176EB0C0692E80610D8
:101B80008F4178EB020879EB0C09894113EBD17393
:101B900054F1000455F100054E414F4158EB010846
:101BA00059EB010980E8F803BDE8F003704700BF76
:101BB0002DE9F04F07EE900AFFF740FC5AEC359AFA
:101BC000B9EB05097AEB060AB84171EB080172F12D
:101BD000000273F1000374F100046BEB0B0B491965
:101BE00072417B4154EB08044BF1000557EC146A39
:101BF00015EE108ABEEB0E0E59EB02095AEB030AE2
:101C0000604169415EF1000E96419F4178EB040806
:101C100079EB05097AF1000A70F1000B71F1000C03
:101C20006EF1010E16EBDE7657F1000758F1000851
:101C300059EB0E095AEB0E0A5BEB0E0B5CEB0E0C2C
:101C400017EE900A80E8C01FBDE8F08F2DE9F04F35
:101C500007EE900AFFF78CFCB0E700BF2DE9F00714
:101C600091E8F807B2E802105B1854EB0C04B2E8F4
:101C700002104D4156EB0C06B2E802104F4158EBF2
:101C80000C08B2E8021059EB01095AEB0C0A894121
:101C9000B3F1FF3374F1FF3475F1FF3576F10006CF
:101CA00077F1000778F1000879F101097AF1FF3A3C
:101CB00051F100015B184C414D4156F1000657F1BE
:101CC000000758F1000859EBD1795AEB010A80E876
:101CD000F807BDE8F00770472DE9F00791E8F8072D
:101CE000B2E802105B1A74EB0C04B2E802108D41EA
:101CF00076EB0C06B2E802108F4178EB0C08B2E8E4
:101D0000021079EB01097AEB0C0A89415B184C410E
:101D10004D4156F1000657F1000758F1000859EB04
:101D2000D1795AEB010A80E8F807BDE8F00770475F
:101D300018EB040859EB05095AEB060A5BEB070B95
:101D40005FF0000C4CF1000C18EB050859EB06098C
:101D50005AEB070A5BEB070B50EB0C005FF0000C33
:101D600051EB0C0152EB0C0263414CF1000CB8EB4F
:101D7000070879F100097AF1000A7BEB040BA8410E
:101D8000B141A241B3416CF1000CBBEB050BB0417A
:101D9000B941AA41BB416CF1000C6FEAEC74B8EB9D
:101DA000040879EB04097AEB040A7BF1000B70F16B
:101DB000000071F1000172EBD472A3416CF1000CD0
:101DC00018EBEC7859EBEC795AEBEC7A5BF1000B01
:101DD00050F1000451F1000552EBDC7653EBEC7747
:101DE0004CF1000C18EBEC7059EBEC715AEBEC7207
:101DF0005BF1000354F1000455F1000556EBDC766D
:101E000057EBEC77704700BF2DE9F04F07EE900AD3
:101E1000FFF7DEFC59EC168A17EE10AAFFF788FFD1
:101E200059EC148A5BEC15AAFFF782FF17EE908A33
:101E300088E8FF00BDE8F08F2DE9F04F07EE900A2B
:101E4000FFF78CFD59EC168A17EE10AAFFF770FF0A
:101E500059EC148A5BEC15AAFFF76AFF17EE908A1B
:101E600088E8FF00BDE8F08F2DE9F04F90E8F00F13
:101E700000F140004FF0040E59E0F0B4826BC36BE8
:101E800004680525242687593C444FEA724787EAAF
:101E9000F24787EA92273C4442684FEAF21787EA02
:101EA000B24787EAD2073C4440F8044B032D08BFF1
:101EB0006FF01B0687593A444FEA734787EAF347A6
:101EC00087EA93273A4443684FEAF31787EAB34710
:101ED00087EAD3073A4440F8042B87593B444FEA3A
:101EE000744787EAF44787EA94273B4444684FEAFB
:101EF000F41787EAB44787EAD4073B4440F8043B29
:101F0000013DC0D1A0F13C00076A3C444FEA724752
:101F100087EAF24787EA92273C4402684FEAF217C1
:101F200087EAB24787EAD2073C44C463F0BC4FF06B
:101F3000020288EA781C8CEAF84C0BEBBC1C8AEA9B
:101F4000090303EA080383EA0A039C4450F8043BAC
:101F50009C4451F8043B9C44674444EA050B0BEA5B
:101F6000060B04EA05034BEA030BE34484EAF4237B
:101F700083EA34530BEBB30B87EA771C8CEAF74CFC
:101F80000AEBBC1C89EA080303EA070383EA090396
:101F90009C4450F8043B9C4451F8043B9C446644E8
:101FA0004BEA040A0AEA050A0BEA04034AEA030AAE
:101FB000E2448BEAFB2383EA3B530AEBB30A86EA4B
:101FC000761C8CEAF64C09EBBC1C88EA070303EA92
:101FD000060383EA08039C4450F8043B9C4451F8F0
:101FE000043B9C4465444AEA0B0909EA04090AEAED
:101FF0000B0349EA0309E1448AEAFA2383EA3A53E4
:1020000009EBB30985EA751C8CEAF54C08EBBC1C9E
:1020100087EA060303EA050383EA07039C4450F8B2
:10202000043B9C4451F8043B9C44644449EA0A083C
:1020300008EA0B0809EA0A0348EA0308E04489EAC7
:10204000F92383EA395308EBB30884EA741C8CEA59
:10205000F44C07EBBC1C86EA050303EA040383EA9D
:1020600006039C4450F8043B9C4451F8043B9C44B8
:10207000E34448EA090707EA0A0708EA090347EAC6
:102080000307674488EAF82383EA385307EBB3076A
:102090008BEA7B1C8CEAFB4C06EBBC1C85EA040338
:1020A00003EA0B0383EA05039C4450F8043B9C4479
:1020B00051F8043B9C44E24447EA080606EA090654
:1020C00007EA080346EA0306664487EAF72383EA39
:1020D000375306EBB3068AEA7A1C8CEAFA4C05EB16
:1020E000BC1C84EA0B0303EA0A0383EA04039C444E
:1020F00050F8043B9C4451F8043B9C44E14446EABC
:10210000070505EA080506EA070345EA03056544ED
:1021100086EAF62383EA365305EBB30589EA791C90
:102120008CEAF94C04EBBC1C8BEA0A0303EA0903B2
:1021300083EA0B039C4450F8043B9C4451F8043B55
:102140009C44E04445EA060404EA070405EA060361
:1021500044EA0304644485EAF52383EA355304EB37
:10216000B304013A7FF4E5AEA0F14000BEF1010EE8
:102170007FF483AEA0F1400C9CE80F0000194919D0
:102180009219DB19ACE80F009CE80F004044494469
:1021900052445B44ACE80F00BDE8F08F2DE9F047F6
:1021A00086468C460846089E154674461946002BFE
:1021B00040F0C2808542B2FA82F245D94AB1C2F1FA
:1021C000200300FA02FC2EFA03F3954043EA0C0CBC
:1021D00094404FEA154EA8B2BCFBFEF8230C0EFB50
:1021E00018CC08FB00F943EA0C43994528D9EB18B1
:1021F00008F1FF3704D2994502D9A8F102072B4410
:10220000A3EB0903A4B2B3FBFEFC0EFB1C330CFBD7
:1022100000F044EA0344A04214D92C190CF1FF3316
:1022200004D2A04202D9ACF102032C44241A43EA9E
:1022300007401EB1D440002334607360BDE8F087CE
:102240004746DDE76346F1E792BB431B01214FEAB6
:10225000154EAFB2B3FBFEFC200C0EFB1C330CFB87
:1022600007F840EA0343984562D9EB180CF1FF30B8
:1022700004D2984502D9ACF102002B44A3EB080329
:10228000A4B2B3FBFEFC0EFB1C330CFB07F744EAC5
:102290000344A7424ED92C190CF1FF3304D2A742B4
:1022A00002D9ACF102032C44E41B43EA0040C0E72E
:1022B000C2F1200320FA03F1954090402EFA03F377
:1022C00003434FEA154EAFB2B1FBFEFC0EFB1C10F0
:1022D000190C0CFB07F841EA0041884504FA02F4A6
:1022E00022D969180CF1FF3004D2884502D9ACF12B
:1022F00002002944A1EB08019BB2B1FBFEFC0EFBDE
:102300001C110CFB07F743EA01439F420ED9EB185F
:102310000CF1FF3104D29F4202D9ACF102012B44EF
:10232000DB1B41EA004192E76046E3E76146F7E7DD
:102330006046A3E76346B7E7834206D916B9002192
:1023400008467BE7C6E900E0F9E7B3FA83F78FB9FF
:10235000834201D3724508D8BEEB020460EB03034D
:1023600001209C461EB9002168E73846FAE7C6E915
:10237000004CF8E7C7F1200CBB4022FA0CF41C43D8
:102380002EFA0CF120FA0CF3B84001434FEA14493D
:102390000EFA07F5B3FBF9F81FFA84FE09FB1830B3
:1023A0000B0C08FB0EFA43EA00439A4502FA07F2C7
:1023B00040D9E31808F1FF3004D29A4502D9A8F1B8
:1023C00002002344A3EB0A0389B2B3FBF9F809FB2B
:1023D000183308FB0EFE41EA03418E452CD96118E3
:1023E00008F1FF3304D28E4502D9A8F1020321443B
:1023F00043EA0040A0FB0298A1EB0E014145CE4606
:10240000434602D306D14D4504D2B9EB020E68EB28
:1024100004030138002EA6D0B5EB0E0261EB0301D8
:1024200001FA0CFC22FA07F34CEA0303F940C6E96F
:10243000003198E74046C5E74346D9E710F8012B3D
:1024400011F8013B012A28BF9A42F7D0D01A7047F1
:10245000034613F8012B002AFBD1181A01387047E4
:1024600010B54FF0FF331E484FF0FF3220F0B0FCA4
:102470001C4B0024BFF35B8F1A68BFF35B8F7AB1EC
:102480000134042C03F12003F4D10CF0BBFE17231C
:1024900003604FF0FF34124820F0A6FD204610BD27
:1024A000BFF35B8F53E8001F013143E80012002A9D
:1024B000F8D1BFF35B8F9FED087B0B4800EB441313
:1024C00083ED007B63010C33184420F079FC044851
:1024D00020F08AFD204610BD000000000000000032
:1024E000E4070020D8290020D029002000000000A7
:1024F00070B59FED137B84B000248DED007B0294BA
:102500002346054610F03CF8061E0DDB2B680093B1
:1025100028460D490022002310F006FA051EA8BF28
:10252000204608DB04B070BD0CF06CFE76420660FD
:102530004FF0FF30F6E70CF065FE6D420560F7E7FF
:102540000080010000000000C5BB0000000000008A
:102550002DE9F04F2DED028B8BB002AF8846D7F8F6
:1025600050A097F85C9015461E460446002800F0DF
:102570000C81B74B984280F08280B649B64AB74882
:1025800040F2A95306F000FFB54806F0FDFEB24840
:1025900040F2A95106F0F0FEB4F89620D10740F1C0
:1025A0009D81B9F1000F5CD19EB1C2F3C203022B31
:1025B00008BF4FF0000959D1BAF1170F56D9736807
:1025C00006F1040A43B9B36833B9F36823B9336930
:1025D00013B96FF078063DE0E36A002B55D094F90B
:1025E0009800B9F1000F01D0002D6AD00DF082FFE4
:1025F00040B10368BFF35B8FDB68BFF35B8FDB0722
:1026000040F16F819FED908B94F998000DF072FF6F
:10261000B4F8962094F89430C2F3C2028DED008B8A
:10262000294610F021FE834600287ED094F89410AD
:10263000446110F02DFCA84251D37B6DA364BB6DA7
:102640002360B4F89430112B66D06FF07A065846A8
:1026500010F0D4FB30462437BD46BDEC028BBDE8FC
:10266000F08FBAF1000F9FD1002E73D06FF01506D6
:1026700030462437BD46BDEC028BBDE8F08F03F534
:10268000C3639842BFF479AF86E7236B002BA6D1D2
:10269000636B002BA3D1A36B002BA0D112059ED49A
:1026A00050460EF00BFD8346002800F00781584687
:1026B0000EF064FE40B284F89800B9F1000F93D197
:1026C00094E7D9F80C10002990D0D9F8082002EB33
:1026D000C101536808328A421D44FAD186E7B4F832
:1026E0009630C3F38113022B18BF0546A5D16C4663
:1026F00088B002AB5B4959611A460421C3E906055B
:1027000042F8101F584800234FF4015107F078FD9C
:102710006FF00B06A5469DE7B4F89630C3F3C203ED
:10272000022B51D06FF0150691E7504A0223C7E9FA
:1027300006324D4807F118025B464FF4825107F00C
:102740005FFD6FF0680630462437BD46BDEC028B56
:10275000BDE8F08FB8F1000F3FF43BAFC2F3C20306
:10276000022B83D1D8E9006A0EB1C14624E7E36A9F
:1027700004F1280604F12C0A002B4FD094F998009C
:10278000C146002D7FF432AF9BE7334A31493348CD
:1027900040F2A95306F0F8FD314806F0F5FD2E4849
:1027A00040F2A95106F0E8FD314A32492B4840F287
:1027B0005B1306F0E9FD2A4806F0E6FD2C4840F2DE
:1027C0005B1106F0D9FDE7E6534600225946204644
:1027D000B6F802A00FF094FE061EFFF638AF2046B2
:1027E0000FF0E0FD0346F8B1002BC0F2848058469C
:1027F00010F076FDB4F89630C3F3C203022B57D025
:1028000058460DF005FC061EFFF621AF2E46304659
:102810002437BD46BDEC028BBDE8F08F236BC1466B
:10282000002B3FF4D2AE31E7E18B5246584611F00F
:102830008BFE03460028D7D1AA46B9F1000F53D02A
:10284000D9F80C2002BBD2E7008000000000000095
:10285000846200204C620400006204008041040095
:102860005C500400C063040014380400A463040036
:102870002050040054500400BAEB080AB7D0D9F82D
:102880000C207B689342B2D2D9F8082002EBC30037
:1028900052F833104268524528BF52460133584619
:1028A000C7E90033904610F029FF061EE4DACEE6B1
:1028B00094F89410584611F09DF8A1E70F49104A7A
:1028C000104840F2912306F05FFD0F4806F05CFDD2
:1028D0000B4840F2912106F04FFDE8E66FF0080644
:1028E000B8E66FF07206B5E62A464146584610F043
:1028F00005FF034678E71E46A9E600BF44620400D0
:1029000020500400804104005C50040000000000DE
:102910002DE9F047054686B09946002428230F4646
:10292000CDE90243904610F0DBFC02A9284610F0E6
:1029300003FF002800F0D08083793A2B064666D04A
:10294000112B61D0062B5CD0AC68002C00F0B58058
:102950004FF0000CA38924689C44002CFAD195F810
:102960002430A8699FED5E7B022202FB03CC8DED33
:10297000007B0CF104013A2310F076FC0446002899
:1029800000F0A78095F82420296A10F0B7FEB0F176
:10299000000A2FDBA3689B68A36295F82C20A96A24
:1029A000204610F0ABFEB0F1000A23DBA06895F8DA
:1029B0002C1008300CF0A6FEA06850F8083F2362E7
:1029C00095F824100CF09EFE95F82C3084F82430F5
:1029D00095F8243084F82C30337EFF2B06F1180153
:1029E00063D006F10802204610F0C4FF064620B36B
:1029F0006FF0040A204610F001FA504606B0BDE818
:102A0000F0874FF03C0CAAE74FF0300CA7E7039992
:102A1000049404232846059310F068FC04A9284672
:102A200010F08AFE002845D090F90130A34241DA27
:102A3000284610F055FCB37982E704904FF0040A61
:102A400004A92046CDF814A010F076FE0028CFD0BF
:102A500080F8018007708670C67004A9204610F0C7
:102A6000A3FE0028C4D1042F29D052460146204697
:102A700010F048FC8246204610F0ECF9BAF1000F45
:102A8000B8D102462946204610F052FC0028B1D1A8
:102A9000204610F025FC3A21204610F0ABFF2046DE
:102AA0000DF0B6FA0028A5DBA7E7A0690EF070FAD2
:102AB000014696E76FF0150A9FE7A4464FE799FA9B
:102AC00089F33A4604A92046049310F017FE824683
:102AD000D1E76FF00B0A90E76FF0040A8DE700BFB3
:102AE000008000000000000000B589B09FED0E7B63
:102AF00006ABCDE9063302AA8023CDE9022200937A
:102B00000B4A02AB8DED047B11F09EFD002805DB26
:102B10004FF48042002302A820F0FCFC09B05DF8CD
:102B200004FB00BFAFF300800000000001000000C4
:102B3000F547010000000000474BD3F8042390073D
:102B400002D5D3F804218AB94FF02003EFF31182A4
:102B500083F31288BFF36F8F3F4BD3F80413C9037D
:102B60000ED482F31188BFF36F8F70473B4A002168
:102B7000C3F80411D3F80431136801331360E3E799
:102B8000F0B53749BFF35B8F83B051E8000F20F0F9
:102B9000010441E80045002DF7D1BFF35B8F40B938
:102BA000D3F840312BB982F31188BFF36F8F03B094
:102BB000F0BD29480023C0F84031D0F8403182F3FD
:102BC0001188BFF36F8F254B1B68190A1B06BFF3D3
:102BD0005F8FD0F80425D31841F10001B2F5801FB2
:102BE0000AD2204AD2E90045A34271EB050203D282
:102BF00013F1807341F100014FF02002EFF3118CCB
:102C000082F31288BFF36F8F174AD2E90245A342BD
:102C1000A94118D39FED0E7B0F4E11685368002019
:102C20004FF4803782ED027B1060C6F848738CF356
:102C30001188BFF36F8F0029B9D0009322462B462D
:102C4000884703B0F0BD8CF31188BFF36F8FAEE7F8
:102C5000FFFFFFFFFFFFFFFF00100140B46A0020ED
:102C6000AC6A0020203C0020083C0020000000004E
:102C7000F0B5514A044692E8030024691A7B9B6828
:102C80008BB004F58055029004F58150ADF80C101E
:102C900085F824201946143040F042FA04F581509A
:102CA000043016F021FB00285DD04FF0FF334FF0C9
:102CB000FF3204F6F47020F02DFC95F81931052B45
:102CC00051D8DFE803F0084B034650036FF02204AD
:102CD00020460BB0F0BD95F8343013F0200347D0F8
:102CE00095F836308DF80B309FED317B4DF6F05274
:102CF000A5F82C219DF80870206802ABC5F820319A
:102D000000238DED007B1A46394610F0ADFA0646D9
:102D100000283FD0D5F820113A46013110F0EEFCE2
:102D2000002829DB95F82C3186F8423095F82D31B2
:102D300086F84330304610F0D3FA206831461BF055
:102D40005DFA0024304610F059F80023C5F8203110
:102D5000BEE76FF0680420460BB0F0BD6FF00F04C3
:102D600020460BB0F0BD6FF0040420460BB0F0BD60
:102D70001C4620460BB0F0BD104A0223CDE90832B4
:102D80000F48002308AA4FF4825107F039FA6FF078
:102D90000B04D7E70B4A0223CDE908320848334633
:102DA00008AA4FF4825107F02BFA6FF00B04CCE71E
:102DB0000000000000000000203904003C6D040009
:102DC000C4380400146D04000A7BB2B12DE9F0414F
:102DD00088B00C784D790134AD09A41A022D00AFEA
:102DE0008C46864600EB040673D0032D35D0012DAA
:102DF00004D02037BD46BDE8F08170479FEDCE7B03
:102E000087ED007B4FF0805807F10800D8F8A81034
:102E1000D8F8A480C7F8088089B2F96003C81EF802
:102E200004303860022BB98065D0062B00F0CC80CE
:102E3000002B00F0AB806C4688B06946C04D0A4656
:102E40000320C1E9055342F8100FBE4800234FF498
:102E5000C25107F0D5F9A546CBE79FEDB77B87EDCB
:102E6000007B10F804E073784FF08050541ED0F8C7
:102E7000A820D0F8A400B86092B207F10801FA6067
:102E800003C90EF10108A4EB0E04022BB044E4B216
:102E90003860B98000F08980062B4BD0002B39D0E8
:102EA0006E4688B069460A468B61A54B4B6142F875
:102EB000105FA44800234FF4C25107F0A1F9B546B2
:102EC000A148661C052541461523224606808570CB
:102ED00006E09D48551C0524314615230580847065
:102EE000033040F02BF9994803211CF05BFD20379B
:102EF000BD46BDE8F081112A00F09780944AC7E9E9
:102F000006329048002307F118024FF4825107F06F
:102F100077F96EE7BEF14B0F00F0D6808D490222A3
:102F2000C7E90621874807F118024FF4825107F0DC
:102F300067F9C5E7AEF108033F2B70D88648082330
:102F40008370D6F80230C0F80330F388A0F8073059
:102F50009CF807209CF8063002F0030243EA0223A3
:102F6000A0F809309CF80B30C3720EF10303AEF1E8
:102F70000702DBB206F108010380D2B20C3040F048
:102F8000CFF8724801211CF00DFD99E74B2A00F0A3
:102F9000B78070490222C7E906216A4807F1180282
:102FA0004FF4825107F02CF923E7BEF1110F62D0E4
:102FB000674AC7E906326348002307F118024FF455
:102FC000825107F01DF97BE7A2F108033F2B29D8B6
:102FD000614BD11CC9B2198008219970D6F8011033
:102FE000C3F80310B6F80510A3F807109CF8070003
:102FF0009CF8064000F00300073AF11D44EA002463
:103000009CF80B60DE72D2B203F10C00A3F8094009
:1030100040F086F84D4829461CF0C4FCE9E64F4ACA
:103020000223C6E74D4A022369E79CF807009CF893
:103030000620494B00F0030042EA0022A3F80320D7
:103040009CF80B205A7115221A8004229A7070681D
:10305000B2685EF804402946F568C3F81250C3F818
:103060000A00C3F80640C3F80E20327C37489A7530
:103070001CF098FCBDE69CF807109CF80620364B27
:10308000D6F80D5001F0030142EA01229CF80B1022
:103090005971A3F803201521042219809A70D6F8DB
:1030A0000100D6F80510D6F80920C3F80E20C3F8A1
:1030B0000600C3F80A10C3F81250727C23489A75B0
:1030C00001211CF06FFCFBE69CF807509CF80630D1
:1030D000214805F0030543EA0523A0F803309CF8D6
:1030E0000B3043714F2303800223711C837072469F
:1030F000063040F015F8154801211CF053FCDFE6BE
:103100009CF807409CF80600134B04F0030440EAC7
:1031100004204F243146A3F803009CF80B601C8068
:10312000981D02245E719C703FF0FAFF0748294603
:103130001CF038FC5DE600BF00000000000000004D
:1031400070700400C4380400506B0020C07A040082
:10315000087004002C700400886B0020507004007C
:103160004B790A7903F001032DE9F0471B01DFF8E1
:103170000493B34EB34CB44F43EA12138046C8795C
:1031800089F800300D464B78897900F0030041EA58
:1031900000213180AD49EE7A94F82E000E70C3F311
:1031A000820188423E7892B005D084F82E10013614
:1031B000F6B22A793E7094F8311002F00F0399426A
:1031C000C2F3030206D001363E7084F8312016F0B7
:1031D0003BFA3E786B7994F83210C3F34402914283
:1031E00004D00136F6B284F832203E70EB7994F8C0
:1031F0003320C3F3820A524505D084F833A0013648
:10320000F6B2EB793E7094F83420B2EB531FC3F35F
:10321000421104D00136F6B284F834103E702B7A95
:1032200094F835209A4204D00136F6B284F835304D
:103230003E706B7A94F836209A4204D00136F6B28A
:1032400084F836303E70AB7A94F837209A4204D036
:103250000136F6B284F837303E70002E40F00C8113
:1032600050466A7B94F8381002F003039942C2F387
:10327000010C04D084F838C001366A7B3E7094F8A3
:103280003A10C2F34113994205D084F83A303B78A2
:103290006A7B01333B70AB7B94F83B6003F0030126
:1032A000490041EAD212964205D03B7884F83B208F
:1032B00001333B70AB7B94F83C10C3F38202914224
:1032C00005D03B7884F83C2001333B70AB7B94F80D
:1032D0003D20B2EB531FC3F3421104D03B7884F876
:1032E0003D1001333B70EA79AB79594902F003068E
:1032F00043EA062383424FF000060E6031D394F870
:103300002110012907D994F82E1001290DD0514A16
:1033100012889A4225D894F82030042B02D0032337
:1033200084F8203012B0BDE8F08794F82310022909
:10333000EDD100EB52118B424FEA521211DB2E7A83
:1033400031448B42E7DA9A1A121A687999F8001018
:10335000C0F3440000FB02123F49098892B2914237
:10336000D9D994F820203D490120042A087007D0BB
:103370003B483C49002202700A70042284F8202055
:10338000394A2E7B00211170002ECBD09A45C9D925
:103390002A78697901328909921B012908EB020711
:1033A00000F07B810329BDD19FED237B8DED007B58
:1033B0008DED027B4FF0805118F80280D1F8A820E3
:1033C000D1F8A4100C9192B20D920DF1300C9CE842
:1033D0000300B7F80690ADF80410ADF80C90014664
:1033E000DDF80CE0019A0090D7F8020002909645B3
:1033F00008BF884207F1010A56D04FF6FF72964582
:1034000008BFB0F1FF3F4FD0A6EB0802013A1748C2
:10341000D2B2541C052308F10101837039440480A1
:10342000152303303FF08AFE1148032112B0BDE896
:10343000F0471CF0B7BA00BF000000000000000019
:103440000A840020EC6C00202F8400203B840020A4
:10345000E46C002008840020068400203A840020C8
:1034600030840020328400203E840020506B0020F5
:10347000C07A04003D84002014F0B0F994F8343090
:1034800094F833201A4494F83530134494F83620D5
:103490001A4494F837301344A4F8273014F056FA3D
:1034A000E879C0F38200DCE69FEDC97B8DED047BFB
:1034B0008DED067B4FF080507A78D0F8A810D0F8C8
:1034C000A4000C9089B20D919CE80300013A04908D
:1034D000DAF80100ADF81C90ADF814100690062A39
:1034E00092D801A151F822F08F3500000934000074
:1034F000053500005936000033360000D73500008E
:10350000D13500004FF0FF09DDE90602DDE90413C3
:103510009A4208BF88427FF477AF94F82130012B9C
:103520007FF472AF3B7B012B3FF46EAF032B00F0B7
:10353000FB81042B00F0E981022B00F0D88138894F
:10354000B4F82F3083420ED0A4F82F0014F046FBBD
:103550003B7A7A7AA04843EA0223A0F88230022319
:10356000037420F0E5FBBB89A4F81130DBB2042B17
:1035700000F0D781B7F90A30A38284F8169014F0CE
:103580002DF9964800211CF00DFA2E7B3CE7DDE971
:103590000602DDE904139A4208BF88427FF434AF83
:1035A00094F82130002B7FF42FAF3A7A602A3FF64F
:1035B0002BAF07F109018A483FF0B2FD86483B7AFC
:1035C000A0F87C300323037420F0B2FB2E7B1BE7B2
:1035D00097F80E9098E7DDE90642DDE904018A429A
:1035E00008BF844207D04FF6FF718A4208BFB4F18A
:1035F000FF3F7FF409AFA8F108023F2A3FF604AF6E
:10360000784CA8F10702A4F80330D2B2EB7A6371C8
:1036100007F10801A01D3FF083FDA8F10303DBB211
:1036200023806E4806230121A3701CF0BBF92E7B7A
:10363000EAE6DDE90623DDE904018B4208BF8242A8
:1036400007D04FF6FF718B4208BFB2F1FF3F7FF406
:10365000DBAE002006F038FADDE90623DDE90401DF
:103660008B4208BF824207D04FF6FF718B4208BFE2
:10367000B2F1FF3F7FF4C8AE5B4A0223CDE91032BE
:103680005A48002310AA4FF4845106F0B9FD15F0F2
:10369000DBFF14F0A3F82E7BB6E618F80220B7F88B
:1036A00005E04FF000084FF00009CDE90889CDE9A9
:1036B0000A894FF0805C0CA8DCF8A810DCF8A4C0E4
:1036C000CDF830C089B20D9103C8013A0890D7F8FF
:1036D0000100ADF82CE0ADF824100A90062A3FF660
:1036E00021AE01A151F822F08937000025330000F6
:1036F000053700006538000041380000F137000050
:10370000CD370000FF25DDE90A02DDE908139A4202
:1037100008BF88427FF406AE94F82130012B7FF475
:1037200001AEFB7A012B3FF4FDAD032B00F0DB80F3
:10373000042B00F0C880022B00F0B680B7F8070019
:10374000B4F82F3083420ED0A4F82F0014F046FABC
:10375000FB793A7A204843EA0223A0F88230022318
:10376000037420F0E5FAB7F80B30A4F81130DBB29F
:10377000042B00F0B580B7F90930A382A57514F0C9
:103780002DF81648002151E6DDE90A02DDE90813AB
:103790009A4208BF88427FF4C5AD94F82130002BCF
:1037A0007FF4C0ADFA79602A3FF6BCAD07F108019D
:1037B0000B483FF0B5FC0848FA79A0F87C200323B9
:1037C000037412B0BDE8F04720F0B2BA7D7B9AE7EF
:1037D0000000000000000000C46A0020C07A04005D
:1037E000E06A0020886B002058790400C438040087
:1037F000DDE90A12DDE90840824208BFA14207D094
:103800004FF6FF70824208BFB1F1FF3F7FF48AADEF
:10381000A6F108023F2A3FF685AD454CE87A607173
:10382000F21FF91DD2B2A01DA4F803303FF078FCBE
:10383000F31EDBB206223F4823800121A270F5E58A
:10384000DDE90A23DDE908018B4208BF82423FF42B
:1038500000AF4FF6FF718B4208BFB2F1FF3F7FF41C
:1038600061ADF6E6DDE90A23DDE908018B4208BF18
:10387000824207D04FF6FF718B4208BFB2F1FF3F83
:103880007FF450AD2C4A0223CDE910322B4800239F
:1038900010AA4FF4845106F0B3FC15F0D5FE12B017
:1038A000BDE8F04713F09ABF3A7B022A3FF43AADE5
:1038B000B7F80700B4F82F2082427FF445AF637455
:1038C0003B7BA37457E73A7B002A7FF42BADB7F814
:1038D0000700B4F82F1081427FF436AF6374A274EE
:1038E0004FF0FF3349E73A7B012AE1D11AE57A7BB1
:1038F000022A3FF489AD3889B4F82F2082427FF440
:1039000023AE63747B7BA37434E67A7B002A7FF456
:103910007BAD3889B4F82F1081427FF415AE637403
:10392000A2744FF0FF3327E67A7B012AE3D16BE5DF
:10393000886B0020C07A040058790400C438040061
:103940002DE9F0412DED028B98B0044600AF002325
:10395000002207F10800C7E902238D8819F09EFBB9
:1039600094F8FA37002B4AD19FEDB38A94F820607F
:103970007EBB94F8F90794F8FA27EBB20130991E50
:10398000C0B2033BCDB284F8F907DBB23ABB2D2BB2
:103990001FD80022294607F1300019F01FFB97F8C5
:1039A000301001F00703012B00F0A280032B2DD073
:1039B0006C4688B06946A14D0A460320C1E905530B
:1039C00042F8100F9E4800234FF4C45106F018FC33
:1039D000A5466037BD46BDEC028BBDE8F08194F88A
:1039E000F8278242D3D92D2B40F2EF80304619F0D0
:1039F000D1FF6037BD46BDEC028BBDE8F08119F008
:103A00001FFB08EE100AB8EEC88AAFE794F8CA2781
:103A1000C1F30211C2F302128A42DAD1072DD8D1C2
:103A200097F8310004F2CC7118F08AFE051ED0DB45
:103A300097F93030002BC0F2DC8097F83620D4F8AC
:103A40000008D4F80418D7F8326004F5B663D3ED53
:103A5000007ABB684FF0000862F30708FA689842E2
:103A600071EB020C28EE278A80F0B980181A62EBFD
:103A70000101FDF743F808EE900A41463046FDF794
:103A80003DF8B7EE007A37EE487A07EE900A67EE17
:103A9000877AF6EE006A78EEE78A05EB450568EE70
:103AA000A67A17EE900AFCF7CFFC5FA3D3E90023B8
:103AB000FCF722FD5EA3D3E90023FCF71DFD614B5B
:103AC0000022FCF719FDFCF729FF6319D4F814282C
:103AD000D4F8101897F8315083F85458A3F85508C3
:103AE00094F8093884F80838521AC4F80C2870E79A
:103AF00094F8FA87B8F1000F7FF46BAF94F81828A8
:103B0000C1F30216B242FFF464AFB21C95427FF4D7
:103B100060AF07F1320194F8B6057B60324618F0C9
:103B20000FFE011EFFF655AFB4F8AC25BD68F8686E
:103B30007B6802F5AF7C02F5C87201FB0C224FEAEC
:103B4000152C4CEA006C0CEB022CB4F8AE25521B81
:103B50002CF001054FEA052E60EB400012EB0E023F
:103B6000C4F8CC273A6106F1FF32A2EB0101B1FAA9
:103B700081F14FEA061240EB1C60490942F0030252
:103B800042EAC11284F8D0077861B4F8B60584F827
:103B9000CA2741461A4684F8CB07092019F004FACF
:103BA000424604F2CA71092019F0D4F9284619F0E6
:103BB0002BFE7B68184619F037FE28BB94F8CA37ED
:103BC0006FF3061384F8CA3703E707F13000324673
:103BD000294619F003FA304619F0DCFEDFE6181A20
:103BE00002F5807262EB0101FCF788FF08EE900A93
:103BF00043E794F8BC2594F8BD359A423FF41DAFD5
:103C0000204618F079FE18E70F4A0223C7E90A3266
:103C10000B48434607F128024FF4845106F0F0FAAE
:103C2000CCE700BFAFF30080BC058A4421DDB14181
:103C3000FA48CE3B1835B13D00000000907D0400ED
:103C4000E4380400000059407C7D040000000000BE
:103C500090F820208B88002A58D12DE9F04F2DEDC7
:103C6000048B97B090F8532800AF04462AB15C3714
:103C7000BD46BDEC048BBDE8F08FDDB20022002311
:103C800007F10800C7E9022319F008FA94F8F907C8
:103C900094F8FA270130AE1EC0B2EB1EF6B284F8DB
:103CA000F907DBB262B194F820504DB994F8F827C7
:103CB000824205D92D2B2AD9284619F06BFED6E76A
:103CC0002D2BD4D807F1280800223146404619F0A0
:103CD00085F997F8282002F00701022900F0B18049
:103CE000042900F08B80E9B16C4688B06B46834DA7
:103CF0001A460320C3E9055142F8100F80480023FB
:103D00004FF4C45106F07CFAA546B0E7704707F1BE
:103D1000280840462A46314619F060F9284619F02D
:103D200039FED6E794F8FA37002BA0D194F8298809
:103D3000B8F1000F9BD194F81838C2F30215AB42CA
:103D400095D3AB1C9E4292D107F12A0194F8B60597
:103D50002A4618F0F5FC011E89DB05F1FF3E681AC2
:103D60002A01AEEB0105D5F1000E4EEB050E42F037
:103D7000020242EACE12BB68B4F8AC6584F8CA27E6
:103D8000FA681B0A06F5AF7C43EA02630138B4F80F
:103D9000B62584F8CB270CFB006006F5C8720CFB37
:103DA0000122FA3003EB022519F074FC06F24C40B4
:103DB00080B219F037FE41460420012219F0F4F8D0
:103DC000424604F2CA71042019F0C4F825F001003B
:103DD00019F01AFD032019F027FD002840F0668134
:103DE000D7E9028997F8292004F502610123C1E986
:103DF000008984F8282884F8293838E7204618F004
:103E000095FD94F8FA37002B7FF431AF97F828200E
:103E100097F82950C2F3021194F82828AA4253D0E7
:103E20006C4688B06946374848610A4603208D6170
:103E300042F8100F32484FF4C45106F0E1F9A5469C
:103E400015E794F8FA37A3B394F82938002B40F01B
:103E50000781022E7FF40BAF94F8CA17C2F3021346
:103E6000C1F302129A427FF402AF97F8290004F2DC
:103E7000CC7118F065FC0028FFF6F9AE97F92830F0
:103E8000002BC0F2FE80204618F06EFCD7E90289B4
:103E900043B203F5837344FA80F097F8292080F841
:103EA0002A2804EBC303C3E90089204618F060FC0C
:103EB000DDE6154AC7E90812114807F120024FF460
:103EC000845106F09DF9D2E694F82928002A00F0E2
:103ED000D38000293FF4CBAE94F818288A42FFF42F
:103EE000C6AE01EB810201EB4202023296427FF440
:103EF000BEAE94F8B66542460DE000BF387E0400C1
:103F0000E4380400007E0400D87D04000133D8B2F8
:103F100081427FF6ACAE9078B04202F10B02F5D14F
:103F20000B2202FB03F3DA1C00200021C7E9040185
:103F300008EB0201D4F80068D7F8089058F802009E
:103F4000D7F80CA00A79D4F8041838614E453A75B0
:103F500071EB0A00D7E904BC01D30AF5807AD4F8E2
:103F60002008D4F82428B9EB06096AEB010AB0420C
:103F700072EB010E80F09480361A61EB0202083376
:103F800008EB030158F8030094F950880B797A6123
:103F9000B8F1040F7A6038613B7543DC61465846DE
:103FA000FCF7ACFD514608EE900A4846FCF7A6FD2A
:103FB0007A6803461146304609EE103AFCF79EFD3A
:103FC0000346D7E9040108EE103AFCF797FD06EE28
:103FD000900A39EE287A68EE267A59EE287A08EBAC
:103FE0004803234437EE087A83F8545837EE267A8C
:103FF00003F50565C7EE877A17EE900AFCF724FAF9
:1040000036A3D3E90023FCF777FA36A3D3E90023DC
:10401000FCF772FA2C4B0022FCF76EFAFCF77EFCE0
:10402000A5F80500D4F81428D4F8100894F85238EC
:1040300094F8091884F80818121A042BC4F80C28EC
:1040400023D909F0D3F894F851389A1D0133B0FB05
:10405000F2F101FB120084F8500884F8513806E6AA
:104060001A4BC7E908131A48002307F120024FF43E
:10407000845106F0C5F8FAE516490223C7E908316C
:10408000F1E7204618F052FCFDE60133DBB2052BC8
:1040900084F85238D5D008F1010884F85088E6E554
:1040A000361A01F5807161EB020268E70A4A0223C1
:1040B000C7E908320648434607F120024FF484510D
:1040C00006F09EF88CE600BF00005940E87D040031
:1040D000E4380400207E0400C47D0400BC058A444A
:1040E00021DDB141FA48CE3B1835B13D000000005A
:1040F00010B58C1882B022F08FF843014A011B1AC8
:1041000042EAD06262EB0102920042EA93729B00A3
:104110001B1841EB0200C00040EA5370C3F3103398
:1041200043EA4043E41A002C16DD4FF4004340F20A
:10413000E7300021E4FB03014FF47A720023FCF71F
:1041400023FD9FED097B02460B4609488DED007B60
:1041500022F074F902B010BD064B01221A7002B0B1
:10416000BDE810400BF094BD00000000000000000E
:1041700058070020428400202DE9F04784B004460F
:10418000DDF83C80DDF84490B8F10F0F0E4615467F
:104190001F4648D008F110031E2B47D89FED307BF7
:1041A000109B2373073504F1580325F0070AC4E96F
:1041B0001633002506F14003042284ED067B84F8C3
:1041C0000E806273AA2152461846A560E5733EF040
:1041D000E2FF0E9BC4E9220A0AF1400802930D9BFC
:1041E0000193B0440C9B00933146C4F890503B4679
:1041F000424620460AF0DCF86565B9F1000F29D087
:104200001F22494604F162003FF06FF884F88150A4
:10421000154B9B680BB1D3F89430C4F894304046EA
:1042200004B0BDE8F087114B9F42B7D0104A114946
:1042300011484FF4067305F0A7F841460F486FF098
:104240000F030E2205F0A0F809484FF4067105F09F
:1042500093F8A3E784F86290DAE700BFAFF3008039
:104260000000000000000000548100205D2D0200CD
:10427000A8970400CC970400804104004C980400E7
:104280002DE9F84F2DED028B054620F003FA4FF093
:104290002003EFF3118B83F31288BFF36F8F624813
:1042A0001EF030FD5F46002800F090805E48DFF889
:1042B00098A1DFF898911EF041FD5C4BCAF80050C0
:1042C0001C689C423FD09FED568BDFF85C81D9E99A
:1042D000002120464FEAE57C002C75D0D4E9046328
:1042E000B5427CEB030EC0F28F80B21841EBE67151
:1042F00084ED048BC9E9002121F008FD40461EF041
:104300000FFD002851D087F31188BFF36F8FA3688A
:10431000204698474FF02003EFF3118783F312886C
:10432000BFF36F8F40461EF0EDFCBB4670B34046B6
:104330001EF004FD3D4BDAF800501C68AD1B9C429A
:10434000CAF80050C3D14FEAE57CD9F800205219D1
:10435000C9F80020D9F804204FF0000442EB0C0209
:10436000C9F80420CAF8004021F0ECFC214612F004
:1043700069F82D481EF0D4FC002836D08BF3118844
:10438000BFF36F8FBDEC028BBDE8F88F284A294838
:1043900029498E2304F0F8FF4146284804F0F4FF31
:1043A00023488E2104F0E8FFC1E7214A214824492F
:1043B000B92304F0E9FF4146224804F0E5FF1C4818
:1043C000B92104F0D9FF9EE7BB46BEE7184A1A4957
:1043D00018488E2304F0D8FF1349184804F0D4FF7E
:1043E00013488E2104F0C8FF60E7114A14491148B0
:1043F000B92304F0C9FF0C49124804F0C5FF0C486A
:10440000B92104F0B9FFB9E7084A9442BB469CD0F1
:10441000761B63EB0C022661626196E7AFF30080C6
:104420000000000000000000A8810020AC06002071
:104430005447040080410400B4470400CC47040002
:10444000844704009C470400A4810020B841002058
:104450009FED097B10B4002300F11804C0E9064465
:1044600080ED007BC0E908125DF8044B03634363F1
:10447000704700BFAFF300800000000000000000A4
:104480002DE9F84F0025044600F1240B0584743013
:104490000E4632F033FA0C23A4F878304FF0AF63B5
:1044A000E36723465A4A84F87B5043F8802FC4F8C8
:1044B00088302346574A43F88C2FC4F8943023465B
:1044C000554A43F8982FC4F8A0302346534A43F87E
:1044D000A42F3146C4F8AC30C4E92D55C4E9335596
:1044E00084F8B050C4F8BC5084F8C950A4F8CA503D
:1044F000C4F8D450A4F8D85004F1F0002BF0EAFA34
:104500009FED417BF0224FF6FE73C4E949234FF63D
:10451000FF7384ED4C7BA4F82C3104F14C0A314636
:104520005846C4E96F5533F0EDF93146504633F043
:10453000E9F92946082204F118003EF02CFE29462C
:10454000082204F1DC003EF026FE584633F04CFA17
:10455000504633F049FA0127122204F5A67929467C
:1045600004F59C703EF017FE394648462BF014FACD
:104570002B4948462AF04CFC20462BF021FA04F542
:10458000B2702BF01DFA04F5BE7804F5B6702AF06F
:1045900081FB40462BF014FA294604F5C2702AF03C
:1045A000BBFB94F88E2142F0800284F88E211D4AD4
:1045B0002946C2F8048104F5CA7014223EF0EBFDCE
:1045C0004FF6FF7384F89431322384F895312946ED
:1045D000142284F8A25184F8A37104F5D4703EF03B
:1045E000DAFD33234FF0FF3220460F4984F8A8212B
:1045F00084F8A93184F8B65184F8B7712FF05AFBCA
:104600002046BDE8F88F00BF000000000000000059
:10461000915503005D4C03004D5903002D3C0300F0
:10462000D6560020C852002064B7040000000000E5
:104630009FED177B034680ED007B80ED027B09BB7D
:104640009FED157B83ED047B9FED157B83ED067B52
:104650009FED157B83ED087B9FED157B83ED0A7B3A
:104660009FED157B83ED0C7B9FED157B83ED0E7B22
:104670009FED157B83ED107B9FED157B084683ED49
:10468000127B70476FF07400704700BFAFF300807B
:10469000000000000000000008C9BCF367E6096ADA
:1046A0003BA7CA8485AE67BB2BF894FE72F36E3CC1
:1046B000F1361D5F3AF54FA5D182E6AD7F520E511E
:1046C0001F6C3E2B8C68059B6BBD41FBABD9831FD8
:1046D00079217E1319CDE05B2DE9F047264BDFF8F9
:1046E000ACA088B04FF4A06202A8DA6000220023D8
:1046F000CDE9022300F074FCDDE902121F4BCDE985
:104700000021504640F28B4200213EF0C7FD08F0E8
:104710006DFDCAF80C0000F0B1F848BB184C194FF9
:10472000DFF86C90DFF85080174E02250EE023680A
:104730000133236099F80030022B4FF000010CBFC9
:104740004FF400404FF4F01020F0DEFF2368CAF869
:104750001030404600F04CF80028E8DACDE9065762
:10476000002306AA4FF48251304605F049FDE1E7E7
:1047700000F0DAF8CFE700BF00000020C83B0400DB
:10478000F05C0020D43B04008C38040010000020B2
:104790001C840020014B42781A7070471C84002052
:1047A00010B588B000F032FC04E04FF40040002166
:1047B00020F0AAFF00F024FC0028F6D00020002101
:1047C00000220724CDE90601CDE90342CDE901220B
:1047D0000092044B044905484FF448721EF0A0F9BA
:1047E00008B010BDD9460000800900200027002035
:1047F0002DE9F0411B4B82B01B68282292FBF3F29B
:1048000003FB02F2C2F1280202AF04468260406854
:104810000025CDE900552B46134907F00BFFE8466C
:104820008AB006462368A06802A908620A460F48B3
:10483000CB6148610E4B0F488861032481F8244006
:1048400042F8103F0C482B464FF42C5105F0D8FC91
:10485000AE42B4BF6FF004002846C546BD46BDE871
:10486000F08100BF083C0400100000200C3C040054
:1048700005000001A03C04008C380400B0B586B0EF
:1048800000AF224B3B6022493A1D022008F09EFBFC
:1048900038881122022107F015FC1E4C00286060A8
:1048A00008DB1822394607F06FFD002823DB183794
:1048B000BD46B0BD25680AF0A5FC6C468AB000680C
:1048C0006B4615491A4659614FF0020C134983F89B
:1048D00020C0C3E9065042F8101F00234FF40951CD
:1048E0000F4805F08DFCA5460AF08CFC00681837CF
:1048F0004042BD46B0BD25680AF084FC6C468AB0D3
:1049000000686B4607491A46DDE700BF02001092B7
:10491000283C040000000020503C0400040000017A
:104920008C380400783C0400034B5868002800DAF7
:10493000704707F061BC00BF000000202DE9F04F78
:104940004C4B93B0002600AFC7E90E66C7E910666E
:10495000C7E90C36484C4949494DDFF83C81DFF83E
:104960003CB1DFF83C9107F13402022008F02EFB45
:104970002670444E2B7863B92378002B5FD04FF01C
:10498000FF334FF0FF3230461EF0C4FD2B78002B72
:10499000F2D0182207F13001381D06F0C1FF0028BF
:1049A000EA4652DB384BFB620223BB62002307F16D
:1049B00028024FF48651484605F022FC42464FF447
:1049C0007A61381D07F00CF800284EDB21F024FC3A
:1049D0004A0143011B1A42EAD06262EB01029200D3
:1049E00042EA93729B00181841EB0201C90041EAA8
:1049F0005071C0F3103040EA41408AB0C90B012326
:104A0000CBF80000CBF804102370D8E90010D8F8D8
:104A100008306A4613621D4B53610523C2E9060143
:104A200042F8103F00234FF42351484605F0E8FBBD
:104A3000D546381D07F0BAF82378002B9FD1002106
:104A40004FF4A02020F060FE94E788B06A46104B37
:104A500090615361032342F8103F00234FF4C25189
:104A6000484605F0CDFBD546E3E788B06A46094BDA
:104A70009061EEE70200007B22840020B03C04003D
:104A80001F84002064080020FC3C0400343D040026
:104A9000D83C04001C3D0400F0270020E82700203B
:104AA000DC38040010B510460C4611B1012907D0BE
:104AB00010BD00F0DDFC2046BDE8104000F082BCD7
:104AC00000F080FCBDE81040002000F0D1BC00BF29
:104AD000F8B51C4E944612880C4600AF31460023B0
:104AE00091F84B50ADB94C2505FB03F3F51809338C
:104AF00068600232F01801236146D2B285F84B306B
:104B00002C723EF00DFB104829461EF005FCBD46F8
:104B1000F8BD0133042B01F14C01E1D16D4688B0A1
:104B20006B460A481A460321C3E9050442F8101FE0
:104B3000074800234FF4C25105F062FBAD46BD4665
:104B4000F8BD00BFFC5C00206C5E0020703D0400DE
:104B5000DC38040038B5094C237803B938BD0BF0B4
:104B600067F805460BF0A0F80021286822F0F2FF54
:104B700028460BF0A1F80023237038BD1D840020C7
:104B8000084B1B7823B110B5074C23780BB110BD2F
:104B900070470BF04DF80AF03BFF0028F7D10123D6
:104BA000237010BD1F8400201D84002038B50D4DDA
:104BB0002B7803B938BD0BF03BF804460BF074F8C2
:104BC0002068002122F0C6FF08B9074B1870206842
:104BD000002122F0C7FE00B928702046BDE8384009
:104BE0000BF06AB8208400201D84002038B50C4DDD
:104BF0002B7803B138BD0BF01BF804460BF054F8CA
:104C00002068012122F0AEFE08B901232B70206834
:104C1000042119F0A9FF2046BDE838400BF04CB83C
:104C200020840020704700BF70B5052888B0044676
:104C30000D4605D029462046FFF7F4FF08B070BDA9
:104C40000E4B024693E803000090ADF8041028468E
:104C500069463EF055FA06460028EBD108481EF09A
:104C60000FFC084A0223CDE9063207484FF486516B
:104C7000334606AA05F0C4FADCE700BFC83D0400CD
:104C800064080020A83D0400DC3804002DE9F04F42
:104C900089B0DFF808939F4E00AF4FF000080DE099
:104CA0009D4BFB610223BB61002307F118024FF407
:104CB0008451304605F0A4FA84F84B804FF0FF335E
:104CC00048464FF0FF321EF03FFB037A456804462A
:104CD0004BB1012BE4D1B0F8090004F10B01C0B2D3
:104CE000FFF7A2FFE8E7C37A00F10B0B032B00F2FA
:104CF0006481DFE803F055535102884BFB610223C6
:104D0000BB61002307F118024FF48651304605F0CD
:104D100077FAEA4688B0B4F80D306A469361804B62
:104D20005361032342F8103F00234FF4C65130462D
:104D300005F066FAE37A012BD5466FD9237B002B69
:104D400075D1EA4688B0D4F80F306A469361754B46
:104D50005361032342F8103F00234FF4C6513046FD
:104D600005F04EFAE37AD546002B36D0032B71D1ED
:104D70006D4A6E48012313701EF0DAFF237D03B3E2
:104D8000E37A032B1DD1E37C042B00F20981DFE8D9
:104D900003F022201E1C0900654BAFE7654BADE711
:104DA000654BABE7654BFB610223BB6159480023B0
:104DB00007F118024FF4865105F022FAE37C002B2C
:104DC00077D15846FFF7E6FC76E75D4BEBE75D4BA6
:104DD000E9E75D4BE7E75D4BE5E75D4B93F800A046
:104DE000BAF1000FEDD1AB685A491B6C28469847C1
:104DF000002832D1AA687860526C574928469047FB
:104E00007B68002836D1554B51491B7801220A7026
:104E1000002BB3D052481EF08BFFAFE7002BDCD045
:104E200050481EF085FF404B83F80080A6E7022B18
:104E30003BD0032B37D0012B28D04B4BFB610223F7
:104E4000BB61002307F118024FF48451304605F08E
:104E5000D7F976E7012BB4D1E2E7444BFB6102239B
:104E6000BB614FF48251534607F11802304605F0FA
:104E7000C7F921E73E4AFA610222BA614FF4825132
:104E800007F11802304605F0BBF915E7394BFB6115
:104E90000223BB61002307F118024FF4865130460C
:104EA00005F0AEF94DE7344BF1E7BB61334BFB61E5
:104EB000F0E7237D052B1BD8DFE803F01012141652
:104EC00018032F4BFB610223BB611248002307F13B
:104ED00018024FF4865105F093F972E7294BF1E778
:104EE000294BEFE7294BEDE7294BEBE7294BE9E7A6
:104EF0006D4688B06A469361274B5361032342F89D
:104F0000103F044800234FF4C45105F079F9AD4631
:104F100057E700BFDC38040068400400D03D0400BF
:104F2000443E04009C3E04001F8400203C5E0020A0
:104F3000E83D0400003E04001C3E0400F03E040076
:104F4000103F0400303F0400503F0400703F040055
:104F5000218400209C040020F45C00201E8400209A
:104F60005C5E00202C5E0020883E0400B03E040001
:104F7000CC3E0400643E0400783E0400543E04002D
:104F8000D83F04002C40040010400400F43F04000B
:104F9000BC3F0400A03F0400484004006C5E0020B9
:104FA0000C4BFB610223BB610B48002307F1180285
:104FB0004FF4845105F024F900E7084BFB6102230C
:104FC000BB610548002307F118024FF4845105F036
:104FD00017F99EE6883F0400DC380400303E0400E8
:104FE0004FF0805282B0D2F8A830D2F8A4200260EC
:104FF0009BB20193BDF80430838002B0704700BFBC
:10500000014B1878704700BF1F8400202DE9F04D38
:1050100090B008AF4F481DF04FF900220023C7E9B8
:105020000023054600F0BAF9002840F085804FF0D3
:10503000805207F10806D2F8A830D2F8A4209BB21B
:10504000C7E9022396E80300B9806C467A683860A5
:1050500088B0A26122464049E0614FF004086161D6
:1050600042F8108F3D4800234FF4035105F0C8F873
:105070003B4A3C4BA546002414703B4A5C801470AC
:105080003A4A9C8014703A4A147040F201121A8015
:1050900038481EF0F3F84FF0000A4FF0000B0323DE
:1050A0000393CDE906ABCDE90144334B3349049476
:1050B00000944FF4007232481DF032FD31493048FF
:1050C0001DF018FD304B31490094CDE906ABCDE918
:1050D0000384CDE901444FF480622D481DF020FD8A
:1050E0002C492B481DF006FD2B492C481EF032FDA3
:1050F0002B492C481EF02EFD2B492C481EF02AFD72
:105100002B492C481EF026FDAB682B495B6AB96021
:105110003246072128469847AB68284A5B6ABA603E
:105120000821324628469847254B01222046203741
:105130001A70BD46BDE8F08D224A0223C7E9063247
:105140000648002307F118024FF4845105F058F87F
:105150006DE700BF80400400AC400400DC38040070
:1051600021840020F45C0020208400201F84002083
:105170001D8400206C5E00208D4C00000089002002
:10518000E8280020BC4004003D4900008084002045
:1051900000280020D0400400ED4B00005C5E0020A1
:1051A000AD4B00004C5E0020814B00003C5E0020B7
:1051B000554B00002C5E0020D14A0000A54A00009B
:1051C0001E840020904004002DE9F04F12F0FC6F87
:1051D000D0E90169D0F8108081B0054614460F4629
:1051E00051D104F03003302B60D004F00213022BB5
:1051F0006FD004F00603042B7ED014F4402A29D08B
:10520000A10304F4801B40F19480BAF5402F0ED125
:105210005349544A544840F2CE2304F0B5F8534859
:1052200004F0B2F84F4840F2CE2104F0A5F8BBF1EB
:10523000000F0FD0E207336800F18F800126BE40D7
:1052400024F4801A13EA060463D0D8F8003023EA65
:1052500006030DE033680126BE401E4224F4801A86
:1052600004F0010455D0D8F80030002CEFD03343BF
:10527000C8F80030D9F8003052463946284601B007
:10528000BDE8F04F18474FF42F733949354A364877
:1052900004F07AF8374804F077F832484FF42F7169
:1052A00004F06AF804F03003302B9ED140F2BF23A3
:1052B00031492C4A2C4804F067F8304804F064F86F
:1052C000284840F2BF2104F057F804F00213022BE3
:1052D0008FD140F2C3232A49224A234804F054F8CC
:1052E000284804F051F81F4840F2C32104F044F864
:1052F00004F00603042B80D123491B48194A40F2CD
:10530000C72304F041F8174840F2C72104F034F8ED
:1053100073E71E49134A144840F2DA2304F034F8C4
:105320001B4804F031F80F4840F2DA2104F024F869
:1053300099E718490B4A0C4840F2CA2304F024F8B4
:10534000154804F021F8074840F2CA2104F014F887
:10535000BAF5402F3FF45CAF69E784F440247AE764
:1053600084430400EC40040080410400C84304006E
:1053700020410400A0410400C44104000042040094
:105380004042040078420400CC420400F44304008C
:1053900034440400004304004843040008B5074AAD
:1053A00007480E21FFF710FF002806DB034A0448D8
:1053B000BDE808401E21FFF707BF08BD0100160029
:1053C000983504002DE9F041244E336975681F4675
:1053D0002B685A04044616D53B685B0410D43CB1D4
:1053E000B3681E48DB68BDE8F0414FF480411847C0
:1053F000B3681A481B69BDE8F0414FF48041184773
:1054000080F00104EBE740F22553154A1549164890
:1054100003F0BAFF154803F0B7FF114840F22551D9
:1054200003F0AAFF3B6813F4804F2B6803F480431A
:1054300018BF84F00104002BD1D1094A09490A4858
:1054400040F2FC4303F0A0FF084803F09DFF04482E
:1054500040F2FC4103F090FFC1E700BF9835040023
:10546000EC400400F4430400804104003444040090
:105470002DE9F041244E336975681F462B685A00A8
:10548000044616D53B685B0010D43CB1B3681E4897
:10549000DB68BDE8F0414FF080411847B3681A4817
:1054A0001B69BDE8F0414FF08041184780F00104CE
:1054B000EBE740F22553154A1549164803F064FFFF
:1054C000154803F061FF114840F2255103F054FFE5
:1054D0003B6813F0804F2B6803F0804318BF84F0C3
:1054E0000104002BD1D1094A09490A4840F2FC4382
:1054F00003F04AFF084803F047FF044840F2FC412C
:1055000003F03AFFC1E700BF98350400EC40040007
:10551000F44304008041040034440400B0B5204A40
:10552000204B136000AFD3E9012112681C69D3013D
:105530000D460BD523682D681A4823F0807323602D
:1055400000221821A84788B9BD46B0BD1649174AA0
:10555000174840F2DA2303F017FF164803F014FF50
:10556000124840F2DA2103F007FFE3E76C4688B007
:105570006B46114D114812491A464FF0020CC3E90F
:10558000055083F81CC042F8101F0E4800234FF44A
:10559000D25104F035FE6FF01500A546D4E700BFE8
:1055A0008C5E002098350400F4430400EC400400B5
:1055B000804104003444040048440400684404006A
:1055C00003000001CC38040000F0B2BA00F06ABC5D
:1055D0002DE9F0414A4D2C68D4E901371B68266952
:1055E000DB015AD533683F68464A23F08073336045
:1055F00020461821B8472C68636826691B68DF01BC
:105600001ED53368DB0141D4A3684FF080711B695C
:1056100020469847642000F0E9FF2C68D4E9013661
:105620001B682569DA0148D52B68366823F080733A
:105630002B60204633460022BDE8F0411821184770
:1056400040F22553304A3149314803F09DFE31483C
:1056500003F09AFE2C4840F2255103F08DFE33688A
:1056600013F0807F63681B6837D0D9010ED42749B7
:10567000254A274840F2FC4303F086FE254803F004
:1056800083FE214840F2FC4103F076FEA3684FF010
:105690008071DB6820469847BCE71C491A4A1C48C1
:1056A00040F2DA2303F070FE1A4803F06DFE16484C
:1056B00040F2DA2103F060FE94E7134A13491448DC
:1056C00040F2DA2303F060FE124803F05DFE0E485C
:1056D00040F2DA2103F050FEA6E7D80194D40A4A3A
:1056E0000A490B4840F2FC4303F04EFE094803F020
:1056F0004BFE054840F2FC4103F03EFE84E700BF4C
:105700008C5E002006000200EC400400F44304001C
:10571000804104003444040008B500F027FD012056
:1057200000F050FF00F0A0FD022000F04BFFBDE8AC
:10573000084000F053BB00BF00F0ECBA70B5204D3C
:105740002C68D4E901361B681A0319D5B669002301
:105750004FF4001220461321B0472C68D4E90136DB
:105760001B6825691B031BD52B68366823F40023AF
:105770002B60204633460022BDE8704013211847B5
:10578000104A114911484FF41F7303F0FDFD1048F2
:1057900003F0FAFD0B484FF41F7103F0EDFDD5E760
:1057A000084A0949094840F2DA2303F0EDFD0848A8
:1057B00003F0EAFD034840F2DA2103F0DDFDD3E710
:1057C000885E0020EC400400F443040080410400A3
:1057D000344404002DE9F041214D2C68D4E901370F
:1057E0001B6826691A031AD533683F6823F400231F
:1057F00033604FF4803213212046B8472C68D4E937
:1058000001351B681B031AD5AD692046AC464FF025
:105810008063BDE8F0414FF0A07213216047114949
:10582000114A124840F2DA2303F0AEFD104803F0AB
:10583000ABFD0D4840F2DA2103F09EFDD4E70949A3
:10584000094A0A484FF41F7303F09EFD084803F00D
:105850009BFD05484FF41F7103F08EFDD4E700BF98
:10586000885E0020F4430400EC4004008041040002
:10587000344404002DE9F0412E4E2F4B336082B0AA
:1058800004460D469A6801925A681F6913681B0303
:105890001ED5019B2848D3F800803B6823F40023E1
:1058A0003B604FF480321321C0470CB3002D30D041
:1058B000306883686560DB694FF40022A26013B131
:1058C00001222146984702B0BDE8F041FFF736BFFC
:1058D0001A491B4A1B4840F2DA2303F055FD1A48C7
:1058E00003F052FD164840F2DA2103F045FDD0E7FF
:1058F0001649134A134840F26D5303F045FD14480E
:1059000003F042FD0E4840F26D5103F035FD002DCD
:10591000CED10B4A0F490B4840F26E5303F034FDD1
:105920000D4803F031FD064840F26E5103F024FDAE
:10593000BEE700BF885E002098350400F4430400F1
:10594000EC40040080410400344404007C44040022
:1059500088440400B0670400B04404002DE9F04F0F
:1059600012F0FC6FD0E90169D0F8108081B00546D3
:1059700014460F4651D104F03003302B60D004F0B0
:105980000213022B6FD004F00603042B7ED014F414
:10599000402A29D0A10304F4801B40F19480BAF579
:1059A000402F0ED15349544A544840F2CE2303F0BD
:1059B000EBFC534803F0E8FC4F4840F2CE2103F0E3
:1059C000DBFCBBF1000F0FD0E207336800F18F80E2
:1059D0000126BE4024F4801A13EA060463D0D8F8E6
:1059E000003023EA06030DE033680126BE401E4264
:1059F00024F4801A04F0010455D0D8F80030002CAB
:105A0000EFD03343C8F80030D9F800305246394659
:105A1000284601B0BDE8F04F18474FF42F733949BD
:105A2000354A364803F0B0FC374803F0ADFC324845
:105A30004FF42F7103F0A0FC04F03003302B9ED103
:105A400040F2BF2331492C4A2C4803F09DFC3048DA
:105A500003F09AFC284840F2BF2103F08DFC04F0CB
:105A60000213022B8FD140F2C3232A49224A234832
:105A700003F08AFC284803F087FC1F4840F2C3214A
:105A800003F07AFC04F00603042B80D123491B4861
:105A9000194A40F2C72303F077FC174840F2C721A8
:105AA00003F06AFC73E71E49134A144840F2DA23F4
:105AB00003F06AFC1B4803F067FC0F4840F2DA2150
:105AC00003F05AFC99E718490B4A0C4840F2CA23E4
:105AD00003F05AFC154803F057FC074840F2CA216E
