:1000000000BD0020CDE1000039D70000A1E10000D3
:10001000A1E10000A1E10000A1E10000000000005A
:1000200000000000000000000000000081D8000077
:10003000A1E1000000000000EDD70000A1E10000F8
:100040000DDA00000DDA00000DDA00000DDA000014
:100050000DDA00000DDA00000DDA00000DDA000004
:100060000DDA00000DDA00000DDA00000DDA0000F4
:100070000DDA00000DDA00000DDA00000DDA0000E4
:100080000DDA00000DDA00000DDA00000DDA0000D4
:100090000DDA00000DDA00000DDA00000DDA0000C4
:1000A0000DDA00000DDA00000DDA00000DDA0000B4
:1000B0000DDA00000DDA00000DDA00000DDA0000A4
:1000C0000DDA00000DDA00000DDA00000DDA000094
:0C00D0000DDA00000DDA00000DDA00006F
:0400DC00FFFFFFFF24
:1000E00001F0FF01102A2BDB10F0070F08D010F8E9
:1000F000013B013A8B422DD010F0070F42B3F6D1ED
:10010000F0B441EA012141EA014122F007047FF005
:1001100000070023F0E80256083C85EA010586EA5C
:10012000010685FA47F5A3FA87F586FA47F6A5FA98
:1001300087F68EB9EED1F0BC01F0FF0102F00702A4
:1001400032B110F8013B013A83EA010313B1F8D14F
:100150000020704701387047002D06BF3546033830
:10016000073815F0010F07D1013015F4807F02BF69
:10017000013015F4C03F0130F0BC0138704700BFBA
:1001800081F0004102E000BF83F0004330B54FEA48
:1001900041044FEA430594EA050F08BF90EA020FB5
:1001A0001FBF54EA000C55EA020C7FEA645C7FEA48
:1001B000655C00F0E2804FEA5454D4EB5555B8BF6B
:1001C0006D420CDD2C4480EA020281EA030382EADC
:1001D000000083EA010180EA020281EA0303362D6E
:1001E00088BF30BD11F0004F4FEA01314FF4801C41
:1001F0004CEA113102D0404261EB410113F0004F53
:100200004FEA03334CEA133302D0524263EB430309
:1002100094EA050F00F0A780A4F10104D5F1200EA7
:100220000DDB02FA0EFC22FA05F2801841F1000102
:1002300003FA0EF2801843FA05F359410EE0A5F1D6
:1002400020050EF1200E012A03FA0EFC28BF4CF007
:10025000020C43FA05F3C01851EBE37101F00045BD
:1002600007D54FF0000EDCF1000C7EEB00006EEBCA
:100270000101B1F5801F1BD3B1F5001F0CD3490854
:100280005FEA30004FEA3C0C04F101044FEA4452AB
:1002900012F5800F80F09A80BCF1004F08BF5FEA32
:1002A000500C50F1000041EB045141EA050130BD12
:1002B0005FEA4C0C404141EB0101013C28BFB1F524
:1002C000801FE9D291F0000F04BF01460020B1FA6F
:1002D00081F308BF2033A3F10B03B3F120020CDA42
:1002E0000C3208DD02F1140CC2F10C0201FA0CF020
:1002F00021FA02F10CE002F11402D8BFC2F1200C85
:1003000001FA02F120FA0CFCDCBF41EA0C0190403A
:10031000E41AA2BF01EB0451294330BD6FEA040483
:100320001F3C1CDA0C340EDC04F11404C4F120026E
:1003300020FA04F001FA02F340EA030021FA04F380
:1003400045EA030130BDC4F10C04C4F1200220FAD7
:1003500002F001FA04F340EA0300294630BD21FA15
:1003600004F0294630BD94F0000F83F4801306BFDB
:1003700081F480110134013D4EE77FEA645C18BFCF
:100380007FEA655C29D094EA050F08BF90EA020F66
:1003900005D054EA000C04BF1946104630BD91EA5E
:1003A000030F1EBF0021002030BD5FEA545C05D161
:1003B0004000494128BF41F0004130BD14F58004A0
:1003C0003CBF01F5801130BD01F0004545F0FE4114
:1003D00041F470014FF0000030BD7FEA645C1ABF49
:1003E000194610467FEA655C1CBF0B46024650EA80
:1003F000013406BF52EA033591EA030F41F40021AC
:1004000030BD00BF90F0000F04BF0021704730B531
:100410004FF4806404F132044FF000054FF0000106
:1004200050E700BF90F0000F04BF0021704730B5C7
:100430004FF4806404F1320410F0004548BF40429C
:100440004FF000013EE700BF42004FEAE2014FEAF1
:1004500031014FEA02701FBF12F07F4393F07F4FCC
:1004600081F06051704732F07F4208BF704793F0CF
:100470007F4F04BF41F40021704730B54FF46074E2
:1004800001F0004521F000411CE700BF50EA0102E5
:1004900008BF704730B54FF000050AE050EA01028E
:1004A00008BF704730B511F0004502D5404261EBFE
:1004B00041014FF4806404F132045FEA915C3FF43F
:1004C000D8AE4FF003025FEADC0C18BF03325FEADC
:1004D000DC0C18BF033202EBDC02C2F1200300FA8D
:1004E00003FC20FA02F001FA03FE40EA0E0021FAB2
:1004F00002F11444BDE600BF70B54FF0FF0C4CF4A0
:10050000E06C1CEA11541DBF1CEA135594EA0C0F51
:1005100095EA0C0F00F0DEF82C4481EA030621EA8C
:100520004C5123EA4C5350EA013518BF52EA0335C7
:1005300041F4801143F4801338D0A0FB02CE4FF079
:100540000005E1FB02E506F00042E0FB03E54FF0A9
:100550000006E1FB03569CF0000F18BF4EF0010EA1
:10056000A4F1FF04B6F5007F64F5407404D25FEA9D
:100570004E0E6D4146EB060642EAC62141EA555150
:100580004FEAC52040EA5E504FEACE2EB4F1FD0C92
:1005900088BFBCF5E06F1ED8BEF1004F08BF5FEA10
:1005A000500E50F1000041EB045170BD06F00046C2
:1005B00046EA010140EA020081EA0301B4EB5C046F
:1005C000C2BFD4EB0C0541EA045170BD41F4801167
:1005D0004FF0000E013C00F3AB8014F1360FDEBF8C
:1005E000002001F0004170BDC4F10004203C35DA68
:1005F0000C341BDC04F11404C4F1200500FA05F3EB
:1006000020FA04F001FA05F240EA020001F000428B
:1006100021F0004110EBD37021FA04F642EB060101
:100620005EEA430E08BF20EAD37070BDC4F10C042B
:10063000C4F1200500FA04F320FA05F001FA04F2EF
:1006400040EA020001F0004110EBD37041F10001DB
:100650005EEA430E08BF20EAD37070BDC4F12005E6
:1006600000FA05F24EEA020E20FA04F301FA05F24E
:1006700043EA020321FA04F001F0004121FA04F2F6
:1006800020EA020000EBD3705EEA430E08BF20EAC6
:10069000D37070BD94F0000F0FD101F00046400000
:1006A00041EB010111F4801F08BF013CF7D041EA82
:1006B000060195F0000F18BF704703F00046520086
:1006C00043EB030313F4801F08BF013DF7D043EA57
:1006D0000603704794EA0C0F0CEA135518BF95EA0D
:1006E0000C0F0CD050EA410618BF52EA4306D1D194
:1006F00081EA030101F000414FF0000070BD50EAB3
:10070000410606BF1046194652EA430619D094EA3C
:100710000C0F02D150EA013613D195EA0C0F05D126
:1007200052EA03361CBF104619460AD181EA03017A
:1007300001F0004141F0FE4141F470014FF0000032
:1007400070BD41F0FE4141F4780170BD70B54FF0CD
:10075000FF0C4CF4E06C1CEA11541DBF1CEA13554D
:1007600094EA0C0F95EA0C0F00F0A7F8A4EB05042F
:1007700081EA030E52EA03354FEA013100F0888026
:100780004FEA03334FF0805545EA131343EA1263EF
:100790004FEA022245EA111545EA10654FEA0026A4
:1007A0000EF000419D4208BF964244F1FD0404F55D
:1007B000407402D25B084FEA3202B61A65EB0305B9
:1007C0005B084FEA32024FF480104FF4002CB6EB76
:1007D000020E75EB030E22BFB61A754640EA0C00F6
:1007E0005B084FEA3202B6EB020E75EB030E22BF36
:1007F000B61A754640EA5C005B084FEA3202B6EB77
:10080000020E75EB030E22BFB61A754640EA9C0035
:100810005B084FEA3202B6EB020E75EB030E22BF05
:10082000B61A754640EADC0055EA060E18D04FEAC3
:10083000051545EA16754FEA06164FEAC30343EA63
:1008400052734FEAC2025FEA1C1CC0D111F4801F30
:100850000BD141EA00014FF000004FF0004CB6E729
:1008600011F4801F04BF01430020B4F1FD0C88BFC8
:10087000BCF5E06F3FF6AFAEB5EB030C04BFB6EBD3
:10088000020C5FEA500C50F1000041EB045170BDC6
:100890000EF0004E4EEA113114EB5C04C2BFD4EBF3
:1008A0000C0541EA045170BD41F480114FF0000E77
:1008B000013C90E645EA060E8DE60CEA135594EAF3
:1008C0000C0F08BF95EA0C0F3FF43BAF94EA0C0FF6
:1008D0000AD150EA01347FF434AF95EA0C0F7FF46B
:1008E00025AF104619462CE795EA0C0F06D152EABF
:1008F00003353FF4FDAE1046194622E750EA4106A3
:1009000018BF52EA43067FF4C5AE50EA41047FF4B3
:100910000DAF52EA43057FF4EBAE12E74FEA410216
:1009200012F5001215D211D56FF47873B3EB625241
:1009300012D94FEAC12343F0004343EA505311F068
:10094000004F23FA02F018BF404270474FF00000FA
:10095000704750EA013005D111F0004008BF6FF038
:10096000004070474FF00000704700BF80F000402B
:1009700002E000BF81F0004142001FBF5FEA410377
:1009800092EA030F7FEA226C7FEA236C6AD04FEA77
:100990001262D2EB1363C1BFD218414048404140BC
:1009A000B8BF5B42192B88BF704710F0004F40F46E
:1009B000000020F07F4018BF404211F0004F41F48A
:1009C000000121F07F4118BF494292EA030F3FD056
:1009D000A2F1010241FA03FC10EB0C00C3F1200369
:1009E00001FA03F100F0004302D5494260EB4000F8
:1009F000B0F5000F13D3B0F1807F06D340084FEA63
:100A0000310102F10102FE2A51D2B1F1004F40EB57
:100A1000C25008BF20F0010040EA030070474900BF
:100A200040EB0000013A28BFB0F5000FEDD2B0FA5C
:100A300080FCACF1080CB2EB0C0200FA0CF0AABF7F
:100A400000EBC25052421843BCBFD040184370471D
:100A500092F0000F81F4000106BF80F40000013223
:100A6000013BB5E74FEA41037FEA226C18BF7FEAFA
:100A7000236C21D092EA030F04D092F0000F08BF3C
:100A80000846704790EA010F1CBF0020704712F023
:100A90007F4F04D1400028BF40F00040704712F162
:100AA00000723CBF00F50000704700F0004343F0C7
:100AB000FE4040F4000070477FEA226216BF0846FD
:100AC0007FEA23630146420206BF5FEA412390EAC0
:100AD000010F40F4800070474FF0000304E000BFB6
:100AE00010F0004348BF40425FEA000C08BF704767
:100AF00043F0964301464FF000001CE050EA01022B
:100B000008BF70474FF000030AE000BF50EA01023F
:100B100008BF704711F0004302D5404261EB41012C
:100B20005FEA010C02BF84460146002043F0B64351
:100B300008BFA3F18053A3F50003BCFA8CF2083A76
:100B4000A3EBC25310DB01FA02FC634400FA02FC7F
:100B5000C2F12002BCF1004F20FA02F243EB020086
:100B600008BF20F00100704702F1200201FA02FCE8
:100B7000C2F1200250EA4C0021FA02F243EB0200DB
:100B800008BF20EADC70704753B94AB9002908BF92
:100B900000281CBF4FF0FF314FF0FF3000F00CB8C1
:100BA000ADF1080C6DE904CE01F0F8FADDF804E0CF
:100BB000DDE9022304B07047704700BF2DE9F14F13
:100BC00003F11C0402EB840C4FEA930B8A68CB6898
:100BD0000868496800F046F93CE9F0006040694067
:100BE00072407B400BF1060E4EE083EA134480EA2C
:100BF000134582EA134746BA96EA3444604000F04F
:100C00000F1684EA063420F00F1684EA161054BA40
:100C100094EA0106724002F00F1486EA043622F0CC
:100C20000F1486EA14124CBA6540694001F00F14A3
:100C300085EA043521F00F1485EA14115CBA674087
:100C40007B4003F00F1487EA043723F00F1487EA80
:100C5000141344BA44404DBA4D4056BA56405FBA98
:100C60005F4087EA174886EA174B84EA17464FEA3F
:100C700038488BEA1B4485EA1B4788EA1B4580EA13
:100C80003440694072407B4000F0703400F08035A1
:100C900000F00F3040EA440040EAD50080EA9004BA
:100CA00004F0332480EA8400604001F0703401F0E5
:100CB000803501F00F3141EA440141EAD50181EA72
:100CC000910404F0332481EA8401614002F070341D
:100CD00002F0803502F00F3242EA440242EAD502C5
:100CE00082EA920404F0332482EA8402624003F030
:100CF000703403F0803503F00F3343EA440343EAD2
:100D0000D50383EA930404F0332483EA8403634025
:100D1000C943DB4381EA000483EA044686EA020110
:100D200083EA014382EA334583EA14435C4084EA60
:100D300000077FEA040A8AEA024A8AEA010B87EA84
:100D400011488AEA374A80EA060181EA1A418AEAAA
:100D5000030A04EA0A00454088EA040707EA0B0090
:100D600041408AEA0B0608EA060084EA34428AEA2D
:100D70003A4602EA060358404540414087EA374375
:100D80008BEA3B4003EA000985EA090582EA030988
:100D9000464006EA0906714085EA010005EA354643
:100DA000464006EA314181EA304181EA364606EAA8
:100DB000304686EA354634400F4086EA010508EAA7
:100DC000050886EA3640024088EA020881EA314294
:100DD00013405C4080EA020309EA030987EA090735
:100DE000674088EA040806EA0A0601EA0B018AEA73
:100DF0000B0425408AEA3A44204045408BEA3B4BAD
:100E000002EA0B02564084EA0B04234059406E402C
:100E1000694087EA364080EA384080EA060380EA83
:100E2000104481EA134585EA344585EA17427D403E
:100E300082EA354180EA05403CE9F00060406940C3
:100E400072407B40BEF1010E3FF6CFAE20BC00F0F9
:100E50005FF828606960AA60EB60BDE8F08F00BFB2
:100E600000F000BA80EA101404F0F01480EA0410D4
:100E7000604081EA111404F0F01481EA0411614029
:100E800082EA121404F0F01482EA0412624083EA47
:100E9000131404F0F01483EA0413634080EA10246E
:100EA00004F47F4480EA0420604081EA112404F4C1
:100EB0007F4481EA0421614082EA122404F47F44E1
:100EC00082EA0422624083EA132404F47F4483EA22
:100ED0000423634081EA500404F0553480EA44005E
:100EE000614083EA520404F0553482EA44026340CC
:100EF00082EA900404F0333480EA8400624083EA9A
:100F0000910404F0333481EA84016340704700BFE8
:100F100082EA900404F0333480EA8400624083EA79
:100F2000910404F0333481EA8401634081EA50047F
:100F300004F0553480EA4400614083EA520404F02E
:100F4000553482EA4402634080EA102404F47F446A
:100F500080EA0420604081EA112404F47F4481EA9D
:100F60000421614082EA122404F47F4482EA0422CC
:100F7000624083EA132404F47F4483EA0423634039
:100F800080EA101404F0F01480EA0410604081EA52
:100F9000111404F0F01481EA0411614082EA121481
:100FA00004F0F01482EA0412624083EA131404F09D
:100FB000F01483EA04136340704700BF2DE9F14F3A
:100FC00094464FEA930B8A68CB6808684968FFF734
:100FD00049FF0BF1060E33E083EA134480EA134520
:100FE00082EA134746BA96EA3444604000F00F168E
:100FF00084EA063420F00F1684EA161054BA94EAF4
:101000000106724002F00F1486EA043622F00F1433
:1010100086EA14124CBA6540694001F00F1485EA63
:10102000043521F00F1485EA14115CBA67407B4047
:1010300003F00F1487EA043723F00F1487EA141320
:10104000BCE8F0006040694072407B4000F0E03452
:1010500000F0103500F00F3040EA540040EAC500BF
:1010600080EA900404F0332480EA8400604001F0B8
:10107000E03401F0103501F00F3141EA540141EA4A
:10108000C50181EA910404F0332481EA84016140BE
:1010900002F0E03402F0103502F00F3242EA54025E
:1010A00042EAC50282EA920404F0332482EA84020E
:1010B000624003F0E03403F0103503F00F3343EAED
:1010C000540343EAC50383EA930404F0332483EA18
:1010D0008403634081EA324787EA134581EA354653
:1010E00090EA060484EA034B82EA1B4280EA044445
:1010F00084EA054483EA144A85EA14448BEA044BE3
:1011000084EA374481EA0B4181EA164104EA0A0085
:10111000454082EA04082BEA080041408AEA0B06AF
:1011200002EA060084EA34438AEA3A4603EA0607FA
:1011300078404540414088EA38478BEA3B4007EA1F
:10114000000985EA090583EA0709464006EA090617
:10115000714085EA010005EA3546464006EA31411C
:1011600081EA304181EA364606EA304686EA35466B
:10117000344008EA010886EA01052A4086EA36403A
:1011800003405A4081EA31431F407C4080EA030714
:1011900009EA070988EA0908544088EA020806EAC9
:1011A0000A0601EA0B018AEA0B0215408AEA3A4272
:1011B000104045408BEA3B4003405E4042401740B0
:1011C00079404D404E40E443F64386EA18435D4083
:1011D00085EA054083EA134386EA034183EA3842FD
:1011E00084EA114383EA04435FEA3343BEF1010E0C
:1011F0003FF6F2AE1ED4BCE8F00060406940724099
:101200007B4020BCFFF784FE28606960AA60EB6029
:10121000BDE8F08F2DE9E0414FF2F00280EA103195
:10122000114080EA0130484041088208C3084FF06D
:10123000000E4FE700F0113001F0113102F01132D1
:1012400003F0113340EA410040EA820040EAC30063
:101250004FF2F00280EA1031114080EA013048403C
:10126000BDE8E0812DE9F04F02F11C050646074676
:1012700000EB850851F8040B043A46F8040BF9D149
:101280004FF0010CFFF7C6FF5FEA302080EA0C0048
:101290001ECF41404A4053405C401EC62000464598
:1012A00017D04FEA4C0C1CF4807F18BFACF1E50C52
:1012B0002C2DE7D03C2D06D1FFF7ACFF06CF4140E7
:1012C0004A4006C6100006CF41404A4006C61000FC
:1012D000D8E736E90F00FFF7C5FD043D86E80F00AB
:1012E000F7D1BDE8F08F00BF2DE9F00391E8F803D6
:1012F000B2E802105B1854EB0C04B2E802104D4146
:1013000056EB0C0692E806104F4158EB020859EBD9
:101310000C0980E8F80380410130BDE8F003704714
:101320002DE9F00391E8F803B2E802105B1A74EBC0
:101330000C04B2E802108D4176EB0C0692E8061020
:101340008F4178EB020879EB0C0980E8F8038041C3
:101350004042BDE8F00370472DE9F003524290E8A7
:101360003800B1E880031740DB1918EA020854EB93
:10137000080419EA020955EB090538C090E878001D
:1013800091E8820311404B4117407C4118EA020862
:1013900055EB080519EA020956EB090678C08041A9
:1013A0000130BDE8F00370472DE9F003524290E8A8
:1013B0003800B1E880031740DB1B18EA020874EB21
:1013C000080419EA020975EB090538C090E87800AD
:1013D00091E8820311408B411740BC4118EA020892
:1013E00075EB080519EA020976EB090678C0804119
:1013F0004042BDE8F00370472DE9F00152424FF042
:10140000030890E8300091E8C000A31B1340E41AE1
:10141000F618EB1B1340ED1AFF1830C0C0C1B8F12D
:101420000108EED104680E68A31B1340E41AF618F5
:1014300004600E60BDE8F001704700BF00B592EC9B
:10144000070AB1E8005E07EE101A56EC102A58ECB5
:10145000117AA9FB0250AAFB0234E9FB6603EBFBFD
:10146000624340EC145AAAFB0605ECFB6235E9FB2B
:101470006740E9FB6830EEFB6250AAFB0721EAFBFC
:101480006851EBFB680112EE108AEBFB6632ECFB55
:101490006652EAFB6802EBFB681243EC154AA9FBB3
:1014A000084312EE908AE9FB6803EAFB6813EBFB42
:1014B0006823EBFB6754EEFB660413EE108AE9FB2E
:1014C0006814EAFB6824EBFB683406EE105A17EE4A
:1014D000109A99E8000CACFB076511EE909AECFBB2
:1014E0006915EEFB6925EAFB6935EBFB694510EEF2
:1014F000109AEAFB6906EBFB691612EE109AECFBF8
:101500006926EEFB6936EAFB6946EBFB695610EE8D
:10151000909AAAFB0987EBFB692712EE909AECFBE5
:101520006937EEFB6947EAFB6957EBFB696711EE28
:10153000109AEEFB6918EAFB6928EBFB693813EE99
:10154000109AECFB6948EEFB6958EAFB6968EBFB13
:10155000697800BD2DE9F04F07EE900AFFF76EFFA6
:1015600017EE909AA9EC054A89E8FF01BDE8F08FD3
:1015700000B591E8805FA7FB0750A7FB0834E7FBA5
:101580006803E7FB694340EC145AA7FB0905E7FB36
:101590006A35E8FB6840E7FB6A30E7FB6B50A8FB65
:1015A0000921E7FB6B51E7FB6C01E8FB6932E8FBC3
:1015B0006A52E7FB6C02E7FB6E1243EC154AA8FB8C
:1015C0000A43E8FB6B03E7FB6E13E8FB6E23E9FBC2
:1015D0006954E8FB6B04E8FB6C14E8FB6E24E9FB40
:1015E0006E3406EE105AA9FB0A65E8FB6C15E9FBA0
:1015F0006C25E9FB6E35EAFB6E45E9FB6A06E9FB03
:101600006B16E9FB6C26EAFB6C36EAFB6E46EBFBDD
:101610006E56A9FB0B87EAFB6B27EAFB6C37EBFBEB
:101620006C47EBFB6E57ECFB6E67EAFB6A18EAFB54
:101630006B28EBFB6B38EBFB6C48ECFB6C58ECFB62
:101640006E68EEFB6E7800BD2DE9F04F07EE900A54
:10165000FFF78EFF17EE909AA9EC054A89E8FF0183
:10166000BDE8F08F2DE9F00791E8F807B2E8021025
:101670005B1854EB0C04B2E802104D4156EB0C061B
:10168000B2E802104F4158EB0C08B2E8021059EBD7
:1016900001095AEB0C0A80E8F80780410130BDE8E7
:1016A000F00770472DE9F00791E8F807B2E802105B
:1016B0005B1A74EB0C04B2E802108D4176EB0C0659
:1016C000B2E802108F4178EB0C08B2E8021079EB17
:1016D00001097AEB0C0A80E8F80780414042BDE836
:1016E000F00770472DE9F007524290E87800B1E822
:1016F00080071740DB1918EA020854EB080419EABE
:10170000020955EB09051AEA020A56EB0A0678C0E7
:1017100090E87800B1E8800717407B4118EA02089A
:1017200054EB080419EA020955EB09051AEA020A02
:1017300056EB0A0678C080410130BDE8F0077047DB
:101740002DE9F007524290E87800B1E88007174091
:10175000DB1B18EA020874EB080419EA020975EBAE
:1017600009051AEA020A76EB0A0678C090E87800C2
:10177000B1E880071740BB4118EA020874EB08047F
:1017800019EA020975EB09051AEA020A76EB0A065C
:1017900078C080414042BDE8F00770472DE9F00174
:1017A00052424FF0040890E8300091E8C000A31BBB
:1017B0001340E41AF618EB1B1340ED1AFF1830C063
:1017C000C0C1B8F10108EED1BDE8F001704700BF1B
:1017D00000B592EC080AB1E8805707EE101A53ECF6
:1017E000102A56EC114AA7FB0251A8FB020BE7FB9B
:1017F0006310E9FB62B041EC145AA8FB0351EAFB09
:101800006201E7FB64B5E7FB6605E8FB661505EEDC
:1018100010BAA9FB03B6EAFB6316ECFB6356E8FBC0
:10182000640BE9FB641BEAFB645BECFB646B05EE99
:10183000900AACFB023012EE104AEEFB6250E9FB5C
:101840006460EAFB64B0E7FB6431E8FB645112EECC
:10185000904AE8FB6461E9FB64B1EAFB640106EECF
:10186000103AA7FB043213EE104AE7FB6462E8FB70
:1018700064B2E9FB6402EAFB641211EE904AE9FBF0
:101880006453EAFB646313EE904AE7FB64B3E8FB3E
:101890006403E9FB6413EAFB642306EE905A17EE37
:1018A000109A99E8000610EE108AA9FB0854EAFB8A
:1018B00068B412EE108AECFB6804EEFB6814E9FBD6
:1018C0006824EAFB683410EE908AEEFB6865E9FB59
:1018D00068B5EAFB680512EE908AECFB6815EEFB32
:1018E0006825E9FB6835EAFB684507EE106A11EEEA
:1018F000108AAEFB0876E9FB6806EAFB681613EE71
:10190000108AECFB6826EEFB6836E9FB6846EAFBCA
:10191000685611EE908AECFB68B7EEFB6807E9FBAE
:101920006817EAFB682713EE908AECFB6837EEFB3A
:101930006847E9FB6857EAFB686700BD2DE9F04F8F
:1019400007EE900AFFF744FF17EE908A07EE90BA71
:10195000A8EC084A88E8FF00BDE8F08F00B591E8E0
:101960009857A3FB0352A3FB0401E3FB6420E3FBB2
:10197000671042EC145AA3FB0752E3FB6802E4FB36
:101980006415E3FB6805E3FB6925A4FB07B6E3FBED
:101990006926E3FB6A56E4FB670BE4FB682BE3FB79
:1019A0006A5BE3FB6C6B40EC151AA4FB0810E4FBCC
:1019B0006950E3FB6C60E3FB6EB0E7FB6721E4FB7F
:1019C0006951E4FB6A61E3FB6EB1E4FB6E0106EE74
:1019D000102AA7FB0832E4FB6A62E4FB6CB2E4FB6A
:1019E0006E02E7FB6E12E7FB6853E7FB6963E4FBFB
:1019F0006CB3E7FB6C03E7FB6E13E8FB6E2306EEAC
:101A0000905AA7FB0954E7FB6AB4E7FB6C04E8FBB8
:101A10006C14E8FB6E24E9FB6E34E8FB6865E7FBB9
:101A20006AB5E8FB6A05E8FB6C15E9FB6C25E9FB88
:101A30006E35EAFB6E4507EE106AA8FB0976E8FBF7
:101A40006A06E9FB6A16E9FB6C26EAFB6C36EAFBE0
:101A50006E46ECFB6E56E8FB69B7E9FB6907E9FBEC
:101A60006A17EAFB6A27EAFB6C37ECFB6C47ECFB76
:101A70006E57EEFB6E6700BD2DE9F04F07EE900A42
:101A8000FFF76CFF17EE908A07EE90BAA8EC084AB1
:101A900088E8FF00BDE8F08F30B44FF0000310F885
:101AA000014B11F8015B013A84EA050443EA04039F
:101AB000F5D1A3F101034FEAD37030BC704700BFEA
:101AC0004FF0000310F8012B013943EA0203F9D16A
:101AD000A3F101034FEAD370704700BF30B411F88F
:101AE000014B12F8015B6C4000F8014B013BF6D151
:101AF00030BC70472DE9F00391E8F803B2E802101A
:101B00005B1854EB0C04B2E802104D4156EB0C0686
:101B100092E806104F4158EB020859EB0C09894135
:101B2000013B74F1000475F1000576F1FF3677F1A1
:101B3000FF3778F1FF3879F1FF3951F1000113EBEC
:101B4000D17354F1000455F100054E414F4158EB5B
:101B5000010859EB010980E8F803BDE8F00370477C
:101B60002DE9F00391E8F803B2E802105B1A74EB78
:101B70000C04B2E802108D4176EB0C0692E80610D8
:101B80008F4178EB020879EB0C09894113EBD17393
:101B900054F1000455F100054E414F4158EB010846
:101BA00059EB010980E8F803BDE8F003704700BF76
:101BB0002DE9F04F07EE900AFFF740FC5AEC359AFA
:101BC000B9EB05097AEB060AB84171EB080172F12D
:101BD000000273F1000374F100046BEB0B0B491965
:101BE00072417B4154EB08044BF1000557EC146A39
:101BF00015EE108ABEEB0E0E59EB02095AEB030AE2
:101C0000604169415EF1000E96419F4178EB040806
:101C100079EB05097AF1000A70F1000B71F1000C03
:101C20006EF1010E16EBDE7657F1000758F1000851
:101C300059EB0E095AEB0E0A5BEB0E0B5CEB0E0C2C
:101C400017EE900A80E8C01FBDE8F08F2DE9F04F35
:101C500007EE900AFFF78CFCB0E700BF2DE9F00714
:101C600091E8F807B2E802105B1854EB0C04B2E8F4
:101C700002104D4156EB0C06B2E802104F4158EBF2
:101C80000C08B2E8021059EB01095AEB0C0A894121
:101C9000B3F1FF3374F1FF3475F1FF3576F10006CF
:101CA00077F1000778F1000879F101097AF1FF3A3C
:101CB00051F100015B184C414D4156F1000657F1BE
:101CC000000758F1000859EBD1795AEB010A80E876
:101CD000F807BDE8F00770472DE9F00791E8F8072D
:101CE000B2E802105B1A74EB0C04B2E802108D41EA
:101CF00076EB0C06B2E802108F4178EB0C08B2E8E4
:101D0000021079EB01097AEB0C0A89415B184C410E
:101D10004D4156F1000657F1000758F1000859EB04
:101D2000D1795AEB010A80E8F807BDE8F00770475F
:101D300018EB040859EB05095AEB060A5BEB070B95
:101D40005FF0000C4CF1000C18EB050859EB06098C
:101D50005AEB070A5BEB070B50EB0C005FF0000C33
:101D600051EB0C0152EB0C0263414CF1000CB8EB4F
:101D7000070879F100097AF1000A7BEB040BA8410E
:101D8000B141A241B3416CF1000CBBEB050BB0417A
:101D9000B941AA41BB416CF1000C6FEAEC74B8EB9D
:101DA000040879EB04097AEB040A7BF1000B70F16B
:101DB000000071F1000172EBD472A3416CF1000CD0
:101DC00018EBEC7859EBEC795AEBEC7A5BF1000B01
:101DD00050F1000451F1000552EBDC7653EBEC7747
:101DE0004CF1000C18EBEC7059EBEC715AEBEC7207
:101DF0005BF1000354F1000455F1000556EBDC766D
:101E000057EBEC77704700BF2DE9F04F07EE900AD3
:101E1000FFF7DEFC59EC168A17EE10AAFFF788FFD1
:101E200059EC148A5BEC15AAFFF782FF17EE908A33
:101E300088E8FF00BDE8F08F2DE9F04F07EE900A2B
:101E4000FFF78CFD59EC168A17EE10AAFFF770FF0A
:101E500059EC148A5BEC15AAFFF76AFF17EE908A1B
:101E600088E8FF00BDE8F08F2DE9F04F90E8F00F13
:101E700000F140004FF0040E59E0F0B4826BC36BE8
:101E800004680525242687593C444FEA724787EAAF
:101E9000F24787EA92273C4442684FEAF21787EA02
:101EA000B24787EAD2073C4440F8044B032D08BFF1
:101EB0006FF01B0687593A444FEA734787EAF347A6
:101EC00087EA93273A4443684FEAF31787EAB34710
:101ED00087EAD3073A4440F8042B87593B444FEA3A
:101EE000744787EAF44787EA94273B4444684FEAFB
:101EF000F41787EAB44787EAD4073B4440F8043B29
:101F0000013DC0D1A0F13C00076A3C444FEA724752
:101F100087EAF24787EA92273C4402684FEAF217C1
:101F200087EAB24787EAD2073C44C463F0BC4FF06B
:101F3000020288EA781C8CEAF84C0BEBBC1C8AEA9B
:101F4000090303EA080383EA0A039C4450F8043BAC
:101F50009C4451F8043B9C44674444EA050B0BEA5B
:101F6000060B04EA05034BEA030BE34484EAF4237B
:101F700083EA34530BEBB30B87EA771C8CEAF74CFC
:101F80000AEBBC1C89EA080303EA070383EA090396
:101F90009C4450F8043B9C4451F8043B9C446644E8
:101FA0004BEA040A0AEA050A0BEA04034AEA030AAE
:101FB000E2448BEAFB2383EA3B530AEBB30A86EA4B
:101FC000761C8CEAF64C09EBBC1C88EA070303EA92
:101FD000060383EA08039C4450F8043B9C4451F8F0
:101FE000043B9C4465444AEA0B0909EA04090AEAED
:101FF0000B0349EA0309E1448AEAFA2383EA3A53E4
:1020000009EBB30985EA751C8CEAF54C08EBBC1C9E
:1020100087EA060303EA050383EA07039C4450F8B2
:10202000043B9C4451F8043B9C44644449EA0A083C
:1020300008EA0B0809EA0A0348EA0308E04489EAC7
:10204000F92383EA395308EBB30884EA741C8CEA59
:10205000F44C07EBBC1C86EA050303EA040383EA9D
:1020600006039C4450F8043B9C4451F8043B9C44B8
:10207000E34448EA090707EA0A0708EA090347EAC6
:102080000307674488EAF82383EA385307EBB3076A
:102090008BEA7B1C8CEAFB4C06EBBC1C85EA040338
:1020A00003EA0B0383EA05039C4450F8043B9C4479
:1020B00051F8043B9C44E24447EA080606EA090654
:1020C00007EA080346EA0306664487EAF72383EA39
:1020D000375306EBB3068AEA7A1C8CEAFA4C05EB16
:1020E000BC1C84EA0B0303EA0A0383EA04039C444E
:1020F00050F8043B9C4451F8043B9C44E14446EABC
:10210000070505EA080506EA070345EA03056544ED
:1021100086EAF62383EA365305EBB30589EA791C90
:102120008CEAF94C04EBBC1C8BEA0A0303EA0903B2
:1021300083EA0B039C4450F8043B9C4451F8043B55
:102140009C44E04445EA060404EA070405EA060361
:1021500044EA0304644485EAF52383EA355304EB37
:10216000B304013A7FF4E5AEA0F14000BEF1010EE8
:102170007FF483AEA0F1400C9CE80F0000194919D0
:102180009219DB19ACE80F009CE80F004044494469
:1021900052445B44ACE80F00BDE8F08F2DE9F047F6
:1021A00086468C460846089E154674461946002BFE
:1021B00040F0C2808542B2FA82F245D94AB1C2F1FA
:1021C000200300FA02FC2EFA03F3954043EA0C0CBC
:1021D00094404FEA154EA8B2BCFBFEF8230C0EFB50
:1021E00018CC08FB00F943EA0C43994528D9EB18B1
:1021F00008F1FF3704D2994502D9A8F102072B4410
:10220000A3EB0903A4B2B3FBFEFC0EFB1C330CFBD7
:1022100000F044EA0344A04214D92C190CF1FF3316
:1022200004D2A04202D9ACF102032C44241A43EA9E
:1022300007401EB1D440002334607360BDE8F087CE
:102240004746DDE76346F1E792BB431B01214FEAB6
:10225000154EAFB2B3FBFEFC200C0EFB1C330CFB87
:1022600007F840EA0343984562D9EB180CF1FF30B8
:1022700004D2984502D9ACF102002B44A3EB080329
:10228000A4B2B3FBFEFC0EFB1C330CFB07F744EAC5
:102290000344A7424ED92C190CF1FF3304D2A742B4
:1022A00002D9ACF102032C44E41B43EA0040C0E72E
:1022B000C2F1200320FA03F1954090402EFA03F377
:1022C00003434FEA154EAFB2B1FBFEFC0EFB1C10F0
:1022D000190C0CFB07F841EA0041884504FA02F4A6
:1022E00022D969180CF1FF3004D2884502D9ACF12B
:1022F00002002944A1EB08019BB2B1FBFEFC0EFBDE
:102300001C110CFB07F743EA01439F420ED9EB185F
:102310000CF1FF3104D29F4202D9ACF102012B44EF
:10232000DB1B41EA004192E76046E3E76146F7E7DD
:102330006046A3E76346B7E7834206D916B9002192
:1023400008467BE7C6E900E0F9E7B3FA83F78FB9FF
:10235000834201D3724508D8BEEB020460EB03034D
:1023600001209C461EB9002168E73846FAE7C6E915
:10237000004CF8E7C7F1200CBB4022FA0CF41C43D8
:102380002EFA0CF120FA0CF3B84001434FEA14493D
:102390000EFA07F5B3FBF9F81FFA84FE09FB1830B3
:1023A0000B0C08FB0EFA43EA00439A4502FA07F2C7
:1023B00040D9E31808F1FF3004D29A4502D9A8F1B8
:1023C00002002344A3EB0A0389B2B3FBF9F809FB2B
:1023D000183308FB0EFE41EA03418E452CD96118E3
:1023E00008F1FF3304D28E4502D9A8F1020321443B
:1023F00043EA0040A0FB0298A1EB0E014145CE4606
:10240000434602D306D14D4504D2B9EB020E68EB28
:1024100004030138002EA6D0B5EB0E0261EB0301D8
:1024200001FA0CFC22FA07F34CEA0303F940C6E96F
:10243000003198E74046C5E74346D9E710F8012B3D
:1024400011F8013B012A28BF9A42F7D0D01A7047F1
:10245000034613F8012B002AFBD1181A01387047E4
:1024600010B54FF0FF331E484FF0FF321FF068FCED
:102470001C4B0024BFF35B8F1A68BFF35B8F7AB1EC
:102480000134042C03F12003F4D10CF0BDF917231F
:1024900003604FF0FF3412481FF05EFD204610BD70
:1024A000BFF35B8F53E8001F013143E80012002A9D
:1024B000F8D1BFF35B8F9FED087B0B4800EB441313
:1024C00083ED007B63010C3318441FF031FC04489A
:1024D0001FF042FD204610BD00000000000000007B
:1024E0006C030020D81C0020D01C0020000000003D
:1024F00070B59FED137B84B000248DED007B0294BA
:10250000234605460FF040FB061E0DDB2B680093AB
:1025100028460D49002200230FF00AFD051EA8BF22
:10252000204608DB04B070BD0CF06EF97642066000
:102530004FF0FF30F6E70CF067F96D420560F7E702
:102540000080010000000000B5B0000000000000A5
:102550002DE9F04F2DED028B8BB002AF8846D7F8F6
:1025600050A097F85C9015461E460446002800F0DF
:102570000C81B74B984280F08280B649B64AB74882
:1025800040F2A95306F078F9B54806F075F9B2485B
:1025900040F2A95106F068F9B4F89620D10740F14D
:1025A0009D81B9F1000F5CD19EB1C2F3C203022B31
:1025B00008BF4FF0000959D1BAF1170F56D9736807
:1025C00006F1040A43B9B36833B9F36823B9336930
:1025D00013B96FF078063DE0E36A002B55D094F90B
:1025E0009800B9F1000F01D0002D6AD00DF086FAE5
:1025F00040B10368BFF35B8FDB68BFF35B8FDB0722
:1026000040F16F819FED908B94F998000DF076FA70
:10261000B4F8962094F89430C2F3C2028DED008B8A
:10262000294610F025F9834600287ED094F89410AE
:1026300044610FF031FFA84251D37B6DA364BB6DA1
:102640002360B4F89430112B66D06FF07A065846A8
:102650000FF0D8FE30462437BD46BDEC028BBDE8F6
:10266000F08FBAF1000F9FD1002E73D06FF01506D6
:1026700030462437BD46BDEC028BBDE8F08F03F534
:10268000C3639842BFF479AF86E7236B002BA6D1D2
:10269000636B002BA3D1A36B002BA0D112059ED49A
:1026A00050460EF00FF88346002800F00781584688
:1026B0000EF068F940B284F89800B9F1000F93D198
:1026C00094E7D9F80C10002990D0D9F8082002EB33
:1026D000C101536808328A421D44FAD186E7B4F832
:1026E0009630C3F38113022B18BF0546A5D16C4663
:1026F00088B002AB5B4959611A460421C3E906055B
:1027000042F8101F584800234FF4015106F0F0FF23
:102710006FF00B06A5469DE7B4F89630C3F3C203ED
:10272000022B51D06FF0150691E7504A0223C7E9FA
:1027300006324D4807F118025B464FF4825106F00D
:10274000D7FF6FF0680630462437BD46BDEC028BDC
:10275000BDE8F08FB8F1000F3FF43BAFC2F3C20306
:10276000022B83D1D8E9006A0EB1C14624E7E36A9F
:1027700004F1280604F12C0A002B4FD094F998009C
:10278000C146002D7FF432AF9BE7334A31493348CD
:1027900040F2A95306F070F8314806F06DF82E4863
:1027A00040F2A95106F060F8314A32492B4840F214
:1027B0005B1306F061F82A4806F05EF82C4840F2F8
:1027C0005B1106F051F8E7E65346002259462046D1
:1027D000B6F802A00FF098F9061EFFF638AF2046B3
:1027E0000FF0E4F80346F8B1002BC0F2848058469D
:1027F00010F07AF8B4F89630C3F3C203022B57D026
:1028000058460CF007FF061EFFF621AF2E46304655
:102810002437BD46BDEC028BBDE8F08F236BC1466B
:10282000002B3FF4D2AE31E7E18B5246584611F00F
:1028300003FA03460028D7D1AA46B9F1000F53D0B6
:10284000D9F80C2002BBD2E7008000000000000095
:1028500044560020D45B0400885B0400E43A040082
:10286000C0490400485D0400F03104002C5D040000
:1028700084490400B8490400BAEB080AB7D0D9F873
:102880000C207B689342B2D2D9F8082002EBC30037
:1028900052F833104268524528BF52460133584619
:1028A000C7E90033904610F02DFA061EE4DACEE6B2
:1028B00094F89410584610F015FCA1E70F49104AFF
:1028C000104840F2912305F0D7FF0F4805F0D4FFE0
:1028D0000B4840F2912105F0C7FFE8E66FF00806CB
:1028E000B8E66FF07206B5E62A464146584610F043
:1028F00009FA034678E71E46A9E600BFCC5B040050
:1029000084490400E43A0400C049040000000000C7
:102910002DE9F047054686B09946002428230F4646
:10292000CDE9024390460FF0DFFF02A9284610F0E0
:1029300007FA002800F0D08083793A2B064666D04B
:10294000112B61D0062B5CD0AC68002C00F0B58058
:102950004FF0000CA38924689C44002CFAD195F810
:102960002430A8699FED5E7B022202FB03CC8DED33
:10297000007B0CF104013A230FF07AFF0446002893
:1029800000F0A78095F82420296A10F0BBF9B0F177
:10299000000A2FDBA3689B68A36295F82C20A96A24
:1029A000204610F0AFF9B0F1000A23DBA06895F8DB
:1029B0002C1008300CF0A8F9A06850F8083F2362EA
:1029C00095F824100CF0A0F995F82C3084F82430F8
:1029D00095F8243084F82C30337EFF2B06F1180153
:1029E00063D006F10802204610F03CFB064620B3F7
:1029F0006FF0040A20460FF005FD504606B0BDE812
:102A0000F0874FF03C0CAAE74FF0300CA7E7039992
:102A100004940423284605930FF06CFF04A928466C
:102A200010F08EF9002845D090F90130A34241DA28
:102A300028460FF059FFB37982E704904FF0040A5B
:102A400004A92046CDF814A010F07AF90028CFD0C0
:102A500080F8018007708670C67004A9204610F0C7
:102A6000A7F90028C4D1042F29D052460146204698
:102A70000FF04CFF824620460FF0F0FCBAF1000F39
:102A8000B8D10246294620460FF056FF0028B1D1A2
:102A900020460FF029FF3A21204610F023FB204664
:102AA0000CF0B8FD0028A5DBA7E7A0690DF074FDC8
:102AB000014696E76FF0150A9FE7A4464FE799FA9B
:102AC00089F33A4604A92046049310F01BF9824684
:102AD000D1E76FF00B0A90E76FF0040A8DE700BFB3
:102AE000008000000000000000B589B09FED0E7B63
:102AF00006ABCDE9063302AA8023CDE9022200937A
:102B00000B4A02AB8DED047B11F016F9002805DBB2
:102B10004FF48042002302A81FF0B4FC09B05DF816
:102B200004FB00BFAFF300800000000001000000C4
:102B3000E53E010000000000474BD3F80423900756
:102B400002D5D3F804218AB94FF02003EFF31182A4
:102B500083F31288BFF36F8F3F4BD3F80413C9037D
:102B60000ED482F31188BFF36F8F70473B4A002168
:102B7000C3F80411D3F80431136801331360E3E799
:102B8000F0B53749BFF35B8F83B051E8000F20F0F9
:102B9000010441E80045002DF7D1BFF35B8F40B938
:102BA000D3F840312BB982F31188BFF36F8F03B094
:102BB000F0BD29480023C0F84031D0F8403182F3FD
:102BC0001188BFF36F8F254B1B68190A1B06BFF3D3
:102BD0005F8FD0F80425D31841F10001B2F5801FB2
:102BE0000AD2204AD2E90045A34271EB050203D282
:102BF00013F1807341F100014FF02002EFF3118CCB
:102C000082F31288BFF36F8F174AD2E90245A342BD
:102C1000A94118D39FED0E7B0F4E11685368002019
:102C20004FF4803782ED027B1060C6F848738CF356
:102C30001188BFF36F8F0029B9D0009322462B462D
:102C4000884703B0F0BD8CF31188BFF36F8FAEE7F8
:102C5000FFFFFFFFFFFFFFFF001001409C5E002011
:102C6000945E00203030002018300020000000006A
:102C70004B790A7903F001032DE9F0471B01DFF8D6
:102C8000EC82AF4CAF4DB04F43EA12138146C87986
:102C900088F800300E464B78897900F0030041EA4D
:102CA00000212180A949F47A95F82D000C70C3F316
:102CB000820188423C789AB005D085F82D10013405
:102CC000E4B232793C7095F8301002F00F0399426B
:102CD000C2F3030206D001343C7085F8302014F0B2
:102CE00031FD3C78737995F83110C3F34402914279
:102CF00004D00134E4B285F831203C70F37995F8C2
:102D00003220C3F3820A524505D085F832A001343F
:102D1000E4B2F3793C7095F83320B2EB531FC3F360
:102D2000421104D00134E4B285F833103C70337A98
:102D300095F834209A4204D00134E4B285F8343056
:102D40003C70737A95F835209A4204D00134E4B28D
:102D500085F835303C70B37A95F836209A4204D025
:102D60000134E4B285F836303C70002C40F0CC8061
:102D70005046727B95F8371002F003039942C2F374
:102D8000010C04D085F837C00134727B3C7095F893
:102D90003910C2F34113994205D085F839303B7898
:102DA000727B01333B70B37B95F83A4003F003012B
:102DB000490041EAD212944205D03B7885F83A2086
:102DC00001333B70B37B95F83B10C3F38202914211
:102DD00005D03B7885F83B2001333B70B37B95F8F9
:102DE0003C20B2EB531FC3F3421104D03B7885F86B
:102DF0003C1001333B70F279B379554902F003047A
:102E000043EA042383424FF000040C602FD395F86B
:102E10002010012907D995F82D1001290BD04D4A12
:102E200012889A4223D8EB7F042B1CBF0323EB7735
:102E30001AB0BDE8F08795F822100229EFD100EB17
:102E400052118B424FEA521211DB347A21448B42E9
:102E5000E9DA9A1A121A707998F80010C0F344004F
:102E600000FB02123C49098892B29142DBD9EA7F09
:102E70003A490120042A087006D03948394900220D
:102E800002700A700422EA77374A347B00211170FD
:102E9000002CCDD09A45CBD9727931789209012A8C
:102EA000C6D19FED257B01318DED007B8DED027B41
:102EB000091B4FF0805009EB010819F80120D0F8E8
:102EC000A810D0F8A400B8F805C0049089B200900A
:102ED000013AD8F80100ADF80CC004AF0591ADF887
:102EE00004100290052AA3D801A151F822F000BFD6
:102EF0004D310000312E000031300000ED2F000078
:102F0000C72F0000712F000014F00CF895F8333033
:102F100095F832201A4495F83430134495F835204A
:102F20001A4495F836301344EB8414F099F8F0798C
:102F3000C0F382001DE700BF000000000000000099
:102F400002790020DC610020267900203179002000
:102F5000D861002000790020FE7800203079002020
:102F60002779002029790020347900203379002046
:102F7000DDE90252DDE900018A4208BF854207D03F
:102F80004FF6FF718A4208BFB5F1FF3F7FF450AFA3
:102F9000E21FD2B2102A3FF64BAFADF8133008F162
:102FA0000701F37A8DF815300DF116003FF030FC73
:102FB000E31EDBB206223846ADF810308DF8122041
:102FC00014F008FA34E7DDE90223DDE900018B4261
:102FD00008BF824207D04FF6FF718B4208BFB2F1A3
:102FE000FF3F7FF425AF002005F0E6FFDDE9022377
:102FF000DDE900018B4208BF824207D04FF6FF7126
:103000008B4208BFB2F1FF3F7FF412AF644A022344
:10301000CDE908326348002308AA4FF4845106F032
:1030200067FB14F08FFB1AB0BDE8F04713F07ABFCE
:10303000DDE90202DDE900139A4208BF88427FF40D
:10304000F7AE95F82030012B7FF4F2AE98F80B30F4
:10305000012B3FF4EDAE022B00F09C80032B04D13A
:1030600098F80C30012B3FF4E3AEB8F80740EB8D35
:10307000A1B28B422DD00320B1FBF0F303EB43034D
:10308000CB1ADFF838C1EC85DBB200264FF01F0EFB
:1030900001EB6602C3EB431AB2FBFEF9C9EB491917
:1030A0000AF1030AA2EB090252440133DBB20CF825
:1030B000012BB3FBF0F2053602EB42029B1A1E2EE7
:1030C000DBB2E5D138480223A0F8824003741FF038
:1030D000E7FDB8F80B30A5F8113098F80A2098F8F9
:1030E000093043EA0223AB8213F01CFF2F4B0DF192
:1030F000130203F12001186810601032586842F87A
:103100000C0C986842F8080C10338B4253F8040CEE
:1031100042F8040CEFD199881C68918099799171DB
:103120001460384628230024ADF810308DF8124082
:1031300014F050F91E4B1F48C3F85041D3F85031DA
:1031400004211AB0BDE8F0471DF006BCDDE902021B
:10315000DDE900139A4208BF88427FF469AE95F812
:103160002030002B7FF464AE98F80720602A3FF6E9
:103170005FAE08F1080110483FF04AFB0A4898F892
:103180000720A0F87C20032303741AB0BDE8F047A1
:103190001FF086BD98F80C30022B7FF466AF47E62F
:1031A000FC690400A0320400AC5E0020F261002043
:1031B00000A00140B4740400C85E00202463002015
:1031C0002DE9F0412DED028B98B0044600AF0023AD
:1031D000002207F10800C7E902238D8819F080F862
:1031E00094F8F837002B4AD19FEDAF8A94F820600D
:1031F0007EBB94F8F70794F8F827EBB20130991EDC
:10320000C0B2033BCDB284F8F707DBB23ABB2D2B3B
:103210001FD80022294607F1300019F001F897F86D
:10322000301001F00703012B00F0A280032B2DD0FA
:103230006C4688B069469D4D0A460320C1E9055396
:1032400042F8100F9A4800234FF4C45106F050FA88
:10325000A5466037BD46BDEC028BBDE8F08194F811
:10326000F6278242D3D92D2B40F2EF80304619F059
:10327000B3FC6037BD46BDEC028BBDE8F08119F0B0
:1032800001F808EE100AB8EEC88AAFE794F8C8272C
:10329000C1F30211C2F302128A42DAD1072DD8D14A
:1032A00097F8310004F2CA7118F076FB051ED0DBE6
:1032B00097F93030002BC0F2DC8097F83620D4F834
:1032C0000008D4F80418D7F8326004F5B663D3EDDB
:1032D000007ABB684FF0000862F30708FA6898426A
:1032E00071EB020C28EE278A80F0B980181A62EB85
:1032F0000101FDF703FC08EE900A41463046FDF758
:10330000FDFBB7EE007A37EE487A07EE900A67EEDB
:10331000877AF6EE006A78EEE78A05EB450568EEF7
:10332000A67A17EE900AFDF78FF85BA3D3E9002386
:10333000FDF7E2F85AA3D3E90023FDF7DDF85D4B72
:103340000022FDF7D9F8FDF7E9FA6319D4F814283B
:10335000D4F8101897F8315083F85458A3F855084A
:1033600094F8093884F80838521AC4F80C2870E721
:1033700094F8F887B8F1000F7FF46BAF94F8182831
:10338000C1F30216B242FFF464AFB21C95427FF45F
:1033900060AF07F1320194F8B6057B60324618F051
:1033A000FBFA011EFFF655AFB4F8AC25BD68F8680E
:1033B0007B6802F5AF7C02F5C87201FB0C224FEA74
:1033C000152C4CEA006C0CEB022CB4F8AE25521B09
:1033D0002CF001054FEA052E60EB400012EB0E02C7
:1033E000C4F8CA273A6106F1FF32A2EB0101B1FA33
:1033F00081F14FEA061240EB1C60490942F00302DA
:1034000042EAC11284F8CE077861B4F8B60584F8B0
:10341000C82741461A4684F8C907092018F0E6FE75
:10342000424604F5F961092018F0B6FE284619F065
:103430000DFB7B68184619F019FBF0B994F8C837F2
:103440006FF3061384F8C83703E707F130003246FC
:10345000294618F0E5FE304619F0BEFBDFE6181AE3
:1034600002F5807262EB0101FDF748FB08EE900A5D
:1034700043E7204618F06CFB1FE70F4A0223C7E919
:103480000A320B48434607F128024FF4845106F0F4
:103490002FF9D3E7AFF30080BC058A4421DDB141A9
:1034A000FA48CE3B1835B13D0000000074770400A7
:1034B000C0320400000059406077040000000000A2
:1034C00090F820208B88002A58D12DE9F04F2DED5F
:1034D000048B97B090F8532800AF04462AB15C37AC
:1034E000BD46BDEC048BBDE8F08FDDB200220023A9
:1034F00007F10800C7E9022318F0F2FE94F8F70775
:1035000094F8F8270130AE1EC0B2EB1EF6B284F874
:10351000F707DBB262B194F820504DB994F8F62762
:10352000824205D92D2B2AD9284619F055FBD6E71A
:103530002D2BD4D807F1280800223146404618F038
:103540006FFE97F8282002F00701022900F0B180F1
:10355000042900F08B80E9B16C4688B06B46834D3E
:103560001A460320C3E9055142F8100F8048002392
:103570004FF4C45106F0BCF8A546B0E7704707F118
:10358000280840462A46314618F04AFE284619F0D7
:1035900023FBD6E794F8F837002BA0D194F82988BC
:1035A000B8F1000F9BD194F81838C2F30215AB4262
:1035B00095D3AB1C9E4292D107F12A0194F8B6052F
:1035C0002A4618F0E9F9011E89DB05F1FF3E681A69
:1035D0002A01AEEB0105D5F1000E4EEB050E42F0CF
:1035E000020242EACE12BB68B4F8AC6584F8C82780
:1035F000FA681B0A06F5AF7C43EA02630138B4F8A7
:10360000B62584F8C9270CFB006006F5C8720CFBD0
:103610000122FA3003EB022519F05EF906F24C4064
:1036200080B219F021FB41460420012218F0DEFD92
:10363000424604F5F961042018F0AEFD25F00100C2
:1036400019F004FA032019F011FA002840F06681FD
:10365000D7E9028997F8292004F502610123C1E91D
:10366000008984F8282884F8293838E7204618F09B
:1036700089FA94F8F837002B7FF431AF97F82820B7
:1036800097F82950C2F3021194F82828AA4253D07F
:103690006C4688B06946374848610A4603208D6108
:1036A00042F8100F32484FF4C45106F021F8A546F5
:1036B00015E794F8F837A3B394F82938002B40F0B5
:1036C0000781022E7FF40BAF94F8C817C2F30213E0
:1036D000C1F302129A427FF402AF97F8290004F274
:1036E000CA7118F059F90028FFF6F9AE97F9283099
:1036F000002BC0F2FE80204618F062F9D7E902895B
:1037000043B203F5837344FA80F097F8292080F8D8
:103710002A2804EBC303C3E90089204618F054F9B2
:10372000DDE6154AC7E90812114807F120024FF4F7
:10373000845105F0DDFFD2E694F82928002A00F034
:10374000D38000293FF4CBAE94F818288A42FFF4C6
:10375000C6AE01EB810201EB4202023296427FF4D7
:10376000BEAE94F8B66542460DE000BF1C7804007A
:10377000C0320400E4770400BC7704000133D8B2FF
:1037800081427FF6ACAE9078B04202F10B02F5D1E7
:103790000B2202FB03F3DA1C00200021C7E904011D
:1037A00008EB0201D4F80068D7F8089058F8020036
:1037B000D7F80CA00A79D4F8041838614E453A7548
:1037C00071EB0A00D7E904BC01D30AF5807AD4F87A
:1037D0002008D4F82428B9EB06096AEB010AB042A4
:1037E00072EB010E80F09480361A61EB020208330E
:1037F00008EB030158F8030094F950880B797A61BB
:10380000B8F1040F7A6038613B7543DC6146584675
:10381000FDF774F9514608EE900A4846FDF76EF937
:103820007A6803461146304609EE103AFDF766F90C
:103830000346D7E9040108EE103AFDF75FF906EEFA
:10384000900A39EE287A68EE267A59EE287A08EB43
:103850004803234437EE087A83F8545837EE267A23
:1038600003F50565C7EE877A17EE900AFCF7ECFDC5
:1038700036A3D3E90023FCF73FFE36A3D3E90023A8
:10388000FCF73AFE2C4B0022FCF736FEFDF746F81B
:10389000A5F80500D4F81428D4F8100894F8523884
:1038A00094F8091884F80818121A042BC4F80C2884
:1038B00023D908F013FF94F851389A1D0133B0FB57
:1038C000F2F101FB120084F8500884F8513806E642
:1038D0001A4BC7E908131A48002307F120024FF4D6
:1038E000845105F005FFFAE516490223C7E90831BE
:1038F000F1E7204618F046F9FDE60133DBB2052B6F
:1039000084F85238D5D008F1010884F85088E6E5EB
:10391000361A01F5807161EB020268E70A4A022358
:10392000C7E908320648434607F120024FF48451A4
:1039300005F0DEFE8CE600BF00005940CC770400A5
:10394000C032040004780400A8770400BC058A444F
:1039500021DDB141FA48CE3B1835B13D00000000F1
:1039600010B58C1882B021F00FFC43014A011B1ADC
:1039700042EAD06262EB0102920042EA93729B003B
:103980001B1841EB0200C00040EA5370C3F3103330
:1039900043EA4043E41A002C16DD4FF4004340F2A2
:1039A000E7300021E4FB03014FF47A720023FDF7B6
:1039B000EBF89FED097B02460B4609488DED007B35
:1039C00021F0F4FC02B010BD064B01221A7002B0C7
:1039D000BDE810400BF05EBC0000000000000000DD
:1039E000B8020020387900202DE9F04784B0044661
:1039F000DDF83C80DDF84490B8F10F0F0E46154617
:103A00001F4648D008F110031E2B47D89FED307B8E
:103A1000109B2373073504F1580325F0070AC4E906
:103A20001633002506F14003042284ED067B84F85A
:103A30000E806273AA2152461846A560E5733EF0D7
:103A400022FF0E9BC4E9220A0AF1400802930D9B53
:103A50000193B0440C9B00933146C4F890503B4610
:103A60004246204609F01CFF6565B9F1000F29D0D8
:103A70001F22494604F162003EF0BEFF84F88150E7
:103A8000154B9B680BB1D3F89430C4F89430404682
:103A900004B0BDE8F087114B9F42B7D0104A1149DE
:103AA00011484FF4067304F0E7FE41460F486FF0EB
:103AB0000F030E2204F0E0FE09484FF4067104F0F3
:103AC000D3FEA3E784F86290DAE700BFAFF300808B
:103AD00000000000000000004C760020CD1C020019
:103AE000E89104000C920400E43A04008C92040073
:103AF0002DE9F84F2DED028B05461FF083FD4FF0A9
:103B00002003EFF3118B83F31288BFF36F8F6248AA
:103B10001EF0B0F85F46002800F090805E48DFF8A5
:103B200098A1DFF898911EF0C1F85C4BCAF80050DC
:103B30001C689C423FD09FED568BDFF85C81D9E931
:103B4000002120464FEAE57C002C75D0D4E90463BF
:103B5000B5427CEB030EC0F28F80B21841EBE671E8
:103B600084ED048BC9E9002121F088F840461EF05D
:103B70008FF8002851D087F31188BFF36F8FA368A7
:103B8000204698474FF02003EFF3118783F3128804
:103B9000BFF36F8F40461EF06DF8BB4670B34046D2
:103BA0001EF084F83D4BDAF800501C68AD1B9C42B7
:103BB000CAF80050C3D14FEAE57CD9F80020521969
:103BC000C9F80020D9F804204FF0000442EB0C02A1
:103BD000C9F80420CAF8004021F06CF8214612F020
:103BE0004FF82D481EF054F8002836D08BF311887A
:103BF000BFF36F8FBDEC028BBDE8F88F284A2948D0
:103C000029498E2304F038FE4146284804F034FE4A
:103C100023488E2104F028FEC1E7214A2148244987
:103C2000B92304F029FE4146224804F025FE1C4831
:103C3000B92104F019FE9EE7BB46BEE7184A1A49AF
:103C400018488E2304F018FE1349184804F014FE97
:103C500013488E2104F008FE60E7114A1449114808
:103C6000B92304F009FE0C49124804F005FE0C4883
:103C7000B92104F0F9FDB9E7084A9442BB469CD04B
:103C8000761B63EB0C022661626196E7AFF300805E
:103C90000000000000000000A07600200C020020C0
:103CA000B8400400E43A0400184104003041040024
:103CB000E8400400004104009C760020C835002044
:103CC0009FED097B10B4002300F11804C0E90644FD
:103CD00080ED007BC0E908125DF8044B0363436389
:103CE000704700BFAFF3008000000000000000003C
:103CF0002DE9F84F0025044600F1240B05847430AB
:103D00000E4632F065F90C23A4F878304FF0AF631B
:103D1000E36723465A4A84F87B5043F8802FC4F85F
:103D200088302346574A43F88C2FC4F894302346F2
:103D3000554A43F8982FC4F8A0302346534A43F815
:103D4000A42F3146C4F8AC30C4E92D55C4E933552D
:103D500084F8B050C4F8BC5084F8C950A4F8CA50D4
:103D6000C4F8D450A4F8D85004F1F0002BF01CFA99
:103D70009FED417BF0224FF6FE73C4E949234FF6D5
:103D8000FF7384ED4C7BA4F82C3104F14C0A3146CE
:103D90005846C4E96F5533F01FF93146504633F0A9
:103DA0001BF92946082204F118003EF06CFD294653
:103DB000082204F1DC003EF066FD584633F07EF93F
:103DC000504633F07BF90127122204F5A6792946E3
:103DD00004F59C703EF057FD394648462BF046F9F5
:103DE0002B4948462AF07EFB20462BF053F904F578
:103DF000B2702BF04FF904F5BE7804F5B6702AF0D6
:103E0000B3FA40462BF046F9294604F5C2702AF071
:103E1000EDFA94F88E2142F0800284F88E211D4A3A
:103E20002946C2F8048104F5CA7014223EF02BFD25
:103E30004FF6FF7384F89431322384F89531294684
:103E4000142284F8A25184F8A37104F5D4703EF0D2
:103E50001AFD33234FF0FF3220460F4984F8A82182
:103E600084F8A93184F8B65184F8B7712FF08CFA30
:103E70002046BDE8F88F00BF0000000000000000F1
:103E8000654C03003143030021500300013303005C
:103E9000E64A0020D8460020A4B10400000000003B
:103EA0009FED177B034680ED007B80ED027B09BB15
:103EB0009FED157B83ED047B9FED157B83ED067BEA
:103EC0009FED157B83ED087B9FED157B83ED0A7BD2
:103ED0009FED157B83ED0C7B9FED157B83ED0E7BBA
:103EE0009FED157B83ED107B9FED157B084683EDE1
:103EF000127B70476FF07400704700BFAFF3008013
:103F0000000000000000000008C9BCF367E6096A71
:103F10003BA7CA8485AE67BB2BF894FE72F36E3C58
:103F2000F1361D5F3AF54FA5D182E6AD7F520E51B5
:103F30001F6C3E2B8C68059B6BBD41FBABD9831F6F
:103F400079217E1319CDE05B00B587B0074A0223C3
:103F5000CDE904324FF486510548002304AA05F048
:103F6000C7FB07B05DF804EB00F0B0BBA835040058
:103F7000983204002DE9F0438BB000AF294D28465C
:103F80001DF096F940B30026D5F80890FE604FF07A
:103F9000020844F6206387F80C80C7E901363E60CA
:103FA000D9F80830204C394628469847B04220605E
:103FB00036DBD9F80030414628469847002823DBF5
:103FC000AE68184D2168F3682846984700214FF4E1
:103FD000203020F051FBF5E76E4688B02C68034690
:103FE0006946124A4A610A4611488C614FF0020C38
:103FF00081F81CC042F8100F0E480B4C4FF4D25100
:1040000005F076FBB546DBE70B4BC7E908830948AB
:10401000334607F120024FF4825105F069FBCFE7E8
:10402000064BF2E7702F040000510020D035040049
:1040300003000001B832040000360400E835040033
:104040002DE9F04F4C4B93B0002600AFC7E90E6648
:10405000C7E91066C7E90C36484C4949494DDFF8B5
:104060003C81DFF83CB1DFF83C9107F134020220DB
:1040700008F024FA2670444E2B7863B92378002B7D
:104080005FD04FF0FF334FF0FF3230461EF0FAF9A9
:104090002B78002BF2D0182207F13001381D06F0E2
:1040A000B7FE0028EA4652DB384BFB620223BB62B4
:1040B000002307F128024FF48651484605F018FB0B
:1040C00042464FF47A61381D06F002FF00284EDBAD
:1040D00021F05AF84A0143011B1A42EAD06262EB0E
:1040E0000102920042EA93729B00181841EB020110
:1040F000C90041EA5071C0F3103040EA41408AB033
:10410000C90B0123CBF80000CBF804102370D8E9C9
:104110000010D8F808306A4613621D4B536105231E
:10412000C2E9060142F8103F00234FF423514846EC
:1041300005F0DEFAD546381D06F0B0FF2378002BD7
:104140009FD100214FF4A02020F096FA94E788B088
:104150006A46104B90615361032342F8103F0023DD
:104160004FF4C251484605F0C3FAD546E3E788B09C
:104170006A46094B9061EEE70200007B1979002046
:104180001836040016790020EC0300206436040081
:104190009C3604004036040084360400F01A0020E7
:1041A000E81A0020B832040010B510460C4611B1D0
:1041B000012907D010BD00F0D5FC2046BDE8104015
:1041C00000F07ABC00F078FCBDE81040002000F060
:1041D000C9BC00BFF8B513881A4C023394460E468A
:1041E000DAB200AF21460023CD7E95B9C3EBC303FD
:1041F00004EB8305012361466860EB7605F1090055
:104200002E723EF005FB104829461EF03DF8BD46D3
:10421000F8BD0133082B01F11C01E5D16C4688B0D3
:104220006B460A481A460321C3E9050642F8101FE7
:10423000074800234FF4C25105F05AFAA546BD467F
:10424000F8BD00BF0C5100202C520020D8360400CD
:10425000B832040038B5094C237803B938BD0AF0E8
:10426000E9FF05460BF022F80021286822F0DCFF68
:1042700028460BF023F80023237038BD1479002062
:10428000084B1B7823B110B5074C23780BB110BD38
:1042900070470AF0CFFF0AF0BDFE0028F7D10123D6
:1042A000237010BD167900201479002038B50D4D0B
:1042B0002B7803B938BD0AF0BDFF04460AF0F6FFBB
:1042C0002068002122F0B0FF08B9074B1870206861
:1042D000002122F0B1FE00B928702046BDE8384028
:1042E0000AF0ECBF177900201479002038B50C4D86
:1042F0002B7803B138BD0AF09DFF04460AF0D6FFC3
:104300002068012122F098FE08B901232B70206853
:10431000042119F04DFD2046BDE838400AF0CEBF1B
:104320001779002010B5104B044693E8030088B0BD
:1043300005220090ADF80410204669463EF058FA78
:1043400008B108B010BD044608481EF051F8084AEC
:104350000223CDE906320748234606AA4FF48651C8
:1043600005F0C6F908B010BD30370400EC0300209A
:1043700010370400B8320400704700BF052800D091
:1043800070470846FFF7CEBF2DE9F04F89B0DFF840
:104390001493A24E00AF4FF000080DE0A04BFB615C
:1043A0000223BB61002307F118024FF48451304609
:1043B00005F09EF984F81B804FF0FF3348464FF01C
:1043C000FF321DF079FF037A456804464BB1012B9B
:1043D000E4D1B0F8090004F10B01C0B2FFF7CEFF41
:1043E000E8E7C37A00F10B0B032B00F25D81DFE8F5
:1043F00003F0565452028B4BFB610223BB61002336
:1044000007F118024FF48651304605F071F9EA467B
:1044100088B0B4F80D306A469361834B536103232F
:1044200042F8103F00234FF4C651304605F060F9C2
:10443000E37A012BD54678D9237B002B7ED1EA463F
:1044400088B0D4F80F306A469361784B53610323E8
:1044500042F8103F00234FF4C651304605F048F9AA
:10446000E37AD546002B3FD0032B37D1704A7148F1
:10447000012313701EF014FC237D002B30D0E37A4F
:10448000032B2DD1E37C042B00F2BA80DFE803F08C
:104490002422201E0900684BAEE7684BACE7684B4E
:1044A000AAE7684BFB610223BB615C48002307F16C
:1044B00018024FF4865105F01BF9237D052B00F2FD
:1044C0009280DFE803F08E8C8A8886765E4BE9E77F
:1044D0005E4BE7E75E4BE5E75E4BE3E7012B26D05B
:1044E0005846FFF749FF65E75B4B93F800A0BAF128
:1044F000000FF5D1AB6859491B6C28469847002836
:104500002CD1AA687860526C5549284690477B6840
:10451000002842D1534B50491B7801220A70002BCE
:10452000AAD051481EF0BCFBA6E7002BDCD04F48B8
:104530001EF0B6FB3E4B83F800809DE7012B27D091
:10454000022B18D1BB614A4BFB61002307F1180213
:104550004FF48651304605F0CBF870E7454BFB61D0
:104560000223BB614FF48251534607F118023046D3
:1045700005F0BEF81EE7404BFB610223BB61002340
:1045800007F118024FF48451304605F0B1F856E7B0
:104590003A4BFB610223BB61D7E7394AFA61022239
:1045A000BA614FF4825107F11802304605F0A0F8C5
:1045B00000E7344BFB610223BB611848002307F17D
:1045C00018024FF4865105F093F85846FFF7D4FED1
:1045D000F0E62D4BEEE72D4BECE72D4BEAE72D4BAC
:1045E000E8E72D4BE6E72D4BFB610223BB610B484F
:1045F000002307F118024FF4845105F079F86FE7B2
:10460000274BFB610223BB610448002307F118021A
:104610004FF4845105F06CF84FE700BFB832040046
:10462000BC39040038370400AC370400F437040008
:1046300016790020FC510020503704006837040030
:1046400084370400483804006838040088380400BF
:10465000A8380400C83804001879002000000020A1
:1046600004510020157900201C520020EC5100203C
:10467000BC37040008380400E0370400CC370400DD
:104680002438040030390400F838040014390400D8
:104690004C3904006839040084390400A03904004E
:1046A000E03804002C520020064BFB610223BB6162
:1046B0000548002307F118024FF4845105F018F85B
:1046C000A5E600BF98370400B83204002DE9F04792
:1046D00090B008AF58481CF0A7FD00220023C7E99E
:1046E0000023054600F0D4F9002840F098804FF0F0
:1046F000805207F10806D2F8A830D2F8A4209BB265
:10470000C7E9022396E80300B9806C467A683860EE
:1047100088B0A26122464949E0614FF0040A616114
:1047200042F810AF464800234FF4035104F0E0FF75
:10473000444A454BA54600241470444A5C801470DA
:10474000434A9C801470434A147040F201121A804C
:1047500041481DF04BFD4FF000084FF000090323C6
:104760000393CDE90689CDE901443C4B3C490494CF
:1047700000944FF400723B481DF08AF93A493948D9
:104780001DF070F9394B3A490094CDE90689CDE91D
:1047900003A4CDE901444FF4806236481DF078F956
:1047A000354934481DF05EF90522CDE90324CDE9F1
:1047B0000689CDE90144314B314900944FF48072B0
:1047C00030481DF065F930492E481DF04BF92F494E
:1047D0002F481EF077F92F492F481EF073F92F4903
:1047E0002F481EF06FF92F492F481EF06BF9AB6868
:1047F0002E495B6AB9603246072128469847AB6864
:104800002B4A5B6ABA600821324628469847294BF2
:104810000122204620371A70BD46BDE8F087264A9F
:104820000223C7E906320648002307F118024FF4B5
:10483000845104F05DFF5AE7D4390400003A0400C3
:10484000B8320400187900200451002017790020A4
:1048500016790020147900202C5200208943000092
:10486000807F0020E81B0020103A04004140000037
:10487000007B0020001B0020243A0400753F00004C
:1048800080790020001A0020343A0400ED42000034
:104890001C520020AD4200000C520020814200005A
:1048A000FC51002055420000EC510020D541000091
:1048B000A941000015790020E43904002DE9F04FEA
:1048C00012F0FC6FD0E90169D0F8108081B0054684
:1048D00014460F4651D104F03003302B60D004F061
:1048E0000213022B6FD004F00603042B7ED014F4C5
:1048F000402A29D0A10304F4801B40F19480BAF52A
:10490000402F0ED15349544A544840F2CE2303F06D
:10491000B3FF534803F0B0FF4F4840F2CE2103F0FD
:10492000A3FFBBF1000F0FD0E207336800F18F80C7
:104930000126BE4024F4801A13EA060463D0D8F896
:10494000003023EA06030DE033680126BE401E4214
:1049500024F4801A04F0010455D0D8F80030002C5B
:10496000EFD03343C8F80030D9F80030524639460A
:10497000284601B0BDE8F04F18474FF42F7339496E
:10498000354A364803F078FF374803F075FF324860
:104990004FF42F7103F068FF04F03003302B9ED1E9
:1049A00040F2BF2331492C4A2C4803F065FF3048C0
:1049B00003F062FF284840F2BF2103F055FF04F0E6
:1049C0000213022B8FD140F2C3232A49224A2348E3
:1049D00003F052FF284803F04FFF1F4840F2C32165
:1049E00003F042FF04F00603042B80D123491B4847
:1049F000194A40F2C72303F03FFF174840F2C7218E
:104A000003F032FF73E71E49134A144840F2DA23D9
:104A100003F032FF1B4803F02FFF0F4840F2DA216A
:104A200003F022FF99E718490B4A0C4840F2CA23C9
:104A300003F022FF154803F01FFF074840F2CA2188
:104A400003F012FFBAF5402F3FF45CAF69E784F43E
:104A500040247AE7E83C0400503A0400E43A0400B9
:104A60002C3D0400843A0400043B0400283B04006D
:104A7000643B0400A43B0400DC3B0400303C040025
:104A8000583D0400983D0400643C0400AC3C040024
:104A900008B5074A07480E21FFF710FF002806DB7C
:104AA000034A0448BDE808401E21FFF707BF08BDC0
:104AB00001001600542F04002DE9F041244E336903
:104AC00075681F462B685A04044616D53B685B047C
:104AD00010D43CB1B3681E48DB68BDE8F0414FF428
:104AE00080411847B3681A481B69BDE8F0414FF48C
:104AF0008041184780F00104EBE740F22553154A46
:104B00001549164803F0B8FE154803F0B5FE1148E4
:104B100040F2255103F0A8FE3B6813F4804F2B6848
:104B200003F4804318BF84F00104002BD1D1094A5B
:104B300009490A4840F2FC4303F09EFE084803F08E
:104B40009BFE044840F2FC4103F08EFEC1E700BF2B
:104B5000542F0400503A0400583D0400E43A040085
:104B6000983D04002DE9F041244E336975681F46D5
:104B70002B685A00044616D53B685B0010D43CB144
:104B8000B3681E48DB68BDE8F0414FF0804118472C
:104B9000B3681A481B69BDE8F0414FF080411847DF
:104BA00080F00104EBE740F22553154A15491648F9
:104BB00003F062FE154803F05FFE114840F22551F4
:104BC00003F052FE3B6813F0804F2B6803F08043E4
:104BD00018BF84F00104002BD1D1094A09490A48C1
:104BE00040F2FC4303F048FE084803F045FE044849
:104BF00040F2FC4103F038FEC1E700BF542F04002F
:104C0000503A0400583D0400E43A0400983D040082
:104C1000B0B5204A204B136000AFD3E901211268E0
:104C20001C69D3010D460BD523682D681A4823F063
:104C30008073236000221821A84788B9BD46B0BD03
:104C40001649174A174840F2DA2303F015FE1648B2
:104C500003F012FE124840F2DA2103F005FEE3E70A
:104C60006C4688B06B46114D114812491A464FF0F8
:104C7000020CC3E9055083F81CC042F8101F0E480F
:104C800000234FF4D25104F033FD6FF01500A54618
:104C9000D4E700BF4C520020542F0400583D0400BC
:104CA000503A0400E43A0400983D0400AC3D04008E
:104CB000CC3D040003000001A832040000F0B8BAA3
:104CC00000F064BC2DE9F0414A4D2C68D4E901376D
:104CD0001B682669DB015AD533683F68464A23F0D2
:104CE0008073336020461821B8472C6863682669B2
:104CF0001B68DF011ED53368DB0141D4A3684FF088
:104D000080711B6920469847642000F0E7FE2C68FC
:104D1000D4E901361B682569DA0148D52B68366865
:104D200023F080732B60204633460022BDE8F0411B
:104D30001821184740F22553304A3149314803F0D1
:104D40009BFD314803F098FD2C4840F2255103F0BB
:104D50008BFD336813F0807F63681B6837D0D901FF
:104D60000ED42749254A274840F2FC4303F084FD2E
:104D7000254803F081FD214840F2FC4103F074FD19
:104D8000A3684FF08071DB6820469847BCE71C4958
:104D90001A4A1C4840F2DA2303F06EFD1A4803F069
:104DA0006BFD164840F2DA2103F05EFD94E7134AEA
:104DB0001349144840F2DA2303F05EFD124803F071
:104DC0005BFD0E4840F2DA2103F04EFDA6E7D80164
:104DD00094D40A4A0A490B4840F2FC4303F04CFDC4
:104DE000094803F049FD054840F2FC4103F03CFD51
:104DF00084E700BF4C52002006000200503A040035
:104E0000583D0400E43A0400983D040000B5A7B002
:104E100000238DF8003000F0FDFA6B46962219460B
:104E2000012000F017FD022000F044FE00F050FBCE
:104E300027B05DF804FB00BF00F0ECBA70B5204D60
:104E40002C68D4E901361B681A0319D5B66900230A
:104E50004FF4001220461321B0472C68D4E90136E4
:104E60001B6825691B031BD52B68366823F40023B8
:104E70002B60204633460022BDE8704013211847BE
:104E8000104A114911484FF41F7303F0F5FC104804
:104E900003F0F2FC0B484FF41F7103F0E5FCD5E77B
:104EA000084A0949094840F2DA2303F0E5FC0848BA
:104EB00003F0E2FC034840F2DA2103F0D5FCD3E72B
:104EC00048520020503A0400583D0400E43A0400DF
:104ED000983D04002DE9F041214D2C68D4E90137BB
:104EE0001B6826691A031AD533683F6823F4002328
:104EF00033604FF4803213212046B8472C68D4E940
:104F000001351B681B031AD5AD692046AC464FF02E
:104F10008063BDE8F0414FF0A07213216047114952
:104F2000114A124840F2DA2303F0A6FC104803F0BD
:104F3000A3FC0D4840F2DA2103F096FCD4E70949BE
:104F4000094A0A484FF41F7303F096FC084803F01F
:104F500093FC05484FF41F7103F086FCD4E700BFB3
:104F600048520020583D0400503A0400E43A04003E
:104F7000983D04002DE9F0412E4E2F4B336082B056
:104F800004460D469A6801925A681F6913681B030C
:104F90001ED5019B2848D3F800803B6823F40023EA
:104FA0003B604FF480321321C0470CB3002D30D04A
:104FB000306883686560DB694FF40022A26013B13A
:104FC00001222146984702B0BDE8F041FFF736BF05
:104FD0001A491B4A1B4840F2DA2303F04DFC1A48D9
:104FE00003F04AFC164840F2DA2103F03DFCD0E71A
:104FF0001649134A134840F26D5303F03DFC144820
:1050000003F03AFC0E4840F26D5103F02DFC002DE8
:10501000CED10B4A0F490B4840F26E5303F02CFCE3
:105020000D4803F029FC064840F26E5103F01CFCC9
:10503000BEE700BF48520020542F0400583D040032
:10504000503A0400E43A0400983D0400E03D0400B6
:10505000EC3D040070610400143E04002DE9F04FA3
:1050600012F0FC6FD0E90169D0F8108081B00546DC
:1050700014460F4651D104F03003302B60D004F0B9
:105080000213022B6FD004F00603042B7ED014F41D
:10509000402A29D0A10304F4801B40F19480BAF582
:1050A000402F0ED15349544A544840F2CE2303F0C6
:1050B000E3FB534803F0E0FB4F4840F2CE2103F0FE
:1050C000D3FBBBF1000F0FD0E207336800F18F80F4
:1050D0000126BE4024F4801A13EA060463D0D8F8EF
:1050E000003023EA06030DE033680126BE401E426D
:1050F00024F4801A04F0010455D0D8F80030002CB4
:10510000EFD03343C8F80030D9F800305246394662
:10511000284601B0BDE8F04F18474FF42F733949C6
:10512000354A364803F0A8FB374803F0A5FB324860
:105130004FF42F7103F098FB04F03003302B9ED115
:1051400040F2BF2331492C4A2C4803F095FB3048EC
:1051500003F092FB284840F2BF2103F085FB04F0E6
:105160000213022B8FD140F2C3232A49224A23483B
:1051700003F082FB284803F07FFB1F4840F2C32165
:1051800003F072FB04F00603042B80D123491B4873
:10519000194A40F2C72303F06FFB174840F2C721BA
:1051A00003F062FB73E71E49134A144840F2DA2306
:1051B00003F062FB1B4803F05FFB0F4840F2DA216B
:1051C00003F052FB99E718490B4A0C4840F2CA23F6
:1051D00003F052FB154803F04FFB074840F2CA2189
:1051E00003F042FBBAF5402F3FF45CAF69E784F46B
:1051F00040247AE7E83C0400503A0400E43A040012
:105200002C3D0400843A0400043B0400283B0400C5
:10521000643B0400A43B0400DC3B0400303C04007D
:10522000583D0400983D0400643C0400AC3C04007C
:10523000644B1B78002B40F0C1802DE9F043624C99
:1052400089B0237800AF002B73D0604E3378002BE9
:1052500040F0A7805E4BDFF8A0811B68D8F80040C3
:105260005D685C4BDFF8A891C3F8008005F1080E7B
:10527000BEE80F0007F1080CACE80F004C45DEF863
:105280000030CCF8003069D9534B9C426CD9534B59
:105290009C4266D9524B9C4269D9524B9C4269D977
:1052A000514B9C422CBF4FF000444FF08044B8F863
:1052B00004203C61930702F004004BD5002814BF82
:1052C000032002200023C2F3001240F201113875BE
:1052D000FF20A7F817107A75F8721A4607F108012F
:1052E00028461AF00DFD414B984246D1404A4148AC
:1052F0001121FFF7B3FE2C6A3A1D0021204610F061
:105300005BFD002805DB7B6822681979186810F0BE
:10531000C3FD286840F3073008F0B4F92A68042177
:105320000123C2F80813337000202437BD46BDE8BE
:10533000F083314B2649314D31481D604FF4807266
:105340009A801A82284ADA60086008F093F80123EC
:1053500023707AE7003818BF0120B3E74FF00074DC
:10536000A5E74FF00064A2E74FF080649FE74FF09D
:1053700080549CE74FF0005499E76C4688B06B4628
:10538000204D1A460321C3E9055042F8101F1E485C
:1053900000234FF4C25104F0ABF9A5466FF00400AE
:1053A000C3E71A4A0223C7E906321748002307F168
:1053B00018024FF4825104F09BF9EFE76FF00400FC
:1053C000704700BF1A7900201C7900201B7900204B
:1053D0006C520020685200201FA107003F420F00BE
:1053E0007F841E00FF083D0000127A000000AD0B14
:1053F00001001600542F04005052002080841E002B
:10540000C42F0400703E0400B0320400583E040073
:105410008FD0030010B5224A224B12681B785068C7
:1054200086B00BB32049214A0B6893421AD0136807
:105430001F4C0A60A342026822D91E498B4222D91E
:105440001D498B4222D91D498B4222D91C498B42CE
:1054500022D91C498B422CBF4FF000434FF08043B0
:10546000C2F8243506B010BD17490222CDE9042147
:10547000164804AA4FF4825104F03AF906B010BD60
:105480004FF00073ECE74FF08063E9E74FF0006303
:10549000E6E74FF08053E3E74FF00053E0E700BF4B
:1054A0006C5200201B7900206852002050520020CE
:1054B0008FD003001FA107003F420F007F841E0012
:1054C000FF083D0000127A00583E0400B03204008C
:1054D00010B5224A224B12681B78506886B00BB375
:1054E0002049214A0B6893421AD013681F4C0A6066
:1054F000A342026822D91E498B4222D91D498B4200
:1055000022D91D498B4222D91C498B4222D91C49E0
:105510008B422CBF4FF000434FF08043C2F824353C
:1055200006B010BD17490222CDE90421164804AA8D
:105530004FF4825104F0DCF806B010BD4FF0007358
:10554000ECE74FF08063E9E74FF00063E6E74FF0E8
:105550008053E3E74FF00053E0E700BF6C520020B8
:105560001B790020685200205C5200208FD003007D
:105570001FA107003F420F007F841E00FF083D006F
:1055800000127A00583E0400B0320400154B1B781C
:105590002BBB30B5144C237883B013B9002003B073
:1055A00030BD124B1B685D6828461AF04BFE104850
:1055B00001221121FFF752FD2D6A01AA012128467F
:1055C00010F0FAFB002805DB019B2A68197918689E
:1055D00010F062FC00230020237003B030BD6FF098
:1055E000040070471A7900201B7900206C520020BB
:1055F000542F04002DE9F04F8A4C89B0246800AF85
:10560000D4F804B09A4672B6874B1B78002B00F092
:10561000F980DFF83C8298F80030002B40F0F280EF
:10562000012305460E46914688F8003062B67F4C4D
:1056300063683B601B6822697A60980343D57B6886
:105640001B689B0366D4A3687848DB684FF400317D
:105650009847C7E902650025C7E904552A4607F1BE
:10566000080158461AF026FF714B9842064658D05A
:10567000E94688B06B461A46986103216D48586127
:1056800042F8101F6C484FF4C2512B4604F030F81A
:10569000CD466FF00405666823697B6033689B0321
:1056A0005DD57B681B689A037FD5A3685F48DB687C
:1056B0004FF400319847002388F8003028462437FB
:1056C000BD46BDE8F08F40F225535C4A5C495D4819
:1056D00003F0D2F85C4803F0CFF8584840F2255167
:1056E00003F0C2F87B681B6813F4003F3B681B683B
:1056F00062D09A030ED45249504A524840F2FC43B9
:1057000003F0BAF8504803F0B7F84C4840F2FC41B7
:1057100003F0AAF8A36845481B694FF40031984785
:1057200097E7C7E902A9C7E9045507F108015846F8
:105730002A461AF0BFFEB042ADD06E4688B06B4626
:105740001A46986103213B48586142F8101F3A48B5
:105750004FF4C2512B4603F0CBFFB54699E740F218
:105760002553364A3649374803F086F8364803F061
:1057700083F8324840F2255103F076F87B681B68C5
:1057800013F4003F33682AD199030ED42C492B4AD5
:105790002C4840F2FC4303F06FF82B4803F06CF800
:1057A000264840F2FC4103F05FF8A3681F481B69DC
:1057B0004FF4003198477EE799033FF544AF1F4A05
:1057C0001F49204840F2FC4303F056F81E4803F0FE
:1057D00053F81A4840F2FC4103F046F833E79803C7
:1057E0003FF563AF154A1649164840F2FC4303F0F3
:1057F00043F8154803F040F8104840F2FC4103F02C
:1058000033F852E7114A0223C7E906320A48002357
:1058100007F118024FF4825103F06AFF62B66FF08D
:1058200004054BE76C5200201B790020542F040024
:105830000000AD0B983E0400B0320400503A040062
:10584000583D0400E43A0400983D0400583E04002A
:105850001A7900202DE9F04F8A4C89B0246800AFF6
:10586000D4F804B09A4672B6874B1B78002B00F030
:10587000F980DFF83C8298F80030002B40F0F2808D
:10588000012305460E46914688F8003062B67F4CEB
:1058900063683B601B6822697A60980343D57B6824
:1058A0001B689B0366D4A3687848DB684FF400311B
:1058B0009847C7E902650025C7E904552A4607F15C
:1058C000080158461AF0F6FD714B9842064658D02A
:1058D000E94688B06B461A46986103216D485861C5
:1058E00042F8101F6C484FF4C2512B4603F000FFE2
:1058F000CD466FF00405666823697B6033689B03BF
:105900005DD57B681B689A037FD5A3685F48DB6819
:105910004FF400319847002388F800302846243798
:10592000BD46BDE8F08F40F225535C4A5C495D48B6
:1059300002F0A2FF5C4802F09FFF584840F2255158
:1059400002F092FF7B681B6813F4003F3B681B6802
:1059500062D09A030ED45249504A524840F2FC4356
:1059600002F08AFF504802F087FF4C4840F2FC41A9
:1059700002F07AFFA36845481B694FF4003198474D
:1059800097E7C7E904A9C7E9025507F10801584696
:105990002A461AF08FFDB042ADD06E4688B06B46F5
:1059A0001A46986103213B48586142F8101F3A4853
:1059B0004FF4C2512B4603F09BFEB54699E740F2E7
:1059C0002553364A3649374802F056FF364802F02A
:1059D00053FF324840F2255102F046FF7B681B68B6
:1059E00013F4003F33682AD199030ED42C492B4A73
:1059F0002C4840F2FC4302F03FFF2B4802F03CFFF2
:105A0000264840F2FC4102F02FFFA3681F481B69A3
:105A10004FF4003198477EE799033FF544AF1F4AA2
:105A20001F49204840F2FC4302F026FF1E4802F0C6
:105A300023FF1A4840F2FC4102F016FF33E79803B7
:105A40003FF563AF154A1649164840F2FC4302F091
:105A500013FF154802F010FF104840F2FC4102F01D
:105A600003FF52E7114A0223C7E906320A4800231E
:105A700007F118024FF4825103F03AFE62B66FF05C
:105A800004054BE76C5200201B790020542F0400C2
:105A90000000AD0B983E0400B0320400503A040000
:105AA000583D0400E43A0400983D0400583E0400C8
:105AB0001A79002008B54FF4004220EAE073002173
:105AC00040F2E730C3FB02014FF47A720023FBF788
:105AD0005BF8BDE808401EF0CFBD00BF1FF056BB0D
