:1000000080BA00203D430000713D00001143000014
:1000100011430000114300001143000000000000E4
:10002000000000000000000000000000B13E0000E1
:100030001143000000000000213E000011430000B9
:1000400035400000354000003540000035400000DC
:1000500035400000354000003540000035400000CC
:1000600035400000354000003540000035400000BC
:1000700035400000354000003540000035400000AC
:10008000354000003540000035400000354000009C
:10009000354000003540000035400000354000008C
:1000A000354000003540000035400000354000007C
:1000B000354000003540000035400000354000006C
:1000C000354000003540000035400000354000005C
:1000D000354000003540000035400000354000004C
:1000E000354000003540000035400000354000003C
:1000F000354000003540000035400000354000002C
:1001000001F0FF01102A2BDB10F0070F08D010F8C8
:10011000013B013A8B422DD010F0070F42B3F6D1CC
:10012000F0B441EA012141EA014122F007047FF0E5
:1001300000070023F0E80256083C85EA010586EA3C
:10014000010685FA47F5A3FA87F586FA47F6A5FA78
:1001500087F68EB9EED1F0BC01F0FF0102F0070284
:1001600032B110F8013B013A83EA010313B1F8D12F
:100170000020704701387047002D06BF3546033810
:10018000073815F0010F07D1013015F4807F02BF49
:10019000013015F4C03F0130F0BC0138704700BF9A
:1001A00053B94AB9002908BF00281CBF4FF0FF31DE
:1001B0004FF0FF3000F00CB8ADF1080C6DE904CE43
:1001C00000F008F8DDF804E0DDE9022304B0704730
:1001D000704700BF2DE9F04786468C460846089ECA
:1001E000154674461946002B40F0C2808542B2FA8B
:1001F00082F245D94AB1C2F1200300FA02FC2EFA7C
:1002000003F3954043EA0C0C94404FEA154EA8B214
:10021000BCFBFEF8230C0EFB18CC08FB00F943EAEC
:100220000C43994528D9EB1808F1FF3704D29945BA
:1002300002D9A8F102072B44A3EB0903A4B2B3FB34
:10024000FEFC0EFB1C330CFB00F044EA0344A0420E
:1002500014D92C190CF1FF3304D2A04202D9ACF10D
:1002600002032C44241A43EA07401EB1D440002361
:1002700034607360BDE8F0874746DDE76346F1E729
:1002800092BB431B01214FEA154EAFB2B3FBFEFCFC
:10029000200C0EFB1C330CFB07F840EA0343984587
:1002A00062D9EB180CF1FF3004D2984502D9ACF1B9
:1002B00002002B44A3EB0803A4B2B3FBFEFC0EFB2D
:1002C0001C330CFB07F744EA0344A7424ED92C1910
:1002D0000CF1FF3304D2A74202D9ACF102032C4443
:1002E000E41B43EA0040C0E7C2F1200320FA03F117
:1002F000954090402EFA03F303434FEA154EAFB2F8
:10030000B1FBFEFC0EFB1C10190C0CFB07F841EABC
:100310000041884504FA02F422D969180CF1FF3033
:1003200004D2884502D9ACF102002944A1EB0801AE
:100330009BB2B1FBFEFC0EFB1C110CFB07F743EA62
:1003400001439F420ED9EB180CF1FF3104D29F42BA
:1003500002D9ACF102012B44DB1B41EA004192E7D8
:100360006046E3E76146F7E76046A3E76346B7E721
:10037000834206D916B9002108467BE7C6E900E0AA
:10038000F9E7B3FA83F78FB9834201D3724508D8EE
:10039000BEEB020460EB030301209C461EB9002162
:1003A00068E73846FAE7C6E9004CF8E7C7F1200CE1
:1003B000BB4022FA0CF41C432EFA0CF120FA0CF389
:1003C000B84001434FEA14490EFA07F5B3FBF9F8B8
:1003D0001FFA84FE09FB18300B0C08FB0EFA43EAE7
:1003E00000439A4502FA07F240D9E31808F1FF30BA
:1003F00004D29A4502D9A8F102002344A3EB0A03D0
:1004000089B2B3FBF9F809FB183308FB0EFE41EA89
:1004100003418E452CD9611808F1FF3304D28E4573
:1004200002D9A8F10203214443EA0040A0FB02984C
:10043000A1EB0E014145CE46434602D306D14D45C0
:1004400004D2B9EB020E68EB04030138002EA6D0EB
:10045000B5EB0E0261EB030101FA0CFC22FA07F383
:100460004CEA0303F940C6E9003198E74046C5E786
:100470004346D9E710F8012B11F8013B012A28BFA8
:100480009A42F7D0D01A7047034613F8012B002A7E
:10049000FBD1181A013870472DE9F047054686B0A0
:1004A0009946002428230F46CDE90243904606F0E2
:1004B000B5FA02A9284606F0C9FC002800F0D08051
:1004C00083793A2B064666D0112B61D0062B5CD07F
:1004D000AC68002C00F0B5804FF0000CA3892468B4
:1004E0009C44002CFAD195F82430A8699FED5E7BDE
:1004F000022202FB03CC8DED007B0CF104013A23B8
:1005000006F050FA0446002800F0A78095F8242051
:10051000296A06F07DFCB0F1000A2FDBA3689B6816
:10052000A36295F82C20A96A204606F071FCB0F170
:10053000000A23DBA06895F82C10083004F050FC6A
:10054000A06850F8083F236295F8241004F048FC96
:1005500095F82C3084F8243095F8243084F82C3029
:10056000337EFF2B06F1180163D006F10802204606
:1005700006F0CAFD064620B36FF0040A204606F0D6
:1005800051F8504606B0BDE8F0874FF03C0CAAE7A2
:100590004FF0300CA7E703990494042328460593F1
:1005A00006F042FA04A9284606F050FC002845D07F
:1005B00090F90130A34241DA284606F02FFAB379C8
:1005C00082E704904FF0040A04A92046CDF814A055
:1005D00006F03CFC0028CFD080F8018007708670C0
:1005E000C67004A9204606F057FC0028C4D1042F89
:1005F00029D052460146204606F022FA824620467D
:1006000006F03CF8BAF1000FB8D102462946204660
:1006100006F02CFA0028B1D1204606F0FFF93A2165
:10062000204606F0B1FD204604F05CFD0028A5DB65
:10063000A7E7A06905F020FB014696E76FF0150AD1
:100640009FE7A4464FE799FA89F33A4604A9204662
:10065000049306F0DDFB8246D1E76FF00B0A90E7CA
:100660006FF0040A8DE700BF00800000000000006A
:1006700000B589B09FED0E7B06ABCDE9063302AA2B
:100680008023CDE9022200930B4A02AB8DED047B5F
:1006900007F0F6F9002805DB4FF48042002302A89A
:1006A00012F0EAFD09B05DF804FB00BFAFF3008073
:1006B0000000000001000000297C00000000000094
:1006C000474BD3F80423900702D5D3F804218AB905
:1006D0004FF02003EFF3118283F31288BFF36F8F83
:1006E0003F4BD3F80413C9030ED482F31188BFF330
:1006F0006F8F70473B4A0021C3F80411D3F80431CF
:10070000136801331360E3E7F0B53749BFF35B8F3C
:1007100083B051E8000F20F0010441E80045002DAE
:10072000F7D1BFF35B8F40B9D3F840312BB982F3D7
:100730001188BFF36F8F03B0F0BD29480023C0F8C4
:100740004031D0F8403182F31188BFF36F8F254BD1
:100750001B68190A1B06BFF35F8FD0F80425D31856
:1007600041F10001B2F5801F0AD2204AD2E90045CA
:10077000A34271EB050203D213F1807341F1000132
:100780004FF02002EFF3118C82F31288BFF36F8FCA
:10079000174AD2E90245A342A94118D39FED0E7B27
:1007A0000F4E1168536800204FF4803782ED027BB2
:1007B0001060C6F848738CF31188BFF36F8F00295F
:1007C000B9D0009322462B46884703B0F0BD8CF386
:1007D0001188BFF36F8FAEE7FFFFFFFFFFFFFFFF43
:1007E000001001401C3E0020143E0020C01A0020D2
:1007F000A81A0020000000002DE9F0472DED028B23
:100800009FED358BDFF8D880DFF8D8A082B007469F
:1008100000F595694FF0FF334FF0FF32484612F074
:1008200071FC43680446002B44D0257A0235EDB2B2
:10083000802D2ED88DED008B002338681A4629466E
:1008400006F0C4F8064680B361682A46103106F007
:10085000DFFA0546D8B9237C86F84230A17C96F8A9
:100860004430627C61F3410386F84430386886F88E
:100870004320314604F0C8FC0028606826DA0CF0FA
:10088000C1FD00236360304605F0CCFEC2E760681E
:10089000F5E74146504640F2163202F06DFD40F257
:1008A0001631404602F060FDC4E760680CF0AAFD16
:1008B0006660AFE74146504640F2073202F05CFD09
:1008C00040F20731404602F04FFDAEE70CF09AFDD2
:1008D00065609FE7AFF300800000000000000000AB
:1008E0009CEF0100C4E70100F0B5454A046992E8B5
:1008F000030085B01A7B9B68029004F58055ADF823
:100900000C1085F87021194604F58C501DF074FA0E
:1009100004F58B5010300CF05DFD00285DD004F51F
:100920008A504FF0FF334FF0FF32183012F0A4FC22
:1009300095F86532052B50D8DFE803F0084A0345E7
:100940004F036FF02204204605B0F0BD95F88031CA
:1009500013F0200346D095F882318DF80B309FEDCF
:10096000267B4DF6F052A5F878229DF80870206895
:1009700002ABC5F86C3200238DED007B1A46394678
:1009800006F010F80646A0B3D5F86C123A460131CD
:1009900006F03EFA002829DB95F8783286F84230D6
:1009A00095F8793286F84330304606F037F82068FB
:1009B00031460DF0BDFD0024304605F033FE002326
:1009C000C5F86C32BFE76FF06804204605B0F0BD93
:1009D0006FF00F04204605B0F0BD6FF00404204610
:1009E00005B0F0BD1C46204605B0F0BD6FF00B040D
:1009F000E2E76FF00B04E2E70000000000000000F7
:100A000050E70100000000000A7B02B97047F0B512
:100A10000B4691F800C049790CF1010C8909ACEB47
:100A2000020C01299BB0864600EB0C0411D0022970
:100A300030D13D4D501C05232880AB7021464E23FC
:100A4000E81C1DF0E7F928461BB0BDE8F0400AF0AD
:100A500053BD9FED337B8DED007B8DED027B4FF021
:100A600080501EF80C60D0F8A810D0F8A400B4F89C
:100A70000570049089B20090D4F80100ADF80C70B4
:100A800004AD0591ADF8041002902EB1022E01D1F3
:100A9000112A1DD01BB0F0BD4B2AFBD12146DC79B9
:100AA0009879DB7A8DF8153004F0030340EA0320CF
:100AB0004F23ADF81300ADF810300DF116000223EE
:100AC0008DF812301DF098F928460AF015FDE1E77F
:100AD0005EF80C20CDF816206268CDF81A20227C32
:100AE0008DF82620DA79A668E168DC7A9B79CDF862
:100AF000221002F0030243EA0223152104222846B1
:100B0000CDF81E60ADF813308DF81540ADF810101B
:100B10008DF812200AF0F0FCBCE700BFAFF30080B4
:100B20000000000000000000C8430020000000009A
:100B300010B58C1882B014F05BFE43014A011B1AF9
:100B400042EAD06262EB0102920042EA93729B0099
:100B50001B1841EB0200C00040EA5370C3F310338E
:100B600043EA4043E41A002C16DD4FF4004340F200
:100B7000E7300021E4FB03014FF47A720023FFF712
:100B80000FFB9FED097B02460B4609488DED007B6C
:100B900014F01CFF02B010BD064B01221A7002B007
:100BA000BDE8104004F0CEB90000000000000000D5
:100BB00068030020768200202DE9F04385B00446CA
:100BC0000F9E0F2E0D4691461F463FD006F1100393
:100BD0001E2B3ED89FED267B109B237309F107093E
:100BE00004F158034FF0000829F00709C4E916334F
:100BF000042205F1400384ED067BA6736273AA21EB
:100C00004A461846C4F8088084F80F801DF02FF972
:100C10000E9BC4E91A0909F1400602930D9B01934A
:100C20002E440C9B009329463B46C4F87080324604
:100C3000204603F04DF9104BC4F854809B6803B173
:100C40005B6F6367304605B0BDE8F0830B4B9F4296
:100C5000C0D00B490B484FF4067202F08DFB0848D8
:100C60004FF4067102F080FBB4E700BFAFF30080E1
:100C70000000000000000000D87500205D2C01007D
:100C80000CF60100C4E701002DE9F84F2DED028BB1
:100C9000054613F0B1FA4FF02003EFF3118B83F305
:100CA0001288BFF36F8F564811F0ACFF5F460028E3
:100CB00000F08480DFF854915148DFF854A1DFF848
:100CC000548111F0BBFFD9F80040CAF800504C45E0
:100CD0003CD09FED498BD8E9002120464FEAE57CC6
:100CE000002C69D0D4E90463B5427CEB030E79DBB8
:100CF000B21841EBE67184ED048BC8E9002114F0D1
:100D000055FB3F4811F08CFF00284BD087F311882A
:100D1000BFF36F8FA368204698474FF02003EFF38F
:100D2000118783F31288BFF36F8F354811F06AFF84
:100D3000BB4668B3324811F081FFDAF80050D9F8A9
:100D40000040AD1B4C45CAF80050C4D14FEAE57CC9
:100D5000D8F800205219C8F80020D8F804204FF025
:100D6000000442EB0C02C8F80420CAF8004014F05A
:100D700039FB214609F0E4F8214811F051FF38B35E
:100D80008BF31188BFF36F8FBDEC028BBDE8F88F3A
:100D90001C481D498E2202F0EFFA1B488E2102F0FA
:100DA000E3FAC7E718491748B92202F0E5FA1648EE
:100DB000B92102F0D9FAA9E7BB46C9E7124911489F
:100DC0008E2202F0D9FA10488E2102F0CDFA71E796
:100DD0000D490C48B92202F0CFFA0B48B92102F0B4
:100DE000C3FACDE74C45BB46B2D0761B63EB0C0291
:100DF00026616261ACE700BF000000000000000057
:100E00002C760020C4E7010024E8010050020020F5
:100E100028760020181F0020104621B1012901D199
:100E200000F02EB9704700F0E1B800BF00B585B002
:100E300000F0C8F8064811F09FFA8368054A01924D
:100E40005B6A01AA0821984705B05DF804FB00BF62
:100E500078E70100190E00002DE9F04F12F0FC6F49
:100E6000D0E90169D0F8108081B0054614460F46DC
:100E70004BD104F03003302B56D004F00213022B78
:100E800061D004F00603042B6CD014F4402A23D064
:100E9000A10304F4801B7DD5BAF5402F0AD1474940
:100EA000474840F2CE2202F067FA444840F2CE2191
:100EB00002F05AFABBF1000F0ED0E207336879D482
:100EC0000126BE4024F4801A13EA060456D0D8F84E
:100ED000003023EA06030DE033680126BE401E42BF
:100EE00024F4801A04F0010448D0D8F80030002C13
:100EF000EFD03343C8F80030D9F8003052463946B5
:100F0000284601B0BDE8F04F18472C492C484FF453
:100F10002F7202F031FA29484FF42F7102F024FAAF
:100F200004F03003302BA8D12449254840F2BF22D9
:100F300002F022FA214840F2BF2102F015FA04F033
:100F40000213022B9DD11D491D4840F2C32202F01D
:100F500013FA1A4840F2C32102F006FA04F006031D
:100F6000042B92D11549164840F2C72202F004FA28
:100F7000124840F2C72102F0F7F986E70F491048FE
:100F800040F2DA2202F0F8F90C4840F2DA2102F0DD
:100F9000EBF9AAE709490A4840F2CA2202F0ECF943
:100FA000064840F2CA2102F0DFF9BAF5402F3FF4BB
:100FB00076AF7FE784F440248FE700BF90E701001D
:100FC000C4E7010008B5074A07480D21FFF744FFB1
:100FD000002806DB034A0448BDE808400E21FFF75D
:100FE0003BBF08BD010016009CE401002DE9F04163
:100FF000204E336975681F462B689A04044616D53F
:101000003B689B0410D43CB1B3681A48DB68BDE868
:10101000F0414FF400511847B36816481B69BDE80A
:10102000F0414FF40051184780F00104EBE71249FA
:10103000124840F2255202F09FF90F4840F2255124
:1010400002F092F93B6813F4005F2B6803F400533D
:1010500018BF84F00104002BD5D10749074840F29E
:10106000FC4202F089F9044840F2FC4102F07CF9AC
:10107000C9E700BF9CE4010090E70100C4E701005C
:101080002DE9F041204E336975681F462B685A04DC
:10109000044616D53B685B0410D43CB1B3681A48CB
:1010A000DB68BDE8F0414FF480411847B36816484B
:1010B0001B69BDE8F0414FF48041184780F00104FE
:1010C000EBE71249124840F2255202F055F90F4859
:1010D00040F2255102F048F93B6813F4804F2B6829
:1010E00003F4804318BF84F00104002BD5D10749D5
:1010F000074840F2FC4202F03FF9044840F2FC414C
:1011000002F032F9C9E700BF9CE4010090E701005A
:10111000C4E7010040B1436803F00303022B06D08B
:10112000032B04D0012B05D06FF015007047036826
:10113000002BF9D00023836018467047436803F002
:101140000303022B10B50446816010D0032B16D088
:10115000012B08D00C490D48452202F00DF90A4830
:10116000452102F001F900236360002010BD0068F2
:10117000002363600028F8D014F008FDF5E700684C
:101180000023636010BD00BFDCE70100C4E701007D
:1011900000207047014B1B68184700BF0400002067
:1011A00030B48B680C685D1C64B14A689A4209DDF2
:1011B000013A9A4208BF00238D600CBFA354E0544B
:1011C00030BC70478D6030BC704700BF014B186069
:1011D000704700BF0400002000B583B00B4600211B
:1011E00002460091024800F001FF03B05DF804FBE5
:1011F000951100000FB400B585B006AB002153F87F
:10120000042B05480091039300F0F0FE05B05DF853
:1012100004EB04B0704700BF951100000CB430B56A
:1012200087B00AAB002553F8042B0095CDE90230B6
:10123000CDE90415044603A9064800F0D7FEDDE910
:1012400004309842B8BF255407B0BDE8304002B022
:10125000704700BFA11100002DE9F84F0546808BB3
:101260000407174605F1140A00F1BB8100F00703DB
:101270009B4602299BB221D0AE69002EC0F2C580E8
:101280005A1F012A40F25081042B40F0FA8120F0CD
:101290000703D5F800909BB2AB83B9F1000F00F0C3
:1012A000E98143F020039BB2AB83BBF1000F00F058
:1012B000CD804FF00008C14644461FE0002B40F0AF
:1012C000D7802B68002B00F0C680BBF1000F40F0E8
:1012D0005D812B691C68002C00F07781AB8B23F0BB
:1012E000070343F006039BB2BBF1060FAB8300F08C
:1012F000AA804FF000094FF006084E46AA68002A5F
:1013000000F094804FF0010B43F00803AB8350468C
:1013100011F086FC002864D087F31188BFF36F8F2B
:10132000BBF1000F3BD1B9F1000F13D0A3464846E3
:10133000314650F8044BFFF701FF07464946334654
:1013400042462846002F40D0A146B847B9F1000FC9
:10135000EDD15C4614B1B1492846A0474FF02003B7
:10136000EFF3118483F31288BFF36F8F504611F0AF
:1013700049FC274600283ED0504611F05FFCAB8B5D
:1013800023F008039BB2AB83D90623D523F01003C7
:1013900098B2012100F00703A8839B4669E7A9687A
:1013A0000029C0D00F68A34633464C684246284601
:1013B000A04747B139463F684C6833464246284605
:1013C000A047002FF6D15C46ADE7A146B9F1000F6A
:1013D000ADD1BEE79A063FD523F0200398B2022193
:1013E000D8E78F498F48B92201F0C6FF8C48B92150
:1013F00001F0BAFF90E78A498A488E2201F0BCFFCB
:1014000087488E2101F0B0FFB6E720F007030022E5
:1014100043F00103D5F80090AB836A602A604FF077
:101420000108C3454FF000047FF468AF4FF0000B94
:10143000B9F1000F7FF468AFC3463CB14FF000092B
:10144000D846CB4660E70026002CF7D13C469BE708
:10145000EB8B002B38D03C46504611F0E1FB0028C6
:1014600000F0CD8084F31188BFF36F8FBDE8F88F53
:10147000022BEDD0012BEED12B68002BEBD0BBF172
:10148000010F0DD0684967484FF4B27201F074FF44
:1014900065484FF4B27101F067FF2B68002B5AD0FA
:1014A0002B699C68002C65D0AB8B23F0070343F0BD
:1014B00005039BB2BBF1050FAB83C4D04FF000090D
:1014C0004FF005084E4619E7BBF1020F17D05649F9
:1014D000544840F25D1201F04FFF534840F25D1155
:1014E00001F042FFEB8B53B14F494E484FF4AF72BE
:1014F00001F042FF4C484FF4AF7101F035FF2B690A
:101500005C68002C00F09280AB8B23F0070343F063
:1015100004039BB2BBF1040FAB8394D04FF00009DE
:101520004FF004084E46E9E60022062BD5F800905D
:101530006A602A6000F0868020F00702296892B273
:10154000AA83002900F0B48042F020039BB2AB8351
:1015500002F0070865E73449324840F2651201F0AD
:101560000BFF314840F2651101F0FEFE2B699C68CB
:10157000002C99D12C492B484FF4B47201F0FCFE99
:1015800029484FF4B47101F0EFFE8DE72649254854
:101590004FF4AB7201F0F0FE23484FF4AB7101F051
:1015A000E3FE2B68002B7FF494AE1F491D4840F2E8
:1015B000571201F0E1FE1C4840F2571101F0D4FE31
:1015C0002B691C68002C7FF489AE174915484FF42D
:1015D000AD7201F0D1FE14484FF4AD7101F0C4FEBC
:1015E0007CE601290CBF40F0100040F02000A883E9
:1015F0005046144611F014FB00287FF433AFB92293
:101600000749084801F0B8FE0548B92101F0ACFED1
:1016100084F31188BFF36F8FBDE8F88FC116000007
:1016200024E80100C4E7010000E801002249234842
:1016300040F2611201F0A0FE1F4840F2611101F07A
:1016400093FE61E7B9F1000F0AD0EB8B01339BB237
:101650004A461268591C1C468BB2002AF9D1EC8309
:1016600020F00703EA8B43F00203AB83F2B14FF0A3
:101670000208D6E6BBF1000F3FF4E8AEC8464C4680
:101680003CE60D490D4840F21B1201F075FE0A4878
:1016900040F21B1101F068FEAB8B03F00708C34555
:1016A0003FF4D4AE4FF000094C4627E61A464BE70C
:1016B00013468846B5E600BF00E80100C4E7010014
:1016C000F8B504460D4600F114064FF02003EFF381
:1016D000118783F31288BFF36F8F304611F092FAAF
:1016E00050B1304611F0AAFAA5613A4620460121D0
:1016F000BDE8F840FFF7B0BD044905488E2201F06F
:101700003BFE02488E2101F02FFEEAE724E80100AB
:10171000C4E7010088B138B50C4659B10B684BB12C
:101720004B683BB10546202200211CF0A0FB2C6138
:10173000002038BD6FF0150038BD6FF01500704700
:101740002DE9F84F002800F0A3808846002900F01A
:101750009F8001F1040904464846FFF7DBFC051EA3
:1017600028D1D8F80830032B00F2928004F1140736
:101770004FF02003EFF3118A83F31288BFF36F8FCA
:10178000384611F03FFA002859D0384611F056FA81
:10179000E38BA68B4FF6FF72934206F007065ED0EE
:1017A000022E56D0062E1ED8DFE806F008441D1D76
:1017B000086D0800DADA2846BDE8F88F6368002271
:1017C000C8F80020002B59D0C3F80080C4F804806A
:1017D000002E60D12046524602213546FFF73CFDDF
:1017E0002846BDE8F88F2E492E484FF4E47201F0E8
:1017F000C3FD2B484FF4E47101F0B6FD6FF0040512
:101800004FF0000B384611F00BFA68B38AF31188D9
:10181000BFF36F8FBBF1000FCDD048460021FFF71B
:101820008DFC07460028C6D032464146204600239C
:10183000B847C0E76FF004054FF0000BE2E71A4924
:1018400018488E2201F098FD17488E2101F08CFD7A
:101850009BE70133E38335464FF0010BD2E76FF08E
:101860000A054FF0000BCDE70F490E48B92201F0F1
:1018700083FD0D48B92101F077FDC7E7C4F800806A
:10188000C4F80480A4E76FF085054FF0000BB9E7BA
:101890006FF015058FE735464FF0000BB2E700BF3C
:1018A00000E80100C4E7010024E8010070B5044627
:1018B00000F114054FF02003EFF3118683F3128833
:1018C000BFF36F8F284611F09DF968B3284611F0D9
:1018D000B5F9A38B03F00703022B0FD0012B284689
:1018E0000CBF6FF004046FF0850411F099F988B112
:1018F00086F31188BFF36F8F204670BDE38BEBB189
:10190000013B9BB2E38353B32846022411F088F9CC
:101910000028EDD116491748B92201F02DFD1448D1
:10192000B92101F021FDE3E7114912488E2201F0AF
:1019300023FD0F488E2101F017FDC7E70E490D4822
:1019400040F2EF1201F018FD0B4840F2EF1101F0E8
:101950000BFDE38B013B9BB2E383002BD4D12046EC
:10196000324602210224FFF777FC204670BD00BFFB
:1019700024E80100C4E7010000E80100F8B50028F0
:1019800066D00C46002963D0054600F114064FF0DE
:101990002003EFF3118783F31288BFF36F8F304674
:1019A00011F030F9002840D0304611F047F92B688B
:1019B000A98B43B19C4202D141E09C420FD01A4610
:1019C0001B68002BF9D16FF07705304611F028F92C
:1019D00008B387F31188BFF36F8F2846F8BD6B6893
:1019E000206810609C4231D0002301F0070523607D
:1019F0002B1F022BE9D91849184840F22D2201F07B
:101A0000BBFC154840F22D2101F0AEFC304611F030
:101A100007F90028DDD112491048B92201F0ACFCC9
:101A20000F48B92101F0A0FCD3E70D490B488E22E5
:101A300001F0A2FC0A488E2101F096FCB4E76A6826
:101A400023682B609442CFD16B60CDE76A60CBE70F
:101A50006FF01505C1E700BF00E80100C4E7010011
:101A600024E801008C460446114608B51A46604633
:101A7000A04713F0CDFA02F0D5FC00BFCB00023333
:101A800070B5C45AA2EB010E891A01EB54014C0047
:101A9000C4F34E0C944400EBC2054FEA4E06C65206
:101AA0006C8020F832E020F83C1070BDC900023193
:101AB0004FEAC20C0CF1020C435A00B530F80CE0AE
:101AC0005B0803EB5E034FEA430E20F801E030F8B9
:101AD0000C1002EB510220F832305DF804FB00BF1D
:101AE00030B500EBC1044FEAC10C63885B08B3FA60
:101AF00083F3C3F11F0300EB83050CF1040C2A6987
:101B00001FFA81FE72B96EF30F02C4686EF31F42B2
:101B10004FF0010E0EFA03F31C43C460296140F834
:101B20000C2030BDD3000433C15A20F80C1000EB58
:101B3000C101E280A1F806E020F803E030BD00BF5B
:101B400000EBC10CBCF8063099420CD0BCF8041074
:101B5000043200EBC10C40F8223000EBC300ACF8BB
:101B6000063081807047C36801219140043223EA26
:101B700001030021C36040F822107047F8B5B1FAA4
:101B800081F3C3F11F0200EB820635698DB12C464B
:101B90004FF0030C00EBC40EBEF80270B1EB570F10
:101BA00018D9BEF806403461BCF1010C01D0A54241
:101BB000F0D1C268C3F120034FF0FF349C401440C1
:101BC00001D12046F8BD94FAA4F2B2FA82F2131DB4
:101BD00050F823402146FFF7B3FF2046F8BD00BF71
:101BE000F8B5CE00B71C0D46C15B05EB510100EB0B
:101BF000C10304465A88D3070CD5A15B691A04EBCC
:101C0000C1035A88D30714D529462046BDE8F840B9
:101C1000FFF766BF5208B2FA82F2C2F11F02FFF765
:101C20008FFFE25B294605EB52022046FFF73EFF9D
:101C3000E3E75208B2FA82F22046C2F11F02FFF730
:101C40007FFFA15B2046691A2A46FFF72FFFA35B9F
:101C5000ED1A29462046BDE8F840FFF741BF00BF16
:101C600089B3F8B505680C1F641B24F00706B71C80
:101C7000E408EB5BDA071BD504EB530335F833209C
:101C80009B1A9C420AD12E442146738823F00103FB
:101C900028467380BDE8F840FFF7A2BF0A490B4809
:101CA000B42201F069FB0848B42101F05DFBEAE7CA
:101CB00005490648AC2201F05FFB0348AC2101F066
:101CC00053FBEB5BD8E7704754E80100C4E7010021
:101CD000F8B50568C1B1AB68B3EBD10F14D90B31BE
:101CE000CC0821462846FFF749FF68B105EBC0073D
:101CF000C6007B88B4EB530F08D37B88043643F0CF
:101D000001037B80A819F8BD0020F8BD0219014627
:101D10002846FFF7B3FE1146FFF7E2FEEDE700BFEE
:101D20002DE9F04101F1FF3818EA010806680D4677
:101D300014464DD008F1FF3313EA080F0AD0374993
:101D400037484FF4A07201F017FB34484FF4A071EC
:101D500001F00AFB6B422B40042B1A46454628BF74
:101D600004229846CCB3B368B3EBD40F35D904F151
:101D70000B012944891AC9083046FFF7FFFE0746C0
:101D800058B308F1040303EBC0036A1E3344134441
:101D90006D421D40A5EB08052C4407342B1F9B1BEF
:101DA00024F00704A41BB0EBD30F4FEAE4044FEA7E
:101DB000D30816D306EBC8077B8808EB53039C4275
:101DC0001ED37B8843F001037B802846BDE8F08169
:101DD00004291ED90422002CC5D100252846BDE8BF
:101DE000F081014642463046FFF748FE394606EB91
:101DF000C807FFF775FE7B8808EB53039C42E0D2CF
:101E0000414630462246FFF739FE2146FFF768FE7D
:101E1000D7E7BDE8F0411146FFF75ABF54E801008B
:101E2000C4E70100B2F5802F2DE9F04115460446C4
:101E30000E464AD2042A0AD8364937484FF4F5727A
:101E400001F09AFA33484FF4F57101F08DFA2A1F28
:101E5000F51D164425F0070526F00706761B172EFC
:101E60004FEAD60849D9B8FA88F32560C3F12404AB
:101E7000A4000734E408C3F12007631C0022434593
:101E8000C5E902822DD805F10C0303EB8707002278
:101E900043F8042F9F42FBD163002A80A8EB04087B
:101EA00005EBC40243F001036B804FEA4801AB1914
:101EB0005180012225F83440214625F80680284625
:101EC0005A80BDE8F041FFF70BBE1249124840F2BC
:101ED000E31201F051FA0F4840F2E31101F044FA25
:101EE000B5E70C490C484FF4017201F045FA094876
:101EF0004FF4017101F038FAC5E70649064840F28F
:101F0000F31201F039FA034840F2F31101F02CFA10
:101F1000A9E700BF54E80100C4E701002DE9F84F2C
:101F200092469846D378304A0A9E12F803906F2B57
:101F300005460C4609F0030941D03BD903F0F703ED
:101F4000702B39D00A27BB4610E0B9F1010F2DD014
:101F50000CF1570CBD425FFA8CF374F1000406F8E3
:101F6000013D16D3464505460C4612D92846214662
:101F70003A460023FEF714F95FFA82FC092A0CF1B5
:101F80003003E2D8DBB2BD4274F1000406F8013D33
:101F9000E8D29AF800309B0605D5BBF1080F11D0A6
:101FA000BBF1100F17D03046BDE8F88F0CF13703A6
:101FB000DBB2E8E7582BC5D11027BB46D6E7082788
:101FC000BB46D3E79AF8023043F008038AF80230A0
:101FD0003046BDE8F88F9AF8023043F010038AF8D3
:101FE00002303046BDE8F88F390402002DE9F04F89
:101FF0000746107899B090B11C4600238B469A464C
:10200000551C25282E460DD05946B847002806DB1A
:102010000AF1010A2A4610780028F1D1504619B079
:10202000BDE8F08F53780021252BCDE90A11CDE9C9
:102030000C11CDE90E1100F0EC8008468E46884662
:1020400002918946A3F1200110290AD8DFE801F0A6
:10205000D80909D509090909090909DE09DB0909AE
:10206000D10028B19DF8301041F040018DF83010BA
:10207000BEF1000F05D09DF8301041F020018DF821
:102080003010B8F1000F05D09DF8301041F010016C
:102090008DF83010029929B19DF8301041F00801F7
:1020A0008DF83010B9F1000F05D09DF8301041F0D7
:1020B00004018DF830109DF8301001F044004428E0
:1020C00000F066829DF830102A2B41F080018DF8D7
:1020D000301000F04282DFF8C48B18F80310490773
:1020E0009C46304648BF002117D510F8013F18F82C
:1020F00003E0ACF1300C01EB81011EF0040F0CEB9E
:1021000041019C46F1D1864207D09DF830600D9187
:10211000C90F61F341068DF830609DF831102E2B08
:102120000CBF0126002666F341018DF8311029D13C
:1021300043782A2B00F06B82DFF8608B18F80310CD
:1021400011F004011E4600F1010008BF0E460ED03A
:10215000002110F8013F18F803C0303E01EB810167
:102160001CF0040F06EB41011E46F2D1CE0F0E917A
:102170009DF83010C1F3400C46EA0C0666F34101AD
:102180008DF83010A3F14C01461C2E2900F2488234
:10219000DFE811F0600446024602460246024602AB
:1021A00046024602460246024602460246024602EF
:1021B00046024602460246024602460246024602DF
:1021C00046024602460246024602460270044602A3
:1021D0005C0446024C04460246024602460246029F
:1021E00046024602480446024602460246024602AB
:1021F0003B04012016F8013F24E74FF0010EF9E7F8
:102200004FF00108F6E74FF00109F3E701230293CD
:10221000F0E78DF8330002F1020908460E460291FC
:102220008E469DF930809DF830C0B8F1000FB4BFE4
:102230000D9B4FF0FF330493029B002B00F00481B1
:10224000234653F8048B0393B8F1000F07DA9DF887
:1022500031306FF341038DF831304FF0FF380023F8
:10226000042E0D930E9300F0FF800CF00303012E5B
:10227000029300F02881022E00F07881032E04D111
:10228000039B53F8040B0A900393029B002B40F02E
:1022900008819DF833E0AEF12503532B57D8DFE8D2
:1022A00013F008045600560056005600560056001B
:1022B000560056005600560056005600560056006E
:1022C000560056005600560056005600560056005E
:1022D000560056005600560056001802560056008A
:1022E00056001802180218025600560056005600F2
:1022F000560056005600560056005600560056002E
:1023000056005600560056006C0056005600560007
:102310005600560056005600560018025600860118
:1023200059001802180218025600590056005600AB
:10233000560056001D046C00140456005600F903A4
:1023400056006C00560056006C00C3F800A0039CB9
:102350004A4660E61CF0080F06BFCCF300135B0191
:102360002B230293DDE90A23002B06DA524263EBAA
:1023700043030B932D230A9202930DF15D04DDE9D3
:102380000A01009411AB0CAAFFF7C8FD0546B8F18D
:10239000000F0BDB9DF830306FF386138DF8303073
:1023A000631B984502D9A8EB03030D93002DCED0F3
:1023B000601B0D9C9DF832600DF15D022346069274
:1023C000029A02B1013016F01002059200F0FA8074
:1023D0000230184416F040031CBF0E9A8018049A6D
:1023E000002A40F38E80121A04929DF83020500784
:1023F000C2F3800600F18580510640F1FB8202980D
:10240000002800F09A8402935946B8470028FFF646
:1024100006AE049B002B03F1FF310AF1010A029B77
:1024200040F3948402964FF0300807940E460493CC
:102430000C4603E0621E002C5AD014465946404612
:10244000B8470028F6DAEAE51EF0020F18BFDDF8FB
:10245000388003944FF0000308BF4FF0FF38042E7C
:102460000D930E937FF401AF9DF831309B0707D495
:102470009DF93130002BACBF4FF006084FF00D082E
:102480000CF003030293039B073323F0070393ED40
:10249000007B08330393029B8DED0A7B002B3FF4F6
:1024A000F8AE4A45BFF453AF002415F8010C594665
:1024B000B847002804F10104FFF6B1AD4D4500F026
:1024C0000E850135F1E7CB1E042B00F2AB86DFE869
:1024D00013F0710205000500EF00EF00039B0733C6
:1024E00023F00703B3EC027B8DED0A7B0393CCE66C
:1024F0000AF1010202EB060A079C049B4FF0FF322F
:102500000492029840B102935946B8470028FFF65A
:1025100086AD029B0AF1010A002B5CD09DF9313097
:102520002878002BC0F23382DFF8708718F800306B
:102530005A0758BF2A4640F1C5836E1C07E0307821
:1025400018F800305B0706F1010640F1B7835946E1
:10255000B84700283246F2DA61E59DF8313043F0A1
:1025600001038DF831307378701CD6E5CB1E042B37
:1025700000F26B8601A454F823F000BFC5290000C7
:10258000DD240000DD2400005B2900005B29000041
:102590006FF386118DF8301094E503990393096861
:1025A0000A9100210B91029900297FF47AAF0A9BCE
:1025B0008DF844300DF14503069311AD0120002341
:1025C0001C46029316F0080205923FF402AF002267
:1025D00001300592FDE69DF83230DA0600F1018205
:1025E0001B0700F1FE81059B002B40F0C681002CEB
:1025F000C8BF544403DC33E3A24500F0328359469C
:102600003020B84700280AF1010AF5DA07E59DF8FD
:10261000313043F004038DF8313083780230B1E576
:102620009DF830C00646CCF3400C782B8DF8333043
:1026300006F101091AD86D2B00F2A782692B15D873
:10264000572B40F26F82A3F15801C9B2012000FA62
:1026500001F111F4624F40F06C8240F60106314204
:1026600040F0BD8511F4043F40F0BB829DF830304E
:102670009DF831E043F00103CEF3C3018DF8303013
:10268000002608469DF830306CF341038DF8303059
:102690001EF0010F0EF0040302933FF4C2AD54F894
:1026A000043B0493002BC0F291829DF830C0C3E537
:1026B000039C54F8043B03944FEAE37E0128CDE9E0
:1026C0000A3E7FF4E2AD58B243F3C0130A900B9375
:1026D000DBE5DDE90A12002AC0F284831CF0080F52
:1026E00040F0FA83CCF300135B010293C2F30A506B
:1026F0000590C2F3130240F2FF73002840F02983D3
:10270000BEF1460F00F0A184D002CB0240EA515046
:10271000069350EAC12300F0B583120352EA115226
:102720004FEA013300F150850599DB185241002A28
:1027300001F1FF31F9DA05910599A1F2FE318C1C06
:1027400042F0004280F23885002005905B0843EAA1
:10275000C2735208B2F1333F084601F10101F5D2CC
:10276000811C0598013894000590980044EA937400
:10277000C31842EB0402881CE8DB002929DDCDE9FF
:1027800006EADDF814A04FF033352E460233A3FBE2
:10279000053E42F10002F018A2FB050245EB0E04D3
:1027A0001B184EEB020E1B194EF10003C31801F16A
:1027B000FF310AF1010A42F10002DB185241002AFE
:1027C00001F1FF31F9DA0029E0DCCDF814A0DDE9F0
:1027D00006EAC1F104041C3102FA01F1E3400B43A3
:1027E0001946A4F1200322FA03F30B43BEF1670F4D
:1027F000069322FA04F000F02383BEF1470F00F0A5
:102800001F83BEF1660F00F01B84002208F1010354
:102810000792102B1D46A8BF1025013D002B00F08C
:10282000CF84CDE908EA4FF000624FF03334002343
:10283000114626465B0843EAC173A3FB042E4908F0
:10284000B318A1FB043144EB0E0AD2184EEB010E73
:1028500012EB0A024EF1000E13EB0E0305F1FF35E9
:1028600041F100016A1CE5D1DDE908EA0A46069952
:102870005B1842EB0002B2F1805F80F08783BEF10B
:10288000660F0CF0200600F0318391009C0041EAB5
:102890009371E31842EB0101C1F3C362DB1802F14B
:1028A00030024941302A8DF8442002D0059A013A7D
:1028B0000592002E40F05D83B8F1000F40F3EB83EA
:1028C0002E228DF8452021F070420F240DF1460193
:1028D0000DF1440C08460C4401E0A04211D09100D7
:1028E0009D0041EA9371EB1842EB0101DB1849416D
:1028F00021F07042090F3031B8F1010800F8011BD6
:10290000EBD10690079BCDF8388063B10022069B7F
:102910000E921946013B11F8012C302AF9D02E2ACB
:1029200008BF194606910EF0DF03452B00F0208208
:102930000D9C002C40F3A08201229DF8323062F3FE
:102940008613069A8DF83230002313709DF832609A
:10295000A2EB0C006546234632E5DDF80CE05EF89C
:10296000043B00240228CDE90A3403D19BB20A9328
:1029700000230B93CDF80CE087E49DF83300594613
:10298000B8470028FFF64BAB0AF1010A2FE6702882
:1029900000F00E846C1C04E0207870281C4600F0C7
:1029A000B2815946B8470028264604F10103F3DAFC
:1029B000FFF735BB039850F8043B0A93DB170B93E2
:1029C000039062E49DF83300039B632803F1040342
:1029D0003FF4E3AD0398039300680A9000230B9340
:1029E00053E459463020B8470028FFF618AB0AF1E7
:1029F000010AF8E5049A002A02F1FF31C8BF4FF03E
:102A000020083FF712AD04917BE59DF83130062197
:102A100061F3C6039DF830C08DF831304378CCF3B4
:102A2000400C02E69DF831300721F1E743789DF82C
:102A300030C06C2BCCF3400C00F0BC819DF8311001
:102A4000032060F3C6018DF83110EEE59DF83130BA
:102A50000521DDE7BDF83010437821F4F04121F085
:102A6000020141F4804141F00201ADF830104FF015
:102A7000010CDAE543789DF830C0682BCCF3400CAC
:102A800000F0A2819DF83110022060F3C6018DF89C
:102A90003110CAE5B8F1000F0A9DC0F29F8141468E
:102AA00028461BF090FA2B180693002D7FF487AD73
:102AB0004DE459462520B8470028FFF6B0AA039CEC
:102AC0000AF1010A4A46FFF7A6BA0A98002840F020
:102AD0008C81734B069305205D1F70E50A9B0729C7
:102AE0003FF635AC01A252F821F000BF4B230000A5
:102AF0001F2B0000192B00004B2300000D2B0000A2
:102B00000D2B00004B2300004B2300004FEAEA721C
:102B1000C3F800A05A601AE4A3F800A017E483F8F1
:102B200000A014E4412B04D0A3F1450102293FF693
:102B30009DAD03F0DF03A3F141039DF831109DF833
:102B40003200B3FA83F35B0963F3C71104268DF8EF
:102B5000311066F302005FFA81FE09068DF832003B
:102B600000F1E5800EF07803182B00F0AB811EF029
:102B7000380FCEF3C30105D09DF8303043F0010388
:102B80008DF83030084604267CE56E3BD9B201232F
:102B90008B4040F282410B424BD113F0240F36D1CF
:102BA000D8077FF563AD9DF832309DF831E00326FC
:102BB00066F302038DF83230CEF3C3010EF07803D2
:102BC000402B08BF4CF0010C08465BE5049B9DF8C8
:102BD00030C05B424CF0040C04938DF830C0FFF71A
:102BE0002BBB9DF832309DF831E060F302038DF885
:102BF00032300EF07803402BCEF3C30104D19DF8A0
:102C0000303003438DF83030084601263AE59DF810
:102C100032309DF831E003261EF0780F66F3020390
:102C2000CEF3C30118BF4CF0010C8DF832300846CA
:102C300028E59DF832309DF831E0022666F3020364
:102C40008DF832300EF07803402B05D19DF83030EE
:102C500043F001038DF83030CEF3C301084611E58F
:102C60005446DDF81880002607E015F8010BB84738
:102C7000002806F10106FFF6D2A9A8455946F4D866
:102C8000002E3046FFF6CBA93444049B002B40F3C2
:102C90004C82049B23449A4607E000BF390402009B
:102CA0007DE8010054453FF452AB59462020B84717
:102CB000002804F10104F5DAFFF7B1B9AAEB050524
:102CC00005EB020A9DF83230990640F1A781107891
:102CD0002E2800F0888118F80030590758BF164692
:102CE00015D5541C154607E0207818F800305B070E
:102CF00004F1010440F164815946B8470028264692
:102D0000F2DAFFF78CB9AAEB050506EB050A0E9C73
:102D1000002C7FDD544401E0A2457CD05946302090
:102D2000B84700280AF1010AF6DAFFF778B9CEF3BE
:102D3000C30108464FF0010CA4E4049A002A02F1F2
:102D4000FF31C8BF4FF030083FF76FAB0491FFF77A
:102D5000E3BB0598984200F0AD81D202BEF1460F68
:102D600042EA51524FEAC12308BF4FF0660EE3E436
:102D7000069B069A83F800E0059B002BBBBF5B42D5
:102D800005932B232D235370059B632B00F31C818C
:102D900002320598C34BA3FB0013DB0803EB83014E
:102DA000A0EB41011046303300F8023B3031069071
:102DB0005170BDE59DF83130042161F3C6038DF8F3
:102DC00031308378861C30E49DF83130012161F385
:102DD000C6038DF831308378861C26E42846FDF73B
:102DE00053FB60E62D23029380E40DF15D0411ABEB
:102DF00000940CAA0021FFF791F8BDF8323003F0DF
:102E0000EF0343F4F04343F010030546ADF83230CE
:102E1000FFF7BDBA5446DDF81880002507E016F824
:102E2000010BB847002805F10105FFF6F8A8B045E9
:102E30005946F4D8002D2846FFF6F1A82C4424E783
:102E4000059B033325DAAEF10203B8F1000F5FFAF8
:102E500083FE7FF7DAAC1CF0200F08F1FF3340F05F
:102E600058811A1E18BF012207924546102DA8BF8F
:102E70001025013D9846D4E40E9A002AD4BF0022C2
:102E800001225AE5BEF1670F03D0BEF1470F7FF470
:102E9000B8AC059B9845D6DB059B1CF0200FA8EB32
:102EA0000302434640F08081111E18BF01210791A3
:102EB0009046002B4FF0660EBFF6ABAC00234FF0F0
:102EC0000062D4E46FF3C60E00208DF831E00146B5
:102ED0005FFA8EFEFFF7D6BB2B23029306E4002C8D
:102EE0002046FFF69CA8A244FFF731BA05990029B5
:102EF00040F3B7800DF1440CCDF814E0CDF820A0DC
:102F00000C46A1F110058E46E246CDF824809100D2
:102F10004FEA830841EA937118EB030342EB010186
:102F2000DB1849410A0F303250460AF8012B21F0D4
:102F300070427146BEF1010E00F01E81AE45E6D131
:102F4000CDF818A0DDE908A8DDF814E000240D95FF
:102F5000002E40F01C81B8F1000F40F32B81069D3C
:102F6000811C2E202870002C00F0DC8000200590B1
:102F7000B0E42E22B8F1000F8DF845203FF7A3AC46
:102F80000DF1460306930DF1440CBBE45B0843EAE4
:102F9000C2735608059A013205924FF03332A3FBF3
:102FA0000235D418A6FB021442EB05025B1845EB70
:102FB00004059B1845F100054B1944F100025EE43D
:102FC000AAEB050AB244A2E60598374B0699A3FB83
:102FD00000235B0903F130028A70CA1C642101FBE3
:102FE00013030593D5E602925946B847029A002882
:102FF00002F10105FFF613A8002C0AF1010A56DDC3
:103000005444164601E0A24550D059463020B847F6
:1030100000280AF1010AF6DAFFF701B8002C04F1E2
:10302000FF35C8BF164604DCD7E06B1E002D73D0F9
:103030001D4659463020B8470028F6DAFEF7EFBFA4
:10304000059B00224344079233E7D002CB0240EABB
:103050005150069350EAC123F2D04FF0660EFFF7AD
:103060005CBB30218DF84410002E61D02E218DF8EC
:1030700045100599002975D0B8F1000F60DC0DF1FD
:10308000460306930DF1440C079BCDF83880002BC6
:103090007FF43CAC4CE40DF1450306930DF1440C78
:1030A00030E400BFCDCCCCCC1F85EB5132465078FC
:1030B0002A4610E60EF101036E48DBB20A43C35CF8
:1030C00003F003031DD1012B0BBF492369234E21BC
:1030D0006E210CBF462266228DF844309DF83030B8
:1030E0008DF846206FF386138DF830300DF14702CE
:1030F00000238DF845101C460320069211ADFFF702
:103100005FB9012B15BF6E234E23612141211A4661
:10311000E2E700220792A8E65444A4EB050A3246EF
:103120001C46D4E5CDE90541AEE7A246FFF70FB94D
:10313000B8F1000F4BDD2E218DF845100599A1B196
:1031400005999DF8324049424145A8BF41460029B2
:103150000D91A8EB0108D4BF0021012161F34514B2
:103160008DF83240B8F1000F89DD10240DF14601D1
:103170000DF1440CFFF7AEBBC4F10F047546CDF85A
:1031800018A0DDF814E0DDE908A80C44DFE6069D90
:10319000811CB8F1000F4FF02E0028703FF7E3AE0E
:1031A0000023069105936FE790460022079280E680
:1031B0002E46ACE5059667E700200590FFF7DDBADF
:1031C0004FF00062FFF753BB2B49FFF7BDBA0DF17B
:1031D000450306930DF1440C56E72C4677E59DF820
:1031E00032009DF83110022666F3020001F07806E5
:1031F000402E8DF832008E4605D19DF8300040F00B
:1032000001008DF83000C1F3C301632B084606D1DD
:10321000002E18BF4CF0010C0226FFF733BA02262D
:10322000FFF730BADDF80CE05EF8044B0A94E317C0
:1032300001280B93234616D0022801BF23B244F382
:10324000C0340A930B94FFF795BBDDF80CE001281E
:103250005EF8043B0BD1DBB20A930023CDF80CE0FF
:103260000B93FFF712B8CDF80CE0FFF72CBA00244F
:10327000FFF778BB3804020002FCFFFF844630B53C
:10328000C068DCF80450DCF81C402B1A9C429ABF42
:103290001B1B00EB040E9E46A4EB0300DCF814306D
:1032A000A5EB0303A4EB030498BFA5EB0E0E944219
:1032B00028BF1446DCF80030A04228BF2046054451
:1032C00073440B60CCF8045030BD00BFD0E901233B
:1032D000D21A8A420AD3C2681944C3694160A1EB79
:1032E000020C6345816004D9002070476FF015001F
:1032F00070471A44C260F7E770B405698669C4690B
:103300000346A81B84429ABF001B06EB040C8446AC
:10331000A4EB00009C68A4EB050498BFA5EB0C0C83
:10332000944228BF1446A0421A6828BF204605448C
:1033300062440A601D6170BC704700BFD0E904237D
:10334000D21A8A420AD382691944C3690161A1EB86
:10335000020C6345416104D9002070476FF01500ED
:1033600070471A448261F7E7404080F311884FF0BC
:10337000040002DF704700BF0FB400B583B004A99A
:1033800051F8040B0191FDF727FF03B05DF804EB42
:1033900004B0704708B54FF02002EFF3118382F3B9
:1033A0001288BFF36F8F01F0FBFA0348FDF722FF8D
:1033B00000F064FCFCE700BF80E80100704700BF3C
:1033C0000CF018B808B500F015F8BDE8084000F09A
:1033D00001B800BF38B5054C054DAC4204D254F8D5
:1033E000043B9847AC42FAD338BD00BF44E7010024
:1033F00044E7010038B5064D2C6844B1631C05EB69
:103400008305013C55F8043D9847002CF9D138BD9F
:1034100038E7010008B5054B054818600EF0F0FFCD
:1034200000280CBF6FF01200002008BD20340020DF
:10343000B8E4010038B5164B1D68AC682368E3B1E9
:10344000144C102221462846984718B9124B0122E5
:103450001A7038BD06F0EEFD206006F0EBFD0F4B54
:103460004340636006F0E6FD0D4B4340A36006F069
:10347000E1FD0C4B4340E36038BD0B490B484B2248
:10348000FFF77AFF08484B21FFF76EFF2368D7E765
:1034900020340020103400205C820020B0C2649BE5
:1034A000D4D2D38678E20AA0ACE80100C4E70100D8
:1034B0000F4B1B7810B5BBB10E4BD3E90014D3E909
:1034C000022080EA040C08444A4001EB706081EA63
:1034D0000C0119604FEA7C51D96084EA020182EA4A
:1034E0004422C3E9011210BDFFF7A4FFE4E700BFC7
:1034F0005C820020103400202DE9F8433B4E3C4B09
:10350000357EBFF35B8F05F01F0101228A406909F8
:1035100003EB8103D04353E8001F01EA000443E8B2
:103520000047002FF7D1BFF35B8F0A4201D1BDE8FE
:10353000F883304B002B3CD02F4F05EB450307EBB6
:10354000830217F8230051784FEA450801F054FA36
:103550004FF02003EFF3118983F31288BFF36F8FCD
:1035600026480FF04FFB60B324480FF067FB244B55
:103570001C6854B1A2682AB1337E03EB430317F8E9
:10358000230090472468002CF4D11C480FF048FB1E
:1035900008B389F31188BFF36F8FA84407EB880243
:1035A0004FEA8808002347F80830C2E90133BDE834
:1035B000F88383F31188BFF36F8F0F4F4FEA4508ED
:1035C000C6E7104910488E22FFF7D6FE0D488E211F
:1035D000FFF7CAFEC8E70B490B48B922FFF7CCFE3C
:1035E0000848B921FFF7C0FED3E700BFD875002017
:1035F00048340020F94900003C34002028340020E1
:103600000019002024E80100C4E701002DE9F04F73
:10361000B74F83B03E7E04464FF02003EFF311888E
:1036200083F31288BFF36F8FB2480FF0EBFA0028D4
:1036300000F01E81AF480FF001FB06EB4603DFF8F8
:10364000E0C21CF823204FEA830A4FEA46090CEB3C
:103650008303002A00F0FF8093E80700A64D05EBE6
:103660000A0E8EE807004FF0000B0CF80AB0A148D4
:103670000FF0D6FA002800F0E48088F31188BFF339
:103680006F8F09EB06034FEA830815F8232005EB3B
:103690008303002A00F02A81611C40F0A680012AE1
:1036A000DFF8808246D0BFF35B8F58E800BF0BF194
:1036B000FF3B48E800B3002BF7D1BFF35B8FBBF1B2
:1036C000000F37D101A80EF08BFE019BDFF858A246
:1036D000C0EBC00003EB80041C3CA342CAF800B05E
:1036E00028D8DFF838B2204600F0CEF9034620464D
:1036F000E3B900F0DDF903462046BBB900F0CEF98E
:103700000146204691B900F061F920F0200378339A
:103710000CD010F1860F09D00028DAF80030C0F282
:10372000C6804BF823400133CAF80030019B1C3C93
:103730009C42D8D211F0CEF94FF02003EFF3118A5A
:1037400083F31288BFF36F8F6C480FF05BFA002889
:103750006DD06A480FF072FA694B1C6854B1626808
:103760002AB13B7E03EB430315F8230090472468FE
:10377000002CF4D161480FF053FA00284DD08AF3A1
:103780001188BFF36F8FBFF35B8F5E4B720903EB42
:10379000820306F01F0101228A4053E8000F104304
:1037A00043E800010029F8D1BFF35B8F564B3BB1D2
:1037B0004E4405EB860315F82600597801F010F900
:1037C000BFF35B8F58E8003F5A1C48E800210029EE
:1037D000F8D1BFF35B8F002B54D0FFF78DFE11F0B3
:1037E000E5F9012003B0BDE8F08F9868474B4FF42E
:1037F00000420021E0FB02311846454A0023FCF755
:10380000CFFC0121201A11F061FF15F80820DFF824
:103810001481012A7FF447AF8CE73E493E48B92224
:10382000FFF7AAFD3B48B921FFF79EFDA7E73949FD
:1038300039488E22FFF7A0FD36488E21FFF794FD10
:1038400087E734493448B922FFF796FD3148B9215A
:10385000FFF78AFD11E72146304600F067F8264D54
:1038600000283FF404AF07C8AA448AE80700FEE630
:10387000284929488E22FFF77FFD26488E21FFF731
:1038800073FDD7E6DFF8A0A0DAF800305C1E0AD49A
:10389000224D05EB830555F8040D0121013C00F094
:1038A00095F8631CF7D10023CAF8003095E75C1E39
:1038B0000AD41A4F07EB830757F8040D013C012186
:1038C00000F084F8621CF7D109EB06039B0000228C
:1038D000EA54CAF80020BFF35B8F58E8003F013379
:1038E00048E80032002AF8D1BFF35B8F002079E767
:1038F000D87500202C3400203C34002028340020CF
:103900000019002048340020E14900003F420F0028
:1039100040420F0024E80100C4E701005C030020DE
:103920003034002008000020243400202DE9F04F1E
:1039300085B08A4603A900F041F8441E24B2621CF7
:1039400031D01B4B039AD3F800B01A4F01924FF4B9
:1039500000484FF00009019B174A04EB440603EBB3
:1039600086063D4670684946E0FB0851002328461C
:10397000FCF716FCB368104A054649463846E3FB97
:1039800008010023FCF70CFC013CBBF1FF3F24B213
:10399000054401D0834504D9BAF1FF3F04D0554511
:1039A00002D9631CD7D10026304605B0BDE8F08FA0
:1039B0000C0000203F420F0040420F0008B9024BAC
:1039C0000B600020704700BFE0E80100F8B5846993
:1039D000002C45D0BFF35B8F6368BFF35B8F9B0602
:1039E00004F1040739D4214B5E5C237AB3420D46BF
:1039F00039D01F4A525C9A422CD1E368984700287C
:103A000004DB022D26720AD00020F8BD022D04D05E
:103A1000032DFAD110F1860F0ED12672F8BDBFF337
:103A20005B8F57E8003F23F0020347E80032002A8B
:103A3000F7D1BFF35B8FE7E7BFF35B8F57E8003F3A
:103A400043F0020347E80032002AF7D1BFF35B8F4F
:103A50002672E3E76FF08500F8BD4FF0FF30F8BD48
:103A60006FF05700F8BD6FF07700F8BDE4E8010093
:103A7000E0E8010083691BB11B7A0B7000207047DE
:103A80006FF05700704700BF806930B1BFF35B8FA4
:103A90004068BFF35B8F00F001007047806930B170
:103AA000BFF35B8F4068BFF35B8FC0F3C00070470C
:103AB000806930B1BFF35B8F4068BFF35B8FC0F3A9
:103AC0004010704708B50020FFF764FC014817F06C
:103AD00003BD00BFE8E80100E0B108B54368042B6E
:103AE00005D0ABB100680FF0CFF9002008BD00226F
:103AF0000368BFF35B8F53E8001F012903D143E83C
:103B000000200028F7D1BFF35B8FEED0034808BD3B
:103B1000034808BD6FF4E040704700BFE98FFFFF26
:103B2000EA8FFFFF08B308B54368042B0AD0D3B16E
:103B300000684FF0FF324FF0FF330FF0C5F880B947
:103B4000002008BD01220368BFF35B8F53E8001F0C
:103B5000002903D143E800200028F7D1BFF35B8F91
:103B6000EED0034808BD034808BD6FF4E04070473D
:103B7000E98FFFFFEA8FFFFF10B5044688B1636845
:103B800033F004020CD0082B0AD013F002030DD13D
:103B90002268136053609360D360136100236360F5
:103BA00010BD064B06485B689847E8E70548214684
:103BB0000EF0E2FE00232360F0E700BFBC0200200D
:103BC000F0E801004C39002010B5044670B163687C
:103BD000042B0AD0082B08D0206803B958B10FF085
:103BE0006BF8636843F00103636010BD114B12482A
:103BF0005B689847EBE711484FF0FF324FF0FF3317
:103C000021460EF053FE80B10A4B0D485B68984781
:103C1000236800221A605A609A60DA601A61D4E957
:103C2000000343F002036360D9E72368002BF0D15F
:103C3000EAE700BFBC020020F0E801004C39002098
:103C400018E9010008B506490648402314220EF081
:103C50000BFEBDE808400449044817F0F3BC00BF60
:103C60004C3400204C39002048E901005CE9010097
:103C7000014910220A60704710ED00E072B6404022
:103C800080F31188BFF36F8FBFF34F8F30BF62B6E1
:103C9000BFF36F8F704700BF72B6494081F3118840
:103CA00020BF80F3118862B6704700BF0EF0BABB28
:103CB000014600680EF0B6BB40B2002807DB044A9C
:103CC0004109012300F01F00834042F82130704772
:103CD00000E100E040B200280CDB4309064900F097
:103CE0001F0020330122824041F82320BFF34F8F71
:103CF000BFF36F8F704700BF00E100E0054B420942
:103D000000F01F0053F82220012303FA00F01040B6
:103D1000704700BF00E100E038B54D1C072D044698
:103D200011D860B26D010028EDB206DB00F16040F1
:103D300000F5614080F8005338BD084B00F00F00DB
:103D400003441D7638BD064906485B22FFF714FB85
:103D500003485B21FFF708FBE3E700BFFCEC00E052
:103D60006CE90100C4E7010000210120FFF79EBFBC
:103D700008B500F005F8BDE8084000F07BB900BFC9
:103D800030BFFFF7FDBF00BF144A08B5144B22F047
:103D90007F029A60BFF34F8FBFF36F8FD3F88820F5
:103DA000104922F47002C3F88820D3F888204FF01D
:103DB000404042F4A002C3F888204863BFF34F8F0D
:103DC000BFF36F8F0023E1EE103A0EF077FB11F096
:103DD000D3FA00F0A7FA0EF07DFB00BF0000000050
:103DE00000ED00E000EF00E010B40A4A0A4C9368CE
:103DF00024680A49C3E91E044B6843F0805300203D
:103E00004B6080F31188BFF36F8F93685DF8044BAC
:103E1000D86F7047D875002090F5010000ED00E0E4
:103E200021498A6882F8C1E04FF030001044EFF376
:103E3000098C80E8F01F1EF0100F03D102F1800002
:103E400080EC108A202080F31288BFF36F8F174F09
:103E50004FF000664A6A8A603E6092F9C1E0906F56
:103E60000023936780F311881EF0100F03D0002306
:103E7000E1EE103A03E002F1800090EC108AEFF3DB
:103E8000148323F0040383F31488BFF36F8F04B506
:103E9000104600F0EDFABDE8044002F1300090E871
:103EA000F01F8CF309887047D875002004ED00E0FE
:103EB0001EF0040F0CBFEFF30880EFF30980816957
:103EC00011F8021C0229FFD001B5FFF7F1FE01BD78
:103ED000017B11F0020130B405D0846E4034846659
:103EE000C46E403CC46600294FF0807142F8041C47
:103EF000039942F8181C049942F8141C0C4942F822
:103F0000203C029B42F81C3CA2F120054FF60853CE
:103F10004FF0000408BF4FF47D4321F0010142F847
:103F2000081C05658467C0F8C03030BC704700BF0E
:103F3000651A000030B4037BD0F8C0209D0702F062
:103F4000080403D490F8C110C9060BD4144D696B52
:103F500041F080416963C4B143F00203037330BC94
:103F6000802070470E494B6B23F080434B634CB16C
:103F7000D0E91A1340394033C0E91A1322F008027D
:103F8000C0F8C020402030BC7047D0E91A4142F050
:103F9000080240344039C0E91A41C0F8C020DBE7CC
:103FA00000EF00E0104B9B68DBB110B4D3F8C040C9
:103FB000024614F0080F986E0CBF4023802312F1C4
:103FC000160F08D0C31A934203D900205DF8044BA2
:103FD00070478242F9D2814228BF00205DF8044B2D
:103FE00070471846704700BFD875002008B51446C2
:103FF0000D460022E1EE102AEFF3148222F00402B3
:1040000082F31488BFF36F8FBFF36F8F084A9060FD
:1040100000F02EFA204685F30988002163B681F36B
:104020001188BFF36F8F00220023FDF71BFD00BF37
:10403000D875002001B572B60B4A106A00281EBF61
:10404000002111620EF002FE62B6EFF30580A0F1CE
:1040500010004FEAC0000549014409C99847BDE86E
:104060000140034908470000D87500207CE50100A5
:1040700075400000044B9968586A884203D0034990
:104080004FF080520A607047D875002004ED00E0C0
:104090000E4B9A6A9A6A9A6A920508D59A6B9A6A3E
:1040A000120404D518B19A6A22F400429A62074BAE
:1040B0009A6A9A6AD205054A58BF9B6A936A002099
:1040C00043F47F4393620870704700BF00ED00E047
:1040D000254B70B59C6A9C6A9D6AAE07144603D551
:1040E0005E6B9A6A15061FD46FF015061E4B9A6A0E
:1040F0009A6A9A6AD10602D49B6A9A0703D51A4D26
:104100006B681B0517D40020174B9A6A920603D5DB
:104110005A6A22F400525A62134A936A002143F009
:10412000FF039362217070BD0029DFD09A6A22F0EC
:1041300080029A62DAE701463046FFF733FF70B932
:10414000AB6AD906DFD50949094840F25312FFF797
:1041500013F9064840F25311FFF706F9D3E780F34D
:1041600009880220D0E700BF00ED00E0A4E90100CB
:10417000C4E7010070B55F4B5D689CB0C5F30805EE
:10418000002383F31188BFF36F8F02F07F44B4F1F3
:104190007F4F14D102F00C04082C10D014074BBF31
:1041A0000C4604461E46012654B10022EB1E8DF833
:1041B0000720032B1ED8DFE803F0493F33101E46CB
:1041C0004D494E4840F20542FFF7D6F84A4840F2C2
:1041D0000541FFF7C9F80024E7E7464B9A6A9A6A57
:1041E0009A6A9A6A9A6A9A6A9A6A6FEA02426FEAC5
:1041F00012429A6200256822214602A819F0FCFDAD
:10420000099B002E4AD0C3F3080240F2FF110AB9FD
:104210000B43099302A92846FFF748FD1CB070BD67
:104220000DF107010020FFF733FF9DF80730054629
:10423000002BE0D01CB070BD0DF10702002120461C
:10424000FFF746FF9DF807300546F1E7294BDA6A8C
:104250009107CFD4DA6A002ACCDBDA6A520027D57C
:10426000A16931F8021C4DF60272914236D09A6A69
:10427000D2B24ABB9A6A12F47F4F31D19A6AB2F530
:10428000803FABD21C491D4840F2D722FFF774F89B
:10429000194840F2D721FFF767F8ABE723F4FF7323
:1042A00023F0010302A928460993FFF7FFFCB5E7B5
:1042B0001149124840F2DB22FFF75EF80E4840F247
:1042C000DB21FFF751F895E70DF1070201212046A8
:1042D000FFF7FEFE9DF807300546A9E725688AE747
:1042E0000DF107010120FFF7D3FE9DF807300546C9
:1042F0009EE700BF00ED00E0A4E90100C4E7010073
:10430000024A536943F010035361704700ED00E027
:10431000EFF30880EFF3098101B57246FFF72AFF3A
:1043200001BD00BF044800232021C2180133302BF7
:1043300082F80013F9D1704700E100E0002080F31B
:104340001488BFF36F8FFFF73BF800201149086016
:10435000BFF34F8F104880F3088800F021F8202029
:1043600080F311880D484FF0AA014FF404620EF05B
:10437000A1F80A484FF40461401880F30988EFF36C
:1043800014800221084380F31488BFF36F8FFFF776
:10439000FBFC000094ED00E080BA002080A6002025
:1043A00072B6002383F313881C4AD2F8900010F4ED
:1043B0007F4FC0F3072107D01846C2F89830013369
:1043C0009942C2F8A000F8D1154B4FF0FF32C3F864
:1043D0008020C3F88420C3F88820C3F88C20C3F859
:1043E0009020C3F89420C3F89820C3F89C20C3F809
:1043F0008021C3F88421C3F88821C3F88C21C3F835
:104400009021C3F89421C3F89821C3F89C2162B687
:10441000BFF34F8FBFF36F8F704700BF00ED00E019
:1044200000E100E00A4B9B68834201D010F0F6BD2A
:10443000EFF30583002BF9D0064B5A6842F0805207
:104440005A605A6A22F400425A6210F0E7BD00BF77
:10445000D875002000ED00E0024B034A034801211B
:1044600000F01CB80000042000000020E0E901007A
:1044700010B50446FFF75EFDA26E064B064C9C602D
:10448000121AC3E90020BDE810400121184600F0CF
:1044900063B800BF6C39002000000B152DE9F04710
:1044A000294E3478002949D0284D01EB410C0022D7
:1044B00000F1040E00F108075EF82210D1B31F29A5
:1044C0000ED823492348EA234FF48B723370FEF74A
:1044D00053FFBDE8F0471E484FF48B71FEF744BF11
:1044E00050F8223001F1FF3A41EA030818EA0A0FB6
:1044F000E7D1202957F822805FFA84F922D0B1F160
:10450000004F1DD8BAFA8AF1C1F11F014900B9F173
:10451000070F48EA0101D4D823F01F03234343F0D7
:10452000100341F00101C5F89840C5F89C300134F2
:10453000C5F8A01003329445BED13470BDE8F087B1
:104540003E21E4E70821E2E75D82002000ED00E083
:10455000ECE90100C4E701002DE9F8432D4B1C787C
:1045600000294AD02C4D01EB410C002200F1040E31
:1045700000F1080619E0B7F1004F3CD85B00B8F134
:10458000070F49EA030921F01F0127D8214341F011
:10459000100149F00103C5F89840C5F89C1001349A
:1045A000C5F8A0300332624527D05EF822707B1E2A
:1045B000B3FA83F35FFA84F8C3F11F03002FF1D03D
:1045C000202F50F8221056F82290D4D80823B8F1A2
:1045D000070F49EA030921F01F01D7D90F491048F5
:1045E00040F23512FEF7C8FEBDE8F8430B4840F232
:1045F0003511FEF7B9BE3E23C1E7072C08DC064B98
:104600000022C3F898400134082CC3F8A020F8D148
:10461000BDE8F8835D82002000ED00E0ECE90100D8
:10462000C4E70100264B10B51C68082C39D8BFF32D
:104630005F8F24480022C0F89420ACB15968C0F8BC
:1046400098200B6823F01F03134343F010030C3131
:10465000C0F89C3051F8043C013243F00103A242FF
:10466000C0F8A030EBD1D4B21749164B0C7005221C
:10467000C3F89420BFF34F8FBFF36F8FD3F8903000
:10468000C3F30723082B0AD01049114840F2AD129A
:10469000FEF772FE0D4840F2AD11FEF765FE0020F8
:1046A00010BD40F24D1209490948FEF765FE074862
:1046B00040F24D11FEF758FE4FF0FF3010BD00BF25
:1046C0007CEA010000ED00E05D820020ECE90100E1
:1046D000C4E701004FF0FF30704700BF0020704773
:1046E00008B50A4BC3F1005303F58023B3F5006FFF
:1046F00001D3002008BD812205490648FEF73CFE93
:1047000003488121FEF730FE002008BDF0E90020BB
:1047100024EA0100C4E70100014B1860704700BFA4
:1047200034000020F8B50F1E0FDD7B1E084E441E1E
:10473000C51814F8010F0A2803D133680D209847D3
:10474000207833689847AC42F3D13846F8BD00BFB3
:1047500034000020F8B5002A15DD013A0B4F0E4653
:104760004C1E8D1803E00D280BD0AC4209D03B68DD
:104770009847234602330A2804F8010FA3EB0603E7
:10478000F1D11846F8BD0023FBE700BF3000002040
:10479000F8B51746002A0FDD531E084E4C1ECD18E3
:1047A00014F8010F0A2803D133680D2098472078A8
:1047B00033689847AC42F3D13846F8BD3400002046
:1047C0004FF0FF30704700BF002070470228CCBF79
:1047D00000200120704700BF002070470020704774
:1047E0004FF400534B600020704700BFF8B5084CF1
:1047F000084E671D14F8015B0A2D02D133680D20A5
:104800009847336828469847BC42F3D1FEE700BF7B
:1048100054EA01003400002030B4084C084D2368ED
:10482000C5F10051C21801F580218A423ABF5819DA
:1048300022604FF0FF3030BC704700BF7839002055
:10484000F0E9002010B5044640B1142011F092FAAE
:104850002060A0B1BDE810400EF02EBA40F27712F1
:104860000F491048FEF788FD0D4840F27711FEF71A
:104870007BFD142011F07EFA20600028EAD140F27E
:104880007F1207490748FEF777FD054840F27F1180
:10489000FEF76AFD2068BDE810400EF00DBA00BFBB
:1048A00024EA0100C4E7010010B5044640B14FF00E
:1048B000FF3220464FF0FF33BDE810400EF004BA3F
:1048C000054906484FF4D272FEF756FD02484FF4F0
:1048D000D271FEF749FDEAE724EA0100C4E70100CE
:1048E00010B5044620B12046BDE810400EF0CCBA09
:1048F0004FF4E07206490748FEF73EFD04484FF4C6
:10490000E071FEF731FD2046BDE810400EF0BCBA64
:1049100024EA0100C4E701000DF07EBD08B51D21A9
:104920000448FFF7FFFE404080F311884FF003007A
:1049300002DF00BF5CEA010010B44FF02003EFF388
:10494000118083F31288BFF36F8F134C4FF08041B7
:1049500001234FF08052C4F84035C1F87835D2F8C1
:104960003041082C0CD04FF080430122C3F8802541
:1049700080F31188BFF36F8F00205DF8044B704700
:10498000D2F83421052AEED8044CA25C002AEAD0E1
:10499000C1F83836E7E700BF00E00140ACEA0100AB
:1049A0004FF08042C0B2C2F81C05BFF34F8F0549DB
:1049B000054BCA6802F4E0621343CB60BFF34F8F2C
:1049C00000BFFDE700ED00E00400FA0520B1034B55
:1049D000800143F001031847704700BF70E70100F2
:1049E000062800D070474FF080430122C3F800250D
:1049F000BFF34F8F20BFFDE7002383F31188BFF380
:104A00006F8F704730B40E4B8279342404FB02332D
:104A1000DA6A54680A682568AA4228BF2A460A60EA
:104A2000D4E9005193F824201B6B1732C31A22F0EB
:104A30000302B3FBF2F305FB031030BC704700BF69
:104A4000EC040020704700BF2DE9F04F85B005460B
:104A500003911046194617461E469246994610F095
:104A6000CDFECDE90101002D00F0B08005F11C085C
:104A70004FF02003EFF3118B83F31288BFF36F8F96
:104A800040460EF0BFF800287CD040460EF0D6F825
:104A90006C8C002C63D02B8CA34217D900222846A3
:104AA00000230EF02FFB044678B140460EF0B8F814
:104AB000002800F081808BF31188BFF36F8F039D76
:104AC00035BB2B46256128463EE06C8C631E404674
:104AD0006B840EF0A5F8002800F090808BF311880D
:104AE000BFF36F8F95F82410288C544B001B01F1F5
:104AF00017022C6B22F0030200FB0244EB1A504A0F
:104B0000E1719B1002FB03F3A371039D002DD8D02C
:104B100056EA070305D0B6F1FF3F08BFB7F1FF3FE4
:104B20003AD1A179454E342000FB01615246C96A51
:104B300009684B460F68204603A9B8472061002842
:104B400070D0039B9D424BD800220121A18022609E
:104B5000E381A281A060204605B0BDE8F08F404609
:104B60000EF05EF8002853D08BF31188BFF36F8FDF
:104B700028463A4633460EF0C5FA04460028C4D10A
:104B80000024E8E72F4930488E22FEF7F5FB2D4838
:104B90008E21FEF7E9FB78E710F0DEFD019BB3EB19
:104BA000000A029B63EB0109B9F1000FBCBF4FF093
:104BB000000A4FF00009B4E722492348B922FEF762
:104BC000DBFB2048B921FEF7CFFB74E71F491E48E5
:104BD000F422FEF7D1FB1D48F421FEF7C5FB45E7A3
:104BE0001A49194840F25512FEF7C6FB174840F221
:104BF0005511FEF7B9FB039B2069A5E7114912483F
:104C0000B922FEF7B9FB0F48B921FEF7ADFB65E706
:104C10000C490D48B922FEF7AFFB0A48B921FEF74F
:104C2000A3FBA1E7A07900EB400300EB8300214642
:104C300006EB80000EF05AFAA2E700BFEC04002059
:104C4000C54EECC424E80100C4E70100B4EA010049
:104C5000C16A49680968FFF7F7BE00BF2DE9F04156
:104C600000282FD01E4F8046002534264446D8F811
:104C700000802379013BDBB22371CBB92169A37991
:104C800059B16279920706FB037005D4C36A1B68A9
:104C900020469B689847A379256106FB037320464D
:104CA0009A6AA56025602AB19047B8F1000FDDD15E
:104CB000BDE8F081214618460EF018FAB8F1000F51
:104CC000D4D1F5E7074908484FF40472FEF754FBC6
:104CD000BDE8F04103484FF40471FEF745BB00BF47
:104CE000EC040020B4EA0100C4E7010010B504465A
:104CF00020B120462468002CFBD110BD0549064890
:104D00004FF41F72FEF738FB02484FF41F71FEF795
:104D10002BFBEEE7B4EA0100C4E7010038B50D460D
:104D2000044650B1B5B1216829B12B461A461B681B
:104D3000002BFBD11160256038BD1449144840F2A6
:104D40008722FEF719FB114840F28721FEF70CFB82
:104D5000002DE8D10D490E484FF42272FEF70CFBEE
:104D60000A484FF42271FEF7FFFA2368002BE2D0C5
:104D7000064907484FF41F72FEF7FEFA4FF41F7101
:104D80000248FEF7F1FA2168CFE700BFB4EA01005C
:104D9000C4E7010070B504460D460068A388E288A8
:104DA000A168C618D21A401A121A954203D82B4489
:104DB000A380304670BD4FF44A7207490748FEF79A
:104DC000DBFA05484FF44A71FEF7CEFAA3882B446C
:104DD000A380304670BD00BFB4EA0100C4E7010003
:104DE00083888B4270B5066804460D4606D332466A
:104DF0005B1B2A44A3802260304670BD40F2834290
:104E000005490648FEF7B8FA034840F28341FEF729
:104E1000ABFAA3882268EBE7B4EA0100C4E701001B
:104E200003688268C0889B1AC01A80B2704700BFAE
:104E3000032070470020704738B58C680D4634B1A8
:104E40000020A28924681044002CFAD10446284688
:104E500009F054FC08B9204638BD284601F0E2FBB1
:104E6000204638BD10B50C460AF094FA00280CBF55
:104E70002046002010BD00BF70B503689E6882B058
:104E800030460C4600F0CCF8A04208D0204609F08D
:104E90001BFC003818BF0120400002B070BD054661
:104EA000304600F0CBF80022282369462846CDE999
:104EB000002301F0CBFF40B18079A0F12C00B0FAC3
:104EC00080F04009013002B070BD0120E5E700BF6D
:104ED00038B50446A0F580754FF0FF324FF0FF3330
:104EE00028460DF0F1FEA4F59C7402E0206813F052
:104EF000D7FF206813F0E0FF0028F7D1206809F001
:104F0000C9F92846BDE838400DF0BEBF034B1B6809
:104F100008461A79196818F06FBF00BF7C39002065
:104F200008B5074800F088FB48B10368986830B1BD
:104F300000F59C71BDE8084050300EF015BD08BD6D
:104F40007805002008B5074800F076FB48B10368F3
:104F5000986830B100F59C71BDE8084050300EF003
:104F600003BD08BD78050020F0B50168254A8C68AE
:104F700085B00123054602928DF80C3004F1380605
:104F8000304604F59C770DF097FE1F4938460EF029
:104F90003BFC2B681D4A103313604FF0FF324FF07B
:104FA000FF3330460DF090FE0021084609F06AF903
:104FB00013F0ACFEC4E90005C0B10AF0A1F9144930
:104FC00054F8500B13F0D0FD30460DF05DFF02ABEE
:104FD00000934FF4C352002320460E490EF0ECFC20
:104FE000394620460EF0C0FC05B0F0BD0A490B481A
:104FF00040F2F112FEF7C0F9074840F2F111FEF756
:10500000B3F9DAE7E4EA0100D14E00007C39002070
:10501000654E000080820020F0EA0100C4E7010034
:10502000438902899A4203D0043350F82300704721
:10503000027B002AF8D11046704700BF43890289DD
:105040009A4208D001339BB20A2B08BF00230022EA
:10505000438102737047027B002AF3D1704700BF7F
:1050600038B590F8373082686FF38203044680F8D1
:105070003730CAB10D4639B98069214600F09EFE2D
:10508000012801D080B938BD94F8373043F00403CB
:1050900084F83730204601F0C1FCA3689B681B7878
:1050A00003F0F003602B04D02046BDE8384001F047
:1050B000B9BA2946204602F0BFF8E3E708B501F087
:1050C00009FF01F055F902F011F802F019FB02F0A6
:1050D0004DFC00F0A7FF01F02DFF01F029F80020A2
:1050E00008BD00BF002800F0848070B5836884B0DC
:1050F0000446002B7AD08369002B74D001F0DCFACF
:10510000204601F08BFC94F83530C3F34203022BA8
:105110000BD0A069214600F0D3FE022808BF6FF033
:10512000040000D0002004B070BDA3689D6801F0A9
:105130001BF9183501461022284618F04DFE0028AC
:1051400042D0A3689D68AB6905F1180E13B9EB69ED
:10515000002B3CD00021704600F0CEFAA36810B3BB
:105160009D6805F1180EA868E9682A696B69EC4624
:105170006646ACE80F00DEF80010DEF80420DEF82A
:105180000830DEF80C006861A960EA602B61A36852
:105190009D680FCEA861E9612A626B6201212046F9
:1051A000FFF75EFFBEE79B681A7EFF2A17D09A685A
:1051B000002AAED1DA68002AABD11A69002AA8D138
:1051C0005B69B3F1807FA4D16FF07C00ABE72B6A01
:1051D000002BBFD16B6AB3F1807FBBD1C3E75A7E8E
:1051E000012AE4D1DAE76FF015009CE76FF03C008C
:1051F00099E76FF03C007047836813B11B68002B80
:10520000FCD10021FFF72CBFA1B338B5054670B320
:105210008B680C462BB39A681AB39B890BB303684F
:10522000BFF35B8FDB68BFF35B8FDB071CD591F8A7
:10523000333043F00103084681F8333001F0EEFBD0
:105240002B68A5615B7D84F8253084F82D3094F8B7
:105250003C0001F065FE2146C0B201F055FE002081
:1052600038BD6FF03C0038BD6FF0720038BD6FF094
:10527000150038BD6FF01500704700BF10B504462B
:105280004FF0FF324FF0FF331C480DF01DFD1C4B5B
:105290001A6852B311684FF0FF3C4FF47A70D3692B
:1052A000128C1B1B00FB0233002B1BDD9C4528BF0F
:1052B0009C4611B10A460968F1E74FF4004340F2F9
:1052C000E730ECFB03014FF47A720023FAF768FF32
:1052D00002460B460B480EF081FC0848BDE8104022
:1052E0000DF0D2BD00221146F3E706480EF07CFC1B
:1052F0000248BDE810400DF0C7BD00BF30040020DB
:1053000078190020801900202DE9F04F864683B0DF
:10531000002860D000208B46314E324D0EF1040142
:10532000034604E00133062B01F1280153D003EBBF
:1053300083040EEBC4044FEA830C646A3440AC422D
:10534000F0D131F8044C022CECD10F8848F2FE0465
:10535000A742E7D00BF1FF3901F1FF380024019398
:1053600002E0DCB2802C39D019F8017F18F801AFC7
:10537000574504F10803F4D087EA0A0717F0800FB5
:10538000019B0DD104F108085FFA88F802E017F0DC
:10539000800F05D10134E4B27F00A045FFB2F6D101
:1053A0001778A742BED89C440EEBCC0C9CF8267014
:1053B0007F0709D53F2C07D89BF80070FF2FB1D18C
:1053C0009BF80170032FADD10133062B08461470F2
:1053D00001F12801ABD103B0BDE8F08F019BDFE7FD
:1053E00000FF020000010200F8B510F001FA4B01C5
:1053F0004201121A43EAD06363EB010394009B005D
:10540000241843EA927341EB0301CB0043EA54733F
:10541000C4F3103444EA43441D4F1E484FF0FF3399
:105420004FF0FF320DF050FC3B681BB300251968AC
:105430004FF47A7C2E46DA69188C121B0CFB002282
:10544000002A184604DD0546A1B10B460968F2E7BB
:105450001A687868B5B198422A6008BF7D6093F8F1
:1054600022201E6066F30002284683F822200546AB
:105470000029EAD12046FFF701FF0648BDE8F840C1
:105480000DF002BD98423A60E9D17A60E7E700BFCB
:1054900078190020300400202DE9F04710F0A8F919
:1054A0004B014401241A43EAD06363EB0103A200D9
:1054B0009B00121843EA947341EB0303DB0043EAB9
:1054C0005273C2F3103242EA43453D4F3D484FF01C
:1054D000FF334FF0FF320DF0F7FB3B68002B50D04D
:1054E0009A465AF81499B9F1000F01D0A9F114099C
:1054F0000AF11404294620464FF0FF364FF0020807
:1055000000F062FEA8B1864228BF0646D14525D0EC
:10551000B9F1000F22D0D9F8143003B1143BCA46B8
:105520000AF1140429462046994600F04DFE002851
:10553000E9D13B688AF8258043B19C4202D134E02E
:105540009C4223D01A461B68002BF9D10022114639
:10555000204600F01BFEB9F1000FDCD1731C10D007
:105560004FF4004340F2E7300021E6FB03014FF423
:105570007A720023FAF714FE02460B4612480EF028
:105580002DFB1048BDE8F0470DF07EBC7968DAF8D5
:10559000143013608C4210D000230022CAF814305B
:1055A0001146204600F0F2FDD5E77A68DAF81430AB
:1055B0003B609442F0D17B60EEE77A60ECE700BF9D
:1055C000401900203004002048190020002808DD80
:1055D000054B064A013803EBC000904228BF00206B
:1055E00070470020704700BF540500205C05002074
:1055F000F8B504460F4616461D460E484FF0FF32DA
:105600004FF0FF330DF060FB3CB12368BFF35B8FBD
:10561000DB68BFF35B8FDB0709D4236800241F61BD
:105620001E755D7503480DF02FFC2046F8BD4FF048
:10563000FF34F7E7300400202DE9F041104C114D04
:10564000114FDFF84880064607E0AC4214D22368C9
:1056500003B15B689E4210D00834AC42F5D939469C
:1056600040464FF41772FDF787FE4FF41771384626
:10567000FDF77AFEAC42EAD300242046BDE8F08173
:10568000540500205C0500202CEB0100C4E701005C
:1056900038B504460D4616484FF0FF324FF0FF3341
:1056A0000DF012FB8CB12368BFF35B8FDB68BFF397
:1056B0005B8F1B0609D5636873B105B12B600024AD
:1056C0000B480DF0E1FB204638BD6FF0850408481B
:1056D0000DF0DAFB204638BD064BD3F810221AB97C
:1056E0006360C3F81042E8E76FF00204E8E700BF28
:1056F00030040020883900202DE9F84F8146884683
:10570000284FDFF8B0A028484FF0FF324FF0FF33AA
:105710000DF0DAFA57451BD8574526D27E68A6B158
:10572000351D002404EB840306EBC3034FEA840B0E
:1057300093F826309B0703D535F8043C022B1BD089
:105740000134062C05F12805ECD108375745E3D97B
:105750001649174840F2AC52FDF70EFE134840F2CE
:10576000AC51FDF701FE5745D8D300260E480DF089
:105770008BFB3046BDE8F88F29461022484618F0CA
:105780002BFB0028DCD1B8F1000F01D0C8F8007065
:10579000A34406EBCB0604480DF076FB3046BDE88B
:1057A000F88F00BF54050020300400202CEB0100CE
:1057B000C4E701005C0500202DE9F8430446884653
:1057C0001B484FF0FF324FF0FF330DF07DFAD4F855
:1057D0000490B9F1000F24D009F1F407002505EB7E
:1057E000450309EBC303384693F804C11CF00106D6
:1057F00005F101054FF01002414603F5807407F1F1
:1058000018070CD018F0E8FA48B9237960F30003C0
:10581000237107480DF038FB3046BDE8F883082DAA
:10582000DDD1002602480DF02FFB3046BDE8F8839D
:10583000300400202DE9F04F87B00E46009000297B
:1058400064D04FF0FF3351484FF0FF320DF03CFA77
:10585000009BD3F80490B9F1000F54D009F104076C
:10586000002404EB840509EBC508A30098F826C0C2
:1058700001931CF0020F38464FF0100231464FEAF8
:10588000C50507F12807CCF3400A08F1200B37D0F3
:1058900018F0A2FAA0BB019B1A465B4693469B797F
:1058A000DB073FD5A34409EBCB0292F826306FF318
:1058B000410382F8263040F2FF2302930023ADF823
:1058C0000C30ADF80E30ADF81030B37BF07B727B4E
:1058D0008DF815204FF4807143EA0023ADF81210C3
:1058E000FF218DF81410ADF81630009802A9FFF7CB
:1058F00063FF26480DF0C8FA504607B0BDE8F08FA8
:105900000134062CADD14FF0000AF2E720492148BE
:1059100040F2DA62FDF730FD1D4840F2DA61FDF732
:1059200023FD8EE71C48036814354D443BB39D426C
:1059300017D019461B68002BB4D09D42F9D10BEB50
:10594000040309EBC3035B690B6043689D4206D007
:105950000BEB040309EBC30300215961A2E741608B
:10596000F6E74368D8F8141001609D420BD00BEBAA
:10597000040309EBC30300205861002992D10748B2
:105980000EF032F98EE74160F1E700BF30040020ED
:105990002CEB0100C4E70100401900204819002049
:1059A0002DE9F0470E46814690461F460D1D002406
:1059B00004EB840C06EBCC0C01349CF826C01CF0E4
:1059C000020F07D035F8043C022B03D195F82030A4
:1059D000012B05D0062C05F12805E9D1BDE8F0879B
:1059E000802F4FEAD70AF5D829465246404618F08C
:1059F000F3F90028EED17A4212F007024FF0FF03CC
:105A00000CD0C2F108018B4083F0FF03934015F8DE
:105A10000A1018F80A204A401A42DBD129464846A3
:105A2000FFF708FFD6E700BFF0B583B00FF0E0FE48
:105A300007460C464FF0FF3331484FF0FF320DF070
:105A400043F9304B1D68002D53D063017E01F61BD6
:105A500043EAD76363EB04039B0043EA9673B60003
:105A6000F61944EB0304E30043EA5673C6F3103619
:105A700046EA4346314628462C684FF0FF3700F08F
:105A8000A3FB68B1874228BF0746A5421ED0ECB1F0
:105A9000254631462846246800F096FB0028F1D1BF
:105AA00095F8253060F3410301A9286A85F825306F
:105AB000FFF7EEFD002805F11002E8DB95F8243031
:105AC0000199286AFFF76CFF002CE1D17B1C10D0F4
:105AD0004FF4004340F2E7300021E7FB03014FF4AD
