:1000000000980020C58A0000F9840000998A000049
:10001000998A0000998A0000998A00000000000077
:100020000000000000000000000000003986000011
:10003000998A000000000000A9850000998A00004C
:10004000BD870000BD870000BD870000BD870000A0
:10005000BD870000BD870000BD870000BD87000090
:10006000BD870000BD870000BD870000BD87000080
:10007000BD870000BD870000BD870000BD87000070
:10008000BD870000BD870000BD870000BD87000060
:10009000BD870000BD870000BD870000BD87000050
:1000A000BD870000BD870000BD870000BD87000040
:1000B000BD870000BD870000BD870000BD87000030
:1000C000BD870000BD870000BD870000BD87000020
:1000D000BD870000BD870000BD870000BD87000010
:1000E000BD870000BD870000BD870000BD87000000
:1000F000BD870000BD870000BD870000BD870000F0
:1001000001F0FF01102A2BDB10F0070F08D010F8C8
:10011000013B013A8B422DD010F0070F42B3F6D1CC
:10012000F0B441EA012141EA014122F007047FF0E5
:1001300000070023F0E80256083C85EA010586EA3C
:10014000010685FA47F5A3FA87F586FA47F6A5FA78
:1001500087F68EB9EED1F0BC01F0FF0102F0070284
:1001600032B110F8013B013A83EA010313B1F8D12F
:100170000020704701387047002D06BF3546033810
:10018000073815F0010F07D1013015F4807F02BF49
:10019000013015F4C03F0130F0BC0138704700BF9A
:1001A00053B94AB9002908BF00281CBF4FF0FF31DE
:1001B0004FF0FF3000F00CB8ADF1080C6DE904CE43
:1001C00001F0F8FADDF804E0DDE9022304B070473D
:1001D000704700BF2DE9F14F03F11C0402EB840CC2
:1001E0004FEA930B8A68CB680868496800F046F9C3
:1001F0003CE9F0006040694072407B400BF1060E24
:100200004EE083EA134480EA134582EA134746BA74
:1002100096EA3444604000F00F1684EA063420F079
:100220000F1684EA161054BA94EA0106724002F0DE
:100230000F1486EA043622F00F1486EA14124CBA20
:100240006540694001F00F1485EA043521F00F1470
:1002500085EA14115CBA67407B4003F00F1487EA0B
:10026000043723F00F1487EA141344BA44404DBAFC
:100270004D4056BA56405FBA5F4087EA174886EA53
:10028000174B84EA17464FEA38488BEA1B4485EA45
:100290001B4788EA1B4580EA3440694072407B4036
:1002A00000F0703400F0803500F00F3040EA440078
:1002B00040EAD50080EA900404F0332480EA840008
:1002C000604001F0703401F0803501F00F3141EAF7
:1002D000440141EAD50181EA910404F0332481EA22
:1002E0008401614002F0703402F0803502F00F3278
:1002F00042EA440242EAD50282EA920404F033243C
:1003000082EA8402624003F0703403F0803503F027
:100310000F3343EA440343EAD50383EA930404F02A
:10032000332483EA84036340C943DB4381EA000446
:1003300083EA044686EA020183EA014382EA3345FE
:1003400083EA14435C4084EA00077FEA040A8AEAED
:10035000024A8AEA010B87EA11488AEA374A80EAA8
:10036000060181EA1A418AEA030A04EA0A004540C2
:1003700088EA040707EA0B0041408AEA0B0608EA0C
:10038000060084EA34428AEA3A4602EA0603584002
:100390004540414087EA37438BEA3B4003EA000986
:1003A00085EA090582EA0309464006EA0906714022
:1003B00085EA010005EA3546464006EA314181EA10
:1003C000304181EA364606EA304686EA3546344010
:1003D0000F4086EA010508EA050886EA3640024031
:1003E00088EA020881EA314213405C4080EA020355
:1003F00009EA030987EA0907674088EA040806EA68
:100400000A0601EA0B018AEA0B0425408AEA3A440B
:10041000204045408BEA3B4B02EA0B02564084EAFF
:100420000B04234059406E40694087EA364080EA19
:10043000384080EA060380EA104481EA134585EAE1
:10044000344585EA17427D4082EA354180EA05401D
:100450003CE9F0006040694072407B40BEF1010E13
:100460003FF6CFAE20BC00F05FF828606960AA605C
:10047000EB60BDE8F08F00BF00F000BA80EA101416
:1004800004F0F01480EA0410604081EA111404F0D2
:10049000F01481EA0411614082EA121404F0F014AD
:1004A00082EA0412624083EA131404F0F01483EA2F
:1004B0000413634080EA102404F47F4480EA04209B
:1004C000604081EA112404F47F4481EA0421614000
:1004D00082EA122404F47F4482EA0422624083EA1E
:1004E000132404F47F4483EA0423634081EA500424
:1004F00004F0553480EA4400614083EA520404F079
:10050000553482EA4402634082EA900404F03334B2
:1005100080EA8400624083EA910404F0333481EA83
:1005200084016340704700BF82EA900404F03334D2
:1005300080EA8400624083EA910404F0333481EA63
:100540008401634081EA500404F0553480EA440099
:10055000614083EA520404F0553482EA4402634065
:1005600080EA102404F47F4480EA0420604081EA99
:10057000112404F47F4481EA0421614082EA1224B8
:1005800004F47F4482EA0422624083EA132404F4E0
:100590007F4483EA0423634080EA101404F0F014DB
:1005A00080EA0410604081EA111404F0F01481EA3A
:1005B0000411614082EA121404F0F01482EA041279
:1005C000624083EA131404F0F01483EA04136340D6
:1005D000704700BF2DE9F14F94464FEA930B8A68AC
:1005E000CB6808684968FFF749FF0BF1060E33E056
:1005F00083EA134480EA134582EA134746BA96EA2F
:100600003444604000F00F1684EA063420F00F16E0
:1006100084EA161054BA94EA0106724002F00F14EC
:1006200086EA043622F00F1486EA14124CBA6540AA
:10063000694001F00F1485EA043521F00F1485EAB2
:1006400014115CBA67407B4003F00F1487EA04374B
:1006500023F00F1487EA1413BCE8F00060406940EF
:1006600072407B4000F0E03400F0103500F00F30B5
:1006700040EA540040EAC50080EA900404F03324C4
:1006800080EA8400604001F0E03401F0103501F0B0
:100690000F3141EA540141EAC50181EA910404F0B5
:1006A000332481EA8401614002F0E03402F0103525
:1006B00002F00F3242EA540242EAC50282EA920490
:1006C00004F0332482EA8402624003F0E03403F051
:1006D000103503F00F3343EA540343EAC50383EABA
:1006E000930404F0332483EA8403634081EA3247AD
:1006F00087EA134581EA354690EA060484EA034B0B
:1007000082EA1B4280EA044484EA054483EA144AEC
:1007100085EA14448BEA044B84EA374481EA0B41AE
:1007200081EA164104EA0A00454082EA04082BEAFD
:10073000080041408AEA0B0602EA060084EA3443D4
:100740008AEA3A4603EA060778404540414088EA8B
:1007500038478BEA3B4007EA000985EA090583EA46
:100760000709464006EA0906714085EA010005EAE4
:100770003546464006EA314181EA304181EA364653
:1007800006EA304686EA3546344008EA010886EA39
:1007900001052A4086EA364003405A4081EA314347
:1007A0001F407C4080EA030709EA070988EA090834
:1007B000544088EA020806EA0A0601EA0B018AEABE
:1007C0000B0215408AEA3A42104045408BEA3B4012
:1007D00003405E404240174079404D404E40E44364
:1007E000F64386EA18435D4085EA054083EA1343F1
:1007F00086EA034183EA384284EA114383EA0443E8
:100800005FEA3343BEF1010E3FF6F2AE1ED4BCE800
:10081000F0006040694072407B4020BCFFF784FEDE
:1008200028606960AA60EB60BDE8F08F2DE9E041C7
:100830004FF2F00280EA1031114080EA0130484066
:1008400041088208C3084FF0000E4FE700F0113056
:1008500001F0113102F0113203F0113340EA41008E
:1008600040EA820040EAC3004FF2F00280EA103111
:10087000114080EA01304840BDE8E0812DE9F04FA9
:1008800002F11C050646074600EB850851F8040BEB
:10089000043A46F8040BF9D14FF0010CFFF7C6FFFC
:1008A0005FEA302080EA0C001ECF41404A405340AE
:1008B0005C401EC62000464517D04FEA4C0C1CF485
:1008C000807F18BFACF1E50C2C2DE7D03C2D06D174
:1008D000FFF7ACFF06CF41404A4006C6100006CFE6
:1008E00041404A4006C61000D8E736E90F00FFF73E
:1008F000C5FD043D86E80F00F7D1BDE8F08F00BFCD
:100900002DE9F00391E8F803B2E802105B1854EB0C
:100910000C04B2E802104D4156EB0C0692E80610AA
:100920004F4158EB020859EB0C0980E8F80380416D
:100930000130BDE8F00370472DE9F00391E8F803BA
:10094000B2E802105B1A74EB0C04B2E802108D419D
:1009500076EB0C0692E806108F4178EB020879EBF3
:100960000C0980E8F80380414042BDE8F00370477D
:100970002DE9F003524290E83800B1E880031740B7
:10098000DB1918EA020854EB080419EA020955EBCE
:10099000090538C090E8780091E8820311404B4186
:1009A00017407C4118EA020855EB080519EA0209CC
:1009B00056EB090678C080410130BDE8F00370476E
:1009C0002DE9F003524290E83800B1E88003174067
:1009D000DB1B18EA020874EB080419EA020975EB3C
:1009E000090538C090E8780091E8820311408B41F6
:1009F0001740BC4118EA020875EB080519EA02091C
:100A000076EB090678C080414042BDE8F0037047AC
:100A10002DE9F00152424FF0030890E8300091E8D0
:100A2000C000A31B1340E41AF618EB1B1340ED1A89
:100A3000FF1830C0C0C1B8F10108EED104680E68DB
:100A4000A31B1340E41AF61804600E60BDE8F00121
:100A5000704700BF00B592EC070AB1E8005E07EEF0
:100A6000101A56EC102A58EC117AA9FB0250AAFB76
:100A70000234E9FB6603EBFB624340EC145AAAFB29
:100A80000605ECFB6235E9FB6740E9FB6830EEFBED
:100A90006250AAFB0721EAFB6851EBFB680112EEEA
:100AA000108AEBFB6632ECFB6652EAFB6802EBFB5A
:100AB000681243EC154AA9FB084312EE908AE9FB41
:100AC0006803EAFB6813EBFB6823EBFB6754EEFB60
:100AD000660413EE108AE9FB6814EAFB6824EBFB5A
:100AE000683406EE105A17EE109A99E8000CACFB29
:100AF000076511EE909AECFB6915EEFB6925EAFBA0
:100B00006935EBFB694510EE109AEAFB6906EBFBD1
:100B1000691612EE109AECFB6926EEFB6936EAFBC9
:100B20006946EBFB695610EE909AAAFB0987EBFB2E
:100B3000692712EE909AECFB6937EEFB6947EAFBF6
:100B40006957EBFB696711EE109AEEFB6918EAFB37
:100B50006928EBFB693813EE109AECFB6948EEFB51
:100B60006958EAFB6968EBFB697800BD2DE9F04F35
:100B700007EE900AFFF76EFF17EE909AA9EC054A70
:100B800089E8FF01BDE8F08F00B591E8805FA7FB21
:100B90000750A7FB0834E7FB6803E7FB694340EC19
:100BA000145AA7FB0905E7FB6A35E8FB6840E7FB39
:100BB0006A30E7FB6B50A8FB0921E7FB6B51E7FBB1
:100BC0006C01E8FB6932E8FB6A52E7FB6C02E7FB69
:100BD0006E1243EC154AA8FB0A43E8FB6B03E7FBE4
:100BE0006E13E8FB6E23E9FB6954E8FB6B04E8FB3A
:100BF0006C14E8FB6E24E9FB6E3406EE105AA9FB78
:100C00000A65E8FB6C15E9FB6C25E9FB6E35EAFB30
:100C10006E45E9FB6A06E9FB6B16E9FB6C26EAFB0D
:100C20006C36EAFB6E46EBFB6E56A9FB0B87EAFBC4
:100C30006B27EAFB6C37EBFB6C47EBFB6E57ECFB6F
:100C40006E67EAFB6A18EAFB6B28EBFB6B38EBFB81
:100C50006C48ECFB6C58ECFB6E68EEFB6E7800BDEC
:100C60002DE9F04F07EE900AFFF78EFF17EE909AEE
:100C7000A9EC054A89E8FF01BDE8F08F2DE9F007EE
:100C800091E8F807B2E802105B1854EB0C04B2E8E4
:100C900002104D4156EB0C06B2E802104F4158EBE2
:100CA0000C08B2E8021059EB01095AEB0C0A80E873
:100CB000F80780410130BDE8F00770472DE9F007E3
:100CC00091E8F807B2E802105B1A74EB0C04B2E882
:100CD00002108D4176EB0C06B2E802108F4178EBE2
:100CE0000C08B2E8021079EB01097AEB0C0A80E8F3
:100CF000F80780414042BDE8F00770472DE9F00752
:100D0000524290E87800B1E880071740DB1918EAF2
:100D1000020854EB080419EA020955EB09051AEA1E
:100D2000020A56EB0A0678C090E87800B1E880071E
:100D300017407B4118EA020854EB080419EA02093B
:100D400055EB09051AEA020A56EB0A0678C08041FB
:100D50000130BDE8F00770472DE9F007524290E8F6
:100D60007800B1E880071740DB1B18EA020874EB33
:100D7000080419EA020975EB09051AEA020A76EB7A
:100D80000A0678C090E87800B1E880071740BB41B8
:100D900018EA020874EB080419EA020975EB090560
:100DA0001AEA020A76EB0A0678C080414042BDE8A2
:100DB000F00770472DE9F00152424FF0040890E827
:100DC000300091E8C000A31B1340E41AF618EB1B97
:100DD0001340ED1AFF1830C0C0C1B8F10108EED1C0
:100DE000BDE8F001704700BF00B592EC080AB1E819
:100DF000805707EE101A53EC102A56EC114AA7FB45
:100E00000251A8FB020BE7FB6310E9FB62B041EC67
:100E1000145AA8FB0351EAFB6201E7FB64B5E7FB48
:100E20006605E8FB661505EE10BAA9FB03B6EAFBFA
:100E30006316ECFB6356E8FB640BE9FB641BEAFBFF
:100E4000645BECFB646B05EE900AACFB023012EEC7
:100E5000104AEEFB6250E9FB6460EAFB64B0E7FB1A
:100E60006431E8FB645112EE904AE8FB6461E9FBEF
:100E700064B1EAFB640106EE103AA7FB043213EEFC
:100E8000104AE7FB6462E8FB64B2E9FB6402EAFB38
:100E9000641211EE904AE9FB6453EAFB646313EEBB
:100EA000904AE7FB64B3E8FB6403E9FB6413EAFBE5
:100EB000642306EE905A17EE109A99E8000610EE99
:100EC000108AA9FB0854EAFB68B412EE108AECFB06
:100ED0006804EEFB6814E9FB6824EAFB683410EE52
:100EE000908AEEFB6865E9FB68B5EAFB680512EEDF
:100EF000908AECFB6815EEFB6825E9FB6835EAFB98
:100F0000684507EE106A11EE108AAEFB0876E9FB21
:100F10006806EAFB681613EE108AECFB6826EEFB07
:100F20006836E9FB6846EAFB685611EE908AECFBEE
:100F300068B7EEFB6807E9FB6817EAFB682713EE62
:100F4000908AECFB6837EEFB6847E9FB6857EAFBE1
:100F5000686700BD2DE9F04F07EE900AFFF744FFE8
:100F600017EE908A07EE90BAA8EC084A88E8FF00CE
:100F7000BDE8F08F00B591E89857A3FB0352A3FB9F
:100F80000401E3FB6420E3FB671042EC145AA3FB6B
:100F90000752E3FB6802E4FB6415E3FB6805E3FB2F
:100FA0006925A4FB07B6E3FB6926E3FB6A56E4FB6D
:100FB000670BE4FB682BE3FB6A5BE3FB6C6B40ECC9
:100FC000151AA4FB0810E4FB6950E3FB6C60E3FB1B
:100FD0006EB0E7FB6721E4FB6951E4FB6A61E3FB68
:100FE0006EB1E4FB6E0106EE102AA7FB0832E4FBAB
:100FF0006A62E4FB6CB2E4FB6E02E7FB6E12E7FB95
:101000006853E7FB6963E4FB6CB3E7FB6C03E7FB46
:101010006E13E8FB6E2306EE905AA7FB0954E7FB1C
:101020006AB4E7FB6C04E8FB6C14E8FB6E24E9FB94
:101030006E34E8FB6865E7FB6AB5E8FB6A05E8FB28
:101040006C15E9FB6C25E9FB6E35EAFB6E4507EE96
:10105000106AA8FB0976E8FB6A06E9FB6A16E9FB59
:101060006C26EAFB6C36EAFB6E46ECFB6E56E8FB40
:1010700069B7E9FB6907E9FB6A17EAFB6A27EAFB3C
:101080006C37ECFB6C47ECFB6E57EEFB6E6700BDFC
:101090002DE9F04F07EE900AFFF76CFF17EE908AEC
:1010A00007EE90BAA8EC084A88E8FF00BDE8F08F88
:1010B00030B44FF0000310F8014B11F8015B013A16
:1010C00084EA050443EA0403F5D1A3F101034FEADE
:1010D000D37030BC704700BF4FF0000310F8012BF5
:1010E000013943EA0203F9D1A3F101034FEAD370B6
:1010F000704700BF30B411F8014B12F8015B6C402F
:1011000000F8014B013BF6D130BC70472DE9F003EC
:1011100091E8F803B2E802105B1854EB0C04B2E853
:1011200002104D4156EB0C0692E806104F4158EB69
:10113000020859EB0C098941013B74F1000475F177
:10114000000576F1FF3677F1FF3778F1FF3879F156
:10115000FF3951F1000113EBD17354F1000455F143
:1011600000054E414F4158EB010859EB010980E859
:10117000F803BDE8F00370472DE9F00391E8F803A8
:10118000B2E802105B1A74EB0C04B2E802108D4155
:1011900076EB0C0692E806108F4178EB020879EBAB
:1011A0000C09894113EBD17354F1000455F100058A
:1011B0004E414F4158EB010859EB010980E8F80313
:1011C000BDE8F003704700BF2DE9F04F07EE900A2D
:1011D000FFF740FC5AEC359AB9EB05097AEB060AA1
:1011E000B84171EB080172F1000273F1000374F170
:1011F00000046BEB0B0B491972417B4154EB080463
:101200004BF1000557EC146A15EE108ABEEB0E0E7A
:1012100059EB02095AEB030A604169415EF1000E85
:1012200096419F4178EB040879EB05097AF1000AB1
:1012300070F1000B71F1000C6EF1010E16EBDE7611
:1012400057F1000758F1000859EB0E095AEB0E0A46
:101250005BEB0E0B5CEB0E0C17EE900A80E8C01FE8
:10126000BDE8F08F2DE9F04F07EE900AFFF78CFCF8
:10127000B0E700BF2DE9F00791E8F807B2E80210E7
:101280005B1854EB0C04B2E802104D4156EB0C060F
:10129000B2E802104F4158EB0C08B2E8021059EBCB
:1012A00001095AEB0C0A8941B3F1FF3374F1FF34A1
:1012B00075F1FF3576F1000677F1000778F1000847
:1012C00079F101097AF1FF3A51F100015B184C41C3
:1012D0004D4156F1000657F1000758F1000859EB4F
:1012E000D1795AEB010A80E8F807BDE8F0077047AA
:1012F0002DE9F00791E8F807B2E802105B1A74EBE9
:101300000C04B2E802108D4176EB0C06B2E8021034
:101310008F4178EB0C08B2E8021079EB01097AEB07
:101320000C0A89415B184C414D4156F1000657F1BA
:10133000000758F1000859EBD1795AEB010A80E80F
:10134000F807BDE8F007704718EB040859EB0509EA
:101350005AEB060A5BEB070B5FF0000C4CF1000C3C
:1013600018EB050859EB06095AEB070A5BEB070B6C
:1013700050EB0C005FF0000C51EB0C0152EB0C0237
:1013800063414CF1000CB8EB070879F100097AF1E0
:10139000000A7BEB040BA841B141A241B3416CF1BF
:1013A000000CBBEB050BB041B941AA41BB416CF14C
:1013B000000C6FEAEC74B8EB040879EB04097AEBE3
:1013C000040A7BF1000B70F1000071F1000172EB77
:1013D000D472A3416CF1000C18EBEC7859EBEC796A
:1013E0005AEBEC7A5BF1000B50F1000451F100056F
:1013F00052EBDC7653EBEC774CF1000C18EBEC7015
:1014000059EBEC715AEBEC725BF1000354F1000400
:1014100055F1000556EBDC7657EBEC77704700BFD3
:101420002DE9F04F07EE900AFFF7DEFC59EC168A23
:1014300017EE10AAFFF788FF59EC148A5BEC15AA87
:10144000FFF782FF17EE908A88E8FF00BDE8F08F73
:101450002DE9F04F07EE900AFFF78CFD59EC168A44
:1014600017EE10AAFFF770FF59EC148A5BEC15AA6F
:10147000FFF76AFF17EE908A88E8FF00BDE8F08F5B
:101480002DE9F04F90E8F00F00F140004FF0040E0E
:1014900059E0F0B4826BC36B046805252426875994
:1014A0003C444FEA724787EAF24787EA92273C4476
:1014B00042684FEAF21787EAB24787EAD2073C440C
:1014C00040F8044B032D08BF6FF01B0687593A44C0
:1014D0004FEA734787EAF34787EA93273A4443681A
:1014E0004FEAF31787EAB34787EAD3073A4440F84D
:1014F000042B87593B444FEA744787EAF44787EA4D
:1015000094273B4444684FEAF41787EAB44787EAD4
:10151000D4073B4440F8043B013DC0D1A0F13C005E
:10152000076A3C444FEA724787EAF24787EA922704
:101530003C4402684FEAF21787EAB24787EAD207CB
:101540003C44C463F0BC4FF0020288EA781C8CEA89
:10155000F84C0BEBBC1C8AEA090303EA080383EA94
:101560000A039C4450F8043B9C4451F8043B9C44BF
:10157000674444EA050B0BEA060B04EA05034BEA51
:10158000030BE34484EAF42383EA34530BEBB30BF9
:1015900087EA771C8CEAF74C0AEBBC1C89EA080343
:1015A00003EA070383EA09039C4450F8043B9C4484
:1015B00051F8043B9C4466444BEA040A0AEA050AD3
:1015C0000BEA04034AEA030AE2448BEAFB2383EAB8
:1015D0003B530AEBB30A86EA761C8CEAF64C09EB1D
:1015E000BC1C88EA070303EA060383EA08039C4459
:1015F00050F8043B9C4451F8043B9C4465444AEA3F
:101600000B0909EA04090AEA0B0349EA0309E14460
:101610008AEAFA2383EA3A5309EBB30985EA751C8F
:101620008CEAF54C08EBBC1C87EA060303EA0503C9
:1016300083EA07039C4450F8043B9C4451F8043B64
:101640009C44644449EA0A0808EA0B0809EA0A03C8
:1016500048EA0308E04489EAF92383EA395308EBAE
:10166000B30884EA741C8CEAF44C07EBBC1C86EAD1
:10167000050303EA040383EA06039C4450F8043B91
:101680009C4451F8043B9C44E34448EA090707EAB8
:101690000A0708EA090347EA0307674488EAF823C8
:1016A00083EA385307EBB3078BEA7B1C8CEAFB4CCD
:1016B00006EBBC1C85EA040303EA0B0383EA05037B
:1016C0009C4450F8043B9C4451F8043B9C44E24445
:1016D00047EA080606EA090607EA080346EA030697
:1016E000664487EAF72383EA375306EBB3068AEAB0
:1016F0007A1C8CEAFA4C05EBBC1C84EA0B0303EA67
:101700000A0383EA04039C4450F8043B9C4451F8C8
:10171000043B9C44E14446EA070505EA080506EA5D
:10172000070345EA0305654486EAF62383EA365350
:1017300005EBB30589EA791C8CEAF94C04EBBC1C77
:101740008BEA0A0303EA090383EA0B039C4450F87B
:10175000043B9C4451F8043B9C44E04445EA0604A5
:1017600004EA070405EA060344EA0304644485EA3C
:10177000F52383EA355304EBB304013A7FF4E5AE75
:10178000A0F14000BEF1010E7FF483AEA0F1400C49
:101790009CE80F00001949199219DB19ACE80F00F9
:1017A0009CE80F004044494452445B44ACE80F00BD
:1017B000BDE8F08F2DE9F04786468C460846089E26
:1017C000154674461946002B40F0C2808542B2FA95
:1017D00082F245D94AB1C2F1200300FA02FC2EFA86
:1017E00003F3954043EA0C0C94404FEA154EA8B21F
:1017F000BCFBFEF8230C0EFB18CC08FB00F943EAF7
:101800000C43994528D9EB1808F1FF3704D29945C4
:1018100002D9A8F102072B44A3EB0903A4B2B3FB3E
:10182000FEFC0EFB1C330CFB00F044EA0344A04218
:1018300014D92C190CF1FF3304D2A04202D9ACF117
:1018400002032C44241A43EA07401EB1D44000236B
:1018500034607360BDE8F0874746DDE76346F1E733
:1018600092BB431B01214FEA154EAFB2B3FBFEFC06
:10187000200C0EFB1C330CFB07F840EA0343984591
:1018800062D9EB180CF1FF3004D2984502D9ACF1C3
:1018900002002B44A3EB0803A4B2B3FBFEFC0EFB37
:1018A0001C330CFB07F744EA0344A7424ED92C191A
:1018B0000CF1FF3304D2A74202D9ACF102032C444D
:1018C000E41B43EA0040C0E7C2F1200320FA03F121
:1018D000954090402EFA03F303434FEA154EAFB202
:1018E000B1FBFEFC0EFB1C10190C0CFB07F841EAC7
:1018F0000041884504FA02F422D969180CF1FF303E
:1019000004D2884502D9ACF102002944A1EB0801B8
:101910009BB2B1FBFEFC0EFB1C110CFB07F743EA6C
:1019200001439F420ED9EB180CF1FF3104D29F42C4
:1019300002D9ACF102012B44DB1B41EA004192E7E2
:101940006046E3E76146F7E76046A3E76346B7E72B
:10195000834206D916B9002108467BE7C6E900E0B4
:10196000F9E7B3FA83F78FB9834201D3724508D8F8
:10197000BEEB020460EB030301209C461EB900216C
:1019800068E73846FAE7C6E9004CF8E7C7F1200CEB
:10199000BB4022FA0CF41C432EFA0CF120FA0CF393
:1019A000B84001434FEA14490EFA07F5B3FBF9F8C2
:1019B0001FFA84FE09FB18300B0C08FB0EFA43EAF1
:1019C00000439A4502FA07F240D9E31808F1FF30C4
:1019D00004D29A4502D9A8F102002344A3EB0A03DA
:1019E00089B2B3FBF9F809FB183308FB0EFE41EA94
:1019F00003418E452CD9611808F1FF3304D28E457E
:101A000002D9A8F10203214443EA0040A0FB029856
:101A1000A1EB0E014145CE46434602D306D14D45CA
:101A200004D2B9EB020E68EB04030138002EA6D0F5
:101A3000B5EB0E0261EB030101FA0CFC22FA07F38D
:101A40004CEA0303F940C6E9003198E74046C5E790
:101A50004346D9E710F8012B11F8013B012A28BFB2
:101A60009A42F7D0D01A7047034613F8012B002A88
:101A7000FBD1181A0138704710B54FF0FF331E48DC
:101A80004FF0FF3216F098FD1C4B0024BFF35B8F24
:101A90001A68BFF35B8F7AB10134042C03F1200381
:101AA000F4D107F0F7FA172303604FF0FF34124820
:101AB00016F062FE204610BDBFF35B8F53E8001F97
:101AC000013143E80012002AF8D1BFF35B8F9FED8C
:101AD000087B0B4800EB441383ED007B63010C3360
:101AE000184416F061FD044816F046FE204610BD6D
:101AF0000000000000000000180400205013002027
:101B0000481300200000000070B59FED137B84B0E7
:101B100000248DED007B0294234605460AF06EF802
:101B2000061E0DDB2B68009328460D49002200237A
:101B30000AF0FEF9051EA8BF204608DB04B070BD00
:101B400007F0A8FA764206604FF0FF30F6E707F09C
:101B5000A1FA6D420560F7E7008001000000000077
:101B60009D610000000000002DE9F04F2DED028B7B
:101B700083B088460E9F9DF8449015461E46044645
:101B8000002800F0E080B64B984279D2B549B648BB
:101B900040F2A95203F01EFCB24840F2A95103F0F2
:101BA00011FCB4F89630D90740F15081B9F1000F1B
:101BB0005AD196B1C3F3C202022A08BF4FF00009FE
:101BC00056D1172F54D9726806F1040A42B9B26887
:101BD00032B9F26822B9326912B96FF078063DE085
:101BE000E26A002A51D094F99800B9F1000F01D0AF
:101BF000002D66D008F0B6FA40B10368BFF35B8FE2
:101C0000DB68BFF35B8FDB0740F123819FED928B95
:101C100094F9980008F0A6FA8DED008BB4F89620A0
:101C200094F89430C2F3C20229460AF0DDFD07465B
:101C3000002866D094F8941044610AF019FCA84278
:101C40004DD30F9BA364109B2360B4F89430112BE9
:101C50004ED06FF07A0638460AF0C0FB304603B02B
:101C6000BDEC028BBDE8F08F002FA2D1002E50D02A
:101C70006FF01506304603B0BDEC028BBDE8F08F67
:101C800003F5C36398428CD380E7226B002AAAD164
:101C9000626B002AA7D1A26B002AA4D11A05A2D494
:101CA000504608F0DBFF0746002800F0C3803846A6
:101CB00009F002F940B284F89800B9F1000F97D109
:101CC00098E7D9F80C10002994D0D9F8082002EB35
:101CD000C101536808328A421D44FAD18AE7B4F838
:101CE0009630C3F38113022B00F0C9800546A8E7A4
:101CF000B4F89630C3F3C203022B41D06FF015063F
:101D0000A9E76FF06806304603B0BDEC028BBDE872
:101D1000F08FB8F1000F3FF460AFC3F3C202022AA4
:101D2000A6D1D8E900670EB1C1464AE7E26A04F1DC
:101D3000280604F12C0AEAB194F99800C146002D56
:101D40007FF458AFBDE740F2A9524649464803F038
:101D500041FB444840F2A95103F034FB4349424857
:101D600040F25B1203F036FB404840F25B1103F097
:101D700029FB16E7226BC146002A3FF42AAF85E70C
:101D80005346002239462046B6F802A009F0FEFE6E
:101D9000061EFFF660AF204609F064FE8346C0B120
:101DA000BBF1000F6EDB38460AF05AFDB4F89630EE
:101DB000C3F3C203022B37D0384607F05FFF061E7D
:101DC000FFF649AF2E46304603B0BDEC028BBDE8AE
:101DD000F08FE18B524638460BF08CFE834600288C
:101DE000DED1AA46B9F1000F42D0D9F80C303BB988
:101DF000D9E7BAEB080AD6D0D9F80C305B45D2D96E
:101E0000D9F8083003EBCB0253F83B105368534525
:101E100028BF53461A46384698460AF02FFF061E3A
:101E20000BF1010BE5DA16E794F8941038460BF045
:101E3000DFF8C1E70D490C4840F2912203F0CAFADD
:101E40000A4840F2912103F0BDFA30E76FF008062E
:101E500004E76FF0720601E7008000000000000058
:101E60005843002054AE030020A9030018AA030021
:101E70002A46414638460AF001FF834690E76FF054
:101E80000B06EBE65E46E6E62DE9F047054686B032
:101E90009946002428230F46CDE9024390460AF0D4
:101EA000DFFC02A928460AF007FF002800F0D080D6
:101EB00083793A2B064666D0112B61D0062B5CD075
:101EC000AC68002C00F0B5804FF0000CA3892468AA
:101ED0009C44002CFAD195F82430A8699FED5E7BD4
:101EE000022202FB03CC8DED007B0CF104013A23AE
:101EF0000AF07AFC0446002800F0A78095F8242018
:101F0000296A0AF0BBFEB0F1000A2FDBA3689B68C8
:101F1000A36295F82C20A96A20460AF0AFFEB0F122
:101F2000000A23DBA06895F82C10083007F016FB98
:101F3000A06850F8083F236295F8241007F00EFBC4
:101F400095F82C3084F8243095F8243084F82C301F
:101F5000337EFF2B06F1180163D006F108022046FC
:101F60000BF006F8064620B36FF0040A20460AF08C
:101F700035FA504606B0BDE8F0874FF03C0CAAE7B2
:101F80004FF0300CA7E703990494042328460593E7
:101F90000AF06CFC04A928460AF08EFE002845D001
:101FA00090F90130A34241DA28460AF059FCB3798E
:101FB00082E704904FF0040A04A92046CDF814A04B
:101FC0000AF07AFE0028CFD080F801800770867072
:101FD000C67004A920460AF095FE0028C4D1042F3B
:101FE00029D05246014620460AF04CFC8246204643
:101FF0000AF020FABAF1000FB8D10246294620466D
:102000000AF056FC0028B1D120460AF029FC3A21FA
:1020100020460AF0EDFF204607F030FE0028A5DB41
:10202000A7E7A06908F096FD014696E76FF0150A4C
:102030009FE7A4464FE799FA89F33A4604A9204658
:1020400004930AF01BFE8246D1E76FF00B0A90E77B
:102050006FF0040A8DE700BF008000000000000060
:1020600000B589B09FED0E7B06ABCDE9063302AA21
:102070008023CDE9022200930B4A02AB8DED047B55
:102080000BF0B8FD002805DB4FF48042002302A8C6
:1020900016F0B0FD09B05DF804FB00BFAFF300809F
:1020A00000000000010000009DDD000000000000B5
:1020B000474BD3F80423900702D5D3F804218AB9FB
:1020C0004FF02003EFF3118283F31288BFF36F8F79
:1020D0003F4BD3F80413C9030ED482F31188BFF326
:1020E0006F8F70473B4A0021C3F80411D3F80431C5
:1020F000136801331360E3E7F0B53749BFF35B8F33
:1021000083B051E8000F20F0010441E80045002DA4
:10211000F7D1BFF35B8F40B9D3F840312BB982F3CD
:102120001188BFF36F8F03B0F0BD29480023C0F8BA
:102130004031D0F8403182F31188BFF36F8F254BC7
:102140001B68190A1B06BFF35F8FD0F80425D3184C
:1021500041F10001B2F5801F0AD2204AD2E90045C0
:10216000A34271EB050203D213F1807341F1000128
:102170004FF02002EFF3118C82F31288BFF36F8FC0
:10218000174AD2E90245A342A94118D39FED0E7B1D
:102190000F4E1168536800204FF4803782ED027BA8
:1021A0001060C6F848738CF31188BFF36F8F002955
:1021B000B9D0009322462B46884703B0F0BD8CF37C
:1021C0001188BFF36F8FAEE7FFFFFFFFFFFFFFFF39
:1021D00000100140944B00208C4B002098150020EB
:1021E00080150020000000002DE9F0472DED028B46
:1021F0009FED358BDFF8D880DFF8D8A082B0074696
:1022000000F595694FF0FF334FF0FF32484616F066
:1022100027FC43680446002B44D0257A0235EDB2F2
:10222000802D2ED88DED008B002338681A46294664
:102230000AF0EEFA064680B361682A4610310AF0C9
:102240001DFD0546D8B9237C86F84230A17C96F85E
:102250004430627C61F3410386F84430386886F884
:102260004320314607F09CFD0028606826DA10F014
:10227000D5FE0023636030460AF0B0F8C2E760681C
:10228000F5E7414650464FF4457203F0A3F84FF48A
:102290004571404603F096F8C4E7606810F0BEFE52
:1022A0006660AFE74146504640F2053203F092F8CF
:1022B00040F20531404603F085F8AEE710F0AEFE7F
:1022C00065609FE7AFF300800000000000000000A1
:1022D000C4B1030020A903000A7B02B97047F0B51E
:1022E0000B4691F800C049790CF1010C8909ACEB5F
:1022F000020C01299BB0864600EB0C0411D0022988
:1023000030D13D4D501C05232880AB7021464E2313
:10231000E81C37F083FA28461BB0BDE8F0400EF009
:1023200007BD9FED337B8DED007B8DED027B4FF084
:1023300080501EF80C60D0F8A810D0F8A400B4F8B3
:102340000570049089B20090D4F80100ADF80C70CB
:1023500004AD0591ADF8041002902EB1022E01D10A
:10236000112A1DD01BB0F0BD4B2AFBD12146DC79D0
:102370009879DB7A8DF8153004F0030340EA0320E6
:102380004F23ADF81300ADF810300DF11600022305
:102390008DF8123037F034FA28460EF0C9FCE1E728
:1023A0005EF80C20CDF816206268CDF81A20227C49
:1023B0008DF82620DA79A668E168DC7A9B79CDF879
:1023C000221002F0030243EA0223152104222846C8
:1023D000CDF81E60ADF813308DF81540ADF8101033
:1023E0008DF812200EF0A4FCBCE700BFAFF3008014
:1023F0000000000000000000744D002000000000FC
:1024000010B58C1882B018F08FFF43014A011B1AD7
:1024100042EAD06262EB0102920042EA93729B00B0
:102420001B1841EB0200C00040EA5370C3F31033A5
:1024300043EA4043E41A002C16DD4FF4004340F217
:10244000E7300021E4FB03014FF47A720023FDF72B
:10245000A7FE9FED097B02460B4609488DED007BE8
:1024600019F050F802B010BD064B01221A7002B0EC
:10247000BDE8104007F098B900000000000000001F
:1024800050030020696B00202DE9F04385B004461D
:102490000F9E0F2E0D4691461F463FD006F11003AA
:1024A0001E2B3ED89FED267B109B237309F1070955
:1024B00004F158034FF0000829F00709C4E9163366
:1024C000042205F1400384ED067BA6736273AA2102
:1024D0004A461846C4F8088084F80F8037F0CBF9D4
:1024E0000E9BC4E91A0909F1400602930D9B019362
:1024F0002E440C9B009329463B46C4F8708032461C
:10250000204606F0A9F8104BC4F854809B6803B12C
:102510005B6F6367304605B0BDE8F0830B4B9F42AD
:10252000C0D00B490B484FF4067202F053FF084825
:102530004FF4067102F046FFB4E700BFAFF300802E
:102540000000000000000000B85D00204D85010083
:102550003CB9030020A903002DE9F84F2DED028BB3
:10256000054617F011FB4FF02003EFF3118B83F3B7
:102570001288BFF36F8F564815F0BCFF5F460028E6
:1025800000F08480DFF854915148DFF854A1DFF85F
:10259000548115F0CBFFD9F80040CAF800504C45E3
:1025A0003CD09FED498BD8E9002120464FEAE57CDD
:1025B000002C69D0D4E90463B5427CEB030E79DBCF
:1025C000B21841EBE67184ED048BC8E9002118F0E4
:1025D00089FC3F4815F09CFF00284BD087F31188F9
:1025E000BFF36F8FA368204698474FF02003EFF3A7
:1025F000118783F31288BFF36F8F354815F07AFF88
:10260000BB4668B3324815F091FFDAF80050D9F8AC
:102610000040AD1B4C45CAF80050C4D14FEAE57CE0
:10262000D8F800205219C8F80020D8F804204FF03C
:10263000000442EB0C02C8F80420CAF8004018F06D
:102640006DFC21460DF054F9214815F061FF38B3B7
:102650008BF31188BFF36F8FBDEC028BBDE8F88F51
:102660001C481D498E2202F0B5FE1B488E2102F047
:10267000A9FEC7E718491748B92202F0ABFE164871
:10268000B92102F09FFEA9E7BB46C9E712491148EC
:102690008E2202F09FFE10488E2102F093FE71E719
:1026A0000D490C48B92202F095FE0B48B92102F001
:1026B00089FECDE74C45BB46B2D0761B63EB0C02DE
:1026C00026616261ACE700BF00000000000000006E
:1026D000105E002020A9030090A903003C02002006
:1026E0000C5E0020F01900202DE9F84F002504466B
:1026F00000F1240B058474300E4628F059F80C23A1
:10270000A4F878304FF0AF63E36723465A4A84F861
:102710007B5043F8802FC4F888302346574A43F84B
:102720008C2FC4F894302346554A43F8982FC4F8A8
:10273000A0302346534A43F8A42F3146C4F8AC30A6
:10274000C4E92D55C4E9335584F8B050C4F8BC50E1
:1027500084F8C950A4F8CA50C4F8D450A4F8D8508A
:1027600004F1F00021F05CFF9FED417BF0224FF679
:10277000FE73C4E949234FF6FF7384ED4C7BA4F844
:102780002C3104F14C0A31465846C4E96F5528F003
:10279000F3FF3146504628F0EFFF2946082204F1A6
:1027A000180037F068F82946082204F1DC0037F0F9
:1027B00062F8584629F052F8504629F04FF80127A0
:1027C000122204F5A679294604F59C7037F053F8D7
:1027D0003946484621F086FE2B49484621F0EAF862
:1027E000204621F093FE04F5B27021F08FFE04F52F
:1027F000BE7804F5B67021F02FF8404621F086FE31
:10280000294604F5C27021F069F894F88E2142F04F
:10281000800284F88E211D4A2946C2F8048104F5FD
:10282000CA70142237F027F84FF6FF7384F89431FA
:10283000322384F895312946142284F8A25184F871
:10284000A37104F5D47037F016F833234FF0FF323C
:1028500020460F4984F8A82184F8A93184F8B6519C
:1028600084F8B77125F0C2FB2046BDE8F88F00BFA1
:102870000000000000000000F9950200358E020003
:102880007D990200657F0200EE2E0020E02A0020E4
:102890007CC10300000000009FED177B034680ED24
:1028A000007B80ED027B09BB9FED157B83ED047BF4
:1028B0009FED157B83ED067B9FED157B83ED087BFC
:1028C0009FED157B83ED0A7B9FED157B83ED0C7BE4
:1028D0009FED157B83ED0E7B9FED157B83ED107BCC
:1028E0009FED157B084683ED127B70476FF07400F7
:1028F000704700BFAFF30080000000000000000040
:1029000008C9BCF367E6096A3BA7CA8485AE67BB02
:102910002BF894FE72F36E3CF1361D5F3AF54FA52D
:10292000D182E6AD7F520E511F6C3E2B8C68059B09
:102930006BBD41FBABD9831F79217E1319CDE05BC1
:102940002DE9F04100F00EFA04E04FF400400021C0
:1029500018F03CF800F000FA0028F6D02C4F2D4E6D
:1029600000214FF4004018F031F84FF4A062012329
:10297000BA673370284816F0FDF818F059F80821A6
:1029800017F074FE254D264CDFF88C804FF0FF3297
:102990004FF0FF33404616F02DF900F077F800288D
:1029A0002EDBBB68002B0BDB2A684FF0010C04EB1D
:1029B000C20002EB0C0144F83230A0F804C02960D8
:1029C000D7F880303078002B1DDB2A684FF0010EDD
:1029D00004EBC20C02EB0E0144F83230ACF804E018
:1029E000296018B90CE000280ADB29684FF0FF3293
:1029F000204604F07BFC00F087F83378002BF2D1FE
:102A000000F0C2F8C2E70028EFD100F0BDF8BDE742
:102A1000000000204E6B0020A80400200835002094
:102A20000C35002030B5134D83B0044604F0CCFDC6
:102A30002B68B0FBF3F202FB13022267002AF5D0E9
:102A4000A36F9A42F2D8A0680023CDE900330A4967
:102A500004F026F84FF4F0120546002304F11000AC
:102A600016F07AFD002DB4BF6FF00400002003B013
:102A700030BD00BF10A4030014A403004038FFF7CA
:102A8000D1BF00BF1038FFF7CDBF00BF00B587B082
:102A9000164B0093164901AA022004F049FC15497F
:102AA000154816F0B9FC1549154816F0B5FCBDF8E7
:102AB00000001122022103F06DFD124A00289060EF
:102AC0000BDB1822694603F099FE002805DB0D4850
:102AD000FFF7A8FF07B05DF804FB06F0DBFA00681B
:102AE00040420028F3DA07B05DF804FB02001092C0
:102AF000A0A80300852A0000100000207D2A000005
:102B0000400000200000002010B51C4C82B0A068DE
:102B10000023CDE900334FF4A0621949402304F0AB
:102B20006BFA021E27D014DB236F9A4216D1154987
:102B3000134836F055FE88B9636F013304F1100075
:102B4000636716F00FFD204602B0BDE81040FFF7A6
:102B500069BF06F09FFA03680B2B02D1002002B078
:102B600010BD06F097FA03680B2BF7D006F092FA27
:102B700000684042F3E76FF00400F0E70000002037
:102B80002C35002014A4030008B5074816F0EAFC11
:102B9000064816F0E7FC064B9868002800DA08BDE6
:102BA000BDE8084003F078BD100000204000002080
:102BB0000000002010B506F0BFFE044606F0C6FE79
:102BC000002120681AF0AEFA204606F0C7FE024B3C
:102BD00000221A7010BD00BF4F6B0020104621B1BB
:102BE000012901D100F016BA704700F05DBA00BFAC
:102BF00008B506F0A1FE06F0E9FD024B01221A70AD
:102C000008BD00BF4F6B002010B506F095FE0446CE
:102C100006F09CFE206801211AF098F9206808212E
:102C200011F066FF2046BDE8104006F097BE00BFD9
:102C3000134B10B54FF0000C9E469EF81840B4B9E7
:102C4000CCEBCC0C03EB8C0E73468EF808100121F4
:102C5000CEF804008EF818101068516892680C3392
:102C600007C371460748BDE8104015F0E1BE0CF1FE
:102C7000010CBCF1080F0EF11C0EDED110BD00BF1F
:102C80003C3A00204C3B0020704700BF2DE9F04F3C
:102C9000DFF8B890DFF8B880264F274EDFF8B4A0F1
:102CA00083B000254FF0FF334FF0FF32304615F070
:102CB000D7FE037A04465BB9037B426800F10C0B34
:102CC000DBB1032B06D0012B0ED05846FFF7DCFFFB
:102CD0002576E7E73B78012288F80020002BF4D125
:102CE000164816F011FBF0E73B7888F80050002BEF
:102CF000EBD0504616F008FBE7E799F80030002BC0
:102D0000E3D193680E491B6C019210469847002846
:102D1000DED1019A0B49936810465B6C98470028F6
:102D2000D6D10123084889F8003016F0EDFA237B4C
:102D3000C7E700BF4F6B00204C3B00202C3B00201E
:102D4000343A00202C3A00203C3B0020516B0020FC
:102D5000506B00201C3B0020014B1878704700BFCF
:102D6000506B00202DE9F0438FB03248324F14F001
:102D70007BFF4FF000084FF00009CDE908890546B8
:102D800000F034F94FF080530AAED3F8A420D3F802
:102D9000A8300A929BB20B9396E80300ADF824107A
:102DA0002649274B274A089000240C704FF4FA61FB
:102DB000598025481C7042F21071596001233C7003
:102DC000047054601380214815F0EEFD204F214B14
:102DD000214900940322CDE90324CDE90689CDE9F8
:102DE00001444FF40072384615F0A6FA1B493846E4
:102DF00015F09CFA1A491B4816F0C4F91A491B48E9
:102E000016F0C0F91A491B4816F0BCF9AB681A4A0B
:102E10005B6A0A920721324628469847AB68174AF0
:102E20005B6A0A92284632460821984720460FB02E
:102E3000BDE8F083C8A80300516B00204F6B002051
:102E4000343A00202C3A0020506B00204C3B0020EC
:102E5000801200208D2C0000806B0020D8A8030079
:102E6000092C00003C3B0020F12B00002C3B0020F3
:102E7000B52B00001C3B0020312C0000DD2B000096
:102E80002DE9F04F12F0FC6FD0E90169D0F8108005
:102E900081B0054614460F464BD104F03003302B69
:102EA00056D004F00213022B61D004F00603042B69
:102EB0006CD014F4402A23D0A10304F4801B7DD5E8
:102EC000BAF5402F0AD14749474840F2CE2202F0D6
:102ED00081FA444840F2CE2102F074FABBF1000FAF
:102EE0000ED0E207336879D40126BE4024F4801A5C
:102EF00013EA060456D0D8F8003023EA06030DE0A2
:102F000033680126BE401E4224F4801A04F00104F6
:102F100048D0D8F80030002CEFD03343C8F8003048
:102F2000D9F8003052463946284601B0BDE8F04F86
:102F300018472C492C484FF42F7202F04BFA2948BD
:102F40004FF42F7102F03EFA04F03003302BA8D179
:102F50002449254840F2BF2202F03CFA214840F2C1
:102F6000BF2102F02FFA04F00213022B9DD11D495C
:102F70001D4840F2C32202F02DFA1A4840F2C32144
:102F800002F020FA04F00603042B92D115491648EA
:102F900040F2C72202F01EFA124840F2C72102F0A6
:102FA00011FA86E70F49104840F2DA2202F012FACD
:102FB0000C4840F2DA2102F005FAAAE709490A486A
:102FC00040F2CA2202F006FA064840F2CA2102F094
:102FD000F9F9BAF5402F3FF476AF7FE784F4402447
:102FE0008FE700BFECA8030020A9030008B5074A3B
:102FF00007480D21FFF744FF002806DB034A044879
:10300000BDE808400E21FFF73BBF08BD01001600D8
:10301000E49E03002DE9F041204E336975681F4698
:103020002B689A04044616D53B689B0410D43CB127
:10303000B3681A48DB68BDE8F0414FF40051184707
:10304000B36816481B69BDE8F0414FF400511847BA
:1030500080F00104EBE71249124840F2255202F0D9
:10306000B9F90F4840F2255102F0ACF93B6813F46E
:10307000005F2B6803F4005318BF84F00104002B99
:10308000D5D10749074840F2FC4202F0A3F90448B1
:1030900040F2FC4102F096F9C9E700BFE49E03004C
:1030A000ECA8030020A903002DE9F041204E33696C
:1030B00075681F462B685A04044616D53B685B04A6
:1030C00010D43CB1B3681A48DB68BDE8F0414FF456
:1030D00080411847B36816481B69BDE8F0414FF4BA
:1030E0008041184780F00104EBE71249124840F292
:1030F000255202F06FF90F4840F2255102F062F9B3
:103100003B6813F4804F2B6803F4804318BF84F0AE
:103110000104002BD5D10749074840F2FC4202F0D8
:1031200059F9044840F2FC4102F04CF9C9E700BFEC
:10313000E49E0300ECA8030020A90300C2B1531EC3
:103140000C4A00B501F1FF3C01EB030E1CF8013FF6
:10315000584003090001D35CC0B2434019091B0168
:10316000505CDBB2F44580EA0300EFD15DF804FB6C
:10317000704700BF38A903000CB400B5034683B004
:1031800005AADB680192084640F20511984703B092
:103190005DF804EB02B07047032810B512D8BFF3F6
:1031A0005B8F0B4B40011C58BFF35B8F54B1083B46
:1031B0001C1864680C601AB100F10C01194411600C
:1031C000185810BD05F066FF09230360002010BDEC
:1031D0005013002010B40B4C430104EB401CE15091
:1031E000CCF8042052B11046D2683AB10C332344D3
:1031F00040F205125DF8044BFFF7BEBF5DF8044BCB
:10320000704700BF481300201649BFF35B8F400191
:1032100000F108030B441A68BFF35B8F02B310B5CB
:10322000BFF35B8F02F1FF3C53E800EF964503D1FB
:1032300043E800C4002CF7D1BFF35B8F02D1012A11
:1032400008D010BDBFF35B8F1A68BFF35B8F002AF5
:10325000E6D110BD014400220023C1E9002310BDC6
:10326000704700BF4813002040B1436803F00303D8
:10327000022B06D0032B04D0012B05D06FF01500D4
:1032800070470368002BF9D000238360184670470D
:10329000436803F00303022B10B50446816010D08D
:1032A000032B16D0012B08D00C490D48452202F003
:1032B00091F80A48452102F085F800236360002058
:1032C00010BD0068002363600028F8D018F0D2FD1C
:1032D000F5E700680023636010BD00BF48A9030044
:1032E00020A9030000207047014B1B68184700BF4E
:1032F0009000002030B48B680C685D1C64B14A6893
:103300009A4209DD013A9A4208BF00238D600CBF42
:10331000A354E05430BC70478D6030BC704700BF90
:1033200000B583B00B46002102460091024800F030
:1033300001FF03B05DF804FBE93200000FB400B5F3
:1033400085B006AB002153F8042B05480091039388
:1033500000F0F0FE05B05DF804EB04B0704700BF6C
:10336000E93200000CB430B587B00AAB002553F841
:10337000042B0095CDE90230CDE90415044603A9DC
:10338000064800F0D7FEDDE904309842B8BF255466
:1033900007B0BDE8304002B0704700BFF532000012
:1033A0002DE9F84F0546808B0407174605F1140AEE
:1033B00000F1BB8100F007039B4602299BB221D09C
:1033C000AE69002EC0F2C5805A1F012A40F250811A
:1033D000042B40F0FA8120F00703D5F800909BB24F
:1033E000AB83B9F1000F00F0E98143F020039BB2F9
:1033F000AB83BBF1000F00F0CD804FF00008C14659
:1034000044461FE0002B40F0D7802B68002B00F0D3
:10341000C680BBF1000F40F05D812B691C68002C59
:1034200000F07781AB8B23F0070343F006039BB2D8
:10343000BBF1060FAB8300F0AA804FF000094FF0FC
:1034400006084E46AA68002A00F094804FF0010B4F
:1034500043F00803AB83504615F05AF8002864D0B7
:1034600087F31188BFF36F8FBBF1000F3BD1B9F128
:10347000000F13D0A3464846314650F8044BFFF7DF
:1034800007FF07464946334642462846002F40D0AC
:10349000A146B847B9F1000FEDD15C4614B1B1496E
:1034A0002846A0474FF02003EFF3118483F31288DE
:1034B000BFF36F8F504615F01DF8274600283ED009
:1034C000504615F033F8AB8B23F008039BB2AB8367
:1034D000D90623D523F0100398B2012100F0070389
:1034E000A8839B4669E7A9680029C0D00F68A34656
:1034F00033464C6842462846A04747B139463F68A4
:103500004C68334642462846A047002FF6D15C4619
:10351000ADE7A146B9F1000FADD1BEE79A063FD5A0
:1035200023F0200398B20221D8E78F498F48B922AF
:1035300001F050FF8C48B92101F044FF90E78A491F
:103540008A488E2201F046FF87488E2101F03AFF1B
:10355000B6E720F00703002243F00103D5F80090FE
:10356000AB836A602A604FF00108C3454FF0000446
:103570007FF468AF4FF0000BB9F1000F7FF468AF34
:10358000C3463CB14FF00009D846CB4660E7002661
:10359000002CF7D13C469BE7EB8B002B38D03C4608
:1035A000504614F0B5FF002800F0CD8084F3118858
:1035B000BFF36F8FBDE8F88F022BEDD0012BEED15A
:1035C0002B68002BEBD0BBF1010F0DD06849674889
:1035D0004FF4B27201F0FEFE65484FF4B27101F093
:1035E000F1FE2B68002B5AD02B699C68002C65D00B
:1035F000AB8B23F0070343F005039BB2BBF1050F30
:10360000AB83C4D04FF000094FF005084E4619E7D0
:10361000BBF1020F17D05649544840F25D1201F039
:10362000D9FE534840F25D1101F0CCFEEB8B53B153
:103630004F494E484FF4AF7201F0CCFE4C484FF466
:10364000AF7101F0BFFE2B695C68002C00F0928026
:10365000AB8B23F0070343F004039BB2BBF1040FD1
:10366000AB8394D04FF000094FF004084E46E9E6D2
:103670000022062BD5F800906A602A6000F0868050
:1036800020F00702296892B2AA83002900F0B480D2
:1036900042F020039BB2AB8302F0070865E7344990
:1036A000324840F2651201F095FE314840F2651152
:1036B00001F088FE2B699C68002C99D12C492B487D
:1036C0004FF4B47201F086FE29484FF4B47101F052
:1036D00079FE8DE7264925484FF4AB7201F07AFE5A
:1036E00023484FF4AB7101F06DFE2B68002B7FF483
:1036F00094AE1F491D4840F2571201F06BFE1C4862
:1037000040F2571101F05EFE2B691C68002C7FF41B
:1037100089AE174915484FF4AD7201F05BFE1448AD
:103720004FF4AD7101F04EFE7CE601290CBF40F074
:10373000100040F02000A8835046144614F0E8FE24
:1037400000287FF433AFB9220749084801F042FE50
:103750000548B92101F036FE84F31188BFF36F8F5D
:10376000BDE8F88F0938000090A9030020A90300E4
:103770006CA903002249234840F2611201F02AFE9D
:103780001F4840F2611101F01DFE61E7B9F1000F21
:103790000AD0EB8B01339BB24A461268591C1C4677
:1037A0008BB2002AF9D1EC8320F00703EA8B43F0B7
:1037B0000203AB83F2B14FF00208D6E6BBF1000F73
:1037C0003FF4E8AEC8464C463CE60D490D4840F291
:1037D0001B1201F0FFFD0A4840F21B1101F0F2FD3F
:1037E000AB8B03F00708C3453FF4D4AE4FF000099C
:1037F0004C4627E61A464BE713468846B5E600BF17
:103800006CA9030020A90300F8B504460D4600F199
:1038100014064FF02003EFF3118783F31288BFF3F0
:103820006F8F304614F066FE50B1304614F07EFEC5
:10383000A5613A4620460121BDE8F840FFF7B0BD3A
:10384000044905488E2201F0C5FD02488E2101F091
:10385000B9FDEAE790A9030020A9030088B138B5B3
:103860000C4659B10B684BB14B683BB10546202261
:10387000002136F000F82C61002038BD6FF01500F3
:1038800038BD6FF0150070472DE9F84F002800F0A3
:10389000A3808846002900F09F8001F104090446B6
:1038A0004846FFF7E1FC051E28D1D8F80830032B65
:1038B00000F2928004F114074FF02003EFF3118A15
:1038C00083F31288BFF36F8F384614F013FE00287D
:1038D00059D0384614F02AFEE38BA68B4FF6FF72C0
:1038E000934206F007065ED0022E56D0062E1ED852
:1038F000DFE806F008441D1D086D0800DADA2846E6
:10390000BDE8F88F63680022C8F80020002B59D06A
:10391000C3F80080C4F80480002E60D120465246CF
:1039200002213546FFF73CFD2846BDE8F88F2E49B9
:103930002E484FF4E47201F04DFD2B484FF4E47132
:1039400001F040FD6FF004054FF0000B384614F015
:10395000DFFD68B38AF31188BFF36F8FBBF1000FEF
:10396000CDD048460021FFF793FC07460028C6D07B
:103970003246414620460023B847C0E76FF00405B1
:103980004FF0000BE2E71A4918488E2201F022FDA1
:1039900017488E2101F016FD9BE70133E38335467E
:1039A0004FF0010BD2E76FF00A054FF0000BCDE7A7
:1039B0000F490E48B92201F00DFD0D48B92101F063
:1039C00001FDC7E7C4F80080C4F80480A4E76FF0E5
:1039D00085054FF0000BB9E76FF015058FE7354609
:1039E0004FF0000BB2E700BF6CA9030020A9030051
:1039F00090A9030070B5044600F114054FF02003B0
:103A0000EFF3118683F31288BFF36F8F284614F00B
:103A100071FD68B3284614F089FDA38B03F00703FA
:103A2000022B0FD0012B28460CBF6FF004046FF05F
:103A3000850414F06DFD88B186F31188BFF36F8F94
:103A4000204670BDE38BEBB1013B9BB2E38353B3E4
:103A50002846022414F05CFD0028EDD116491748D1
:103A6000B92201F0B7FC1448B92101F0ABFCE3E73F
:103A7000114912488E2201F0ADFC0F488E2101F051
:103A8000A1FCC7E70E490D4840F2EF1201F0A2FC7D
:103A90000B4840F2EF1101F095FCE38B013B9BB228
:103AA000E383002BD4D12046324602210224FFF7C3
:103AB00077FC204670BD00BF90A9030020A9030039
:103AC0006CA90300F8B5002866D00C46002963D025
:103AD000054600F114064FF02003EFF3118783F33E
:103AE0001288BFF36F8F304614F004FD002840D0D9
:103AF000304614F01BFD2B68A98B43B19C4202D1C8
:103B000041E09C420FD01A461B68002BF9D16FF0A0
:103B10007705304614F0FCFC08B387F31188BFF337
:103B20006F8F2846F8BD6B68206810609C4231D0CA
:103B3000002301F0070523602B1F022BE9D9184948
:103B4000184840F22D2201F045FC154840F22D2185
:103B500001F038FC304614F0DBFC0028DDD11249BE
:103B60001048B92201F036FC0F48B92101F02AFCB7
:103B7000D3E70D490B488E2201F02CFC0A488E2118
:103B800001F020FCB4E76A6823682B609442CFD12F
:103B90006B60CDE76A60CBE76FF01505C1E700BF4A
:103BA0006CA9030020A9030090A903008C460446D9
:103BB000114608B51A466046A04716F039FF04F0D2
:103BC000F5FF00BFCB00023370B5C45AA2EB010E63
:103BD000891A01EB54014C00C4F34E0C944400EBE1
:103BE000C2054FEA4E06C6526C8020F832E020F83B
:103BF0003C1070BDC90002314FEAC20C0CF1020C3E
:103C0000435A00B530F80CE05B0803EB5E034FEA63
:103C1000430E20F801E030F80C1002EB510220F8BE
:103C200032305DF804FB00BF30B500EBC1044FEA51
:103C3000C10C63885B08B3FA83F3C3F11F0300EB85
:103C400083050CF1040C2A691FFA81FE72B96EF328
:103C50000F02C4686EF31F424FF0010E0EFA03F319
:103C60001C43C460296140F80C2030BDD3000433EC
:103C7000C15A20F80C1000EBC101E280A1F806E067
:103C800020F803E030BD00BF00EBC10CBCF80630EB
:103C900099420CD0BCF80410043200EBC10C40F87F
:103CA000223000EBC300ACF8063081807047C36857
:103CB00001219140043223EA01030021C36040F84E
:103CC00022107047F8B5B1FA81F3C3F11F0200EB7F
:103CD000820635698DB12C464FF0030C00EBC40E03
:103CE000BEF80270B1EB570F18D9BEF80640346128
:103CF000BCF1010C01D0A542F0D1C268C3F1200390
:103D00004FF0FF349C40144001D12046F8BD94FA96
:103D1000A4F2B2FA82F2131D50F823402146FFF7B5
:103D2000B3FF2046F8BD00BFF8B5CE00B71C0D4666
:103D3000C15B05EB510100EBC10304465A88D30770
:103D40000CD5A15B691A04EBC1035A88D30714D5BB
:103D500029462046BDE8F840FFF766BF5208B2FA90
:103D600082F2C2F11F02FFF78FFFE25B294605EBEB
:103D700052022046FFF73EFFE3E75208B2FA82F212
:103D80002046C2F11F02FFF77FFFA15B2046691AA0
:103D90002A46FFF72FFFA35BED1A29462046BDE810
:103DA000F840FFF741BF00BF89B3F8B505680C1FA5
:103DB000641B24F00706B71CE408EB5BDA071BD58D
:103DC00004EB530335F833209B1A9C420AD12E444E
:103DD0002146738823F0010328467380BDE8F8402C
:103DE000FFF7A2BF0A490B48B42201F0F3FA0848D2
:103DF000B42101F0E7FAEAE705490648AC2201F0F0
:103E0000E9FA0348AC2101F0DDFAEB5BD8E7704733
:103E1000C0A9030020A90300F8B50568C1B1AB68CB
:103E2000B3EBD10F14D90B31CC0821462846FFF74C
:103E300049FF68B105EBC007C6007B88B4EB530FA0
:103E400008D37B88043643F001037B80A819F8BDB2
:103E50000020F8BD021901462846FFF7B3FE1146BF
:103E6000FFF7E2FEEDE700BF2DE9F04101F1FF3879
:103E700018EA010806680D4614464DD008F1FF33D4
:103E800013EA080F0AD0374937484FF4A07201F0FF
:103E9000A1FA34484FF4A07101F094FA6B422B4020
:103EA000042B1A46454628BF04229846CCB3B36873
:103EB000B3EBD40F35D904F10B012944891AC90891
:103EC0003046FFF7FFFE074658B308F1040303EB43
:103ED000C0036A1E334413446D421D40A5EB080520
:103EE0002C4407342B1F9B1B24F00704A41BB0EBAE
:103EF000D30F4FEAE4044FEAD30816D306EBC80702
:103F00007B8808EB53039C421ED37B8843F001035C
:103F10007B802846BDE8F08104291ED90422002CAC
:103F2000C5D100252846BDE8F0810146424630460D
:103F3000FFF748FE394606EBC807FFF775FE7B889A
:103F400008EB53039C42E0D2414630462246FFF73D
:103F500039FE2146FFF768FED7E7BDE8F04111467C
:103F6000FFF75ABFC0A9030020A90300B2F5802FB4
:103F70002DE9F041154604460E464AD2042A0AD8D5
:103F8000364937484FF4F57201F024FA33484FF4BC
:103F9000F57101F017FA2A1FF51D164425F00705E3
:103FA00026F00706761B172E4FEAD60849D9B8FA2D
:103FB00088F32560C3F12404A4000734E408C3F1A6
:103FC0002007631C00224345C5E902822DD805F174
:103FD0000C0303EB8707002243F8042F9F42FBD119
:103FE00063002A80A8EB040805EBC40243F0010338
:103FF0006B804FEA4801AB195180012225F834400B
:10400000214625F8068028465A80BDE8F041FFF792
:104010000BBE1249124840F2E31201F0DBF90F48DF
:1040200040F2E31101F0CEF9B5E70C490C484FF42A
:10403000017201F0CFF909484FF4017101F0C2F9A2
:10404000C5E70649064840F2F31201F0C3F90348F8
:1040500040F2F31101F0B6F9A9E700BFC0A90300CF
:1040600020A903002DE9F84F92469846D378304AAC
:104070000A9E12F803906F2B05460C4609F00309BF
:1040800041D03BD903F0F703702B39D00A27BB4648
:1040900010E0B9F1010F2DD00CF1570CBD425FFAC1
:1040A0008CF374F1000406F8013D16D3464505462D
:1040B0000C4612D9284621463A460023FCF770F8F0
:1040C0005FFA82FC092A0CF13003E2D8DBB2BD4270
:1040D00074F1000406F8013DE8D29AF800309B061E
:1040E00005D5BBF1080F11D0BBF1100F17D030462A
:1040F000BDE8F88F0CF13703DBB2E8E7582BC5D1E8
:104100001027BB46D6E70827BB46D3E79AF802300C
:1041100043F008038AF802303046BDE8F88F9AF879
:10412000023043F010038AF802303046BDE8F88FC1
:1041300031D303002DE9F04F0746107899B090B1C4
:104140001C4600238B469A46551C25282E460DD02A
:104150005946B847002806DB0AF1010A2A461078BA
:104160000028F1D1504619B0BDE8F08F53780021F6
:10417000252BCDE90A11CDE90C11CDE90E1100F086
:10418000EC8008468E46884602918946A3F12001BC
:1041900010290AD8DFE801F0D80909D50909090969
:1041A000090909DE09DB0909D10028B19DF83010A1
:1041B00041F040018DF83010BEF1000F05D09DF8A0
:1041C000301041F020018DF83010B8F1000F05D00B
:1041D0009DF8301041F010018DF83010029929B18E
:1041E0009DF8301041F008018DF83010B9F1000F42
:1041F00005D09DF8301041F004018DF830109DF885
:10420000301001F04400442800F066829DF8301020
:104210002A2B41F080018DF8301000F04282DFF847
:10422000C48B18F8031049079C46304648BF00214C
:1042300017D510F8013F18F803E0ACF1300C01EB92
:1042400081011EF0040F0CEB41019C46F1D1864226
:1042500007D09DF830600D91C90F61F341068DF8CC
:1042600030609DF831102E2B0CBF0126002666F31E
:1042700041018DF8311029D143782A2B00F06B824F
:10428000DFF8608B18F8031011F004011E4600F1EE
:10429000010008BF0E460ED0002110F8013F18F8AB
:1042A00003C0303E01EB81011CF0040F06EB41011D
:1042B0001E46F2D1CE0F0E919DF83010C1F3400C86
:1042C00046EA0C0666F341018DF83010A3F14C016B
:1042D000461C2E2900F24882DFE811F060044602F5
:1042E000460246024602460246024602460246028E
:1042F000460246024602460246024602460246027E
:10430000460246024602460246024602460246026D
:1043100046024602700446025C0446024C04460211
:104320004602460246024602460246024804460249
:1043300046024602460246023B04012016F8013FAF
:1043400024E74FF0010EF9E74FF00108F6E74FF0D0
:104350000109F3E701230293F0E78DF8330002F13E
:10436000020908460E4602918E469DF930809DF85E
:1043700030C0B8F1000FB4BF0D9B4FF0FF33049372
:10438000029B002B00F00481234653F8048B039317
:10439000B8F1000F07DA9DF831306FF341038DF863
:1043A00031304FF0FF380023042E0D930E9300F0B0
:1043B000FF800CF00303012E029300F02881022EEF
:1043C00000F07881032E04D1039B53F8040B0A906C
:1043D0000393029B002B40F008819DF833E0AEF17F
:1043E0002503532B57D8DFE813F008045600560076
:1043F000560056005600560056005600560056000D
:1044000056005600560056005600560056005600FC
:1044100056005600560056005600560056005600EC
:1044200056001802560056005600180218021802CC
:1044300056005600560056005600560056005600CC
:1044400056005600560056005600560056005600BC
:104450006C00560056005600560056005600560096
:104460005600180256008601590018021802180258
:104470005600590056005600560056001D046C00A8
:10448000140456005600F90356006C0056005600FE
:104490006C00C3F800A0039C4A4660E61CF0080FBD
:1044A00006BFCCF300135B012B230293DDE90A2343
:1044B000002B06DA524263EB43030B932D230A923F
:1044C00002930DF15D04DDE90A01009411AB0CAA21
:1044D000FFF7C8FD0546B8F1000F0BDB9DF8303043
:1044E0006FF386138DF83030631B984502D9A8EB23
:1044F00003030D93002DCED0601B0D9C9DF8326000
:104500000DF15D0223460692029A02B1013016F0C7
:104510001002059200F0FA800230184416F04003B1
:104520001CBF0E9A8018049A002A40F38E80121A3B
:1045300004929DF830205007C2F3800600F1858078
:10454000510640F1FB820298002800F09A84029301
:104550005946B8470028FFF606AE049B002B03F12E
:10456000FF310AF1010A029B40F3948402964FF056
:10457000300807940E4604930C4603E0621E002C9C
:104580005AD0144659464046B8470028F6DAEAE5BC
:104590001EF0020F18BFDDF8388003944FF00003BF
:1045A00008BF4FF0FF38042E0D930E937FF401AF38
:1045B0009DF831309B0707D49DF93130002BACBFFB
:1045C0004FF006084FF00D080CF003030293039B15
:1045D000073323F0070393ED007B08330393029B1B
:1045E0008DED0A7B002B3FF4F8AE4A45BFF453AF84
:1045F000002415F8010C5946B847002804F10104BD
:10460000FFF6B1AD4D4500F00E850135F1E7CB1E4B
:10461000042B00F2AB86DFE813F071020500050001
:10462000EF00EF00039B073323F00703B3EC027B9B
:104630008DED0A7B0393CCE60AF1010202EB060A38
:10464000079C049B4FF0FF320492029840B1029302
:104650005946B8470028FFF686AD029B0AF1010AC9
:10466000002B5CD09DF931302878002BC0F23382CA
:10467000DFF8708718F800305A0758BF2A4640F113
:10468000C5836E1C07E0307818F800305B0706F130
:10469000010640F1B7835946B84700283246F2DA9E
:1046A00061E59DF8313043F001038DF831307378C6
:1046B000701CD6E5CB1E042B00F26B8601A454F8C7
:1046C00023F000BF0D4B00002546000025460000EA
:1046D000A34A0000A34A00006FF386118DF8301042
:1046E00094E50399039309680A9100210B910299BB
:1046F00000297FF47AAF0A9B8DF844300DF1450311
:10470000069311AD012000231C46029316F0080207
:1047100005923FF402AF002201300592FDE69DF8BC
:104720003230DA0600F101821B0700F1FE81059BA1
:10473000002B40F0C681002CC8BF544403DC33E397
:10474000A24500F0328359463020B84700280AF1CC
:10475000010AF5DA07E59DF8313043F004038DF8DE
:10476000313083780230B1E59DF830C00646CCF395
:10477000400C782B8DF8333006F101091AD86D2BD7
:1047800000F2A782692B15D8572B40F26F82A3F154
:104790005801C9B2012000FA01F111F4624F40F052
:1047A0006C8240F60106314240F0BD8511F4043FB1
:1047B00040F0BB829DF830309DF831E043F00103BA
:1047C000CEF3C3018DF83030002608469DF8303016
:1047D0006CF341038DF830301EF0010F0EF004032E
:1047E00002933FF4C2AD54F8043B0493002BC0F293
:1047F00091829DF830C0C3E5039C54F8043B0394B8
:104800004FEAE37E0128CDE90A3E7FF4E2AD58B2DB
:1048100043F3C0130A900B93DBE5DDE90A12002A8B
:10482000C0F284831CF0080F40F0FA83CCF300132D
:104830005B010293C2F30A500590C2F3130240F2E7
:10484000FF73002840F02983BEF1460F00F0A184D9
:10485000D002CB0240EA5150069350EAC12300F047
:10486000B583120352EA11524FEA013300F1508529
:104870000599DB185241002A01F1FF31F9DA05915F
:104880000599A1F2FE318C1C42F0004280F238857D
:10489000002005905B0843EAC2735208B2F1333F2F
:1048A000084601F10101F5D2811C059801389400F8
:1048B0000590980044EA9374C31842EB0402881CE4
:1048C000E8DB002929DDCDE906EADDF814A04FF088
:1048D00033352E460233A3FB053E42F10002F018A9
:1048E000A2FB050245EB0E041B184EEB020E1B1932
:1048F0004EF10003C31801F1FF310AF1010A42F140
:104900000002DB185241002A01F1FF31F9DA0029D7
:10491000E0DCCDF814A0DDE906EAC1F104041C31A5
:1049200002FA01F1E3400B431946A4F1200322FAF5
:1049300003F30B43BEF1670F069322FA04F000F075
:104940002383BEF1470F00F01F83BEF1660F00F016
:104950001B84002208F101030792102B1D46A8BFFB
:104960001025013D002B00F0CF84CDE908EA4FF07F
:1049700000624FF033340023114626465B0843EAB9
:10498000C173A3FB042E4908B318A1FB043144EB07
:104990000E0AD2184EEB010E12EB0A024EF1000E77
:1049A00013EB0E0305F1FF3541F100016A1CE5D15F
:1049B000DDE908EA0A4606995B1842EB0002B2F10B
:1049C000805F80F08783BEF1660F0CF0200600F058
:1049D000318391009C0041EA9371E31842EB01019D
:1049E000C1F3C362DB1802F130024941302A8DF86D
:1049F000442002D0059A013A0592002E40F05D83D2
:104A0000B8F1000F40F3EB832E228DF8452021F002
:104A100070420F240DF146010DF1440C08460C4480
:104A200001E0A04211D091009D0041EA9371EB1882
:104A300042EB0101DB18494121F07042090F30318E
:104A4000B8F1010800F8011BEBD10690079BCDF8E7
:104A5000388063B10022069B0E921946013B11F883
:104A6000012C302AF9D02E2A08BF194606910EF0E3
:104A7000DF03452B00F020820D9C002C40F3A08228
:104A800001229DF8323062F38613069A8DF8323097
:104A9000002313709DF83260A2EB0C00654623469C
:104AA00032E5DDF80CE05EF8043B00240228CDE995
:104AB0000A3403D19BB20A9300230B93CDF80CE088
:104AC00087E49DF833005946B8470028FFF64BAB02
:104AD0000AF1010A2FE6702800F00E846C1C04E035
:104AE000207870281C4600F0B2815946B84700284B
:104AF000264604F10103F3DAFFF735BB039850F8BB
:104B0000043B0A93DB170B93039062E49DF8330098
:104B1000039B632803F104033FF4E3AD039803937D
:104B200000680A9000230B9353E459463020B8479D
:104B30000028FFF618AB0AF1010AF8E5049A002AEA
:104B400002F1FF31C8BF4FF020083FF712AD0491CA
:104B50007BE59DF83130062161F3C6039DF830C036
:104B60008DF831304378CCF3400C02E69DF83130BB
:104B70000721F1E743789DF830C06C2BCCF3400C53
:104B800000F0BC819DF83110032060F3C6018DF860
:104B90003110EEE59DF831300521DDE7BDF830102C
:104BA000437821F4F04121F0020141F4804141F0C9
:104BB0000201ADF830104FF0010CDAE543789DF8B2
:104BC00030C0682BCCF3400C00F0A2819DF831106E
:104BD000022060F3C6018DF83110CAE5B8F1000F6C
:104BE0000A9DC0F29F814146284634F0FDFE2B18F5
:104BF0000693002D7FF487AD4DE459462520B84734
:104C00000028FFF6B0AA039C0AF1010A4A46FFF702
:104C1000A6BA0A98002840F08C81734B06930520B1
:104C20005D1F70E50A9B07293FF635AC01A252F8DB
:104C300021F000BF93440000674C0000614C00006D
:104C400093440000554C0000554C00009344000074
:104C5000934400004FEAEA72C3F800A05A601AE4D5
:104C6000A3F800A017E483F800A014E4412B04D0BB
:104C7000A3F1450102293FF69DAD03F0DF03A3F147
:104C800041039DF831109DF83200B3FA83F35B09BC
:104C900063F3C71104268DF8311066F302005FFA42
:104CA00081FE09068DF8320000F1E5800EF07803F0
:104CB000182B00F0AB811EF0380FCEF3C30105D0E6
:104CC0009DF8303043F001038DF83030084604265B
:104CD0007CE56E3BD9B201238B4040F282410B420E
:104CE0004BD113F0240F36D1D8077FF563AD9DF873
:104CF00032309DF831E0032666F302038DF832303E
:104D0000CEF3C3010EF07803402B08BF4CF0010C2A
:104D100008465BE5049B9DF830C05B424CF0040CF8
:104D200004938DF830C0FFF72BBB9DF832309DF80F
:104D300031E060F302038DF832300EF07803402B3F
:104D4000CEF3C30104D19DF8303003438DF83030E9
:104D5000084601263AE59DF832309DF831E00326F9
:104D60001EF0780F66F30203CEF3C30118BF4CF0B8
:104D7000010C8DF83230084628E59DF832309DF858
:104D800031E0022666F302038DF832300EF078032C
:104D9000402B05D19DF8303043F001038DF83030C1
:104DA000CEF3C301084611E55446DDF8188000260D
:104DB00007E015F8010BB847002806F10106FFF6D9
:104DC000D2A9A8455946F4D8002E3046FFF6CBA903
:104DD0003444049B002B40F34C82049B23449A46AA
:104DE00007E000BF31D30300E9A9030054453FF4B5
:104DF00052AB59462020B847002804F10104F5DAE7
:104E0000FFF7B1B9AAEB050505EB020A9DF83230B0
:104E1000990640F1A78110782E2800F0888118F8B3
:104E20000030590758BF164615D5541C154607E0E3
:104E3000207818F800305B0704F1010440F1648128
:104E40005946B84700282646F2DAFFF78CB9AAEB94
:104E5000050506EB050A0E9C002C7FDD544401E09D
:104E6000A2457CD059463020B84700280AF1010AF3
:104E7000F6DAFFF778B9CEF3C30108464FF0010C1C
:104E8000A4E4049A002A02F1FF31C8BF4FF03008B1
:104E90003FF76FAB0491FFF7E3BB0598984200F032
:104EA000AD81D202BEF1460F42EA51524FEAC12310
:104EB00008BF4FF0660EE3E4069B069A83F800E015
:104EC000059B002BBBBF5B4205932B232D23537007
:104ED000059B632B00F31C8102320598C34BA3FB97
:104EE0000013DB0803EB8301A0EB410110463033D4
:104EF00000F8023B303106905170BDE59DF831302D
:104F0000042161F3C6038DF831308378861C30E4C8
:104F10009DF83130012161F3C6038DF8313083787B
:104F2000861C26E42846FCF79FFD60E62D230293AD
:104F300080E40DF15D0411AB00940CAA0021FFF791
:104F400091F8BDF8323003F0EF0343F4F04343F03F
:104F500010030546ADF83230FFF7BDBA5446DDF810
:104F60001880002507E016F8010BB847002805F166
:104F70000105FFF6F8A8B0455946F4D8002D28469B
:104F8000FFF6F1A82C4424E7059B033325DAAEF1A4
:104F90000203B8F1000F5FFA83FE7FF7DAAC1CF072
:104FA000200F08F1FF3340F058811A1E18BF01226C
:104FB00007924546102DA8BF1025013D9846D4E420
:104FC0000E9A002AD4BF002201225AE5BEF1670FD3
:104FD00003D0BEF1470F7FF4B8AC059B9845D6DBF4
:104FE000059B1CF0200FA8EB0302434640F0808194
:104FF000111E18BF012107919046002B4FF0660E3D
:10500000BFF6ABAC00234FF00062D4E46FF3C60EE2
:1050100000208DF831E001465FFA8EFEFFF7D6BB27
:105020002B23029306E4002C2046FFF69CA8A24402
:10503000FFF731BA0599002940F3B7800DF1440C10
:10504000CDF814E0CDF820A00C46A1F110058E4655
:10505000E246CDF8248091004FEA830841EA93713B
:1050600018EB030342EB0101DB1849410A0F303210
:1050700050460AF8012B21F070427146BEF1010E34
:1050800000F01E81AE45E6D1CDF818A0DDE908A8F4
:10509000DDF814E000240D95002E40F01C81B8F1DD
:1050A000000F40F32B81069D811C2E202870002CC0
:1050B00000F0DC8000200590B0E42E22B8F1000F53
:1050C0008DF845203FF7A3AC0DF1460306930DF193
:1050D000440CBBE45B0843EAC2735608059A0132EC
:1050E00005924FF03332A3FB0235D418A6FB02140D
:1050F00042EB05025B1845EB04059B1845F10005E2
:105100004B1944F100025EE4AAEB050AB244A2E6A0
:105110000598374B0699A3FB00235B0903F1300286
:105120008A70CA1C642101FB13030593D5E6029221
:105130005946B847029A002802F10105FFF613A864
:10514000002C0AF1010A56DD5444164601E0A2453E
:1051500050D059463020B84700280AF1010AF6DA43
:10516000FFF701B8002C04F1FF35C8BF164604DC78
:10517000D7E06B1E002D73D01D4659463020B8472E
:105180000028F6DAFEF7EFBF059B002243440792A2
:1051900033E7D002CB0240EA5150069350EAC123D4
:1051A000F2D04FF0660EFFF75CBB30218DF8441053
:1051B000002E61D02E218DF845100599002975D05B
:1051C000B8F1000F60DC0DF1460306930DF1440CBD
:1051D000079BCDF83880002B7FF43CAC4CE40DF1FC
:1051E000450306930DF1440C30E400BFCDCCCCCC8C
:1051F0001F85EB51324650782A4610E60EF1010326
:105200006E48DBB20A43C35C03F003031DD1012BDC
:105210000BBF492369234E216E210CBF4622662213
:105220008DF844309DF830308DF846206FF38613AA
:105230008DF830300DF1470200238DF845101C46E3
:105240000320069211ADFFF75FB9012B15BF6E2346
:105250004E23612141211A46E2E700220792A8E687
:105260005444A4EB050A32461C46D4E5CDE9054179
:10527000AEE7A246FFF70FB9B8F1000F4BDD2E21C4
:105280008DF845100599A1B105999DF83240494224
:105290004145A8BF414600290D91A8EB0108D4BFA4
:1052A0000021012161F345148DF83240B8F1000F5F
:1052B00089DD10240DF146010DF1440CFFF7AEBB62
:1052C000C4F10F047546CDF818A0DDF814E0DDE94F
:1052D00008A80C44DFE6069D811CB8F1000F4FF0D2
:1052E0002E0028703FF7E3AE0023069105936FE789
:1052F00090460022079280E62E46ACE5059667E7C9
:1053000000200590FFF7DDBA4FF00062FFF753BBB6
:105310002B49FFF7BDBA0DF1450306930DF1440C7F
:1053200056E72C4677E59DF832009DF831100226AD
:1053300066F3020001F07806402E8DF832008E46AA
:1053400005D19DF8300040F001008DF83000C1F328
:10535000C301632B084606D1002E18BF4CF0010C88
:105360000226FFF733BA0226FFF730BADDF80CE069
:105370005EF8044B0A94E31701280B93234616D0DA
:10538000022801BF23B244F3C0340A930B94FFF701
:1053900095BBDDF80CE001285EF8043B0BD1DBB2D5
:1053A0000A930023CDF80CE00B93FFF712B8CDF869
:1053B0000CE0FFF72CBA0024FFF778BB30D30300D2
:1053C00002FCFFFF404080F311884FF0040002DF31
:1053D000704700BF0FB400B583B004A951F8040BA7
:1053E0000191FDF79DFF03B05DF804EB04B0704739
:1053F00008B54FF02002EFF3118382F31288BFF358
:105400006F8F03F08BFE0348FDF798FF02F0FAFF61
:10541000FCE700BFECA90300704700BF0FF0A8BC79
:1054200008B500F015F8BDE8084000F001B800BF6D
:1054300038B5054C054DAC4204D254F8043B9847AE
:10544000AC42FAD338BD00BF48A103004CA1030011
:1054500038B5064D2C6844B1631C05EB8305013C4F
:1054600055F8043D9847002CF9D138BD3CA1030004
:10547000C36A1B78012B70B54FF0070288BFDE1D91
:105480000C4688BF5B4205464FF0FF008CBF1E40B4
:105490000826FDF753FEE379834201D0002070BD5A
:1054A000AB8960889B1B98422CBF0020012070BDF7
:1054B000002B3BD02DE9F0431C46C36A05461B6810
:1054C0000068AF8910FA81F05B42090C01FB070804
:1054D00013EA040789B0164610D0A86A83684146CB
:1054E000D3F804903B46C84718B9E41B08BF002016
:1054F00002D109B0BDE8F083B8443E4431462023D0
:105500002246684634F08AF9EE6A326831790DEB4A
:105510000400121B34F0AFF9A86A33688268414670
:1055200054686A46A04709B0BDE8F0830020704780
:1055300038B505460C46FFF79BFFC8B1A088C0B937
:1055400022884FF6FF739A4212D1EB6AA8891B7822
:10555000012B82BFDA1D5B421340628898BF08238B
:10556000801AB0FBF3F203FB1200B0FA80F040099E
:1055700038BD002038BD00BF2DE9F04F0746C06A96
:1055800089B000685BB3C0F100090D46904609F090
:1055900020099B4605E034F023F928BBBBEB040B44
:1055A0001DD03C68BB89B86A14FA85F12A0CD9452C
:1055B0004C4602FB031128BF5C46866823466A46B8
:1055C000D6F800A0D0470346224640466946254407
:1055D000A044002BDFD0184609B0BDE8F08F0023AF
:1055E000184609B0BDE8F08F0123184609B0BDE8A0
:1055F000F08F00BF2DE9F0418046C06A07687F4206
:1056000088B007F020070E461D46114668463A4608
:1056100034F031F915B911E02D1B0FD0AF423C46E3
:1056200028BF2C46314623466A464046FFF7A4FF72
:1056300026440028F0D008B0BDE8F081002008B072
:10564000BDE8F08138B5828903680D0C044602FB81
:105650000531806A83689B68984700B138BDE26A6B
:10566000A38912792D0429462046FFF7C3FF00289D
:1056700018BF6FF0050038BDC36A1B78012B2DE9F8
:10568000F04F88BFDF1D0C68DFF87C9086BF5B425F
:1056900007EA030B4FF0080BA4EB0B0404EA09061E
:1056A000A64283B0054688460C6011D327E0FFF779
:1056B000DFFE48B1BDF80230BDF80420C8F8004054
:1056C00006EA090613441E44A4EB0B04B44216D99F
:1056D0002B68AA89A86A13FA84F1230C03FB021130
:1056E00087680823D7F800A06A46D0470346694672
:1056F0002846002BDBD0184603B0BDE8F08F00230E
:10570000184603B0BDE8F08F0000FFFFC36A1B78A6
:10571000F0B5012B84BFDF1D5B420D4688BF1F40E3
:10572000096803680446808913FA81F34FEA11413E
:1057300001FB003183B0A06A98BF082783681E6808
:105740000823B047064658BB2B68A0893B449AB251
:10575000C71BBA422B6023D1190C03BFE18901F1A9
:10576000FF3103EB0141A3F580310B0C2960216867
:10577000114400FB0311A06A83686A461F6808236E
:10578000B84780B9E36A0DF1070019790DF1FF33CD
:1057900013F8012F8A420AD19842F9D163682B602D
:1057A000304603B0F0BD0646304603B0F0BD694652
:1057B0002046FFF7BDFE38B12B68BDF802201B0C58
:1057C0001B0413442B60EBE729462046FFF754FFE8
:1057D0000646E5E7C36A1B782DE9F04F4568012BC3
:1057E00088BFDE1D4FEA154584BF5B421E404FEA6D
:1057F0000545C38905F5803598BF08262A0CB3EB0B
:10580000154F08BFA5EB024582890368971B2F44FB
:1058100095B013FA87F13B0C04460497806A02FBAB
:105820000311836806AAD3F800800823C047002824
:1058300037DBE36A0DF11F0019790DF1170313F837
:10584000012F8A4230D19842F9D1D4E901231E4474
:10585000B24222D34FF6FF710722ADF83010ADF8F7
:1058600032300CA90023FF20ADF83430FDF766FC80
:105870000CAA08238DF8370061682046FFF718FE50
:10588000E36A1B78012B82BFDA1D5B421A40636812
:1058900098BF08229B1A636018B929462046FFF773
:1058A000D1FE15B0BDE8F08F06A92046FFF740FEF7
:1058B000A7EB060A002800F08E80BDF81A303F0CD6
:1058C0003F041F4404970DF11008414608AA2046E2
:1058D0000196FFF71BFF014680B908A92046FFF794
:1058E000C7FD68B9BA4500F09D80414608AA204628
:1058F000049FFFF70BFF01460028EED00846D0E7D3
:105900006668059604E0059B62689A4213D01E46BD
:105910000AAA05A92046FFF7F9FE0028C1D1BDF863
:105920002820BDF820309A42EDD10AA92046FFF781
:105930009FFD0028E7D0B742D4D1BDF82430002B1A
:10594000D0D0BDF822903B0C1B0499440722A368D9
:10595000ADF8223008A9FF20FDF7F0FBE36A8DF8CF
:1059600027001B68BDF824605B4203F0200B002E6B
:1059700040D0CDE9025ABA460BE05A1E2A445B4297
:105980001340A2681A44A944A2600029B6D1761B2C
:105990002CD02368A289A06AB34513FA89F34FEA91
:1059A00019415D4601FB023128BF354683680CAAC8
:1059B0001F682B46B84701462B460CAA20460029F3
:1059C0009CD1A168FFF774FDE36A1B78012B0146A7
:1059D000D3D82B46D5E70DF1100841462046FFF7F6
:1059E0004BFE00287FF45DAF049F6EE75746029D93
:1059F000DDF80CA0616808AA08232046FFF758FDCF
:105A0000E36A1B78012B82BFDA1D5B421A40636890
:105A100098BF08229B1A0146636000283FF462AFDA
:105A200008463EE7019E10E72DE9F04F04468BB093
:105A300000F11409484612F0B7FDA06A8368DB68DC
:105A40009847E062002800F08E81A06A8368DB68D6
:105A500098470368013B1F2B00F28581A06A2168EB
:105A600007AA09F067FB002840F07D81A389002B7D
:105A700000F07981089AB3FBF2F102FB1133002B9D
:105A800040F07181E289012A40F26D81E26A02935D
:105A900016794FF0FF334FF0FF32484612F08CFD7D
:105AA000E36A1B78012B82BF03F107085B4208EA17
:105AB0000308E38998BF4FF00808002B00F05681D7
:105AC00000271FFA88FA3D46A1892B04A1EB0A01A1
:105AD00013FA81FB5946082332462046CDF808B018
