:1000000000BA0020D58D000079880000A98D00007D
:10001000A98D0000A98D0000A98D0000000000003E
:10002000000000000000000000000000B98900008E
:10003000A98D00000000000029890000A98D0000A2
:100040003D8B00003D8B00003D8B00003D8B000090
:100050003D8B00003D8B00003D8B00003D8B000080
:100060003D8B00003D8B00003D8B00003D8B000070
:100070003D8B00003D8B00003D8B00003D8B000060
:100080003D8B00003D8B00003D8B00003D8B000050
:100090003D8B00003D8B00003D8B00003D8B000040
:1000A0003D8B00003D8B00003D8B00003D8B000030
:1000B0003D8B00003D8B00003D8B00003D8B000020
:1000C0003D8B00003D8B00003D8B00003D8B000010
:1000D0003D8B00003D8B00003D8B00003D8B000000
:1000E0003D8B00003D8B00003D8B00003D8B0000F0
:1000F0003D8B00003D8B00003D8B00003D8B0000E0
:1001000001F0FF01102A2BDB10F0070F08D010F8C8
:10011000013B013A8B422DD010F0070F42B3F6D1CC
:10012000F0B441EA012141EA014122F007047FF0E5
:1001300000070023F0E80256083C85EA010586EA3C
:10014000010685FA47F5A3FA87F586FA47F6A5FA78
:1001500087F68EB9EED1F0BC01F0FF0102F0070284
:1001600032B110F8013B013A83EA010313B1F8D12F
:100170000020704701387047002D06BF3546033810
:10018000073815F0010F07D1013015F4807F02BF49
:10019000013015F4C03F0130F0BC0138704700BF9A
:1001A00053B94AB9002908BF00281CBF4FF0FF31DE
:1001B0004FF0FF3000F00CB8ADF1080C6DE904CE43
:1001C00001F0F8FADDF804E0DDE9022304B070473D
:1001D000704700BF2DE9F14F03F11C0402EB840CC2
:1001E0004FEA930B8A68CB680868496800F046F9C3
:1001F0003CE9F0006040694072407B400BF1060E24
:100200004EE083EA134480EA134582EA134746BA74
:1002100096EA3444604000F00F1684EA063420F079
:100220000F1684EA161054BA94EA0106724002F0DE
:100230000F1486EA043622F00F1486EA14124CBA20
:100240006540694001F00F1485EA043521F00F1470
:1002500085EA14115CBA67407B4003F00F1487EA0B
:10026000043723F00F1487EA141344BA44404DBAFC
:100270004D4056BA56405FBA5F4087EA174886EA53
:10028000174B84EA17464FEA38488BEA1B4485EA45
:100290001B4788EA1B4580EA3440694072407B4036
:1002A00000F0703400F0803500F00F3040EA440078
:1002B00040EAD50080EA900404F0332480EA840008
:1002C000604001F0703401F0803501F00F3141EAF7
:1002D000440141EAD50181EA910404F0332481EA22
:1002E0008401614002F0703402F0803502F00F3278
:1002F00042EA440242EAD50282EA920404F033243C
:1003000082EA8402624003F0703403F0803503F027
:100310000F3343EA440343EAD50383EA930404F02A
:10032000332483EA84036340C943DB4381EA000446
:1003300083EA044686EA020183EA014382EA3345FE
:1003400083EA14435C4084EA00077FEA040A8AEAED
:10035000024A8AEA010B87EA11488AEA374A80EAA8
:10036000060181EA1A418AEA030A04EA0A004540C2
:1003700088EA040707EA0B0041408AEA0B0608EA0C
:10038000060084EA34428AEA3A4602EA0603584002
:100390004540414087EA37438BEA3B4003EA000986
:1003A00085EA090582EA0309464006EA0906714022
:1003B00085EA010005EA3546464006EA314181EA10
:1003C000304181EA364606EA304686EA3546344010
:1003D0000F4086EA010508EA050886EA3640024031
:1003E00088EA020881EA314213405C4080EA020355
:1003F00009EA030987EA0907674088EA040806EA68
:100400000A0601EA0B018AEA0B0425408AEA3A440B
:10041000204045408BEA3B4B02EA0B02564084EAFF
:100420000B04234059406E40694087EA364080EA19
:10043000384080EA060380EA104481EA134585EAE1
:10044000344585EA17427D4082EA354180EA05401D
:100450003CE9F0006040694072407B40BEF1010E13
:100460003FF6CFAE20BC00F05FF828606960AA605C
:10047000EB60BDE8F08F00BF00F000BA80EA101416
:1004800004F0F01480EA0410604081EA111404F0D2
:10049000F01481EA0411614082EA121404F0F014AD
:1004A00082EA0412624083EA131404F0F01483EA2F
:1004B0000413634080EA102404F47F4480EA04209B
:1004C000604081EA112404F47F4481EA0421614000
:1004D00082EA122404F47F4482EA0422624083EA1E
:1004E000132404F47F4483EA0423634081EA500424
:1004F00004F0553480EA4400614083EA520404F079
:10050000553482EA4402634082EA900404F03334B2
:1005100080EA8400624083EA910404F0333481EA83
:1005200084016340704700BF82EA900404F03334D2
:1005300080EA8400624083EA910404F0333481EA63
:100540008401634081EA500404F0553480EA440099
:10055000614083EA520404F0553482EA4402634065
:1005600080EA102404F47F4480EA0420604081EA99
:10057000112404F47F4481EA0421614082EA1224B8
:1005800004F47F4482EA0422624083EA132404F4E0
:100590007F4483EA0423634080EA101404F0F014DB
:1005A00080EA0410604081EA111404F0F01481EA3A
:1005B0000411614082EA121404F0F01482EA041279
:1005C000624083EA131404F0F01483EA04136340D6
:1005D000704700BF2DE9F14F94464FEA930B8A68AC
:1005E000CB6808684968FFF749FF0BF1060E33E056
:1005F00083EA134480EA134582EA134746BA96EA2F
:100600003444604000F00F1684EA063420F00F16E0
:1006100084EA161054BA94EA0106724002F00F14EC
:1006200086EA043622F00F1486EA14124CBA6540AA
:10063000694001F00F1485EA043521F00F1485EAB2
:1006400014115CBA67407B4003F00F1487EA04374B
:1006500023F00F1487EA1413BCE8F00060406940EF
:1006600072407B4000F0E03400F0103500F00F30B5
:1006700040EA540040EAC50080EA900404F03324C4
:1006800080EA8400604001F0E03401F0103501F0B0
:100690000F3141EA540141EAC50181EA910404F0B5
:1006A000332481EA8401614002F0E03402F0103525
:1006B00002F00F3242EA540242EAC50282EA920490
:1006C00004F0332482EA8402624003F0E03403F051
:1006D000103503F00F3343EA540343EAC50383EABA
:1006E000930404F0332483EA8403634081EA3247AD
:1006F00087EA134581EA354690EA060484EA034B0B
:1007000082EA1B4280EA044484EA054483EA144AEC
:1007100085EA14448BEA044B84EA374481EA0B41AE
:1007200081EA164104EA0A00454082EA04082BEAFD
:10073000080041408AEA0B0602EA060084EA3443D4
:100740008AEA3A4603EA060778404540414088EA8B
:1007500038478BEA3B4007EA000985EA090583EA46
:100760000709464006EA0906714085EA010005EAE4
:100770003546464006EA314181EA304181EA364653
:1007800006EA304686EA3546344008EA010886EA39
:1007900001052A4086EA364003405A4081EA314347
:1007A0001F407C4080EA030709EA070988EA090834
:1007B000544088EA020806EA0A0601EA0B018AEABE
:1007C0000B0215408AEA3A42104045408BEA3B4012
:1007D00003405E404240174079404D404E40E44364
:1007E000F64386EA18435D4085EA054083EA1343F1
:1007F00086EA034183EA384284EA114383EA0443E8
:100800005FEA3343BEF1010E3FF6F2AE1ED4BCE800
:10081000F0006040694072407B4020BCFFF784FEDE
:1008200028606960AA60EB60BDE8F08F2DE9E041C7
:100830004FF2F00280EA1031114080EA0130484066
:1008400041088208C3084FF0000E4FE700F0113056
:1008500001F0113102F0113203F0113340EA41008E
:1008600040EA820040EAC3004FF2F00280EA103111
:10087000114080EA01304840BDE8E0812DE9F04FA9
:1008800002F11C050646074600EB850851F8040BEB
:10089000043A46F8040BF9D14FF0010CFFF7C6FFFC
:1008A0005FEA302080EA0C001ECF41404A405340AE
:1008B0005C401EC62000464517D04FEA4C0C1CF485
:1008C000807F18BFACF1E50C2C2DE7D03C2D06D174
:1008D000FFF7ACFF06CF41404A4006C6100006CFE6
:1008E00041404A4006C61000D8E736E90F00FFF73E
:1008F000C5FD043D86E80F00F7D1BDE8F08F00BFCD
:100900002DE9F00391E8F803B2E802105B1854EB0C
:100910000C04B2E802104D4156EB0C0692E80610AA
:100920004F4158EB020859EB0C0980E8F80380416D
:100930000130BDE8F00370472DE9F00391E8F803BA
:10094000B2E802105B1A74EB0C04B2E802108D419D
:1009500076EB0C0692E806108F4178EB020879EBF3
:100960000C0980E8F80380414042BDE8F00370477D
:100970002DE9F003524290E83800B1E880031740B7
:10098000DB1918EA020854EB080419EA020955EBCE
:10099000090538C090E8780091E8820311404B4186
:1009A00017407C4118EA020855EB080519EA0209CC
:1009B00056EB090678C080410130BDE8F00370476E
:1009C0002DE9F003524290E83800B1E88003174067
:1009D000DB1B18EA020874EB080419EA020975EB3C
:1009E000090538C090E8780091E8820311408B41F6
:1009F0001740BC4118EA020875EB080519EA02091C
:100A000076EB090678C080414042BDE8F0037047AC
:100A10002DE9F00152424FF0030890E8300091E8D0
:100A2000C000A31B1340E41AF618EB1B1340ED1A89
:100A3000FF1830C0C0C1B8F10108EED104680E68DB
:100A4000A31B1340E41AF61804600E60BDE8F00121
:100A5000704700BF00B592EC070AB1E8005E07EEF0
:100A6000101A56EC102A58EC117AA9FB0250AAFB76
:100A70000234E9FB6603EBFB624340EC145AAAFB29
:100A80000605ECFB6235E9FB6740E9FB6830EEFBED
:100A90006250AAFB0721EAFB6851EBFB680112EEEA
:100AA000108AEBFB6632ECFB6652EAFB6802EBFB5A
:100AB000681243EC154AA9FB084312EE908AE9FB41
:100AC0006803EAFB6813EBFB6823EBFB6754EEFB60
:100AD000660413EE108AE9FB6814EAFB6824EBFB5A
:100AE000683406EE105A17EE109A99E8000CACFB29
:100AF000076511EE909AECFB6915EEFB6925EAFBA0
:100B00006935EBFB694510EE109AEAFB6906EBFBD1
:100B1000691612EE109AECFB6926EEFB6936EAFBC9
:100B20006946EBFB695610EE909AAAFB0987EBFB2E
:100B3000692712EE909AECFB6937EEFB6947EAFBF6
:100B40006957EBFB696711EE109AEEFB6918EAFB37
:100B50006928EBFB693813EE109AECFB6948EEFB51
:100B60006958EAFB6968EBFB697800BD2DE9F04F35
:100B700007EE900AFFF76EFF17EE909AA9EC054A70
:100B800089E8FF01BDE8F08F00B591E8805FA7FB21
:100B90000750A7FB0834E7FB6803E7FB694340EC19
:100BA000145AA7FB0905E7FB6A35E8FB6840E7FB39
:100BB0006A30E7FB6B50A8FB0921E7FB6B51E7FBB1
:100BC0006C01E8FB6932E8FB6A52E7FB6C02E7FB69
:100BD0006E1243EC154AA8FB0A43E8FB6B03E7FBE4
:100BE0006E13E8FB6E23E9FB6954E8FB6B04E8FB3A
:100BF0006C14E8FB6E24E9FB6E3406EE105AA9FB78
:100C00000A65E8FB6C15E9FB6C25E9FB6E35EAFB30
:100C10006E45E9FB6A06E9FB6B16E9FB6C26EAFB0D
:100C20006C36EAFB6E46EBFB6E56A9FB0B87EAFBC4
:100C30006B27EAFB6C37EBFB6C47EBFB6E57ECFB6F
:100C40006E67EAFB6A18EAFB6B28EBFB6B38EBFB81
:100C50006C48ECFB6C58ECFB6E68EEFB6E7800BDEC
:100C60002DE9F04F07EE900AFFF78EFF17EE909AEE
:100C7000A9EC054A89E8FF01BDE8F08F2DE9F007EE
:100C800091E8F807B2E802105B1854EB0C04B2E8E4
:100C900002104D4156EB0C06B2E802104F4158EBE2
:100CA0000C08B2E8021059EB01095AEB0C0A80E873
:100CB000F80780410130BDE8F00770472DE9F007E3
:100CC00091E8F807B2E802105B1A74EB0C04B2E882
:100CD00002108D4176EB0C06B2E802108F4178EBE2
:100CE0000C08B2E8021079EB01097AEB0C0A80E8F3
:100CF000F80780414042BDE8F00770472DE9F00752
:100D0000524290E87800B1E880071740DB1918EAF2
:100D1000020854EB080419EA020955EB09051AEA1E
:100D2000020A56EB0A0678C090E87800B1E880071E
:100D300017407B4118EA020854EB080419EA02093B
:100D400055EB09051AEA020A56EB0A0678C08041FB
:100D50000130BDE8F00770472DE9F007524290E8F6
:100D60007800B1E880071740DB1B18EA020874EB33
:100D7000080419EA020975EB09051AEA020A76EB7A
:100D80000A0678C090E87800B1E880071740BB41B8
:100D900018EA020874EB080419EA020975EB090560
:100DA0001AEA020A76EB0A0678C080414042BDE8A2
:100DB000F00770472DE9F00152424FF0040890E827
:100DC000300091E8C000A31B1340E41AF618EB1B97
:100DD0001340ED1AFF1830C0C0C1B8F10108EED1C0
:100DE000BDE8F001704700BF00B592EC080AB1E819
:100DF000805707EE101A53EC102A56EC114AA7FB45
:100E00000251A8FB020BE7FB6310E9FB62B041EC67
:100E1000145AA8FB0351EAFB6201E7FB64B5E7FB48
:100E20006605E8FB661505EE10BAA9FB03B6EAFBFA
:100E30006316ECFB6356E8FB640BE9FB641BEAFBFF
:100E4000645BECFB646B05EE900AACFB023012EEC7
:100E5000104AEEFB6250E9FB6460EAFB64B0E7FB1A
:100E60006431E8FB645112EE904AE8FB6461E9FBEF
:100E700064B1EAFB640106EE103AA7FB043213EEFC
:100E8000104AE7FB6462E8FB64B2E9FB6402EAFB38
:100E9000641211EE904AE9FB6453EAFB646313EEBB
:100EA000904AE7FB64B3E8FB6403E9FB6413EAFBE5
:100EB000642306EE905A17EE109A99E8000610EE99
:100EC000108AA9FB0854EAFB68B412EE108AECFB06
:100ED0006804EEFB6814E9FB6824EAFB683410EE52
:100EE000908AEEFB6865E9FB68B5EAFB680512EEDF
:100EF000908AECFB6815EEFB6825E9FB6835EAFB98
:100F0000684507EE106A11EE108AAEFB0876E9FB21
:100F10006806EAFB681613EE108AECFB6826EEFB07
:100F20006836E9FB6846EAFB685611EE908AECFBEE
:100F300068B7EEFB6807E9FB6817EAFB682713EE62
:100F4000908AECFB6837EEFB6847E9FB6857EAFBE1
:100F5000686700BD2DE9F04F07EE900AFFF744FFE8
:100F600017EE908A07EE90BAA8EC084A88E8FF00CE
:100F7000BDE8F08F00B591E89857A3FB0352A3FB9F
:100F80000401E3FB6420E3FB671042EC145AA3FB6B
:100F90000752E3FB6802E4FB6415E3FB6805E3FB2F
:100FA0006925A4FB07B6E3FB6926E3FB6A56E4FB6D
:100FB000670BE4FB682BE3FB6A5BE3FB6C6B40ECC9
:100FC000151AA4FB0810E4FB6950E3FB6C60E3FB1B
:100FD0006EB0E7FB6721E4FB6951E4FB6A61E3FB68
:100FE0006EB1E4FB6E0106EE102AA7FB0832E4FBAB
:100FF0006A62E4FB6CB2E4FB6E02E7FB6E12E7FB95
:101000006853E7FB6963E4FB6CB3E7FB6C03E7FB46
:101010006E13E8FB6E2306EE905AA7FB0954E7FB1C
:101020006AB4E7FB6C04E8FB6C14E8FB6E24E9FB94
:101030006E34E8FB6865E7FB6AB5E8FB6A05E8FB28
:101040006C15E9FB6C25E9FB6E35EAFB6E4507EE96
:10105000106AA8FB0976E8FB6A06E9FB6A16E9FB59
:101060006C26EAFB6C36EAFB6E46ECFB6E56E8FB40
:1010700069B7E9FB6907E9FB6A17EAFB6A27EAFB3C
:101080006C37ECFB6C47ECFB6E57EEFB6E6700BDFC
:101090002DE9F04F07EE900AFFF76CFF17EE908AEC
:1010A00007EE90BAA8EC084A88E8FF00BDE8F08F88
:1010B00030B44FF0000310F8014B11F8015B013A16
:1010C00084EA050443EA0403F5D1A3F101034FEADE
:1010D000D37030BC704700BF4FF0000310F8012BF5
:1010E000013943EA0203F9D1A3F101034FEAD370B6
:1010F000704700BF30B411F8014B12F8015B6C402F
:1011000000F8014B013BF6D130BC70472DE9F003EC
:1011100091E8F803B2E802105B1854EB0C04B2E853
:1011200002104D4156EB0C0692E806104F4158EB69
:10113000020859EB0C098941013B74F1000475F177
:10114000000576F1FF3677F1FF3778F1FF3879F156
:10115000FF3951F1000113EBD17354F1000455F143
:1011600000054E414F4158EB010859EB010980E859
:10117000F803BDE8F00370472DE9F00391E8F803A8
:10118000B2E802105B1A74EB0C04B2E802108D4155
:1011900076EB0C0692E806108F4178EB020879EBAB
:1011A0000C09894113EBD17354F1000455F100058A
:1011B0004E414F4158EB010859EB010980E8F80313
:1011C000BDE8F003704700BF2DE9F04F07EE900A2D
:1011D000FFF740FC5AEC359AB9EB05097AEB060AA1
:1011E000B84171EB080172F1000273F1000374F170
:1011F00000046BEB0B0B491972417B4154EB080463
:101200004BF1000557EC146A15EE108ABEEB0E0E7A
:1012100059EB02095AEB030A604169415EF1000E85
:1012200096419F4178EB040879EB05097AF1000AB1
:1012300070F1000B71F1000C6EF1010E16EBDE7611
:1012400057F1000758F1000859EB0E095AEB0E0A46
:101250005BEB0E0B5CEB0E0C17EE900A80E8C01FE8
:10126000BDE8F08F2DE9F04F07EE900AFFF78CFCF8
:10127000B0E700BF2DE9F00791E8F807B2E80210E7
:101280005B1854EB0C04B2E802104D4156EB0C060F
:10129000B2E802104F4158EB0C08B2E8021059EBCB
:1012A00001095AEB0C0A8941B3F1FF3374F1FF34A1
:1012B00075F1FF3576F1000677F1000778F1000847
:1012C00079F101097AF1FF3A51F100015B184C41C3
:1012D0004D4156F1000657F1000758F1000859EB4F
:1012E000D1795AEB010A80E8F807BDE8F0077047AA
:1012F0002DE9F00791E8F807B2E802105B1A74EBE9
:101300000C04B2E802108D4176EB0C06B2E8021034
:101310008F4178EB0C08B2E8021079EB01097AEB07
:101320000C0A89415B184C414D4156F1000657F1BA
:10133000000758F1000859EBD1795AEB010A80E80F
:10134000F807BDE8F007704718EB040859EB0509EA
:101350005AEB060A5BEB070B5FF0000C4CF1000C3C
:1013600018EB050859EB06095AEB070A5BEB070B6C
:1013700050EB0C005FF0000C51EB0C0152EB0C0237
:1013800063414CF1000CB8EB070879F100097AF1E0
:10139000000A7BEB040BA841B141A241B3416CF1BF
:1013A000000CBBEB050BB041B941AA41BB416CF14C
:1013B000000C6FEAEC74B8EB040879EB04097AEBE3
:1013C000040A7BF1000B70F1000071F1000172EB77
:1013D000D472A3416CF1000C18EBEC7859EBEC796A
:1013E0005AEBEC7A5BF1000B50F1000451F100056F
:1013F00052EBDC7653EBEC774CF1000C18EBEC7015
:1014000059EBEC715AEBEC725BF1000354F1000400
:1014100055F1000556EBDC7657EBEC77704700BFD3
:101420002DE9F04F07EE900AFFF7DEFC59EC168A23
:1014300017EE10AAFFF788FF59EC148A5BEC15AA87
:10144000FFF782FF17EE908A88E8FF00BDE8F08F73
:101450002DE9F04F07EE900AFFF78CFD59EC168A44
:1014600017EE10AAFFF770FF59EC148A5BEC15AA6F
:10147000FFF76AFF17EE908A88E8FF00BDE8F08F5B
:101480002DE9F04F90E8F00F00F140004FF0040E0E
:1014900059E0F0B4826BC36B046805252426875994
:1014A0003C444FEA724787EAF24787EA92273C4476
:1014B00042684FEAF21787EAB24787EAD2073C440C
:1014C00040F8044B032D08BF6FF01B0687593A44C0
:1014D0004FEA734787EAF34787EA93273A4443681A
:1014E0004FEAF31787EAB34787EAD3073A4440F84D
:1014F000042B87593B444FEA744787EAF44787EA4D
:1015000094273B4444684FEAF41787EAB44787EAD4
:10151000D4073B4440F8043B013DC0D1A0F13C005E
:10152000076A3C444FEA724787EAF24787EA922704
:101530003C4402684FEAF21787EAB24787EAD207CB
:101540003C44C463F0BC4FF0020288EA781C8CEA89
:10155000F84C0BEBBC1C8AEA090303EA080383EA94
:101560000A039C4450F8043B9C4451F8043B9C44BF
:10157000674444EA050B0BEA060B04EA05034BEA51
:10158000030BE34484EAF42383EA34530BEBB30BF9
:1015900087EA771C8CEAF74C0AEBBC1C89EA080343
:1015A00003EA070383EA09039C4450F8043B9C4484
:1015B00051F8043B9C4466444BEA040A0AEA050AD3
:1015C0000BEA04034AEA030AE2448BEAFB2383EAB8
:1015D0003B530AEBB30A86EA761C8CEAF64C09EB1D
:1015E000BC1C88EA070303EA060383EA08039C4459
:1015F00050F8043B9C4451F8043B9C4465444AEA3F
:101600000B0909EA04090AEA0B0349EA0309E14460
:101610008AEAFA2383EA3A5309EBB30985EA751C8F
:101620008CEAF54C08EBBC1C87EA060303EA0503C9
:1016300083EA07039C4450F8043B9C4451F8043B64
:101640009C44644449EA0A0808EA0B0809EA0A03C8
:1016500048EA0308E04489EAF92383EA395308EBAE
:10166000B30884EA741C8CEAF44C07EBBC1C86EAD1
:10167000050303EA040383EA06039C4450F8043B91
:101680009C4451F8043B9C44E34448EA090707EAB8
:101690000A0708EA090347EA0307674488EAF823C8
:1016A00083EA385307EBB3078BEA7B1C8CEAFB4CCD
:1016B00006EBBC1C85EA040303EA0B0383EA05037B
:1016C0009C4450F8043B9C4451F8043B9C44E24445
:1016D00047EA080606EA090607EA080346EA030697
:1016E000664487EAF72383EA375306EBB3068AEAB0
:1016F0007A1C8CEAFA4C05EBBC1C84EA0B0303EA67
:101700000A0383EA04039C4450F8043B9C4451F8C8
:10171000043B9C44E14446EA070505EA080506EA5D
:10172000070345EA0305654486EAF62383EA365350
:1017300005EBB30589EA791C8CEAF94C04EBBC1C77
:101740008BEA0A0303EA090383EA0B039C4450F87B
:10175000043B9C4451F8043B9C44E04445EA0604A5
:1017600004EA070405EA060344EA0304644485EA3C
:10177000F52383EA355304EBB304013A7FF4E5AE75
:10178000A0F14000BEF1010E7FF483AEA0F1400C49
:101790009CE80F00001949199219DB19ACE80F00F9
:1017A0009CE80F004044494452445B44ACE80F00BD
:1017B000BDE8F08F2DE9F04786468C460846089E26
:1017C000154674461946002B40F0C2808542B2FA95
:1017D00082F245D94AB1C2F1200300FA02FC2EFA86
:1017E00003F3954043EA0C0C94404FEA154EA8B21F
:1017F000BCFBFEF8230C0EFB18CC08FB00F943EAF7
:101800000C43994528D9EB1808F1FF3704D29945C4
:1018100002D9A8F102072B44A3EB0903A4B2B3FB3E
:10182000FEFC0EFB1C330CFB00F044EA0344A04218
:1018300014D92C190CF1FF3304D2A04202D9ACF117
:1018400002032C44241A43EA07401EB1D44000236B
:1018500034607360BDE8F0874746DDE76346F1E733
:1018600092BB431B01214FEA154EAFB2B3FBFEFC06
:10187000200C0EFB1C330CFB07F840EA0343984591
:1018800062D9EB180CF1FF3004D2984502D9ACF1C3
:1018900002002B44A3EB0803A4B2B3FBFEFC0EFB37
:1018A0001C330CFB07F744EA0344A7424ED92C191A
:1018B0000CF1FF3304D2A74202D9ACF102032C444D
:1018C000E41B43EA0040C0E7C2F1200320FA03F121
:1018D000954090402EFA03F303434FEA154EAFB202
:1018E000B1FBFEFC0EFB1C10190C0CFB07F841EAC7
:1018F0000041884504FA02F422D969180CF1FF303E
:1019000004D2884502D9ACF102002944A1EB0801B8
:101910009BB2B1FBFEFC0EFB1C110CFB07F743EA6C
:1019200001439F420ED9EB180CF1FF3104D29F42C4
:1019300002D9ACF102012B44DB1B41EA004192E7E2
:101940006046E3E76146F7E76046A3E76346B7E72B
:10195000834206D916B9002108467BE7C6E900E0B4
:10196000F9E7B3FA83F78FB9834201D3724508D8F8
:10197000BEEB020460EB030301209C461EB900216C
:1019800068E73846FAE7C6E9004CF8E7C7F1200CEB
:10199000BB4022FA0CF41C432EFA0CF120FA0CF393
:1019A000B84001434FEA14490EFA07F5B3FBF9F8C2
:1019B0001FFA84FE09FB18300B0C08FB0EFA43EAF1
:1019C00000439A4502FA07F240D9E31808F1FF30C4
:1019D00004D29A4502D9A8F102002344A3EB0A03DA
:1019E00089B2B3FBF9F809FB183308FB0EFE41EA94
:1019F00003418E452CD9611808F1FF3304D28E457E
:101A000002D9A8F10203214443EA0040A0FB029856
:101A1000A1EB0E014145CE46434602D306D14D45CA
:101A200004D2B9EB020E68EB04030138002EA6D0F5
:101A3000B5EB0E0261EB030101FA0CFC22FA07F38D
:101A40004CEA0303F940C6E9003198E74046C5E790
:101A50004346D9E710F8012B11F8013B012A28BFB2
:101A60009A42F7D0D01A7047034613F8012B002A88
:101A7000FBD1181A0138704710B54FF0FF331E48DC
:101A80004FF0FF3213F010FA1C4B0024BFF35B8FB2
:101A90001A68BFF35B8F7AB10134042C03F1200381
:101AA000F4D107F0D3FB172303604FF0FF34124843
:101AB00013F07CFA204610BDBFF35B8F53E8001F84
:101AC000013143E80012002AF8D1BFF35B8F9FED8C
:101AD000087B0B4800EB441383ED007B63010C3360
:101AE000184413F0D9F9044813F060FA204610BDE9
:101AF00000000000000000002407002078170020EC
:101B00007017002000000000F0B5144683B062B1E9
:101B1000B0F89630C3F38113022B054608D0012B91
:101B200018BF002029D003B0F0BD104603B0F0BDAF
:101B30009FED2B7B836E13F002038DED007B0E4631
:101B40002BD000220023CDE90023DDE9002305F19D
:101B50006C0013F01DFB0546C0B30AF08FFD8442F4
:101B600028BF04462246314628460AF005FC50B9F3
:101B700028460AF0A1F92046D5E7002303B0BDE8C6
:101B8000F04005F0B3B807F061FB69230360284615
:101B90000AF092F94FF0FF30C5E76A4604210AF0D7
:101BA0000DF8D5F89030B3B1EB6E002BCDD1DDE957
:101BB0000023D5F8901005F1880014F067FA071E8D
:101BC000C3DA07F043FB7F420760E3E707F03EFB21
:101BD0000B230360DEE76FF01507F2E7AFF3008039
:101BE000FFFFFFFFFFFFFFFF70B59FED137B84B08A
:101BF00000248DED007B02942346054609F01CFE6F
:101C0000061E0DDB2B68009328460D490022002399
:101C100009F02EFF051EA8BF204608DB04B070BDEA
:101C200007F014FB764206604FF0FF30F6E707F04E
:101C30000DFB6D420560F7E7008001000000000029
:101C4000B5690000000000002DE9F04F04462DEDBD
:101C5000028B1E46B4F8963083B0DF0715460E9807
:101C60009DF8442040F123818846002A5CD196B13A
:101C7000C3F3C202022A08BF4FF0000958D1172847
:101C800056D9726806F1040A42B9B26832B9F268EC
:101C900022B9326912B96FF078063FE0E26A002A91
:101CA00057D094F99800B9F1000F01D0002D67D0FA
:101CB00008F030FA50B10368BFF35B8FDB68BFF305
:101CC0005B8FDB0758BF6FF0720627D59FED808BC7
:101CD00094F9980008F01EFA8DED008BB4F8962068
:101CE00094F89430C2F3C20229460AF0EBFA074690
:101CF00000285CD094F8941044610AF027F98542DA
:101D00001ED80F9BA364109B2360B4F89430112B52
:101D100044D06FF07A0638460AF0CEF8304603B069
:101D2000BDEC028BBDE8F08F0028A0D1002E46D07C
:101D30006FF01506304603B0BDEC028BBDE8F08FA6
:101D4000B4F89630C3F38113022B00F0B38005463C
:101D5000D7E7226B002AA4D1626B002AA1D1A26B23
:101D6000002A9ED11A059CD4504608F0C3FE08F004
:101D7000EFFF40B284F89800B9F1000F96D197E7D1
:101D8000D9F80C10002993D0D9F8082002EBC10132
:101D90005368083291421D44FAD189E7B4F896306D
:101DA000C3F3C203022B29D06FF01506B3E76FF01F
:101DB0006806304603B0BDEC028BBDE8F08F002909
:101DC0003FF469AFC3F3C202022AB1D1D1E9006086
:101DD0000EB1894653E7E26A04F1280604F12C0AA1
:101DE00032B194F998008946002D7FF461AFC7E7BE
:101DF000226B8946002A3FF44AAFABE753460022E4
:101E000039462046B6F802A009F0F0FC061E82DB37
:101E1000204609F09DFC8346C0B1BBF1000F53DBA7
:101E200038460AF08BFAB4F89630C3F3C203022B9B
:101E300037D0384607F0FAFE061EFFF66CAF2E4686
:101E4000304603B0BDEC028BBDE8F08FE18B52460B
:101E500038460BF0B5FB83460028DED1AA46B9F11F
:101E6000000F2AD0D9F80C303BB9D9E7BAEB080AF1
:101E7000D6D0D9F80C305B45D2D9D9F8083003EB6D
:101E8000CB0253F83B105368534528BF53461A46BC
:101E9000384698460AF060FC061E0BF1010BE5DAA5
:101EA00039E794F8941038460AF010FEC1E76FF055
:101EB000080633E76FF00B0630E72A4641463846FE
:101EC0000AF04AFC8346A8E75E4624E7AFF30080A9
:101ED00000800000000000002DE9F047054686B0B4
:101EE0009946002428230F46CDE9024390460AF084
:101EF00025FA02A928460AF04DFC002800F0D080FF
:101F000083793A2B064666D0112B61D0062B5CD024
:101F1000AC68002C00F0B5804FF0000CA389246859
:101F20009C44002CFAD195F82430A8699FED5E7B83
:101F3000022202FB03CC8DED007B0CF104013A235D
:101F40000AF0C0F90446002800F0A78095F8242084
:101F5000296A0AF001FCB0F1000A2FDBA3689B6834
:101F6000A36295F82C20A96A20460AF0F5FBB0F18F
:101F7000000A23DBA06895F82C10083007F0EEFA71
:101F8000A06850F8083F236295F8241007F0E6FA9D
:101F900095F82C3084F8243095F8243084F82C30CF
:101FA000337EFF2B06F1180163D006F108022046AC
:101FB0000AF04CFD064620B36FF0040A204609F0F3
:101FC0007BFF504606B0BDE8F0874FF03C0CAAE717
:101FD0004FF0300CA7E70399049404232846059397
:101FE0000AF0B2F904A928460AF0D4FB002845D02B
:101FF00090F90130A34241DA28460AF09FF9B379FB
:1020000082E704904FF0040A04A92046CDF814A0FA
:102010000AF0C0FB0028CFD080F8018007708670DE
:10202000C67004A920460AF0DBFB0028C4D1042FA7
:1020300029D05246014620460AF092F982462046AF
:1020400009F066FFBAF1000FB8D1024629462046D2
:102050000AF09CF90028B1D120460AF06FF93A2124
:1020600020460AF033FD204607F0E0FD0028A5DBFE
:10207000A7E7A06908F0DAFC014696E76FF0150AB9
:102080009FE7A4464FE799FA89F33A4604A9204608
:1020900004930AF061FB8246D1E76FF00B0A90E7E8
:1020A0006FF0040A8DE700BF008000000000000010
:1020B00000B589B09FED0E7B06ABCDE9063302AAD1
:1020C0008023CDE9022200930B4A02AB8DED047B05
:1020D0000BF000FB002805DB4FF48042002302A830
:1020E00013F0D6F809B05DF804FB00BFAFF3008031
:1020F000000000000100000009D8000000000000FE
:10210000474BD3F80423900702D5D3F804218AB9AA
:102110004FF02003EFF3118283F31288BFF36F8F28
:102120003F4BD3F80413C9030ED482F31188BFF3D5
:102130006F8F70473B4A0021C3F80411D3F8043174
:10214000136801331360E3E7F0B53749BFF35B8FE2
:1021500083B051E8000F20F0010441E80045002D54
:10216000F7D1BFF35B8F40B9D3F840312BB982F37D
:102170001188BFF36F8F03B0F0BD29480023C0F86A
:102180004031D0F8403182F31188BFF36F8F254B77
:102190001B68190A1B06BFF35F8FD0F80425D318FC
:1021A00041F10001B2F5801F0AD2204AD2E9004570
:1021B000A34271EB050203D213F1807341F10001D8
:1021C0004FF02002EFF3118C82F31288BFF36F8F70
:1021D000174AD2E90245A342A94118D39FED0E7BCD
:1021E0000F4E1168536800204FF4803782ED027B58
:1021F0001060C6F848738CF31188BFF36F8F002905
:10220000B9D0009322462B46884703B0F0BD8CF32B
:102210001188BFF36F8FAEE7FFFFFFFFFFFFFFFFE8
:1022200000100140CC480020C4480020C019002004
:10223000A8190020000000000A7B02B97047F0B521
:102240000B4691F800C049790CF1010C8909ACEBFF
:10225000020C01299BB0864600EB0C0411D0022928
:1022600032D14D4D501C05232880AB7021464E23A2
:10227000E81C36F043FC28461BB0BDE8F0400DF0EA
:10228000F5BA9FED437B8DED007B8DED027B4FF02A
:1022900080501EF80C50D0F8A810D0F8A400B4F864
:1022A0000570049089B20090022DD4F80100ADF8B9
:1022B0000C7004AE0591ADF80410029020D0062DEC
:1022C00045D00DB94B2A01D01BB0F0BD2146DC79B9
:1022D0009879DB7A8DF8153004F0030340EA032087
:1022E0004F23ADF81300ADF810300DF116000223A6
:1022F0008DF8123036F0F4FB30460DF0B7FAE3E714
:10230000112AE1D15EF80C20CDF816206268CDF8D4
:102310001A20227C8DF82620DA79A568E168DC7A1B
:102320009B79CDF8221002F0030243EA0223152123
:1023300004223046CDF81E50ADF813308DF815400C
:10234000ADF810108DF812200DF090FABCE7D01FF8
:10235000C0B21028B8D8D11E0246D8798DF81250D4
:102360009D79DB7A8DF81530C9B200F00303ADF822
:10237000101045EA0323E11D0DF11600ADF81330EE
:1023800036F0AEFB30460DF071FA9DE7AFF30080FA
:102390000000000000000000AC4A00200000000027
:1023A0004B790A7903F001032DE9F0471B01DFF8AF
:1023B000EC82AF4CAF4DB04F43EA12138146C8795F
:1023C00088F800300E464B78897900F0030041EA26
:1023D00000212180A949F47A95F82D000C70C3F3EF
:1023E000820188423C789AB005D085F82D100134DE
:1023F000E4B232793C7095F8301002F00F03994244
:10240000C2F3030206D001343C7085F830200DF091
:102410009DFB3C78737995F83110C3F344029142E7
:1024200004D00134E4B285F831203C70F37995F89A
:102430003220C3F3820A524505D085F832A0013418
:10244000E4B2F3793C7095F83320B2EB531FC3F339
:10245000421104D00134E4B285F833103C70337A71
:1024600095F834209A4204D00134E4B285F834302F
:102470003C70737A95F835209A4204D00134E4B266
:1024800085F835303C70B37A95F836209A4204D0FE
:102490000134E4B285F836303C70002C40F0CC803A
:1024A0005046727B95F8371002F003039942C2F34D
:1024B000010C04D085F837C00134727B3C7095F86C
:1024C0003910C2F34113994205D085F839303B7871
:1024D000727B01333B70B37B95F83A4003F0030104
:1024E000490041EAD212944205D03B7885F83A205F
:1024F00001333B70B37B95F83B10C3F382029142EA
:1025000005D03B7885F83B2001333B70B37B95F8D1
:102510003C20B2EB531FC3F3421104D03B7885F843
:102520003C1001333B70F279B379554902F0030452
:1025300043EA042383424FF000040C602FD395F844
:102540002010012907D995F82D1001290BD04D4AEB
:1025500012889A4223D8EB7F042B1CBF0323EB770E
:102560001AB0BDE8F08795F822100229EFD100EBF0
:1025700052118B424FEA521211DB347A21448B42C2
:10258000E9DA9A1A121A707998F80010C0F3440028
:1025900000FB02123C49098892B29142DBD9EA7FE2
:1025A0003A490120042A087006D0394839490022E6
:1025B00002700A700422EA77374A347B00211170D6
:1025C000002CCDD09A45CBD9727931789209012A65
:1025D000C6D19FED257B01318DED007B8DED027B1A
:1025E000091B4FF0805009EB010819F80120D0F8C1
:1025F000A810D0F8A400B8F805C0049089B20090E3
:10260000013AD8F80100ADF80CC004AF0591ADF85F
:1026100004100290052AA3D801A151F822F000BFAE
:1026200065280000612500004B2700001D270000E1
:10263000F7260000A12600000CF0C0FE95F833300C
:1026400095F832201A4495F83430134495F8352023
:102650001A4495F836301344EB840CF04DFFF079B2
:10266000C0F382001DE700BF000000000000000072
:10267000F67A00200C4C0020137B00201E7B0020EB
:10268000084C0020F47A0020F27A00201D7B002004
:10269000147B0020167B0020217B0020207B002063
:1026A000DDE90252DDE900018A4208BF854207D018
:1026B0004FF6FF718A4208BFB5F1FF3F7FF450AF7C
:1026C000E21FD2B2102A3FF64BAFADF8133008F13B
:1026D0000701F37A8DF815300DF1160036F000FA87
:1026E000E31EDBB206223846ADF810308DF812201A
:1026F0000DF0BCF834E7DDE90223DDE900018B428F
:1027000008BF824207D04FF6FF718B4208BFB2F17B
:10271000FF3F7FF425AF002003F07CF9DDE90223C1
:10272000DDE900018B4208BF824207D04FF6FF71FE
:102730008B4208BFB2F1FF3F7FF412AF0DF006FAF3
:102740001AB0BDE8F0470CF039BEDDE90202DDE960
:1027500000139A4208BF88427FF402AF95F82030F8
:10276000012B7FF4FDAE98F80B30012B3FF4F8AE4F
:10277000022B00F09B80032B04D198F80C20012A37
:102780003FF4EEAEB8F80740EA8DA1B28A422FD0EE
:102790000320B1FBF0F303EB4303CB1ADFF82CC1AA
:1027A000EC85DBB200264FF01F0E01EB6602C3EB97
:1027B000431AB2FBFEF9C9EB49190AF1030AA2EB6D
:1027C000090252440133DBB20CF8012BB3FBF0F2E7
:1027D000053602EB42029B1A1E2EDBB2E5D13648CB
:1027E00002230374A0F8824012F0BAFE98F80B306E
:1027F0006B7498F80A2098F8093043EA0223AB82F8
:102800000CF0DCFD2D4B0DF1130203F120011868D3
:1028100010601032586842F80C0C986842F8080CA6
:1028200010338B4253F8040C42F8040CEFD1998812
:102830001C6891809979917114603846282300248E
:10284000ADF810308DF812400DF010F81C4B1D48FB
:10285000C3F85041D3F8503104211AB0BDE8F04715
:1028600011F0C2BDDDE90202DDE900139A4208BFA2
:1028700088427FF475AE95F82030002B7FF470AE5F
:1028800098F80720602A3FF66BAE08F108010E4861
:1028900036F026F9084898F80720A0F87C20032392
:1028A00003741AB0BDE8F04712F05ABE98F80C2035
:1028B000022A7FF467AF53E6DC480020224C002058
:1028C00000A00140D89C0300F8480020544D00208F
:1028D0002DE9F0419FED167B8EB0DFF86880009007
:1028E00006AC0023CDE90243054643460E46174693
:1028F0002021114A20468DED047B01F089FA02AABD
:102900000E49204605F060FA43460D4A0095202105
:10291000204601F07DFA3A463146204605F01EFA7F
:10292000B0FA80F040090EB0BDE8F081AFF300804E
:10293000FFFFFFFFFEFFFFFF009D0300F5240100E6
:10294000089D0300FC9C030010B58C1882B013F0A6
:102950002FFD43014A011B1A42EAD06262EB0102D9
:10296000920042EA93729B001B1841EB0200C000E8
:1029700040EA5370C3F3103343EA4043E41A002C97
:1029800016DD4FF4004340F2E7300021E4FB030181
:102990004FF47A720023FDF703FC9FED097B02469A
:1029A0000B4609488DED007B13F0B6FD02B010BD5B
:1029B000064B01221A7002B0BDE8104006F0ECBED2
:1029C000000000000000000070060020267B0020B0
:1029D0002DE9F04385B098460F9B83739FED1C7BD8
:1029E000109B0373073222F0070900F158030446D5
:1029F000C0E91633002701F14003042209F1400623
:102A000042738760C7730D4684ED067B0E444A46C9
:102A1000AA21184636F09FF80E9BC4E91A090293C2
:102A20000D9B01930C9B0093294643462767324632
:102A3000204605F0D1FF084B67659B6803B15B6FCB
:102A40006367304605B0BDE8F08300BFAFF3008098
:102A5000000000000000000040780020000000009E
:102A60002DE9F04784B098460F9B83739FED2A7B36
:102A7000109B0373073200F158030446C0E9163374
:102A800022F00705002701F14003042242730E469D
:102A90008760C7732A4684ED067BAA211846DDE9C4
:102AA00012A936F058F80E9BA06602930D9B019375
:102AB00005F140020C9B009332444346E5662767CC
:102AC0003146204605F088FF154B67659B6803B1CA
:102AD0005B6F6367B9F1FF3F08BFBAF1FF3F03D1F6
:102AE000204604B0BDE8F08759EA0A0306D1204623
:102AF00012F06CFF204604B0BDE8F08704F1180026
:102B0000084952464B4613F04FFB204604B0BDE83F
:102B1000F08700BFAFF3008000000000000000005D
:102B200040780020F92C00002DE9F04F2DED028BAC
:102B30009FED4D8B4E4E85B0054600F1D00900F15A
:102B4000D8084FF02003EFF3118A83F31288BFF304
:102B50006F8FD5F8C840002C60D0D5F8CC20236802
:102B6000C5F8C830944208BFC5F8CC30D5F8E0307D
:102B7000626843F00203C5F8E030E36823F0040321
:102B800043F00103E3608AF31188BFF36F8F20469F
:102B900090474FF02003EFF3118A83F31288BFF3BD
:102BA0006F8FE368990723F001020FD4E260D5F834
:102BB000E03023F00203C5F8E0308AF31188BFF358
:102BC0006F8FDB05BDD413F0BBF8BAE7306823F094
:102BD0000303E3600028EAD0436807689C424FF093
:102BE000000B014608D0002FE1D038468B464368E1
:102BF0003F689C420146F6D103687168BBF1000F43
:102C00002DD08842CBF8003008BFC6F804B00023AE
:102C100040F8083B12F012FB5946E4E7D5F8E030E3
:102C200023F004025807C5F8E02009D400238DEDF5
:102C3000008B02934A4651460E4813F0EBF980E7A9
:102C400000220121404613F0AFF90028EED0002207
:102C50000121404613F0A8F90028F1D1E6E78842A7
:102C60003360D4D17360D2E7FFFFFFFFFFFFFFFFA8
:102C7000101E00207878002030B5044689B000206E
:102C8000C4F8C800C4F8CC000C9D04F1D000C4E91D
:102C9000340004F1D800C4E936000DB328790028C7
:102CA00040F2011008BF01209FED0F7BC4F8E00047
:102CB0000020CDE90100039304908DED067B0C4BC1
:102CC00000942046FFF7CCFE25B1296811B12046BB
:102CD00012F05EF8204609B0BDE8304012F05CB852
:102CE0000120E1E7AFF30080FFFFFFFFFFFFFFFFE1
:102CF000292B00000000000038B54FF02003EFF34F
:102D0000118483F31288BFF36F8F10F80B3C13F01C
:102D1000280217D150F8101C69B19FED0D7B50F8B7
:102D2000145C50F8181C29604D6000ED067B03F020
:102D3000FD0340F8102C23F0140300F80B3C183866
:102D400012F02EFD84F31188BFF36F8F38BD00BFE2
:102D500000000000000000004FF02003EFF311819D
:102D600083F31288BFF36F8FD0E9003213605A608B
:102D7000437B9FED077B23F00203002280ED007B65
:102D80004373826081F31188BFF36F8F704700BF78
:102D9000000000000000000003464FF02001EFF3A8
:102DA000118281F31288BFF36F8F0068834213D0C2
:102DB00068B1D0E900319FED0C7B0B605960437B1B
:102DC00080ED007B23F0020300214373816082F3D6
:102DD0001188BFF36F8F7047002082F31188BFF313
:102DE0006F8F7047AFF3008000000000000000000C
:102DF0004FF02003EFF3118183F31288BFF36F8F3D
:102E0000D0E9003213605A60437B9FED097B23F0C9
:102E10000203002280ED007B4373826081F31188FE
:102E2000BFF36F8F183013F03FBA00BFAFF30080CD
:102E300000000000000000002DE9F0472DED028B9E
:102E4000054612F051FD4FF02003EFF3118783F395
:102E50001288BFF36F8FDFF8D890DFF8D8A0D9F8C9
:102E60000040CAF800504C4550D09FED2F8BDFF842
:102E7000C8803A46D8E9003120464FEAE57C17463B
:102E800044B3D4E90462B5427CEB020E43DBF31891
:102E900041EBE67184ED048BC8E9003113F038F999
:102EA00087F31188BFF36F8FA36898474FF0200313
:102EB000EFF3118783F31288BFF36F8FDAF80050B6
:102EC000D9F80040AD1B4C45CAF800503A46D1D164
:102ED0004FEAE57CD8F800305B19C8F80030D8F824
:102EE00004304FF0000443EB0C03C8F80430CAF878
:102EF000004013F029F921460BF0B4FC87F3118848
:102F0000BFF36F8FBDEC028BBDE8F087DFF8288040
:102F10004FEAE57CDEE74C45DCD0761B62EB0C0229
:102F200026616261D6E700BF0000000000000000DB
:102F3000B40500208C780020181E0020000000003E
:102F40002DE9F84F0025044600F1240B0584743068
:102F50000E4622F09BFC0C23A4F878304FF0AF63B0
:102F6000E36723465A4A84F87B5043F8802FC4F81D
:102F700088302346574A43F88C2FC4F894302346B0
:102F8000554A43F8982FC4F8A0302346534A43F8D3
:102F9000A42F3146C4F8AC30C4E92D55C4E93355EB
:102FA00084F8B050C4F8BC5084F8C950A4F8CA5092
:102FB000C4F8D450A4F8D85004F1F0001CF0CAFAB8
:102FC0009FED417BF0224FF6FE73C4E949234FF693
:102FD000FF7384ED4C7BA4F82C3104F14C0A31468C
:102FE0005846C4E96F5523F03DFC3146504623F066
:102FF00039FC2946082204F1180035F0ACFD2946B9
:10300000082204F1DC0035F0A6FD584623F09CFCB4
:10301000504623F099FC0127122204F5A67929468F
:1030200004F59C7035F097FD394648461CF0F4F9DC
:103030002B4948461BF01EFC20461CF001FA04F503
:10304000B2701CF0FDF904F5BE7804F5B6701BF003
:103050006DFB40461CF0F4F9294604F5C2701BF0E4
:103060009DFB94F88E2142F0800284F88E211D4A47
:103070002946C2F8048104F5CA70142235F06BFDAC
:103080004FF6FF7384F89431322384F89531294642
:10309000142284F8A25184F8A37104F5D47035F099
:1030A0005AFD33234FF0FF3220460F4984F8A82100
:1030B00084F8A93184F8B65184F8B77120F054F837
:1030C0002046BDE8F88F00BF0000000000000000AF
:1030D000ED460200493F0200714A0200A53002009D
:1030E00016330020082F0020D09E030000000000AF
:1030F0009FED177B034680ED007B80ED027B09BBD3
:103100009FED157B83ED047B9FED157B83ED067BA7
:103110009FED157B83ED087B9FED157B83ED0A7B8F
:103120009FED157B83ED0C7B9FED157B83ED0E7B77
:103130009FED157B83ED107B9FED157B084683ED9E
:10314000127B70476FF07400704700BFAFF30080D0
:10315000000000000000000008C9BCF367E6096A2F
:103160003BA7CA8485AE67BB2BF894FE72F36E3C16
:10317000F1361D5F3AF54FA5D182E6AD7F520E5173
:103180001F6C3E2B8C68059B6BBD41FBABD9831F2D
:1031900079217E1319CDE05B2DE9F0419FEDB27BE3
:1031A000B4B08DED027B9FEDB27B8DED047B9FED86
:1031B000B27B8DED067B9FEDB27B00268DED087B0B
:1031C0001446054633923296002A77D180238DF833
:1031D0008830CDF889204FF03A0C01200DF18D0296
:1031E0000E2302AF22A90026022B166021D0032B4A
:1031F00056601ED0042B96601BD0052BD66018D0CD
:10320000062B166115D0072B566112D0082B96613C
:103210000FD0092BD6610CD00A2B166209D00B2BCC
:10322000566206D00C2B966203D00E2BD66208BFD6
:103230001663BCEB830F00EB830012D0431C34AA4F
:10324000024400263B2B02F8486C0AD034AA1344EF
:10325000392803F8486C00F102031CBF9B1803F8DF
:10326000486C630F8DF8C330630D8DF8C430630B69
:103270008DF8C53038466309E4008DF8C6308DF806
:10328000C74034F003FCDDE90201DDE9042306BA9E
:1032900014BA18BADDE9062309BA12BA69602A61BC
:1032A00019BADDE9082312BA1BBA2E60AC60E860D7
:1032B0006961AA61EB6134B0BDE8F08102AF3846C4
:1032C000884634F087FB241A034608EB04010028E3
:1032D00000F0BA80421E022A45D958F804202292F2
:1032E0008208012A3AD048682390022A36D088689A
:1032F0002490032A32D0C8682590042A2ED0086969
:103300002690052A2AD048692790062A26D088695F
:103310002890072A22D0C8692990082A1ED0086A56
:103320002A90092A1AD0486A2B900A2A16D0886A4D
:103330002C900B2A12D0C86A2D900C2A0ED0086B44
:103340002E900D2A0AD0486B2F900E2A06D00F2AF5
:10335000886B18BFCA6B309018BF319223F00306F8
:10336000B342314414D034AA3244087802F8480CED
:10337000721C93420CD934A802440236487802F8F1
:10338000480CB34204D934AA16448A7806F8482C6B
:1033900034AA1A44581C80213828329302F8481C59
:1033A0005CD93F282DD834AA104400213E2B00F8C8
:1033B000481C03F1020224D034A802443D2B02F839
:1033C000481C03F103021CD002443C2B02F8481CA9
:1033D00003F1040215D002443B2B02F8481C03F110
:1033E00005020ED002443A2B03F1060002F8481CF5
:1033F00007D034AB03443E2803F8481C01D18DF8B4
:10340000C71022A93846019134F040FB3A28339C7A
:1034100001993FF626AF431C3B2BC0F13A02C0F1A5
:103420003B0C88BF4FF0010C022A7FF608AF00F179
:1034300080030026FA18FE504FEA9C03012B02F18C
:1034400004027FF4D0AEF4E680223290339C8DF8F3
:1034500088204FF03A0C012022A9E8E7339C22A9EA
:10346000D9E700BFAFF3008067E6096A85AE67BBA6
:1034700072F36E3C3AF54FA57F520E518C68059B56
:10348000ABD9831F19CDE05B014B42781A707047AE
:10349000087B002030B585B000F0A8FA04E04FF4B6
:1034A0000040002112F0E2FC00F09AFA0028F6D069
:1034B0001A4B1B4C4FF4A06202A8DA6000220023D2
:1034C000CDE9022300F07CFADDE90212154BCDE9CB
:1034D0000021204640F28B42002135F0E8FB04F049
:1034E0009DFBE06012F0DCFC082112F009FC00F00A
:1034F0004BF880B90C4D094C204600F017F82B789A
:10350000022B4FF000010CBF4FF400404FF4F010BD
:1035100012F0ACFCF0E700F061F8E8E700000020F2
:103520001000002058970300087B002030B5134A94
:10353000134C144B156822681A61C368282292FB49
:10354000F5F205FB02F283B00146C2F1280202B98E
:10355000FEE79A42FBD848688A600023CDE9003331
:10356000084904F05FF82368002803F10103B4BFA1
:103570006FF004000020236003B030BD6C9703009F
:10358000503C00201000002000B587B0104B009385
:10359000104901AA022004F05FFABDF800001122D0
:1035A000022103F035FE0C4A0028506008DB182287
:1035B000694603F0E5FE002802DB07B05DF804FB76
:1035C00005F044FE0068404207B05DF804FB00BF10
:1035D000020010927097030000000020034B58680F
:1035E000002800DA704703F067BE00BF000000202B
:1035F000F0B585B0144D284611F0DEF910B3002364
:10360000AF680393022644F620628DF80C600093A5
:1036100002930192BB680D4C6946284698470028E2
:10362000206003DB3B68314628469847AE68064D6C
:103630002168F3682846984700214FF4203012F0A3
:1036400015FCF5E7014CF1E758920300543C0020CB
:103650002DE9F0412F4B8CB00026CDE90866CDE96D
:103660000A66CDE906362C4C2C492D4DDFF8BC807E
:103670002C4F07AA022004F0EFF926702A4E2B786F
:103680005BB92378DBB14FF0FF334FF0FF323046A8
:1036900011F0FEFD2B78002BF3D006A9182201A80B
:1036A00003F088F80346002B3A464FF47A6101A8EC
:1036B0000BDA01A803F052F92378002BE3D10021A3
:1036C0004FF4A02012F0D2FBD9E703F0A7F80028AE
:1036D000EFDB12F06DFE4FEA401C4A01BCEB000C20
:1036E00042EAD06262EB01024FEA8C0392001818A2
:1036F00042EA9C7241EB0203DB0043EA5073C0F3E1
:10370000103040EA43400122DB0BC8E9000322707D
:10371000CFE700BF0200007B0E7B002098970300DC
:103720000B7B0020D015002078070020C815002052
:1037300010B510460C4611B1012907D010BD00F09C
:103740005DFA2046BDE8104000F044BA00F042FAAD
:10375000BDE81040002000F051BA00BF38B5138812
:10376000114C023394468E46DAB221460023CD7EB8
:103770009DB9C3EBC30304EB830501236860614675
:1037800005F1090085F808E0EB7635F0A9F929463E
:103790000648BDE8384011F0E3BC0133082B01F1C5
:1037A0001C01E4D138BD00BF603C0020803D0020FA
:1037B00038B5094C237803B938BD06F095F80546AD
:1037C00006F09CF80021286814F0BEFA284606F09E
:1037D0009DF80023237038BD097B0020084B1B781F
:1037E00023B110B5074C23780BB110BD704706F01C
:1037F0007BF805F0E3FF0028F7D10123237010BD0B
:103800000B7B0020097B002038B50D4D2B7803B9C8
:1038100038BD06F069F8044606F070F8206800210B
:1038200014F092FA08B9074B18702068002114F0C0
:1038300029FA00B928702046BDE8384006F066B87D
:103840000C7B0020097B002038B50C4D2B7803B190
:1038500038BD06F049F8044606F050F8206801210A
:1038600014F010FA08B901232B70206804210FF01E
:1038700045FD2046BDE8384006F048B80C7B0020E6
:103880000840C30705D5074A074B12781B780AB1D1
:103890002BB97047002BFCD0044811F061BE0448DE
:1038A00011F05EBE0C7B00200A7B0020703D0020E2
:1038B000603D0020052800D0704700B50B4609493F
:1038C000024603C983B00090ADF80410184669465B
:1038D00035F0F6F810B103B05DF804FB024811F0C2
:1038E000ADFCF8E7C0970300780700202DE9F04F02
:1038F0002A4FDFF8C090DFF8C080294EDFF8BCA067
:1039000083B00AE0012D06D1B0F8090004F10B01E3
:10391000C0B2FFF7CFFF0023E3764FF0FF334FF045
:10392000FF32304611F034FC057A43680446002D1E
:10393000E8D1C17A00F10B0BD1B93978A1B99868F7
:103940001849056C01931846A8470028E3D1019B4C
:1039500015499868456C1846A8470028DBD199F8A6
:10396000003001213970A3B95846FFF78DFDD2E729
:10397000032907D00129F7D10C4811F0F1FD88F88F
:103980000050F1E70123504688F8003011F0E8FDBF
:10399000EAE7074811F0E4FDE6E700BF0D7B0020F1
:1039A000803D00209C040020583C0020403D002029
:1039B000703D00200A7B00200B7B0020503D002042
:1039C0004FF0805282B0D2F8A830D2F8A420026022
:1039D0009BB20193BDF80430838002B0704700BFF2
:1039E000014B1878704700BF0B7B00202DE9F04396
:1039F0008FB0494810F09CFF00260027CDE90867EA
:103A0000054600F0C7F845480EF0BCFE0446002805
:103A10007DD14FF080520DF12808D2F8A830D2F8AD
:103A2000A4200A923E4A10703E4A10703E4A9BB251
:103A300010700B933D4A3E4B10705880988098E868
:103A400003004FF00109A3F800900890ADF824108E
:103A5000384811F057FB03230393CDE90667CDE9FE
:103A60000144354B3549049400944FF400723448B6
:103A7000FEF7F6FF3349324811F08AF90423039325
:103A8000CDE90667CDE901442F4B304904940094F9
:103A90004FF480622E48FEF7E3FF2E492C4811F0C8
:103AA00077F90523CDE90334CDE90667CDE9014473
:103AB000294B2A4900944FF480722948FEF7D0FF21
:103AC0002849274811F064F92749284811F0F8FCE3
:103AD0002749284811F0F4FC2749284811F0F0FC48
:103AE0002749284811F0ECFC274B0A93AB68424663
:103AF0005B6A072128469847244B0A93AB684246E5
:103B00005B6A284608219847214B83F8009020469D
:103B10000FB0BDE8F08300BFC897030081380000F4
:103B20000D7B00200C7B00200B7B0020097B0020FC
:103B3000583C0020803D0020ED38000080810020AE
:103B4000A8160020D897030051360000007D002001
:103B5000E0150020EC970300F1350000807B002089
:103B600000150020FC97030049380000703D00203C
:103B700009380000603D0020DD370000503D002086
:103B8000B1370000403D00205D37000031370000B4
:103B90000A7B002070B50D4C0D4A2569A6682B687C
:103BA00043F020032B600521336820469847002806
:103BB0000BDB2B683668064A43F010032B60204667
:103BC00033460421BDE87040184770BD3C920300A5
:103BD00001000A00084B1A691268920648BF80F07B
:103BE000010020B19B680448DB68202118479B68CE
:103BF00001481B69202118473C920300084B1A69B1
:103C00001268D20648BF80F0010020B19B680448CA
:103C1000DB68102118479B6801481B691021184771
:103C20003C920300C2B1531E0C4A00B501F1FF3CA7
:103C300001EB030E1CF8013F584003090001D35C5F
:103C4000C0B2434019091B01505CDBB2F44580EA65
:103C50000300EFD15DF804FB704700BF0C98030030
:103C60000CB400B5034683B005AADB680192084690
:103C700040F20511984703B05DF804EB02B07047BD
:103C8000032810B512D8BFF35B8F0B4B40011C58B3
:103C9000BFF35B8F54B1083B1C1864680C601AB109
:103CA00000F10C0119441160185810BD05F0CEFA4E
:103CB00009230360002010BD7817002010B40B4CBE
:103CC000430104EB401CE150CCF8042052B11046F3
:103CD000D2683AB10C33234440F205125DF8044B2C
:103CE000FFF7BEBF5DF8044B704700BF70170020A0
:103CF0001649BFF35B8F400100F108030B441A68BB
:103D0000BFF35B8F02B310B5BFF35B8F02F1FF3CD3
:103D100053E800EF964503D143E800C4002CF7D1E7
:103D2000BFF35B8F02D1012A08D010BDBFF35B8FB8
:103D30001A68BFF35B8F002AE6D110BD0144002250
:103D40000023C1E9002310BD704700BF7017002099
:103D500040B1436803F00303022B06D0032B04D0C9
:103D6000012B05D06FF0150070470368002BF9D0C8
:103D70000023836018467047426802F00302022A5B
:103D800008B50346816004D0032A0AD000224260AD
:103D900005E0006800225A6008B112F00FFF002011
:103DA00008BD006800225A6008BD00BF00207047AF
:103DB000014B1B68184700BFA404002030B48B6877
:103DC0000C685D1C64B14A689A4209DD013A9A4266
:103DD00008BF00238D600CBFA354E05430BC704773
:103DE0008D6030BC704700BF0FB400B585B006AB26
:103DF000002153F8042B05480091039300F0C2FC06
:103E000005B05DF804EB04B0704700BFB13D0000A1
:103E10000CB430B587B00AAB002553F8042B0095DD
:103E2000CDE90230CDE90415044603A9064800F0A7
:103E3000A9FCDDE904309842B8BF255407B0BDE8BD
:103E4000304002B0704700BFBD3D0000B0F81CC05C
:103E50001CF0080F2DE9F84F064640F00A810CF0DF
:103E60000700DFF89CA20446022980B211D0B7698E
:103E7000002FC0F2E980431F012B804640F2C3802F
:103E8000042800F022818442134651D04FF00009EB
:103E900016E0002878D13368002B79D02CF0070C7D
:103EA00033694CF0060C1FFA8CFC062CD3F80090FA
:103EB000A6F81CC0134600F0838007464FF00608A2
:103EC000B168002500297BD04CF0080CA6F81CC076
:103ED00082F31188BFF36F8FB16889B10C68D1F894
:103EE00004B03B4642463046D8474CB12146246890
:103EF000D1F804B03B4642463046D847002CF5D1B5
:103F00003DBBB9F1000F02D051463046C8474FF0D3
:103F10002002EFF3118382F31288BFF36F8FB6F89C
:103F20001CC02CF0080C1FFA8CFC1A46A6F81CC00A
:103F30001CF0100F1FD02CF0100C1FFA8CFC01216C
:103F40000CF00700A6F81CC004468DE75D46002D66
:103F5000D7D02846394650F804BBFFF70DFF04467A
:103F60000028F3D029463B46424630465D46A047EE
:103F7000002DEED1C5E71CF0200F0AD02CF0200C4C
:103F80001FFA8CFC0221DBE7022825D1F78B37B121
:103F9000134683F31188BFF36F8FBDE8F88F2CF0C1
:103FA000070C33694CF0040C1FFA8CFC042CD3F87A
:103FB0000490A6F81CC0134602D04FF004087FE717
:103FC000B9F1000FB4D04CF0080CA6F81CC082F375
:103FD0001188BFF36F8F97E70128D9D13368002B81
:103FE000D6D02CF0070C33694CF0050C1FFA8CFC72
:103FF000052CD3F80890A6F81CC01346E0D04FF06B
:10400000050800275CE74FF000082CF0070C062895
:104010003568C6F804801FFA8CFCC6F8008037D0DB
:104020004445A6F81CC013461DD1002D80D04CF08D
:10403000080CA6F81CC082F31188BFF36F8F4FF0F5
:104040000009002D85D15CE72CF0070C00234CF013
:10405000010C3568A6F81CC0736033604FF001088E
:1040600044451346E1D0B1680029DED04FF0000985
:104070002AE701290CBF4CF0100C4CF0200C134621
:10408000A0F81CC083F31188BFF36F8FBDE8F88FD1
:104090005DB1F38B01339BB229460968581C9E46DB
:1040A00083B20029F9D1A6F81EE0F18B4CF002038F
:1040B000B38319B19C464FF00208D1E74CF0220CB3
:1040C000A6F81CC04FF00208CAE72CF0070C3168B4
:1040D0001FFA8CFCA6F81CC059B14CF0200CA6F8B5
:1040E0001CC01346002C3FF423AF4FF00008C1461C
:1040F000E6E61346002C3FF41BAF88468946DFE610
:104100000541000010B40C464FF02001EFF311827E
:1041100081F31288BFF36F8F012184615DF8044B36
:10412000FFF794BE88B138B50C4659B10B684BB156
:104130004B683BB105462022002134F00CFD2C6178
:10414000002038BD6FF0150038BD6FF015007047C6
:1041500000286AD0F8B50E46002963D00F1D054629
:104160003846FFF7F5FD00281CD1B368032B59D85A
:104170004FF02003EFF3118283F31288BFF36F8FA8
:10418000EB8BA88B4FF6FF718B4200F0070432D007
:10419000022C1DD0062C3ED8DFE804F0063D3D3D44
:1041A00006130600E4DAF8BD002333606B684BB3F6
:1041B0001E606E604CBB28460221FFF747FE20467A
:1041C000F8BD82F31188BFF36F8F6FF08500F8BDE3
:1041D0000133EB8382F31188BFF36F8F00213846E0
:1041E000FFF7CAFD074620B1002322463146284684
:1041F000B8470220F8BD82F31188BFF36F8F6FF0CC
:104200000A00F8BD2E606E60D4E7204682F3118864
:10421000BFF36F8FF8BD82F31188BFF36F8F6FF01C
:104220000400F8BD6FF01500F8BD6FF01500704781
:1042300010B54FF02001EFF3118281F31288BFF324
:104240006F8F848B04F00704022C0AD0012C0CBF62
:104250006FF004006FF0850082F31188BFF36F8F59
:1042600010BDC18B013989B2C18309B12046F3E782
:104270002146FFF7EBFD204610BD00BF002835D0DA
:10428000002933D010B54FF02003EFF3118E83F3E4
:104290001288BFF36F8F0368B0F81CC043B1994216
:1042A00002D11AE099420AD01A461B68002BF9D1B4
:1042B0006FF077008EF31188BFF36F8F10BD4368E6
:1042C0000C68146099420FD000230B600CF00700BB
:1042D0008EF31188BFF36F8F10BD42680B680360C7
:1042E0009142F1D14360EFE74260EDE76FF01500D6
:1042F000704700BF8C460446114608B51A46604612
:10430000A04711F0CDFD04F0D9FD00BFCB00023372
:1043100070B5C45AA2EB010E891A01EB54014C008E
:10432000C4F34E0C944400EBC2054FEA4E06C6524D
:104330006C8020F832E020F83C1070BDC9000231DA
:104340004FEAC20C0CF1020C435A00B530F80CE0F5
:104350005B0803EB5E034FEA430E20F801E030F800
:104360000C1002EB510220F832305DF804FB00BF64
:1043700030B500EBC1044FEAC10C63885B08B3FAA7
:1043800083F3C3F11F0300EB83050CF1040C2A69CE
:104390001FFA81FE72B96EF30F02C4686EF31F42FA
:1043A0004FF0010E0EFA03F31C43C460296140F87C
:1043B0000C2030BDD3000433C15A20F80C1000EBA0
:1043C000C101E280A1F806E020F803E030BD00BFA3
:1043D00000EBC10CBCF8063099420CD0BCF80410BC
:1043E000043200EBC10C40F8223000EBC300ACF803
:1043F000063081807047C36801219140043223EA6E
:1044000001030021C36040F822107047F8B5B1FAEB
:1044100081F3C3F11F0200EB820635698DB12C4692
:104420004FF0030C00EBC40EBEF80270B1EB570F57
:1044300018D9BEF806403461BCF1010C01D0A54288
:10444000F0D1C268C3F120034FF0FF349C40144008
:1044500001D12046F8BD94FAA4F2B2FA82F2131DFB
:1044600050F823402146FFF7B3FF2046F8BD00BFB8
:10447000F8B5CE00B71C0D46C15B05EB510100EB52
:10448000C10304465A88D3070CD5A15B691A04EB13
:10449000C1035A88D30714D529462046BDE8F84001
:1044A000FFF766BF5208B2FA82F2C2F11F02FFF7AD
:1044B0008FFFE25B294605EB52022046FFF73EFFE5
:1044C000E3E75208B2FA82F22046C2F11F02FFF778
:1044D0007FFFA15B2046691A2A46FFF72FFFA35BE7
:1044E000ED1A29462046BDE8F840FFF741BF00BF5E
:1044F00061B100680439091A21F007030344C908AF
:104500005A8822F001025A80FFF7B2BF704700BFFD
:10451000F8B50568C1B1AB68B3EBD10F14D90B3155
:10452000CC0821462846FFF771FF68B105EBC007AC
:10453000C6007B88B4EB530F08D37B88043643F066
:1045400001037B80A819F8BD0020F8BD02190146BF
:104550002846FFF7DBFE1146FFF70AFFEDE700BF35
:104560002DE9F84301F1FF3919EA010906680C4603
:10457000154645D04B420B40042B1A464C4628BFEB
:1045800004229946BDB3B368B3EBD50F33D905F117
:104590000B012144891AC9083046FFF737FF074647
:1045A00048B309F1040808EBC008631EB0449844FE
:1045B000644208EA0408A8EB090808EB050407347C
:1045C000A8F104039B1B24F00704A41BB0EBD30F3A
:1045D0004FEAE4044FEAD30916D306EBC9056B880A
:1045E00009EB53039C421ED36B8843F001036B809D
:1045F0004046BDE8F8834FF000084046BDE8F88328
:10460000042919D90422BDE701464A46304606EB83
:10461000C905FFF77BFE3946FFF7AAFE6B8809EB59
:1046200053039C42E0D2494630462246FFF76EFED5
:104630002146FFF79DFED7E7BDE8F8431146FFF797
:1046400067BF00BF043A70B401EB020CCC1D24F02C
:1046500007042CF0070CACEB040C4FEADC062346F5
:10466000B6FA86F2C2F12401002504608900A66032
:1046700043F80C5F0731C2F12002C90803EB820244
:1046800043F8045F9A42FBD14B00761A04EBC10257
:1046900043F001036380700004EB0C03258050801D
:1046A000012224F83110204624F80C6070BC5A8096
:1046B000FFF75EBE2DE9F84F92469846D378304A10
:1046C0000A9E12F803906F2B05460C4609F0030969
:1046D00041D03BD903F0F703702B39D00A27BB46F2
:1046E00010E0B9F1010F2DD00CF1570CBD425FFA6B
:1046F0008CF374F1000406F8013D16D346450546D7
:104700000C4612D9284621463A460023FBF748FDBD
:104710005FFA82FC092A0CF13003E2D8DBB2BD4219
:1047200074F1000406F8013DE8D29AF800309B06C7
:1047300005D5BBF1080F11D0BBF1100F17D03046D3
:10474000BDE8F88F0CF13703DBB2E8E7582BC5D191
:104750001027BB46D6E70827BB46D3E79AF80230B6
:1047600043F008038AF802303046BDE8F88F9AF823
:10477000023043F010038AF802303046BDE8F88F6B
:104780006DB303002DE9F04F0746107899B090B152
:104790001C4600238B469A46551C25282E460DD0D4
:1047A0005946B847002806DB0AF1010A2A46107864
:1047B0000028F1D1504619B0BDE8F08F53780021A0
:1047C000252BCDE90A11CDE90C11CDE90E1100F030
:1047D000EC8008468E46884602918946A3F1200166
:1047E00010290AD8DFE801F0D80909D50909090913
:1047F000090909DE09DB0909D10028B19DF830104B
:1048000041F040018DF83010BEF1000F05D09DF849
:10481000301041F020018DF83010B8F1000F05D0B4
:104820009DF8301041F010018DF83010029929B137
:104830009DF8301041F008018DF83010B9F1000FEB
:1048400005D09DF8301041F004018DF830109DF82E
:10485000301001F04400442800F066829DF83010CA
:104860002A2B41F080018DF8301000F04282DFF8F1
:10487000C48B18F8031049079C46304648BF0021F6
:1048800017D510F8013F18F803E0ACF1300C01EB3C
:1048900081011EF0040F0CEB41019C46F1D18642D0
:1048A00007D09DF830600D91C90F61F341068DF876
:1048B00030609DF831102E2B0CBF0126002666F3C8
:1048C00041018DF8311029D143782A2B00F06B82F9
:1048D000DFF8608B18F8031011F004011E4600F198
:1048E000010008BF0E460ED0002110F8013F18F855
:1048F00003C0303E01EB81011CF0040F06EB4101C7
:104900001E46F2D1CE0F0E919DF83010C1F3400C2F
:1049100046EA0C0666F341018DF83010A3F14C0114
:10492000461C2E2900F24882DFE811F0600446029E
:104930004602460246024602460246024602460237
:104940004602460246024602460246024602460227
:104950004602460246024602460246024602460217
:1049600046024602700446025C0446024C044602BB
:1049700046024602460246024602460248044602F3
:1049800046024602460246023B04012016F8013F59
:1049900024E74FF0010EF9E74FF00108F6E74FF07A
:1049A0000109F3E701230293F0E78DF8330002F1E8
:1049B000020908460E4602918E469DF930809DF808
:1049C00030C0B8F1000FB4BF0D9B4FF0FF3304931C
:1049D000029B002B00F00481234653F8048B0393C1
:1049E000B8F1000F07DA9DF831306FF341038DF80D
:1049F00031304FF0FF380023042E0D930E9300F05A
:104A0000FF800CF00303012E029300F02881022E98
:104A100000F07881032E04D1039B53F8040B0A9015
:104A20000393029B002B40F008819DF833E0AEF128
:104A30002503532B57D8DFE813F00804560056001F
:104A400056005600560056005600560056005600B6
:104A500056005600560056005600560056005600A6
:104A60005600560056005600560056005600560096
:104A70005600180256005600560018021802180276
:104A80005600560056005600560056005600560076
:104A90005600560056005600560056005600560066
:104AA0006C00560056005600560056005600560040
:104AB0005600180256008601590018021802180202
:104AC0005600590056005600560056001D046C0052
:104AD000140456005600F90356006C0056005600A8
:104AE0006C00C3F800A0039C4A4660E61CF0080F67
:104AF00006BFCCF300135B012B230293DDE90A23ED
:104B0000002B06DA524263EB43030B932D230A92E8
:104B100002930DF15D04DDE90A01009411AB0CAACA
:104B2000FFF7C8FD0546B8F1000F0BDB9DF83030EC
:104B30006FF386138DF83030631B984502D9A8EBCC
:104B400003030D93002DCED0601B0D9C9DF83260A9
:104B50000DF15D0223460692029A02B1013016F071
:104B60001002059200F0FA800230184416F040035B
:104B70001CBF0E9A8018049A002A40F38E80121AE5
:104B800004929DF830205007C2F3800600F1858022
:104B9000510640F1FB820298002800F09A840293AB
:104BA0005946B8470028FFF606AE049B002B03F1D8
:104BB000FF310AF1010A029B40F3948402964FF000
:104BC000300807940E4604930C4603E0621E002C46
:104BD0005AD0144659464046B8470028F6DAEAE566
:104BE0001EF0020F18BFDDF8388003944FF0000369
:104BF00008BF4FF0FF38042E0D930E937FF401AFE2
:104C00009DF831309B0707D49DF93130002BACBFA4
:104C10004FF006084FF00D080CF003030293039BBE
:104C2000073323F0070393ED007B08330393029BC4
:104C30008DED0A7B002B3FF4F8AE4A45BFF453AF2D
:104C4000002415F8010C5946B847002804F1010466
:104C5000FFF6B1AD4D4500F00E850135F1E7CB1EF5
:104C6000042B00F2AB86DFE813F0710205000500AB
:104C7000EF00EF00039B073323F00703B3EC027B45
:104C80008DED0A7B0393CCE60AF1010202EB060AE2
:104C9000079C049B4FF0FF320492029840B10293AC
:104CA0005946B8470028FFF686AD029B0AF1010A73
:104CB000002B5CD09DF931302878002BC0F2338274
:104CC000DFF8708718F800305A0758BF2A4640F1BD
:104CD000C5836E1C07E0307818F800305B0706F1DA
:104CE000010640F1B7835946B84700283246F2DA48
:104CF00061E59DF8313043F001038DF83130737870
:104D0000701CD6E5CB1E042B00F26B8601A454F870
:104D100023F000BF5D510000754C0000754C000091
:104D2000F3500000F35000006FF386118DF830103F
:104D300094E50399039309680A9100210B91029964
:104D400000297FF47AAF0A9B8DF844300DF14503BA
:104D5000069311AD012000231C46029316F00802B1
:104D600005923FF402AF002201300592FDE69DF866
:104D70003230DA0600F101821B0700F1FE81059B4B
:104D8000002B40F0C681002CC8BF544403DC33E341
:104D9000A24500F0328359463020B84700280AF176
:104DA000010AF5DA07E59DF8313043F004038DF888
:104DB000313083780230B1E59DF830C00646CCF33F
:104DC000400C782B8DF8333006F101091AD86D2B81
:104DD00000F2A782692B15D8572B40F26F82A3F1FE
:104DE0005801C9B2012000FA01F111F4624F40F0FC
:104DF0006C8240F60106314240F0BD8511F4043F5B
:104E000040F0BB829DF830309DF831E043F0010363
:104E1000CEF3C3018DF83030002608469DF83030BF
:104E20006CF341038DF830301EF0010F0EF00403D7
:104E300002933FF4C2AD54F8043B0493002BC0F23C
:104E400091829DF830C0C3E5039C54F8043B039461
:104E50004FEAE37E0128CDE90A3E7FF4E2AD58B285
:104E600043F3C0130A900B93DBE5DDE90A12002A35
:104E7000C0F284831CF0080F40F0FA83CCF30013D7
:104E80005B010293C2F30A500590C2F3130240F291
:104E9000FF73002840F02983BEF1460F00F0A18483
:104EA000D002CB0240EA5150069350EAC12300F0F1
:104EB000B583120352EA11524FEA013300F15085D3
:104EC0000599DB185241002A01F1FF31F9DA059109
:104ED0000599A1F2FE318C1C42F0004280F2388527
:104EE000002005905B0843EAC2735208B2F1333FD9
:104EF000084601F10101F5D2811C059801389400A2
:104F00000590980044EA9374C31842EB0402881C8D
:104F1000E8DB002929DDCDE906EADDF814A04FF031
:104F200033352E460233A3FB053E42F10002F01852
:104F3000A2FB050245EB0E041B184EEB020E1B19DB
:104F40004EF10003C31801F1FF310AF1010A42F1E9
:104F50000002DB185241002A01F1FF31F9DA002981
:104F6000E0DCCDF814A0DDE906EAC1F104041C314F
:104F700002FA01F1E3400B431946A4F1200322FA9F
:104F800003F30B43BEF1670F069322FA04F000F01F
:104F90002383BEF1470F00F01F83BEF1660F00F0C0
:104FA0001B84002208F101030792102B1D46A8BFA5
:104FB0001025013D002B00F0CF84CDE908EA4FF029
:104FC00000624FF033340023114626465B0843EA63
:104FD000C173A3FB042E4908B318A1FB043144EBB1
:104FE0000E0AD2184EEB010E12EB0A024EF1000E21
:104FF00013EB0E0305F1FF3541F100016A1CE5D109
:10500000DDE908EA0A4606995B1842EB0002B2F1B4
:10501000805F80F08783BEF1660F0CF0200600F001
:10502000318391009C0041EA9371E31842EB010146
:10503000C1F3C362DB1802F130024941302A8DF816
:10504000442002D0059A013A0592002E40F05D837B
:10505000B8F1000F40F3EB832E228DF8452021F0AC
:1050600070420F240DF146010DF1440C08460C442A
:1050700001E0A04211D091009D0041EA9371EB182C
:1050800042EB0101DB18494121F07042090F303138
:10509000B8F1010800F8011BEBD10690079BCDF891
:1050A000388063B10022069B0E921946013B11F82D
:1050B000012C302AF9D02E2A08BF194606910EF08D
:1050C000DF03452B00F020820D9C002C40F3A082D2
:1050D00001229DF8323062F38613069A8DF8323041
:1050E000002313709DF83260A2EB0C006546234646
:1050F00032E5DDF80CE05EF8043B00240228CDE93F
:105100000A3403D19BB20A9300230B93CDF80CE031
:1051100087E49DF833005946B8470028FFF64BABAB
:105120000AF1010A2FE6702800F00E846C1C04E0DE
:10513000207870281C4600F0B2815946B8470028F4
:10514000264604F10103F3DAFFF735BB039850F864
:10515000043B0A93DB170B93039062E49DF8330042
:10516000039B632803F104033FF4E3AD0398039327
:1051700000680A9000230B9353E459463020B84747
:105180000028FFF618AB0AF1010AF8E5049A002A94
:1051900002F1FF31C8BF4FF020083FF712AD049174
:1051A0007BE59DF83130062161F3C6039DF830C0E0
:1051B0008DF831304378CCF3400C02E69DF8313065
:1051C0000721F1E743789DF830C06C2BCCF3400CFD
:1051D00000F0BC819DF83110032060F3C6018DF80A
:1051E0003110EEE59DF831300521DDE7BDF83010D6
:1051F000437821F4F04121F0020141F4804141F073
:105200000201ADF830104FF0010CDAE543789DF85B
:1052100030C0682BCCF3400C00F0A2819DF8311017
:10522000022060F3C6018DF83110CAE5B8F1000F15
:105230000A9DC0F29F814146284633F05FFD2B183E
:105240000693002D7FF487AD4DE459462520B847DD
:105250000028FFF6B0AA039C0AF1010A4A46FFF7AC
:10526000A6BA0A98002840F08C81734B069305205B
:105270005D1F70E50A9B07293FF635AC01A252F885
:1052800021F000BFE34A0000B7520000B152000015
:10529000E34A0000A5520000A5520000E34A0000C6
:1052A000E34A00004FEAEA72C3F800A05A601AE429
:1052B000A3F800A017E483F800A014E4412B04D065
:1052C000A3F1450102293FF69DAD03F0DF03A3F1F1
:1052D00041039DF831109DF83200B3FA83F35B0966
:1052E00063F3C71104268DF8311066F302005FFAEC
:1052F00081FE09068DF8320000F1E5800EF078039A
:10530000182B00F0AB811EF0380FCEF3C30105D08F
:105310009DF8303043F001038DF830300846042604
:105320007CE56E3BD9B201238B4040F282410B42B7
:105330004BD113F0240F36D1D8077FF563AD9DF81C
:1053400032309DF831E0032666F302038DF83230E7
:10535000CEF3C3010EF07803402B08BF4CF0010CD4
:1053600008465BE5049B9DF830C05B424CF0040CA2
:1053700004938DF830C0FFF72BBB9DF832309DF8B9
:1053800031E060F302038DF832300EF07803402BE9
:10539000CEF3C30104D19DF8303003438DF8303093
:1053A000084601263AE59DF832309DF831E00326A3
:1053B0001EF0780F66F30203CEF3C30118BF4CF062
:1053C000010C8DF83230084628E59DF832309DF802
:1053D00031E0022666F302038DF832300EF07803D6
:1053E000402B05D19DF8303043F001038DF830306B
:1053F000CEF3C301084611E55446DDF818800026B7
:1054000007E015F8010BB847002806F10106FFF682
:10541000D2A9A8455946F4D8002E3046FFF6CBA9AC
:105420003444049B002B40F34C82049B23449A4653
:1054300007E000BF6DB303002198030054453FF41B
:1054400052AB59462020B847002804F10104F5DA90
:10545000FFF7B1B9AAEB050505EB020A9DF832305A
:10546000990640F1A78110782E2800F0888118F85D
:105470000030590758BF164615D5541C154607E08D
:10548000207818F800305B0704F1010440F16481D2
:105490005946B84700282646F2DAFFF78CB9AAEB3E
:1054A000050506EB050A0E9C002C7FDD544401E047
:1054B000A2457CD059463020B84700280AF1010A9D
:1054C000F6DAFFF778B9CEF3C30108464FF0010CC6
:1054D000A4E4049A002A02F1FF31C8BF4FF030085B
:1054E0003FF76FAB0491FFF7E3BB0598984200F0DC
:1054F000AD81D202BEF1460F42EA51524FEAC123BA
:1055000008BF4FF0660EE3E4069B069A83F800E0BE
:10551000059B002BBBBF5B4205932B232D235370B0
:10552000059B632B00F31C8102320598C34BA3FB40
:105530000013DB0803EB8301A0EB4101104630337D
:1055400000F8023B303106905170BDE59DF83130D6
:10555000042161F3C6038DF831308378861C30E472
:105560009DF83130012161F3C6038DF83130837825
:10557000861C26E42846FCF777FA60E62D23029382
:1055800080E40DF15D0411AB00940CAA0021FFF73B
:1055900091F8BDF8323003F0EF0343F4F04343F0E9
:1055A00010030546ADF83230FFF7BDBA5446DDF8BA
:1055B0001880002507E016F8010BB847002805F110
:1055C0000105FFF6F8A8B0455946F4D8002D284645
:1055D000FFF6F1A82C4424E7059B033325DAAEF14E
:1055E0000203B8F1000F5FFA83FE7FF7DAAC1CF01C
:1055F000200F08F1FF3340F058811A1E18BF012216
:1056000007924546102DA8BF1025013D9846D4E4C9
:105610000E9A002AD4BF002201225AE5BEF1670F7C
:1056200003D0BEF1470F7FF4B8AC059B9845D6DB9D
:10563000059B1CF0200FA8EB0302434640F080813D
:10564000111E18BF012107919046002B4FF0660EE6
:10565000BFF6ABAC00234FF00062D4E46FF3C60E8C
:1056600000208DF831E001465FFA8EFEFFF7D6BBD1
:105670002B23029306E4002C2046FFF69CA8A244AC
:10568000FFF731BA0599002940F3B7800DF1440CBA
:10569000CDF814E0CDF820A00C46A1F110058E46FF
:1056A000E246CDF8248091004FEA830841EA9371E5
:1056B00018EB030342EB0101DB1849410A0F3032BA
:1056C00050460AF8012B21F070427146BEF1010EDE
:1056D00000F01E81AE45E6D1CDF818A0DDE908A89E
:1056E000DDF814E000240D95002E40F01C81B8F187
:1056F000000F40F32B81069D811C2E202870002C6A
:1057000000F0DC8000200590B0E42E22B8F1000FFC
:105710008DF845203FF7A3AC0DF1460306930DF13C
:10572000440CBBE45B0843EAC2735608059A013295
:1057300005924FF03332A3FB0235D418A6FB0214B6
:1057400042EB05025B1845EB04059B1845F100058B
:105750004B1944F100025EE4AAEB050AB244A2E64A
:105760000598374B0699A3FB00235B0903F1300230
:105770008A70CA1C642101FB13030593D5E60292CB
:105780005946B847029A002802F10105FFF613A80E
:10579000002C0AF1010A56DD5444164601E0A245E8
:1057A00050D059463020B84700280AF1010AF6DAED
:1057B000FFF701B8002C04F1FF35C8BF164604DC22
:1057C000D7E06B1E002D73D01D4659463020B847D8
:1057D0000028F6DAFEF7EFBF059B0022434407924C
:1057E00033E7D002CB0240EA5150069350EAC1237E
:1057F000F2D04FF0660EFFF75CBB30218DF84410FD
:10580000002E61D02E218DF845100599002975D004
:10581000B8F1000F60DC0DF1460306930DF1440C66
:10582000079BCDF83880002B7FF43CAC4CE40DF1A5
:10583000450306930DF1440C30E400BFCDCCCCCC35
:105840001F85EB51324650782A4610E60EF10103CF
:105850006E48DBB20A43C35C03F003031DD1012B86
:105860000BBF492369234E216E210CBF46226622BD
:105870008DF844309DF830308DF846206FF3861354
:105880008DF830300DF1470200238DF845101C468D
:105890000320069211ADFFF75FB9012B15BF6E23F0
:1058A0004E23612141211A46E2E700220792A8E631
:1058B0005444A4EB050A32461C46D4E5CDE9054123
:1058C000AEE7A246FFF70FB9B8F1000F4BDD2E216E
:1058D0008DF845100599A1B105999DF832404942CE
:1058E0004145A8BF414600290D91A8EB0108D4BF4E
:1058F0000021012161F345148DF83240B8F1000F09
:1059000089DD10240DF146010DF1440CFFF7AEBB0B
:10591000C4F10F047546CDF818A0DDF814E0DDE9F8
:1059200008A80C44DFE6069D811CB8F1000F4FF07B
:105930002E0028703FF7E3AE0023069105936FE732
:1059400090460022079280E62E46ACE5059667E772
:1059500000200590FFF7DDBA4FF00062FFF753BB60
:105960002B49FFF7BDBA0DF1450306930DF1440C29
:1059700056E72C4677E59DF832009DF83110022657
:1059800066F3020001F07806402E8DF832008E4654
:1059900005D19DF8300040F001008DF83000C1F3D2
:1059A000C301632B084606D1002E18BF4CF0010C32
:1059B0000226FFF733BA0226FFF730BADDF80CE013
:1059C0005EF8044B0A94E31701280B93234616D084
:1059D000022801BF23B244F3C0340A930B94FFF7AB
:1059E00095BBDDF80CE001285EF8043B0BD1DBB27F
:1059F0000A930023CDF80CE00B93FFF712B8CDF813
:105A00000CE0FFF72CBA0024FFF778BB6CB303005F
:105A100002FCFFFF08B54FF02002EFF3118382F381
:105A20001288BFF36F8F03F039FC0348FEF7DCF9EF
:105A300002F0BAFEFCE700BF24980300704700BFE5
:105A40000DF03CBD08B500F015F8BDE8084000F0C9
:105A500001B800BF38B5054C054DAC4204D254F82E
:105A6000043B9847AC42FAD338BD00BF8094030092
:105A70008494030038B5064D2C6844B1631C05EBD3
:105A80008305013C55F8043D9847002CF9D138BDF9
:105A900074940300C36A1B78012B70B54FF00702A2
:105AA00088BFDE1D0C4688BF5B4205464FF0FF00F5
:105AB0008CBF1E400826FEF7B5F8E379834201D07B
:105AC000002070BDAB8960889B1B98422CBF0020D2
:105AD000012070BD002B3BD02DE9F0431C46C36A6A
