:1000000000D900208DCD0000F9C2000061CD0000B4
:1000100061CD000061CD000061CD00000000000056
:1000200000000000000000000000000041C40000CB
:1000300061CD000000000000ADC3000061CD0000F4
:10004000CDC50000CDC50000CDC50000CDC5000068
:10005000CDC50000CDC50000CDC50000CDC5000058
:10006000CDC50000CDC50000CDC50000CDC5000048
:10007000CDC50000CDC50000CDC50000CDC5000038
:10008000CDC50000CDC50000CDC50000CDC5000028
:10009000CDC50000CDC50000CDC50000CDC5000018
:1000A000CDC50000CDC50000CDC50000CDC5000008
:1000B000CDC50000CDC50000CDC50000CDC50000F8
:1000C000CDC50000CDC50000CDC50000CDC50000E8
:1000D000CDC50000CDC50000CDC50000CDC50000D8
:1000E000CDC50000CDC50000CDC50000CDC50000C8
:1000F000CDC50000CDC50000CDC50000CDC50000B8
:1001000001F0FF01102A2BDB10F0070F08D010F8C8
:10011000013B013A8B422DD010F0070F42B3F6D1CC
:10012000F0B441EA012141EA014122F007047FF0E5
:1001300000070023F0E80256083C85EA010586EA3C
:10014000010685FA47F5A3FA87F586FA47F6A5FA78
:1001500087F68EB9EED1F0BC01F0FF0102F0070284
:1001600032B110F8013B013A83EA010313B1F8D12F
:100170000020704701387047002D06BF3546033810
:10018000073815F0010F07D1013015F4807F02BF49
:10019000013015F4C03F0130F0BC0138704700BF9A
:1001A00053B94AB9002908BF00281CBF4FF0FF31DE
:1001B0004FF0FF3000F00CB8ADF1080C6DE904CE43
:1001C00001F0F8FADDF804E0DDE9022304B070473D
:1001D000704700BF2DE9F14F03F11C0402EB840CC2
:1001E0004FEA930B8A68CB680868496800F046F9C3
:1001F0003CE9F0006040694072407B400BF1060E24
:100200004EE083EA134480EA134582EA134746BA74
:1002100096EA3444604000F00F1684EA063420F079
:100220000F1684EA161054BA94EA0106724002F0DE
:100230000F1486EA043622F00F1486EA14124CBA20
:100240006540694001F00F1485EA043521F00F1470
:1002500085EA14115CBA67407B4003F00F1487EA0B
:10026000043723F00F1487EA141344BA44404DBAFC
:100270004D4056BA56405FBA5F4087EA174886EA53
:10028000174B84EA17464FEA38488BEA1B4485EA45
:100290001B4788EA1B4580EA3440694072407B4036
:1002A00000F0703400F0803500F00F3040EA440078
:1002B00040EAD50080EA900404F0332480EA840008
:1002C000604001F0703401F0803501F00F3141EAF7
:1002D000440141EAD50181EA910404F0332481EA22
:1002E0008401614002F0703402F0803502F00F3278
:1002F00042EA440242EAD50282EA920404F033243C
:1003000082EA8402624003F0703403F0803503F027
:100310000F3343EA440343EAD50383EA930404F02A
:10032000332483EA84036340C943DB4381EA000446
:1003300083EA044686EA020183EA014382EA3345FE
:1003400083EA14435C4084EA00077FEA040A8AEAED
:10035000024A8AEA010B87EA11488AEA374A80EAA8
:10036000060181EA1A418AEA030A04EA0A004540C2
:1003700088EA040707EA0B0041408AEA0B0608EA0C
:10038000060084EA34428AEA3A4602EA0603584002
:100390004540414087EA37438BEA3B4003EA000986
:1003A00085EA090582EA0309464006EA0906714022
:1003B00085EA010005EA3546464006EA314181EA10
:1003C000304181EA364606EA304686EA3546344010
:1003D0000F4086EA010508EA050886EA3640024031
:1003E00088EA020881EA314213405C4080EA020355
:1003F00009EA030987EA0907674088EA040806EA68
:100400000A0601EA0B018AEA0B0425408AEA3A440B
:10041000204045408BEA3B4B02EA0B02564084EAFF
:100420000B04234059406E40694087EA364080EA19
:10043000384080EA060380EA104481EA134585EAE1
:10044000344585EA17427D4082EA354180EA05401D
:100450003CE9F0006040694072407B40BEF1010E13
:100460003FF6CFAE20BC00F05FF828606960AA605C
:10047000EB60BDE8F08F00BF00F000BA80EA101416
:1004800004F0F01480EA0410604081EA111404F0D2
:10049000F01481EA0411614082EA121404F0F014AD
:1004A00082EA0412624083EA131404F0F01483EA2F
:1004B0000413634080EA102404F47F4480EA04209B
:1004C000604081EA112404F47F4481EA0421614000
:1004D00082EA122404F47F4482EA0422624083EA1E
:1004E000132404F47F4483EA0423634081EA500424
:1004F00004F0553480EA4400614083EA520404F079
:10050000553482EA4402634082EA900404F03334B2
:1005100080EA8400624083EA910404F0333481EA83
:1005200084016340704700BF82EA900404F03334D2
:1005300080EA8400624083EA910404F0333481EA63
:100540008401634081EA500404F0553480EA440099
:10055000614083EA520404F0553482EA4402634065
:1005600080EA102404F47F4480EA0420604081EA99
:10057000112404F47F4481EA0421614082EA1224B8
:1005800004F47F4482EA0422624083EA132404F4E0
:100590007F4483EA0423634080EA101404F0F014DB
:1005A00080EA0410604081EA111404F0F01481EA3A
:1005B0000411614082EA121404F0F01482EA041279
:1005C000624083EA131404F0F01483EA04136340D6
:1005D000704700BF2DE9F14F94464FEA930B8A68AC
:1005E000CB6808684968FFF749FF0BF1060E33E056
:1005F00083EA134480EA134582EA134746BA96EA2F
:100600003444604000F00F1684EA063420F00F16E0
:1006100084EA161054BA94EA0106724002F00F14EC
:1006200086EA043622F00F1486EA14124CBA6540AA
:10063000694001F00F1485EA043521F00F1485EAB2
:1006400014115CBA67407B4003F00F1487EA04374B
:1006500023F00F1487EA1413BCE8F00060406940EF
:1006600072407B4000F0E03400F0103500F00F30B5
:1006700040EA540040EAC50080EA900404F03324C4
:1006800080EA8400604001F0E03401F0103501F0B0
:100690000F3141EA540141EAC50181EA910404F0B5
:1006A000332481EA8401614002F0E03402F0103525
:1006B00002F00F3242EA540242EAC50282EA920490
:1006C00004F0332482EA8402624003F0E03403F051
:1006D000103503F00F3343EA540343EAC50383EABA
:1006E000930404F0332483EA8403634081EA3247AD
:1006F00087EA134581EA354690EA060484EA034B0B
:1007000082EA1B4280EA044484EA054483EA144AEC
:1007100085EA14448BEA044B84EA374481EA0B41AE
:1007200081EA164104EA0A00454082EA04082BEAFD
:10073000080041408AEA0B0602EA060084EA3443D4
:100740008AEA3A4603EA060778404540414088EA8B
:1007500038478BEA3B4007EA000985EA090583EA46
:100760000709464006EA0906714085EA010005EAE4
:100770003546464006EA314181EA304181EA364653
:1007800006EA304686EA3546344008EA010886EA39
:1007900001052A4086EA364003405A4081EA314347
:1007A0001F407C4080EA030709EA070988EA090834
:1007B000544088EA020806EA0A0601EA0B018AEABE
:1007C0000B0215408AEA3A42104045408BEA3B4012
:1007D00003405E404240174079404D404E40E44364
:1007E000F64386EA18435D4085EA054083EA1343F1
:1007F00086EA034183EA384284EA114383EA0443E8
:100800005FEA3343BEF1010E3FF6F2AE1ED4BCE800
:10081000F0006040694072407B4020BCFFF784FEDE
:1008200028606960AA60EB60BDE8F08F2DE9E041C7
:100830004FF2F00280EA1031114080EA0130484066
:1008400041088208C3084FF0000E4FE700F0113056
:1008500001F0113102F0113203F0113340EA41008E
:1008600040EA820040EAC3004FF2F00280EA103111
:10087000114080EA01304840BDE8E0812DE9F04FA9
:1008800002F11C050646074600EB850851F8040BEB
:10089000043A46F8040BF9D14FF0010CFFF7C6FFFC
:1008A0005FEA302080EA0C001ECF41404A405340AE
:1008B0005C401EC62000464517D04FEA4C0C1CF485
:1008C000807F18BFACF1E50C2C2DE7D03C2D06D174
:1008D000FFF7ACFF06CF41404A4006C6100006CFE6
:1008E00041404A4006C61000D8E736E90F00FFF73E
:1008F000C5FD043D86E80F00F7D1BDE8F08F00BFCD
:100900002DE9F00391E8F803B2E802105B1854EB0C
:100910000C04B2E802104D4156EB0C0692E80610AA
:100920004F4158EB020859EB0C0980E8F80380416D
:100930000130BDE8F00370472DE9F00391E8F803BA
:10094000B2E802105B1A74EB0C04B2E802108D419D
:1009500076EB0C0692E806108F4178EB020879EBF3
:100960000C0980E8F80380414042BDE8F00370477D
:100970002DE9F003524290E83800B1E880031740B7
:10098000DB1918EA020854EB080419EA020955EBCE
:10099000090538C090E8780091E8820311404B4186
:1009A00017407C4118EA020855EB080519EA0209CC
:1009B00056EB090678C080410130BDE8F00370476E
:1009C0002DE9F003524290E83800B1E88003174067
:1009D000DB1B18EA020874EB080419EA020975EB3C
:1009E000090538C090E8780091E8820311408B41F6
:1009F0001740BC4118EA020875EB080519EA02091C
:100A000076EB090678C080414042BDE8F0037047AC
:100A10002DE9F00152424FF0030890E8300091E8D0
:100A2000C000A31B1340E41AF618EB1B1340ED1A89
:100A3000FF1830C0C0C1B8F10108EED104680E68DB
:100A4000A31B1340E41AF61804600E60BDE8F00121
:100A5000704700BF00B592EC070AB1E8005E07EEF0
:100A6000101A56EC102A58EC117AA9FB0250AAFB76
:100A70000234E9FB6603EBFB624340EC145AAAFB29
:100A80000605ECFB6235E9FB6740E9FB6830EEFBED
:100A90006250AAFB0721EAFB6851EBFB680112EEEA
:100AA000108AEBFB6632ECFB6652EAFB6802EBFB5A
:100AB000681243EC154AA9FB084312EE908AE9FB41
:100AC0006803EAFB6813EBFB6823EBFB6754EEFB60
:100AD000660413EE108AE9FB6814EAFB6824EBFB5A
:100AE000683406EE105A17EE109A99E8000CACFB29
:100AF000076511EE909AECFB6915EEFB6925EAFBA0
:100B00006935EBFB694510EE109AEAFB6906EBFBD1
:100B1000691612EE109AECFB6926EEFB6936EAFBC9
:100B20006946EBFB695610EE909AAAFB0987EBFB2E
:100B3000692712EE909AECFB6937EEFB6947EAFBF6
:100B40006957EBFB696711EE109AEEFB6918EAFB37
:100B50006928EBFB693813EE109AECFB6948EEFB51
:100B60006958EAFB6968EBFB697800BD2DE9F04F35
:100B700007EE900AFFF76EFF17EE909AA9EC054A70
:100B800089E8FF01BDE8F08F00B591E8805FA7FB21
:100B90000750A7FB0834E7FB6803E7FB694340EC19
:100BA000145AA7FB0905E7FB6A35E8FB6840E7FB39
:100BB0006A30E7FB6B50A8FB0921E7FB6B51E7FBB1
:100BC0006C01E8FB6932E8FB6A52E7FB6C02E7FB69
:100BD0006E1243EC154AA8FB0A43E8FB6B03E7FBE4
:100BE0006E13E8FB6E23E9FB6954E8FB6B04E8FB3A
:100BF0006C14E8FB6E24E9FB6E3406EE105AA9FB78
:100C00000A65E8FB6C15E9FB6C25E9FB6E35EAFB30
:100C10006E45E9FB6A06E9FB6B16E9FB6C26EAFB0D
:100C20006C36EAFB6E46EBFB6E56A9FB0B87EAFBC4
:100C30006B27EAFB6C37EBFB6C47EBFB6E57ECFB6F
:100C40006E67EAFB6A18EAFB6B28EBFB6B38EBFB81
:100C50006C48ECFB6C58ECFB6E68EEFB6E7800BDEC
:100C60002DE9F04F07EE900AFFF78EFF17EE909AEE
:100C7000A9EC054A89E8FF01BDE8F08F2DE9F007EE
:100C800091E8F807B2E802105B1854EB0C04B2E8E4
:100C900002104D4156EB0C06B2E802104F4158EBE2
:100CA0000C08B2E8021059EB01095AEB0C0A80E873
:100CB000F80780410130BDE8F00770472DE9F007E3
:100CC00091E8F807B2E802105B1A74EB0C04B2E882
:100CD00002108D4176EB0C06B2E802108F4178EBE2
:100CE0000C08B2E8021079EB01097AEB0C0A80E8F3
:100CF000F80780414042BDE8F00770472DE9F00752
:100D0000524290E87800B1E880071740DB1918EAF2
:100D1000020854EB080419EA020955EB09051AEA1E
:100D2000020A56EB0A0678C090E87800B1E880071E
:100D300017407B4118EA020854EB080419EA02093B
:100D400055EB09051AEA020A56EB0A0678C08041FB
:100D50000130BDE8F00770472DE9F007524290E8F6
:100D60007800B1E880071740DB1B18EA020874EB33
:100D7000080419EA020975EB09051AEA020A76EB7A
:100D80000A0678C090E87800B1E880071740BB41B8
:100D900018EA020874EB080419EA020975EB090560
:100DA0001AEA020A76EB0A0678C080414042BDE8A2
:100DB000F00770472DE9F00152424FF0040890E827
:100DC000300091E8C000A31B1340E41AF618EB1B97
:100DD0001340ED1AFF1830C0C0C1B8F10108EED1C0
:100DE000BDE8F001704700BF00B592EC080AB1E819
:100DF000805707EE101A53EC102A56EC114AA7FB45
:100E00000251A8FB020BE7FB6310E9FB62B041EC67
:100E1000145AA8FB0351EAFB6201E7FB64B5E7FB48
:100E20006605E8FB661505EE10BAA9FB03B6EAFBFA
:100E30006316ECFB6356E8FB640BE9FB641BEAFBFF
:100E4000645BECFB646B05EE900AACFB023012EEC7
:100E5000104AEEFB6250E9FB6460EAFB64B0E7FB1A
:100E60006431E8FB645112EE904AE8FB6461E9FBEF
:100E700064B1EAFB640106EE103AA7FB043213EEFC
:100E8000104AE7FB6462E8FB64B2E9FB6402EAFB38
:100E9000641211EE904AE9FB6453EAFB646313EEBB
:100EA000904AE7FB64B3E8FB6403E9FB6413EAFBE5
:100EB000642306EE905A17EE109A99E8000610EE99
:100EC000108AA9FB0854EAFB68B412EE108AECFB06
:100ED0006804EEFB6814E9FB6824EAFB683410EE52
:100EE000908AEEFB6865E9FB68B5EAFB680512EEDF
:100EF000908AECFB6815EEFB6825E9FB6835EAFB98
:100F0000684507EE106A11EE108AAEFB0876E9FB21
:100F10006806EAFB681613EE108AECFB6826EEFB07
:100F20006836E9FB6846EAFB685611EE908AECFBEE
:100F300068B7EEFB6807E9FB6817EAFB682713EE62
:100F4000908AECFB6837EEFB6847E9FB6857EAFBE1
:100F5000686700BD2DE9F04F07EE900AFFF744FFE8
:100F600017EE908A07EE90BAA8EC084A88E8FF00CE
:100F7000BDE8F08F00B591E89857A3FB0352A3FB9F
:100F80000401E3FB6420E3FB671042EC145AA3FB6B
:100F90000752E3FB6802E4FB6415E3FB6805E3FB2F
:100FA0006925A4FB07B6E3FB6926E3FB6A56E4FB6D
:100FB000670BE4FB682BE3FB6A5BE3FB6C6B40ECC9
:100FC000151AA4FB0810E4FB6950E3FB6C60E3FB1B
:100FD0006EB0E7FB6721E4FB6951E4FB6A61E3FB68
:100FE0006EB1E4FB6E0106EE102AA7FB0832E4FBAB
:100FF0006A62E4FB6CB2E4FB6E02E7FB6E12E7FB95
:101000006853E7FB6963E4FB6CB3E7FB6C03E7FB46
:101010006E13E8FB6E2306EE905AA7FB0954E7FB1C
:101020006AB4E7FB6C04E8FB6C14E8FB6E24E9FB94
:101030006E34E8FB6865E7FB6AB5E8FB6A05E8FB28
:101040006C15E9FB6C25E9FB6E35EAFB6E4507EE96
:10105000106AA8FB0976E8FB6A06E9FB6A16E9FB59
:101060006C26EAFB6C36EAFB6E46ECFB6E56E8FB40
:1010700069B7E9FB6907E9FB6A17EAFB6A27EAFB3C
:101080006C37ECFB6C47ECFB6E57EEFB6E6700BDFC
:101090002DE9F04F07EE900AFFF76CFF17EE908AEC
:1010A00007EE90BAA8EC084A88E8FF00BDE8F08F88
:1010B00030B44FF0000310F8014B11F8015B013A16
:1010C00084EA050443EA0403F5D1A3F101034FEADE
:1010D000D37030BC704700BF4FF0000310F8012BF5
:1010E000013943EA0203F9D1A3F101034FEAD370B6
:1010F000704700BF30B411F8014B12F8015B6C402F
:1011000000F8014B013BF6D130BC70472DE9F003EC
:1011100091E8F803B2E802105B1854EB0C04B2E853
:1011200002104D4156EB0C0692E806104F4158EB69
:10113000020859EB0C098941013B74F1000475F177
:10114000000576F1FF3677F1FF3778F1FF3879F156
:10115000FF3951F1000113EBD17354F1000455F143
:1011600000054E414F4158EB010859EB010980E859
:10117000F803BDE8F00370472DE9F00391E8F803A8
:10118000B2E802105B1A74EB0C04B2E802108D4155
:1011900076EB0C0692E806108F4178EB020879EBAB
:1011A0000C09894113EBD17354F1000455F100058A
:1011B0004E414F4158EB010859EB010980E8F80313
:1011C000BDE8F003704700BF2DE9F04F07EE900A2D
:1011D000FFF740FC5AEC359AB9EB05097AEB060AA1
:1011E000B84171EB080172F1000273F1000374F170
:1011F00000046BEB0B0B491972417B4154EB080463
:101200004BF1000557EC146A15EE108ABEEB0E0E7A
:1012100059EB02095AEB030A604169415EF1000E85
:1012200096419F4178EB040879EB05097AF1000AB1
:1012300070F1000B71F1000C6EF1010E16EBDE7611
:1012400057F1000758F1000859EB0E095AEB0E0A46
:101250005BEB0E0B5CEB0E0C17EE900A80E8C01FE8
:10126000BDE8F08F2DE9F04F07EE900AFFF78CFCF8
:10127000B0E700BF2DE9F00791E8F807B2E80210E7
:101280005B1854EB0C04B2E802104D4156EB0C060F
:10129000B2E802104F4158EB0C08B2E8021059EBCB
:1012A00001095AEB0C0A8941B3F1FF3374F1FF34A1
:1012B00075F1FF3576F1000677F1000778F1000847
:1012C00079F101097AF1FF3A51F100015B184C41C3
:1012D0004D4156F1000657F1000758F1000859EB4F
:1012E000D1795AEB010A80E8F807BDE8F0077047AA
:1012F0002DE9F00791E8F807B2E802105B1A74EBE9
:101300000C04B2E802108D4176EB0C06B2E8021034
:101310008F4178EB0C08B2E8021079EB01097AEB07
:101320000C0A89415B184C414D4156F1000657F1BA
:10133000000758F1000859EBD1795AEB010A80E80F
:10134000F807BDE8F007704718EB040859EB0509EA
:101350005AEB060A5BEB070B5FF0000C4CF1000C3C
:1013600018EB050859EB06095AEB070A5BEB070B6C
:1013700050EB0C005FF0000C51EB0C0152EB0C0237
:1013800063414CF1000CB8EB070879F100097AF1E0
:10139000000A7BEB040BA841B141A241B3416CF1BF
:1013A000000CBBEB050BB041B941AA41BB416CF14C
:1013B000000C6FEAEC74B8EB040879EB04097AEBE3
:1013C000040A7BF1000B70F1000071F1000172EB77
:1013D000D472A3416CF1000C18EBEC7859EBEC796A
:1013E0005AEBEC7A5BF1000B50F1000451F100056F
:1013F00052EBDC7653EBEC774CF1000C18EBEC7015
:1014000059EBEC715AEBEC725BF1000354F1000400
:1014100055F1000556EBDC7657EBEC77704700BFD3
:101420002DE9F04F07EE900AFFF7DEFC59EC168A23
:1014300017EE10AAFFF788FF59EC148A5BEC15AA87
:10144000FFF782FF17EE908A88E8FF00BDE8F08F73
:101450002DE9F04F07EE900AFFF78CFD59EC168A44
:1014600017EE10AAFFF770FF59EC148A5BEC15AA6F
:10147000FFF76AFF17EE908A88E8FF00BDE8F08F5B
:101480002DE9F04F90E8F00F00F140004FF0040E0E
:1014900059E0F0B4826BC36B046805252426875994
:1014A0003C444FEA724787EAF24787EA92273C4476
:1014B00042684FEAF21787EAB24787EAD2073C440C
:1014C00040F8044B032D08BF6FF01B0687593A44C0
:1014D0004FEA734787EAF34787EA93273A4443681A
:1014E0004FEAF31787EAB34787EAD3073A4440F84D
:1014F000042B87593B444FEA744787EAF44787EA4D
:1015000094273B4444684FEAF41787EAB44787EAD4
:10151000D4073B4440F8043B013DC0D1A0F13C005E
:10152000076A3C444FEA724787EAF24787EA922704
:101530003C4402684FEAF21787EAB24787EAD207CB
:101540003C44C463F0BC4FF0020288EA781C8CEA89
:10155000F84C0BEBBC1C8AEA090303EA080383EA94
:101560000A039C4450F8043B9C4451F8043B9C44BF
:10157000674444EA050B0BEA060B04EA05034BEA51
:10158000030BE34484EAF42383EA34530BEBB30BF9
:1015900087EA771C8CEAF74C0AEBBC1C89EA080343
:1015A00003EA070383EA09039C4450F8043B9C4484
:1015B00051F8043B9C4466444BEA040A0AEA050AD3
:1015C0000BEA04034AEA030AE2448BEAFB2383EAB8
:1015D0003B530AEBB30A86EA761C8CEAF64C09EB1D
:1015E000BC1C88EA070303EA060383EA08039C4459
:1015F00050F8043B9C4451F8043B9C4465444AEA3F
:101600000B0909EA04090AEA0B0349EA0309E14460
:101610008AEAFA2383EA3A5309EBB30985EA751C8F
:101620008CEAF54C08EBBC1C87EA060303EA0503C9
:1016300083EA07039C4450F8043B9C4451F8043B64
:101640009C44644449EA0A0808EA0B0809EA0A03C8
:1016500048EA0308E04489EAF92383EA395308EBAE
:10166000B30884EA741C8CEAF44C07EBBC1C86EAD1
:10167000050303EA040383EA06039C4450F8043B91
:101680009C4451F8043B9C44E34448EA090707EAB8
:101690000A0708EA090347EA0307674488EAF823C8
:1016A00083EA385307EBB3078BEA7B1C8CEAFB4CCD
:1016B00006EBBC1C85EA040303EA0B0383EA05037B
:1016C0009C4450F8043B9C4451F8043B9C44E24445
:1016D00047EA080606EA090607EA080346EA030697
:1016E000664487EAF72383EA375306EBB3068AEAB0
:1016F0007A1C8CEAFA4C05EBBC1C84EA0B0303EA67
:101700000A0383EA04039C4450F8043B9C4451F8C8
:10171000043B9C44E14446EA070505EA080506EA5D
:10172000070345EA0305654486EAF62383EA365350
:1017300005EBB30589EA791C8CEAF94C04EBBC1C77
:101740008BEA0A0303EA090383EA0B039C4450F87B
:10175000043B9C4451F8043B9C44E04445EA0604A5
:1017600004EA070405EA060344EA0304644485EA3C
:10177000F52383EA355304EBB304013A7FF4E5AE75
:10178000A0F14000BEF1010E7FF483AEA0F1400C49
:101790009CE80F00001949199219DB19ACE80F00F9
:1017A0009CE80F004044494452445B44ACE80F00BD
:1017B000BDE8F08F2DE9F04786468C460846089E26
:1017C000154674461946002B40F0C2808542B2FA95
:1017D00082F245D94AB1C2F1200300FA02FC2EFA86
:1017E00003F3954043EA0C0C94404FEA154EA8B21F
:1017F000BCFBFEF8230C0EFB18CC08FB00F943EAF7
:101800000C43994528D9EB1808F1FF3704D29945C4
:1018100002D9A8F102072B44A3EB0903A4B2B3FB3E
:10182000FEFC0EFB1C330CFB00F044EA0344A04218
:1018300014D92C190CF1FF3304D2A04202D9ACF117
:1018400002032C44241A43EA07401EB1D44000236B
:1018500034607360BDE8F0874746DDE76346F1E733
:1018600092BB431B01214FEA154EAFB2B3FBFEFC06
:10187000200C0EFB1C330CFB07F840EA0343984591
:1018800062D9EB180CF1FF3004D2984502D9ACF1C3
:1018900002002B44A3EB0803A4B2B3FBFEFC0EFB37
:1018A0001C330CFB07F744EA0344A7424ED92C191A
:1018B0000CF1FF3304D2A74202D9ACF102032C444D
:1018C000E41B43EA0040C0E7C2F1200320FA03F121
:1018D000954090402EFA03F303434FEA154EAFB202
:1018E000B1FBFEFC0EFB1C10190C0CFB07F841EAC7
:1018F0000041884504FA02F422D969180CF1FF303E
:1019000004D2884502D9ACF102002944A1EB0801B8
:101910009BB2B1FBFEFC0EFB1C110CFB07F743EA6C
:1019200001439F420ED9EB180CF1FF3104D29F42C4
:1019300002D9ACF102012B44DB1B41EA004192E7E2
:101940006046E3E76146F7E76046A3E76346B7E72B
:10195000834206D916B9002108467BE7C6E900E0B4
:10196000F9E7B3FA83F78FB9834201D3724508D8F8
:10197000BEEB020460EB030301209C461EB900216C
:1019800068E73846FAE7C6E9004CF8E7C7F1200CEB
:10199000BB4022FA0CF41C432EFA0CF120FA0CF393
:1019A000B84001434FEA14490EFA07F5B3FBF9F8C2
:1019B0001FFA84FE09FB18300B0C08FB0EFA43EAF1
:1019C00000439A4502FA07F240D9E31808F1FF30C4
:1019D00004D29A4502D9A8F102002344A3EB0A03DA
:1019E00089B2B3FBF9F809FB183308FB0EFE41EA94
:1019F00003418E452CD9611808F1FF3304D28E457E
:101A000002D9A8F10203214443EA0040A0FB029856
:101A1000A1EB0E014145CE46434602D306D14D45CA
:101A200004D2B9EB020E68EB04030138002EA6D0F5
:101A3000B5EB0E0261EB030101FA0CFC22FA07F38D
:101A40004CEA0303F940C6E9003198E74046C5E790
:101A50004346D9E710F8012B11F8013B012A28BFB2
:101A60009A42F7D0D01A7047034613F8012B002A88
:101A7000FBD1181A0138704710B54FF0FF331E48DC
:101A80004FF0FF321BF04AFD1C4B0024BFF35B8F6D
:101A90001A68BFF35B8F7AB10134042C03F1200381
:101AA000F4D10BF007FC172303604FF0FF3412480A
:101AB0001BF040FE204610BDBFF35B8F53E8001FB4
:101AC000013143E80012002AF8D1BFF35B8F9FED8C
:101AD000087B0B4800EB441383ED007B63010C3360
:101AE00018441BF013FD04481BF024FE204610BDD3
:101AF0000000000000000000FC060020582000202C
:101B0000502000200000000070B59FED137B84B0D2
:101B100000248DED007B0294234605460EF084FDE3
:101B2000061E0DDB2B68009328460D49002200237A
:101B30000EF04EFF051EA8BF204608DB04B070BDA6
:101B40000BF0B8FB764206604FF0FF30F6E70BF083
:101B5000B1FB6D420560F7E7008001000000000066
:101B6000959C0000000000002DE9F04F2DED028B48
:101B70008BB002AF8846D7F850A097F85C90154616
:101B80001E460446002800F00C81B74B984280F0B6
:101B90008280B649B64AB74840F2A95305F05CFCCA
:101BA000B54805F059FCB24840F2A95105F04CFC8B
:101BB000B4F89620D10740F19D81B9F1000F5CD1B6
:101BC0009EB1C2F3C203022B08BF4FF0000959D1E6
:101BD000BAF1170F56D9736806F1040A43B9B3680E
:101BE00033B9F36823B9336913B96FF078063DE070
:101BF000E36A002B55D094F99800B9F1000F01D099
:101C0000002D6AD00CF006FD40B10368BFF35B8F76
:101C1000DB68BFF35B8FDB0740F16F819FED908B3B
:101C200094F998000CF0F6FCB4F8962094F89430EF
:101C3000C2F3C2028DED008B29460FF069FB83468B
:101C400000287ED094F8941044610FF075F9A842F2
:101C500051D37B6DA364BB6D2360B4F89430112B1A
:101C600066D06FF07A0658460FF01CF930462437DC
:101C7000BD46BDEC028BBDE8F08FBAF1000F9FD1DD
:101C8000002E73D06FF0150630462437BD46BDECEC
:101C9000028BBDE8F08F03F5C3639842BFF479AFC0
:101CA00086E7236B002BA6D1636B002BA3D1A36B1C
:101CB000002BA0D112059ED450460DF08FFA83461A
:101CC000002800F0078158460DF0E8FB40B284F888
:101CD0009800B9F1000F93D194E7D9F80C100029BE
:101CE00090D0D9F8082002EBC101536808328A422B
:101CF0001D44FAD186E7B4F89630C3F38113022B62
:101D000018BF0546A5D16C4688B002AB5B49596146
:101D10001A460421C3E9060542F8101F584800235B
:101D20004FF4015106F0D4FA6FF00B06A5469DE77B
:101D3000B4F89630C3F3C203022B51D06FF01506EE
:101D400091E7504A0223C7E906324D4807F11802CD
:101D50005B464FF4825106F0BBFA6FF068063046DE
:101D60002437BD46BDEC028BBDE8F08FB8F1000F03
:101D70003FF43BAFC2F3C203022B83D1D8E9006A20
:101D80000EB1C14624E7E36A04F1280604F12C0AE7
:101D9000002B4FD094F99800C146002D7FF432AF4C
:101DA0009BE7334A3149334840F2A95305F054FBCD
:101DB000314805F051FB2E4840F2A95105F044FB93
:101DC000314A32492B4840F25B1305F045FB2A4863
:101DD00005F042FB2C4840F25B1105F035FBE7E6CD
:101DE0005346002259462046B6F802A00EF0DCFB0E
:101DF000061EFFF638AF20460EF028FB0346F8B16A
:101E0000002BC0F2848058460FF0BEFAB4F896302A
:101E1000C3F3C203022B57D058460CF089F9061EB3
:101E2000FFF621AF2E4630462437BD46BDEC028B6F
:101E3000BDE8F08F236BC146002B3FF4D2AE31E7F3
:101E4000E18B5246584610F0D3FB03460028D7D109
:101E5000AA46B9F1000F53D0D9F80C2002BBD2E743
:101E600000800000000000002C5B00200C840400B7
:101E7000C083040020640400E47104008085040031
:101E8000B05A040064850400A8710400DC710400E9
:101E9000BAEB080AB7D0D9F80C207B689342B2D2CB
:101EA000D9F8082002EBC30052F8331042685245BB
:101EB00028BF524601335846C7E9003390460FF019
:101EC00071FC061EE4DACEE694F8941058460FF042
:101ED000E5FDA1E70F49104A104840F2912305F0B3
:101EE000BBFA0F4805F0B8FA0B4840F2912105F013
:101EF000ABFAE8E66FF00806B8E66FF07206B5E6F2
:101F00002A46414658460FF04DFC034678E71E46E8
:101F1000A9E600BF04840400A87104002064040042
:101F2000E4710400000000002DE9F047054686B08A
:101F30009946002428230F46CDE9024390460FF02E
:101F400023FA02A928460FF04BFC002800F0D080AD
:101F500083793A2B064666D0112B61D0062B5CD0D4
:101F6000AC68002C00F0B5804FF0000CA389246809
:101F70009C44002CFAD195F82430A8699FED5E7B33
:101F8000022202FB03CC8DED007B0CF104013A230D
:101F90000FF0BEF90446002800F0A78095F8242031
:101FA000296A0FF0FFFBB0F1000A2FDBA3689B68E2
:101FB000A36295F82C20A96A20460FF0F3FBB0F13C
:101FC000000A23DBA06895F82C1008300BF0F2FB18
:101FD000A06850F8083F236295F824100BF0EAFB44
:101FE00095F82C3084F8243095F8243084F82C307F
:101FF000337EFF2B06F1180163D006F1080220465C
:102000000FF00CFD064620B36FF0040A20460EF0D8
:1020100049FF504606B0BDE8F0874FF03C0CAAE7F8
:102020004FF0300CA7E70399049404232846059346
:102030000FF0B0F904A928460FF0D2FB002845D0D4
:1020400090F90130A34241DA28460FF09DF9B379A7
:1020500082E704904FF0040A04A92046CDF814A0AA
:102060000FF0BEFB0028CFD080F80180077086708B
:10207000C67004A920460FF0EBFB0028C4D1042F42
:1020800029D05246014620460FF090F9824620465C
:102090000EF034FFBAF1000FB8D1024629462046AF
:1020A0000FF09AF90028B1D120460FF06DF93A21CE
:1020B00020460FF0F3FC20460CF03AF80028A5DB90
:1020C000A7E7A0690CF0F4FF014696E76FF0150A48
:1020D0009FE7A4464FE799FA89F33A4604A92046B8
:1020E00004930FF05FFB8246D1E76FF00B0A90E795
:1020F0006FF0040A8DE700BF0080000000000000C0
:1021000000B589B09FED0E7B06ABCDE9063302AA80
:102110008023CDE9022200930B4A02AB8DED047BB4
:1021200010F0E6FA002805DB4FF48042002302A8F5
:102130001BF096FD09B05DF804FB00BFAFF3008013
:102140000000000001000000A528010000000000C0
:10215000474BD3F80423900702D5D3F804218AB95A
:102160004FF02003EFF3118283F31288BFF36F8FD8
:102170003F4BD3F80413C9030ED482F31188BFF385
:102180006F8F70473B4A0021C3F80411D3F8043124
:10219000136801331360E3E7F0B53749BFF35B8F92
:1021A00083B051E8000F20F0010441E80045002D04
:1021B000F7D1BFF35B8F40B9D3F840312BB982F32D
:1021C0001188BFF36F8F03B0F0BD29480023C0F81A
:1021D0004031D0F8403182F31188BFF36F8F254B27
:1021E0001B68190A1B06BFF35F8FD0F80425D318AC
:1021F00041F10001B2F5801F0AD2204AD2E9004520
:10220000A34271EB050203D213F1807341F1000187
:102210004FF02002EFF3118C82F31288BFF36F8F1F
:10222000174AD2E90245A342A94118D39FED0E7B7C
:102230000F4E1168536800204FF4803782ED027B07
:102240001060C6F848738CF31188BFF36F8F0029B4
:10225000B9D0009322462B46884703B0F0BD8CF3DB
:102260001188BFF36F8FAEE7FFFFFFFFFFFFFFFF98
:10227000001001406863002060630020A03200204D
:102280008832002000000000F0B5514A044692E870
:10229000030024691A7B9B688BB004F5805502907B
:1022A00004F58150ADF80C1085F82420194614303F
:1022B00043F076F804F58150043014F0A1F80028BA
:1022C0005DD04FF0FF334FF0FF3204F6F4701BF097
:1022D000C7FC95F81931052B51D8DFE803F0084BFE
:1022E000034650036FF0220420460BB0F0BD95F872
:1022F000343013F0200347D095F836308DF80B308A
:102300009FED317B4DF6F052A5F82C219DF8087019
:10231000206802ABC5F8203100238DED007B1A4602
:1023200039460EF0F5FF064600283FD0D5F82011BB
:102330003A4601310FF036FA002829DB95F82C31A6
:1023400086F8423095F82D3186F8433030460FF04C
:102350001BF82068314617F04BF8002430460EF089
:10236000A1FD0023C5F82031BEE76FF068042046C8
:102370000BB0F0BD6FF00F0420460BB0F0BD6FF056
:10238000040420460BB0F0BD1C4620460BB0F0BD47
:10239000104A0223CDE908320F48002308AA4FF45F
:1023A000825105F095FF6FF00B04D7E70B4A02232B
:1023B000CDE908320848334608AA4FF4825105F0A7
:1023C00087FF6FF00B04CCE7000000000000000066
:1023D000905B0400E88C0400605B0400C08C040087
:1023E0000A7BB2B12DE9F04188B00C784D79013407
:1023F000AD09A41A022D00AF8C46864600EB0406F8
:1024000073D0032D35D0012D04D02037BD46BDE853
:10241000F08170479FEDCE7B87ED007B4FF08058B9
:1024200007F10800D8F8A810D8F8A480C7F80880E9
:1024300089B2F96003C81EF804303860022BB980F5
:1024400065D0062B00F0CC80002B00F0AB806C46F2
:1024500088B06946C04D0A460320C1E9055342F8D9
:10246000100FBE4800234FF4C25105F031FFA546BE
:10247000CBE79FEDB77B87ED007B10F804E0737826
:102480004FF08050541ED0F8A820D0F8A400B860B7
:1024900092B207F10801FA6003C90EF10108A4EB3A
:1024A0000E04022BB044E4B23860B98000F0898099
:1024B000062B4BD0002B39D06E4688B069460A46B1
:1024C0008B61A54B4B6142F8105FA44800234FF489
:1024D000C25105F0FDFEB546A148661C05254146E2
:1024E000152322460680857006E09D48551C05246C
:1024F0003146152305808470033042F05FFF994810
:10250000032118F0EBF92037BD46BDE8F081112A10
:1025100000F09780944AC7E906329048002307F1FB
:1025200018024FF4825105F0D3FE6EE7BEF14B0F57
:1025300000F0D6808D490222C7E90621874807F1BD
:1025400018024FF4825105F0C3FEC5E7AEF108034F
:102550003F2B70D8864808238370D6F80230C0F825
:102560000330F388A0F807309CF807209CF8063069
:1025700002F0030243EA0223A0F809309CF80B3072
:10258000C3720EF10303AEF10702DBB206F10801DC
:102590000380D2B20C3042F003FF7248012118F0E0
:1025A0009DF999E74B2A00F0B78070490222C7E9EC
:1025B00006216A4807F118024FF4825105F088FE9F
:1025C00023E7BEF1110F62D0674AC7E906326348BC
:1025D000002307F118024FF4825105F079FE7BE7E2
:1025E000A2F108033F2B29D8614BD11CC9B2198035
:1025F00008219970D6F80110C3F80310B6F8051039
:10260000A3F807109CF807009CF8064000F00300B0
:10261000073AF11D44EA00249CF80B60DE72D2B246
:1026200003F10C00A3F8094042F0BAFE4D482946D8
:1026300018F054F9E9E64F4A0223C6E74D4A02234F
:1026400069E79CF807009CF80620494B00F003005E
:1026500042EA0022A3F803209CF80B205A711522AD
:102660001A8004229A707068B2685EF804402946A5
:10267000F568C3F81250C3F80A00C3F80640C3F85F
:102680000E20327C37489A7518F028F9BDE69CF880
:1026900007109CF80620364BD6F80D5001F00301C8
:1026A00042EA01229CF80B105971A3F8032015216E
:1026B000042219809A70D6F80100D6F80510D6F8D1
:1026C0000920C3F80E20C3F80600C3F80A10C3F8A7
:1026D0001250727C23489A75012118F0FFF8FBE62E
:1026E0009CF807509CF80630214805F0030543EAA2
:1026F0000523A0F803309CF80B3043714F2303806F
:102700000223711C83707246063042F049FE154860
:10271000012118F0E3F8DFE69CF807409CF806007A
:10272000134B04F0030440EA04204F243146A3F87D
:1027300003009CF80B601C80981D02245E719C7045
:1027400042F02EFE0748294618F0C8F85DE600BFA3
:1027500000000000000000002C900400605B0400FA
:10276000046400207C9A0400C48F0400E88F0400F5
:102770003C6400200C9004004B790A7903F00103BB
:102780002DE9F0471B01DFF80493B34EB34CB44F6F
:1027900043EA12138046C87989F800300D464B7819
:1027A000897900F0030041EA00213180AD49EE7AD9
:1027B00094F82E000E70C3F3820188423E7892B0E6
:1027C00005D084F82E100136F6B22A793E7094F8BE
:1027D000311002F00F039942C2F3030206D0013612
:1027E0003E7084F8312013F0BBFF3E786B7994F88B
:1027F0003210C3F34402914204D00136F6B284F899
:1028000032203E70EB7994F83320C3F3820A5245AC
:1028100005D084F833A00136F6B2EB793E7094F817
:102820003420B2EB531FC3F3421104D00136F6B289
:1028300084F834103E702B7A94F835209A4204D0F4
:102840000136F6B284F835303E706B7A94F8362053
:102850009A4204D00136F6B284F836303E70AB7A34
:1028600094F837209A4204D00136F6B284F8373013
:102870003E70002E40F00C8150466A7B94F8381070
:1028800002F003039942C2F3010C04D084F838C06B
:1028900001366A7B3E7094F83A10C2F341139942B4
:1028A00005D084F83A303B786A7B01333B70AB7BD0
:1028B00094F83B6003F00301490041EAD2129642CA
:1028C00005D03B7884F83B2001333B70AB7B94F818
:1028D0003C10C3F38202914205D03B7884F83C203F
:1028E00001333B70AB7B94F83D20B2EB531FC3F335
:1028F000421104D03B7884F83D1001333B70EA79F3
:10290000AB79594902F0030643EA062383424FF0AC
:1029100000060E6031D394F82110012907D994F8EC
:102920002E1001290DD0514A12889A4225D894F8C8
:102930002030042B02D0032384F8203012B0BDE8ED
:10294000F08794F823100229EDD100EB52118B424D
:102950004FEA521211DB2E7A31448B42E7DA9A1A8F
:10296000121A687999F80010C0F3440000FB0212B3
:102970003F49098892B29142D9D994F820203D4923
:102980000120042A087007D03B483C49002202700D
:102990000A70042284F82020394A2E7B002111700D
:1029A000002ECBD09A45C9D92A7869790132890994
:1029B000921B012908EB020700F067810329BDD1B2
:1029C0009FED237B8DED007B8DED027B4FF08051E1
:1029D00018F80280D1F8A820D1F8A4100C9192B276
:1029E0000D920DF1300C9CE80300B7F80690ADF89D
:1029F0000410ADF80C900146DDF80CE0019A00904F
:102A0000D7F802000290964508BF884207F1010AF4
:102A100056D04FF6FF72964508BFB0F1FF3F4FD03A
:102A2000A6EB0802013A1748D2B2541C052308F15C
:102A300001018370394404801523033042F0BEFC49
:102A40001148032112B0BDE8F04717F047BF00BF9F
:102A500000000000000000005A990020A06500203E
:102A60007B990020879900209865002058990020C4
:102A700056990020869900207C9900207E9900209C
:102A80008A990020046400207C9A0400899900201F
:102A900011F04AFF94F8343094F833201A4494F833
:102AA0003530134494F836201A4494F837301344E0
:102AB000A4F8273011F0F0FFE879C0F38200DCE6DB
:102AC0009FEDC97B8DED047B8DED067B4FF0805033
:102AD0007A78D0F8A810D0F8A4000C9089B20D91A3
:102AE0009CE80300013A0490DAF80100ADF81C906C
:102AF000ADF814100690062A92D801A151F822F0E0
:102B00007F2B0000212A00001D2B0000492C000013
:102B1000232C0000C72B0000C12B00004FF0FF0941
:102B2000DDE90602DDE904139A4208BF88427FF41A
:102B300077AF94F82130012B7FF472AF3B7B012BF0
:102B40003FF46EAF032B00F0E781042B00F0D98136
:102B5000022B00F0D1813889B4F82F20824240F056
:102B6000B4816374B7F90A30A38284F8169011F027
:102B7000DBFE9F48002117F0B1FE2E7B50E7DDE918
:102B80000602DDE904139A4208BF88427FF448AF89
:102B900094F82130002B7FF443AF3A7A602A3FF655
:102BA0003FAF07F10901934842F0FAFB92483B7AA4
:102BB000A0F87C30032303741BF060FC2E7B2FE70E
:102BC00097F80E90ACE7DDE90642DDE904018A42A0
:102BD00008BF844207D04FF6FF718A4208BFB4F1A4
:102BE000FF3F7FF41DAFA8F108023F2A3FF618AF60
:102BF000824CA8F10702A4F80330D2B2EB7A6371D9
:102C000007F10801A01D42F0CBFBA8F10303DBB2E2
:102C10002380774806230121A37017F05FFE2E7BE7
:102C2000FEE6DDE90623DDE904018B4208BF8242AE
:102C300007D04FF6FF718B4208BFB2F1FF3F7FF420
:102C4000EFAE002004F0A8FFDDE90623DDE9040172
:102C50008B4208BF824207D04FF6FF718B4208BFFC
:102C6000B2F1FF3F7FF4DCAE654A0223CDE91032BA
:102C70006448002310AA4FF4845105F029FB13F097
:102C80006FFD11F051FE2E7BCAE618F80220B7F84E
:102C900005E04FF000084FF00009CDE90889CDE9C3
:102CA0000A894FF0805C0CA8DCF8A810DCF8A4C0FE
:102CB000CDF830C089B20D9103C8013A0890D7F819
:102CC0000100ADF82CE0ADF824100A90062A3FF67A
:102CD00035AE01A151F822F04F2D00003D29000032
:102CE000F52C00002D2E0000092E0000972D00006D
:102CF000932D0000FF25DDE90A02DDE908139A4261
:102D000008BF88427FF41AAE94F82130012B7FF47B
:102D100015AEFB7A012B3FF411AE032B00F0D080EF
:102D2000042B00F0C180022B00F0B980B7F8070037
:102D3000B4F82F20824240F09B806374B7F90930C9
:102D4000A382A57511F0F0FD294800217AE6DDE99E
:102D50000A02DDE908139A4208BF88427FF4EEAD0B
:102D600094F82130002B7FF4E9ADFA79602A3FF620
:102D7000E5AD07F108011F4842F012FB1E48FA7941
:102D8000A0F87C200323037412B0BDE8F0471BF0C9
:102D900075BB7D7BAFE7DDE90A12DDE908408242C1
:102DA00008BFA14207D04FF6FF70824208BFB1F1C1
:102DB000FF3F7FF4C3ADA6F108023F2A3FF6BEAD48
:102DC0000E4CE87A6071F21FF91DD2B2A01DA4F872
:102DD000033042F0E5FAF31EDBB2062204482380FA
:102DE0000121A2702EE600BF0000000000000000DC
:102DF0007C9A040094630020786300203C640020E7
:102E000014990400605B0400DDE90A23DDE9080190
:102E10008B4208BF82423FF414AF4FF6FF718B42E2
:102E200008BFB2F1FF3F7FF489AD0AE7DDE90A236D
:102E3000DDE908018B4208BF824207D04FF6FF71DF
:102E40008B4208BFB2F1FF3F7FF478AD354A0223D1
:102E5000CDE910323448002310AA4FF4845105F014
:102E600037FA13F07DFC12B0BDE8F04711F05CBDFD
:102E7000A4F82F0011F058FFFB793A7A2B4843EA67
:102E80000223A0F88230022303741BF0F7FAFB7AC6
:102E90006374042B7FF452AF4FF0FF3350E73A7B5B
:102EA000022A7FF443AF49E53A7B002A7FF446AD1E
:102EB000B7F80700B4F82F208242D9D16374EBE74A
:102EC0003A7B012A7FF432AF38E5A4F82F0011F0E5
:102ED0002BFF3B7A7A7A154843EA0223A0F8823026
:102EE000022303741BF0CAFA3B7B6374042B7FF448
:102EF00039AE4FF0FF3337E67A7B022A7FF42BAEF0
:102F00008EE57A7B002A7FF48BAD3889B4F82F20C8
:102F10008242DAD16374ECE77A7B012A7FF41BAE3C
:102F20007EE500BF14990400605B04007863002014
:102F300010B58C1882B01DF099FD43014A011B1A8F
:102F400042EAD06262EB0102920042EA93729B0075
:102F50001B1841EB0200C00040EA5370C3F310336A
:102F600043EA4043E41A002C16DD4FF4004340F2DC
:102F7000E7300021E4FB03014FF47A720023FDF7F0
:102F80000FF99FED097B02460B4609488DED007B4A
:102F90001DF07EFE02B010BD064B01221A7002B079
:102FA000BDE810400AF004BF00000000000000006F
:102FB000700600208F9900202DE9F04784B0044668
:102FC000DDF83C80DDF84490B8F10F0F0E46154651
:102FD0001F4648D008F110031E2B47D89FED307BC9
:102FE000109B2373073504F1580325F0070AC4E941
:102FF0001633002506F14003042284ED067B84F895
:103000000E806273AA2152461846A560E57342F00D
:1030100002FA0E9BC4E9220A0AF1400802930D9BB2
:103020000193B0440C9B00933146C4F890503B464A
:103030004246204609F014FA6565B9F1000F29D01F
:103040001F22494604F1620042F08FFA84F8815051
:10305000154B9B680BB1D3F89430C4F894304046BC
:1030600004B0BDE8F087114B9F42B7D0104A114918
:1030700011484FF4067304F0EFF941460F486FF022
:103080000F030E2204F0E8F909484FF4067104F02A
:10309000DBF9A3E784F86290DAE700BFAFF30080C2
:1030A000000000000000000098960020A9D4010054
:1030B0005CB6040080B604002064040000B704007D
:1030C0002DE9F84F2DED028B05461BF00DFF4FF05B
:1030D0002003EFF3118B83F31288BFF36F8F6248E5
:1030E0001AF0B6F95F46002800F090805E48DFF8DD
:1030F00098A1DFF898911AF0C7F95C4BCAF8005014
:103100001C689C423FD09FED568BDFF85C81D9E96B
:10311000002120464FEAE57C002C75D0D4E90463F9
:10312000B5427CEB030EC0F28F80B21841EBE67122
:1031300084ED048BC9E900211DF012FA40461AF013
:1031400095F9002851D087F31188BFF36F8FA368DA
:10315000204698474FF02003EFF3118783F312883E
:10316000BFF36F8F40461AF073F9BB4670B3404609
:103170001AF08AF93D4BDAF800501C68AD1B9C42EE
:10318000CAF80050C3D14FEAE57CD9F800205219A3
:10319000C9F80020D9F804204FF0000442EB0C02DB
:1031A000C9F80420CAF800401DF0F6F9214610F0D5
:1031B00087FC2D481AF05AF9002836D08BF3118875
:1031C000BFF36F8FBDEC028BBDE8F88F284A29480A
:1031D00029498E2304F040F94146284804F03CF97F
:1031E00023488E2104F030F9C1E7214A21482449BF
:1031F000B92304F031F94146224804F02DF91C4866
:10320000B92104F021F99EE7BB46BEE7184A1A49E6
:1032100018488E2304F020F91349184804F01CF9CB
:1032200013488E2104F010F960E7114A144911483F
:10323000B92304F011F90C49124804F00DF90C48B7
:10324000B92104F001F9B9E7084A9442BB469CD081
:10325000761B63EB0C022661626196E7AFF3008098
:103260000000000000000000EC960020BC050020DB
:10327000DC680400206404003C6904005469040014
:103280000C69040024690400E896002068370020D7
:103290009FED097B10B4002300F11804C0E9064437
:1032A00080ED007BC0E908125DF8044B03634363C3
:1032B000704700BFAFF30080000000000000000076
:1032C0002DE9F84F0025044600F1240B05847430E5
:1032D0000E462EF0B1FC0C23A4F878304FF0AF630B
:1032E000E36723465A4A84F87B5043F8802FC4F89A
:1032F00088302346574A43F88C2FC4F8943023462D
:10330000554A43F8982FC4F8A0302346534A43F84F
:10331000A42F3146C4F8AC30C4E92D55C4E9335567
:1033200084F8B050C4F8BC5084F8C950A4F8CA500E
:10333000C4F8D450A4F8D85004F1F00027F0A8FB4A
:103340009FED417BF0224FF6FE73C4E949234FF60F
:10335000FF7384ED4C7BA4F82C3104F14C0A314608
:103360005846C4E96F552FF06FFC314650462FF098
:103370006BFC2946082204F1180042F04CF829465B
:10338000082204F1DC0042F046F858462FF0CEFC4B
:1033900050462FF0CBFC0127122204F5A6792946CE
:1033A00004F59C7042F037F83946484627F0D2FAC7
:1033B0002B49484626F0C8FC204627F0DFFA04F5E2
:1033C000B27027F0DBFA04F5BE7804F5B67026F08B
:1033D000FDFB404627F0D2FA294604F5C27026F0DC
:1033E00037FC94F88E2142F0800284F88E211D4A29
:1033F0002946C2F8048104F5CA70142242F00BF881
:103400004FF6FF7384F89431322384F895312946BE
:10341000142284F8A25184F8A37104F5D47041F009
:10342000FAFF33234FF0FF3220460F4984F8A821DA
:1034300084F8A93184F8B65184F8B7712BF0D8FD1F
:103440002046BDE8F88F00BF00000000000000002B
:10345000CD08030099FF0200890C03002DEF020044
:10346000864C00207848002054D70400000000005B
:103470009FED177B034680ED007B80ED027B09BB4F
:103480009FED157B83ED047B9FED157B83ED067B24
:103490009FED157B83ED087B9FED157B83ED0A7B0C
:1034A0009FED157B83ED0C7B9FED157B83ED0E7BF4
:1034B0009FED157B83ED107B9FED157B084683ED1B
:1034C000127B70476FF07400704700BFAFF300804D
:1034D000000000000000000008C9BCF367E6096AAC
:1034E0003BA7CA8485AE67BB2BF894FE72F36E3C93
:1034F000F1361D5F3AF54FA5D182E6AD7F520E51F0
:103500001F6C3E2B8C68059B6BBD41FBABD9831FA9
:1035100079217E1319CDE05B2DE9F0419FEDB27B5F
:10352000B4B08DED027B9FEDB27B8DED047B9FED02
:10353000B27B8DED067B9FEDB27B00268DED087B87
:103540001446054633923296002A77D180238DF8AF
:103550008830CDF889204FF03A0C01200DF18D0212
:103560000E2302AF22A90026022B166021D0032BC6
:1035700056601ED0042B96601BD0052BD66018D049
:10358000062B166115D0072B566112D0082B9661B9
:103590000FD0092BD6610CD00A2B166209D00B2B49
:1035A000566206D00C2B966203D00E2BD66208BF53
:1035B0001663BCEB830F00EB830012D0431C34AACC
:1035C000024400263B2B02F8486C0AD034AA13446C
:1035D000392803F8486C00F102031CBF9B1803F85C
:1035E000486C630F8DF8C330630D8DF8C430630BE6
:1035F0008DF8C53038466309E4008DF8C6308DF883
:10360000C74040F0A3FEDDE90201DDE9042306BA6C
:1036100014BA18BADDE9062309BA12BA69602A6138
:1036200019BADDE9082312BA1BBA2E60AC60E86053
:103630006961AA61EB6134B0BDE8F08102AF384640
:10364000884640F027FE241A034608EB04010028B0
:1036500000F0BA80421E022A45D958F8042022926E
:103660008208012A3AD048682390022A36D0886816
:103670002490032A32D0C8682590042A2ED00869E5
:103680002690052A2AD048692790062A26D08869DC
:103690002890072A22D0C8692990082A1ED0086AD3
:1036A0002A90092A1AD0486A2B900A2A16D0886ACA
:1036B0002C900B2A12D0C86A2D900C2A0ED0086BC1
:1036C0002E900D2A0AD0486B2F900E2A06D00F2A72
:1036D000886B18BFCA6B309018BF319223F0030675
:1036E000B342314414D034AA3244087802F8480C6A
:1036F000721C93420CD934A802440236487802F86E
:10370000480CB34204D934AA16448A7806F8482CE7
:1037100034AA1A44581C80213828329302F8481CD5
:103720005CD93F282DD834AA104400213E2B00F844
:10373000481C03F1020224D034A802443D2B02F8B5
:10374000481C03F103021CD002443C2B02F8481C25
:1037500003F1040215D002443B2B02F8481C03F18C
:1037600005020ED002443A2B03F1060002F8481C71
:1037700007D034AB03443E2803F8481C01D18DF830
:10378000C71022A93846019140F0E0FD3A28339C49
:1037900001993FF626AF431C3B2BC0F13A02C0F122
:1037A0003B0C88BF4FF0010C022A7FF608AF00F1F6
:1037B00080030026FA18FE504FEA9C03012B02F109
:1037C00004027FF4D0AEF4E680223290339C8DF870
:1037D00088204FF03A0C012022A9E8E7339C22A967
:1037E000D9E700BFAFF3008067E6096A85AE67BB23
:1037F00072F36E3C3AF54FA57F520E518C68059BD3
:10380000ABD9831F19CDE05B2DE9F047264BDFF8DC
:10381000ACA088B04FF4A06202A8DA6000220023B6
:10382000CDE9022300F08EFCDDE902121F4BCDE949
:103830000021504640F28B42002141F06FFE07F01C
:103840003DFDCAF80C0000F0B1F848BB184C194F08
:10385000DFF86C90DFF85080174E02250EE02368E9
:103860000133236099F80030022B4FF000010CBFA8
:103870004FF400404FF4F0101CF070FB2368CAF8BE
:103880001030404600F04CF80028E8DACDE9065741
:10389000002306AA4FF48251304604F019FDE1E7F7
:1038A00000F0DAF8CFE700BF00000020485E040017
:1038B000C0550020545E0400285B04001000002066
:1038C0006C990020014B42781A7070476C99002067
:1038D00010B588B000F04CFC04E04FF4004000212B
:1038E0001CF03CFB00F03EFC0028F6D0002000213C
:1038F00000220724CDE90601CDE90342CDE90122EA
:103900000092044B044905484FF4487219F0AEFC8C
:1039100008B010BD0938000080080020801D00207C
:103920002DE9F0411B4B82B01B68282292FBF3F279
:1039300003FB02F2C2F1280202AF04468260406833
:103940000025CDE900552B46134906F0DBFEE8467D
:103950008AB006462368A06802A908620A460F4892
:10396000CB6148610E4B0F488861032481F82440E5
:1039700042F8103F0C482B464FF42C5104F0A8FCA1
:10398000AE42B4BF6FF004002846C546BD46BDE850
:10399000F08100BF885E0400100000208C5E0400EF
:1039A00005000001205F0400285B0400B0B586B06C
:1039B00000AF224B3B6022493A1D022007F06EFB0C
:1039C00038881122022106F0E5FB1E4C00286060B9
:1039D00008DB1822394606F03FFD002823DB1837A4
:1039E000BD46B0BD256809F065FC6C468AB000682C
:1039F0006B4615491A4659614FF0020C134983F87A
:103A000020C0C3E9065042F8101F00234FF40951AB
:103A10000F4804F05DFCA54609F04CFC006818371F
:103A20004042BD46B0BD256809F044FC6C468AB0F2
:103A300000686B4607491A46DDE700BF0200109296
:103A4000A85E040000000020D05E04000400000115
:103A5000285B0400F85E0400034B5868002800DA75
:103A6000704706F031BC00BF000000202DE9F04F88
:103A70004C4B93B0002600AFC7E90E66C7E910664D
:103A8000C7E90C36484C4949494DDFF83C81DFF81D
:103A90003CB1DFF83C9107F13402022007F0FEFA56
:103AA0002670444E2B7863B92378002B5FD04FF0FB
:103AB000FF334FF0FF3230461AF0D2F82B78002B4C
:103AC000F2D0182207F13001381D05F091FF0028CF
:103AD000EA4652DB384BFB620223BB62002307F14C
:103AE00028024FF48651484604F0F2FB42464FF458
:103AF0007A61381D05F0DCFF00284EDB1CF0B6FFB4
:103B00004A0143011B1A42EAD06262EB01029200B1
:103B100042EA93729B00181841EB0201C90041EA86
:103B20005071C0F3103040EA41408AB0C90B012304
:103B3000CBF80000CBF804102370D8E90010D8F8B7
:103B400008306A4613621D4B53610523C2E9060122
:103B500042F8103F00234FF42351484604F0B8FBCD
:103B6000D546381D06F08AF82378002B9FD1002116
:103B70004FF4A0201CF0F2F994E788B06A46104B8D
:103B800090615361032342F8103F00234FF4C25168
:103B9000484604F09DFBD546E3E788B06A46094BEA
:103BA0009061EEE70200007B72990020305F040014
:103BB0006F9900207C0700207C5F0400B45F040044
:103BC000585F04009C5F0400701E0020681E0020E7
:103BD000685B040010B510460C4611B1012907D0EE
:103BE00010BD00F017FD2046BDE8104000F0BCBC41
:103BF00000F0BAFCBDE81040002000F00BBD00BF93
:103C0000F8B51C4E944612880C4600AF314600238E
:103C100091F84B50ADB94C2505FB03F3F51809336A
:103C200068600232F01801236146D2B285F84B3049
:103C30002C7241F0B5FB1048294619F013FFBD4620
:103C4000F8BD0133042B01F14C01E1D16D4688B080
:103C50006B460A481A460321C3E9050442F8101FBF
:103C6000074800234FF4C25104F032FBAD46BD4675
:103C7000F8BD00BFCC5500203C570020F05F040089
:103C8000685B040038B5094C237803B938BD0AF0E5
:103C90005FF805460AF098F8002128681EF0FAFA45
:103CA00028460AF099F80023237038BD6D9900204A
:103CB000084B1B7823B110B5074C23780BB110BD0E
:103CC00070470AF045F809F037FF0028F7D10123C3
:103CD000237010BD6F9900206D99002038B50D4DEF
:103CE0002B7803B938BD0AF033F804460AF06CF8B3
:103CF000206800211EF0CEFA08B9074B1870206822
:103D000000211EF059FA00B928702046BDE838405D
:103D10000AF062B8709900206D99002038B50C4DFA
:103D20002B7803B138BD0AF013F804460AF04CF8BA
:103D3000206801211EF040FA08B901232B70206889
:103D4000042116F00BF82046BDE838400AF044B8CC
:103D5000709900200840C30705D5074A074B127821
:103D60001B780AB12BB97047002BFCD004481AF01D
:103D700085BB04481AF082BB709900206E99002020
:103D80002C5700201C570020704700BF70B5052835
:103D900088B004460D4605D029462046FFF7F4FFBB
:103DA00008B070BD0E4B024693E803000090ADF8DA
:103DB00004102846694641F0E3FA06460028EBD194
:103DC000084819F003FF084A0223CDE906320748E4
:103DD0004FF48651334606AA04F07AFADCE700BFB6
:103DE000486004007C07002028600400685B040031
:103DF0002DE9F04F89B0DFF808939F4E00AF4FF0E8
:103E000000080DE09D4BFB610223BB61002307F11D
:103E100018024FF48451304604F05AFA84F84B806B
:103E20004FF0FF3348464FF0FF3219F033FE037A6C
:103E3000456804464BB1012BE4D1B0F8090004F108
:103E40000B01C0B2FFF7A2FFE8E7C37A00F10B0B4A
:103E5000032B00F26481DFE803F055535102884BD5
:103E6000FB610223BB61002307F118024FF4865166
:103E7000304604F02DFAEA4688B0B4F80D306A46B0
:103E80009361804B5361032342F8103F00234FF4AA
:103E9000C651304604F01CFAE37A012BD5466FD99F
:103EA000237B002B75D1EA4688B0D4F80F306A46E0
:103EB0009361754B5361032342F8103F00234FF485
:103EC000C651304604F004FAE37AD546002B36D0CA
:103ED000032B71D16D4A6E48012313701AF0CEFA8C
:103EE000237D03B3E37A032B1DD1E37C042B00F283
:103EF0000981DFE803F022201E1C0900654BAFE7B3
:103F0000654BADE7654BABE7654BFB610223BB61DE
:103F10005948002307F118024FF4865104F0D8F9EC
:103F2000E37C002B77D15846FFF7CCFC76E75D4B5E
:103F3000EBE75D4BE9E75D4BE7E75D4BE5E75D4BA5
:103F400093F800A0BAF1000FEDD1AB685A491B6C91
:103F500028469847002832D1AA687860526C5749A1
:103F6000284690477B68002836D1554B51491B782D
:103F700001220A70002BB3D052481AF07FFAAFE743
:103F8000002BDCD050481AF079FA404B83F80080BF
:103F9000A6E7022B3BD0032B37D0012B28D04B4B6D
:103FA000FB610223BB61002307F118024FF4845127
:103FB000304604F08DF976E7012BB4D1E2E7444BAB
:103FC000FB610223BB614FF48251534607F1180293
:103FD000304604F07DF921E73E4AFA610222BA61D7
:103FE0004FF4825107F11802304604F071F915E7D9
:103FF000394BFB610223BB61002307F118024FF428
:104000008651304604F064F94DE7344BF1E7BB616B
:10401000334BFB61F0E7237D052B1BD8DFE803F072
:104020001012141618032F4BFB610223BB611248B8
:10403000002307F118024FF4865104F049F972E7A2
:10404000294BF1E7294BEFE7294BEDE7294BEBE74C
:10405000294BE9E76D4688B06A469361274B536167
:10406000032342F8103F044800234FF4C45104F0E6
:104070002FF9AD4657E700BF685B0400E862040013
:1040800050600400C46004001C6104006F990020AB
:104090000C57002068600400806004009C600400ED
:1040A0007061040090610400B0610400D0610400FC
:1040B000F0610400719900209C040020C455002088
:1040C0006E9900202C570020FC5600200861040047
:1040D000306104004C610400E4600400F8600400F6
:1040E000D460040058620400AC62040090620400D2
:1040F000746204003C62040020620400C862040090
:104100003C5700200C4BFB610223BB610B48002392
:1041100007F118024FF4845104F0DAF800E7084B75
:10412000FB610223BB610548002307F118024FF42D
:10413000845104F0CDF89EE608620400685B040038
:10414000B06004004FF0805282B0D2F8A830D2F8AC
:10415000A42002609BB20193BDF80430838002B0BA
:10416000704700BF014B1878704700BF6F9900205F
:104170002DE9F04F91B008AF5D4818F043FC0022E4
:104180000023C7E90023054600F0DAF9002840F0D3
:10419000A280584814F0C4FE0446002840F08680EF
:1041A0004FF0805207F10806D2F8A830D2F8A420C8
:1041B0009BB2C7E9022396E80300B980E946796813
:1041C000386088B0C9E906124A464B49C9F814104C
:1041D0004FF0040842F8108F484823464FF403512B
:1041E00004F076F8464A474B1470474A5C801470D6
:1041F000464A9C801470464ACD464FF0010914701F
:10420000A3F80090434819F0DFFB4FF0000A4FF08D
:10421000000B03230393CDE906ABCDE901443E4BEC
:104220003E49049400944FF400723D4819F01EF882
:104230003C493B4819F004F83B4B3C490094CDE91C
:1042400006ABCDE90384CDE901444FF480623848E0
:1042500019F00CF83749364818F0F2FF364937485C
:104260001AF01EF8364937481AF01AF83649374816
:104270001AF016F8364937481AF012F8AB68364A81
:104280005B6ABA600721324628469847AB68334AD2
:104290005B6ABA602846324608219847304B204670
:1042A000243783F80090BD46BDE8F08F6D4688B096
:1042B0002C482A460321C5E9050442F8101F0F487F
:1042C00000234FF4C25104F003F82046AD462437D2
:1042D000BD46BDE8F08F244A0223C7E906320748ED
:1042E000002307F118024FF4845103F0F1FF50E767
:1042F00000630400553D00004C630400685B04004B
:1043000071990020C4550020709900206F990020F9
:104310006D9900203C570020F13D0000809E002058
:10432000681F00205C6304006D3A0000009A0020C2
:10433000801E0020706304001D3D00002C570020EB
:10434000DD3C00001C570020B13C00000C57002051
:10435000853C0000FC560020013C0000D53B0000DD
:104360006E9900202C630400106304002DE9F04FC7
:1043700012F0FC6FD0E90169D0F8108081B00546D9
:1043800014460F4651D104F03003302B60D004F0B6
:104390000213022B6FD004F00603042B7ED014F41A
:1043A000402A29D0A10304F4801B40F19480BAF57F
:1043B000402F0ED15349544A544840F2CE2303F0C3
:1043C0004BF8534803F048F84F4840F2CE2103F031
:1043D0003BF8BBF1000F0FD0E207336800F18F808C
:1043E0000126BE4024F4801A13EA060463D0D8F8EC
:1043F000003023EA06030DE033680126BE401E426A
:1044000024F4801A04F0010455D0D8F80030002CB0
:10441000EFD03343C8F80030D9F80030524639465F
:10442000284601B0BDE8F04F18474FF42F733949C3
:10443000354A364803F010F8374803F00DF8324893
:104440004FF42F7103F000F804F03003302B9ED1AD
:1044500040F2BF2331492C4A2C4802F0FDFF30487E
:1044600002F0FAFF284840F2BF2102F0EDFF04F00D
:104470000213022B8FD140F2C3232A49224A234838
:1044800002F0EAFF284802F0E7FF1F4840F2C3218C
:1044900002F0DAFF04F00603042B80D123491B4805
:1044A000194A40F2C72302F0D7FF174840F2C7214C
:1044B00002F0CAFF73E71E49134A144840F2DA2398
:1044C00002F0CAFF1B4802F0C7FF0F4840F2DA2192
:1044D00002F0BAFF99E718490B4A0C4840F2CA2388
:1044E00002F0BAFF154802F0B7FF074840F2CA21B0
:1044F00002F0AAFFBAF5402F3FF45CAF69E784F4FD
:1045000040247AE7246604008C63040020640400DD
:1045100068660400C063040040640400646404002E
:10452000A0640400E0640400186504006C650400E5
:1045300094660400D4660400A0650400E8650400E5
:1045400008B5074A07480D21FFF710FF002806DBD2
:10455000034A0448BDE808400E21FFF707BF08BD25
:10456000010016002C5804002DE9F041244E336957
:1045700075681F462B689A04044616D53B689B0451
:1045800010D43CB1B3681E48DB68BDE8F0414FF47D
:1045900000511847B3681A481B69BDE8F0414FF451
:1045A0000051184780F00104EBE740F22553154A0B
:1045B0001549164802F050FF154802F04DFF11480A
:1045C00040F2255102F040FF3B6813F4005F2B6876
:1045D00003F4005318BF84F00104002BD1D1094A21
:1045E00009490A4840F2FC4302F036FF084802F04D
:1045F00033FF044840F2FC4102F026FFC1E700BF50
:104600002C5804008C6304009466040020640400A9
:10461000D46604002DE9F041244E336975681F46C5
:104620002B685A04044616D53B685B0410D43CB191
:10463000B3681E48DB68BDE8F0414FF4804118477D
:10464000B3681A481B69BDE8F0414FF48041184730
:1046500080F00104EBE740F22553154A154916484E
:1046600002F0FAFE154802F0F7FE114840F225511B
:1046700002F0EAFE3B6813F4804F2B6803F480439A
:1046800018BF84F00104002BD1D1094A09490A4816
:1046900040F2FC4302F0E0FE084802F0DDFE044870
:1046A00040F2FC4102F0D0FEC1E700BF2C580400EC
:1046B0008C6304009466040020640400D466040043
:1046C0002DE9F04F98468BB0C2F3C2030133029339
:1046D00002F0040304938307149D40F0048206460D
:1046E0008946041D002800F0B081072940F224818A
:1046F0004FF0000ACDE900A802F00203039308F18D
:10470000FF37CDF814A00EB1019B2360029B002B54
:1047100040F38081039BEBB1A21B93080121B2F50A
:10472000007F80F0E381009A0F2A00F2CA81002EF8
:1047300000F09281DBB2002900F07E81009A2832DD
:104740006A4463F07F030AF1010A02F8103C009BFF
:10475000013300937B780434791C93B30420002246
:104760000746C6F1080B4FF0010E4FF6DA7C002A1F
:1047700000F019817A2B1FD84B2B40F2E5804C3B7F
:104780002E2B19D8DFE803F0191818181818181864
:1047900018181818801818181818181818A218803F
:1047A00080A2A2A21980DD181918BA80BA1818CDF3
:1047B000CA8018188018CA00002211F8013F002B87
:1047C000D5D1A21BB2F5806FDDF80480104680F0D1
:1047D0009D81002E00F05181049D9DF814309108B8
:1047E0003170002D40F0ED8019462B46F37071704A
:1047F000009B86F802A0BAF1000F00F0EC80002BBD
:104800003FD00DF1180B5A460BEB0307C6F101051B
:1048100012F8013B13F0800F04EB0500214603F072
:104820007F0305D08145C0F0878001F8013B0C462D
:104830009742EDD1009D0096C6F101075D444346C5
:104840005646BA46049FA8461D461EB19BF9002055
:10485000002A10DB002F00F0D180002220465444B3
:104860001444A14568D39BF8001000F8011B2946A9
:10487000841840F095FD0BF1010BD845E5D1009E61
:10488000A01B0BB0BDE8F08F11F8013C6C2B31D0B0
:10489000431E2344424213401C46002E00F08F80EA
:1048A00000223C44A41BA14546D3042F00F0FE8007
:1048B000082F40F0E88003F10804073525F00705CC
:1048C000B5EC027B83ED007B082776E7073525F002
:1048D00007050734B5EC027B24F007042EB10BEB7F
:1048E00004024A4528D884ED007B082008340022C1
:1048F000074662E711F8023C6C2B72D0E31C23F0F0
:104900000303002E56D01C1DA21B914514D3002278
:10491000042055F8047B1F6004274EE70420074657
:104920004BE7033424F00304002E00F09E80231D87
:104930009B1B994580F099806FF01B000BB0BDE880
:10494000F08F0820074638E7472B3FF635AF292B75
:1049500020D92A3BDBB20EFA03F313EA0C0F7FF4E3
:104960002CAF13F0625FB1D113F001023FF425AF19
:10497000431E1C4443421C402346002E91D1042F69
:104980001AD0082F7FD1073525F00705083503F128
:10499000080499E7202B3FF410AFA3F12302B2FAE9
:1049A00082F2520909E7252B7FF407AF0420012288
:1049B000074602E73246042004351C1DACE73246A8
:1049C000DDE70021F3707170009B86F802A0BAF158
:1049D000000F7FF414AF002B00F083800DF1180B53
:1049E00028E7E31D23F00703002E3BD003F1080462
:1049F000A21B9145A0D3002208205EE79BF800206F
:104A0000009B53F8225043F822702846FDF72CF8FB
:104A1000421C23E7454B019A9A4203D3444B9A42E6
:104A2000FFF478AE0399A21B9308002940D1009AA5
:104A30000F2A46D88EB1DBB2059A01320592009A50
:104A400028326A4402F8103C81E601F0070909F1B6
:104A50000404C9F108094BE609B9049B53B309F1F1
:104A6000010974E6324608208DE7029B013B029360
:104A700055F8043B01930F4645E6A9F108001044A0
:104A80000BB0BDE8F08F2B4A2B482C494FF42E7306
:104A900002F0E2FC2A48394602F0DEFC25484FF4D9
:104AA0002E7102F0D1FC6FF01500EAE61C1D30E714
:104AB000002134E60198FCF7D7FF09F1020981448F
:104AC00045E61E491B4A1C4840F27A2302F0C4FC0A
:104AD0001C4802F0C1FC174840F27A2102F0B4FCF5
:104AE000E1E71046CDE66FF00D00CAE6114A134922
:104AF000114840F2752302F0AFFC134802F0ACFC01
:104B00000C4840F2752102F09FFCCCE7094A0B49A2
:104B100009484FF4317302F09FFC0C4802F09CFCF2
:104B200004484FF4317102F08FFCBCE76C5704006D
:104B30001CF50400E866040020640400E465040039
:104B4000586704003C67040018670400706704009D
:104B500043B32DE9F04799469C785D78DB781C4497
:104B600099F8003004EB830407460E4690464C4407
:104B700075B14FF0000A14F8013B49F82340204674
:104B8000FCF772FF0AF1010A013055450444F2D1E5
:104B9000D9F8042009F1080341463846B446BDE877
:104BA000F04760476FF01500704700BF2DE9F04FE8
:104BB00093B09946049101920546002800F01182B5
:104BC00090F80280002900F05181CDF81480EB7834
:104BD0000093B8F1000F58D01C9B13F0010303930E
:104BE00053D095F800A04FEA8A030693009B05EB8B
:104BF0008A0A002B40F06381019B002B00F0788132
:104C00001C9B464603F0020B0AA800274246514669
:104C100040F0C6FB0AEB08030293009B002B72D006
:104C2000009BDFF8C88203F1FF3A029B9A445C1EA6
:104C300012E0A8498A4215D2039A002A00F0E780C0
:104C40000F2E00F22E8106F148026A44013602F866
:104C5000203CF6B2544550D014F8013F55F82320BB
:104C60004245E6D2BBF1000F3BD00F2EEBD94FF4FB
:104C70007F739949994A9A4802F0EEFB97484FF49E
:104C80007F7102F0E1FB2378DDE7009B53B9019BC4
:104C90001BB104994A4628469847049C204613B005
:104CA000BDE8F08F1C9B13F0020BF0D095F800A02C
:104CB0004FEA8A030693019B05EB8A0A002B00F05A
:104CC000B3811C9B03F001030393B8F1000F00F0C4
:104CD0007D811C9B590740F1798147460EA800262B
:104CE00094E70F2F00F2A88007F148026A440137C9
:104CF000544502F8103CFFB2AED1029B009A95F8E1
:104D0000028013440293BBF1000F95F801B02B7899
:104D1000039907930BEB0603DBB20CBF3A46002264
:104D2000002940F097801C9911F0040F14BF3946F8
:104D3000002195F803A06B70A970EA700699019B99
:104D40004A4628469847041EA8DB079A002362F3C8
:104D500007036BF30F2368F317436AF31F633946A6
:104D60002B60019F4A460EA8B847B0F10008C0F278
:104D70004B81DDE90432991A069B0197C91A009B01
:104D80000298C91A4A46B847071EC0F24481A04497
:104D90004744002E00F041810096AA461D9E019DC9
:104DA0004FF000081AE001210DF1270036F818B085
:104DB000A84700280744C0F20F81BBF1000F1FD0A5
:104DC00059464A462046A847002808F101080744EA
:104DD000C0F20281009B984500F01F810AAB4A4651
:104DE00013F808308DF827305AF82340002EDAD116
:104DF00001210DF12700A84700280744C0F2EC80EC
:104E00002046FCF731FE431C1FFA83FBD8E71C9AAF
:104E100052077FF51FAF0F2F7FF666AF40F2F533D5
:104E20002E4A30492E4802F017FB2C4840F2F5314B
:104E300002F00AFB237857E740F2FF33274A29495B
:104E4000274802F009FB254840F2FF3102F0FCFA46
:104E5000237849E700216CE7234921481F4AC423EE
:104E600002F0FAFA1D48C42102F0EEFA95F8028029
:104E70002C786F78CDF8148008EB84042C446FB143
:104E8000002601342046FCF7EFFD01360130BE421A
:104E90000444F6D195F80280CDF81480631B049386
:104EA00095E640F2F2330D4A0B490D4802F0D4FA70
:104EB0000A4840F2F23102F0C7FA2378C3E61C9B9D
:104EC00013F0020B3FF498AE019B8BB146460AA843
:104ED00000279BE61CF50400BC670400E86604009C
:104EE00020640400DC670400A46704006C5704001D
:104EF0000AF1FF3909EB0806B346049C1D9E002702
:104F000019F8013F55F82300FCF7AEFD01300444C9
:104F10002EB11E9BBB4284BF26F817000137D9452E
:104F2000EED11C9B03F00501009BC244002B3FF413
:104F3000B5AE009BDFF81881DFF81891013B0AEB52
:104F4000030B0AF1FF3A1C9B1AF8010F55F82000D9
:104F500003F00206404503F00103CDE900730F465C
:104F60001FD348451DD2019B83B1FCF77DFD1D9BDE
:104F70000130002B4DD01E9B009A934249D9009BD3
:104F80001D9A22F8130001330444009307B9013C31
:104F9000DA453FF483AE1AF8010F55F8200040457A
:104FA000DFD2002EF4D0FCF75FFD1D9B01305BB11A
:104FB0001E9B009A934207D9009B1D9A22F813006A
:104FC000013304440093E3E70444E1E70AEB0803F8
:104FD00000260293374623E60446204613B0BDE878
:104FE000F08F40F25F3317491748184A02F034FA3D
:104FF000164840F25F3102F027FA049B002B3FF481
:105000002BAF95F80280E0E54446204613B0BDE89A
:10501000F08F0444BAE73C4640E60021019B4A4633
:10502000084698473C4639E6049CB8F1000F03D087
:105030001C9B580700D5C2441C9B002703F00501A8
:1050400077E700BF8867040020640400E866040076
:105050006C5704001CF50400C2B1531E0C4A00B585
:1050600001F1FF3C01EB030E1CF8013F584003091E
:105070000001D35CC0B2434019091B01505CDBB294
:10508000F44580EA0300EFD15DF804FB704700BFF0
:10509000FC6704000CB400B5034683B005AADB68C6
:1050A0000192084640F20511984703B05DF804EB01
:1050B00002B07047032810B512D8BFF35B8F0B4BBB
:1050C00040011C58BFF35B8F54B1083B1C18646847
:1050D0000C601AB100F10C0119441160185810BD90
:1050E00008F0E8F809230360002010BD58200020D4
:1050F00010B40B4C430104EB401CE150CCF80420ED
:1051000052B11046D2683AB10C33234440F2051232
:105110005DF8044BFFF7BEBF5DF8044B704700BF5E
:10512000502000201649BFF35B8F400100F10803B7
:105130000B441A68BFF35B8F02B310B5BFF35B8FEC
:1051400002F1FF3C53E800EF964503D143E800C469
:10515000002CF7D1BFF35B8F02D1012A08D010BD1C
:10516000BFF35B8F1A68BFF35B8F002AE6D110BDD7
:10517000014400220023C1E9002310BD704700BF95
:105180005020002040B1436803F00303022B06D0F7
:10519000032B04D0012B05D06FF015007047036876
:1051A000002BF9D00023836018467047436803F052
:1051B0000303022B10B50446816011D0032B17D0D6
:1051C000012B09D00C490D480D4A452302F044F942
:1051D0000B48452102F038F900236360002010BD20
:1051E0000068002363600028F8D01CF00BFBF5E793
:1051F00000680023636010BDE465040020640400BF
:105200000C68040000207047014B1B68184700BF62
:10521000A404002030B48B680C685D1C64B14A683B
:105220009A4209DD013A9A4208BF00238D600CBF03
:10523000A354E05430BC70478D6030BC704700BF51
:1052400000B583B00B46002102460091024800F0F1
:10525000B3FF03B05DF804FB095200000FB400B5C2
:1052600085B006AB002153F8042B05480091039349
:1052700000F0A2FF05B05DF804EB04B0704700BF7A
:10528000095200000CB430B587B00AAB002553F8C2
:10529000042B0095CDE90230CDE90415044603A99D
:1052A000064800F089FFDDE904309842B8BF255474
:1052B00007B0BDE8304002B0704700BF1552000093
:1052C0002DE9F84F838B054600F1140A1807914623
:1052D00000F1E08103F0070007460246022992B27E
:1052E00020D0AE69002EC0F2CA80511F012940F2C1
:1052F0005381042A40F01B8223F00703D5F800B045
:105300009BB2AB83BBF1000F00F00B8243F0200394
:105310009BB2AB83002F00F0D2804FF00008C34651
:1053200044461DE0002A40F0DC802B68002B00F092
:10533000CB80002F40F064812B691C68002C00F0AA
:105340008081AB8B23F0070343F006039BB2062F4B
:10535000AB8300F0B1804FF0000B4FF006085E46C3
:10536000AA68002A00F09C80012743F00803AB8361
:10537000504618F07BF8002863D089F31188BFF3FA
:105380006F8F002F3BD1BBF1000F13D0A1465846C1
:10539000314650F8044BFFF709FF0746594633469C
:1053A00042462846002F40D0A346B847BBF1000F25
:1053B000EDD14C4614B1A9492846A0474FF020032F
:1053C000EFF3118483F31288BFF36F8F504618F008
:1053D0003FF8A146002843D0504618F055F8AB8B53
:1053E00023F008039BB2AB83D90623D523F0100327
:1053F0009BB2012103F00702AB8317466EE7A96851
:105400000029C0D00F68A14633464C684246284662
:10541000A04747B139463F684C6833464246284664
:10542000A047002FF6D14C46ADE7A346BBF1000FD5
:10543000ADD1BEE79A0648D523F020039BB20221E6
:10544000D8E7874A87488849B92302F005F85146CA
:10545000864802F001F88248B92101F0F5FF8CE797
:105460007F4A804882498E2301F0F6FF51468148E9
:1054700001F0F2FF7A488E2101F0E6FFACE723F05D
:105480000703002243F00103D5F800B0AB836A6044
:105490002A604FF0010847454FF000047FF460AFE9
:1054A0000027BBF1000F7FF460AF47463CB14FF0DF
:1054B000000BB8465F4658E70026002CF7D14C4653
:1054C00092E7EB8B002B37D04C46504617F0CEFFBF
:1054D000002800F0ED8084F31188BFF36F8FBDE8E2
:1054E000F88F022AEDD0012AEED12B68002BEBD0E9
:1054F000012F0ED04FF4B2735F4A6049594801F052
:10550000ABFF5D484FF4B27101F09EFF2B68002B9A
:1055100059D02B699C68002C65D0AB8B23F0070316
:1055200043F005039BB2052FAB83C5D04FF0000BB2
:105530004FF005085E4613E7022F19D040F25D13C5
:105540004D4A4F49474801F087FF4B4840F25D11F3
:1055500001F07AFFEB8B5BB14A494248464A4FF46F
:10556000AF7301F079FF44484FF4AF7101F06CFF65
:105570002B695C68002C00F0AF80AB8B23F0070335
:1055800043F004039BB2042FAB8395D04FF0000B84
:105590004FF004085E46E3E60021062AD5F800B085
:1055A0006960296000F0A58023F00702296892B2A3
:1055B000AA83002900F0D38042F020039BB2AB8382
:1055C00002F0070867E740F265132F4925482A4A89
:1055D00001F042FF284840F2651101F035FF2B69C8
:1055E0009C68002C99D129491E48234A4FF4B47372
:1055F00001F032FF20484FF4B47101F025FF8CE731
:105600004FF4AB731C4A2249164801F025FF1A4893
:105610004FF4AB7101F018FF2B68002B7FF48CAEB8
:1056200040F2571318490F48134A01F015FF12486A
:1056300040F2571101F008FF2B691C68002C7FF421
:1056400080AE124907480C4A4FF4AD7301F004FFD5
:1056500009484FF4AD7101F0F7FE72E68157000082
:10566000DC680400206404000C6904002469040060
:105670003C6904005469040030680400C4680400F4
:105680009C680400B4680400606804008468040036
:105690005468040001290CBF43F0100343F02003B9
:1056A000AB835046144617F0E1FE00287FF413AF99
:1056B0002C4A2D482D49B92301F0CEFE51462C48E5
:1056C00001F0CAFE2748B92101F0BEFE84F311881B
:1056D000BFF36F8FBDE8F88F26492348264A40F272
:1056E000611301F0B9FE244840F2611101F0ACFEF3
:1056F00043E7BBF1000F0AD0EA8B013292B2594660
:105700000968501C144682B20029F9D1EC8323F0B9
:105710000703EA8B43F00203AB83F2B14FF00208B8
:10572000B9E6002F3FF4CBAED8465C4618E640F20F
:105730001B13114A11490C4801F08EFE0E4840F22D
:105740001B1101F081FEAB8B03F0070847453FF4C6
:10575000B6AE4FF0000B5C4602E61A462CE7134645
:10576000884698E6DC680400206404000C690400A4
:10577000246904008468040030680400E4650400BF
:10578000F8B504460D4600F114064FF02003EFF380
:10579000118783F31288BFF36F8F304617F058FEDE
:1057A00050B1304617F070FEA5613A4620460121FF
:1057B000BDE8F840FFF784BD074A084808498E2332
:1057C00001F04AFE3146074801F046FE02488E21AC
:1057D00001F03AFEE5E700BFDC6804002064040045
:1057E0003C6904005469040088B138B50C4659B1CD
:1057F0000B684BB14B683BB10546202200213FF0BE
:105800000AFE2C61002038BD6FF0150038BD6FF026
:10581000150070472DE9F84F002800F0AE8088464B
:10582000002900F0AA8001F1040904464846FFF768
:10583000A9FC051E28D1D8F80830032B00F29D8062
:1058400004F114074FF02003EFF3118A83F3128859
:10585000BFF36F8F384617F0FBFD00285AD038464B
:1058600017F012FEE38BA68B4FF6FF72934206F001
:10587000070664D0022E5CD0062E1ED8DFE806F0A4
:1058800008451D1D08780800DADA2846BDE8F88FBB
:1058900063680022C8F80020002B64D0C3F80080A1
:1058A000C4F80480002E6BD12046524602213546B2
:1058B000FFF706FD2846BDE8F88F334A33493448E0
:1058C0004FF4E47301F0C8FD2F484FF4E47101F088
:1058D000BBFD6FF004054FF0000B384617F0C6FD16
:1058E00090B38AF31188BFF36F8FBBF1000FCCD058
:1058F00048460021FFF75AFC07460028C5D032462B
:10590000414620460023B847BFE76FF004054FF03B
:10591000000BE2E71F4A1E481F498E2301F09CFD41
:1059200039461E4801F098FD1A488E2101F08CFD81
:1059300095E70133E38335464FF0010BCDE76FF078
:105940000A054FF0000BC8E7124A11481449B92361
:1059500001F082FD3946134801F07EFD0D48B92162
:1059600001F072FDBDE7C4F80080C4F8048099E737
:105970006FF085054FF0000BAFE76FF0150584E77A
:1059800035464FF0000BA8E730680400C4680400F7
:1059900020640400DC6804003C69040054690400CD
:1059A0000C6904002469040070B5044600F1140574
:1059B0004FF02003EFF3118683F31288BFF36F8F4C
:1059C000284617F045FD002833D0284617F05CFD27
:1059D000A38B03F00703022B0FD0012B28460CBF2B
:1059E0006FF004046FF0850417F040FD90B186F36A
:1059F0001188BFF36F8F204670BDE38B43B3013B2B
:105A00009BB2E383002B35D02846022417F02EFDED
:105A10000028ECD11B4A1C481C49B92301F01CFD8D
:105A200029461B4801F018FD1648B92101F00CFD6C
:105A3000DDE7144A144817498E2301F00DFD29466D
:105A4000154801F009FD0F488E2101F0FDFCBCE76F
:105A500040F2EF13114A12490B4801F0FDFC0F48C8
:105A600040F2EF1101F0F0FCE38B013B9BB2E383CA
:105A7000002BC9D12046324602210224FFF720FC28
:105A8000204670BDDC680400206404000C6904003A
:105A9000246904003C69040054690400306804006F
:105AA0006C690400F8B5002871D00C4600296ED04E
:105AB000054600F114064FF02003EFF3118783F33E
:105AC0001288BFF36F8F304617F0C2FC002846D013
:105AD000304617F0D9FC2B68A98B43B19C4202D108
