:1000000000C30020299A0000CD940000FD99000053
:10001000FD990000FD990000FD990000000000001E
:100020000000000000000000000000000D9600002D
:10003000FD990000000000007D950000FD99000082
:100040009197000091970000919700009197000010
:100050009197000091970000919700009197000000
:1000600091970000919700009197000091970000F0
:1000700091970000919700009197000091970000E0
:1000800091970000919700009197000091970000D0
:1000900091970000919700009197000091970000C0
:1000A00091970000919700009197000091970000B0
:1000B00091970000919700009197000091970000A0
:1000C0009197000091970000919700009197000090
:1000D0009197000091970000919700009197000080
:1000E0009197000091970000919700009197000070
:1000F0009197000091970000919700009197000060
:1001000001F0FF01102A2BDB10F0070F08D010F8C8
:10011000013B013A8B422DD010F0070F42B3F6D1CC
:10012000F0B441EA012141EA014122F007047FF0E5
:1001300000070023F0E80256083C85EA010586EA3C
:10014000010685FA47F5A3FA87F586FA47F6A5FA78
:1001500087F68EB9EED1F0BC01F0FF0102F0070284
:1001600032B110F8013B013A83EA010313B1F8D12F
:100170000020704701387047002D06BF3546033810
:10018000073815F0010F07D1013015F4807F02BF49
:10019000013015F4C03F0130F0BC0138704700BF9A
:1001A00081F0004102E000BF83F0004330B54FEA28
:1001B00041044FEA430594EA050F08BF90EA020F95
:1001C0001FBF54EA000C55EA020C7FEA645C7FEA28
:1001D000655C00F0E2804FEA5454D4EB5555B8BF4B
:1001E0006D420CDD2C4480EA020281EA030382EABC
:1001F000000083EA010180EA020281EA0303362D4E
:1002000088BF30BD11F0004F4FEA01314FF4801C20
:100210004CEA113102D0404261EB410113F0004F32
:100220004FEA03334CEA133302D0524263EB4303E9
:1002300094EA050F00F0A780A4F10104D5F1200E87
:100240000DDB02FA0EFC22FA05F2801841F10001E2
:1002500003FA0EF2801843FA05F359410EE0A5F1B6
:1002600020050EF1200E012A03FA0EFC28BF4CF0E7
:10027000020C43FA05F3C01851EBE37101F000459D
:1002800007D54FF0000EDCF1000C7EEB00006EEBAA
:100290000101B1F5801F1BD3B1F5001F0CD3490834
:1002A0005FEA30004FEA3C0C04F101044FEA44528B
:1002B00012F5800F80F09A80BCF1004F08BF5FEA12
:1002C000500C50F1000041EB045141EA050130BDF2
:1002D0005FEA4C0C404141EB0101013C28BFB1F504
:1002E000801FE9D291F0000F04BF01460020B1FA4F
:1002F00081F308BF2033A3F10B03B3F120020CDA22
:100300000C3208DD02F1140CC2F10C0201FA0CF0FF
:1003100021FA02F10CE002F11402D8BFC2F1200C64
:1003200001FA02F120FA0CFCDCBF41EA0C0190401A
:10033000E41AA2BF01EB0451294330BD6FEA040463
:100340001F3C1CDA0C340EDC04F11404C4F120024E
:1003500020FA04F001FA02F340EA030021FA04F360
:1003600045EA030130BDC4F10C04C4F1200220FAB7
:1003700002F001FA04F340EA0300294630BD21FAF5
:1003800004F0294630BD94F0000F83F4801306BFBB
:1003900081F480110134013D4EE77FEA645C18BFAF
:1003A0007FEA655C29D094EA050F08BF90EA020F46
:1003B00005D054EA000C04BF1946104630BD91EA3E
:1003C000030F1EBF0021002030BD5FEA545C05D141
:1003D0004000494128BF41F0004130BD14F5800480
:1003E0003CBF01F5801130BD01F0004545F0FE41F4
:1003F00041F470014FF0000030BD7FEA645C1ABF29
:10040000194610467FEA655C1CBF0B46024650EA5F
:10041000013406BF52EA033591EA030F41F400218B
:1004200030BD00BF90F0000F04BF0021704730B511
:100430004FF4806404F132044FF000054FF00001E6
:1004400050E700BF90F0000F04BF0021704730B5A7
:100450004FF4806404F1320410F0004548BF40427C
:100460004FF000013EE700BF42004FEAE2014FEAD1
:1004700031014FEA02701FBF12F07F4393F07F4FAC
:1004800081F06051704732F07F4208BF704793F0AF
:100490007F4F04BF41F40021704730B54FF46074C2
:1004A00001F0004521F000411CE700BF50EA0102C5
:1004B00008BF704730B54FF000050AE050EA01026E
:1004C00008BF704730B511F0004502D5404261EBDE
:1004D00041014FF4806404F132045FEA915C3FF41F
:1004E000D8AE4FF003025FEADC0C18BF03325FEABC
:1004F000DC0C18BF033202EBDC02C2F1200300FA6D
:1005000003FC20FA02F001FA03FE40EA0E0021FA91
:1005100002F11444BDE600BF70B54FF0FF0C4CF47F
:10052000E06C1CEA11541DBF1CEA135594EA0C0F31
:1005300095EA0C0F00F0DEF82C4481EA030621EA6C
:100540004C5123EA4C5350EA013518BF52EA0335A7
:1005500041F4801143F4801338D0A0FB02CE4FF059
:100560000005E1FB02E506F00042E0FB03E54FF089
:100570000006E1FB03569CF0000F18BF4EF0010E81
:10058000A4F1FF04B6F5007F64F5407404D25FEA7D
:100590004E0E6D4146EB060642EAC62141EA555130
:1005A0004FEAC52040EA5E504FEACE2EB4F1FD0C72
:1005B00088BFBCF5E06F1ED8BEF1004F08BF5FEAF0
:1005C000500E50F1000041EB045170BD06F00046A2
:1005D00046EA010140EA020081EA0301B4EB5C044F
:1005E000C2BFD4EB0C0541EA045170BD41F4801147
:1005F0004FF0000E013C00F3AB8014F1360FDEBF6C
:10060000002001F0004170BDC4F10004203C35DA47
:100610000C341BDC04F11404C4F1200500FA05F3CA
:1006200020FA04F001FA05F240EA020001F000426B
:1006300021F0004110EBD37021FA04F642EB0601E1
:100640005EEA430E08BF20EAD37070BDC4F10C040B
:10065000C4F1200500FA04F320FA05F001FA04F2CF
:1006600040EA020001F0004110EBD37041F10001BB
:100670005EEA430E08BF20EAD37070BDC4F12005C6
:1006800000FA05F24EEA020E20FA04F301FA05F22E
:1006900043EA020321FA04F001F0004121FA04F2D6
:1006A00020EA020000EBD3705EEA430E08BF20EAA6
:1006B000D37070BD94F0000F0FD101F000464000E0
:1006C00041EB010111F4801F08BF013CF7D041EA62
:1006D000060195F0000F18BF704703F00046520066
:1006E00043EB030313F4801F08BF013DF7D043EA37
:1006F0000603704794EA0C0F0CEA135518BF95EAED
:100700000C0F0CD050EA410618BF52EA4306D1D173
:1007100081EA030101F000414FF0000070BD50EA92
:10072000410606BF1046194652EA430619D094EA1C
:100730000C0F02D150EA013613D195EA0C0F05D106
:1007400052EA03361CBF104619460AD181EA03015A
:1007500001F0004141F0FE4141F470014FF0000012
:1007600070BD41F0FE4141F4780170BD70B54FF0AD
:10077000FF0C4CF4E06C1CEA11541DBF1CEA13552D
:1007800094EA0C0F95EA0C0F00F0A7F8A4EB05040F
:1007900081EA030E52EA03354FEA013100F0888006
:1007A0004FEA03334FF0805545EA131343EA1263CF
:1007B0004FEA022245EA111545EA10654FEA002684
:1007C0000EF000419D4208BF964244F1FD0404F53D
:1007D000407402D25B084FEA3202B61A65EB030599
:1007E0005B084FEA32024FF480104FF4002CB6EB56
:1007F000020E75EB030E22BFB61A754640EA0C00D6
:100800005B084FEA3202B6EB020E75EB030E22BF15
:10081000B61A754640EA5C005B084FEA3202B6EB56
:10082000020E75EB030E22BFB61A754640EA9C0015
:100830005B084FEA3202B6EB020E75EB030E22BFE5
:10084000B61A754640EADC0055EA060E18D04FEAA3
:10085000051545EA16754FEA06164FEAC30343EA43
:1008600052734FEAC2025FEA1C1CC0D111F4801F10
:100870000BD141EA00014FF000004FF0004CB6E709
:1008800011F4801F04BF01430020B4F1FD0C88BFA8
:10089000BCF5E06F3FF6AFAEB5EB030C04BFB6EBB3
:1008A000020C5FEA500C50F1000041EB045170BDA6
:1008B0000EF0004E4EEA113114EB5C04C2BFD4EBD3
:1008C0000C0541EA045170BD41F480114FF0000E57
:1008D000013C90E645EA060E8DE60CEA135594EAD3
:1008E0000C0F08BF95EA0C0F3FF43BAF94EA0C0FD6
:1008F0000AD150EA01347FF434AF95EA0C0F7FF44B
:1009000025AF104619462CE795EA0C0F06D152EA9E
:1009100003353FF4FDAE1046194622E750EA410682
:1009200018BF52EA43067FF4C5AE50EA41047FF493
:100930000DAF52EA43057FF4EBAE12E74FEA4102F6
:1009400012F5001215D211D56FF47873B3EB625221
:1009500012D94FEAC12343F0004343EA505311F048
:10096000004F23FA02F018BF404270474FF00000DA
:10097000704750EA013005D111F0004008BF6FF018
:10098000004070474FF00000704700BF80F000400B
:1009900002E000BF81F0004142001FBF5FEA410357
:1009A00092EA030F7FEA226C7FEA236C6AD04FEA57
:1009B0001262D2EB1363C1BFD2184140484041409C
:1009C000B8BF5B42192B88BF704710F0004F40F44E
:1009D000000020F07F4018BF404211F0004F41F46A
:1009E000000121F07F4118BF494292EA030F3FD036
:1009F000A2F1010241FA03FC10EB0C00C3F1200349
:100A000001FA03F100F0004302D5494260EB4000D7
:100A1000B0F5000F13D3B0F1807F06D340084FEA42
:100A2000310102F10102FE2A51D2B1F1004F40EB37
:100A3000C25008BF20F0010040EA0300704749009F
:100A400040EB0000013A28BFB0F5000FEDD2B0FA3C
:100A500080FCACF1080CB2EB0C0200FA0CF0AABF5F
:100A600000EBC25052421843BCBFD04018437047FD
:100A700092F0000F81F4000106BF80F40000013203
:100A8000013BB5E74FEA41037FEA226C18BF7FEADA
:100A9000236C21D092EA030F04D092F0000F08BF1C
:100AA0000846704790EA010F1CBF0020704712F003
:100AB0007F4F04D1400028BF40F00040704712F142
:100AC00000723CBF00F50000704700F0004343F0A7
:100AD000FE4040F4000070477FEA226216BF0846DD
:100AE0007FEA23630146420206BF5FEA412390EAA0
:100AF000010F40F4800070474FF0000304E000BF96
:100B000010F0004348BF40425FEA000C08BF704746
:100B100043F0964301464FF000001CE050EA01020A
:100B200008BF70474FF000030AE000BF50EA01021F
:100B300008BF704711F0004302D5404261EB41010C
:100B40005FEA010C02BF84460146002043F0B64331
:100B500008BFA3F18053A3F50003BCFA8CF2083A56
:100B6000A3EBC25310DB01FA02FC634400FA02FC5F
:100B7000C2F12002BCF1004F20FA02F243EB020066
:100B800008BF20F00100704702F1200201FA02FCC8
:100B9000C2F1200250EA4C0021FA02F243EB0200BB
:100BA00008BF20EADC7070477BB972B90029BEBF6C
:100BB00000204FF0004106E008BF00281CBF6FF086
:100BC00000414FF0FF3000F057B8ADF1080C6DE96F
:100BD00004CE002909DB002B1ADB01F03FFBDDF816
:100BE00004E0DDE9022304B07047404261EB4101BB
:100BF000002B1BDB01F032FBDDF804E0DDE9022312
:100C000004B0404261EB4101524263EB4303704741
:100C1000524263EB430301F021FBDDF804E0DDE920
:100C2000022304B0404261EB41017047524263EB42
:100C3000430301F013FBDDF804E0DDE9022304B017
:100C4000524263EB4303704753B94AB9002908BFC6
:100C500000281CBF4FF0FF314FF0FF3000F00CB800
:100C6000ADF1080C6DE904CE01F0F8FADDF804E00E
:100C7000DDE9022304B07047704700BF2DE9F14F52
:100C800003F11C0402EB840C4FEA930B8A68CB68D7
:100C90000868496800F046F93CE9F00060406940A6
:100CA00072407B400BF1060E4EE083EA134480EA6B
:100CB000134582EA134746BA96EA3444604000F08E
:100CC0000F1684EA063420F00F1684EA161054BA80
:100CD00094EA0106724002F00F1486EA043622F00C
:100CE0000F1486EA14124CBA6540694001F00F14E3
:100CF00085EA043521F00F1485EA14115CBA6740C7
:100D00007B4003F00F1487EA043723F00F1487EABF
:100D1000141344BA44404DBA4D4056BA56405FBAD7
:100D20005F4087EA174886EA174B84EA17464FEA7E
:100D300038488BEA1B4485EA1B4788EA1B4580EA52
:100D40003440694072407B4000F0703400F08035E0
:100D500000F00F3040EA440040EAD50080EA9004F9
:100D600004F0332480EA8400604001F0703401F024
:100D7000803501F00F3141EA440141EAD50181EAB1
:100D8000910404F0332481EA8401614002F070345C
:100D900002F0803502F00F3242EA440242EAD50204
:100DA00082EA920404F0332482EA8402624003F06F
:100DB000703403F0803503F00F3343EA440343EA11
:100DC000D50383EA930404F0332483EA8403634065
:100DD000C943DB4381EA000483EA044686EA020150
:100DE00083EA014382EA334583EA14435C4084EAA0
:100DF00000077FEA040A8AEA024A8AEA010B87EAC4
:100E000011488AEA374A80EA060181EA1A418AEAE9
:100E1000030A04EA0A00454088EA040707EA0B00CF
:100E200041408AEA0B0608EA060084EA34428AEA6C
:100E30003A4602EA060358404540414087EA3743B4
:100E40008BEA3B4003EA000985EA090582EA0309C7
:100E5000464006EA0906714085EA010005EA354682
:100E6000464006EA314181EA304181EA364606EAE7
:100E7000304686EA354634400F4086EA010508EAE6
:100E8000050886EA3640024088EA020881EA3142D3
:100E900013405C4080EA020309EA030987EA090774
:100EA000674088EA040806EA0A0601EA0B018AEAB2
:100EB0000B0425408AEA3A44204045408BEA3B4BEC
:100EC00002EA0B02564084EA0B04234059406E406C
:100ED000694087EA364080EA384080EA060380EAC3
:100EE000104481EA134585EA344585EA17427D407E
:100EF00082EA354180EA05403CE9F0006040694003
:100F000072407B40BEF1010E3FF6CFAE20BC00F038
:100F10005FF828606960AA60EB60BDE8F08F00BFF1
:100F200000F000BA80EA101404F0F01480EA041013
:100F3000604081EA111404F0F01481EA0411614068
:100F400082EA121404F0F01482EA0412624083EA86
:100F5000131404F0F01483EA0413634080EA1024AD
:100F600004F47F4480EA0420604081EA112404F400
:100F70007F4481EA0421614082EA122404F47F4420
:100F800082EA0422624083EA132404F47F4483EA61
:100F90000423634081EA500404F0553480EA44009D
:100FA000614083EA520404F0553482EA440263400B
:100FB00082EA900404F0333480EA8400624083EAD9
:100FC000910404F0333481EA84016340704700BF28
:100FD00082EA900404F0333480EA8400624083EAB9
:100FE000910404F0333481EA8401634081EA5004BF
:100FF00004F0553480EA4400614083EA520404F06E
:10100000553482EA4402634080EA102404F47F44A9
:1010100080EA0420604081EA112404F47F4481EADC
:101020000421614082EA122404F47F4482EA04220B
:10103000624083EA132404F47F4483EA0423634078
:1010400080EA101404F0F01480EA0410604081EA91
:10105000111404F0F01481EA0411614082EA1214C0
:1010600004F0F01482EA0412624083EA131404F0DC
:10107000F01483EA04136340704700BF2DE9F14F79
:1010800094464FEA930B8A68CB6808684968FFF773
:1010900049FF0BF1060E33E083EA134480EA13455F
:1010A00082EA134746BA96EA3444604000F00F16CD
:1010B00084EA063420F00F1684EA161054BA94EA33
:1010C0000106724002F00F1486EA043622F00F1473
:1010D00086EA14124CBA6540694001F00F1485EAA3
:1010E000043521F00F1485EA14115CBA67407B4087
:1010F00003F00F1487EA043723F00F1487EA141360
:10110000BCE8F0006040694072407B4000F0E03491
:1011100000F0103500F00F3040EA540040EAC500FE
:1011200080EA900404F0332480EA8400604001F0F7
:10113000E03401F0103501F00F3141EA540141EA89
:10114000C50181EA910404F0332481EA84016140FD
:1011500002F0E03402F0103502F00F3242EA54029D
:1011600042EAC50282EA920404F0332482EA84024D
:10117000624003F0E03403F0103503F00F3343EA2C
:10118000540343EAC50383EA930404F0332483EA57
:101190008403634081EA324787EA134581EA354692
:1011A00090EA060484EA034B82EA1B4280EA044484
:1011B00084EA054483EA144A85EA14448BEA044B22
:1011C00084EA374481EA0B4181EA164104EA0A00C5
:1011D000454082EA04082BEA080041408AEA0B06EF
:1011E00002EA060084EA34438AEA3A4603EA06073A
:1011F00078404540414088EA38478BEA3B4007EA5F
:10120000000985EA090583EA0709464006EA090656
:10121000714085EA010005EA3546464006EA31415B
:1012200081EA304181EA364606EA304686EA3546AA
:10123000344008EA010886EA01052A4086EA364079
:1012400003405A4081EA31431F407C4080EA030753
:1012500009EA070988EA0908544088EA020806EA08
:101260000A0601EA0B018AEA0B0215408AEA3A42B1
:10127000104045408BEA3B4003405E4042401740EF
:1012800079404D404E40E443F64386EA18435D40C2
:1012900085EA054083EA134386EA034183EA38423C
:1012A00084EA114383EA04435FEA3343BEF1010E4B
:1012B0003FF6F2AE1ED4BCE8F000604069407240D8
:1012C0007B4020BCFFF784FE28606960AA60EB6069
:1012D000BDE8F08F2DE9E0414FF2F00280EA1031D5
:1012E000114080EA0130484041088208C3084FF0AD
:1012F000000E4FE700F0113001F0113102F0113211
:1013000003F0113340EA410040EA820040EAC300A2
:101310004FF2F00280EA1031114080EA013048407B
:10132000BDE8E0812DE9F04F02F11C0506460746B5
:1013300000EB850851F8040B043A46F8040BF9D188
:101340004FF0010CFFF7C6FF5FEA302080EA0C0087
:101350001ECF41404A4053405C401EC620004645D7
:1013600017D04FEA4C0C1CF4807F18BFACF1E50C91
:101370002C2DE7D03C2D06D1FFF7ACFF06CF414026
:101380004A4006C6100006CF41404A4006C610003B
:10139000D8E736E90F00FFF7C5FD043D86E80F00EA
:1013A000F7D1BDE8F08F00BF2DE9F00391E8F80315
:1013B000B2E802105B1854EB0C04B2E802104D4185
:1013C00056EB0C0692E806104F4158EB020859EB19
:1013D0000C0980E8F80380410130BDE8F003704754
:1013E0002DE9F00391E8F803B2E802105B1A74EB00
:1013F0000C04B2E802108D4176EB0C0692E8061060
:101400008F4178EB020879EB0C0980E8F803804102
:101410004042BDE8F00370472DE9F003524290E8E6
:101420003800B1E880031740DB1918EA020854EBD2
:10143000080419EA020955EB090538C090E878005C
:1014400091E8820311404B4117407C4118EA0208A1
:1014500055EB080519EA020956EB090678C08041E8
:101460000130BDE8F00370472DE9F003524290E8E7
:101470003800B1E880031740DB1B18EA020874EB60
:10148000080419EA020975EB090538C090E87800EC
:1014900091E8820311408B411740BC4118EA0208D1
:1014A00075EB080519EA020976EB090678C0804158
:1014B0004042BDE8F00370472DE9F00152424FF081
:1014C000030890E8300091E8C000A31B1340E41A21
:1014D000F618EB1B1340ED1AFF1830C0C0C1B8F16D
:1014E0000108EED104680E68A31B1340E41AF61835
:1014F00004600E60BDE8F001704700BF00B592ECDB
:10150000070AB1E8005E07EE101A56EC102A58ECF4
:10151000117AA9FB0250AAFB0234E9FB6603EBFB3C
:10152000624340EC145AAAFB0605ECFB6235E9FB6A
:101530006740E9FB6830EEFB6250AAFB0721EAFB3B
:101540006851EBFB680112EE108AEBFB6632ECFB94
:101550006652EAFB6802EBFB681243EC154AA9FBF2
:10156000084312EE908AE9FB6803EAFB6813EBFB81
:101570006823EBFB6754EEFB660413EE108AE9FB6D
:101580006814EAFB6824EBFB683406EE105A17EE89
:10159000109A99E8000CACFB076511EE909AECFBF1
:1015A0006915EEFB6925EAFB6935EBFB694510EE31
:1015B000109AEAFB6906EBFB691612EE109AECFB37
:1015C0006926EEFB6936EAFB6946EBFB695610EECD
:1015D000909AAAFB0987EBFB692712EE909AECFB25
:1015E0006937EEFB6947EAFB6957EBFB696711EE68
:1015F000109AEEFB6918EAFB6928EBFB693813EED9
:10160000109AECFB6948EEFB6958EAFB6968EBFB52
:10161000697800BD2DE9F04F07EE900AFFF76EFFE5
:1016200017EE909AA9EC054A89E8FF01BDE8F08F12
:1016300000B591E8805FA7FB0750A7FB0834E7FBE4
:101640006803E7FB694340EC145AA7FB0905E7FB75
:101650006A35E8FB6840E7FB6A30E7FB6B50A8FBA4
:101660000921E7FB6B51E7FB6C01E8FB6932E8FB02
:101670006A52E7FB6C02E7FB6E1243EC154AA8FBCB
:101680000A43E8FB6B03E7FB6E13E8FB6E23E9FB01
:101690006954E8FB6B04E8FB6C14E8FB6E24E9FB7F
:1016A0006E3406EE105AA9FB0A65E8FB6C15E9FBDF
:1016B0006C25E9FB6E35EAFB6E45E9FB6A06E9FB42
:1016C0006B16E9FB6C26EAFB6C36EAFB6E46EBFB1D
:1016D0006E56A9FB0B87EAFB6B27EAFB6C37EBFB2B
:1016E0006C47EBFB6E57ECFB6E67EAFB6A18EAFB94
:1016F0006B28EBFB6B38EBFB6C48ECFB6C58ECFBA2
:101700006E68EEFB6E7800BD2DE9F04F07EE900A93
:10171000FFF78EFF17EE909AA9EC054A89E8FF01C2
:10172000BDE8F08F2DE9F00791E8F807B2E8021064
:101730005B1854EB0C04B2E802104D4156EB0C065A
:10174000B2E802104F4158EB0C08B2E8021059EB16
:1017500001095AEB0C0A80E8F80780410130BDE826
:10176000F00770472DE9F00791E8F807B2E802109A
:101770005B1A74EB0C04B2E802108D4176EB0C0698
:10178000B2E802108F4178EB0C08B2E8021079EB56
:1017900001097AEB0C0A80E8F80780414042BDE875
:1017A000F00770472DE9F007524290E87800B1E861
:1017B00080071740DB1918EA020854EB080419EAFD
:1017C000020955EB09051AEA020A56EB0A0678C027
:1017D00090E87800B1E8800717407B4118EA0208DA
:1017E00054EB080419EA020955EB09051AEA020A42
:1017F00056EB0A0678C080410130BDE8F00770471B
:101800002DE9F007524290E87800B1E880071740D0
:10181000DB1B18EA020874EB080419EA020975EBED
:1018200009051AEA020A76EB0A0678C090E8780001
:10183000B1E880071740BB4118EA020874EB0804BE
:1018400019EA020975EB09051AEA020A76EB0A069B
:1018500078C080414042BDE8F00770472DE9F001B3
:1018600052424FF0040890E8300091E8C000A31BFA
:101870001340E41AF618EB1B1340ED1AFF1830C0A2
:10188000C0C1B8F10108EED1BDE8F001704700BF5A
:1018900000B592EC080AB1E8805707EE101A53EC35
:1018A000102A56EC114AA7FB0251A8FB020BE7FBDA
:1018B0006310E9FB62B041EC145AA8FB0351EAFB48
:1018C0006201E7FB64B5E7FB6605E8FB661505EE1C
:1018D00010BAA9FB03B6EAFB6316ECFB6356E8FB00
:1018E000640BE9FB641BEAFB645BECFB646B05EED9
:1018F000900AACFB023012EE104AEEFB6250E9FB9C
:101900006460EAFB64B0E7FB6431E8FB645112EE0B
:10191000904AE8FB6461E9FB64B1EAFB640106EE0E
:10192000103AA7FB043213EE104AE7FB6462E8FBAF
:1019300064B2E9FB6402EAFB641211EE904AE9FB2F
:101940006453EAFB646313EE904AE7FB64B3E8FB7D
:101950006403E9FB6413EAFB642306EE905A17EE76
:10196000109A99E8000610EE108AA9FB0854EAFBC9
:1019700068B412EE108AECFB6804EEFB6814E9FB15
:101980006824EAFB683410EE908AEEFB6865E9FB98
:1019900068B5EAFB680512EE908AECFB6815EEFB71
:1019A0006825E9FB6835EAFB684507EE106A11EE29
:1019B000108AAEFB0876E9FB6806EAFB681613EEB0
:1019C000108AECFB6826EEFB6836E9FB6846EAFB0A
:1019D000685611EE908AECFB68B7EEFB6807E9FBEE
:1019E0006817EAFB682713EE908AECFB6837EEFB7A
:1019F0006847E9FB6857EAFB686700BD2DE9F04FCF
:101A000007EE900AFFF744FF17EE908A07EE90BAB0
:101A1000A8EC084A88E8FF00BDE8F08F00B591E81F
:101A20009857A3FB0352A3FB0401E3FB6420E3FBF1
:101A3000671042EC145AA3FB0752E3FB6802E4FB75
:101A40006415E3FB6805E3FB6925A4FB07B6E3FB2C
:101A50006926E3FB6A56E4FB670BE4FB682BE3FBB8
:101A60006A5BE3FB6C6B40EC151AA4FB0810E4FB0B
:101A70006950E3FB6C60E3FB6EB0E7FB6721E4FBBE
:101A80006951E4FB6A61E3FB6EB1E4FB6E0106EEB3
:101A9000102AA7FB0832E4FB6A62E4FB6CB2E4FBA9
:101AA0006E02E7FB6E12E7FB6853E7FB6963E4FB3A
:101AB0006CB3E7FB6C03E7FB6E13E8FB6E2306EEEB
:101AC000905AA7FB0954E7FB6AB4E7FB6C04E8FBF8
:101AD0006C14E8FB6E24E9FB6E34E8FB6865E7FBF9
:101AE0006AB5E8FB6A05E8FB6C15E9FB6C25E9FBC8
:101AF0006E35EAFB6E4507EE106AA8FB0976E8FB37
:101B00006A06E9FB6A16E9FB6C26EAFB6C36EAFB1F
:101B10006E46ECFB6E56E8FB69B7E9FB6907E9FB2B
:101B20006A17EAFB6A27EAFB6C37ECFB6C47ECFBB5
:101B30006E57EEFB6E6700BD2DE9F04F07EE900A81
:101B4000FFF76CFF17EE908A07EE90BAA8EC084AF0
:101B500088E8FF00BDE8F08F30B44FF0000310F8C4
:101B6000014B11F8015B013A84EA050443EA0403DE
:101B7000F5D1A3F101034FEAD37030BC704700BF29
:101B80004FF0000310F8012B013943EA0203F9D1A9
:101B9000A3F101034FEAD370704700BF30B411F8CE
:101BA000014B12F8015B6C4000F8014B013BF6D190
:101BB00030BC70472DE9F00391E8F803B2E8021059
:101BC0005B1854EB0C04B2E802104D4156EB0C06C6
:101BD00092E806104F4158EB020859EB0C09894175
:101BE000013B74F1000475F1000576F1FF3677F1E1
:101BF000FF3778F1FF3879F1FF3951F1000113EB2C
:101C0000D17354F1000455F100054E414F4158EB9A
:101C1000010859EB010980E8F803BDE8F0037047BB
:101C20002DE9F00391E8F803B2E802105B1A74EBB7
:101C30000C04B2E802108D4176EB0C0692E8061017
:101C40008F4178EB020879EB0C09894113EBD173D2
:101C500054F1000455F100054E414F4158EB010885
:101C600059EB010980E8F803BDE8F003704700BFB5
:101C70002DE9F04F07EE900AFFF740FC5AEC359A39
:101C8000B9EB05097AEB060AB84171EB080172F16C
:101C9000000273F1000374F100046BEB0B0B4919A4
:101CA00072417B4154EB08044BF1000557EC146A78
:101CB00015EE108ABEEB0E0E59EB02095AEB030A21
:101CC000604169415EF1000E96419F4178EB040846
:101CD00079EB05097AF1000A70F1000B71F1000C43
:101CE0006EF1010E16EBDE7657F1000758F1000891
:101CF00059EB0E095AEB0E0A5BEB0E0B5CEB0E0C6C
:101D000017EE900A80E8C01FBDE8F08F2DE9F04F74
:101D100007EE900AFFF78CFCB0E700BF2DE9F00753
:101D200091E8F807B2E802105B1854EB0C04B2E833
:101D300002104D4156EB0C06B2E802104F4158EB31
:101D40000C08B2E8021059EB01095AEB0C0A894160
:101D5000B3F1FF3374F1FF3475F1FF3576F100060E
:101D600077F1000778F1000879F101097AF1FF3A7B
:101D700051F100015B184C414D4156F1000657F1FD
:101D8000000758F1000859EBD1795AEB010A80E8B5
:101D9000F807BDE8F00770472DE9F00791E8F8076C
:101DA000B2E802105B1A74EB0C04B2E802108D4129
:101DB00076EB0C06B2E802108F4178EB0C08B2E823
:101DC000021079EB01097AEB0C0A89415B184C414E
:101DD0004D4156F1000657F1000758F1000859EB44
:101DE000D1795AEB010A80E8F807BDE8F00770479F
:101DF00018EB040859EB05095AEB060A5BEB070BD5
:101E00005FF0000C4CF1000C18EB050859EB0609CB
:101E10005AEB070A5BEB070B50EB0C005FF0000C72
:101E200051EB0C0152EB0C0263414CF1000CB8EB8E
:101E3000070879F100097AF1000A7BEB040BA8414D
:101E4000B141A241B3416CF1000CBBEB050BB041B9
:101E5000B941AA41BB416CF1000C6FEAEC74B8EBDC
:101E6000040879EB04097AEB040A7BF1000B70F1AA
:101E7000000071F1000172EBD472A3416CF1000C0F
:101E800018EBEC7859EBEC795AEBEC7A5BF1000B40
:101E900050F1000451F1000552EBDC7653EBEC7786
:101EA0004CF1000C18EBEC7059EBEC715AEBEC7246
:101EB0005BF1000354F1000455F1000556EBDC76AC
:101EC00057EBEC77704700BF2DE9F04F07EE900A13
:101ED000FFF7DEFC59EC168A17EE10AAFFF788FF11
:101EE00059EC148A5BEC15AAFFF782FF17EE908A73
:101EF00088E8FF00BDE8F08F2DE9F04F07EE900A6B
:101F0000FFF78CFD59EC168A17EE10AAFFF770FF49
:101F100059EC148A5BEC15AAFFF76AFF17EE908A5A
:101F200088E8FF00BDE8F08F2DE9F04F90E8F00F52
:101F300000F140004FF0040E59E0F0B4826BC36B27
:101F400004680525242687593C444FEA724787EAEE
:101F5000F24787EA92273C4442684FEAF21787EA41
:101F6000B24787EAD2073C4440F8044B032D08BF30
:101F70006FF01B0687593A444FEA734787EAF347E5
:101F800087EA93273A4443684FEAF31787EAB3474F
:101F900087EAD3073A4440F8042B87593B444FEA79
:101FA000744787EAF44787EA94273B4444684FEA3A
:101FB000F41787EAB44787EAD4073B4440F8043B68
:101FC000013DC0D1A0F13C00076A3C444FEA724792
:101FD00087EAF24787EA92273C4402684FEAF21701
:101FE00087EAB24787EAD2073C44C463F0BC4FF0AB
:101FF000020288EA781C8CEAF84C0BEBBC1C8AEADB
:10200000090303EA080383EA0A039C4450F8043BEB
:102010009C4451F8043B9C44674444EA050B0BEA9A
:10202000060B04EA05034BEA030BE34484EAF423BA
:1020300083EA34530BEBB30B87EA771C8CEAF74C3B
:102040000AEBBC1C89EA080303EA070383EA0903D5
:102050009C4450F8043B9C4451F8043B9C44664427
:102060004BEA040A0AEA050A0BEA04034AEA030AED
:10207000E2448BEAFB2383EA3B530AEBB30A86EA8A
:10208000761C8CEAF64C09EBBC1C88EA070303EAD1
:10209000060383EA08039C4450F8043B9C4451F82F
:1020A000043B9C4465444AEA0B0909EA04090AEA2C
:1020B0000B0349EA0309E1448AEAFA2383EA3A5323
:1020C00009EBB30985EA751C8CEAF54C08EBBC1CDE
:1020D00087EA060303EA050383EA07039C4450F8F2
:1020E000043B9C4451F8043B9C44644449EA0A087C
:1020F00008EA0B0809EA0A0348EA0308E04489EA07
:10210000F92383EA395308EBB30884EA741C8CEA98
:10211000F44C07EBBC1C86EA050303EA040383EADC
:1021200006039C4450F8043B9C4451F8043B9C44F7
:10213000E34448EA090707EA0A0708EA090347EA05
:102140000307674488EAF82383EA385307EBB307A9
:102150008BEA7B1C8CEAFB4C06EBBC1C85EA040377
:1021600003EA0B0383EA05039C4450F8043B9C44B8
:1021700051F8043B9C44E24447EA080606EA090693
:1021800007EA080346EA0306664487EAF72383EA78
:10219000375306EBB3068AEA7A1C8CEAFA4C05EB55
:1021A000BC1C84EA0B0303EA0A0383EA04039C448D
:1021B00050F8043B9C4451F8043B9C44E14446EAFB
:1021C000070505EA080506EA070345EA030565442D
:1021D00086EAF62383EA365305EBB30589EA791CD0
:1021E0008CEAF94C04EBBC1C8BEA0A0303EA0903F2
:1021F00083EA0B039C4450F8043B9C4451F8043B95
:102200009C44E04445EA060404EA070405EA0603A0
:1022100044EA0304644485EAF52383EA355304EB76
:10222000B304013A7FF4E5AEA0F14000BEF1010E27
:102230007FF483AEA0F1400C9CE80F00001949190F
:102240009219DB19ACE80F009CE80F0040444944A8
:1022500052445B44ACE80F00BDE8F08F2DE9F04735
:1022600086468C460846089E154674461946002B3D
:1022700040F0C2808542B2FA82F245D94AB1C2F139
:10228000200300FA02FC2EFA03F3954043EA0C0CFB
:1022900094404FEA154EA8B2BCFBFEF8230C0EFB8F
:1022A00018CC08FB00F943EA0C43994528D9EB18F0
:1022B00008F1FF3704D2994502D9A8F102072B444F
:1022C000A3EB0903A4B2B3FBFEFC0EFB1C330CFB17
:1022D00000F044EA0344A04214D92C190CF1FF3356
:1022E00004D2A04202D9ACF102032C44241A43EADE
:1022F00007401EB1D440002334607360BDE8F0870E
:102300004746DDE76346F1E792BB431B01214FEAF5
:10231000154EAFB2B3FBFEFC200C0EFB1C330CFBC6
:1023200007F840EA0343984562D9EB180CF1FF30F7
:1023300004D2984502D9ACF102002B44A3EB080368
:10234000A4B2B3FBFEFC0EFB1C330CFB07F744EA04
:102350000344A7424ED92C190CF1FF3304D2A742F3
:1023600002D9ACF102032C44E41B43EA0040C0E76D
:10237000C2F1200320FA03F1954090402EFA03F3B6
:1023800003434FEA154EAFB2B1FBFEFC0EFB1C102F
:10239000190C0CFB07F841EA0041884504FA02F4E5
:1023A00022D969180CF1FF3004D2884502D9ACF16A
:1023B00002002944A1EB08019BB2B1FBFEFC0EFB1D
:1023C0001C110CFB07F743EA01439F420ED9EB189F
:1023D0000CF1FF3104D29F4202D9ACF102012B442F
:1023E000DB1B41EA004192E76046E3E76146F7E71D
:1023F0006046A3E76346B7E7834206D916B90021D2
:1024000008467BE7C6E900E0F9E7B3FA83F78FB93E
:10241000834201D3724508D8BEEB020460EB03038C
:1024200001209C461EB9002168E73846FAE7C6E954
:10243000004CF8E7C7F1200CBB4022FA0CF41C4317
:102440002EFA0CF120FA0CF3B84001434FEA14497C
:102450000EFA07F5B3FBF9F81FFA84FE09FB1830F2
:102460000B0C08FB0EFA43EA00439A4502FA07F206
:1024700040D9E31808F1FF3004D29A4502D9A8F1F7
:1024800002002344A3EB0A0389B2B3FBF9F809FB6A
:10249000183308FB0EFE41EA03418E452CD9611822
:1024A00008F1FF3304D28E4502D9A8F1020321447A
:1024B00043EA0040A0FB0298A1EB0E014145CE4645
:1024C000434602D306D14D4504D2B9EB020E68EB68
:1024D00004030138002EA6D0B5EB0E0261EB030118
:1024E00001FA0CFC22FA07F34CEA0303F940C6E9AF
:1024F000003198E74046C5E74346D9E710F8012B7D
:1025000011F8013B012A28BF9A42F7D0D01A704730
:10251000034613F8012B002AFBD1181A0138704723
:1025200010B54FF0FF331E484FF0FF3218F0D4FFC4
:102530001C4B0024BFF35B8F1A68BFF35B8F7AB12B
:102540000134042C03F12003F4D107F0A9FC172374
:1025500003604FF0FF34124819F040F8204610BDD8
:10256000BFF35B8F53E8001F013143E80012002ADC
:10257000F8D1BFF35B8F9FED087B0B4800EB441352
:1025800083ED007B63010C33184418F09DFF044871
:1025900019F024F8204610BD0000000000000000E3
:1025A00094030020D01A0020C81A00200000000068
:1025B000F0B5144683B062B1B0F89630C3F381131E
:1025C000022B054608D0012B18BF002029D003B0EC
:1025D000F0BD104603B0F0BD9FED2B7B836E13F072
:1025E00002038DED007B0E462BD000220023CDE9A7
:1025F0000023DDE9002305F16C0019F0E1F8054640
:10260000C0B30AF04FFE844228BF0446224631463A
:1026100028460AF0C5FC50B928460AF061FA20465F
:10262000D5E7002303B0BDE8F04005F00BBB07F091
:1026300037FC6923036028460AF052FA4FF0FF3056
:10264000C5E76A4604210AF0CDF8D5F89030B3B159
:10265000EB6E002BCDD1DDE90023D5F8901005F10C
:1026600088001AF031F8071EC3DA07F019FC7F4220
:102670000760E3E707F014FC0B230360DEE76FF06D
:102680001507F2E7AFF30080FFFFFFFFFFFFFFFF3B
:1026900070B59FED137B84B000248DED007B029418
:1026A0002346054609F0DCFE061E0DDB2B68009371
:1026B00028460D490022002309F0EEFF051EA8BFA1
:1026C000204608DB04B070BD07F0EAFB76420660E6
:1026D0004FF0FF30F6E707F0E3FB6D420560F7E7E8
:1026E00000800100000000003179000000000000BF
:1026F0002DE9F04F04462DED028B1E46B4F89630BE
:1027000083B0DF0715460E989DF8442040F12381E1
:102710008846002A5CD196B1C3F3C202022A08BFE0
:102720004FF0000958D1172856D9726806F1040AEB
:1027300042B9B26832B9F26822B9326912B96FF09F
:1027400078063FE0E26A002A57D094F99800B9F180
:10275000000F01D0002D67D008F0F0FA50B10368E7
:10276000BFF35B8FDB68BFF35B8FDB0758BF6FF096
:10277000720627D59FED808B94F9980008F0DEFA59
:102780008DED008BB4F8962094F89430C2F3C20219
:1027900029460AF0ABFB074600285CD094F8941059
:1027A00044610AF0E7F985421ED80F9BA364109B91
:1027B0002360B4F89430112B44D06FF07A06384679
:1027C0000AF08EF9304603B0BDEC028BBDE8F08F05
:1027D0000028A0D1002E46D06FF01506304603B079
:1027E000BDEC028BBDE8F08FB4F89630C3F38113D3
:1027F000022B00F0B3800546D7E7226B002AA4D154
:10280000626B002AA1D1A26B002A9ED11A059CD42A
:10281000504608F083FF09F0AFF840B284F8980002
:10282000B9F1000F96D197E7D9F80C10002993D091
:10283000D9F8082002EBC1015368083291421D44C7
:10284000FAD189E7B4F89630C3F3C203022B29D03A
:102850006FF01506B3E76FF06806304603B0BDECC5
:10286000028BBDE8F08F00293FF469AFC3F3C202C9
:10287000022AB1D1D1E900600EB1894653E7E26A7C
:1028800004F1280604F12C0A32B194F99800894623
:10289000002D7FF461AFC7E7226B8946002A3FF421
:1028A0004AAFABE75346002239462046B6F802A0AD
:1028B00009F0B0FD061E82DB204609F05DFD83466F
:1028C000C0B1BBF1000F53DB38460AF04BFBB4F844
:1028D0009630C3F3C203022B37D0384607F0BAFF55
:1028E000061EFFF66CAF2E46304603B0BDEC028BE1
:1028F000BDE8F08FE18B524638460BF075FC8346FD
:102900000028DED1AA46B9F1000F2AD0D9F80C3040
:102910003BB9D9E7BAEB080AD6D0D9F80C305B45F9
:10292000D2D9D9F8083003EBCB0253F83B105368E7
:10293000534528BF53461A46384698460AF020FDAC
:10294000061E0BF1010BE5DA39E794F894103846CE
:102950000AF0D0FEC1E76FF0080633E76FF00B0610
:1029600030E72A46414638460AF00AFD8346A8E782
:102970005E4624E7AFF30080008000000000000006
:102980002DE9F047054686B09946002428230F46D6
:10299000CDE9024390460AF0E5FA02A928460AF07A
:1029A0000DFD002800F0D08083793A2B064666D0D2
:1029B000112B61D0062B5CD0AC68002C00F0B580E8
:1029C0004FF0000CA38924689C44002CFAD195F8A0
:1029D0002430A8699FED5E7B022202FB03CC8DEDC3
:1029E000007B0CF104013A230AF080FA0446002827
:1029F00000F0A78095F82420296A0AF0C1FCB0F104
:102A0000000A2FDBA3689B68A36295F82C20A96AB3
:102A100020460AF0B5FCB0F1000A23DBA06895F867
:102A20002C10083007F0AEFBA06850F8083F236276
:102A300095F8241007F0A6FB95F82C3084F8243084
:102A400095F8243084F82C30337EFF2B06F11801E2
:102A500063D006F1080220460AF00CFE064620B3B9
:102A60006FF0040A20460AF03BF8504606B0BDE875
:102A7000F0874FF03C0CAAE74FF0300CA7E7039922
:102A800004940423284605930AF072FA04A9284600
:102A90000AF094FC002845D090F90130A34241DAB5
:102AA00028460AF05FFAB37982E704904FF0040AEF
:102AB00004A92046CDF814A00AF080FC0028CFD04D
:102AC00080F8018007708670C67004A920460AF05D
:102AD0009BFC0028C4D1042F29D052460146204631
:102AE0000AF052FA824620460AF026F8BAF1000FA0
:102AF000B8D10246294620460AF05CFA0028B1D136
:102B000020460AF02FFA3A2120460AF0F3FD20462B
:102B100007F0A0FE0028A5DBA7E7A06908F09AFD52
:102B2000014696E76FF0150A9FE7A4464FE799FA2A
:102B300089F33A4604A9204604930AF021FC824610
:102B4000D1E76FF00B0A90E76FF0040A8DE700BF42
:102B5000008000000000000000B589B09FED0E7BF2
:102B600006ABCDE9063302AA8023CDE90222009309
:102B70000B4A02AB8DED047B0BF0C0FB002805DB9C
:102B80004FF48042002302A818F09AFE09B05DF8C5
:102B900004FB00BFAFF30080000000000100000054
:102BA00031E400000000000003292AD8042A9446DA
:102BB00025D9072A25D170B50446D3E90020264B34
:102BC000C117C2FB0301012871F1000320DB234B75
:102BD000C01841F100011EA3D3E90023FDF7E4FF73
:102BE00080B2022822691DD004282AD008282AD0C1
:102BF000102808BF032316D06FF0150070BD022AFD
:102C000002D86FF0850070471A4661460CF0D4BCBC
:102C1000134BC01861F100010DA3D3E90023FDF7A8
:102C2000C3FFDDE7002350680E49056951F8231002
:102C300011612046AC461B01BDE8704030222321C3
:102C400060470123EFE70223EDE700BFAFF3008009
:102C50003AA395000000000040420F009DD14A00B9
:102C6000632EB5FF00000020474BD3F804239007E4
:102C700002D5D3F804218AB94FF02003EFF3118273
:102C800083F31288BFF36F8F3F4BD3F80413C9034C
:102C90000ED482F31188BFF36F8F70473B4A002137
:102CA000C3F80411D3F80431136801331360E3E768
:102CB000F0B53749BFF35B8F83B051E8000F20F0C8
:102CC000010441E80045002DF7D1BFF35B8F40B907
:102CD000D3F840312BB982F31188BFF36F8F03B063
:102CE000F0BD29480023C0F84031D0F8403182F3CC
:102CF0001188BFF36F8F254B1B68190A1B06BFF3A2
:102D00005F8FD0F80425D31841F10001B2F5801F80
:102D10000AD2204AD2E90045A34271EB050203D250
:102D200013F1807341F100014FF02002EFF3118C99
:102D300082F31288BFF36F8F174AD2E90245A3428C
:102D4000A94118D39FED0E7B0F4E116853680020E8
:102D50004FF4803782ED027B1060C6F848738CF325
:102D60001188BFF36F8F0029B9D0009322462B46FC
:102D7000884703B0F0BD8CF31188BFF36F8FAEE7C7
:102D8000FFFFFFFFFFFFFFFF00100140C44D0020C9
:102D9000BC4D0020181D0020001D00200000000078
:102DA0000A7B02B97047F0B50B4691F800C049792B
:102DB0000CF1010C8909ACEB020C01299BB0864691
:102DC00000EB0C0411D0022930D13D4D501C0523DD
:102DD0002880AB7021464E23E81C3CF07FF9284642
:102DE0001BB0BDE8F0400EF051BE9FED337B8DED82
:102DF000007B8DED027B4FF080501EF80C60D0F808
:102E0000A810D0F8A400B4F80570049089B200901E
:102E1000D4F80100ADF80C7004AD0591ADF80410C4
:102E200002902EB1022E01D1112A1DD01BB0F0BD8F
:102E30004B2AFBD12146DC799879DB7A8DF8153065
:102E400004F0030340EA03204F23ADF81300ADF86C
:102E500010300DF1160002238DF812303CF030F9DD
:102E600028460EF013FEE1E75EF80C20CDF81620A0
:102E70006268CDF81A20227C8DF82620DA79A668BF
:102E8000E168DC7A9B79CDF8221002F0030243EA74
:102E90000223152104222846CDF81E60ADF8133018
:102EA0008DF81540ADF810108DF812200EF0EEFDE3
:102EB000BCE700BFAFF3008000000000000000008E
:102EC000A44F0020000000002DE9F0419FED167B8B
:102ED0008EB0DFF86880009006AC0023CDE9024395
:102EE000054643460E4617462021114A20468DEDE1
:102EF000047B02F025F802AA0E49204605F074FD75
:102F000043460D4A00952021204602F019F83A4622
:102F10003146204605F032FDB0FA80F040090EB08F
:102F2000BDE8F081AFF30080FFFFFFFFFEFFFFFF72
:102F3000D40304001D4A0100DC030400D003040094
:102F40002DE9F0412DED028B044690B000230022C4
:102F50006846CDE90023CD8814F0F4FA94F8D83708
:102F6000B3BB9FED998A94F82060EEB994F8D70727
:102F700094F8D827EBB20130991EC0B2033BCDB212
:102F800084F8D707DBB2A2B92D2B0DD80022294631
:102F900004A814F049FA9DF8103003F00707012F38
:102FA00000F08E80032F1AD010B0BDEC028BBDE86C
:102FB000F08194F8D6278242E6D92D2B40F2E580A5
:102FC000304614F041FF10B0BDEC028BBDE8F0813B
:102FD00014F078FA08EE100AB8EEC88AC3E794F83D
:102FE000A827C3F30213C2F302129A42DCD1072DC1
:102FF000DAD19DF8110004F2AA7112F075FC051ED9
:10300000D2DB9DF91030002BC0F2D2809DF8163033
:10301000D4F8E007D4F8E417DDF8126004F5B262E2
:103020000027D2ED007A63F30707DDE9003298420A
:1030300071EB020C28EE278A80F0B080181A62EB40
:103040000101FDF76BFD08EE900A39463046FDF7A9
:1030500065FDB7EE007A37EE487A07EE900A67EE24
:10306000877AF6EE006A78EEE78A68EEA67A17EEBF
:10307000900AFDF7F9F950A3D3E90023FDF74CFAC4
:103080004FA3D3E90023FDF747FA504B0022FDF789
:1030900043FAFDF753FC05EB450323449DF811105B
:1030A000D4F8F42783F83418D4F8F017A3F83508C7
:1030B00094F8E93784F8E837521AC4F8EC2773E734
:1030C00094F8D887B8F1000F7FF46EAFC3F30216FF
:1030D00094F8F837B342FFF467AFB31C9D427FF416
:1030E00063AF0DF1120194F89605324612F0FCFB25
:1030F000011EFFF659AFB4F88C35009D019A03F517
:10310000AF7003F5C87301FB00302B0A43EA02637A
:1031100003EB0020B4F88E355B1B20F001054FEA6D
:10312000052C62EB420213EB0C0342EB106284F8B5
:10313000AE270392721E521AC4F8AA370293B2FA4B
:1031400082F23301520943F0030343EAC21384F8C5
:10315000A837B4F8963584F8A9373A46414609208D
:1031600014F02AF9424604F5F561072014F0DCF862
:10317000284614F03FFD384614F04CFD94F8A8376B
:1031800068F3061384F8A8370EE704A832462946E8
:1031900014F04AF9304614F057FEFCE6181A02F50E
:1031A000807262EB0101FDF7B9FC08EE900A4CE772
:1031B000204612F055FC29E7BC058A4421DDB141C7
:1031C000FA48CE3B1835B13D0000000000005940E0
:1031D00090F82020CB88002A40F0AB802DE9F04FFA
:1031E0002DED048B90F8332891B0044622B111B034
:1031F000BDEC048BBDE8F08FDDB2002200236846F1
:10320000CDE9002314F09EF994F8D70794F8D82755
:103210000130AE1EC0B2EB1EF6B284F8D707DBB2A7
:1032200062B194F820504DB994F8D627824205D95E
:103230002D2B7FD9284614F007FED8E72D2BD6D8A2
:1032400004AF00223146384614F0EEF89DF8102005
:1032500002F00703022B00F04881042B74D0002BEE
:10326000C5D194F8D837002BC1D194F80978002F34
:10327000BDD194F8F837C2F30215AB42B7D3AB1CFB
:103280009E42B4D10DF1120194F896052A4612F02F
:103290002BFB011EABDB05F1FF3C681A2B01ACEBED
:1032A0000105D5F1000C4CEB050C43F0020343EA99
:1032B000CC13009AB4F88C6584F8A837019B120AE5
:1032C00042EA036206F5AF75B4F8963584F8A9377B
:1032D000013805FB006006F5C87301FB0533FA30C1
:1032E00002EB032514F006FA06F24C4080B214F00B
:1032F00051FE39460420012214F05EF83A4604F5E6
:10330000F561022014F010F825F0010014F072FCB1
:10331000032014F07FFCDDE9000104F50063C3E93C
:1033200000019DF8112084F80828012384F8093849
:103330005DE7704704AF38462A46314614F074F80A
:10334000284614F081FD81E7204612F0A5FB94F891
:10335000D837002B7FF44BAF9DF810209DF811500B
:10336000C2F3021194F80828AA427FF440AF94F8FF
:103370000928002A3FF43BAF00293FF438AF94F806
:10338000F8278A42FFF433AF0B2201FB02F202322C
:1033900096427FF42CAF94F896653A4604E00133E8
:1033A000D8B28842BFF423AF9078B04202F10B024A
:1033B000F5D10B2202FB03F3DA1CB9184FF0000819
:1033C0004FF00009CDE90289D4F8E067DDF800800C
:1033D000B858DDF804900A79D4F8E417029046450D
:1033E0008DF80C2071EB0900DDE902BC01D309F571
:1033F0008079D4F80008D4F804A8B8EB060869EB83
:103400000109B0427AEB010E80F0A880361A61EB18
:103410000A0A0833F918F85894F930780B79CDF87E
:103420000CA0042F02908DF80C3040DC6146584609
:10343000FDF774FB494609EE100A4046FDF76EFBA6
:10344000514608EE900A3046FDF768FB08EE100A78
:10345000DDE90201FDF762FB06EE900A39EE287AFB
:1034600066EE887A59EE287A07EB4703234437EE55
:10347000087A83F8345837EE267A03F50365C7EEE9
:10348000877A17EE900AFCF7EFFF40A3D3E90023F9
:10349000FDF742F83FA3D3E90023FDF73DF83A4B8F
:1034A0000022FDF739F8FDF749FAA5F80500D4F830
:1034B000F427D4F8F00794F8323894F8E91784F830
:1034C000E817121A042BC4F8EC274DD905F0B6F909
:1034D00094F831389A1D0133B0FBF2F101FB120070
:1034E00084F8300884F8313881E694F8D837002B16
:1034F0003FF47DAE94F80938002B7FF478AE022EAD
:103500007FF475AE94F8A817C2F30213C1F3021248
:103510009A427FF46CAE9DF8110004F2AA7112F089
:10352000E3F90028FFF663AE9DF91030002B25DB90
:10353000204612F0EDF9DDE9006743B203F581732F
:1035400044FA80F09DF8112080F80A2804EBC303A8
:10355000C3E90067204612F0DFF948E6361A01F5A4
:10356000807161EB0A0A54E70133DBB2052B84F862
:103570003238ABD0013784F8307838E6204612F084
:103580008BFAD5E7AFF3008000005940BC058A44B0
:1035900021DDB141FA48CE3B1835B13D00000000B5
:1035A00010B58C1882B019F021FA43014A011B1A98
:1035B00042EAD06262EB0102920042EA93729B00FF
:1035C0001B1841EB0200C00040EA5370C3F31033F4
:1035D00043EA4043E41A002C16DD4FF4004340F266
:1035E000E7300021E4FB03014FF47A720023FDF77A
:1035F0002BFB9FED097B02460B4609488DED007BB6
:1036000019F0A8FA02B010BD064B01221A7002B0E0
:10361000BDE8104006F0D4BE00000000000000002D
:10362000E0020020D68100202DE9F04385B09846C5
:103630000F9B83739FED1C7B109B0373073222F05B
:10364000070900F158030446C0E91633002701F1C9
:103650004003042209F1400642738760C7730D4698
:1036600084ED067B0E444A46AA2118463BF063FDD2
:103670000E9BC4E91A0902930D9B01930C9B0093C6
:103680002946434627673246204605F0CFFF084BC0
:1036900067659B6803B15B6F6367304605B0BDE843
:1036A000F08300BFAFF300800000000000000000C6
:1036B000F07E0020000000002DE9F04784B098461D
:1036C0000F9B83739FED2A7B109B0373073200F1DE
:1036D00058030446C0E9163322F00705002701F11C
:1036E0004003042242730E468760C7732A4684ED66
:1036F000067BAA211846DDE912A93BF01CFD0E9BB2
:10370000A06602930D9B019305F140020C9B009370
:1037100032444346E56627673146204605F086FF7A
:10372000154B67659B6803B15B6F6367B9F1FF3F3A
:1037300008BFBAF1FF3F03D1204604B0BDE8F087CF
:1037400059EA0A0306D1204618F05EFC204604B070
:10375000BDE8F08704F11800084952464B4619F0BD
:1037600041F8204604B0BDE8F08700BFAFF3008009
:103770000000000000000000F07E00205139000031
:103780002DE9F04F2DED028B9FED4D8B4E4E85B008
:10379000054600F1D00900F1D8084FF02003EFF3FF
:1037A000118A83F31288BFF36F8FD5F8C840002CBD
:1037B00060D0D5F8CC202368C5F8C830944208BF43
:1037C000C5F8CC30D5F8E030626843F00203C5F8A4
:1037D000E030E36823F0040343F00103E3608AF37D
:1037E0001188BFF36F8F204690474FF02003EFF30F
:1037F000118A83F31288BFF36F8FE368990723F070
:1038000001020FD4E260D5F8E03023F00203C5F8DE
:10381000E0308AF31188BFF36F8FDB05BDD418F059
:10382000ADFDBAE7306823F00303E3600028EAD077
:10383000436807689C424FF0000B014608D0002FF8
:10384000E1D038468B4643683F689C420146F6D13A
:1038500003687168BBF1000F2DD08842CBF80030AF
:1038600008BFC6F804B0002340F8083B17F0FEFF7D
:103870005946E4E7D5F8E03023F004025807C5F8CC
:10388000E02009D400238DED008B02934A46514677
:103890000E4818F0DDFE80E700220121404618F0B6
:1038A000A1FE0028EED000220121404618F09AFE29
:1038B0000028F1D1E6E788423360D4D17360D2E7C3
:1038C000FFFFFFFFFFFFFFFF50220020287F0020A7
:1038D00030B5044689B00020C4F8C800C4F8CC0054
:1038E0000C9D04F1D000C4E9340004F1D800C4E90F
:1038F00036000DB32879002840F2011008BF0120DE
:103900009FED0F7BC4F8E0000020CDE90100039398
:1039100004908DED067B0C4B00942046FFF7CCFE07
:1039200025B1296811B1204617F04AFD204609B09B
:10393000BDE8304017F048BD0120E1E7AFF300805B
:10394000FFFFFFFFFFFFFFFF8137000000000000C7
:1039500038B54FF02003EFF3118483F31288BFF3DF
:103960006F8F10F80B3C13F0280217D150F8101C81
:1039700069B19FED0D7B50F8145C50F8181C29605C
:103980004D6000ED067B03F0FD0340F8102C23F0A2
:10399000140300F80B3C183818F020FA84F311884F
:1039A000BFF36F8F38BD00BF0000000000000000B3
:1039B0004FF02003EFF3118183F31288BFF36F8F71
:1039C000D0E9003213605A60437B9FED077B23F000
:1039D0000203002280ED007B4373826081F3118833
:1039E000BFF36F8F704700BF0000000000000000B1
:1039F00003464FF02001EFF3118281F31288BFF3E9
:103A00006F8F0068834213D068B1D0E900319FED19
:103A10000C7B0B605960437B80ED007B23F002033D
:103A200000214373816082F31188BFF36F8F704769
:103A3000002082F31188BFF36F8F7047AFF30080CF
:103A400000000000000000004FF02003EFF31181A0
:103A500083F31288BFF36F8FD0E9003213605A608E
:103A6000437B9FED097B23F00203002280ED007B66
:103A70004373826081F31188BFF36F8F183018F0A1
:103A800031BF00BFAFF30080000000000000000065
:103A90002DE9F0472DED028B054618F043FA4FF063
:103AA0002003EFF3118783F31288BFF36F8FDFF8E2
:103AB000D890DFF8D8A0D9F80040CAF800504C459B
:103AC00050D09FED2F8BDFF8C8803A46D8E90031FF
:103AD00020464FEAE57C174644B3D4E90462B54278
:103AE0007CEB020E43DBF31841EBE67184ED048BB3
:103AF000C8E9003118F02AFE87F31188BFF36F8FF1
:103B0000A36898474FF02003EFF3118783F31288DF
:103B1000BFF36F8FDAF80050D9F80040AD1B4C4569
:103B2000CAF800503A46D1D14FEAE57CD8F80030C7
:103B30005B19C8F80030D8F804304FF0000443EBAC
:103B40000C03C8F80430CAF8004018F01BFE2146E8
:103B50000CF0FCFD87F31188BFF36F8FBDEC028B77
:103B6000BDE8F087DFF828804FEAE57CDEE74C45CA
:103B7000DCD0761B62EB0C0226616261D6E700BFE7
:103B800000000000000000000C0200203C7F00202C
:103B900058220020000000002DE9F84F00250446BF
:103BA00000F1240B058474300E4628F05FF90C23D5
:103BB000A4F878304FF0AF63E36723465A4A84F89D
:103BC0007B5043F8802FC4F888302346574A43F887
:103BD0008C2FC4F894302346554A43F8982FC4F8E4
:103BE000A0302346534A43F8A42F3146C4F8AC30E2
:103BF000C4E92D55C4E9335584F8B050C4F8BC501D
:103C000084F8C950A4F8CA50C4F8D450A4F8D850C5
:103C100004F1F00021F08EFF9FED417BF0224FF682
:103C2000FE73C4E949234FF6FF7384ED4C7BA4F87F
:103C30002C3104F14C0A31465846C4E96F5529F03D
:103C400001F93146504629F0FDF82946082204F1D1
:103C500018003BF070FA2946082204F1DC003BF022
:103C60006AFA584629F060F9504629F05DF90127B3
:103C7000122204F5A679294604F59C703BF05BFA04
:103C80003946484621F0B8FE2B49484621F0E2F873
:103C9000204621F0C5FE04F5B27021F0C1FE04F506
:103CA000BE7804F5B67021F031F8404621F0B8FE38
:103CB000294604F5C27021F061F894F88E2142F093
:103CC000800284F88E211D4A2946C2F8048104F539
:103CD000CA7014223BF02FFA4FF6FF7384F8943128
:103CE000322384F895312946142284F8A25184F8AD
:103CF000A37104F5D4703BF01EFA33234FF0FF326A
:103D000020460F4984F8A82184F8A93184F8B651D7
:103D100084F8B77125F018FD2046BDE8F88F00BF84
:103D20000000000000000000CDAC020029A5020048
:103D300051B002008596020056370020483300201B
:103D400030070400000000009FED177B034680ED64
:103D5000007B80ED027B09BB9FED157B83ED047B2F
:103D60009FED157B83ED067B9FED157B83ED087B37
:103D70009FED157B83ED0A7B9FED157B83ED0C7B1F
:103D80009FED157B83ED0E7B9FED157B83ED107B07
:103D90009FED157B084683ED127B70476FF0740032
:103DA000704700BFAFF3008000000000000000007B
:103DB00008C9BCF367E6096A3BA7CA8485AE67BB3E
:103DC0002BF894FE72F36E3CF1361D5F3AF54FA569
:103DD000D182E6AD7F520E511F6C3E2B8C68059B45
:103DE0006BBD41FBABD9831F79217E1319CDE05BFD
:103DF0002DE9F0419FEDB27BB4B08DED027B9FEDDC
:103E0000B27B8DED047B9FEDB27B8DED067B9FED4C
:103E1000B27B00268DED087B144605463392329620
:103E2000002A77D180238DF88830CDF889204FF093
:103E30003A0C01200DF18D020E2302AF22A90026BB
:103E4000022B166021D0032B56601ED0042B9660E7
:103E50001BD0052BD66018D0062B166115D0072B6A
:103E6000566112D0082B96610FD0092BD6610CD069
:103E70000A2B166209D00B2B566206D00C2B9662C9
:103E800003D00E2BD66208BF1663BCEB830F00EB8A
:103E9000830012D0431C34AA024400263B2B02F8B4
:103EA000486C0AD034AA1344392803F8486C00F14E
:103EB00002031CBF9B1803F8486C630F8DF8C330D6
:103EC000630D8DF8C430630B8DF8C5303846630937
:103ED000E4008DF8C6308DF8C7403AF0C7F8DDE948
:103EE0000201DDE9042306BA14BA18BADDE9062393
:103EF00009BA12BA69602A6119BADDE9082312BA4F
:103F00001BBA2E60AC60E8606961AA61EB6134B0F5
:103F1000BDE8F08102AF384688463AF04BF8241AE3
:103F2000034608EB0401002800F0BA80421E022A72
:103F300045D958F8042022928208012A3AD04868CC
:103F40002390022A36D088682490032A32D0C86889
:103F50002590042A2ED008692690052A2AD048697F
:103F60002790062A26D088692890072A22D0C86977
:103F70002990082A1ED0086A2A90092A1AD0486A6D
:103F80002B900A2A16D0886A2C900B2A12D0C86A65
:103F90002D900C2A0ED0086B2E900D2A0AD0486B5B
:103FA0002F900E2A06D00F2A886B18BFCA6B30904C
:103FB00018BF319223F00306B342314414D034AA1F
:103FC0003244087802F8480C721C93420CD934A889
:103FD00002440236487802F8480CB34204D934AAA5
:103FE00016448A7806F8482C34AA1A44581C8021B2
:103FF0003828329302F8481C5CD93F282DD834AABF
:10400000104400213E2B00F8481C03F1020224D08A
:1040100034A802443D2B02F8481C03F103021CD0D3
:1040200002443C2B02F8481C03F1040215D0024460
:104030003B2B02F8481C03F105020ED002443A2B38
:1040400003F1060002F8481C07D034AB03443E28B5
:1040500003F8481C01D18DF8C71022A938460191F8
:104060003AF004F83A28339C01993FF626AF431CF6
:104070003B2BC0F13A02C0F13B0C88BF4FF0010C62
:10408000022A7FF608AF00F180030026FA18FE50DE
:104090004FEA9C03012B02F104027FF4D0AEF4E658
:1040A00080223290339C8DF888204FF03A0C01200A
:1040B00022A9E8E7339C22A9D9E700BFAFF300802B
:1040C00067E6096A85AE67BB72F36E3C3AF54FA5A9
:1040D0007F520E518C68059BABD9831F19CDE05BD5
:1040E00030B5044687B083683921DB689847124AA7
:1040F000136810F14D0F03F10103136014D098B150
:1041000000280FDBDDE904120C4B019D5A62DDE94A
:104110000204009A1A61C3E90550C3E9074108483F
:1041200000F06AF807B030BDA3686A461B69032136
:1041300020469847E4E700BF9040002098400020C8
:1041400010000020014B42781A707047B88100209F
:1041500010B582B000F0D4F904E04FF40040002123
:1041600018F0A2F900F0C6F90028F6D01B4B1C4C41
:104170004FF4A062DA60684600220023CDE90023F4
:1041800000F0A8F9DDE90023C4E9002304F056FBA0
:10419000A06018F0A3F9082118F0D0F8114B1B7893
:1041A000022B01D002B010BD00F04EF888B90E4CC1
:1041B0000E48206016F018FF0028F3D020680C4A43
:1041C000836800929B68002BECD00A4A69469847A6
:1041D000E8E702B0BDE8104000F060B81000002031
:1041E00098400020B8810020944000204CF8030043
:1041F00001000300E140000010B5104C104A114BC3
:1042000001462068D0601A68CB6882B002B9FEE728
:104210009A42FBD848688A600023CDE900330849F8
:1042200004F0ACF92368002803F10103B4BF6FF078
:1042300004000020236002B010BD00BFC040002079
:104240009840002030FD030000B587B0104B00936C
:10425000104901AA022004F00FFABDF80000112253
:10426000022103F081FF0C4A0028506008DB18226D
:10427000694604F031F8002802DB07B05DF804FB62
:1042800005F00EFE0068404207B05DF804FB00BF79
:104290000200109234FD030010000020034B586808
:1042A000002800DA704703F0B3BF00BF1000002001
:1042B00038B5094C237803B938BD06F029F905460D
:1042C00006F030F9002128681AF02EF8284606F08A
:1042D00031F90023237038BDB981002010B5104694
:1042E0000C4611B1012907D010BD00F0D7F92046C6
:1042F000BDE8104000F0BCB900F0BAF9BDE81040CC
:10430000002000F0CBB900BF134B10B54FF0000CEC
:104310009E469EF81840B4B9CCEBCC0C03EB8C0E47
:1043200073468EF808100121CEF804008EF818109C
:104330001068516892680C3307C371460748BDE89E
:10434000104017F025BA0CF1010CBCF1080F0EF16A
:104350001C0EDED110BD00BFD4400020E44100207F
:10436000084B1B7823B110B5074C23780BB110BD57
:10437000704706F0CDF806F035F80028F7D1012394
:10438000237010BDBA810020B981002010B506F05D
:10439000BFF8044606F0C6F82068002119F0C4FFF3
:1043A00008B9074B18702068002119F05BFF08B9A5
:1043B000044B18702046BDE8104006F0BBB800BFA3
:1043C000B9810020BB81002010B506F0A1F8044699
:1043D00006F0A8F82068012119F044FF10B9064B37
:1043E00001221A702068042114F0D6FC2046BDE892
:1043F000104006F09FB800BFBB810020024B1B7825
:1044000003B17047FFF7E0BFBB8100200840C3073E
:1044100004D5044B1B7813B1FFF7B8BF7047FFF703
:10442000D3BF00BFBB8100202DE9F84F214FDFF83B
:104430009C80214EDFF8989019E03B7893B9DAF828
:1044400008301E491B6C5046984770B9DAF808309E
:104450001B495B6C5046984738B9012319483B709B
:1044600017F096FB5846FFF76DFE002323764FF0BA
:10447000FF324FF0FF33304617F0A2F9057A0446B9
:10448000002DF2D1037BD0F804A000F10C0B002B1F
:10449000D3D0032B07D0012BE4D10B4817F078FBC6
:1044A00088F80050DEE70123484688F8003017F00E
:1044B0006FFBD7E7BC810020E4410020CC40002006
:1044C000C4400020D4410020B4410020BA81002023
:1044D000C44100204FF0805282B0D2F8A830D2F808
:1044E000A42002609BB20193BDF80430838002B027
:1044F000704700BF014B1878704700BFBA81002099
:104500002DE9F0418EB0354816F02AFD002600272F
:10451000CDE90867054600F08BF8314813F080FEBE
:104520000446002856D12F494FF080520DF128083B
:10453000D2F8A830D2F8A42008702B490A9208704B
:104540002A492B4A08709BB22A490B932A4B0870C0
:104550004FF4FA61598042F210711870596050603E
:1045600098E8030040F2011313800890ADF824107E
:10457000224817F0DFF80322CDE90324CDE90667CE
:10458000CDE901441E4B1F4900944FF400721E48B0
:10459000FFF792F81D491C4816F012FF1C491D48F0
:1045A00017F0A6FA1C491D4817F0A2FA1C491D482D
:1045B00017F09EFAAB681C4A5B6A0A9207214246D2
:1045C00028469847AB68194A5B6A0A9228464246D1
:1045D0000821984720460EB0BDE8F0815CFD03003D
:1045E0000D440000BC810020BB810020BA81002066
:1045F000C4400020B9810020CC400020E4410020CC
:104600002944000000820020001A00206CFD0300F5
:10461000FD430000D441002061430000C44100205C
:10462000B1420000B441002009430000DD42000017
:1046300070B50D4C0D4A2569A6682B6843F480437C
:104640002B600E2133682046984700280BDB2B682F
:104650003668064A43F010032B6020463346042197
:10466000BDE87040184770BDA4F7030001000A00C0
:10467000094B1A691268520448BF80F0010028B142
:104680009B680548DB684FF4804118479B680248E7
:104690001B694FF480411847A4F70300084B1A69BF
:1046A0001268D20648BF80F0010020B19B68044820
:1046B000DB68102118479B6801481B6910211847C7
:1046C000A4F70300094B0A4810B518600269816815
:1046D00013680C6823F00073136019210022A047AF
:1046E000002818BF6FF0150010BD00BF0442002065
:1046F000A4F7030000F0A2B800F014BA70B5144C8F
:1047000020680269816813680D6823F000731360E4
:104710001921104AA847206803691B689B01836818
:104720004FF0007154BF1B69DB689847642000F0AC
:104730000FFB20680269816813680C6823F000731E
:104740001360192123460022BDE87040184700BFBE
:10475000044200200600020000B5A7B000238DF837
:10476000003000F03BF96B4696221946012000F01C
:1047700079FA022000F0D8FA00F082F927B05DF84B
:1047800004FB00BF00F02AB970B50B4C20688268AA
:104790000023956902214FF40012A847206802699E
:1047A000816813680C6823F0040313600221234618
:1047B0000022BDE8704018470042002070B50C4C44
:1047C00020680269816813680D6823F00403136090
:1047D00002214FF48032A8472068826894694FF024
:1047E0008063A4464FF0A072BDE87040022160478C
:1047F00000420020F8B50F4E0F4B336004460D46C3
:104800009A6817681A691846136823F0040313603E
:1048100002214FF48032B847306883686560DB69F5
:104820000422A26013B1012221469847BDE8F84056
:10483000FFF7AABF0042002088F70300564B1B7801
:10484000002B40F0A5802DE9F041544C237886B030
:10485000002B76D0524E3378002B40F09680514B8F
:10486000514F1B683C685D68504BDFF86C811F60DE
:1048700005F1080EBEE80F000DF1040CACE80F00C6
:104880004445DEF80030CCF800306FD9484B9C42EC
:1048900072D9484B9C426CD9474B9C426FD9474BCD
:1048A0009C426FD9464B9C422CBF4FF000444FF0C6
:1048B0008044BB8803949A0703F0040052D5002873
:1048C00014BF03200220C3F300128DF81000002350
:1048D00040F201108DF81120FF22ADF813008DF881
:1048E000072001A91A46284615F058FA354B984278
:1048F0004BD13548026983681C68136843F0400354
:1049000013600621314AA0472C6A6A4600212046DE
:104910000BF0B8FF002805DB009B226819791868A6
:104920000BF0D2FF286840F3073004F093FD2A68AB
:1049300004210123C2F808133370002006B0BDE83B
:10494000F081194B224919604FF480729A801A82C3
:104950001B49144A1F48D960106004F02FFD012341
:10496000237077E7003818BF0120ACE74FF00074E0
:104970009FE74FF000649CE74FF0806499E74FF0A9
:10498000805496E74FF0005493E76FF00400D5E7AA
:104990006FF00400704700BFBD810020BF81002080
:1049A000BE81002024420020084200202042002036
:1049B0001FA107003F420F007F841E00FF083D003B
:1049C00000127A000000AD0B88F7030001000A0016
:1049D00080841E0014F803008FD003001E4B1B7848
:1049E00033B31E491E4A0B68934221D01D481368F9
:1049F00010B404681C4864680A608342226818D9AD
:104A00001A498B421CD91A498B421CD919498B422D
:104A10001CD919498B421CD918498B422CBF4FF025
:104A200000434FF080435DF8044BC2F824357047D3
:104A300070474FF000735DF8044BC2F8243570479F
:104A40004FF08063EFE74FF00063ECE74FF08053E7
:104A5000E9E74FF00053E6E7BE8100202042002046
:104A600008420020244200208FD003001FA107002D
:104A70003F420F007F841E00FF083D0000127A00B5
:104A80001E4B1B7833B31E491E4A0B68934221D03C
:104A90001D48136810B404681C4864680A608342A7
:104AA000226818D91A498B421CD91A498B421CD941
:104AB00019498B421CD919498B421CD918498B4280
:104AC0002CBF4FF000434FF080435DF8044BC2F819
:104AD0002435704770474FF000735DF8044BC2F8FF
:104AE000243570474FF08063EFE74FF00063ECE749
:104AF0004FF08053E9E74FF00053E6E7BE81002016
:104B00002042002014420020244200208FD00300C5
:104B10001FA107003F420F007F841E00FF083D00D9
:104B200000127A00194B1B78002B2BD170B5184C52
:104B3000237882B013B9002002B070BD154B1B68FA
:104B40005D68284615F012FA1348026983681E68EA
:104B5000136843F04003136006210122B0472D6A19
:104B600001AA012128460BF08DFE002805DB019BE0
:104B70002A68197918680BF0A7FE0023002023701B
:104B800002B070BD6FF00400704700BFBD8100200F
:104B9000BE8100202442002088F703002DE9F04761
:104BA0002A4C246884B0D4F804A0994672B6284BE5
:104BB0001B78002B46D0274F3B78002B42D1012396
:104BC00004460E4690463B7062B6234D2B691B6827
:104BD0005A06AB684FF0400154BFDB681B6928469A
:104BE0009847CDE900640024224669465046CDE945
:104BF000024415F023FA194B9842064616D06FF07E
:104C000004042B691B685B060AD4AB6812481B6955
:104C10004021984700233B70204604B0BDE8F08750
:104C2000AB680D48DB6840219847F3E7694650467A
:104C30002246CDE90098CDE9024415F0FFF9B042D3
:104C4000DDD1DEE762B66FF00404E5E72442002020
:104C5000BE810020BD81002088F703000000AD0B5D
:104C6000002070472DE9F0472A4C246884B0D4F81E
:104C700004A0994672B6284B1B78002B46D0274FCC
:104C80003B78002B42D1012304460E4690463B70F0
:104C900062B6234D2B691B685A06AB684FF0400182
:104CA00054BFDB681B6928469847CDE9006400249F
:104CB000224669465046CDE9024415F0BFF9194B2A
:104CC0009842064616D06FF004042B691B685B06F9
:104CD0000AD4AB6812481B694021984700233B70F7
:104CE000204604B0BDE8F087AB680D48DB68402182
:104CF0009847F3E7694650462246CDE90298CDE948
:104D0000004415F09BF9B042DDD1DEE762B66FF0EA
:104D10000404E5E724420020BE810020BD8100207C
:104D200088F703000000AD0B08B54FF4004220EAFD
:104D3000E073002140F2E730C3FB02014FF47A72C6
:104D40000023FBF781FFBDE8084017F0ADBB00BFB3
:104D500017F06EBEC2B1531E0C4A00B501F1FF3C04
:104D600001EB030E1CF8013F584003090001D35C1E
:104D7000C0B2434019091B01505CDBB2F44580EA24
:104D80000300EFD15DF804FB704700BF80FD030016
:104D90000CB400B5034683B005AADB68019208464F
:104DA00040F20511984703B05DF804EB02B070477C
:104DB000032810B512D8BFF35B8F0B4B40011C5872
:104DC000BFF35B8F54B1083B1C1864680C601AB1C8
:104DD00000F10C0119441160185810BD05F060F87D
:104DE00009230360002010BDD01A002010B40B4C22
:104DF000430104EB401CE150CCF8042052B11046B2
:104E0000D2683AB10C33234440F205125DF8044BEA
:104E1000FFF7BEBF5DF8044B704700BFC81A002003
:104E20001649BFF35B8F400100F108030B441A6879
:104E3000BFF35B8F02B310B5BFF35B8F02F1FF3C92
:104E400053E800EF964503D143E800C4002CF7D1A6
:104E5000BFF35B8F02D1012A08D010BDBFF35B8F77
:104E60001A68BFF35B8F002AE6D110BD014400220F
:104E70000023C1E9002310BD704700BFC81A0020FD
:104E800040B1436803F00303022B06D0032B04D088
:104E9000012B05D06FF0150070470368002BF9D087
:104EA0000023836018467047426802F00302022A1A
:104EB00008B50346816004D0032A0AD0002242606C
:104EC00005E0006800225A6008B118F095F900204A
:104ED00008BD006800225A6008BD00BF002070476E
:104EE000014B1B68184700BF2000002030B48B68BE
:104EF0000C685D1C64B14A689A4209DD013A9A4225
:104F000008BF00238D600CBFA354E05430BC704731
:104F10008D6030BC704700BF0FB400B585B006ABE4
:104F2000002153F8042B05480091039300F0C2FCC4
:104F300005B05DF804EB04B0704700BFE14E00001F
:104F40000CB430B587B00AAB002553F8042B00959C
:104F5000CDE90230CDE90415044603A9064800F066
:104F6000A9FCDDE904309842B8BF255407B0BDE87C
:104F7000304002B0704700BFED4E0000B0F81CC0DA
:104F80001CF0080F2DE9F84F064640F00A810CF09E
:104F90000700DFF89CA20446022980B211D0B7694D
:104FA000002FC0F2E980431F012B804640F2C380EE
:104FB000042800F022818442134651D04FF00009AA
:104FC00016E0002878D13368002B79D02CF0070C3C
:104FD00033694CF0060C1FFA8CFC062CD3F80090B9
:104FE000A6F81CC0134600F0838007464FF0060861
:104FF000B168002500297BD04CF0080CA6F81CC035
:1050000082F31188BFF36F8FB16889B10C68D1F852
:1050100004B03B4642463046D8474CB1214624684E
:10502000D1F804B03B4642463046D847002CF5D173
:105030003DBBB9F1000F02D051463046C8474FF092
:105040002002EFF3118382F31288BFF36F8FB6F85B
:105050001CC02CF0080C1FFA8CFC1A46A6F81CC0C9
:105060001CF0100F1FD02CF0100C1FFA8CFC01212B
:105070000CF00700A6F81CC004468DE75D46002D25
:10508000D7D02846394650F804BBFFF70DFF044639
:105090000028F3D029463B46424630465D46A047AD
:1050A000002DEED1C5E71CF0200F0AD02CF0200C0B
:1050B0001FFA8CFC0221DBE7022825D1F78B37B1E0
:1050C000134683F31188BFF36F8FBDE8F88F2CF080
:1050D000070C33694CF0040C1FFA8CFC042CD3F839
:1050E0000490A6F81CC0134602D04FF004087FE7D6
:1050F000B9F1000FB4D04CF0080CA6F81CC082F334
:105100001188BFF36F8F97E70128D9D13368002B3F
:10511000D6D02CF0070C33694CF0050C1FFA8CFC30
:10512000052CD3F80890A6F81CC01346E0D04FF029
:10513000050800275CE74FF000082CF0070C062854
:105140003568C6F804801FFA8CFCC6F8008037D09A
:105150004445A6F81CC013461DD1002D80D04CF04C
:10516000080CA6F81CC082F31188BFF36F8F4FF0B4
:105170000009002D85D15CE72CF0070C00234CF0D2
:10518000010C3568A6F81CC0736033604FF001084D
:1051900044451346E1D0B1680029DED04FF0000944
:1051A0002AE701290CBF4CF0100C4CF0200C1346E0
:1051B000A0F81CC083F31188BFF36F8FBDE8F88F90
:1051C0005DB1F38B01339BB229460968581C9E469A
:1051D00083B20029F9D1A6F81EE0F18B4CF002034E
:1051E000B38319B19C464FF00208D1E74CF0220C72
:1051F000A6F81CC04FF00208CAE72CF0070C316873
:105200001FFA8CFCA6F81CC059B14CF0200CA6F873
:105210001CC01346002C3FF423AF4FF00008C146DA
:10522000E6E61346002C3FF41BAF88468946DFE6CE
:105230003552000010B40C464FF02001EFF31182FC
:1052400081F31288BFF36F8F012184615DF8044BF5
:10525000FFF794BE88B138B50C4659B10B684BB115
:105260004B683BB105462022002139F064FF2C61D8
:10527000002038BD6FF0150038BD6FF01500704785
:1052800000286AD0F8B50E46002963D00F1D0546E8
:105290003846FFF7F5FD00281CD1B368032B59D819
:1052A0004FF02003EFF3118283F31288BFF36F8F67
:1052B000EB8BA88B4FF6FF718B4200F0070432D0C6
:1052C000022C1DD0062C3ED8DFE804F0063D3D3D03
:1052D00006130600E4DAF8BD002333606B684BB3B5
:1052E0001E606E604CBB28460221FFF747FE204639
:1052F000F8BD82F31188BFF36F8F6FF08500F8BDA2
:105300000133EB8382F31188BFF36F8F002138469E
:10531000FFF7CAFD074620B1002322463146284642
:10532000B8470220F8BD82F31188BFF36F8F6FF08A
:105330000A00F8BD2E606E60D4E7204682F3118823
:10534000BFF36F8FF8BD82F31188BFF36F8F6FF0DB
:105350000400F8BD6FF01500F8BD6FF01500704740
:1053600010B54FF02001EFF3118281F31288BFF3E3
:105370006F8F848B04F00704022C0AD0012C0CBF21
:105380006FF004006FF0850082F31188BFF36F8F18
:1053900010BDC18B013989B2C18309B12046F3E741
:1053A0002146FFF7EBFD204610BD00BF002835D099
:1053B000002933D010B54FF02003EFF3118E83F3A3
:1053C0001288BFF36F8F0368B0F81CC043B19942D5
:1053D00002D11AE099420AD01A461B68002BF9D173
:1053E0006FF077008EF31188BFF36F8F10BD4368A5
:1053F0000C68146099420FD000230B600CF007007A
:105400008EF31188BFF36F8F10BD42680B68036085
:105410009142F1D14360EFE74260EDE76FF0150094
:10542000704700BF8C460446114608B51A466046D0
:10543000A04717F053F804F06BFB00BFCB0002331A
:1054400070B5C45AA2EB010E891A01EB54014C004D
:10545000C4F34E0C944400EBC2054FEA4E06C6520C
:105460006C8020F832E020F83C1070BDC900023199
:105470004FEAC20C0CF1020C435A00B530F80CE0B4
:105480005B0803EB5E034FEA430E20F801E030F8BF
:105490000C1002EB510220F832305DF804FB00BF23
:1054A00030B500EBC1044FEAC10C63885B08B3FA66
:1054B00083F3C3F11F0300EB83050CF1040C2A698D
:1054C0001FFA81FE72B96EF30F02C4686EF31F42B9
:1054D0004FF0010E0EFA03F31C43C460296140F83B
:1054E0000C2030BDD3000433C15A20F80C1000EB5F
:1054F000C101E280A1F806E020F803E030BD00BF62
:1055000000EBC10CBCF8063099420CD0BCF804107A
:10551000043200EBC10C40F8223000EBC300ACF8C1
:10552000063081807047C36801219140043223EA2C
:1055300001030021C36040F822107047F8B5B1FAAA
:1055400081F3C3F11F0200EB820635698DB12C4651
:105550004FF0030C00EBC40EBEF80270B1EB570F16
:1055600018D9BEF806403461BCF1010C01D0A54247
:10557000F0D1C268C3F120034FF0FF349C401440C7
:1055800001D12046F8BD94FAA4F2B2FA82F2131DBA
:1055900050F823402146FFF7B3FF2046F8BD00BF77
:1055A000F8B5CE00B71C0D46C15B05EB510100EB11
:1055B000C10304465A88D3070CD5A15B691A04EBD2
:1055C000C1035A88D30714D529462046BDE8F840C0
:1055D000FFF766BF5208B2FA82F2C2F11F02FFF76C
:1055E0008FFFE25B294605EB52022046FFF73EFFA4
:1055F000E3E75208B2FA82F22046C2F11F02FFF737
:105600007FFFA15B2046691A2A46FFF72FFFA35BA5
:10561000ED1A29462046BDE8F840FFF741BF00BF1C
:1056200061B100680439091A21F007030344C9086D
:105630005A8822F001025A80FFF7B2BF704700BFBC
:10564000F8B50568C1B1AB68B3EBD10F14D90B3114
:10565000CC0821462846FFF771FF68B105EBC0076B
:10566000C6007B88B4EB530F08D37B88043643F025
:1056700001037B80A819F8BD0020F8BD021901467E
:105680002846FFF7DBFE1146FFF70AFFEDE700BFF4
:105690002DE9F84301F1FF3919EA010906680C46C2
:1056A000154645D04B420B40042B1A464C4628BFAA
:1056B00004229946BDB3B368B3EBD50F33D905F1D6
:1056C0000B012144891AC9083046FFF737FF074606
:1056D00048B309F1040808EBC008631EB0449844BD
:1056E000644208EA0408A8EB090808EB050407343B
:1056F000A8F104039B1B24F00704A41BB0EBD30FF9
:105700004FEAE4044FEAD30916D306EBC9056B88C8
:1057100009EB53039C421ED36B8843F001036B805B
:105720004046BDE8F8834FF000084046BDE8F883E6
:10573000042919D90422BDE701464A46304606EB42
:10574000C905FFF77BFE3946FFF7AAFE6B8809EB18
:1057500053039C42E0D2494630462246FFF76EFE94
:105760002146FFF79DFED7E7BDE8F8431146FFF756
:1057700067BF00BF043A70B401EB020CCC1D24F0EB
:1057800007042CF0070CACEB040C4FEADC062346B4
:10579000B6FA86F2C2F12401002504608900A660F1
:1057A00043F80C5F0731C2F12002C90803EB820203
:1057B00043F8045F9A42FBD14B00761A04EBC10216
:1057C00043F001036380700004EB0C0325805080DC
:1057D000012224F83110204624F80C6070BC5A8055
:1057E000FFF75EBE2DE9F84F92469846D378304ACF
:1057F0000A9E12F803906F2B05460C4609F0030928
:1058000041D03BD903F0F703702B39D00A27BB46B0
:1058100010E0B9F1010F2DD00CF1570CBD425FFA29
:105820008CF374F1000406F8013D16D34645054695
:105830000C4612D9284621463A460023FBF704FAC3
:105840005FFA82FC092A0CF13003E2D8DBB2BD42D8
:1058500074F1000406F8013DE8D29AF800309B0686
:1058600005D5BBF1080F11D0BBF1100F17D0304692
:10587000BDE8F88F0CF13703DBB2E8E7582BC5D150
:105880001027BB46D6E70827BB46D3E79AF8023075
:1058900043F008038AF802303046BDE8F88F9AF8E2
:1058A000023043F010038AF802303046BDE8F88F2A
:1058B000CD1B04002DE9F04F0746107899B090B148
:1058C0001C4600238B469A46551C25282E460DD093
:1058D0005946B847002806DB0AF1010A2A46107823
:1058E0000028F1D1504619B0BDE8F08F537800215F
:1058F000252BCDE90A11CDE90C11CDE90E1100F0EF
:10590000EC8008468E46884602918946A3F1200124
:1059100010290AD8DFE801F0D80909D509090909D1
:10592000090909DE09DB0909D10028B19DF8301009
:1059300041F040018DF83010BEF1000F05D09DF808
:10594000301041F020018DF83010B8F1000F05D073
:105950009DF8301041F010018DF83010029929B1F6
:105960009DF8301041F008018DF83010B9F1000FAA
:1059700005D09DF8301041F004018DF830109DF8ED
:10598000301001F04400442800F066829DF8301089
:105990002A2B41F080018DF8301000F04282DFF8B0
:1059A000C48B18F8031049079C46304648BF0021B5
:1059B00017D510F8013F18F803E0ACF1300C01EBFB
:1059C00081011EF0040F0CEB41019C46F1D186428F
:1059D00007D09DF830600D91C90F61F341068DF835
:1059E00030609DF831102E2B0CBF0126002666F387
:1059F00041018DF8311029D143782A2B00F06B82B8
:105A0000DFF8608B18F8031011F004011E4600F156
:105A1000010008BF0E460ED0002110F8013F18F813
:105A200003C0303E01EB81011CF0040F06EB410185
:105A30001E46F2D1CE0F0E919DF83010C1F3400CEE
:105A400046EA0C0666F341018DF83010A3F14C01D3
:105A5000461C2E2900F24882DFE811F0600446025D
:105A600046024602460246024602460246024602F6
:105A700046024602460246024602460246024602E6
:105A800046024602460246024602460246024602D6
:105A900046024602700446025C0446024C0446027A
:105AA00046024602460246024602460248044602B2
:105AB00046024602460246023B04012016F8013F18
:105AC00024E74FF0010EF9E74FF00108F6E74FF039
:105AD0000109F3E701230293F0E78DF8330002F1A7
