:1000000000E50020616C000085660000356C000092
:10001000356C0000356C0000356C000000000000FD
:10002000000000000000000000000000C5670000A4
:10003000356C0000000000003567000019F2000078
:1000400059690000596900005969000059690000A8
:100050005969000059690000596900005969000098
:100060005969000059690000596900005969000088
:100070005969000059690000596900005969000078
:100080005969000059690000596900005969000068
:100090005969000059690000596900005969000058
:1000A0005969000059690000596900005969000048
:1000B0005969000059690000596900005969000038
:1000C0005969000059690000596900005969000028
:1000D0005969000059690000596900005969000018
:1000E0005969000059690000596900005969000008
:1000F00059690000596900005969000059690000F8
:1001000001F0FF01102A2BDB10F0070F08D010F8C8
:10011000013B013A8B422DD010F0070F42B3F6D1CC
:10012000F0B441EA012141EA014122F007047FF0E5
:1001300000070023F0E80256083C85EA010586EA3C
:10014000010685FA47F5A3FA87F586FA47F6A5FA78
:1001500087F68EB9EED1F0BC01F0FF0102F0070284
:1001600032B110F8013B013A83EA010313B1F8D12F
:100170000020704701387047002D06BF3546033810
:10018000073815F0010F07D1013015F4807F02BF49
:10019000013015F4C03F0130F0BC0138704700BF9A
:1001A00053B94AB9002908BF00281CBF4FF0FF31DE
:1001B0004FF0FF3000F00CB8ADF1080C6DE904CE43
:1001C00000F008F8DDF804E0DDE9022304B0704730
:1001D000704700BF2DE9F04F099E88468E461546B0
:1001E00004461946002B40F0C7804245B2FA82F718
:1001F00046D94FB1C7F1200C08FA07F320FA0CFCDE
:10020000BD404CEA030EBC404FEA15481FFA85FC7E
:10021000BEFBF8F9220C08FB19E309FB0CFA42EAD1
:1002200003439A4528D9EB1809F1FF3004D29A45C7
:1002300002D9A9F102002B44A3EB0A03A4B2B3FB39
:10024000F8F208FB123302FB0CFC44EA0344A44519
:1002500014D92C1902F1FF3303D2A44501D9931EFE
:100260002C44A4EB0C0443EA00401EB1FC400023E4
:1002700034607360BDE8F08F4846DDE71346F0E771
:1002800002B9FFDE8FBBA8EB020301214FEA154E36
:10029000AAB2B3FBFEFC200C0EFB1C330CFB02F8D5
:1002A00040EA0343984563D9EB180CF1FF3004D2C0
:1002B000984502D9ACF102002B44A3EB0803A4B289
:1002C000B3FBFEFC0EFB1C330CFB02F244EA0344BE
:1002D000A2424FD92C190CF1FF3304D2A24202D909
:1002E000ACF102032C44A41ABDE7C7F1200C28FA94
:1002F0000CF908FA07F320FA0CFCBD404CEA0302A3
:100300004FEA154EABB2B9FBFEFC110C0EFB1C9074
:100310000CFB03F841EA0040804504FA07F423D9B6
:1003200028180CF1FF3104D2804502D9ACF102014A
:100330002844A0EB080092B2B0FBFEFC0EFB1C00B0
:100340000CFB03F842EA004398450FD9EB180CF177
:10035000FF3204D2984502D9ACF102022B44A3EB40
:10036000080342EA014191E76146E2E76246F6E7A7
:100370006046A2E76346B6E7434505D90EB1C6E934
:1003800000080021084675E7B3FA83FCBCF1000FB2
:1003900010D1434501D382420AD8841A68EB030383
:1003A00001209E46002E68D0C6E9004E002161E77C
:1003B0006046F7E7CCF1200E03FA0CF322FA0EF4B4
:1003C0001C4320FA0EF108FA0CF328FA0EFB19432D
:1003D0004FEA144902FA0CF5BBFBF9F8A3B209FB8A
:1003E00018BB0A0C08FB03FA42EA0B42924500FADA
:1003F0000CF73ED9A21808F1FF3004D2924502D979
:10040000A8F102002244A2EB0A0289B2B2FBF9F879
:1004100009FB182208FB03F341EA024293422AD95E
:10042000A21808F1FF3104D2934202D9A8F10201C7
:10043000224441EA0040A0FB0598D21A42454B46AF
:10044000414602D306D14F4504D2B9EB050368EB10
:10045000040101388EB1FC1A62EB010707FA0EFEA7
:1004600024FA0CF34EEA030327FA0CF7C6E9003727
:100470009CE74046C7E74146DBE73146FAE610F81D
:10048000012B11F8013B012A28BF9A42F7D0D01A5C
:100490007047034613F8012B002AFBD1181A0138C4
:1004A00070470000000000002DE9F047054686B0C7
:1004B0009946002428230F46CDE90243904608F0D0
:1004C000E3FE02A9284609F0B5F8002800F0CF8025
:1004D00083793A2B064665D0112B60D0062B5BD072
:1004E000AC68002C00F0B4804FF0000CA3892468A5
:1004F0009C44002CFAD195F82410A8699FED5E7BEE
:10050000022202FB01C18DED007B04313A2308F089
:1005100093FE0446002800F0A78095F82420296A5D
:1005200009F06AF8B0F1000A2FDBA3689B68A362A8
:1005300095F82C20A96A204609F05EF8B0F1000A6F
:1005400023DBA06895F82C10083007F053F8A0685A
:1005500050F8083F236295F8241007F04BF895F8FF
:100560002C3084F8243095F8243084F82C30337EF5
:10057000FF2B06F1180163D006F10802204609F0AE
:10058000B9F9064620B36FF0040A204608F090FC43
:10059000504606B0BDE8F0874FF03C0CABE74FF09B
:1005A000300CA8E70399049404232846059308F027
:1005B00071FE04A9284609F03DF8002845D090F9BD
:1005C0000130A34241DA284608F05EFEB37983E7A2
:1005D00004904FF0040A04A92046CDF814A009F0B5
:1005E00029F80028CFD080F8018007708670C67087
:1005F00004A9204609F04AF80028C4D1042F29D0C4
:1006000052460146204608F051FE8246204608F038
:100610007BFCBAF1000FB8D102462946204608F00B
:100620005BFE0028B1D1204608F02EFE3A2120467C
:1006300009F0ACF9204607F03DF90028A5DBA7E753
:10064000A06907F047FF014696E76FF0150A9FE79C
:10065000A44650E799FA89F33A4604A92046049340
:1006600008F0CAFF8246D1E76FF00B0A90E76FF0FF
:10067000040A8DE7AFF30080008000000000000056
:1006800010B58C1882B01AF005FA4FEA401C4A01E6
:10069000BCEB000C42EAD06262EB01024FEA8C0331
:1006A0009200181842EA9C7241EB0203DB0043EA15
:1006B0005073C0F3103040EA4340241A002C16DD7A
:1006C0004FF4004340F2E7300021C4FB03014FF434
:1006D0007A720023FFF764FD9FED097B02460B460B
:1006E00009488DED007B1AF077FA02B010BD074B78
:1006F00001221A7002B0BDE8104007F017B800BF21
:100700000000000000000000D807002016AF002005
:10071000494BD3F80423900702D5D3F804218AB9B2
:100720004FF02002EFF3118382F31288BFF36F8F33
:10073000414AD2F80413C9030ED483F31188BFF3DE
:100740006F8F70473D4A0021C3F80411D3F804317C
:10075000136801331360E3E7F0B53949BFF35B8FEA
:1007600083B051E8000F20F0010441E80045002D5E
:10077000F7D1BFF35B8F18B9D2F84021002A4FD0D0
:100780002D4A0021C2F84011D2F8401183F311889C
:10079000BFF36F8F294B1B68190A1B06BFF35F8FCE
:1007A000D2F80425D31841F10001B2F5801F0AD216
:1007B000244AD2E90067B34271EB070203D213F176
:1007C000807341F100014FF02000EFF3118280F3BC
:1007D0001288BFF36F8F1C4CD4E90267B34271EBF0
:1007E000070317D39FED127B134D21686368002028
:1007F0004FF4803C84ED027B2060C5F848C382F34F
:100800001188BFF36F8F49B1009332463B4688474A
:1008100003B0F0BD82F31188BFF36F8F03B0F0BD5A
:1008200083F31188BFF36F8F03B0F0BDAFF3008087
:10083000FFFFFFFFFFFFFFFF00100140285E0020C9
:10084000205E0020F8300020003100200000000071
:100850002DE9F0472DED028B9FED358B364FDFF8FC
:10086000DC9082B0064600F591684FF0FF334FF000
:10087000FF32404617F0BEFD43680446002B42D0CD
:10088000257A0235EDB2802D2CD88DED008B00231A
:100890001A462946306808F0CFFC2A46054668B358
:1008A00061680F3108F0A8FE2946824688B9237C8A
:1008B00085F84130637C85F84030A27C95F8423061
:1008C00062F3410385F84230306807F095F800285C
:1008D00025DA606811F07EFC00236360284608F08A
:1008E000E7FAC2E7394648464FF43E7200F00EFA86
:1008F00038464FF43E7102F03FFDC6E7606811F0E4
:1009000069FC6560B1E73946484640F2E92200F0EB
:10091000FDF9384640F2E92102F02EFDB0E76068AB
:1009200011F058FCC4F804A09FE700BFAFF30080AB
:100930000000000000000000380C0300F402030077
:10094000F0B5454A044692E8030024691A7B9B6887
:1009500085B004F58056029004F5FC50ADF80C10FB
:1009600086F8782F194607302EF0D4FF04F5FB5097
:10097000183011F013FC90B104F500554FF0FF331F
:100980004FF0FF3204F5FB5017F0EEFD95F878308C
:10099000052B04D8DFE803F0124F080D03086FF0B1
:1009A0000404204605B0F0BD6FF02204204605B0D7
:1009B000F0BD6FF06804204605B0F0BD96F8873FA3
:1009C00013F020033CD096F8893F8DF80B309FED53
:1009D000207B4DF6F052A5F88C209DF80870206819
:1009E00002ABC5F8803000238DED007B1A463946F6
:1009F00008F022FC064640B3D5F880103A46013193
:100A000008F0FAFD00281DDB95F88C3086F841309F
:100A100095F88D3086F84030304608F035FC206877
:100A2000314609F0D7FD0024304608F041FA002392
:100A3000C5F88030B5E76FF00F04204605B0F0BD73
:100A40001C46AEE76FF00B04EEE76FF00B04EEE729
:100A500000000000000000009802030000000000F9
:100A60002DE9F04F2DED028B83B0824618F01CFD6E
:100A70004FF02003EFF3118B83F31288BFF36F8FD6
:100A80005D4817F013FA5E46002800F09080DFF80A
:100A900078915948DFF87481584D17F023FAD9F846
:100AA0000040C8F800A04C4561D09FED518B524FDB
:100AB00051462B68D5F804A0019320464FEAE17C0B
:100AC000002C00F088802369D4F814E099427CEB74
:100AD0000E0BA1EB0302C0F28180C8F80020019A3E
:100AE0009A184AEBE37384ED048BC5E9002319F0EF
:100AF000AFFD384617F0E8F9E8B186F31188BFF387
:100B00006F8FA368204698474FF02003EFF31186BC
:100B100083F31288BFF36F8F384617F0C7F9B346D7
:100B200098B1384617F0DEF9D9F800404C451CD092
:100B3000D8F80010BDE732493248AC2200F0E6F8A0
:100B40002F48AC2102F018FCD7E781222D482C4910
:100B500000F0DCF82A48812102F00EFC384617F03C
:100B6000C1F9D9F800404C45E2D1D8F800A04FEACD
:100B7000EA7C2B6813EB0A032B606B684FF00004D0
:100B800043EB0C036B60C8F8004019F07DFD214673
:100B90000EF0F8FC184817F097F990B18BF3118814
:100BA000BFF36F8F03B0BDEC028BBDE8F08F14492B
:100BB0001448812200F0AAF81148812102F0DCFBE0
:100BC00065E70F490F48AC2200F0A0F80C48AC21B3
:100BD00002F0D2FBE2E78A46B346CAE75B1A23611A
:100BE0006EEB0C038A466361B346C2E7AFF3008045
:100BF00000000000000000009CA40020F033002052
:100C000030030300F40203002802002098A400200F
:100C1000704700BFC2B102F1FF3C10B40B4C4A1E3A
:100C20008C4412F8013F584003099445E35C83EA81
:100C30000010C0F30311C3B2605C80EA0310C0B2BD
:100C4000EFD15DF8044B7047704700BFC00203004E
:100C500040B1436803F00303022B06D0032B04D0FA
:100C6000012B05D06FF0150070470368002BF9D0F9
:100C7000002383601846704738B54368816003F0ED
:100C80000303022B04460FD0032B16D0012B08D0F0
:100C90000C490D48452200F039F80A48452102F078
:100CA0006BFB0020606038BD00680025656000288F
:100CB000F9D01AF085F8284638BD00680023636033
:100CC00038BD00BFD0020300F402030000207047CB
:100CD0000B68024A013312680B60104704000020C1
:100CE00030B48B680C685D1C64B14A689A4209DDB7
:100CF000013A9A4208BF00238D600CBFA354E05410
:100D000030BC70478D6030BC704700BF0FB410B569
:100D100082B004AB002453F8042B0548009301A9CA
:100D2000019401F08BF802B0BDE8104004B07047A8
:100D3000D10C00000CB430B585B008AB002553F8D9
:100D4000042BCDE90215CDE90030044601A906487F
:100D500001F074F8DDE902309842B8BF255405B0BF
:100D6000BDE8304002B07047E10C00002DE9F04FC3
:100D70000546808B83B00407019205F1140B00F146
:100D8000B58100F0070399460229DDF804809AB284
:100D90006FD1002A40F0E9802B68002B00F0E98039
:100DA000B9F1000F40F04D812B69D3F800A0BAF1E2
:100DB000000F00F06781AB8B23F0070343F00603BD
:100DC0009BB2AB830627B94500F0C78000242646B6
:100DD000AA68002A69D04FF0010943F00803AB83E9
:100DE000584617F071F8002871D088F31188BFF3C6
:100DF0006F8FB9F1000F7AD1ACB1A146A846484631
:100E0000314650F8045BFFF737FF04464946334646
:100E10003A464046002C00F08480A946A047B9F12C
:100E2000000FECD14546BAF1000F02D0AB4928467D
:100E3000D0474FF02003EFF3118883F31288BFF3FC
:100E40006F8F584617F032F8CDF8048000287AD01A
:100E5000584617F047F8AB8B23F008039BB2AB83DF
:100E6000D90664D523F0100080B203F00709A883E7
:100E70004A46AE69002EC0F21C81531F012B40F27E
:100E80000D81042A40F04A8120F007032C689BB2B0
:100E9000AB83002C00F06681002743F02003B945A6
:100EA000AB833C464FF0000A92D14FF00009002C72
:100EB00093D14FF000094C46BAF1000FD0D043F067
:100EC0000803AB83584616F0FFFF00288DD1AC22F3
:100ED00083498448FFF71AFF8148AC2102F04CFA9D
:100EE00088F31188BFF36F8FB9F1000F84D0A96820
:100EF000002981D0D1F80080A1464446A846334657
:100F00004D683A464046A84744B1214624684D689A
:100F100033463A464046A847002CF6D14C46454653
:100F20006AE7A946B9F1000F7FF469AF7AE79A063C
:100F30001FD523F0200080B203F00709A883022107
:100F400000F0070320E7664966488122FFF7DEFECE
:100F50006348812102F010FA7AE74FF00009002679
:100F60004C46BAF1000FAAD17AE7022A39D1EB8BAD
:100F700063B1584616F0A8FF002800F0C58088F33A
:100F80001188BFF36F8F03B0BDE8F08FB9F1020F86
:100F900017D05549534840F25D12FFF7B7FE52484B
:100FA00040F25D1102F0E8F9EB8B53B14E494D4828
:100FB0004FF4AF72FFF7AAFE4B484FF4AF7102F047
:100FC000DBF92B69D3F804A0BAF1000F00F0CC8054
:100FD000AB8B23F0070343F004039BB2AB830427DE
:100FE000F1E6012AC5D12B68002BC2D0B9F1010F5F
:100FF00017D03D493B484FF4B272FFF787FE3A489D
:101000004FF4B27102F0B8F92B6853B9364935483C
:1010100040F26512FFF77AFE334840F2651102F0A4
:10102000ABF92B69D3F808A0BAF1000F00F0A88043
:10103000AB8B23F0070343F005039BB2AB8305277B
:10104000C1E6294927484FF4AB72FFF75FFE2648F7
:101050004FF4AB7102F090F92B68002B7FF4A4AE33
:101060002149204840F25712FFF750FE1E4840F237
:10107000571102F081F92B69D3F800A0BAF1000FE3
:101080007FF499AE184917484FF4AD72FFF73EFE52
:1010900015484FF4AD7102F06FF98CE6002720F08F
:1010A0000703062A2C686F609BB22F6046D0AB8383
:1010B00009E020F00703002243F001032C68AB8312
:1010C0006A602A600127B9454FF0000A7FF480AEBC
:1010D0004FF00009002C7FF480AEEAE6B111000069
:1010E00030030300F40203000C03030001290CBFCA
:1010F00040F0100040F02000A8835846904616F0BB
:10110000E3FE00287FF43BAF26492748AC22FFF7D7
:10111000FDFD2448AC2102F02FF930E72349224895
:1011200040F21B12FFF7F2FD204840F21B1102F0C3
:1011300023F9AB8B002403F00707C4E754B1EA8B13
:10114000013292B221460968501C174682B200292A
:10115000F9D1EF83E98B43F00202AA83E1B1134690
:101160000227B0E72746AEE710490F4840F2611268
:10117000FFF7CCFD0D4840F2611102F0FDF827E7C2
:101180000A4909484FF4B472FFF7C0FD07484FF40D
:10119000B47102F0F1F84BE743F02203AB8302276E
:1011A00091E700BF30030300F40203000C030300C7
:1011B000F8B504460D4600F114064FF02003EFF396
:1011C000118783F31288BFF36F8F304616F06EFEDF
:1011D00050B1304616F086FEA5613A462046012100
:1011E000BDE8F840FFF7C2BD044905488122FFF77A
:1011F0008DFD0248812102F0BFF8EAE730030300C9
:10120000F402030088B138B50C4659B10B684BB1F4
:101210004B683BB10546202200212EF0B6FB2C6125
:10122000002038BD6FF0150038BD6FF01500704715
:101230002DE9F84F002800F09D808846002900F035
:10124000998001F1040904464846FFF701FD051E97
:1012500038D1D8F8083033F0030340F08B8004F124
:1012600014074FF02003EFF3118A83F31288BFF3C2
:101270006F8F384616F01AFE00283DD0384616F01B
:1012800031FEE38BA28B4FF6FF718B4202F0070613
:1012900059D0022E3AD0930718D163680022C8F8BB
:1012A0000020002B5ED0C3F80080C4F80480002E1C
:1012B00068D12046524602213546FFF757FD2846A1
:1012C000BDE8F88FCBDA2846BDE8F88F062EE4D0CB
:1012D000052E4AD0012E50D02C492D4840F2C9127B
:1012E000FFF714FD294840F2C91102F045F86FF0EC
:1012F00004054FF0000B0EE0264925488122FFF738
:1013000005FD2448812102F037F8B7E70133E38374
:1013100035464FF0010B384616F0D6FDC0B18AF3C2
:101320001188BFF36F8FBBF1000FCCD0484600216E
:10133000FFF7A2FC07460028C5D0324641462046AA
:101340000023B847BFE76FF00A054FF0000BE2E754
:1013500010490F48AC22FFF7D9FC0E48AC2102F02F
:101360000BF8DCE7C4E90088A1E76FF085054FF0D2
:10137000000BD0E76FF01505A5E76FF004054FF0FF
:10138000000BC8E735464FF0000BC4E70C03030021
:10139000F40203003003030070B5044600F11405A5
:1013A0004FF02003EFF3118683F31288BFF36F8FA2
:1013B000284616F07BFD68B3284616F093FDA38BF4
:1013C00003F00703022B0FD0012B28460CBF6FF050
:1013D00004046FF0850416F077FD88B186F3118858
:1013E000BFF36F8F204670BDE38BEBB1013B9BB227
:1013F000E38353B32846022416F066FD0028EDD19E
:1014000016491748AC22FFF781FC1448AC2101F0C3
:10141000B3FFE3E7114912488122FFF777FC0F4839
:10142000812101F0A9FFC7E70E490D484FF4F8727A
:10143000FFF76CFC0B484FF4F87101F09DFFE38B54
:10144000013B9BB2E383002BD4D1204632460221DC
:101450000224FFF78BFC204670BD00BF3003030061
:10146000F40203000C030300F8B5002866D00C4614
:10147000002963D0054600F114074FF02003EFF375
:10148000118683F31288BFF36F8F384616F00EFD76
:10149000002840D0384616F025FD2B68A98B43B1B3
:1014A0009C4202D141E09C420FD01A461B68002B9F
:1014B000F9D16FF07705384616F006FD08B386F3CC
:1014C0001188BFF36F8F2846F8BD6B6820681060E5
:1014D0009C4231D0002301F0070523602B1F022B13
:1014E000E9D91849184840F22E22FFF70FFC154899
:1014F00040F22E2101F040FF384616F0E5FC0028AE
:10150000DDD112491048AC22FFF700FC0F48AC2196
:1015100001F032FFD3E70D490B488122FFF7F6FBBC
:101520000A48812101F028FFB4E76A6823682B602C
:101530009442CFD16B60CDE76A60CBE76FF01505C1
:10154000C1E700BF0C030300F402030030030300F3
:101550008C460446114608B51A466046A04718F066
:10156000BBFE05F0F1FB00BF10B48468B4F5004F7A
:1015700000EBC10313D3DC68A14220D09B68043286
:1015800000EBC30140F82240CC60826800EBC4004D
:10159000B2F5004F28BF83600ED29BB20BE0DC880F
:1015A000A1420CD09B88043200EBC30140F82240DA
:1015B00000EBC400CC8083805DF8044B7047C368A7
:1015C0005DF8044B01219140043223EA010300211C
:1015D000C36040F82210704730B58468531AB4F5E0
:1015E000004F00EBC10C00EBC20EA1EB02014FEA71
:1015F00043051DD3DCF80440CCF80450856801EBAA
:101600005401B5F5004F4FEA410418D3CEF8044019
:101610008468B4F5004F14D340F832308368B3F5D2
:10162000004F10D321F000431A4440F8321030BD6F
:10163000BCF80240ACF8025001EB54014C00AEF88B
:10164000024020F83230BEF8023002EB530220F89C
:10165000321030BD8368B3F5004F10B500EBC10107
:1016600000EBC20C12D34B68DCF804405B0803EBC0
:1016700054035C004C608168B1F5004F10D3DCF876
:10168000041002EB510240F8323010BD4B88BCF818
:1016900002E05B0803EB5E034FEA430EA1F802E0B1
:1016A000BCF8021002EB510220F8323010BD00BF2E
:1016B0008368B3F5004F00EBC1020DD253884FF0A1
:1016C000010C23FA0CF20132A2EB0C02B2FA82F204
:1016D000C2F11F02FFF748BF52685208012A02D028
:1016E0004FF0020CEFE770478368B3F5004F30B559
:1016F00000EBC1021AD253885B08B3FA83F3C3F13B
:101700001F0300EB830CDCF81040002C4AD000EBE8
:10171000C40CBCF8043093804FEAC30ED48000EBB5
:101720000E0389B2D980ACF8041030BD53685B0851
:10173000012BFAD0013BB3FA83F3C3F11F0300EB93
:10174000830CDCF81040DCB100EBC40CDCF8083092
:1017500093608568B5F5004F4FEAC30E00EBC303F5
:10176000DCD3D4608268B2F5004FDAD3D9608368E5
:10177000B3F5004F28BFCCF80810D6D289B2D2E713
:10178000C4684FF0010E0EFA03F31C43C460CCF89A
:10179000101091608368B3F5004F28BFD160C4D2A8
:1017A00089B20AE0C4684FF0010E0EFA03F31C433D
:1017B000C460CCF8101089B29180D18030BD00BFD8
:1017C000F8B58368B3F5004F04460D464FEAC106ED
:1017D00000EBC10714D3796805EB510100EBC1039D
:1017E0005B68D80736D5A159691A04EBC1035B6859
:1017F000DB0714D529462046BDE8F840FFF774BF43
:10180000798805EB510100EBC1035B88DA0721D52C
:10181000A15B691A04EBC1035B88DB07EAD42046AD
:10182000FFF746FFA368B3F5004F2CBFA159A15B9A
:101830002046691A2A46FFF70DFFA368B3F5004F4B
:101840002CBFA359A35BED1A29462046BDE8F840FA
:10185000FFF74ABF2046FFF72BFFA368B3F5004F01
:101860002CBF7A687A88294605EB52022046FFF79A
:10187000F1FEA368B3F5004FB5D2A15B691A04EB82
:10188000C1035B88C9E700BF2DE9F8438668B6F558
:10189000004F2CBF01F1FF330B46B3FA83F3C3F1C2
:1018A0001F0900EB89073D69A5B12C464FF0030CD9
:1018B000B6F5004F00EBC40E19D3DEF80420B1EBEF
:1018C000520F29D9DEF80C403C61BCF1010C01D06B
:1018D000A542EDD14FF0FF34C268C3F1200304FAF2
:1018E00003F313EA02040AD12046BDE8F883BEF8E8
:1018F0000280B1EB580F0FD9BEF80640E4E794FA26
:10190000A4F2B2FA82F2131D50F823402146FFF7E9
:101910002BFE2046BDE8F8834A462146FFF724FE09
:10192000E2E700BF002959D070B50568AB68B3F590
:10193000004F26D20C1F641B24F007062E44E40837
:101940007388D90737D504EB530235F83210521A91
:10195000A2420DD022492348A222FFF7D7F92048FE
:10196000A22101F009FDAB68B3F5004F32D27388B4
:1019700023F00103738021462846BDE87040FFF73D
:101980001FBFA1F10804641B24F007062E44E408DD
:101990007368DA070FD504EB530255F83210521A68
:1019A000A242D7D123F00103736021462846BDE847
:1019B0007040FFF705BF0A490A489A22FFF7A6F9C7
:1019C00007489A2101F0D8FCAB68B3F5004F03D368
:1019D0007368E0E77368E5E77388B4E7704700BFB2
:1019E00058030300F4020300F8B5056889B3AB6837
:1019F000B3EBD10F2DD9B3F5004F2CBF082404242D
:101A000007310C44E40821462846FFF73DFF00B3A8
:101A1000AB68B3F5004F4FEAC00605EBC0070FD324
:101A20007B68B4EB530F16D343F001037B60AB68C4
:101A3000B3F5004F2CBF0820042030442844F8BDE3
:101A40007B88B4EB530F06D343F001037B80042063
:101A5000F3E70020F8BD0444014622462846FFF77C
:101A6000BBFD2146FFF740FEAB68B3F5004F01D246
:101A70007B88E9E77B68D7E72DE9F84306681446D9
:101A8000B2684B42B2F5004F03EA01082CBF0827A9
:101A9000042731EA030370D04745A1EB080528BFAE
:101AA000474605F1FF3919EA050F4AD1002C55D0F8
:101AB000B368B3EBD40F51D9E11DB3F5004F2944FE
:101AC000A1EB07012CBF082304231944C9083046A1
:101AD000FFF7DAFE0746002840D0B368B3F5004FA1
:101AE000C5F1000134BF0422082208EBC0051544EB
:101AF00035444D4405EA0105A5EB080534BF6FF0F8
:101B000003016FF007012A19D41D2944891B24F011
:101B10000704A41BB0EBD10F4FEAE4044FEAD1084D
:101B200031D3B3F5004F06EBC8071BD37B6808EB36
:101B30005302944236D343F001037B602846BDE84C
:101B4000F8832349234840F20D12FFF7DFF82048BD
:101B500040F20D1101F010FC002CA9D100252846FF
:101B6000BDE8F8837B8808EB530294421AD343F014
:101B700001037B802846BDE8F883B94222D9454657
:101B80004FF000088DE7394642463046FFF724FD06
:101B90003946FFF7A9FDB368B3F5004F06EBC80758
:101BA000E0D3C3E7414622463046FFF715FD214604
:101BB000FFF79AFDB368B3F5004F01D27B88D6E7F3
:101BC0007B68B8E72146BDE8F843FFF70DBF00BFCB
:101BD00058030300F4020300B2F5802F2DE9F04111
:101BE000144607460D460FD2042A00F2B8804FF47F
:101BF000C1725D495D48FFF789F85B484FF4C171D8
:101C000001F0BAFB042200E00822A21AEC1D1544E0
:101C100024F0070425F007052E1B172E4FEAD608DF
:101C200040F28E800023B8F5004F3C60C4E9028387
:101C30004ED2B8FA88F3C3F12405AD000735ED089C
:101C4000C3F120076B1C434540F286804649474854
:101C50004FF4CB72FFF75AF843484FF4CB7101F0C1
:101C60008BFBA068002F3FD1B0F5004F4FEA450332
:101C700048D343F00103636004EBC502A8EB0503FE
:101C80005800002121605060A068B0F5004F44D397
:101C900044F83550A068B0F5004F04EB06023ED37F
:101CA0005160A168B1F5004F3BD3A351A368B3F5D0
:101CB000004F04EBC80837D3D8F8043043F00103D1
:101CC000C8F8043029462046BDE8F041FFF70CBDB6
:101CD00008F1FF33B3FA83F3C3F12405AD000735F0
:101CE000C3F12007ED084046002304F10C02194619
:101CF0000133BB4242F8041FFADBB0F5004F4FEA54
:101D00004503B6D243F0010363800021A8EB05032D
:101D100004EBC5022180590051801580A2190021D1
:101D20005180138004EBC808B8F8023043F0010377
:101D3000A8F8023029462046BDE8F041FFF7D4BCA0
:101D400009490A4840F28B12FEF7E0FF064840F2CC
:101D50008B1101F011FB65E71FB14046C4E7042277
:101D600053E76B00CEE700BF58030300F402030003
:101D70002DE9F84F92469846D3782F4A0A9E13F8D9
:101D800002906F2B04460D4609F003093ED038D966
:101D900003F0F703702B36D00A27BB460CE00CF19A
:101DA0005703DBB2BC4206F8013D75F100031BD3BB
:101DB000464504460D4617D9204629463A46002393
:101DC000FEF7EEF95FFA82FC092A0CF13003E8D93C
:101DD000B9F1010FE3D10CF13703DBB2BC4206F8D5
:101DE000013D75F10003E3D29AF800309B0605D55A
:101DF000BBF1080F0DD0BBF1100F13D03046BDE87A
:101E0000F88F582BC8D11027BB46D5E70827BB460B
:101E1000D2E79AF8023043F008038AF802303046DD
:101E2000BDE8F88F9AF8023043F010038AF80230C8
:101E30003046BDE8F88F00BF844A03002DE9F04F1B
:101E4000174699B012780293002A00F0A3868146C3
:101E50004FF0333388464FF0000A039310464C4648
:101E6000252807F101050DD04146A047002806DBD3
:101E70000AF1010A2F4638780028F1D1504619B0EE
:101E8000BDE8F08F7B780021252BCDE90A11CDE943
:101E90000C11CDE90E1100F0E4800E4608468C4688
:101EA0008E46A3F12002102A0AD8DFE802F0D209F8
:101EB00009D009090909090909D409D70909CC0078
:101EC000BEF1000F05D09DF8302042F004028DF8DD
:101ED0003020BCF1000F05D09DF8302042F0080200
:101EE0008DF8302028B19DF8302042F010028DF896
:101EF00030202EB19DF8302042F020028DF83020A5
:101F000029B19DF8302042F040028DF830209DF834
:101F1000302002F04401442900F0AE819DF83020C9
:101F20002A2B42F080028DF8302000F08781DFF804
:101F3000AC9B19F8032052071846294648BF0022D7
:101F400016D511F8013F19F8036002EB820200EB8D
:101F500042027607A2F130021846F2D48D4207D031
:101F60009DF830000D92D20F62F341008DF83000E1
:101F70009DF831202E2B0CBF0120002060F3410280
:101F80008DF8312028D14B782A2B00F07A81DFF8A8
:101F90004C9B19F8032012F00402184601F10101CC
:101FA00008BF10460ED0002211F8013F19F8035067
:101FB00002EB820200EB42026D07A2F130021846EA
:101FC000F2D4D00F0E929DF83020C2F34005284382
:101FD00060F341028DF83020A3F14C024D1C2E2AF3
:101FE00000F25881DFE812F05B04560156015601F9
:101FF0005601560156015601560156015601560129
:102000005601560156015601560156015601560118
:102010005601560156015601560156015601560108
:102020004B04560147045601370456015601560128
:102030005601560156015601330456015601560108
:10204000560156012604012115F8013F29E7012612
:10205000FAE70120F8E74FF0010CF5E74FF0010E29
:10206000F2E78DF83300BD1C08460A460B468C4645
:102070009DF930609DF830E0002EB4BF0D9E4FF00A
:10208000FF36002B00F08180029B53F8049BB9F1CE
:10209000000F07DA9DF831C06FF3410C8DF831C0A5
:1020A0004FF0FF394FF0000C042ACDE90DCC7BD066
:1020B000012A00F09280022A00F0C980032A00F071
:1020C000C48402931EF0030F40F0A0809DF83330CB
:1020D0000493253B532B56D8DFE813F042045500F8
:1020E0005500550055005500550055005500550048
:1020F0005500550055005500550055005500550038
:102100005500550055005500550055005500550027
:10211000550055008201550055005500820182018D
:1021200082015500550055005500550055005500D9
:1021300055005500550055005500550055005500F7
:102140005500090355005500550055005500550030
:1021500055005500820155003A0496038201820120
:1021600082015500960355005500550055000304A3
:1021700009032E04550055001A04550009035500A3
:1021800055000903CA462F4675E61CF0020F18BF1A
:10219000DDF83890029B08BF4FF0FF394FF0000C7C
:1021A000042ACDE90DCC83D19DF831C01CF0020F7B
:1021B00008D19DF931C0BCF1000FB4BF4FF00D093B
:1021C0004FF00609073323F0070C0CF108030293C4
:1021D0009CED007B8DED0A7B74E7A1F1030CBCF153
:1021E000040F00F2EC80DFE81CF07A020500050025
:1021F000EA00EA00073323F00703B3EC027B1EF08A
:10220000030F8DED0A7B02933FF460AF002607E0D9
:102210003878A047002807F10107FFF630AE0136F5
:10222000AF424146F4D315B938780028F1D1002ED9
:102230003046FFF624AEB2442F461CE69DF83130FE
:1022400043F001038DF831306B78691C90E6A1F101
:10225000030CBCF1040F00F20C820FF2080B5BF8C8
:102260002CF000BFC7270000F5210000F521000079
:1022700073260000732600006FF386128DF830205D
:102280004CE69DF8313043F004038DF831308B7803
:102290000231A1E69DF830600D46C6F34006A3F179
:1022A000410201358DF83330372A39D8DFE812F092
:1022B0005C003800380038005C005C005C003800CE
:1022C000380038003800380038003800380038004E
:1022D0003800380038003800380038003800F6017F
:1022E000380038003800380038003800380038002E
:1022F0005C003800F601A4025C005C005C00380061
:10230000A40238003800380038000603F6019202B3
:102310003800380092023800F60138003800F60123
:102320009DF830309DF831C043F00103CCF3C30178
:102330008DF83030002208469DF830301CF0010F37
:1023400066F341038DF830300CF004033FF490AE97
:10235000DDF808E05EF8046B002EC0F24B83CDF888
:1023600008E09DF830E08CE603F0DF03A3F14103C1
:102370009DF831109DF83200B3FA83F35B0963F3E3
:10238000C711042262F302000B068DF831108DF89C
:1023900032005FFA81FC00F100840CF07803182B06
:1023A00000F0AE84CCF3C3011CF0380F0846C3D054
:1023B0009DF8303043F001038DF83030BCE753F81E
:1023C00004CB029301284FEAEC73CDF828C00B939D
:1023D00040F088839DF828300A9300230B9371E620
:1023E000DDE90A310029C0F242841EF0080F40F0F6
:1023F00083841EF0100018BF20200590C1F3130045
:10240000C1F30A57069040F2FF710793002F40F086
:10241000D3831A46024300F0E7840499069A4629BA
:102420004FEA023208BF662152EA135204914FEA82
:10243000033B00F137861BEB0B0B5241002A07F1DF
:10244000FF37F8DAA7F2FE31881C42F0004280F232
:10245000218600274FEA5B0B4BEAC27B5208B2F1A0
:10246000333F0B4601F10101F4D29000991C4FEA71
:102470008B0340EA9B7013EB0B0B42EB00028B1CAF
:1024800007F1FF37E6DB00292ADD07EE908A4FF0DF
:1024900033301BF10203A3FB003C42F1000210EBBE
:1024A000030BA2FB00B240EB0C0813EB0B034CEB4D
:1024B000020C13EB08034CF100031BEB030B01F1BF
:1024C000FF3107F1010742F100021BEB0B0B5241F8
:1024D000002A01F1FF31F8DA0029DADC17EE908AE0
:1024E000C1F104031C312BFA03F002FA01F101439C
:1024F0000846A3F1200122FA03F30693049B22FA73
:1025000001F10143672B079100F08F84472B00F006
:102510008C84049B662B00F00385002209F10103E3
:102520000892102B9C46A8BF4FF0100C0CF1FF3CFA
:10253000002B00F06B8507EE908A4FF0000B4FF0F8
:1025400000624FF033314FEA5B0040EAC270A0FBFB
:10255000010B52080B18A2FB013241EB0B08C0180B
:102560004BEB020B10EB08004BF1000013EB000BE0
:102570000CF1FF3C42F10002BCF1FF3FE3D117EE4A
:10258000908A079B06991BEB030342EB0101B1F113
:10259000805F80F000840EF020020692049A662A82
:1025A00000F0B8838A00980042EA9372C31841EBA6
:1025B0000201C1F3C3623032DB1849418DF8442077
:1025C000302A069A21F0704118BF07F1FF37002A20
:1025D00040F0FE83B9F1000F40F3E2842E228DF823
:1025E00045200F220DF1460C0DF1440EE3466244E6
:1025F00088004FEA830C40EA93701CEB030341EB25
:102600000000DB18404120F07041000F00F1300C59
:102610000BF801CBB9F10109A2EB0B0001D00028A6
:10262000E6DC089BCDF838904BB100230E935A4658
:102630001BF8013D302BFAD02E2B18BF9346049B7C
:1026400003F0DF03452B00F0CB820D9B002B40F302
:102650004D8301219DF8322061F386128DF83220DE
:1026600000228BF80020ABEB0E009DF8322077465D
:1026700064E09C4600230B936346012853F804CB87
:102680000293CDF828C03FF4A5AE02287FF41AAD1E
:10269000BDF828300A9300230B9313E59DF8321000
:1026A000022262F302018DF832109DF8311001F020
:1026B000780EBEF1400F8C4605D19DF8300040F0F9
:1026C00001008DF83000C1F3C301632B08467FF48D
:1026D00033AEBEF1000F18BF46F001062CE61846D7
:1026E00050F8043B0A93DB1702900B93EAE40023B3
:1026F00005930DF15D0BDDE90A01CDF800B011ABDA
:102700000CAAFFF735FB0746B9F1000F0CDB9DF86B
:1027100030306FF386138DF83030ABEB07039945FB
:1027200002D9A9EB03030D93002F3FF42CAD9DF8C4
:1027300032200D9BABEB07000DF15D0B059901B14C
:102740000130D10640F1888102305106184444BF5F
:102750000E9BC018002E40F317819DF830305A07A9
:10276000A6EB0006C3F3800900F10E81580640F184
:102770008282059B002B00F0168218464146A04736
:102780000028FFF67CAB002E0AF1010A06F1FF33A8
:1027900040F31082CDF8149030220AF1010A9946D4
:1027A0009A44164606E0B9F1000F09F1FF3340F3F1
:1027B000E980994641463046A0470028AAEB090225
:1027C000F1DAFFF75CBB181D02901B680A93002327
:1027D0000B9377E49DF832309DF831C003221CF052
:1027E000780F62F30203CCF3C30118BF46F0010671
:1027F0008DF8323008469FE59DF83210012262F3D1
:1028000002018DF8321050E71EF0080F40F0E5810C
:102810001EF0100318BF20230593DDE90A23002BC7
:10282000BFF667AF524263EB43030B932D230A922B
:1028300005935EE79DF83130062262F3C6039DF8EA
:1028400030608DF831304B78C6F3400627E59DF8AF
:1028500031300722F1E74B789DF830606C2BC6F3DE
:10286000400600F0F5819DF83120032161F3C60296
:102870008DF8312013E59DF831300522DDE74B78E6
:102880009DF83060682BC6F3400600F0D6819DF8B5
:102890003120022161F3C6028DF83120FFE4BDF83A
:1028A00030204B7822F4F04222F0020242F48042BF
:1028B00042F00202ADF830200126F0E49DF83230FB
:1028C0009DF831C0032262F302038DF83230CCF35D
:1028D000C3010CF07803402B08BF46F00106084600
:1028E0002AE50A9B07293FF64EACDFE801F00446D3
:1028F000410409090404C3F800A02F46FFF7BBBA3E
:102900004FEAEA72C3F800A02F465A60FFF7B3BA45
:10291000B9F1000F0A9FC0F2A681494638462DF052
:1029200004F907EB000B002F3FF42DAC00219DF8BC
:1029300032200D9B059104E70A98002840F0A481FD
:10294000DFF89CB10520ABF1050700230593FCE6F9
:102950000A9B8DF844300DF1450B11AF0120F4E7CF
:1029600041462520A0470028BFF682AAFFF787BA74
:10297000A3F800A02F46FFF77EBA83F800A02F46E9
:10298000FFF779BA1E469246059B3BB11846414671
:10299000A0470028FFF673AA0AF1010A9DF8322029
:1029A0005106134631D59DF931303878002BC0F2ED
:1029B000A380DFF8289119F800305B0758BF534611
:1029C00040F1C780AAEB070307F1010A1F460AE09E
:1029D0009AF8000019F80010490707EB02030AF102
:1029E000010A40F1B3804146A04700285246EFDA81
:1029F000FFF745BACDF808E09DF830E04EF0040E40
:102A000076428DF830E0FFF73CBBD1065BD41A0765
:102A100059D4DB0608D59DF833004146A04700286D
:102A2000FFF62DAA0AF1010A0D9B002B18DD03EB1E
:102A30000A0901E0CA4514D041463020A0470028C9
:102A40000AF1010AF6DAFFF71ABA184650F8043B01
:102A500002900A93FFF736BB110748BF013074E6B6
:102A6000D14623464FF0000A5C46AB461D4608E0BF
:102A70003878A847002807F10107FFF600AA0AF1F5
:102A8000010ABC424146F3D814B938780028F0D185
:102A9000BAF1000F2C4650465D46FFF6F0A9D1442E
:102AA000002EC8BF06EB090A04DCFFF76BBBD1455B
:102AB0003FF469AB41462020A047002809F10109F5
:102AC000F5DAFFF7DCB941463020A0470028FFF6D1
:102AD000D6A99DF832300AF1010A9AE7844A030028
:102AE0008103030002287FF4EDAABDF928300A9380
:102AF000DB170B93FFF7E6BA702800F09D82AAEB74
:102B0000070907F1010A03E01AF8010B702809D040
:102B10004146A047002809EB0A035746F4DAFFF7BD
:102B2000AEB90F460E9A002A40F3C58002EB0309A6
:102B30009A4602E0CA4500F0BF8041463020A047D7
:102B400000280AF1010AF5DAFFF799B917469DF84E
:102B50003220DDF834A0900640F1C58138782E2867
:102B600000F0A48119F800205207DBD5DB1B07F128
:102B7000010A1F4607E007EB0A031AF8010B19F8D0
:102B800000205207CDD54146A04700285146F2DA31
:102B9000FFF775B91046FFF772B9CCF3C3010846C9
:102BA0000126FFF7C9BB002E06F1FF33C8BF302254
:102BB0003FF7F3AD1E46F1E68F4200F050810499D5
:102BC000069A46294FEAC22242EA53524FEAC32BE1
:102BD00014BF0B466623049334E42B2305931CE6B1
:102BE000002F5A46049B02F8023BBABF7F422D23B6
:102BF0002B23632F8BF801300EDDC64B83FB07328E
:102C0000FB17C3EB621303F1300264218BF802203F
:102C100001FB13770BF10302BF4981FB0731FB175F
:102C2000C3EBA10303EB8301A7EB410193463033D0
:102C300030310BF8023B517007E59DF8313001222D
:102C400062F3C6038DF831308B788D1CFFF727BBFC
:102C50009DF83130042262F3C6038DF831308B7851
:102C60008D1CFFF71CBB3846FDF713FC59E62D20E1
:102C70000590FFF7C3BB002E06F1FF33C8BF20222B
:102C80003FF78BAD1E467FE60DF15D0B11ABCDF826
:102C900000B00CAA0021FFF76BF8BDF8323003F04A
:102CA000EF0343F4F04343F01003ADF83230002358
:102CB0000746059328E5994623464FF0000A5C46EF
:102CC000AB461D4608E03878A847002807F1010701
:102CD000FFF6D5A80AF1010ABC424146F3D8002C00
:102CE0007FF4D6AE38780028EED1D1E60E990029CF
:102CF000D4BF00210121ADE42B200590FFF77EBB5E
:102D00006FF3C60C00208DF831C001465FFA8CFCD1
:102D1000FFF712BB002F40F310810DF1440EA7F115
:102D20001002C7F10F00F346CDF81CA0CDF824E047
:102D30008246A64614468A00980042EA9372C31857
:102D400041EB0201DB1849410A0F3032DC460BF837
:102D5000012B0AEB0702013F21F0704100F0508186
:102D6000A742E8D17446DDF81CA0DDF824E000227B
:102D700006980D97002840F01E81B9F1000F40F32E
:102D800024812E200CF1020C8BF80000002A00F0A8
:102D9000558100272AE4039A5B0843EAC173A3FB29
:102DA00002B04908134612EB0B02A1FB032140EBD2
:102DB000030C1BEB020340EB010013EB0C0340F18F
:102DC0000000131807F1010741F10001FFF7E3BB11
:102DD0002E22B9F1000F8DF845203FF702AC0DF11E
:102DE000460B0DF1440E1CE4049B462B00F098802A
:102DF000049B672B03D0049B472B7FF48AAB4F4582
:102E000015DC1EF0200FA9EB07024B4640F01081A5
:102E1000002AD4BF0021012108919146002BC0F265
:102E2000848066220492FFF77CBBF81CE7DA049BDF
:102E3000023BDBB2B9F1000F0493CEF340137FF7EE
:102E40006CAB09F1FF32002B40F0C880002AD4BFE0
:102E5000002101214B4608919146FFF762BB04997E
:102E60002E480131C9B2095C0698034301F0030101
:102E700040F08B80012900F0E48069238DF8443014
:102E80006E238DF8453066238DF846309DF830303E
:102E90006FF386138DF83030059B002B00F0058111
:102EA000002303200DF1470B11AF49E40593414680
:102EB000A0477B1C00280493FEF6E1AF059BBAF106
:102EC000000F03F1010373DD05959A441D4601E0EF
:102ED00055456BD041463020A047002805F101053B
:102EE000F6DAFEF7CCBFBAF1000F0AF1FF3240F379
:102EF000E18004959A44154601E0691C7CD0414666
:102F00003020A0470028AAEB050305F1FF35F4DACD
:102F1000FEF7B5BF1F85EB5167666666834A0300FF
:102F2000002207EB0903089278E7662304934FF029
:102F3000000B4FF00062FFF724BB30228DF84420D5
:102F4000069A002A67D1B9F1000F40F3A6802E221D
:102F50008DF8452097B17A424A4500F38580002AD2
:102F60009DF832000D92B944D4BF0022012262F3D1
:102F70004510B9F1000F8DF8320054DD10220DF12B
:102F8000460C0DF1440EFFF731BB012963D06E23CF
:102F90008DF844308DF8463061238DF8453075E763
:102FA0000DF1450B0DF1440EFFF73BBB2B46059D84
:102FB0007878049FD6E52E20B9F1000F0CF1020CB1
:102FC0008BF800003FF7E2AEE3460027089BCDF800
:102FD0003890002B3FF439ABFFF727BBB9F1100F46
:102FE000CC464FF00003A8BF4FF0100C0CF1FF3C93
:102FF00091460893FFF79FBA2A469246049DADE595
:103000007446DDF81CA0DDF824E0B1E69B464FF0E5
:103010000062FFF7B6BA2E228DF84520002F4BD064
:10302000B9F1000F97DC0DF1460B0DF1440ECDE721
:10303000914600220892F1E6534673E51746E346AF
:10304000C4E749238DF844304E238DF8453046239C
:103050008DF846301AE74E238DF844308DF846300F
:1030600041238DF8453011E7B9F1000F9DF832305A
:10307000CDF83490D4BF4FF000094FF0010969F347
:1030800045138DF832304FF000090DF1460B0DF16C
:10309000440E9BE70027FFF7F6B90DF1450B0DF144
:1030A000440E93E70749FFF7D4B911AF0DF1470B71
:1030B00003204AE4924651E5B9F1000F3FF75EAFB5
:1030C000B1E700BF02FCFFFF4FF00040704700BFB8
:1030D00070B5D0E90054AC4204D3601BB0FA80F064
:1030E000400970BD0669FFF7EFFFB0FBF6F006FB85
:1030F0000044601BB0FA80F0400970BD836910B5D0
:10310000844684680069ABB104EA030EDCF8003041
:1031100003441B1B9A4228BF1A46A0EB0E00DCF8A2
:103120001430904228BF1046044473440B60CCF81E
:10313000084010BDB4FBF0FE00FB1E4EE6E700BFEA
:1031400070B505460C46FFF7BFFF6A682E692B680D
:10315000144433449C4209D8824284BFB0FBF6F049
:1031600006FB1044C5E90144002070BD6FF0150056
:1031700070BD00BF2DE9F04105460F4616464FF0E1
:10318000000818E010402968A3EB000C0B449C1ABF
:10319000B44228BF3446644528BF64466B69224464
:1031A0003946AA60184422462CF0B4FB361BA044D2
:1031B00027440AD04CB1A869AA682B690028E1D13C
:1031C000B2FBF3F003FB1020DDE7FFF77DFF69683A
:1031D0002C692A6808EB0103224493420AD88842EA
:1031E0003CBFB0FBF4F004FB1033C5E901334046AB
:1031F000BDE8F081F42205490548FDF787FD034845
:10320000F42100F0B9F84046BDE8F08184030300E2
:10321000F40203002DE9F041C3684568AB4204465F
:103220000E46174614D8A1692069F1B101EA030CD2
:10323000ED1ABD42A0EB0C0028BF3D466269A842D2
:1032400028BF2846034462443260E360BDE8F08151
:10325000D0F81080FFF738FFA169B0FBF8F0E36801
:1032600008FB005520690029E0D1B3FBF0FC00FB0E
:103270001C3CDDE7F8B54668C368B34205460C461A
:1032800009D8002029682144B1420DD8091A2960C3
:10329000E9600020F8BD0769FFF716FFB0FBF7F003
:1032A00007FB00F00644EDE76FF01500F8BD00BF26
:1032B0002DE9F8430F460546C16816464FF0000851
:1032C0001CE0A8692B6948B30840641AB44222463E
:1032D000A3EB000428BF3246944228BF1446214481
:1032E0006B69E960A04437B11918224638462CF0C2
:1032F00011FBE9682744361B15D0A4B16C688C42D9
:10330000DFD2D5F81090FFF7DFFEB0FBF9F009FB34
:103310000044A869E9682B690028D5D1B1FBF3F214
:1033200003FB1210D1E76C68A1420AD800222B6877
:103330004344A3420ED89B1A2B60EB604046BDE885
:10334000F8832E69FFF7C0FEB0FBF6F006FB00F233
:103350001444ECE740F2411205490648FDF7D6FC5B
:10336000034840F2411100F007F84046BDE8F883F9
:1033700084030300F4020300404080F311884FF0FF
:10338000040002DF704700BF00B583B001904FF02A
:103390002002EFF3118382F31288BFF36F8F0BF0DB
:1033A0004FFF019803F040FF0248FDF7AFFC03F028
:1033B000EDF8FCE7AC030300704700BF08B500F070
:1033C00015F8BDE8084000F001B800BF38B5054C5D
:1033D000054DAC4204D254F8043B9847AC42FAD3B2
:1033E00038BD00BF400203004002030038B5064D5F
:1033F0002C6844B1631C05EB8305013C55F8043D82
:103400009847002CF9D138BD38020300C36A1B78F5
:10341000012B70B54FF0070288BFDE1D0C4688BF38
:103420005B4205464FF0FF008CBF1E400826FDF7AB
:10343000F1FBE379834201D0002070BDAB89608845
:103440009B1B98422CBF0020012070BD38B505465B
:103450000C46FFF7DBFFC8B1A088C0B921884FF642
:10346000FF72914212D1EA6AAB891278012A82BFB7
:10347000D01D52420240608898BF0822181AB0FB43
:10348000F2F302FB1300B0FA80F0400938BD0020CF
:1034900038BD00BF2DE9F04F1C46C36AB0F80C8060
:1034A0001B68174602685B4212FA81F213EA040BAA
:1034B0004FEA114189B0054601FB082806D1C146F3
:1034C00044BB2646304609B0BDE8F08FD0F82890BE
:1034D000D9F808A0DAF80C302BB1002148469847FB
:1034E00006460028EED1DAF804605B463A464146CB
:1034F0004846B047DAF80C30064613B14846012179
:103500009847002EDED1A4EB0B0408EB0B095F44B7
:10351000002CD6D039462023224668462CF008FAE3
:10352000EE6A326831790DEB0400121B2CF02DFA93
:10353000AC6A3768A568EA682AB10021204690473E
:1035400006460028BED16E683B466A46494620467C
:10355000B047EB680646002BB4D0012120469847BF
:10356000304609B0BDE8F08F2DE9F04F0746C06A3C
:1035700089B000685BB3C0F100090D46904609F0C0
:1035800020099B4605E02CF0B5F928BBBBEB040BEA
:103590001DD03C68B989B86A14FA85F42B0CD9455A
:1035A00003FB01414C4628BF5C46866823466A46B9
:1035B000D6F800A0D0470346224640466946254437
:1035C000A044002BDFD0184609B0BDE8F08F0023DF
:1035D000184609B0BDE8F08F0123184609B0BDE8D0
:1035E000F08F00BF2DE9F0418046C06A07687F4236
:1035F00088B007F020071D460E4620231146684676
:103600003A462CF0CAF915B911E02D1B0FD0AF4284
:103610003C4628BF2C46314623466A464046FFF7C3
:10362000A3FF26440028F0D008B0BDE8F0810020B8
:1036300008B0BDE8F08100BF2DE9F0470368B0F89D
:103640000C90866A0F0C09FB073805463F04D6F834
:1036500008A0DAF80C3023B1002130469847044620
:10366000C0B9DAF808304A46414630469847DAF899
:103670000C30044613B130460121984754B9EA6A28
:10368000AB89127939462846FFF7ACFF041E18BFF4
:103690006FF005042046BDE8F08700BFC36A1B78C1
:1036A000012B2DE9F04F88BF5F420C68DFF87C905A
:1036B00086BF073307EA030B4FF0080BA4EB0B049C
:1036C00004EA0906A64283B0054688460C6011D379
:1036D00027E0FFF79BFE48B1BDF80230BDF804209B
:1036E000C8F8004006EA090613441E44A4EB0B0484
:1036F000B44216D92B68A989A86A13FA84F3220C5C
:1037000002FB013187680823D7F800A06A46D0473A
:10371000034669462846002BDBD0184603B0BDE8B7
:10372000F08F0023184603B0BDE8F08F0000FFFFC4
:10373000C36A1B78F0B5012B84BFDF1D5B420E46C8
:1037400088BF1F40096803680446808913FA81F323
:103750004FEA114101FB003183B0A06A98BF0827EE
:1037600083681D680823A847054660BB3368A089A5
:103770003B449AB2C71BBA42336024D1190C03BF31
:10378000E18901F1FF3103EB0141A3F580312368A9
:1037900031601A44090C00FB0121A06A83686A4663
:1037A0001D680823A847054668B9E36A0DF10700BC
:1037B00019790DF1FF3313F8012F8A4206D198428F
:1037C000F9D163683360284603B0F0BD69462046EE
:1037D000FFF73CFE38B13368BDF802201B0C1B0418
:1037E00013443360EFE731462046FFF757FF0546A5
:1037F000E9E700BFC36A81891B782DE9F04F45686E
:10380000012B88BFDA1D4FEA154584BF5B4202EAEF
:10381000030B4FEA0545C38905F5803598BF4FF086
:10382000080B2A0CB3EB154F08BFA5EB0245A1EB23
:103830000B03026895B02B4412FA83F204931B0C1D
:10384000044601FB0321806A836806AA1E680823D8
:10385000B047011E3ADBE36A0DF11F0019790DF143
:10386000170313F8012F8A4234D19842F9D1D4E9D1
:1038700001130BEB0302914223D34FF6FF71072292
:10388000ADF83010ADF832300CA90023FF20ADF8B0
:103890003430FDF7BFF90CAA61688DF837000823B2
:1038A0002046FFF7F7FDE36A1B78012B82BFDA1D84
:1038B0005B421340626898BF0823D21A01466260D7
:1038C00020B929462046FFF7B7FE0146084615B045
:1038D000BDE8F08F049B06A92046A3EB0B0AFFF777
:1038E000B5FD002800F0A280049BBDF81A201B0C37
:1038F0001B0403EB0209CDF8109004AF394608AA67
:103900002046CDE9015BFFF713FF4D460146002835
:10391000DCD108A92046FFF779FD88B9AA4500F057
:10392000A980394608AA2046049DFFF701FF0146F9
:103930000028CBD108A92046FFF768FD0028EDD06C
:103940006668059604E0059B62689A4213D01E469D
:103950000AAA05A92046FFF7EBFE002861D1BDF8B1
:103960002820BDF820309A42EDD10AA92046FFF761
:103970004DFD0028E7D0B542D0D1BDF82430002B52
:10398000CCD0A368BDF82280ADF822302B0C1B04EC
:10399000072208A9FF209844FDF73CF9E36A8DF857
:1039A00027001B68BDF824905B4203F02003B9F1A7
:1039B000000F4AD09B46039513E0FFF76BFDE36AC7
:1039C000A1681A78012A05463CD9731E1344524255
:1039D00013400B44A360002D4FD1B9EB0609B0444E
:1039E00032D02368A189A06ACB4513FA88F34FEA45
:1039F00018425E4602FB013128BF4E4683680CAA7E
:103A00001D683346A847054633460CAA2046002DBC
:103A100033D1A168002ED0D1E36A1A78012AD4D814
:103A2000DBE70146084615B0BDE8F08F04AF394624
:103A30002046FFF733FE014600287FF447AFDDF84C
:103A400010905BE73346C4E7039D6168082308AA2A
:103A50002046FFF71FFDE36A1B78012B01460ED9B4
:103A6000DA1D5B421A4063689B1A636000293FF4C9
:103A700055AF2BE7DDE9015BF9E6294626E7082289
:103A8000F1E700BF2DE9F04F04468BB00D4600F181
:103A90001409484614F060FA284613F06DFDA06240
:103AA000002800F0F78183681B699847E0620028CE
:103AB00000F09881A06A83681B6998470368013BFE
:103AC0001F2B00F28F81A06A216807AA0AF016F85E
:103AD000002840F08781A389002B00F08381089A99
:103AE000B3FBF2F102FB1133002B40F07B81E28942
:103AF000012A40F27781E26A029315794FF0FF3391
:103B00004FF0FF32484614F02FFAE36A1B78012B7E
:103B100082BFDF1D5B421F40E38998BF0827002B4F
:103B200000F07A814FF000081FFA87FA4646A38911
:103B30003104A3EB0A0311FA83F12A460823204635
:103B40000291FFF74FFD014608F1010C08232A46B8
:103B50002046A1B10299B4F80EE001F58031BEEB28
:103B6000114F4FEA114B029104BFA1EB0B4102919F
:103B70001FFA8CF8FFF736FD002800F00481E38976
:103B80000136B6B29E42D2D3984500F045819E429E
:103B900000F0108102A92046FFF780FD02460028B0
:103BA00040F0BD80029BDFF8F482636003EA080204
:103BB0009342A2601FD30DF113062068A1891A0C4D
:103BC00010FA83F302FB0131A06A82680823D2F85D
:103BD00000A003AAD0470246002840F0A0800DF1C3
:103BE0000B0313F8012FAA4240F0A4809E42F8D1A3
:103BF0006268120C1204E38902F58031B3EB114FB5
:103C00004FEA11420291A38908BFA1EB024120466D
:103C10002A4608BF0291FFF7E5FC021E7FDB6268BF
:103C2000134600F0B280A0893A4491B2C51B8D4280
:103C3000029240F2DB804FF6FF7508E0029AA089FD
:103C40003A4491B2C31B9942029280F0CE8023681D
:103C5000120C00FB02321144A06A866805AA36687D
:103C60000823B047024605A92046002A57D1FFF78E
:103C7000CDFB0028E2D0BDF81430AB42DED1BDF858
:103C80001830002BDAD16168E289090C090401F5CA
:103C90008031B2EB114F02914FEA114302D1A1EBF7
:103CA000034102912046FFF7C7FC0246002A36D1A5
:103CB000A68962687D0013463046401B9BB2834252
:103CC0004FF6FF7209D0484614F02EFA0022012365
:103CD000104623740BB0BDE8F08F0021A368ADF847
:103CE0001810ADF8142005A90722FF20ADF81630F2
:103CF000FCF790FF61688DF81B00082305AA204699
:103D0000FFF7C8FBE36A1B78012B82BFD91D5B421A
:103D10001940636898BF08215B1A024663600192EC
:103D2000484614F001FA019A002ACFD010460BB091
:103D3000BDE8F08F03A92046FFF768FB48B9D4E936
:103D40000132DB1B93426360BFF437AF1A0C1204DD
:103D500051E7E36A02991B78BDF81000BDF80E2008
:103D6000012B01EA0801024403D9013A1A445B42DB
:103D70001A4063680A449A42A260E2D10028E0D067
:103D80006FF01C02CBE7E389FEE6A168914209D3FC
:103D900071E0636846D0E06AA16800680144994216
:103DA000A1605AD22A465B1A2046FFF71BFC021E6E
:103DB000EFDAB4E702990823C91B2A462046FFF729
:103DC00011FC00287FF4E6AE029BE28903F5803304
:103DD000B2EB134F4FEA1341029304BFA3EB01432D
:103DE0000293D7E66FF01502A0E7636819462046F4
:103DF000FFF722FC0246002891D16368274AA18977
:103E000013400B44A3EB47031A40C4E90132204698
:103E1000FFF7F0FC024649E7484614F085F96FF0D9
:103E20002C0283E7A0897D0003EB470787427FF4DC
:103E300044AFA1681A0C12048A423FF43EAF1946FF
:103E40002046FFF7F9FB024600287FF468AF63685D
:103E5000A0891A0C1204A2602FE7A68903EB470081
:103E600086424FEA47057FF45AAF180C000481429E
:103E70003FF455AFE3E7A68902EB470CB4454FEAA0
:103E8000470530467FF419AF100C000488423FF418
:103E900012AFD4E76FF0050248E700BF0000FFFF54
:103EA0002DE9F04F044689B0007C0192002800F013
:103EB0001D819A46E36A1B78012B0E4640F2B480BE
:103EC0005A4203F107090AF1FF3809EA0209984446
:103ED00008EA02084FEA8902A3899B1A9A4500F270
:103EE0009980BAF1000F40F091806768039704E071
:103EF000039F6368BB4200F0908004AA03A9204698
:103F0000FFF716FC054600287CD1BDF81030B342FF
:103F1000EED104A92046FFF779FA0028E8D0BDF8D1
:103F20001430BAF1000F40F08880002B6AD0B8F14D
:103F3000000F7ED104F1140B4FF0FF3358464FF0C1
:103F4000FF3214F011F8E389002B56D0DFF8A4916A
:103F5000002745E0CA1D494202EA010002461A4410
:103F6000ADF81A20A28903EA090313441B1A6360FF
:103F70004FF6FF73072206A9ADF81830FF20002383
:103F8000ADF81C30FCF746FE61688DF81F00082371
:103F900006AA2046FFF77EFAE36A1A78012A82BF52
:103FA000D31D52421A40636898BF082203F580333C
:103FB0009B1AE2896360B2EB134F4FEA134104BFCF
:103FC000A3EB0143636003EA0903A3602046FFF704
:103FD00011FC002840F08180E38901379F420CD01A
:103FE000D4E9013202EB08018B4238D2E26A11783F
:103FF0000129AFD808221046B1E76FF01B055846DB
:1040000014F092F8284609B0BDE8F08F019B002B10
:104010007FF46BAF6FF01505F4E7BAF1000FF1D044
:10402000B8F1000F05D185E7D04620224FF00809EE
:1040300052E7C8441FFA88F87CE79A457FF477AFC7
:10404000BDF81210019A3F0C3F04394453462046F4
:10405000FFF78AFA00283FF76AAF0546D2E7ADF8C6
:104060001A20FF2006A90722ADF81860ADF81CA0A1
:104070008DF81E00FCF7CEFDA1688DF81F00BAF187
:10408000000F2ED05346019A2046FFF703FAE36A49
:10409000A1681B78012B054621D90AF1FF321A4489
:1040A0005B4213401944A160002DA8D106AA082341
:1040B00061682046FFF7EEF9E36A1B78012B82BFA7
:1040C000DA1D5B421A40636898BF082205469B1AB6
:1040D000002808BF5546636091E705468FE75346C1
:1040E000E0E7E36A1B78012BD7D8DFE76FF00C0518
:1040F00088E700BF0000FFFF00231A46FFF7D0BE8D
:104100002DE9F047994684B0037CBDF83080002B40
:1041100056D0C36A92461A78012A04460E4647D9F9
:104120005342073213405B00A289D31A994544D801
:1041300067680197002506E0019B62689A4218D0E3
:10414000A8451AD31F4602AA01A92046FFF7F0FA94
:1041500058BBBDF80830B342EED102A92046FFF7A4
:1041600055F90028E8D0019B626801359A42ADB24A
:10417000E6D1BDF80830B3421CD1BDF80C30CBB14C
:10418000A84517D82268BDF80A10A06A1144A28970
:104190003F0C07FB021184684B4528BF4B4624683F
:1041A0005246A04708B9BDF80C0004B0BDE8F0873E
:1041B0001023B9E76FF00100F7E76FF01500F4E79F
:1041C0006FF00C00F1E700BF10B582B0002400943E
:1041D000FFF796FF02B010BD430629D030B5154B4E
:1041E000154C164AE41AA41002FB04F4F4B19C46E0
:1041F0004FF0000E08259CF81C10DCF8203079B137
:104200000139C9B203F1080215FB012101E08B421B
:1042100006D01A79824203F10803F8D1012030BD9B
:104220000EF1010E74450CF1240CE4D1002030BDD8
:1042300001207047400B0020640B0020398EE338CA
:10424000F0B5114B114D124CED1AAD1004FB05F5F4
:104250009DB1104C676A4FF0000C5C68BC420CF1D9
:10426000010C06D31E6926B194F802E00479A64534
:1042700006D0AC4503F12403EFD16FF08500F0BD0B
:104280003346BDE8F0401847400B0020640B002087
:10429000398EE338E84800202DE9F043194E1A4CD6
:1042A0001A4B361BB61003FB06F683B0FEB1DFF8DF
:1042B0006080814600256368D8F82400834205F1B8
:1042C000010510D3A76977B193F802C099F80400EB
:1042D000844511D05B79012B05D14846CDE9001208
:1042E000B847DDE90012B54204F12404E3D16FF0D0
:1042F000850003B0BDE8F08348463B4603B0BDE807
:10430000F0431847640B0020400B0020398EE3383F
:10431000E84800202DE9F8430E4D0F4E0F4BAD1B22
:10432000AD1003FB05F58DB107468846914605EBB8
:10433000C5051436002456F824304A46093441464F
:1043400038460BB1984718B1AC42F4D16FF08500F4
:10435000BDE8F883640B0020400B0020398EE33861
:1043600000B5034683B0197993F805E0DA7893F83D
:1043700002C08DF800C041EA0E2102F00303684636
:10438000ADF802108DF8043007F08EFF10F1780FB1
:1043900000D070B99DF8000008F00CF810F1780F0B
:1043A00000D030B9054B012083F8B90003B05DF8A7
:1043B00004FB002003B05DF804FB00BFE8480020C8
:1043C00038B50B4D95F8B8400CB1002038BD00F061
:1043D00041FD50B1074B0849084AC5E90903084B9C
:1043E000AB61C5E90B12204638BD4FF0FF3038BD38
:1043F000E8480020814600004142000015430000CB
:10440000994200002DE9F04F2D4B2E4C2E4EDFF837
:10441000BC901B1B9B10042881B00746884603FBF9
:1044200006F621D0052815D05EB1264C0025E3689C
:104430002046013524344246394603B19847AE42FE
:10444000F5D1D9F8203063B14146384601B0BDE816
:10445000F04F184799F8B930002BE5D000F0FAFE7C
:10446000E2E701B0BDE8F08F99F8B9300025C9F84E
:10447000BB50C9F8BF50002BD6D000F0EBFEAEB158
:10448000237FD4F820A0ABB14FF0000B5B4602E0D5
:10449000227F9A420ED90AEBC3030BF1010B187964
:1044A00007F0B4FF00285FFA8BF3F1DA002389F8F4
:1044B000B930B9E70135AE4204F12404E0D1F5E7A3
:1044C000640B0020400B0020398EE338E8480020C0
:1044D000F0B5124CD4E9027683B00425019601AB05
:1044E00032463946802007F0C3FF0B3011D0D4E9A3
:1044F000022301990A445B1AC4E902233BB92369E8
:10450000E2889A4203DD9B0604BF0123237503B0B2
:10451000F0BD15F041FD013DE1D1E8E7E84800209C
:1045200030B585B000230193E8B180280ED1504CFE
:10453000E268237D002A43D19BB100231A46194625
:104540008020237507F094FF05B030BD49494A48E3
:104550004FF4C672FCF7DAFB46484FF4C671FEF71B
:104560000BFF05B030BD0D4600292FD0404CD4E9DB
:104570000212002A01AB66DD08F0D0F800286CDBDF
:10458000D4E9022301990A445B1AC4E90223002BEF
:10459000E7D12378C3F341130A3304F1380254F806
:1045A0002330A260002B53D004F1080204F1100163
:1045B0002046984700284BDB237D002BBDD101E02E
:1045C000002BBAD1FFF784FF05B030BD08220B469F
:1045D0000DEB020108F0A2F8002839DB244C9DF80D
:1045E00008209DF80910BDF80A306170BDF80C1064
:1045F00022706380A180BDF80E30E38004F13801A1
:104600001206C4E903552575A16002D4802B24D875
:1046100053BB2378C3F341130A3354F82330BBB19F
:10462000164A02F10801A2F10800984700280FDBA2
:10463000E3882169227D8B42A8BF0B46E360002AF4
:104640007FF47BAFBEE7024608F068F8002888DAFE
:10465000802007F04BFE05B030BD802007F046FEFD
:10466000002007F043FE7CE7C4E9033379E700BF8D
:10467000E8480020D8030300F4020300F0480020BB
:104680002DE9F047AE4EB36984B004460D46174697
:104690000BB1984790B1237803F01F03012B41D051
:1046A000022B00F090806BB16FF0150004B0BDE8F4
:1046B000F087A07807F0B8FD0028F5D1002004B0FD
:1046C000BDE8F08794F900206078002AC0F2A68047
:1046D0000528EED00928E7D16588002D00F0EE808E
:1046E000776A3A78002ADFD04FF0FF09C84608E021
:1046F000022A00F0F6803A7817443D78002D00F049
:10470000DA807A78042A00F0E980052AF0D16288FC
:104710004245F0D1B9F1000FEDD13846FFF720FE48
:104720000346E8E796F8BA30002BBDD0D6F82480CF
:10473000B4F8049098F800E05FFA89F1BEF1000F38
:10474000B2D07046434603E0034418780028ABD04B
:1047500093F801C0BCF1020FF6D11A798A42F3D95D
:1047600094F900206078002AC0F284800B289BD145
:1047700000274FF0FF09BA464D460DE0052B03D147
:10478000A388AB4200F0158198F80030984498F85F
:104790000030002B00F0048198F80130042BEDD19B
:1047A00098F80250A38898F803909D42AAB2EBD1E2
:1047B000638899451FFA89F1E6D1072A40F21681EC
:1047C000C2460027E0E794F900206378002A35DB31
:1047D000012B00F08D80032B7FF466AF6388002BE4
:1047E0007FF462AF24798DF80F402046FFF7F4FC88
:1047F00000283FF459AF630604D096F8BA30002B76
:104800003FF452AF204607F071FDF369002B3FF4EF
:1048100055AF0DF10F01082098474FE706283A6879
:1048200000F09280082800F0848000287FF43CAFDC
:1048300001210223507011702B6037E7002B7FF4A9
:1048400033AF24792046FFF7C7FC00283FF42CAF94
:10485000610604D096F8BA30002B3FF425AF3E68CD
:104860002046314607F08AFD002302227370184665
:104870002A601BE73A68002800F085800A2807D0E4
:1048800012E7F04498F800E0BEF1000F3FF40CAFDF
:1048900098F80130042BF4D198F802309945F0D102
:1048A000072B96BF9B19002393F8BB30137001218F
:1048B00000202960FAE6002B3FF4F6AE2149C6F845
:1048C000BB50F3694D60628886F8BA20002B3FF434
:1048D000F5AE0320013998472846E7E697F803909C
:1048E00009E797F805806288424508BF012302E77F
:1048F0006388002B7FF4D8AE24798DF80F402046D2
:10490000FFF76AFC00283FF4CFAE620604D096F8A9
:10491000BA30002B3FF4C8AE204607F00FFDF36914
:10492000002B3FF4CBAE09200DF10F01984700207A
:10493000BCE696F8BA001070012118462960B5E669
:10494000E8480020A349002060884FEA102CACF111
:104950000402012A7FF6A8AEBCF1070F3FF6A4AE11
:10496000726A117800293FF49FAEC0B204E00A4495
:10497000117800293FF498AE54786445F7D19842F5
:1049800006D00133F3E710705070C5F800C08DE613
:10499000BCF1020F3A601ED013782B60002085E630
:1049A000F36913B1514607209847002F7FF486AE74
:1049B0007AE6A3784B4512D098F80200019000F0F7
:1049C00015FC019807F022FD10F1780F0CD0B0FA19
:1049D00080F77F09D8E653882B60002066E64046C2
:1049E000FFF7BEFC0746CFE60127CDE63244C246BC
:1049F00082F8BB100127C7E62DE9F84381468846B7
:104A000017461E46042533463A464146484607F0B7
:104A10002FFD10F10B0F044602D02046BDE8F883AD
:104A200015F0BAFA013DEED12046BDE8F88300BF8B
:104A30002DE9F043044683B03D4D3E484FF0FF3230
:104A40004FF0FF3313F090FA95F8B8603EB10024B0
:104A5000384813F069FB204603B0BDE8F0833648C0
:104A6000C5E9070407F0A2FE07F050FB041EEFDBC8
:104A700000F01AFC041EEBDB40236846ADF8023060
:104A80008DF804608DF8006007F00EFC041EDFDB7B
:104A9000802768468DF8007007F006FC041ED7DBFF
:104AA0002649304607F04AFE041ED1DB234938462A
:104AB00007F044FE041ECBDB214B224A2249A3EB24
:104AC00002094FEAA90901FB09F9B9F1000F1FD04A
:104AD000904698F81C30D8F82070A3B100242346E3
:104AE00003E098F81C209A420DD907EBC30257F84F
:104AF0003310107907F022FE0134E3B20028F0D021
:104B00004FF0FF34A4E70136B14508F12408E0D1A5
:104B1000002007F04FFC041E9ADB802007F04AFCBF
:104B2000041E95DB012385F8B830002490E700BF10
:104B3000E848002038090020054400002145000015
:104B4000640B0020400B0020398EE33830B51D4D3A
:104B50001D4C0FCD8BB00DF1140CACE80F000023F1
:104B60002A688CF80020CDE90133CDE90333C4E98C
:104B70000033C4E902332382102101A808F024FE87
:104B800000281BDDA0F1080201A82346002AA8BFC7
:104B9000801804F1100510F8012B0AAC02F00F0187
:104BA000214404EB1212023312F8144C11F8142CA5
:104BB00003F8024CAB4203F8012CECD102480BB0D5
:104BC00030BD00BF04040300AC4900202DE9F04FC4
:104BD000994B9A499A4A5B1A89B09B1002FB03F3DE
:104BE0008146059399F800307BB30023CDE900336B
:104BF00002934FF0011B1E4699F80130052B00F27D
:104C00008380DFE803F003819303842B009B032B55
:104C100000F0A680009B002B40F00481029900293F
:104C200000F08E80A9EB0103C3F307228B70019B78
:104C3000CA700B7199F80040009B0133DBB20093FE
:104C4000A14499F80030002BD6D17E4B09F102091E
:104C50009945C7D1002009B0BDE8F08F002E6FD074
:104C6000327F002A6CD04FF00008012703E008F1E2
:104C70000108904564D2356A99F802C005EBC80571
:104C80002B796345F3D101240DE010EA0B0F05D118
:104C900006A88DF818A007F0EFFA48B30134102CDD
:104CA00049D099F802C099F8050099F8043099F8AC
:104CB000032043EA002304F1100102F003021CF078
:104CC000800F07FA04F007FA01F18DF81C20ADF807
:104CD0001A305FFA84FAD8D011EA0B0F6AF07F031A
:104CE000DCD106A88DF8183007F0C6FA0028D5D117
:104CF0009DF8183089F802302B711B0625D401234A
:104D000003FA04F44BEA040B99F8004098E799F889
:104D10000330002BF8D199F80230002B67D0019BAB
:104D200099F800400133DBB2019389E799F800401C
:104D3000CDF8089084E7327F08F1010890459AD3B6
:104D40004FF0FF3009B0BDE8F08F0AF11003DBB27D
:104D5000012202FA03F399F800404BEA030B6FE7D4
:104D6000FFF7F4FE09F10207044640B1FBF791FB9F
:104D7000054620B13448FBF78CFB854255D099F8A5
:104D800000404FEA5408E21EA8F102053FF554AF77
:104D9000A8F10303A3EB52033B44E21CCDE903B6A5
:104DA000DFF8ACA03D4402349B4616460BE0A5EB71
:104DB0000802F11B002001F81200E11B687801F8DD
:104DC0001200AB450ED015F80129203A5E2AEED923
:104DD00051461E48B222FBF799FFB2215046FEF71A
:104DE000CBFAE4E7DDE903B699F8004024E7059A39
:104DF000002AA5D01E460599104B02E00136B142AB
:104E00009ED05A684A4503F12403F7D10B4B06EBB9
:104E1000C60603EB8606B368002B80D0019948468E
:104E200098477CE709F10207A9E72A462146384658
:104E30002AF070FDA3E700BF640B0020400B0020A8
:104E4000398EE3383F0B002004040300F402030012
:104E50001804030008B50448FFF7B8FE024B002809
:104E60000CBF1846002008BD600A0020006810B979
:104E700009E0586838B1031F06D01A6852688A42A0
:104E800002D0181DF5D1704718467047006810B958
:104E90000BE0586848B1031F08D01A68526852687E
:104EA00092788A4202D0181DF3D170471846704795
:104EB000006830B3043824D000B54FF0080E036802
:104EC0005B681A7F1B6A8AB102F1FF3C5FFA8CFCB7
:104ED00003F108021EFB0C2C01E0634506D01A7991
:104EE0008A4203F10803F8D15DF804FB031D05D0E5
:104EF00040680028F8D00438E1D1F5E718465DF89D
:104F000004FB70472DE9F04150F8303C10F8345C58
:104F1000103382B004460CD1036950F8282C99074D
:104F200023D5002A48D113F004036FD0002344F89E
:104F3000303C54F8206CAEB154F8247C54F81C8CEE
:104F400012F070FE002851D144F8200CA4F1180092
:104F500013F0CAFA54F8303C8C3303D04246394639
:104F60002846B04702B0BDE8F08150F82C1C01ABD8
:104F7000284607F0FDFA00283FD154E90B23019E93
:104F80009B1B324444E90B2354F8243C334444F83B
:104F9000243C002ECAD0284607F00EFCB6FBF0F3E6
:104FA00003FB1066002EC1D154F8283C002BBDD065
:104FB000284607F029FB12E050F82C1C01AB2846CC
:104FC000FFF71AFDC8B954E90B13019A9B1A114453
:104FD00044E90B1354F8243C134444F8243C54F89B
:104FE000303C1033A5D102B0BDE8F08121460A481B
:104FF00013F0DEFD02B0BDE8F08154F8206C6FF0D4
:10500000150344F8303C002E96D1ABE71A461946FA
:105010002846FFF7F1FC89E7802C0020094B03F5B7
:1050200090711A78824204D048339942F9D1002015
:1050300070475A68002AF7D0103214BF00200120B0
:10504000704700BFC0490020F0B51D4F83B0054632
:105050000E463B4600241A78AA4213D00134042C91
:1050600003F14803F7D1012E01D003B0F0BD01AB2D
:1050700001220DF10301284607F07AFA019B002B6B
:10508000F5D1F2E75A68002AE8D0731E012BECD85C
:1050900012F0C8FD04EBC40407EBC40404F13401AE
:1050A00038B1012E05D0074803B0BDE8F04013F039
:1050B0007FBD084603B0BDE8F040FFF723BF00BF47
:1050C000C0490020802C00202DE9F04F454F83B0CF
:1050D000CDE900210646994607F590713A461378C6
:1050E000B34225D048328A42F9D14FF02003EFF382
:1050F000118B83F31288BFF36F8F00252C4607F1C5
:105100001C0A0AEB050800220023404613F02CFA83
:10511000C0B10134042C05F14805F2D16FF00B0346
:105120008BF31188BFF36F8F184603B0BDE8F08F83
:105130005368002BD6D013F1100FD6D1184603B008
:10514000BDE8F08F04EBC40407EBC40AE200DAF810
:10515000044014F1100F3FD0BE54019ACAF8082041
:10516000009A0C9BCAF81430CAE903200D9B0190E9
:105170006FF00F02CAF81830CAF84490CAF8042039
:10518000304607F019FB019B80B919F0020F00931C
:1051900007D005F134011448394413F009FD009B90
:1051A000BEE7304607F030FA0346B9E7304607F06D
:1051B00003FB009BB3FBF0F202FB1030019B0028C5
:1051C000E3D0DAF84420009342F0040219F0020F11
:1051D000CAF84420E5D0DCE7404613F085F92346C1
:1051E0009EE700BFC0490020802C002038B54FF05A
:1051F0002003EFF3118583F31288BFF36F8F134CF5
:10520000002123461A78824209D00131042903F192
:105210004803F7D185F31188BFF36F8F38BD5A6803
:10522000002AF2D01032F5D101EBC10104EBC10329
:1052300019466FF08B0234315A60054813F0B8FC00
:1052400085F31188BFF36F8F38BD00BFC0490020C0
:10525000802C00202DE9F041114CDFF8488004F546
:1052600090766FF08B074FF02003EFF3118583F3F7
:105270001288BFF36F8F54F8303C103308D085F399
:105280001188BFF36F8F4834B442ECD1BDE8F08190
:105290002146404644F8307C13F08AFCEFE700BF1B
:1052A000F4490020802C002070B5094C094E04F50B
:1052B00090753146204613F019FC0122A4F1180024
:1052C0001146483413F000F9A542F2D1002070BD18
:1052D000F4490020054F00004B1CDBB28170817641
:1052E00080F82530C37600F8061C704750E902317B
:1052F000806F18470369002283F82A20704700BF97
:10530000036993F82A0008B193F82800704700BF9A
:105310000369002283F82B20704700BF036993F8CC
:1053200029007047036993F8282012B193F82A20C6
:105330002AB993F8290018B193F82B00704701207F
:10534000704700BF012070470369C3E9001270472E
:105350000229036906D004290FD0012909D06FF072
:105360008500704793F87B30C3F34003002013603F
:1053700070475B6F13600020704793F87B3003F039
:10538000010300201360704708B501460348FFF78A
:105390008FFD10B1012300F8033C08BDE04A002056
:1053A00001690B68012281F82B2013B191F8293093
:1053B00003B970470148083113F0FABB802C002074
:1053C00001690B68012281F82A2013B191F8283075
:1053D00003B970470148083113F0EABB802C002064
:1053E00038B5056995F87E0018B195F87F300BB196
:1053F000002038BD85F82830286FFDF7BBFE05F189
:1054000018010446024813F0D3FB204638BD00BF04
:10541000802C002070B5144602F12C060A1E82B0C2
:1054200005460BDDE06E3146FDF7A4FE2368012240
:1054300084F8292013B194F82B3053B9084B40223B
:10544000CDE90034314601232846FFF73DFE02B086
:1054500070BD04F10801034813F0AAFBEEE700BF9A
:1054600015540000802C002010B5046982B094F817
:105470007E308DF8071013B194F87F300BB102B075
:1054800010BD0DF10701206F84F828300122FDF7CF
:1054900071FE014668B9206F0122FDF709FF00285F
:1054A000EDD0206F01220DF10701FDF763FE00280A
:1054B000E5D004F11801024813F07AFB02B010BDE8
:1054C000802C002038B50569E86EFDF7F1FE044632
:1054D000E86EFDF7FDFD10B1002385F82930204668
:1054E00038BD00BF10B514460122236884F8282077
:1054F00013B194F82A3023B9206FFDF7E9FD50B1BC
:1055000010BD084804F1080113F052FB206FFDF7AD
:10551000DFFD0028F4D104F118010248BDE8104075
:1055200013F046BB802C002038B50E4B0469596837
:10553000C4F88000002504F18402C4F8845069B1E5
:105540000A605A6004F10800074913F0CFFA04F129
:105550001800064913F0CAFA002038BDC3E900223A
:10556000F0E700BFE04A0020ED5200007155000056
:10557000836E70B55B681B6A1E7D84B0044630463E
:10558000FFF74CFD08B104B070BDA06D4FF4806210
:1055900003A9FDF73FFE05460028F4D083060A4B19
:1055A000039908BF00F1FF35A4F11802CDE90032DC
:1055B000304602232A46FFF787FDA06D2946FDF7F6
:1055C00059FE04B070BD00BFE554000070B504463C
:1055D0000D46017918481646FFF758FC40B394F978
:1055E00000206378002A07DB202B14D0222B0CD05C
:1055F0006FF08503184670BD212BF9D10C380722B6
:10560000002330602A60184670BD638800F8053CAE
:105610000023184670BD3268116840F80C1C918850
:10562000927900F8062C002320F8081C184670BD5B
:105630006FF01203DEE700BFE04A00200C4A034689
:1056400092E803004FF0000C0A0C5867A3F878109A
:1056500083F87A20A3F87EC0A3F828C083F87CC022
:1056600083F87BC04022614603F12C002AF08DB9FB
:105670009002030030B5002385B081F87D300D46DF
:10568000016AADF80C200220ADF80830ADF80A0030
:105690000879ADF80630A12120228DF804108DF88C
:1056A000052001A90A22FFF7A7F9064C04E0012012
:1056B00015F0F2F9013C03D095F87D30002BF6D0BF
:1056C00005B030BDA1860100402938B505691446F2
:1056D0005FD019D84B1E1F2B13D81F2B11D8DFE812
:1056E00003F03C1010101010103F1010101010108C
:1056F000104F10101010101010101010101010106B
:1057000010336FF0120038BDB1F5807F4AD0B1F58B
:10571000007F0ED195F87C2002F0BF020CB142F060
:10572000400285F87C2040682946FFF7A3FF00204F
:1057300038BD8029E5D195F87C2002F0EF02002CDD
:10574000EFD042F01002ECE795F87C2002F0FB026B
:10575000002CE6D042F00402E3E76C67002038BD7D
:1057600095F87C3003F0FE030CB143F0010385F89B
:105770007C30406801222946FFF77CFF002038BDBD
:1057800095F87C2002F0FD02002CCAD042F0020203
:10579000C7E795F87C2002F0F702002CC1D042F058
:1057A0000802BEE795F87C2002F0DF02002CB8D09A
:1057B00042F02002B5E700BF38B505690122E86E66
:1057C000FDF776FD0446E86EFDF782FC10B100237C
:1057D00085F82930601E18BF4FF0FF3038BD00BF7C
:1057E00030B5024683B00C462E481146FFF73EFB0B
:1057F00078B10246611E52F8803905465B6805297A
:1058000007D8DFE801F008062508030E012305F894
:10581000013C03B030BD104603B0BDE83040FFF797
:105820000DBF15F8011C0029F3D015F8021C00204B
:1058300005F8010C0029ECD01B6A1B49187BCDE947
:10584000001201234022A5F15401FFF73DFCE0E7DF
:1058500015F8021CB1B115F8583C002BD9D155F8F8
:10586000803C012205F8582C002BD2D015F8563C6C
:10587000002BCED00D48A5F1780103B0BDE8304033
:1058800013F096B91B6A0849187BCDE90012012371
:105890004022A5F15401FFF717FC012305F8023C53
:1058A000D9E700BFE04A002015540000802C0020FA
:1058B00010B582B000240848084900944FF0FF3327
:1058C0004FF4806213F0CCF90549034812F0B0F9A7
:1058D000204602B010BD00BF802C002000B1002087
:1058E000A804030038B5144811F046FE08B38368D5
:1058F0005D68044655B1114901231022A84710F1F3
:10590000860F03D0002814DB002038BDA5682B6863
:1059100023B10A49102220469847F3E7084909486D
:105920004B22FBF7F3F906484B21FDF725FD2B68C9
:10593000EFE76FF0150038BDB4040300E84A00201B
:10594000C0040300F40203000D4B10B4D3E902209D
:10595000D3E9001480EA040C08444A4001EB70606B
:1059600081EA0C0119604FEA7C51D96084EA020196
:1059700082EA4422C3E901125DF8044B704700BF7C
:10598000E84A002003684A68934218D330B48C6810
:105990001444A34210D2D1E90445AC4211D29B1A5F
:1059A000CA68406842F8343002EBC402651C50609B
:1059B00001200D6130BC7047002030BC70470120D1
:1059C00070476FF00B03002030BC8B61704700BF45
:1059D000104B1B68D3B1104A10B41468002C10DDB2
:1059E000002203E0944203F110030AD093F800C0B0
:1059F000844502F10102F5D100205DF8044B0B60F3
:105A000070476FF001005DF8044B70476FF00C00B9
:105A1000704700BFE80000205405030030B51A4B62
:105A20001C6889B0002C019027DD184B0D461B68BF
:105A30004FF0000C03E0A44503F110031DD093F8D0
:105A400000E070450CF1010CF5D1D3E90141CDE93D
:105A500002412968D8680023CDE90423CDE9061363
:105A600011F08AFD68B10A4901AA08F04BF80798BD
:105A700008B9059B2B6009B030BD6FF0150009B067
:105A800030BD6FF01200F6E754050300E800002077
:105A900085590000F8B50E4B1F68B7B104460D4696
:105AA00016464FF0FF324FF0FF330A4812F05CFA0F
:105AB0007A6833462146966838462A46B0470446F7
:105AC000044812F031FB2046F8BD6FF00104FAE7FC
:105AD000004B002010090020054B5A68002101608E
