:1000000000CF0020DDA5000081A00000B1A5000008
:10001000B1A50000B1A50000B1A5000000000000DE
:10002000000000000000000000000000C1A100006E
:10003000B1A500000000000031A10000B1A5000042
:1000400045A3000045A3000045A3000045A3000010
:1000500045A3000045A3000045A3000045A3000000
:1000600045A3000045A3000045A3000045A30000F0
:1000700045A3000045A3000045A3000045A30000E0
:1000800045A3000045A3000045A3000045A30000D0
:1000900045A3000045A3000045A3000045A30000C0
:1000A00045A3000045A3000045A3000045A30000B0
:1000B00045A3000045A3000045A3000045A30000A0
:1000C00045A3000045A3000045A3000045A3000090
:1000D00045A3000045A3000045A3000045A3000080
:1000E00045A3000045A3000045A3000045A3000070
:1000F00045A3000045A3000045A3000045A3000060
:1001000001F0FF01102A2BDB10F0070F08D010F8C8
:10011000013B013A8B422DD010F0070F42B3F6D1CC
:10012000F0B441EA012141EA014122F007047FF0E5
:1001300000070023F0E80256083C85EA010586EA3C
:10014000010685FA47F5A3FA87F586FA47F6A5FA78
:1001500087F68EB9EED1F0BC01F0FF0102F0070284
:1001600032B110F8013B013A83EA010313B1F8D12F
:100170000020704701387047002D06BF3546033810
:10018000073815F0010F07D1013015F4807F02BF49
:10019000013015F4C03F0130F0BC0138704700BF9A
:1001A00081F0004102E000BF83F0004330B54FEA28
:1001B00041044FEA430594EA050F08BF90EA020F95
:1001C0001FBF54EA000C55EA020C7FEA645C7FEA28
:1001D000655C00F0E2804FEA5454D4EB5555B8BF4B
:1001E0006D420CDD2C4480EA020281EA030382EABC
:1001F000000083EA010180EA020281EA0303362D4E
:1002000088BF30BD11F0004F4FEA01314FF4801C20
:100210004CEA113102D0404261EB410113F0004F32
:100220004FEA03334CEA133302D0524263EB4303E9
:1002300094EA050F00F0A780A4F10104D5F1200E87
:100240000DDB02FA0EFC22FA05F2801841F10001E2
:1002500003FA0EF2801843FA05F359410EE0A5F1B6
:1002600020050EF1200E012A03FA0EFC28BF4CF0E7
:10027000020C43FA05F3C01851EBE37101F000459D
:1002800007D54FF0000EDCF1000C7EEB00006EEBAA
:100290000101B1F5801F1BD3B1F5001F0CD3490834
:1002A0005FEA30004FEA3C0C04F101044FEA44528B
:1002B00012F5800F80F09A80BCF1004F08BF5FEA12
:1002C000500C50F1000041EB045141EA050130BDF2
:1002D0005FEA4C0C404141EB0101013C28BFB1F504
:1002E000801FE9D291F0000F04BF01460020B1FA4F
:1002F00081F308BF2033A3F10B03B3F120020CDA22
:100300000C3208DD02F1140CC2F10C0201FA0CF0FF
:1003100021FA02F10CE002F11402D8BFC2F1200C64
:1003200001FA02F120FA0CFCDCBF41EA0C0190401A
:10033000E41AA2BF01EB0451294330BD6FEA040463
:100340001F3C1CDA0C340EDC04F11404C4F120024E
:1003500020FA04F001FA02F340EA030021FA04F360
:1003600045EA030130BDC4F10C04C4F1200220FAB7
:1003700002F001FA04F340EA0300294630BD21FAF5
:1003800004F0294630BD94F0000F83F4801306BFBB
:1003900081F480110134013D4EE77FEA645C18BFAF
:1003A0007FEA655C29D094EA050F08BF90EA020F46
:1003B00005D054EA000C04BF1946104630BD91EA3E
:1003C000030F1EBF0021002030BD5FEA545C05D141
:1003D0004000494128BF41F0004130BD14F5800480
:1003E0003CBF01F5801130BD01F0004545F0FE41F4
:1003F00041F470014FF0000030BD7FEA645C1ABF29
:10040000194610467FEA655C1CBF0B46024650EA5F
:10041000013406BF52EA033591EA030F41F400218B
:1004200030BD00BF90F0000F04BF0021704730B511
:100430004FF4806404F132044FF000054FF00001E6
:1004400050E700BF90F0000F04BF0021704730B5A7
:100450004FF4806404F1320410F0004548BF40427C
:100460004FF000013EE700BF42004FEAE2014FEAD1
:1004700031014FEA02701FBF12F07F4393F07F4FAC
:1004800081F06051704732F07F4208BF704793F0AF
:100490007F4F04BF41F40021704730B54FF46074C2
:1004A00001F0004521F000411CE700BF50EA0102C5
:1004B00008BF704730B54FF000050AE050EA01026E
:1004C00008BF704730B511F0004502D5404261EBDE
:1004D00041014FF4806404F132045FEA915C3FF41F
:1004E000D8AE4FF003025FEADC0C18BF03325FEABC
:1004F000DC0C18BF033202EBDC02C2F1200300FA6D
:1005000003FC20FA02F001FA03FE40EA0E0021FA91
:1005100002F11444BDE600BF70B54FF0FF0C4CF47F
:10052000E06C1CEA11541DBF1CEA135594EA0C0F31
:1005300095EA0C0F00F0DEF82C4481EA030621EA6C
:100540004C5123EA4C5350EA013518BF52EA0335A7
:1005500041F4801143F4801338D0A0FB02CE4FF059
:100560000005E1FB02E506F00042E0FB03E54FF089
:100570000006E1FB03569CF0000F18BF4EF0010E81
:10058000A4F1FF04B6F5007F64F5407404D25FEA7D
:100590004E0E6D4146EB060642EAC62141EA555130
:1005A0004FEAC52040EA5E504FEACE2EB4F1FD0C72
:1005B00088BFBCF5E06F1ED8BEF1004F08BF5FEAF0
:1005C000500E50F1000041EB045170BD06F00046A2
:1005D00046EA010140EA020081EA0301B4EB5C044F
:1005E000C2BFD4EB0C0541EA045170BD41F4801147
:1005F0004FF0000E013C00F3AB8014F1360FDEBF6C
:10060000002001F0004170BDC4F10004203C35DA47
:100610000C341BDC04F11404C4F1200500FA05F3CA
:1006200020FA04F001FA05F240EA020001F000426B
:1006300021F0004110EBD37021FA04F642EB0601E1
:100640005EEA430E08BF20EAD37070BDC4F10C040B
:10065000C4F1200500FA04F320FA05F001FA04F2CF
:1006600040EA020001F0004110EBD37041F10001BB
:100670005EEA430E08BF20EAD37070BDC4F12005C6
:1006800000FA05F24EEA020E20FA04F301FA05F22E
:1006900043EA020321FA04F001F0004121FA04F2D6
:1006A00020EA020000EBD3705EEA430E08BF20EAA6
:1006B000D37070BD94F0000F0FD101F000464000E0
:1006C00041EB010111F4801F08BF013CF7D041EA62
:1006D000060195F0000F18BF704703F00046520066
:1006E00043EB030313F4801F08BF013DF7D043EA37
:1006F0000603704794EA0C0F0CEA135518BF95EAED
:100700000C0F0CD050EA410618BF52EA4306D1D173
:1007100081EA030101F000414FF0000070BD50EA92
:10072000410606BF1046194652EA430619D094EA1C
:100730000C0F02D150EA013613D195EA0C0F05D106
:1007400052EA03361CBF104619460AD181EA03015A
:1007500001F0004141F0FE4141F470014FF0000012
:1007600070BD41F0FE4141F4780170BD70B54FF0AD
:10077000FF0C4CF4E06C1CEA11541DBF1CEA13552D
:1007800094EA0C0F95EA0C0F00F0A7F8A4EB05040F
:1007900081EA030E52EA03354FEA013100F0888006
:1007A0004FEA03334FF0805545EA131343EA1263CF
:1007B0004FEA022245EA111545EA10654FEA002684
:1007C0000EF000419D4208BF964244F1FD0404F53D
:1007D000407402D25B084FEA3202B61A65EB030599
:1007E0005B084FEA32024FF480104FF4002CB6EB56
:1007F000020E75EB030E22BFB61A754640EA0C00D6
:100800005B084FEA3202B6EB020E75EB030E22BF15
:10081000B61A754640EA5C005B084FEA3202B6EB56
:10082000020E75EB030E22BFB61A754640EA9C0015
:100830005B084FEA3202B6EB020E75EB030E22BFE5
:10084000B61A754640EADC0055EA060E18D04FEAA3
:10085000051545EA16754FEA06164FEAC30343EA43
:1008600052734FEAC2025FEA1C1CC0D111F4801F10
:100870000BD141EA00014FF000004FF0004CB6E709
:1008800011F4801F04BF01430020B4F1FD0C88BFA8
:10089000BCF5E06F3FF6AFAEB5EB030C04BFB6EBB3
:1008A000020C5FEA500C50F1000041EB045170BDA6
:1008B0000EF0004E4EEA113114EB5C04C2BFD4EBD3
:1008C0000C0541EA045170BD41F480114FF0000E57
:1008D000013C90E645EA060E8DE60CEA135594EAD3
:1008E0000C0F08BF95EA0C0F3FF43BAF94EA0C0FD6
:1008F0000AD150EA01347FF434AF95EA0C0F7FF44B
:1009000025AF104619462CE795EA0C0F06D152EA9E
:1009100003353FF4FDAE1046194622E750EA410682
:1009200018BF52EA43067FF4C5AE50EA41047FF493
:100930000DAF52EA43057FF4EBAE12E74FEA4102F6
:1009400012F5001215D211D56FF47873B3EB625221
:1009500012D94FEAC12343F0004343EA505311F048
:10096000004F23FA02F018BF404270474FF00000DA
:10097000704750EA013005D111F0004008BF6FF018
:10098000004070474FF00000704700BF80F000400B
:1009900002E000BF81F0004142001FBF5FEA410357
:1009A00092EA030F7FEA226C7FEA236C6AD04FEA57
:1009B0001262D2EB1363C1BFD2184140484041409C
:1009C000B8BF5B42192B88BF704710F0004F40F44E
:1009D000000020F07F4018BF404211F0004F41F46A
:1009E000000121F07F4118BF494292EA030F3FD036
:1009F000A2F1010241FA03FC10EB0C00C3F1200349
:100A000001FA03F100F0004302D5494260EB4000D7
:100A1000B0F5000F13D3B0F1807F06D340084FEA42
:100A2000310102F10102FE2A51D2B1F1004F40EB37
:100A3000C25008BF20F0010040EA0300704749009F
:100A400040EB0000013A28BFB0F5000FEDD2B0FA3C
:100A500080FCACF1080CB2EB0C0200FA0CF0AABF5F
:100A600000EBC25052421843BCBFD04018437047FD
:100A700092F0000F81F4000106BF80F40000013203
:100A8000013BB5E74FEA41037FEA226C18BF7FEADA
:100A9000236C21D092EA030F04D092F0000F08BF1C
:100AA0000846704790EA010F1CBF0020704712F003
:100AB0007F4F04D1400028BF40F00040704712F142
:100AC00000723CBF00F50000704700F0004343F0A7
:100AD000FE4040F4000070477FEA226216BF0846DD
:100AE0007FEA23630146420206BF5FEA412390EAA0
:100AF000010F40F4800070474FF0000304E000BF96
:100B000010F0004348BF40425FEA000C08BF704746
:100B100043F0964301464FF000001CE050EA01020A
:100B200008BF70474FF000030AE000BF50EA01021F
:100B300008BF704711F0004302D5404261EB41010C
:100B40005FEA010C02BF84460146002043F0B64331
:100B500008BFA3F18053A3F50003BCFA8CF2083A56
:100B6000A3EBC25310DB01FA02FC634400FA02FC5F
:100B7000C2F12002BCF1004F20FA02F243EB020066
:100B800008BF20F00100704702F1200201FA02FCC8
:100B9000C2F1200250EA4C0021FA02F243EB0200BB
:100BA00008BF20EADC70704753B94AB9002908BF72
:100BB00000281CBF4FF0FF314FF0FF3000F00CB8A1
:100BC000ADF1080C6DE904CE01F0F8FADDF804E0AF
:100BD000DDE9022304B07047704700BF2DE9F14FF3
:100BE00003F11C0402EB840C4FEA930B8A68CB6878
:100BF0000868496800F046F93CE9F0006040694047
:100C000072407B400BF1060E4EE083EA134480EA0B
:100C1000134582EA134746BA96EA3444604000F02E
:100C20000F1684EA063420F00F1684EA161054BA20
:100C300094EA0106724002F00F1486EA043622F0AC
:100C40000F1486EA14124CBA6540694001F00F1483
:100C500085EA043521F00F1485EA14115CBA674067
:100C60007B4003F00F1487EA043723F00F1487EA60
:100C7000141344BA44404DBA4D4056BA56405FBA78
:100C80005F4087EA174886EA174B84EA17464FEA1F
:100C900038488BEA1B4485EA1B4788EA1B4580EAF3
:100CA0003440694072407B4000F0703400F0803581
:100CB00000F00F3040EA440040EAD50080EA90049A
:100CC00004F0332480EA8400604001F0703401F0C5
:100CD000803501F00F3141EA440141EAD50181EA52
:100CE000910404F0332481EA8401614002F07034FD
:100CF00002F0803502F00F3242EA440242EAD502A5
:100D000082EA920404F0332482EA8402624003F00F
:100D1000703403F0803503F00F3343EA440343EAB1
:100D2000D50383EA930404F0332483EA8403634005
:100D3000C943DB4381EA000483EA044686EA0201F0
:100D400083EA014382EA334583EA14435C4084EA40
:100D500000077FEA040A8AEA024A8AEA010B87EA64
:100D600011488AEA374A80EA060181EA1A418AEA8A
:100D7000030A04EA0A00454088EA040707EA0B0070
:100D800041408AEA0B0608EA060084EA34428AEA0D
:100D90003A4602EA060358404540414087EA374355
:100DA0008BEA3B4003EA000985EA090582EA030968
:100DB000464006EA0906714085EA010005EA354623
:100DC000464006EA314181EA304181EA364606EA88
:100DD000304686EA354634400F4086EA010508EA87
:100DE000050886EA3640024088EA020881EA314274
:100DF00013405C4080EA020309EA030987EA090715
:100E0000674088EA040806EA0A0601EA0B018AEA52
:100E10000B0425408AEA3A44204045408BEA3B4B8C
:100E200002EA0B02564084EA0B04234059406E400C
:100E3000694087EA364080EA384080EA060380EA63
:100E4000104481EA134585EA344585EA17427D401E
:100E500082EA354180EA05403CE9F00060406940A3
:100E600072407B40BEF1010E3FF6CFAE20BC00F0D9
:100E70005FF828606960AA60EB60BDE8F08F00BF92
:100E800000F000BA80EA101404F0F01480EA0410B4
:100E9000604081EA111404F0F01481EA0411614009
:100EA00082EA121404F0F01482EA0412624083EA27
:100EB000131404F0F01483EA0413634080EA10244E
:100EC00004F47F4480EA0420604081EA112404F4A1
:100ED0007F4481EA0421614082EA122404F47F44C1
:100EE00082EA0422624083EA132404F47F4483EA02
:100EF0000423634081EA500404F0553480EA44003E
:100F0000614083EA520404F0553482EA44026340AB
:100F100082EA900404F0333480EA8400624083EA79
:100F2000910404F0333481EA84016340704700BFC8
:100F300082EA900404F0333480EA8400624083EA59
:100F4000910404F0333481EA8401634081EA50045F
:100F500004F0553480EA4400614083EA520404F00E
:100F6000553482EA4402634080EA102404F47F444A
:100F700080EA0420604081EA112404F47F4481EA7D
:100F80000421614082EA122404F47F4482EA0422AC
:100F9000624083EA132404F47F4483EA0423634019
:100FA00080EA101404F0F01480EA0410604081EA32
:100FB000111404F0F01481EA0411614082EA121461
:100FC00004F0F01482EA0412624083EA131404F07D
:100FD000F01483EA04136340704700BF2DE9F14F1A
:100FE00094464FEA930B8A68CB6808684968FFF714
:100FF00049FF0BF1060E33E083EA134480EA134500
:1010000082EA134746BA96EA3444604000F00F166D
:1010100084EA063420F00F1684EA161054BA94EAD3
:101020000106724002F00F1486EA043622F00F1413
:1010300086EA14124CBA6540694001F00F1485EA43
:10104000043521F00F1485EA14115CBA67407B4027
:1010500003F00F1487EA043723F00F1487EA141300
:10106000BCE8F0006040694072407B4000F0E03432
:1010700000F0103500F00F3040EA540040EAC5009F
:1010800080EA900404F0332480EA8400604001F098
:10109000E03401F0103501F00F3141EA540141EA2A
:1010A000C50181EA910404F0332481EA840161409E
:1010B00002F0E03402F0103502F00F3242EA54023E
:1010C00042EAC50282EA920404F0332482EA8402EE
:1010D000624003F0E03403F0103503F00F3343EACD
:1010E000540343EAC50383EA930404F0332483EAF8
:1010F0008403634081EA324787EA134581EA354633
:1011000090EA060484EA034B82EA1B4280EA044424
:1011100084EA054483EA144A85EA14448BEA044BC2
:1011200084EA374481EA0B4181EA164104EA0A0065
:10113000454082EA04082BEA080041408AEA0B068F
:1011400002EA060084EA34438AEA3A4603EA0607DA
:1011500078404540414088EA38478BEA3B4007EAFF
:10116000000985EA090583EA0709464006EA0906F7
:10117000714085EA010005EA3546464006EA3141FC
:1011800081EA304181EA364606EA304686EA35464B
:10119000344008EA010886EA01052A4086EA36401A
:1011A00003405A4081EA31431F407C4080EA0307F4
:1011B00009EA070988EA0908544088EA020806EAA9
:1011C0000A0601EA0B018AEA0B0215408AEA3A4252
:1011D000104045408BEA3B4003405E404240174090
:1011E00079404D404E40E443F64386EA18435D4063
:1011F00085EA054083EA134386EA034183EA3842DD
:1012000084EA114383EA04435FEA3343BEF1010EEB
:101210003FF6F2AE1ED4BCE8F00060406940724078
:101220007B4020BCFFF784FE28606960AA60EB6009
:10123000BDE8F08F2DE9E0414FF2F00280EA103175
:10124000114080EA0130484041088208C3084FF04D
:10125000000E4FE700F0113001F0113102F01132B1
:1012600003F0113340EA410040EA820040EAC30043
:101270004FF2F00280EA1031114080EA013048401C
:10128000BDE8E0812DE9F04F02F11C050646074656
:1012900000EB850851F8040B043A46F8040BF9D129
:1012A0004FF0010CFFF7C6FF5FEA302080EA0C0028
:1012B0001ECF41404A4053405C401EC62000464578
:1012C00017D04FEA4C0C1CF4807F18BFACF1E50C32
:1012D0002C2DE7D03C2D06D1FFF7ACFF06CF4140C7
:1012E0004A4006C6100006CF41404A4006C61000DC
:1012F000D8E736E90F00FFF7C5FD043D86E80F008B
:10130000F7D1BDE8F08F00BF2DE9F00391E8F803B5
:10131000B2E802105B1854EB0C04B2E802104D4125
:1013200056EB0C0692E806104F4158EB020859EBB9
:101330000C0980E8F80380410130BDE8F0037047F4
:101340002DE9F00391E8F803B2E802105B1A74EBA0
:101350000C04B2E802108D4176EB0C0692E8061000
:101360008F4178EB020879EB0C0980E8F8038041A3
:101370004042BDE8F00370472DE9F003524290E887
:101380003800B1E880031740DB1918EA020854EB73
:10139000080419EA020955EB090538C090E87800FD
:1013A00091E8820311404B4117407C4118EA020842
:1013B00055EB080519EA020956EB090678C0804189
:1013C0000130BDE8F00370472DE9F003524290E888
:1013D0003800B1E880031740DB1B18EA020874EB01
:1013E000080419EA020975EB090538C090E878008D
:1013F00091E8820311408B411740BC4118EA020872
:1014000075EB080519EA020976EB090678C08041F8
:101410004042BDE8F00370472DE9F00152424FF021
:10142000030890E8300091E8C000A31B1340E41AC1
:10143000F618EB1B1340ED1AFF1830C0C0C1B8F10D
:101440000108EED104680E68A31B1340E41AF618D5
:1014500004600E60BDE8F001704700BF00B592EC7B
:10146000070AB1E8005E07EE101A56EC102A58EC95
:10147000117AA9FB0250AAFB0234E9FB6603EBFBDD
:10148000624340EC145AAAFB0605ECFB6235E9FB0B
:101490006740E9FB6830EEFB6250AAFB0721EAFBDC
:1014A0006851EBFB680112EE108AEBFB6632ECFB35
:1014B0006652EAFB6802EBFB681243EC154AA9FB93
:1014C000084312EE908AE9FB6803EAFB6813EBFB22
:1014D0006823EBFB6754EEFB660413EE108AE9FB0E
:1014E0006814EAFB6824EBFB683406EE105A17EE2A
:1014F000109A99E8000CACFB076511EE909AECFB92
:101500006915EEFB6925EAFB6935EBFB694510EED1
:10151000109AEAFB6906EBFB691612EE109AECFBD7
:101520006926EEFB6936EAFB6946EBFB695610EE6D
:10153000909AAAFB0987EBFB692712EE909AECFBC5
:101540006937EEFB6947EAFB6957EBFB696711EE08
:10155000109AEEFB6918EAFB6928EBFB693813EE79
:10156000109AECFB6948EEFB6958EAFB6968EBFBF3
:10157000697800BD2DE9F04F07EE900AFFF76EFF86
:1015800017EE909AA9EC054A89E8FF01BDE8F08FB3
:1015900000B591E8805FA7FB0750A7FB0834E7FB85
:1015A0006803E7FB694340EC145AA7FB0905E7FB16
:1015B0006A35E8FB6840E7FB6A30E7FB6B50A8FB45
:1015C0000921E7FB6B51E7FB6C01E8FB6932E8FBA3
:1015D0006A52E7FB6C02E7FB6E1243EC154AA8FB6C
:1015E0000A43E8FB6B03E7FB6E13E8FB6E23E9FBA2
:1015F0006954E8FB6B04E8FB6C14E8FB6E24E9FB20
:101600006E3406EE105AA9FB0A65E8FB6C15E9FB7F
:101610006C25E9FB6E35EAFB6E45E9FB6A06E9FBE2
:101620006B16E9FB6C26EAFB6C36EAFB6E46EBFBBD
:101630006E56A9FB0B87EAFB6B27EAFB6C37EBFBCB
:101640006C47EBFB6E57ECFB6E67EAFB6A18EAFB34
:101650006B28EBFB6B38EBFB6C48ECFB6C58ECFB42
:101660006E68EEFB6E7800BD2DE9F04F07EE900A34
:10167000FFF78EFF17EE909AA9EC054A89E8FF0163
:10168000BDE8F08F2DE9F00791E8F807B2E8021005
:101690005B1854EB0C04B2E802104D4156EB0C06FB
:1016A000B2E802104F4158EB0C08B2E8021059EBB7
:1016B00001095AEB0C0A80E8F80780410130BDE8C7
:1016C000F00770472DE9F00791E8F807B2E802103B
:1016D0005B1A74EB0C04B2E802108D4176EB0C0639
:1016E000B2E802108F4178EB0C08B2E8021079EBF7
:1016F00001097AEB0C0A80E8F80780414042BDE816
:10170000F00770472DE9F007524290E87800B1E801
:1017100080071740DB1918EA020854EB080419EA9D
:10172000020955EB09051AEA020A56EB0A0678C0C7
:1017300090E87800B1E8800717407B4118EA02087A
:1017400054EB080419EA020955EB09051AEA020AE2
:1017500056EB0A0678C080410130BDE8F0077047BB
:101760002DE9F007524290E87800B1E88007174071
:10177000DB1B18EA020874EB080419EA020975EB8E
:1017800009051AEA020A76EB0A0678C090E87800A2
:10179000B1E880071740BB4118EA020874EB08045F
:1017A00019EA020975EB09051AEA020A76EB0A063C
:1017B00078C080414042BDE8F00770472DE9F00154
:1017C00052424FF0040890E8300091E8C000A31B9B
:1017D0001340E41AF618EB1B1340ED1AFF1830C043
:1017E000C0C1B8F10108EED1BDE8F001704700BFFB
:1017F00000B592EC080AB1E8805707EE101A53ECD6
:10180000102A56EC114AA7FB0251A8FB020BE7FB7A
:101810006310E9FB62B041EC145AA8FB0351EAFBE8
:101820006201E7FB64B5E7FB6605E8FB661505EEBC
:1018300010BAA9FB03B6EAFB6316ECFB6356E8FBA0
:10184000640BE9FB641BEAFB645BECFB646B05EE79
:10185000900AACFB023012EE104AEEFB6250E9FB3C
:101860006460EAFB64B0E7FB6431E8FB645112EEAC
:10187000904AE8FB6461E9FB64B1EAFB640106EEAF
:10188000103AA7FB043213EE104AE7FB6462E8FB50
:1018900064B2E9FB6402EAFB641211EE904AE9FBD0
:1018A0006453EAFB646313EE904AE7FB64B3E8FB1E
:1018B0006403E9FB6413EAFB642306EE905A17EE17
:1018C000109A99E8000610EE108AA9FB0854EAFB6A
:1018D00068B412EE108AECFB6804EEFB6814E9FBB6
:1018E0006824EAFB683410EE908AEEFB6865E9FB39
:1018F00068B5EAFB680512EE908AECFB6815EEFB12
:101900006825E9FB6835EAFB684507EE106A11EEC9
:10191000108AAEFB0876E9FB6806EAFB681613EE50
:10192000108AECFB6826EEFB6836E9FB6846EAFBAA
:10193000685611EE908AECFB68B7EEFB6807E9FB8E
:101940006817EAFB682713EE908AECFB6837EEFB1A
:101950006847E9FB6857EAFB686700BD2DE9F04F6F
:1019600007EE900AFFF744FF17EE908A07EE90BA51
:10197000A8EC084A88E8FF00BDE8F08F00B591E8C0
:101980009857A3FB0352A3FB0401E3FB6420E3FB92
:10199000671042EC145AA3FB0752E3FB6802E4FB16
:1019A0006415E3FB6805E3FB6925A4FB07B6E3FBCD
:1019B0006926E3FB6A56E4FB670BE4FB682BE3FB59
:1019C0006A5BE3FB6C6B40EC151AA4FB0810E4FBAC
:1019D0006950E3FB6C60E3FB6EB0E7FB6721E4FB5F
:1019E0006951E4FB6A61E3FB6EB1E4FB6E0106EE54
:1019F000102AA7FB0832E4FB6A62E4FB6CB2E4FB4A
:101A00006E02E7FB6E12E7FB6853E7FB6963E4FBDA
:101A10006CB3E7FB6C03E7FB6E13E8FB6E2306EE8B
:101A2000905AA7FB0954E7FB6AB4E7FB6C04E8FB98
:101A30006C14E8FB6E24E9FB6E34E8FB6865E7FB99
:101A40006AB5E8FB6A05E8FB6C15E9FB6C25E9FB68
:101A50006E35EAFB6E4507EE106AA8FB0976E8FBD7
:101A60006A06E9FB6A16E9FB6C26EAFB6C36EAFBC0
:101A70006E46ECFB6E56E8FB69B7E9FB6907E9FBCC
:101A80006A17EAFB6A27EAFB6C37ECFB6C47ECFB56
:101A90006E57EEFB6E6700BD2DE9F04F07EE900A22
:101AA000FFF76CFF17EE908A07EE90BAA8EC084A91
:101AB00088E8FF00BDE8F08F30B44FF0000310F865
:101AC000014B11F8015B013A84EA050443EA04037F
:101AD000F5D1A3F101034FEAD37030BC704700BFCA
:101AE0004FF0000310F8012B013943EA0203F9D14A
:101AF000A3F101034FEAD370704700BF30B411F86F
:101B0000014B12F8015B6C4000F8014B013BF6D130
:101B100030BC70472DE9F00391E8F803B2E80210F9
:101B20005B1854EB0C04B2E802104D4156EB0C0666
:101B300092E806104F4158EB020859EB0C09894115
:101B4000013B74F1000475F1000576F1FF3677F181
:101B5000FF3778F1FF3879F1FF3951F1000113EBCC
:101B6000D17354F1000455F100054E414F4158EB3B
:101B7000010859EB010980E8F803BDE8F00370475C
:101B80002DE9F00391E8F803B2E802105B1A74EB58
:101B90000C04B2E802108D4176EB0C0692E80610B8
:101BA0008F4178EB020879EB0C09894113EBD17373
:101BB00054F1000455F100054E414F4158EB010826
:101BC00059EB010980E8F803BDE8F003704700BF56
:101BD0002DE9F04F07EE900AFFF740FC5AEC359ADA
:101BE000B9EB05097AEB060AB84171EB080172F10D
:101BF000000273F1000374F100046BEB0B0B491945
:101C000072417B4154EB08044BF1000557EC146A18
:101C100015EE108ABEEB0E0E59EB02095AEB030AC1
:101C2000604169415EF1000E96419F4178EB0408E6
:101C300079EB05097AF1000A70F1000B71F1000CE3
:101C40006EF1010E16EBDE7657F1000758F1000831
:101C500059EB0E095AEB0E0A5BEB0E0B5CEB0E0C0C
:101C600017EE900A80E8C01FBDE8F08F2DE9F04F15
:101C700007EE900AFFF78CFCB0E700BF2DE9F007F4
:101C800091E8F807B2E802105B1854EB0C04B2E8D4
:101C900002104D4156EB0C06B2E802104F4158EBD2
:101CA0000C08B2E8021059EB01095AEB0C0A894101
:101CB000B3F1FF3374F1FF3475F1FF3576F10006AF
:101CC00077F1000778F1000879F101097AF1FF3A1C
:101CD00051F100015B184C414D4156F1000657F19E
:101CE000000758F1000859EBD1795AEB010A80E856
:101CF000F807BDE8F00770472DE9F00791E8F8070D
:101D0000B2E802105B1A74EB0C04B2E802108D41C9
:101D100076EB0C06B2E802108F4178EB0C08B2E8C3
:101D2000021079EB01097AEB0C0A89415B184C41EE
:101D30004D4156F1000657F1000758F1000859EBE4
:101D4000D1795AEB010A80E8F807BDE8F00770473F
:101D500018EB040859EB05095AEB060A5BEB070B75
:101D60005FF0000C4CF1000C18EB050859EB06096C
:101D70005AEB070A5BEB070B50EB0C005FF0000C13
:101D800051EB0C0152EB0C0263414CF1000CB8EB2F
:101D9000070879F100097AF1000A7BEB040BA841EE
:101DA000B141A241B3416CF1000CBBEB050BB0415A
:101DB000B941AA41BB416CF1000C6FEAEC74B8EB7D
:101DC000040879EB04097AEB040A7BF1000B70F14B
:101DD000000071F1000172EBD472A3416CF1000CB0
:101DE00018EBEC7859EBEC795AEBEC7A5BF1000BE1
:101DF00050F1000451F1000552EBDC7653EBEC7727
:101E00004CF1000C18EBEC7059EBEC715AEBEC72E6
:101E10005BF1000354F1000455F1000556EBDC764C
:101E200057EBEC77704700BF2DE9F04F07EE900AB3
:101E3000FFF7DEFC59EC168A17EE10AAFFF788FFB1
:101E400059EC148A5BEC15AAFFF782FF17EE908A13
:101E500088E8FF00BDE8F08F2DE9F04F07EE900A0B
:101E6000FFF78CFD59EC168A17EE10AAFFF770FFEA
:101E700059EC148A5BEC15AAFFF76AFF17EE908AFB
:101E800088E8FF00BDE8F08F2DE9F04F90E8F00FF3
:101E900000F140004FF0040E59E0F0B4826BC36BC8
:101EA00004680525242687593C444FEA724787EA8F
:101EB000F24787EA92273C4442684FEAF21787EAE2
:101EC000B24787EAD2073C4440F8044B032D08BFD1
:101ED0006FF01B0687593A444FEA734787EAF34786
:101EE00087EA93273A4443684FEAF31787EAB347F0
:101EF00087EAD3073A4440F8042B87593B444FEA1A
:101F0000744787EAF44787EA94273B4444684FEADA
:101F1000F41787EAB44787EAD4073B4440F8043B08
:101F2000013DC0D1A0F13C00076A3C444FEA724732
:101F300087EAF24787EA92273C4402684FEAF217A1
:101F400087EAB24787EAD2073C44C463F0BC4FF04B
:101F5000020288EA781C8CEAF84C0BEBBC1C8AEA7B
:101F6000090303EA080383EA0A039C4450F8043B8C
:101F70009C4451F8043B9C44674444EA050B0BEA3B
:101F8000060B04EA05034BEA030BE34484EAF4235B
:101F900083EA34530BEBB30B87EA771C8CEAF74CDC
:101FA0000AEBBC1C89EA080303EA070383EA090376
:101FB0009C4450F8043B9C4451F8043B9C446644C8
:101FC0004BEA040A0AEA050A0BEA04034AEA030A8E
:101FD000E2448BEAFB2383EA3B530AEBB30A86EA2B
:101FE000761C8CEAF64C09EBBC1C88EA070303EA72
:101FF000060383EA08039C4450F8043B9C4451F8D0
:10200000043B9C4465444AEA0B0909EA04090AEACC
:102010000B0349EA0309E1448AEAFA2383EA3A53C3
:1020200009EBB30985EA751C8CEAF54C08EBBC1C7E
:1020300087EA060303EA050383EA07039C4450F892
:10204000043B9C4451F8043B9C44644449EA0A081C
:1020500008EA0B0809EA0A0348EA0308E04489EAA7
:10206000F92383EA395308EBB30884EA741C8CEA39
:10207000F44C07EBBC1C86EA050303EA040383EA7D
:1020800006039C4450F8043B9C4451F8043B9C4498
:10209000E34448EA090707EA0A0708EA090347EAA6
:1020A0000307674488EAF82383EA385307EBB3074A
:1020B0008BEA7B1C8CEAFB4C06EBBC1C85EA040318
:1020C00003EA0B0383EA05039C4450F8043B9C4459
:1020D00051F8043B9C44E24447EA080606EA090634
:1020E00007EA080346EA0306664487EAF72383EA19
:1020F000375306EBB3068AEA7A1C8CEAFA4C05EBF6
:10210000BC1C84EA0B0303EA0A0383EA04039C442D
:1021100050F8043B9C4451F8043B9C44E14446EA9B
:10212000070505EA080506EA070345EA03056544CD
:1021300086EAF62383EA365305EBB30589EA791C70
:102140008CEAF94C04EBBC1C8BEA0A0303EA090392
:1021500083EA0B039C4450F8043B9C4451F8043B35
:102160009C44E04445EA060404EA070405EA060341
:1021700044EA0304644485EAF52383EA355304EB17
:10218000B304013A7FF4E5AEA0F14000BEF1010EC8
:102190007FF483AEA0F1400C9CE80F0000194919B0
:1021A0009219DB19ACE80F009CE80F004044494449
:1021B00052445B44ACE80F00BDE8F08F2DE9F047D6
:1021C00086468C460846089E154674461946002BDE
:1021D00040F0C2808542B2FA82F245D94AB1C2F1DA
:1021E000200300FA02FC2EFA03F3954043EA0C0C9C
:1021F00094404FEA154EA8B2BCFBFEF8230C0EFB30
:1022000018CC08FB00F943EA0C43994528D9EB1890
:1022100008F1FF3704D2994502D9A8F102072B44EF
:10222000A3EB0903A4B2B3FBFEFC0EFB1C330CFBB7
:1022300000F044EA0344A04214D92C190CF1FF33F6
:1022400004D2A04202D9ACF102032C44241A43EA7E
:1022500007401EB1D440002334607360BDE8F087AE
:102260004746DDE76346F1E792BB431B01214FEA96
:10227000154EAFB2B3FBFEFC200C0EFB1C330CFB67
:1022800007F840EA0343984562D9EB180CF1FF3098
:1022900004D2984502D9ACF102002B44A3EB080309
:1022A000A4B2B3FBFEFC0EFB1C330CFB07F744EAA5
:1022B0000344A7424ED92C190CF1FF3304D2A74294
:1022C00002D9ACF102032C44E41B43EA0040C0E70E
:1022D000C2F1200320FA03F1954090402EFA03F357
:1022E00003434FEA154EAFB2B1FBFEFC0EFB1C10D0
:1022F000190C0CFB07F841EA0041884504FA02F486
:1023000022D969180CF1FF3004D2884502D9ACF10A
:1023100002002944A1EB08019BB2B1FBFEFC0EFBBD
:102320001C110CFB07F743EA01439F420ED9EB183F
:102330000CF1FF3104D29F4202D9ACF102012B44CF
:10234000DB1B41EA004192E76046E3E76146F7E7BD
:102350006046A3E76346B7E7834206D916B9002172
:1023600008467BE7C6E900E0F9E7B3FA83F78FB9DF
:10237000834201D3724508D8BEEB020460EB03032D
:1023800001209C461EB9002168E73846FAE7C6E9F5
:10239000004CF8E7C7F1200CBB4022FA0CF41C43B8
:1023A0002EFA0CF120FA0CF3B84001434FEA14491D
:1023B0000EFA07F5B3FBF9F81FFA84FE09FB183093
:1023C0000B0C08FB0EFA43EA00439A4502FA07F2A7
:1023D00040D9E31808F1FF3004D29A4502D9A8F198
:1023E00002002344A3EB0A0389B2B3FBF9F809FB0B
:1023F000183308FB0EFE41EA03418E452CD96118C3
:1024000008F1FF3304D28E4502D9A8F1020321441A
:1024100043EA0040A0FB0298A1EB0E014145CE46E5
:10242000434602D306D14D4504D2B9EB020E68EB08
:1024300004030138002EA6D0B5EB0E0261EB0301B8
:1024400001FA0CFC22FA07F34CEA0303F940C6E94F
:10245000003198E74046C5E74346D9E710F8012B1D
:1024600011F8013B012A28BF9A42F7D0D01A7047D1
:10247000034613F8012B002AFBD1181A01387047C4
:1024800010B54FF0FF331E484FF0FF3218F024FB19
:102490001C4B0024BFF35B8F1A68BFF35B8F7AB1CC
:1024A0000134042C03F12003F4D108F0D3FA1723EC
:1024B00003604FF0FF34124818F090FB204610BD27
:1024C000BFF35B8F53E8001F013143E80012002A7D
:1024D000F8D1BFF35B8F9FED087B0B4800EB4413F3
:1024E00083ED007B63010C33184418F0EDFA0448C7
:1024F00018F074FB204610BD000000000000000032
:10250000A4030020781C0020701C002000000000A4
:10251000F0B5144683B062B1B0F89630C3F38113BE
:10252000022B054608D0012B18BF002029D003B08C
:10253000F0BD104603B0F0BD9FED2B7B836E13F012
:1025400002038DED007B0E462BD000220023CDE947
:102550000023DDE9002305F16C0018F031FC05468D
:10256000C0B30BF079FC844228BF044622463146B2
:1025700028460BF0EFFA50B928460BF08BF82046AE
:10258000D5E7002303B0BDE8F04005F0A3BF08F095
:1025900061FA6923036028460BF07CF84FF0FF30A6
:1025A000C5E76A4604210AF0F7FED5F89030B3B1CA
:1025B000EB6E002BCDD1DDE90023D5F8901005F1AD
:1025C000880019F081FB071EC3DA08F043FA7F4246
:1025D0000760E3E708F03EFA0B230360DEE76FF0E5
:1025E0001507F2E7AFF30080FFFFFFFFFFFFFFFFDC
:1025F00070B59FED137B84B000248DED007B0294B9
:10260000234605460AF006FD061E0DDB2B680093E7
:1026100028460D49002200230AF018FE051EA8BF17
:10262000204608DB04B070BD08F014FA764206605C
:102630004FF0FF30F6E708F00DFA6D420560F7E75E
:1026400000800100000000009D81000000000000EB
:102650002DE9F04F04462DED028B1E46B4F896305E
:1026600083B0DF0715460E989DF8442040F1238182
:102670008846002A5CD196B1C3F3C202022A08BF81
:102680004FF0000958D1172856D9726806F1040A8C
:1026900042B9B26832B9F26822B9326912B96FF040
:1026A00078063FE0E26A002A57D094F99800B9F121
:1026B000000F01D0002D67D009F01AF950B103685E
:1026C000BFF35B8FDB68BFF35B8FDB0758BF6FF037
:1026D000720627D59FED808B94F9980009F008F9D0
:1026E0008DED008BB4F8962094F89430C2F3C202BA
:1026F00029460BF0D5F9074600285CD094F89410D1
:1027000044610BF011F885421ED80F9BA364109B07
:102710002360B4F89430112B44D06FF07A06384619
:102720000AF0B8FF304603B0BDEC028BBDE8F08F75
:102730000028A0D1002E46D06FF01506304603B019
:10274000BDEC028BBDE8F08FB4F89630C3F3811373
:10275000022B00F0B3800546D7E7226B002AA4D1F4
:10276000626B002AA1D1A26B002A9ED11A059CD4CB
:10277000504609F0ADFD09F0D9FE40B284F898004A
:10278000B9F1000F96D197E7D9F80C10002993D032
:10279000D9F8082002EBC1015368083291421D4468
:1027A000FAD189E7B4F89630C3F3C203022B29D0DB
:1027B0006FF01506B3E76FF06806304603B0BDEC66
:1027C000028BBDE8F08F00293FF469AFC3F3C2026A
:1027D000022AB1D1D1E900600EB1894653E7E26A1D
:1027E00004F1280604F12C0A32B194F998008946C4
:1027F000002D7FF461AFC7E7226B8946002A3FF4C2
:102800004AAFABE75346002239462046B6F802A04D
:102810000AF0DAFB061E82DB20460AF087FB8346BD
:10282000C0B1BBF1000F53DB38460BF075F9B4F8BB
:102830009630C3F3C203022B37D0384608F0E4FDCC
:10284000061EFFF66CAF2E46304603B0BDEC028B81
:10285000BDE8F08FE18B524638460CF09FFA834674
:102860000028DED1AA46B9F1000F2AD0D9F80C30E1
:102870003BB9D9E7BAEB080AD6D0D9F80C305B459A
:10288000D2D9D9F8083003EBCB0253F83B10536888
:10289000534528BF53461A46384698460BF04AFB24
:1028A000061E0BF1010BE5DA39E794F8941038466F
:1028B0000BF0FAFCC1E76FF0080633E76FF00B0688
:1028C00030E72A46414638460BF034FB8346A8E7FA
:1028D0005E4624E7AFF300800080000000000000A7
:1028E0002DE9F047054686B09946002428230F4677
:1028F000CDE9024390460BF00FF902A928460BF0F0
:1029000037FB002800F0D08083793A2B064666D04A
:10291000112B61D0062B5CD0AC68002C00F0B58088
:102920004FF0000CA38924689C44002CFAD195F840
:102930002430A8699FED5E7B022202FB03CC8DED63
:10294000007B0CF104013A230BF0AAF8044600289E
:1029500000F0A78095F82420296A0BF0EBFAB0F17B
:10296000000A2FDBA3689B68A36295F82C20A96A54
:1029700020460BF0DFFAB0F1000A23DBA06895F8DF
:102980002C10083008F0D8F9A06850F8083F2362EE
:1029900095F8241008F0D0F995F82C3084F82430FC
:1029A00095F8243084F82C30337EFF2B06F1180183
:1029B00063D006F1080220460BF036FC064620B331
:1029C0006FF0040A20460AF065FE504606B0BDE8E6
:1029D000F0874FF03C0CAAE74FF0300CA7E70399C3
:1029E00004940423284605930BF09CF804A9284678
:1029F0000BF0BEFA002845D090F90130A34241DA2D
:102A000028460BF089F8B37982E704904FF0040A66
:102A100004A92046CDF814A00BF0AAFA0028CFD0C4
:102A200080F8018007708670C67004A920460BF0FC
:102A3000C5FA0028C4D1042F29D0524601462046A9
:102A40000BF07CF8824620460AF050FEBAF1000FE7
:102A5000B8D10246294620460BF086F80028B1D1AD
:102A600020460BF059F83A2120460BF01DFC204679
:102A700008F0CAFC0028A5DBA7E7A06909F0C4FBA1
:102A8000014696E76FF0150A9FE7A4464FE799FACB
:102A900089F33A4604A9204604930BF04BFA824688
:102AA000D1E76FF00B0A90E76FF0040A8DE700BFE3
:102AB000008000000000000000B589B09FED0E7B93
:102AC00006ABCDE9063302AA8023CDE902220093AA
:102AD0000B4A02AB8DED047B0CF0EAF9002805DB14
:102AE0004FF48042002302A818F0EAF909B05DF81B
:102AF00004FB00BFAFF300800000000001000000F5
:102B0000E5EF000000000000474BD3F804239007D6
:102B100002D5D3F804218AB94FF02003EFF31182D4
:102B200083F31288BFF36F8F3F4BD3F80413C903AD
:102B30000ED482F31188BFF36F8F70473B4A002198
:102B4000C3F80411D3F80431136801331360E3E7C9
:102B5000F0B53749BFF35B8F83B051E8000F20F029
:102B6000010441E80045002DF7D1BFF35B8F40B968
:102B7000D3F840312BB982F31188BFF36F8F03B0C4
:102B8000F0BD29480023C0F84031D0F8403182F32D
:102B90001188BFF36F8F254B1B68190A1B06BFF303
:102BA0005F8FD0F80425D31841F10001B2F5801FE2
:102BB0000AD2204AD2E90045A34271EB050203D2B2
:102BC00013F1807341F100014FF02002EFF3118CFB
:102BD00082F31288BFF36F8F174AD2E90245A342EE
:102BE000A94118D39FED0E7B0F4E1168536800204A
:102BF0004FF4803782ED027B1060C6F848738CF387
:102C00001188BFF36F8F0029B9D0009322462B465D
:102C1000884703B0F0BD8CF31188BFF36F8FAEE728
:102C2000FFFFFFFFFFFFFFFF00100140F8530020F0
:102C3000F0530020C01E0020A81E0020000000004D
:102C40000A7B02B97047F0B50B4691F800C049798C
:102C50000CF1010C8909ACEB020C01299BB08646F2
:102C600000EB0C0411D0022932D14D4D501C05232C
:102C70002880AB7021464E23E81C3BF02FFD2846F0
:102C80001BB0BDE8F0400EF08DBE9FED437B8DED97
:102C9000007B8DED027B4FF080501EF80C50D0F879
:102CA000A810D0F8A400B4F80570049089B2009080
:102CB000022DD4F80100ADF80C7004AE0591ADF80A
:102CC0000410029020D0062D45D00DB94B2A01D01A
:102CD0001BB0F0BD2146DC799879DB7A8DF8153090
:102CE00004F0030340EA03204F23ADF81300ADF8CE
:102CF00010300DF1160002238DF812303BF0E0FC8D
:102D000030460EF04FFEE3E7112AE1D15EF80C20C9
:102D1000CDF816206268CDF81A20227C8DF8262086
:102D2000DA79A568E168DC7A9B79CDF8221002F0A7
:102D3000030243EA0223152104223046CDF81E5037
:102D4000ADF813308DF81540ADF810108DF8122045
:102D50000EF028FEBCE7D01FC0B21028B8D8D11E94
:102D60000246D8798DF812509D79DB7A8DF81530AE
:102D7000C9B200F00303ADF8101045EA0323E11DCA
:102D80000DF11600ADF813303BF09AFC30460EF012
:102D900009FE9DE7AFF30080000000000000000086
:102DA000D8550020000000004B790A7903F0010398
:102DB0002DE9F0471B01DFF8EC82AF4CAF4DB04F6F
:102DC00043EA12138146C87988F800300E464B78E2
:102DD000897900F0030041EA00212180A949F47AB1
:102DE00095F82D000C70C3F3820188423C789AB0AC
:102DF00005D085F82D100134E4B232793C7095F895
:102E0000301002F00F039942C2F3030206D00134DE
:102E10003C7085F830200EF03BFF3C78737995F8D4
:102E20003110C3F34402914204D00134E4B285F876
:102E300031203C70F37995F83220C3F3820A524571
:102E400005D085F832A00134E4B2F3793C7095F8EE
:102E50003320B2EB531FC3F3421104D00134E4B268
:102E600085F833103C70337A95F834209A4204D0B8
:102E70000134E4B285F834303C70737A95F835202B
:102E80009A4204D00134E4B285F835303C70B37A0C
:102E900095F836209A4204D00134E4B285F83630F1
:102EA0003C70002C40F0CC805046727B95F8371077
:102EB00002F003039942C2F3010C04D085F837C035
:102EC0000134727B3C7095F83910C2F3411399427A
:102ED00005D085F839303B78727B01333B70B37B8A
:102EE00095F83A4003F00301490041EAD2129442B6
:102EF00005D03B7885F83A2001333B70B37B95F8D9
:102F00003B10C3F38202914205D03B7885F83B2009
:102F100001333B70B37B95F83C20B2EB531FC3F3F6
:102F2000421104D03B7885F83C1001333B70F279B4
:102F3000B379554902F0030443EA042383424FF076
:102F400000040C602FD395F82010012907D995F8BB
:102F50002D1001290BD04D4A12889A4223D8EB7FBD
:102F6000042B1CBF0323EB771AB0BDE8F08795F85C
:102F700022100229EFD100EB52118B424FEA52127C
:102F800011DB347A21448B42E9DA9A1A121A7079E9
:102F900098F80010C0F3440000FB02123C49098875
:102FA00092B29142DBD9EA7F3A490120042A0870A3
:102FB00006D039483949002202700A700422EA77A3
:102FC000374A347B00211170002CCDD09A45CBD9E3
:102FD000727931789209012AC6D19FED257B0131A2
:102FE0008DED007B8DED027B091B4FF0805009EBCE
:102FF000010819F80120D0F8A810D0F8A400B8F8FA
:1030000005C0049089B20090013AD8F80100ADF8EB
:103010000CC004AF0591ADF804100290052AA3D8A6
:1030200001A151F822F000BF6F320000692F0000AB
:103030005331000025310000FF300000A9300000AE
:103040000EF058FA95F8333095F832201A4495F876
:103050003430134495F835201A4495F8363013442B
:10306000EB840EF0E5FAF079C0F382001DE700BFB3
:103070000000000000000000B68700203857002044
:10308000D6870020E187002034570020B487002035
:10309000B2870020E0870020D7870020D987002052
:1030A000E4870020E3870020DDE90252DDE900012A
:1030B0008A4208BF854207D04FF6FF718A4208BF97
:1030C000B5F1FF3F7FF450AFE21FD2B2102A3FF6B6
:1030D0004BAFADF8133008F10701F37A8DF81530D6
:1030E0000DF116003BF0ECFAE31EDBB20622384687
:1030F000ADF810308DF812200EF054FC34E7DDE905
:103100000223DDE900018B4208BF824207D04FF65F
:10311000FF718B4208BFB2F1FF3F7FF425AF002063
:1031200004F06CF8DDE90223DDE900018B4208BF01
:10313000824207D04FF6FF718B4208BFB2F1FF3FCA
:103140007FF412AF0EF0A4FD1AB0BDE8F0470EF008
:10315000D1B9DDE90202DDE900139A4208BF8842D5
:103160007FF402AF95F82030012B7FF4FDAE98F884
:103170000B30012B3FF4F8AE022B00F09C80032BA8
:1031800004D198F80C30012B3FF4EEAEB8F80740AC
:10319000EB8DA1B28B422DD00320B1FBF0F303EBFA
:1031A0004303CB1ADFF830C1EC85DBB200264FF0C9
:1031B0001F0E01EB6602C3EB431AB2FBFEF9C9EB2B
:1031C00049190AF1030AA2EB090252440133DBB2A6
:1031D0000CF8012BB3FBF0F2053602EB42029B1A0E
:1031E0001E2EDBB2E5D137480223A0F882400374DB
:1031F00017F0CEFFB8F80B30A5F8113098F80A2078
:1032000098F8093043EA0223AB820EF073F92E4B93
:103210000DF1130203F12001186810601032586894
:1032200042F80C0C986842F8080C10338B4253F8A3
:10323000040C42F8040CEFD199881C6891809979AC
:1032400091711460384628230024ADF810308DF8B1
:1032500012400EF0A7FB1D4B1D48C3F85041D3F898
:10326000503104211AB0BDE8F04716F0D5BEDDE9B3
:103270000202DDE900139A4208BF88427FF474AE6F
:1032800095F82030002B7FF46FAE98F80720602A65
:103290003FF66AAE08F108010E483BF011FA094802
:1032A00098F80720A0F87C20032303741AB0BDE827
:1032B000F04717F06DBF98F80C30022B7FF466AF23
:1032C00052E600BF085400204E57002000A00140E5
:1032D00044FD03002454002080580020000000001A
:1032E0002DE9F0419FED167B8EB0DFF868800090ED
:1032F00006AC0023CDE90243054643460E46174679
:103300002021114A20468DED047B02F075F902AAB6
:103310000E49204606F04CF943460D4A00952021FF
:10332000204602F069F93A463146204606F00AF98D
:10333000B0FA80F040090EB0BDE8F081AFF3008034
:10334000FFFFFFFFFEFFFFFF6CFD0300854601004E
:1033500074FD030068FD03002DE9F0412DED028BA3
:10336000044690B0002300226846CDE90023CD88B2
:1033700013F01CFF94F8D837B3BB9FED998A94F8EB
:103380002060EEB994F8D70794F8D827EBB2013053
:10339000991EC0B2033BCDB284F8D707DBB2A2B905
:1033A0002D2B0DD80022294604A813F071FE9DF89C
:1033B000103003F00707012F00F08E80032F1AD082
:1033C00010B0BDEC028BBDE8F08194F8D6278242A4
:1033D000E6D92D2B40F2E580304614F069FB10B0A1
:1033E000BDEC028BBDE8F08113F0A0FE08EE100AE0
:1033F000B8EEC88AC3E794F8A827C3F30213C2F350
:1034000002129A42DCD1072DDAD19DF8110004F2A4
:10341000AA7112F09DF8051ED2DB9DF91030002B29
:10342000C0F2D2809DF81630D4F8E007D4F8E41743
:10343000DDF8126004F5B2620027D2ED007A63F382
:103440000707DDE90032984271EB020C28EE278A6B
:1034500080F0B080181A62EB0101FDF75FFB08EE07
:10346000900A39463046FDF759FBB7EE007A37EE41
:10347000487A07EE900A67EE877AF6EE006A78EEF1
:10348000E78A68EEA67A17EE900AFCF7EDFF50A3E4
:10349000D3E90023FDF740F84FA3D3E90023FDF75C
:1034A0003BF8504B0022FDF737F8FDF747FA05EBE4
:1034B000450323449DF81110D4F8F42783F83418F9
:1034C000D4F8F017A3F8350894F8E93784F8E8370A
:1034D000521AC4F8EC2773E794F8D887B8F1000FB4
:1034E0007FF46EAFC3F3021694F8F837B342FFF4DB
:1034F00067AFB31C9D427FF463AF0DF1120194F8E6
:103500009605324612F024F8011EFFF659AFB4F8C2
:103510008C35009D019A03F5AF7003F5C87301FB6C
:1035200000302B0A43EA026303EB0020B4F88E3527
:103530005B1B20F001054FEA052C62EB420213EB06
:103540000C0342EB106284F8AE270392721E521AEB
:10355000C4F8AA370293B2FA82F23301520943F057
:10356000030343EAC21384F8A837B4F8963584F805
:10357000A9373A464146092013F052FD424604F568
:10358000F561072013F004FD284614F067F938466A
:1035900014F074F994F8A83768F3061384F8A83780
:1035A0000EE704A83246294613F072FD304614F0A7
:1035B0007FFAFCE6181A02F5807262EB0101FDF752
:1035C000ADFA08EE900A4CE7204612F07DF829E7A4
:1035D000BC058A4421DDB141FA48CE3B1835B13DE6
:1035E000000000000000594090F82020CB88002AFD
:1035F00040F0AB802DE9F04F2DED048B90F833288F
:1036000091B0044622B111B0BDEC048BBDE8F08F3F
:10361000DDB2002200236846CDE9002313F0C6FD89
:1036200094F8D70794F8D8270130AE1EC0B2EB1E2D
:10363000F6B284F8D707DBB262B194F820504DB9E6
:1036400094F8D627824205D92D2B7FD9284614F02D
:103650002FFAD8E72D2BD6D804AF002231463846B2
:1036600013F016FD9DF8102002F00703022B00F066
:103670004881042B74D0002BC5D194F8D837002B87
:10368000C1D194F80978002FBDD194F8F837C2F36E
:103690000215AB42B7D3AB1C9E42B4D10DF112015F
:1036A00094F896052A4611F053FF011EABDB05F195
:1036B000FF3C681A2B01ACEB0105D5F1000C4CEB7B
:1036C000050C43F0020343EACC13009AB4F88C656E
:1036D00084F8A837019B120A42EA036206F5AF7527
:1036E000B4F8963584F8A937013805FB006006F573
:1036F000C87301FB0533FA3002EB032513F02EFEED
:1037000006F24C4080B214F079FA394604200122C6
:1037100013F086FC3A4604F5F561022013F038FCFC
:1037200025F0010014F09AF8032014F0A7F8DDE961
:10373000000104F50063C3E900019DF8112084F83D
:103740000828012384F809385DE7704704AF38463C
:103750002A46314613F09CFC284614F0A9F981E76B
:10376000204611F0CDFF94F8D837002B7FF44BAFF3
:103770009DF810209DF81150C2F3021194F808280A
:10378000AA427FF440AF94F80928002A3FF43BAFE7
:1037900000293FF438AF94F8F8278A42FFF433AF9A
:1037A0000B2201FB02F2023296427FF42CAF94F816
:1037B00096653A4604E00133D8B28842BFF423AF9D
:1037C0009078B04202F10B02F5D10B2202FB03F319
:1037D000DA1CB9184FF000084FF00009CDE9028952
:1037E000D4F8E067DDF80080B858DDF804900A7975
:1037F000D4F8E417029046458DF80C2071EB0900CF
:10380000DDE902BC01D309F58079D4F80008D4F8C9
:1038100004A8B8EB060869EB0109B0427AEB010E87
:1038200080F0A880361A61EB0A0A0833F918F858B4
:1038300094F930780B79CDF80CA0042F02908DF814
:103840000C3040DC61465846FDF768F9494609EE00
:10385000100A4046FDF762F9514608EE900A3046DC
:10386000FDF75CF908EE100ADDE90201FDF756F9F3
:1038700006EE900A39EE287A66EE887A59EE287AB2
:1038800007EB4703234437EE087A83F8345837EEC2
:10389000267A03F50365C7EE877A17EE900AFCF7E0
:1038A000E3FD40A3D3E90023FCF736FE3FA3D3E9B1
:1038B0000023FCF731FE3A4B0022FCF72DFEFDF70A
:1038C0003DF8A5F80500D4F8F427D4F8F00794F8EB
:1038D000323894F8E91784F8E817121A042BC4F860
:1038E000EC274DD905F08EFD94F831389A1D01333F
:1038F000B0FBF2F101FB120084F8300884F8313893
:1039000081E694F8D837002B3FF47DAE94F809385F
:10391000002B7FF478AE022E7FF475AE94F8A817D2
:10392000C2F30213C1F302129A427FF46CAE9DF807
:10393000110004F2AA7111F00BFE0028FFF663AE2D
:103940009DF91030002B25DB204611F015FEDDE936
:10395000006743B203F5817344FA80F09DF81120AB
:1039600080F80A2804EBC303C3E90067204611F07E
:1039700007FE48E6361A01F5807161EB0A0A54E742
:103980000133DBB2052B84F83238ABD0013784F831
:10399000307838E6204611F0B3FED5E7AFF300806B
:1039A00000005940BC058A4421DDB141FA48CE3BB4
:1039B0001835B13D0000000010B58C1882B018F029
:1039C00015FB43014A011B1A42EAD06262EB010275
:1039D000920042EA93729B001B1841EB0200C00068
:1039E00040EA5370C3F3103343EA4043E41A002C17
:1039F00016DD4FF4004340F2E7300021E4FB030101
:103A00004FF47A720023FDF7CFF89FED097B024651
:103A10000B4609488DED007B18F09CFB02B010BDF1
:103A2000064B01221A7002B0BDE8104007F0A2BA9E
:103A30000000000000000000F0020020E9870020E4
:103A40002DE9F04385B098460F9B83739FED1C7B57
:103A5000109B0373073222F0070900F15803044654
:103A6000C0E91633002701F14003042209F14006A2
:103A700042738760C7730D4684ED067B0E444A4649
:103A8000AA2118463AF057FE0E9BC4E91A09029380
:103A90000D9B01930C9B00932946434627673246B2
:103AA000204606F09DFB084B67659B6803B15B6F82
:103AB0006367304605B0BDE8F08300BFAFF3008018
:103AC0000000000000000000008500200000000051
:103AD0002DE9F04784B098460F9B83739FED2A7BB6
:103AE000109B0373073200F158030446C0E91633F4
:103AF00022F00705002701F14003042242730E461D
:103B00008760C7732A4684ED067BAA211846DDE943
:103B100012A93AF010FE0E9BA06602930D9B019332
:103B200005F140020C9B009332444346E56627674B
:103B30003146204606F054FB154B67659B6803B180
:103B40005B6F6367B9F1FF3F08BFBAF1FF3F03D175
:103B5000204604B0BDE8F08759EA0A0306D12046A2
:103B600017F052FD204604B0BDE8F08704F11800BC
:103B7000084952464B4618F035F9204604B0BDE8D6
:103B8000F08700BFAFF300800000000000000000DD
:103B900000850020693D00002DE9F04F2DED028BDE
:103BA0009FED4D8B4E4E85B0054600F1D00900F1DA
:103BB000D8084FF02003EFF3118A83F31288BFF384
:103BC0006F8FD5F8C840002C60D0D5F8CC20236882
:103BD000C5F8C830944208BFC5F8CC30D5F8E030FD
:103BE000626843F00203C5F8E030E36823F00403A1
:103BF00043F00103E3608AF31188BFF36F8F20461F
:103C000090474FF02003EFF3118A83F31288BFF33C
:103C10006F8FE368990723F001020FD4E260D5F8B3
:103C2000E03023F00203C5F8E0308AF31188BFF3D7
:103C30006F8FDB05BDD417F0A1FEBAE7306823F023
:103C40000303E3600028EAD0436807689C424FF012
:103C5000000B014608D0002FE1D038468B46436860
:103C60003F689C420146F6D103687168BBF1000FC2
:103C70002DD08842CBF8003008BFC6F804B000232E
:103C800040F8083B17F0F2F85946E4E7D5F8E03081
:103C900023F004025807C5F8E02009D400238DED75
:103CA000008B02934A4651460E4817F0D1FF80E739
:103CB00000220121404617F095FF0028EED0002297
:103CC0000121404617F08EFF0028F1D1E6E7884237
:103CD0003360D4D17360D2E7FFFFFFFFFFFFFFFF28
:103CE000F82300203885002030B5044689B0002034
:103CF000C4F8C800C4F8CC000C9D04F1D000C4E99D
:103D0000340004F1D800C4E936000DB32879002846
:103D100040F2011008BF01209FED0F7BC4F8E000C6
:103D20000020CDE90100039304908DED067B0C4B40
:103D300000942046FFF7CCFE25B1296811B120463A
:103D400016F03EFE204609B0BDE8304016F03CBEFD
:103D50000120E1E7AFF30080FFFFFFFFFFFFFFFF60
:103D6000993B00000000000038B54FF02003EFF34E
:103D7000118483F31288BFF36F8F10F80B3C13F09C
:103D8000280217D150F8101C69B19FED0D7B50F837
:103D9000145C50F8181C29604D6000ED067B03F0A0
:103DA000FD0340F8102C23F0140300F80B3C1838E6
:103DB00017F014FB84F31188BFF36F8F38BD00BF79
:103DC00000000000000000004FF02003EFF311811D
:103DD00083F31288BFF36F8FD0E9003213605A600B
:103DE000437B9FED077B23F00203002280ED007BE5
:103DF0004373826081F31188BFF36F8F704700BFF8
:103E0000000000000000000003464FF02001EFF327
:103E1000118281F31288BFF36F8F0068834213D041
:103E200068B1D0E900319FED0C7B0B605960437B9A
:103E300080ED007B23F0020300214373816082F355
:103E40001188BFF36F8F7047002082F31188BFF392
:103E50006F8F7047AFF3008000000000000000008B
:103E60004FF02003EFF3118183F31288BFF36F8FBC
:103E7000D0E9003213605A60437B9FED097B23F049
:103E80000203002280ED007B4373826081F311887E
:103E9000BFF36F8F183018F025B800BFAFF3008064
:103EA00000000000000000002DE9F0472DED028B1E
:103EB000054617F037FB4FF02003EFF3118783F32C
:103EC0001288BFF36F8FDFF8D890DFF8D8A0D9F849
:103ED0000040CAF800504C4550D09FED2F8BDFF8C2
:103EE000C8803A46D8E9003120464FEAE57C1746BB
:103EF00044B3D4E90462B5427CEB020E43DBF31811
:103F000041EBE67184ED048BC8E9003117F01EFF28
:103F100087F31188BFF36F8FA36898474FF0200392
:103F2000EFF3118783F31288BFF36F8FDAF8005035
:103F3000D9F80040AD1B4C45CAF800503A46D1D1E3
:103F40004FEAE57CD8F800305B19C8F80030D8F8A3
:103F500004304FF0000443EB0C03C8F80430CAF8F7
:103F6000004017F00FFF21460CF052FB87F3118839
:103F7000BFF36F8FBDEC028BBDE8F087DFF82880C0
:103F80004FEAE57CDEE74C45DCD0761B62EB0C02A9
:103F900026616261D6E700BF00000000000000005B
:103FA0002C0200204C85002000240020000000008E
:103FB0002DE9F84F0025044600F1240B05847430E8
:103FC0000E4627F053FA0C23A4F878304FF0AF6375
:103FD000E36723465A4A84F87B5043F8802FC4F89D
:103FE00088302346574A43F88C2FC4F89430234630
:103FF000554A43F8982FC4F8A0302346534A43F853
:10400000A42F3146C4F8AC30C4E92D55C4E933556A
:1040100084F8B050C4F8BC5084F8C950A4F8CA5011
:10402000C4F8D450A4F8D85004F1F00021F082F87C
:104030009FED417BF0224FF6FE73C4E949234FF612
:10404000FF7384ED4C7BA4F82C3104F14C0A31460B
:104050005846C4E96F5528F0F5F93146504628F026
:10406000F1F92946082204F118003AF064FB2946C8
:10407000082204F1DC003AF05EFB584628F054FABE
:10408000504628F051FA0127122204F5A679294654
:1040900004F59C703AF04FFB3946484620F0ACFFDF
:1040A0002B49484620F0D6F9204620F0B9FF04F508
:1040B000B27020F0B5FF04F5BE7804F5B67020F0BC
:1040C00025F9404620F0ACFF294604F5C27020F0E7
:1040D00055F994F88E2142F0800284F88E211D4A11
:1040E0002946C2F8048104F5CA7014223AF023FB71
:1040F0004FF6FF7384F89431322384F895312946C2
:10410000142284F8A25184F8A37104F5D4703AF013
:1041100012FB33234FF0FF3220460F4984F8A821C9
:1041200084F8A93184F8B65184F8B77124F00CFEF4
:104130002046BDE8F88F00BF00000000000000002E
:10414000CDA20200299B020051A60200858C02002C
:10415000FE380020F0340020C800040000000000F9
:104160009FED177B034680ED007B80ED027B09BB52
:104170009FED157B83ED047B9FED157B83ED067B27
:104180009FED157B83ED087B9FED157B83ED0A7B0F
:104190009FED157B83ED0C7B9FED157B83ED0E7BF7
:1041A0009FED157B83ED107B9FED157B084683ED1E
:1041B000127B70476FF07400704700BFAFF3008050
:1041C000000000000000000008C9BCF367E6096AAF
:1041D0003BA7CA8485AE67BB2BF894FE72F36E3C96
:1041E000F1361D5F3AF54FA5D182E6AD7F520E51F3
:1041F0001F6C3E2B8C68059B6BBD41FBABD9831FAD
:1042000079217E1319CDE05B2DE9F0419FEDB27B62
:10421000B4B08DED027B9FEDB27B8DED047B9FED05
:10422000B27B8DED067B9FEDB27B00268DED087B8A
:104230001446054633923296002A77D180238DF8B2
:104240008830CDF889204FF03A0C01200DF18D0215
:104250000E2302AF22A90026022B166021D0032BC9
:1042600056601ED0042B96601BD0052BD66018D04C
:10427000062B166115D0072B566112D0082B9661BC
:104280000FD0092BD6610CD00A2B166209D00B2B4C
:10429000566206D00C2B966203D00E2BD66208BF56
:1042A0001663BCEB830F00EB830012D0431C34AACF
:1042B000024400263B2B02F8486C0AD034AA13446F
:1042C000392803F8486C00F102031CBF9B1803F85F
:1042D000486C630F8DF8C330630D8DF8C430630BE9
:1042E0008DF8C53038466309E4008DF8C6308DF886
:1042F000C74039F0BBF9DDE90201DDE9042306BA64
:1043000014BA18BADDE9062309BA12BA69602A613B
:1043100019BADDE9082312BA1BBA2E60AC60E86056
:104320006961AA61EB6134B0BDE8F08102AF384643
:10433000884639F03FF9241A034608EB04010028A7
:1043400000F0BA80421E022A45D958F80420229271
:104350008208012A3AD048682390022A36D0886819
:104360002490032A32D0C8682590042A2ED00869E8
:104370002690052A2AD048692790062A26D08869DF
:104380002890072A22D0C8692990082A1ED0086AD6
:104390002A90092A1AD0486A2B900A2A16D0886ACD
:1043A0002C900B2A12D0C86A2D900C2A0ED0086BC4
:1043B0002E900D2A0AD0486B2F900E2A06D00F2A75
:1043C000886B18BFCA6B309018BF319223F0030678
:1043D000B342314414D034AA3244087802F8480C6D
:1043E000721C93420CD934A802440236487802F871
:1043F000480CB34204D934AA16448A7806F8482CEB
:1044000034AA1A44581C80213828329302F8481CD8
:104410005CD93F282DD834AA104400213E2B00F847
:10442000481C03F1020224D034A802443D2B02F8B8
:10443000481C03F103021CD002443C2B02F8481C28
:1044400003F1040215D002443B2B02F8481C03F18F
:1044500005020ED002443A2B03F1060002F8481C74
:1044600007D034AB03443E2803F8481C01D18DF833
:10447000C71022A93846019139F0F8F83A28339C40
:1044800001993FF626AF431C3B2BC0F13A02C0F125
:104490003B0C88BF4FF0010C022A7FF608AF00F1F9
:1044A00080030026FA18FE504FEA9C03012B02F10C
:1044B00004027FF4D0AEF4E680223290339C8DF873
:1044C00088204FF03A0C012022A9E8E7339C22A96A
:1044D000D9E700BFAFF3008067E6096A85AE67BB26
:1044E00072F36E3C3AF54FA57F520E518C68059BD6
:1044F000ABD9831F19CDE05B2DE9F04100F022FB21
:1045000004E04FF40040002117F0CEFA00F014FB55
:104510000028F6D02A4F2B4E4FF4A0620123BA6731
:104520003370294816F0A2FC17F0D8FA082117F0CA
:1045300005FA264D264CDFF890804FF0FF324FF001
:10454000FF33404616F0BCFC00F078F800282EDB64
:10455000BB68002B0BDB2A684FF0010C04EBC20098
:1045600002EB0C0144F83230A0F804C02960D7F8FF
:1045700080303078002B1DDB2A684FF0010E04EBF1
:10458000C20C02EB0E0144F83230ACF804E02960B2
:1045900018B90CE000280ADB29684FF0FF322046EA
:1045A00004F02CFE00F088F83378002BF2D100F0F4
:1045B000C3F8C2E70028EFD100F0BEF8BDE700BFA6
:1045C00000000020C8870020F803002038420020A7
:1045D0003C42002030B5134D83B0044604F012FF76
:1045E0002B68B0FBF3F202FB13022267002AF5D01E
:1045F000A36F9A42F2D8A0680023CDE900330A499C
:1046000004F004FC4FF4F0120546002304F11000FE
:1046100016F024FE002DB4BF6FF00400002003B09C
:1046200030BD00BFD0F20300D4F203004038FFF7E2
:10463000D1BF00BF1038FFF7CDBF00BF00B587B0B6
:10464000164B0093164901AA022004F0F9FD154902
:10465000154816F0C9FD1549154816F0C5FDBDF8F9
:1046600000001122022104F0C7F9124A00289060CC
:104670000BDB1822694604F077FA002805DB0D48A9
:10468000FFF7A8FF07B05DF804FB06F0E3F9006848
:1046900040420028F3DA07B05DF804FB02001092F4
:1046A00060F7030035460000100000202D46000092
:1046B000400000200000002010B51C4C82B0A06813
:1046C0000023CDE900334FF4A0621949402304F0E0
:1046D0001BFC021E27D014DB236F9A4216D115490A
:1046E000134839F0DDFF88B9636F013304F110001E
:1046F000636716F0EDFD204602B0BDE81040FFF7FD
:1047000069BF06F0A7F903680B2B02D1002002B0A5
:1047100010BD06F09FF903680B2BF7D006F09AF94D
:1047200000684042F3E76FF00400F0E7000000206B
:104730005C420020D4F2030008B5074816F0C8FD1B
:10474000064816F0C5FD064B9868002800DA08BD3B
:10475000BDE8084004F0A4B910000020400000208B
:1047600000000020F0B585B0144D284615F03CFF40
:1047700010B30023AF680393022644F620628DF83D
:104780000C60009302930192BB680D4C6946284669
:1047900098470028206003DB3B683146284698474D
:1047A000AE68064D2168F3682846984700214FF40B
:1047B000203017F079F9F5E7014CF1E7B0ED03008F
:1047C0005C4700202DE9F0412F4B8CB00026CDE94D
:1047D0000866CDE90A66CDE906362C4C2C492D4DEC
:1047E000DFF8BC802C4F07AA022004F029FD2670B8
:1047F0002A4E2B785BB92378DBB14FF0FF334FF0B3
:10480000FF32304616F05CFB2B78002BF3D006A964
:10481000182201A803F0C2FB0346002B3A464FF4CE
:104820007A6101A80BDA01A803F08CFC2378002B35
:10483000E3D100214FF4A02017F036F9D9E703F0B7
:10484000E1FB0028EFDB17F0D1FB4FEA401C4A01E7
:10485000BCEB000C42EAD06262EB01024FEA8C032F
:104860009200181842EA9C7241EB0203DB0043EA13
:104870005073C0F3103040EA43400122DB0BC8E91B
:1048800000032270CFE700BF0200007BCE8700202C
:1048900088F70300CB870020D01A002010040020E6
:1048A000C81A002010B510460C4611B1012907D0D6
:1048B00010BD00F04FFA2046BDE8104000F034BAB9
:1048C00000F032FABDE81040002000F043BA00BF0B
:1048D00038B51388114C023394468E46DAB221461D
:1048E0000023CD7E9DB9C3EBC30304EB83050123F5
:1048F0006860614605F1090085F808E0EB7639F05B
:10490000DFFE29460648BDE8384016F041BA0133BB
:10491000082B01F11C01E4D138BD00BF684700201D
:104920008848002038B5094C237803B938BD06F013
:10493000C9FB054606F0D0FB0021286818F0F4FFFB
:10494000284606F0D1FB0023237038BDC98700201C
:10495000084B1B7823B110B5074C23780BB110BD61
:10496000704706F0AFFB06F017FB0028F7D10123D4
:10497000237010BDCB870020C987002038B50D4DAE
:104980002B7803B938BD06F09DFB044606F0A4FB66
:104990002068002118F0C8FF08B9074B187020687C
:1049A000002118F05FFF00B928702046BDE83840AC
:1049B00006F09ABBCC870020C987002038B50C4D83
:1049C0002B7803B138BD06F07DFB044606F084FB6E
:1049D0002068012118F046FF08B901232B702068D8
:1049E000042114F00DF82046BDE8384006F07CBBE9
:1049F000CC8700200840C30705D5074A074B12782B
:104A00001B780AB12BB97047002BFCD0044816F074
:104A1000BFBB044816F0BCBBCC870020CA8700206F
:104A20007848002068480020704700BF052800D063
:104A3000704700B50B460949024603C983B0009090
:104A4000ADF804101846694639F02AFE10B103B0DB
:104A50005DF804FB024816F009FAF8E7B0F7030026
:104A6000100400202DE9F04F2A4FDFF8C090DFF846
:104A7000C080294EDFF8BCA083B00AE0012D06D12A
:104A8000B0F8090004F10B01C0B2FFF7CFFF00231B
:104A9000E3764FF0FF334FF0FF32304616F090F9D7
:104AA000057A43680446002DE8D1C17A00F10B0B6A
:104AB000D1B93978A1B998681849056C019318469D
:104AC000A8470028E3D1019B15499868456C184612
:104AD000A8470028DBD199F8003001213970A3B92B
:104AE0005846FFF7A1FFD2E7032907D00129F7D1E4
:104AF0000C4816F04DFB88F80050F1E701235046B2
:104B000088F8003016F044FBEAE7074816F040FB4F
:104B1000E6E700BFCD8700208848002090000020F5
:104B2000604700204848002078480020CA870020BD
:104B3000CB87002058480020014B1878704700BFF1
:104B4000CB8700202DE9F0418EB0484815F008FDD4
:104B500000260027CDE90867054600F0C5F844485F
:104B600013F092F9044600287CD14FF080520DF1E9
:104B70002808D2F8A830D2F8A4200A923D4A107032
:104B80003D4A10703D4A9BB210700B933C4A3D4B1E
:104B900010705880988098E8030040F201121A8043
:104BA0000890ADF82410384816F0C4F80323039396
:104BB000CDE90667CDE90144344B354904940094AE
:104BC0004FF400723348FEF783FF3349314815F044
:104BD000F7FE04230393CDE90667CDE901442F4B8B
:104BE0002F49049400944FF480622E48FEF770FF22
:104BF0002D492C4815F0E4FE0522CDE90324CDE92A
:104C00000667CDE90144294B294900944FF480728D
:104C10002848FEF75DFF2849264815F0D1FE2749B0
:104C2000274816F065FA2749274816F061FA274900
:104C3000274816F05DFA2749274816F059FAAB685D
:104C4000264A5B6A0A920721424628469847AB6883
:104C5000234A5B6A0A922846424608219847214B1C
:104C600001221A7020460EB0BDE8F081B8F70300AB
:104C7000F5490000CD870020CC870020CB8700209D
:104C8000C98700206047002088480020654A00004E
:104C9000008E0020A81B0020C8F70300C5470000B5
:104CA00080890020E01A0020DCF70300654700003F
:104CB00000880020001A0020ECF70300BD49000026
:104CC000784800207D4900006848002051490000D4
:104CD000584800202549000048480020D1480000DD
:104CE000A5480000CA87002070B50D4C0D4A256903
:104CF000A6682B6843F480432B600E21336820465E
:104D0000984700280BDB2B683668064A43F01003EF
:104D10002B60204633460421BDE87040184770BD23
:104D200094ED030001000A00094B1A69126852044D
:104D300048BF80F0010028B19B680548DB684FF44C
:104D4000804118479B6802481B694FF4804118470F
:104D500094ED0300084B1A691268D20648BF80F030
:104D6000010020B19B680448DB68102118479B684C
:104D700001481B691021184794ED0300094B0A48AC
:104D800010B518600269816813680C6823F000731D
:104D9000136019210022A047002818BF6FF01500EA
:104DA00010BD00BFA848002094ED030000F0A2B899
:104DB00000F014BA70B5144C206802698168136859
:104DC0000D6823F0007313601921104AA84720686A
:104DD00003691B689B0183684FF0007154BF1B6916
:104DE000DB689847642000F00FFB20680269816847
:104DF00013680C6823F00073136019212346002206
:104E0000BDE87040184700BFA84800200600020017
:104E100000B5A7B000238DF8003000F03BF96B46D9
:104E200096221946012000F079FA022000F0D8FA03
:104E300000F082F927B05DF804FB00BF00F02AB94A
:104E400070B50B4C206882680023956902214FF4ED
:104E50000012A84720680269816813680C6823F073
:104E600004031360022123460022BDE87040184766
:104E7000A448002070B50C4C206802698168136852
:104E80000D6823F00403136002214FF48032A84719
:104E90002068826894694FF08063A4464FF0A07246
:104EA000BDE8704002216047A4480020F8B50F4ECD
:104EB0000F4B336004460D469A6817681A69184606
:104EC000136823F00403136002214FF48032B847C3
:104ED000306883686560DB690422A26013B1012237
:104EE00021469847BDE8F840FFF7AABFA448002034
:104EF00078ED0300564B1B78002B40F0A5802DE980
:104F0000F041544C237886B0002B76D0524E337843
:104F1000002B40F09680514B514F1B683C685D68F8
:104F2000504BDFF86C811F6005F1080EBEE80F00E2
:104F30000DF1040CACE80F004445DEF80030CCF86D
:104F400000306FD9484B9C4272D9484B9C426CD977
:104F5000474B9C426FD9474B9C426FD9464B9C4272
:104F60002CBF4FF000444FF08044BB8803949A0755
:104F700003F0040052D5002814BF03200220C3F31D
:104F800000128DF81000002340F201108DF811205E
:104F9000FF22ADF813008DF8072001A91A46284614
:104FA00014F030FD354B98424BD135480269836887
:104FB0001C68136843F0400313600621314AA04780
:104FC0002C6A6A46002120460BF0BEFB002805DB58
:104FD000009B2268197918680BF0D8FB286840F309
:104FE000073005F011F82A6804210123C2F80813DC
:104FF0003370002006B0BDE8F081194B22491960DA
:105000004FF480729A801A821B49144A1F48D96053
:10501000106004F0ADFF0123237077E7003818BF5C
:105020000120ACE74FF000749FE74FF000649CE76D
:105030004FF0806499E74FF0805496E74FF00054AA
:1050400093E76FF00400D5E76FF00400704700BFEE
:10505000CF870020D1870020D0870020C8480020BB
:10506000AC480020C44800201FA107003F420F00A9
:105070007F841E00FF083D0000127A000000AD0B87
:1050800078ED030001000A0080841E0004EE030096
:105090008FD003001E4B1B7833B31E491E4A0B688A
:1050A000934221D01D48136810B404681C486468FA
:1050B0000A608342226818D91A498B421CD91A49BE
:1050C0008B421CD919498B421CD919498B421CD9D6
:1050D00018498B422CBF4FF000434FF080435DF8DE
:1050E000044BC2F82435704770474FF000735DF8E9
:1050F000044BC2F8243570474FF08063EFE74FF060
:105100000063ECE74FF08053E9E74FF00053E6E728
:10511000D0870020C4480020AC480020C8480020A8
:105120008FD003001FA107003F420F007F841E00A5
:10513000FF083D0000127A001E4B1B7833B31E4956
:105140001E4A0B68934221D01D48136810B40468AE
:105150001C4864680A608342226818D91A498B4245
:105160001CD91A498B421CD919498B421CD919499F
:105170008B421CD918498B422CBF4FF000434FF093
:1051800080435DF8044BC2F82435704770474FF0F8
:1051900000735DF8044BC2F8243570474FF080630C
:1051A000EFE74FF00063ECE74FF08053E9E74FF093
:1051B0000053E6E7D0870020C4480020B84800200C
:1051C000C84800208FD003001FA107003F420F00F6
:1051D0007F841E00FF083D0000127A00194B1B78E7
:1051E000002B2BD170B5184C237882B013B9002056
:1051F00002B070BD154B1B685D68284614F0EAFCD0
:105200001348026983681E68136843F04003136003
:1052100006210122B0472D6A01AA012128460BF080
:1052200093FA002805DB019B2A68197918680BF0AE
:10523000ADFA00230020237002B070BD6FF00400AF
:10524000704700BFCF870020D0870020C8480020CB
:1052500078ED03002DE9F0472A4C246884B0D4F897
:1052600004A0994672B6284B1B78002B46D0274FD6
:105270003B78002B42D1012304460E4690463B70FA
:1052800062B6234D2B691B685A06AB684FF040018C
:1052900054BFDB681B6928469847CDE900640024A9
:1052A000224669465046CDE9024414F0FBFC194BF6
:1052B0009842064616D06FF004042B691B685B0603
:1052C0000AD4AB6812481B694021984700233B7001
:1052D000204604B0BDE8F087AB680D48DB6840218C
:1052E0009847F3E7694650462246CDE90098CDE954
:1052F000024414F0D7FCB042DDD1DEE762B66FF0B5
:105300000404E5E7C8480020D0870020CF870020AC
:1053100078ED03000000AD0B002070472DE9F04749
:105320002A4C246884B0D4F804A0994672B6284B5D
:105330001B78002B46D0274F3B78002B42D101230E
:1053400004460E4690463B7062B6234D2B691B689F
:105350005A06AB684FF0400154BFDB681B69284612
:105360009847CDE900640024224669465046CDE9BD
:10537000024414F097FC194B9842064616D06FF081
:1053800004042B691B685B060AD4AB6812481B69CE
:105390004021984700233B70204604B0BDE8F087C9
:1053A000AB680D48DB6840219847F3E769465046F3
:1053B0002246CDE90298CDE9004414F073FCB042D6
:1053C000DDD1DEE762B66FF00404E5E7C8480020EF
:1053D000D0870020CF87002078ED03000000AD0BC0
:1053E00008B54FF4004220EAE073002140F2E730B4
:1053F000C3FB02014FF47A720023FBF7D5FBBDE833
:10540000084016F051BB00BF16F012BEC2B1531EC9
:105410000C4A00B501F1FF3C01EB030E1CF8013F03
:10542000584003090001D35CC0B2434019091B0175
:10543000505CDBB2F44580EA0300EFD15DF804FB79
:10544000704700BFFCF703000CB400B5034683B0FF
:1054500005AADB680192084640F20511984703B09F
:105460005DF804EB02B07047032810B512D8BFF303
:105470005B8F0B4B40011C58BFF35B8F54B1083B53
:105480001C1864680C601AB100F10C011944116019
:10549000185810BD05F0DEFA09230360002010BD86
:1054A000781C002010B40B4C430104EB401CE1506D
:1054B000CCF8042052B11046D2683AB10C332344E0
:1054C00040F205125DF8044BFFF7BEBF5DF8044BD8
:1054D000704700BF701C00201649BFF35B8F40016E
:1054E00000F108030B441A68BFF35B8F02B310B5D9
:1054F000BFF35B8F02F1FF3C53E800EF964503D109
:1055000043E800C4002CF7D1BFF35B8F02D1012A1E
:1055100008D010BDBFF35B8F1A68BFF35B8F002A02
:10552000E6D110BD014400220023C1E9002310BDD3
:10553000704700BF701C002040B1436803F00303B4
:10554000022B06D0032B04D0012B05D06FF01500E1
:1055500070470368002BF9D000238360184670471A
:10556000426802F00302022A08B50346816004D0B3
:10557000032A0AD00022426005E0006800225A6037
:1055800008B117F039F9002008BD006800225A6000
:1055900008BD00BF00207047014B1B68184700BFC3
:1055A0009800002030B48B680C685D1C64B14A68B8
:1055B0009A4209DD013A9A4208BF00238D600CBF70
:1055C000A354E05430BC70478D6030BC704700BFBE
:1055D0000FB400B585B006AB002153F8042B054885
:1055E0000091039300F0C2FC05B05DF804EB04B039
:1055F000704700BF995500000CB430B587B00AABB6
:10560000002553F8042B0095CDE90230CDE90415AF
:10561000044603A9064800F0A9FCDDE904309842DD
:10562000B8BF255407B0BDE8304002B0704700BF96
:10563000A5550000B0F81CC01CF0080F2DE9F84F6C
:10564000064640F00A810CF00700DFF89CA20446F1
:10565000022980B211D0B769002FC0F2E980431F40
:10566000012B804640F2C380042800F0228184424E
:10567000134651D04FF0000916E0002878D1336866
:10568000002B79D02CF0070C33694CF0060C1FFA74
:105690008CFC062CD3F80090A6F81CC0134600F032
:1056A000838007464FF00608B168002500297BD0AB
:1056B0004CF0080CA6F81CC082F31188BFF36F8F62
:1056C000B16889B10C68D1F804B03B464246304617
:1056D000D8474CB121462468D1F804B03B46424635
:1056E0003046D847002CF5D13DBBB9F1000F02D0B0
:1056F00051463046C8474FF02002EFF3118382F342
:105700001288BFF36F8FB6F81CC02CF0080C1FFA7C
:105710008CFC1A46A6F81CC01CF0100F1FD02CF0F1
:10572000100C1FFA8CFC01210CF00700A6F81CC01D
:1057300004468DE75D46002DD7D02846394650F8FF
:1057400004BBFFF70DFF04460028F3D029463B4673
:10575000424630465D46A047002DEED1C5E71CF01D
:10576000200F0AD02CF0200C1FFA8CFC0221DBE762
:10577000022825D1F78B37B1134683F31188BFF385
:105780006F8FBDE8F88F2CF0070C33694CF0040CD8
:105790001FFA8CFC042CD3F80490A6F81CC0134606
:1057A00002D04FF004087FE7B9F1000FB4D04CF0FD
:1057B000080CA6F81CC082F31188BFF36F8F97E71F
:1057C0000128D9D13368002BD6D02CF0070C3369CF
:1057D0004CF0050C1FFA8CFC052CD3F80890A6F8A9
:1057E0001CC01346E0D04FF0050800275CE74FF0DF
:1057F00000082CF0070C06283568C6F804801FFA4C
:105800008CFCC6F8008037D04445A6F81CC013466F
:105810001DD1002D80D04CF0080CA6F81CC082F3DE
:105820001188BFF36F8F4FF00009002D85D15CE721
:105830002CF0070C00234CF0010C3568A6F81CC0B6
:10584000736033604FF0010844451346E1D0B168FE
:105850000029DED04FF000092AE701290CBF4CF0E7
:10586000100C4CF0200C1346A0F81CC083F31188D8
:10587000BFF36F8FBDE8F88F5DB1F38B01339BB23F
:1058800029460968581C9E4683B20029F9D1A6F81A
:105890001EE0F18B4CF00203B38319B19C464FF02C
:1058A0000208D1E74CF0220CA6F81CC04FF0020809
:1058B000CAE72CF0070C31681FFA8CFCA6F81CC054
:1058C00059B14CF0200CA6F81CC01346002C3FF434
:1058D00023AF4FF00008C146E6E61346002C3FF424
:1058E0001BAF88468946DFE6ED58000010B40C4631
:1058F0004FF02001EFF3118281F31288BFF36F8F15
:10590000012184615DF8044BFFF794BE88B138B57E
:105910000C4659B10B684BB14B683BB10546202290
:10592000002138F008FF2C61002038BD6FF0150011
:1059300038BD6FF01500704700286AD0F8B50E46E4
:10594000002963D00F1D05463846FFF7F5FD0028F6
:105950001CD1B368032B59D84FF02003EFF3118209
:1059600083F31288BFF36F8FEB8BA88B4FF6FF7119
:105970008B4200F0070432D0022C1DD0062C3ED8FA
:10598000DFE804F0063D3D3D06130600E4DAF8BD0D
:10599000002333606B684BB31E606E604CBB2846BF
:1059A0000221FFF747FE2046F8BD82F31188BFF3BE
:1059B0006F8F6FF08500F8BD0133EB8382F31188A0
:1059C000BFF36F8F00213846FFF7CAFD074620B1AD
:1059D0000023224631462846B8470220F8BD82F30C
:1059E0001188BFF36F8F6FF00A00F8BD2E606E60F4
:1059F000D4E7204682F31188BFF36F8FF8BD82F39E
:105A00001188BFF36F8F6FF00400F8BD6FF01500C1
:105A1000F8BD6FF01500704710B54FF02001EFF39F
:105A2000118281F31288BFF36F8F848B04F0070417
:105A3000022C0AD0012C0CBF6FF004006FF085001F
:105A400082F31188BFF36F8F10BDC18B013989B20A
:105A5000C18309B12046F3E72146FFF7EBFD20465D
:105A600010BD00BF002835D0002933D010B54FF04D
:105A70002003EFF3118E83F31288BFF36F8F036857
:105A8000B0F81CC043B1994202D11AE099420AD041
:105A90001A461B68002BF9D16FF077008EF311883E
:105AA000BFF36F8F10BD43680C68146099420FD02C
:105AB00000230B600CF007008EF31188BFF36F8F8B
:105AC00010BD42680B6803609142F1D14360EFE77B
:105AD0004260EDE76FF01500704700BF8C4604464A
