:10000000009F002029A500005D9F0000FDA40000C6
:10001000FDA40000FDA40000FDA4000000000000FD
:100020000000000000000000000000009DA0000093
:10003000FDA40000000000000DA00000FDA40000D1
:1000400021A2000021A2000021A2000021A20000A4
:1000500021A2000021A2000021A2000021A2000094
:1000600021A2000021A2000021A2000021A2000084
:1000700021A2000021A2000021A2000021A2000074
:1000800021A2000021A2000021A2000021A2000064
:1000900021A2000021A2000021A2000021A2000054
:1000A00021A2000021A2000021A2000021A2000044
:1000B00021A2000021A2000021A2000021A2000034
:1000C00021A2000021A2000021A2000021A2000024
:1000D00021A2000021A2000021A2000021A2000014
:1000E00021A2000021A2000021A2000021A2000004
:1000F00021A2000021A2000021A2000021A20000F4
:1001000001F0FF01102A2BDB10F0070F08D010F8C8
:10011000013B013A8B422DD010F0070F42B3F6D1CC
:10012000F0B441EA012141EA014122F007047FF0E5
:1001300000070023F0E80256083C85EA010586EA3C
:10014000010685FA47F5A3FA87F586FA47F6A5FA78
:1001500087F68EB9EED1F0BC01F0FF0102F0070284
:1001600032B110F8013B013A83EA010313B1F8D12F
:100170000020704701387047002D06BF3546033810
:10018000073815F0010F07D1013015F4807F02BF49
:10019000013015F4C03F0130F0BC0138704700BF9A
:1001A00081F0004102E000BF83F0004330B54FEA28
:1001B00041044FEA430594EA050F08BF90EA020F95
:1001C0001FBF54EA000C55EA020C7FEA645C7FEA28
:1001D000655C00F0E2804FEA5454D4EB5555B8BF4B
:1001E0006D420CDD2C4480EA020281EA030382EABC
:1001F000000083EA010180EA020281EA0303362D4E
:1002000088BF30BD11F0004F4FEA01314FF4801C20
:100210004CEA113102D0404261EB410113F0004F32
:100220004FEA03334CEA133302D0524263EB4303E9
:1002300094EA050F00F0A780A4F10104D5F1200E87
:100240000DDB02FA0EFC22FA05F2801841F10001E2
:1002500003FA0EF2801843FA05F359410EE0A5F1B6
:1002600020050EF1200E012A03FA0EFC28BF4CF0E7
:10027000020C43FA05F3C01851EBE37101F000459D
:1002800007D54FF0000EDCF1000C7EEB00006EEBAA
:100290000101B1F5801F1BD3B1F5001F0CD3490834
:1002A0005FEA30004FEA3C0C04F101044FEA44528B
:1002B00012F5800F80F09A80BCF1004F08BF5FEA12
:1002C000500C50F1000041EB045141EA050130BDF2
:1002D0005FEA4C0C404141EB0101013C28BFB1F504
:1002E000801FE9D291F0000F04BF01460020B1FA4F
:1002F00081F308BF2033A3F10B03B3F120020CDA22
:100300000C3208DD02F1140CC2F10C0201FA0CF0FF
:1003100021FA02F10CE002F11402D8BFC2F1200C64
:1003200001FA02F120FA0CFCDCBF41EA0C0190401A
:10033000E41AA2BF01EB0451294330BD6FEA040463
:100340001F3C1CDA0C340EDC04F11404C4F120024E
:1003500020FA04F001FA02F340EA030021FA04F360
:1003600045EA030130BDC4F10C04C4F1200220FAB7
:1003700002F001FA04F340EA0300294630BD21FAF5
:1003800004F0294630BD94F0000F83F4801306BFBB
:1003900081F480110134013D4EE77FEA645C18BFAF
:1003A0007FEA655C29D094EA050F08BF90EA020F46
:1003B00005D054EA000C04BF1946104630BD91EA3E
:1003C000030F1EBF0021002030BD5FEA545C05D141
:1003D0004000494128BF41F0004130BD14F5800480
:1003E0003CBF01F5801130BD01F0004545F0FE41F4
:1003F00041F470014FF0000030BD7FEA645C1ABF29
:10040000194610467FEA655C1CBF0B46024650EA5F
:10041000013406BF52EA033591EA030F41F400218B
:1004200030BD00BF90F0000F04BF0021704730B511
:100430004FF4806404F132044FF000054FF00001E6
:1004400050E700BF90F0000F04BF0021704730B5A7
:100450004FF4806404F1320410F0004548BF40427C
:100460004FF000013EE700BF42004FEAE2014FEAD1
:1004700031014FEA02701FBF12F07F4393F07F4FAC
:1004800081F06051704732F07F4208BF704793F0AF
:100490007F4F04BF41F40021704730B54FF46074C2
:1004A00001F0004521F000411CE700BF50EA0102C5
:1004B00008BF704730B54FF000050AE050EA01026E
:1004C00008BF704730B511F0004502D5404261EBDE
:1004D00041014FF4806404F132045FEA915C3FF41F
:1004E000D8AE4FF003025FEADC0C18BF03325FEABC
:1004F000DC0C18BF033202EBDC02C2F1200300FA6D
:1005000003FC20FA02F001FA03FE40EA0E0021FA91
:1005100002F11444BDE600BF70B54FF0FF0C4CF47F
:10052000E06C1CEA11541DBF1CEA135594EA0C0F31
:1005300095EA0C0F00F0DEF82C4481EA030621EA6C
:100540004C5123EA4C5350EA013518BF52EA0335A7
:1005500041F4801143F4801338D0A0FB02CE4FF059
:100560000005E1FB02E506F00042E0FB03E54FF089
:100570000006E1FB03569CF0000F18BF4EF0010E81
:10058000A4F1FF04B6F5007F64F5407404D25FEA7D
:100590004E0E6D4146EB060642EAC62141EA555130
:1005A0004FEAC52040EA5E504FEACE2EB4F1FD0C72
:1005B00088BFBCF5E06F1ED8BEF1004F08BF5FEAF0
:1005C000500E50F1000041EB045170BD06F00046A2
:1005D00046EA010140EA020081EA0301B4EB5C044F
:1005E000C2BFD4EB0C0541EA045170BD41F4801147
:1005F0004FF0000E013C00F3AB8014F1360FDEBF6C
:10060000002001F0004170BDC4F10004203C35DA47
:100610000C341BDC04F11404C4F1200500FA05F3CA
:1006200020FA04F001FA05F240EA020001F000426B
:1006300021F0004110EBD37021FA04F642EB0601E1
:100640005EEA430E08BF20EAD37070BDC4F10C040B
:10065000C4F1200500FA04F320FA05F001FA04F2CF
:1006600040EA020001F0004110EBD37041F10001BB
:100670005EEA430E08BF20EAD37070BDC4F12005C6
:1006800000FA05F24EEA020E20FA04F301FA05F22E
:1006900043EA020321FA04F001F0004121FA04F2D6
:1006A00020EA020000EBD3705EEA430E08BF20EAA6
:1006B000D37070BD94F0000F0FD101F000464000E0
:1006C00041EB010111F4801F08BF013CF7D041EA62
:1006D000060195F0000F18BF704703F00046520066
:1006E00043EB030313F4801F08BF013DF7D043EA37
:1006F0000603704794EA0C0F0CEA135518BF95EAED
:100700000C0F0CD050EA410618BF52EA4306D1D173
:1007100081EA030101F000414FF0000070BD50EA92
:10072000410606BF1046194652EA430619D094EA1C
:100730000C0F02D150EA013613D195EA0C0F05D106
:1007400052EA03361CBF104619460AD181EA03015A
:1007500001F0004141F0FE4141F470014FF0000012
:1007600070BD41F0FE4141F4780170BD70B54FF0AD
:10077000FF0C4CF4E06C1CEA11541DBF1CEA13552D
:1007800094EA0C0F95EA0C0F00F0A7F8A4EB05040F
:1007900081EA030E52EA03354FEA013100F0888006
:1007A0004FEA03334FF0805545EA131343EA1263CF
:1007B0004FEA022245EA111545EA10654FEA002684
:1007C0000EF000419D4208BF964244F1FD0404F53D
:1007D000407402D25B084FEA3202B61A65EB030599
:1007E0005B084FEA32024FF480104FF4002CB6EB56
:1007F000020E75EB030E22BFB61A754640EA0C00D6
:100800005B084FEA3202B6EB020E75EB030E22BF15
:10081000B61A754640EA5C005B084FEA3202B6EB56
:10082000020E75EB030E22BFB61A754640EA9C0015
:100830005B084FEA3202B6EB020E75EB030E22BFE5
:10084000B61A754640EADC0055EA060E18D04FEAA3
:10085000051545EA16754FEA06164FEAC30343EA43
:1008600052734FEAC2025FEA1C1CC0D111F4801F10
:100870000BD141EA00014FF000004FF0004CB6E709
:1008800011F4801F04BF01430020B4F1FD0C88BFA8
:10089000BCF5E06F3FF6AFAEB5EB030C04BFB6EBB3
:1008A000020C5FEA500C50F1000041EB045170BDA6
:1008B0000EF0004E4EEA113114EB5C04C2BFD4EBD3
:1008C0000C0541EA045170BD41F480114FF0000E57
:1008D000013C90E645EA060E8DE60CEA135594EAD3
:1008E0000C0F08BF95EA0C0F3FF43BAF94EA0C0FD6
:1008F0000AD150EA01347FF434AF95EA0C0F7FF44B
:1009000025AF104619462CE795EA0C0F06D152EA9E
:1009100003353FF4FDAE1046194622E750EA410682
:1009200018BF52EA43067FF4C5AE50EA41047FF493
:100930000DAF52EA43057FF4EBAE12E74FEA4102F6
:1009400012F5001215D211D56FF47873B3EB625221
:1009500012D94FEAC12343F0004343EA505311F048
:10096000004F23FA02F018BF404270474FF00000DA
:10097000704750EA013005D111F0004008BF6FF018
:10098000004070474FF00000704700BF80F000400B
:1009900002E000BF81F0004142001FBF5FEA410357
:1009A00092EA030F7FEA226C7FEA236C6AD04FEA57
:1009B0001262D2EB1363C1BFD2184140484041409C
:1009C000B8BF5B42192B88BF704710F0004F40F44E
:1009D000000020F07F4018BF404211F0004F41F46A
:1009E000000121F07F4118BF494292EA030F3FD036
:1009F000A2F1010241FA03FC10EB0C00C3F1200349
:100A000001FA03F100F0004302D5494260EB4000D7
:100A1000B0F5000F13D3B0F1807F06D340084FEA42
:100A2000310102F10102FE2A51D2B1F1004F40EB37
:100A3000C25008BF20F0010040EA0300704749009F
:100A400040EB0000013A28BFB0F5000FEDD2B0FA3C
:100A500080FCACF1080CB2EB0C0200FA0CF0AABF5F
:100A600000EBC25052421843BCBFD04018437047FD
:100A700092F0000F81F4000106BF80F40000013203
:100A8000013BB5E74FEA41037FEA226C18BF7FEADA
:100A9000236C21D092EA030F04D092F0000F08BF1C
:100AA0000846704790EA010F1CBF0020704712F003
:100AB0007F4F04D1400028BF40F00040704712F142
:100AC00000723CBF00F50000704700F0004343F0A7
:100AD000FE4040F4000070477FEA226216BF0846DD
:100AE0007FEA23630146420206BF5FEA412390EAA0
:100AF000010F40F4800070474FF0000304E000BF96
:100B000010F0004348BF40425FEA000C08BF704746
:100B100043F0964301464FF000001CE050EA01020A
:100B200008BF70474FF000030AE000BF50EA01021F
:100B300008BF704711F0004302D5404261EB41010C
:100B40005FEA010C02BF84460146002043F0B64331
:100B500008BFA3F18053A3F50003BCFA8CF2083A56
:100B6000A3EBC25310DB01FA02FC634400FA02FC5F
:100B7000C2F12002BCF1004F20FA02F243EB020066
:100B800008BF20F00100704702F1200201FA02FCC8
:100B9000C2F1200250EA4C0021FA02F243EB0200BB
:100BA00008BF20EADC70704753B94AB9002908BF72
:100BB00000281CBF4FF0FF314FF0FF3000F00CB8A1
:100BC000ADF1080C6DE904CE01F0F8FADDF804E0AF
:100BD000DDE9022304B07047704700BF2DE9F14FF3
:100BE00003F11C0402EB840C4FEA930B8A68CB6878
:100BF0000868496800F046F93CE9F0006040694047
:100C000072407B400BF1060E4EE083EA134480EA0B
:100C1000134582EA134746BA96EA3444604000F02E
:100C20000F1684EA063420F00F1684EA161054BA20
:100C300094EA0106724002F00F1486EA043622F0AC
:100C40000F1486EA14124CBA6540694001F00F1483
:100C500085EA043521F00F1485EA14115CBA674067
:100C60007B4003F00F1487EA043723F00F1487EA60
:100C7000141344BA44404DBA4D4056BA56405FBA78
:100C80005F4087EA174886EA174B84EA17464FEA1F
:100C900038488BEA1B4485EA1B4788EA1B4580EAF3
:100CA0003440694072407B4000F0703400F0803581
:100CB00000F00F3040EA440040EAD50080EA90049A
:100CC00004F0332480EA8400604001F0703401F0C5
:100CD000803501F00F3141EA440141EAD50181EA52
:100CE000910404F0332481EA8401614002F07034FD
:100CF00002F0803502F00F3242EA440242EAD502A5
:100D000082EA920404F0332482EA8402624003F00F
:100D1000703403F0803503F00F3343EA440343EAB1
:100D2000D50383EA930404F0332483EA8403634005
:100D3000C943DB4381EA000483EA044686EA0201F0
:100D400083EA014382EA334583EA14435C4084EA40
:100D500000077FEA040A8AEA024A8AEA010B87EA64
:100D600011488AEA374A80EA060181EA1A418AEA8A
:100D7000030A04EA0A00454088EA040707EA0B0070
:100D800041408AEA0B0608EA060084EA34428AEA0D
:100D90003A4602EA060358404540414087EA374355
:100DA0008BEA3B4003EA000985EA090582EA030968
:100DB000464006EA0906714085EA010005EA354623
:100DC000464006EA314181EA304181EA364606EA88
:100DD000304686EA354634400F4086EA010508EA87
:100DE000050886EA3640024088EA020881EA314274
:100DF00013405C4080EA020309EA030987EA090715
:100E0000674088EA040806EA0A0601EA0B018AEA52
:100E10000B0425408AEA3A44204045408BEA3B4B8C
:100E200002EA0B02564084EA0B04234059406E400C
:100E3000694087EA364080EA384080EA060380EA63
:100E4000104481EA134585EA344585EA17427D401E
:100E500082EA354180EA05403CE9F00060406940A3
:100E600072407B40BEF1010E3FF6CFAE20BC00F0D9
:100E70005FF828606960AA60EB60BDE8F08F00BF92
:100E800000F000BA80EA101404F0F01480EA0410B4
:100E9000604081EA111404F0F01481EA0411614009
:100EA00082EA121404F0F01482EA0412624083EA27
:100EB000131404F0F01483EA0413634080EA10244E
:100EC00004F47F4480EA0420604081EA112404F4A1
:100ED0007F4481EA0421614082EA122404F47F44C1
:100EE00082EA0422624083EA132404F47F4483EA02
:100EF0000423634081EA500404F0553480EA44003E
:100F0000614083EA520404F0553482EA44026340AB
:100F100082EA900404F0333480EA8400624083EA79
:100F2000910404F0333481EA84016340704700BFC8
:100F300082EA900404F0333480EA8400624083EA59
:100F4000910404F0333481EA8401634081EA50045F
:100F500004F0553480EA4400614083EA520404F00E
:100F6000553482EA4402634080EA102404F47F444A
:100F700080EA0420604081EA112404F47F4481EA7D
:100F80000421614082EA122404F47F4482EA0422AC
:100F9000624083EA132404F47F4483EA0423634019
:100FA00080EA101404F0F01480EA0410604081EA32
:100FB000111404F0F01481EA0411614082EA121461
:100FC00004F0F01482EA0412624083EA131404F07D
:100FD000F01483EA04136340704700BF2DE9F14F1A
:100FE00094464FEA930B8A68CB6808684968FFF714
:100FF00049FF0BF1060E33E083EA134480EA134500
:1010000082EA134746BA96EA3444604000F00F166D
:1010100084EA063420F00F1684EA161054BA94EAD3
:101020000106724002F00F1486EA043622F00F1413
:1010300086EA14124CBA6540694001F00F1485EA43
:10104000043521F00F1485EA14115CBA67407B4027
:1010500003F00F1487EA043723F00F1487EA141300
:10106000BCE8F0006040694072407B4000F0E03432
:1010700000F0103500F00F3040EA540040EAC5009F
:1010800080EA900404F0332480EA8400604001F098
:10109000E03401F0103501F00F3141EA540141EA2A
:1010A000C50181EA910404F0332481EA840161409E
:1010B00002F0E03402F0103502F00F3242EA54023E
:1010C00042EAC50282EA920404F0332482EA8402EE
:1010D000624003F0E03403F0103503F00F3343EACD
:1010E000540343EAC50383EA930404F0332483EAF8
:1010F0008403634081EA324787EA134581EA354633
:1011000090EA060484EA034B82EA1B4280EA044424
:1011100084EA054483EA144A85EA14448BEA044BC2
:1011200084EA374481EA0B4181EA164104EA0A0065
:10113000454082EA04082BEA080041408AEA0B068F
:1011400002EA060084EA34438AEA3A4603EA0607DA
:1011500078404540414088EA38478BEA3B4007EAFF
:10116000000985EA090583EA0709464006EA0906F7
:10117000714085EA010005EA3546464006EA3141FC
:1011800081EA304181EA364606EA304686EA35464B
:10119000344008EA010886EA01052A4086EA36401A
:1011A00003405A4081EA31431F407C4080EA0307F4
:1011B00009EA070988EA0908544088EA020806EAA9
:1011C0000A0601EA0B018AEA0B0215408AEA3A4252
:1011D000104045408BEA3B4003405E404240174090
:1011E00079404D404E40E443F64386EA18435D4063
:1011F00085EA054083EA134386EA034183EA3842DD
:1012000084EA114383EA04435FEA3343BEF1010EEB
:101210003FF6F2AE1ED4BCE8F00060406940724078
:101220007B4020BCFFF784FE28606960AA60EB6009
:10123000BDE8F08F2DE9E0414FF2F00280EA103175
:10124000114080EA0130484041088208C3084FF04D
:10125000000E4FE700F0113001F0113102F01132B1
:1012600003F0113340EA410040EA820040EAC30043
:101270004FF2F00280EA1031114080EA013048401C
:10128000BDE8E0812DE9F04F02F11C050646074656
:1012900000EB850851F8040B043A46F8040BF9D129
:1012A0004FF0010CFFF7C6FF5FEA302080EA0C0028
:1012B0001ECF41404A4053405C401EC62000464578
:1012C00017D04FEA4C0C1CF4807F18BFACF1E50C32
:1012D0002C2DE7D03C2D06D1FFF7ACFF06CF4140C7
:1012E0004A4006C6100006CF41404A4006C61000DC
:1012F000D8E736E90F00FFF7C5FD043D86E80F008B
:10130000F7D1BDE8F08F00BF2DE9F00391E8F803B5
:10131000B2E802105B1854EB0C04B2E802104D4125
:1013200056EB0C0692E806104F4158EB020859EBB9
:101330000C0980E8F80380410130BDE8F0037047F4
:101340002DE9F00391E8F803B2E802105B1A74EBA0
:101350000C04B2E802108D4176EB0C0692E8061000
:101360008F4178EB020879EB0C0980E8F8038041A3
:101370004042BDE8F00370472DE9F003524290E887
:101380003800B1E880031740DB1918EA020854EB73
:10139000080419EA020955EB090538C090E87800FD
:1013A00091E8820311404B4117407C4118EA020842
:1013B00055EB080519EA020956EB090678C0804189
:1013C0000130BDE8F00370472DE9F003524290E888
:1013D0003800B1E880031740DB1B18EA020874EB01
:1013E000080419EA020975EB090538C090E878008D
:1013F00091E8820311408B411740BC4118EA020872
:1014000075EB080519EA020976EB090678C08041F8
:101410004042BDE8F00370472DE9F00152424FF021
:10142000030890E8300091E8C000A31B1340E41AC1
:10143000F618EB1B1340ED1AFF1830C0C0C1B8F10D
:101440000108EED104680E68A31B1340E41AF618D5
:1014500004600E60BDE8F001704700BF00B592EC7B
:10146000070AB1E8005E07EE101A56EC102A58EC95
:10147000117AA9FB0250AAFB0234E9FB6603EBFBDD
:10148000624340EC145AAAFB0605ECFB6235E9FB0B
:101490006740E9FB6830EEFB6250AAFB0721EAFBDC
:1014A0006851EBFB680112EE108AEBFB6632ECFB35
:1014B0006652EAFB6802EBFB681243EC154AA9FB93
:1014C000084312EE908AE9FB6803EAFB6813EBFB22
:1014D0006823EBFB6754EEFB660413EE108AE9FB0E
:1014E0006814EAFB6824EBFB683406EE105A17EE2A
:1014F000109A99E8000CACFB076511EE909AECFB92
:101500006915EEFB6925EAFB6935EBFB694510EED1
:10151000109AEAFB6906EBFB691612EE109AECFBD7
:101520006926EEFB6936EAFB6946EBFB695610EE6D
:10153000909AAAFB0987EBFB692712EE909AECFBC5
:101540006937EEFB6947EAFB6957EBFB696711EE08
:10155000109AEEFB6918EAFB6928EBFB693813EE79
:10156000109AECFB6948EEFB6958EAFB6968EBFBF3
:10157000697800BD2DE9F04F07EE900AFFF76EFF86
:1015800017EE909AA9EC054A89E8FF01BDE8F08FB3
:1015900000B591E8805FA7FB0750A7FB0834E7FB85
:1015A0006803E7FB694340EC145AA7FB0905E7FB16
:1015B0006A35E8FB6840E7FB6A30E7FB6B50A8FB45
:1015C0000921E7FB6B51E7FB6C01E8FB6932E8FBA3
:1015D0006A52E7FB6C02E7FB6E1243EC154AA8FB6C
:1015E0000A43E8FB6B03E7FB6E13E8FB6E23E9FBA2
:1015F0006954E8FB6B04E8FB6C14E8FB6E24E9FB20
:101600006E3406EE105AA9FB0A65E8FB6C15E9FB7F
:101610006C25E9FB6E35EAFB6E45E9FB6A06E9FBE2
:101620006B16E9FB6C26EAFB6C36EAFB6E46EBFBBD
:101630006E56A9FB0B87EAFB6B27EAFB6C37EBFBCB
:101640006C47EBFB6E57ECFB6E67EAFB6A18EAFB34
:101650006B28EBFB6B38EBFB6C48ECFB6C58ECFB42
:101660006E68EEFB6E7800BD2DE9F04F07EE900A34
:10167000FFF78EFF17EE909AA9EC054A89E8FF0163
:10168000BDE8F08F2DE9F00791E8F807B2E8021005
:101690005B1854EB0C04B2E802104D4156EB0C06FB
:1016A000B2E802104F4158EB0C08B2E8021059EBB7
:1016B00001095AEB0C0A80E8F80780410130BDE8C7
:1016C000F00770472DE9F00791E8F807B2E802103B
:1016D0005B1A74EB0C04B2E802108D4176EB0C0639
:1016E000B2E802108F4178EB0C08B2E8021079EBF7
:1016F00001097AEB0C0A80E8F80780414042BDE816
:10170000F00770472DE9F007524290E87800B1E801
:1017100080071740DB1918EA020854EB080419EA9D
:10172000020955EB09051AEA020A56EB0A0678C0C7
:1017300090E87800B1E8800717407B4118EA02087A
:1017400054EB080419EA020955EB09051AEA020AE2
:1017500056EB0A0678C080410130BDE8F0077047BB
:101760002DE9F007524290E87800B1E88007174071
:10177000DB1B18EA020874EB080419EA020975EB8E
:1017800009051AEA020A76EB0A0678C090E87800A2
:10179000B1E880071740BB4118EA020874EB08045F
:1017A00019EA020975EB09051AEA020A76EB0A063C
:1017B00078C080414042BDE8F00770472DE9F00154
:1017C00052424FF0040890E8300091E8C000A31B9B
:1017D0001340E41AF618EB1B1340ED1AFF1830C043
:1017E000C0C1B8F10108EED1BDE8F001704700BFFB
:1017F00000B592EC080AB1E8805707EE101A53ECD6
:10180000102A56EC114AA7FB0251A8FB020BE7FB7A
:101810006310E9FB62B041EC145AA8FB0351EAFBE8
:101820006201E7FB64B5E7FB6605E8FB661505EEBC
:1018300010BAA9FB03B6EAFB6316ECFB6356E8FBA0
:10184000640BE9FB641BEAFB645BECFB646B05EE79
:10185000900AACFB023012EE104AEEFB6250E9FB3C
:101860006460EAFB64B0E7FB6431E8FB645112EEAC
:10187000904AE8FB6461E9FB64B1EAFB640106EEAF
:10188000103AA7FB043213EE104AE7FB6462E8FB50
:1018900064B2E9FB6402EAFB641211EE904AE9FBD0
:1018A0006453EAFB646313EE904AE7FB64B3E8FB1E
:1018B0006403E9FB6413EAFB642306EE905A17EE17
:1018C000109A99E8000610EE108AA9FB0854EAFB6A
:1018D00068B412EE108AECFB6804EEFB6814E9FBB6
:1018E0006824EAFB683410EE908AEEFB6865E9FB39
:1018F00068B5EAFB680512EE908AECFB6815EEFB12
:101900006825E9FB6835EAFB684507EE106A11EEC9
:10191000108AAEFB0876E9FB6806EAFB681613EE50
:10192000108AECFB6826EEFB6836E9FB6846EAFBAA
:10193000685611EE908AECFB68B7EEFB6807E9FB8E
:101940006817EAFB682713EE908AECFB6837EEFB1A
:101950006847E9FB6857EAFB686700BD2DE9F04F6F
:1019600007EE900AFFF744FF17EE908A07EE90BA51
:10197000A8EC084A88E8FF00BDE8F08F00B591E8C0
:101980009857A3FB0352A3FB0401E3FB6420E3FB92
:10199000671042EC145AA3FB0752E3FB6802E4FB16
:1019A0006415E3FB6805E3FB6925A4FB07B6E3FBCD
:1019B0006926E3FB6A56E4FB670BE4FB682BE3FB59
:1019C0006A5BE3FB6C6B40EC151AA4FB0810E4FBAC
:1019D0006950E3FB6C60E3FB6EB0E7FB6721E4FB5F
:1019E0006951E4FB6A61E3FB6EB1E4FB6E0106EE54
:1019F000102AA7FB0832E4FB6A62E4FB6CB2E4FB4A
:101A00006E02E7FB6E12E7FB6853E7FB6963E4FBDA
:101A10006CB3E7FB6C03E7FB6E13E8FB6E2306EE8B
:101A2000905AA7FB0954E7FB6AB4E7FB6C04E8FB98
:101A30006C14E8FB6E24E9FB6E34E8FB6865E7FB99
:101A40006AB5E8FB6A05E8FB6C15E9FB6C25E9FB68
:101A50006E35EAFB6E4507EE106AA8FB0976E8FBD7
:101A60006A06E9FB6A16E9FB6C26EAFB6C36EAFBC0
:101A70006E46ECFB6E56E8FB69B7E9FB6907E9FBCC
:101A80006A17EAFB6A27EAFB6C37ECFB6C47ECFB56
:101A90006E57EEFB6E6700BD2DE9F04F07EE900A22
:101AA000FFF76CFF17EE908A07EE90BAA8EC084A91
:101AB00088E8FF00BDE8F08F30B44FF0000310F865
:101AC000014B11F8015B013A84EA050443EA04037F
:101AD000F5D1A3F101034FEAD37030BC704700BFCA
:101AE0004FF0000310F8012B013943EA0203F9D14A
:101AF000A3F101034FEAD370704700BF30B411F86F
:101B0000014B12F8015B6C4000F8014B013BF6D130
:101B100030BC70472DE9F00391E8F803B2E80210F9
:101B20005B1854EB0C04B2E802104D4156EB0C0666
:101B300092E806104F4158EB020859EB0C09894115
:101B4000013B74F1000475F1000576F1FF3677F181
:101B5000FF3778F1FF3879F1FF3951F1000113EBCC
:101B6000D17354F1000455F100054E414F4158EB3B
:101B7000010859EB010980E8F803BDE8F00370475C
:101B80002DE9F00391E8F803B2E802105B1A74EB58
:101B90000C04B2E802108D4176EB0C0692E80610B8
:101BA0008F4178EB020879EB0C09894113EBD17373
:101BB00054F1000455F100054E414F4158EB010826
:101BC00059EB010980E8F803BDE8F003704700BF56
:101BD0002DE9F04F07EE900AFFF740FC5AEC359ADA
:101BE000B9EB05097AEB060AB84171EB080172F10D
:101BF000000273F1000374F100046BEB0B0B491945
:101C000072417B4154EB08044BF1000557EC146A18
:101C100015EE108ABEEB0E0E59EB02095AEB030AC1
:101C2000604169415EF1000E96419F4178EB0408E6
:101C300079EB05097AF1000A70F1000B71F1000CE3
:101C40006EF1010E16EBDE7657F1000758F1000831
:101C500059EB0E095AEB0E0A5BEB0E0B5CEB0E0C0C
:101C600017EE900A80E8C01FBDE8F08F2DE9F04F15
:101C700007EE900AFFF78CFCB0E700BF2DE9F007F4
:101C800091E8F807B2E802105B1854EB0C04B2E8D4
:101C900002104D4156EB0C06B2E802104F4158EBD2
:101CA0000C08B2E8021059EB01095AEB0C0A894101
:101CB000B3F1FF3374F1FF3475F1FF3576F10006AF
:101CC00077F1000778F1000879F101097AF1FF3A1C
:101CD00051F100015B184C414D4156F1000657F19E
:101CE000000758F1000859EBD1795AEB010A80E856
:101CF000F807BDE8F00770472DE9F00791E8F8070D
:101D0000B2E802105B1A74EB0C04B2E802108D41C9
:101D100076EB0C06B2E802108F4178EB0C08B2E8C3
:101D2000021079EB01097AEB0C0A89415B184C41EE
:101D30004D4156F1000657F1000758F1000859EBE4
:101D4000D1795AEB010A80E8F807BDE8F00770473F
:101D500018EB040859EB05095AEB060A5BEB070B75
:101D60005FF0000C4CF1000C18EB050859EB06096C
:101D70005AEB070A5BEB070B50EB0C005FF0000C13
:101D800051EB0C0152EB0C0263414CF1000CB8EB2F
:101D9000070879F100097AF1000A7BEB040BA841EE
:101DA000B141A241B3416CF1000CBBEB050BB0415A
:101DB000B941AA41BB416CF1000C6FEAEC74B8EB7D
:101DC000040879EB04097AEB040A7BF1000B70F14B
:101DD000000071F1000172EBD472A3416CF1000CB0
:101DE00018EBEC7859EBEC795AEBEC7A5BF1000BE1
:101DF00050F1000451F1000552EBDC7653EBEC7727
:101E00004CF1000C18EBEC7059EBEC715AEBEC72E6
:101E10005BF1000354F1000455F1000556EBDC764C
:101E200057EBEC77704700BF2DE9F04F07EE900AB3
:101E3000FFF7DEFC59EC168A17EE10AAFFF788FFB1
:101E400059EC148A5BEC15AAFFF782FF17EE908A13
:101E500088E8FF00BDE8F08F2DE9F04F07EE900A0B
:101E6000FFF78CFD59EC168A17EE10AAFFF770FFEA
:101E700059EC148A5BEC15AAFFF76AFF17EE908AFB
:101E800088E8FF00BDE8F08F2DE9F04F90E8F00FF3
:101E900000F140004FF0040E59E0F0B4826BC36BC8
:101EA00004680525242687593C444FEA724787EA8F
:101EB000F24787EA92273C4442684FEAF21787EAE2
:101EC000B24787EAD2073C4440F8044B032D08BFD1
:101ED0006FF01B0687593A444FEA734787EAF34786
:101EE00087EA93273A4443684FEAF31787EAB347F0
:101EF00087EAD3073A4440F8042B87593B444FEA1A
:101F0000744787EAF44787EA94273B4444684FEADA
:101F1000F41787EAB44787EAD4073B4440F8043B08
:101F2000013DC0D1A0F13C00076A3C444FEA724732
:101F300087EAF24787EA92273C4402684FEAF217A1
:101F400087EAB24787EAD2073C44C463F0BC4FF04B
:101F5000020288EA781C8CEAF84C0BEBBC1C8AEA7B
:101F6000090303EA080383EA0A039C4450F8043B8C
:101F70009C4451F8043B9C44674444EA050B0BEA3B
:101F8000060B04EA05034BEA030BE34484EAF4235B
:101F900083EA34530BEBB30B87EA771C8CEAF74CDC
:101FA0000AEBBC1C89EA080303EA070383EA090376
:101FB0009C4450F8043B9C4451F8043B9C446644C8
:101FC0004BEA040A0AEA050A0BEA04034AEA030A8E
:101FD000E2448BEAFB2383EA3B530AEBB30A86EA2B
:101FE000761C8CEAF64C09EBBC1C88EA070303EA72
:101FF000060383EA08039C4450F8043B9C4451F8D0
:10200000043B9C4465444AEA0B0909EA04090AEACC
:102010000B0349EA0309E1448AEAFA2383EA3A53C3
:1020200009EBB30985EA751C8CEAF54C08EBBC1C7E
:1020300087EA060303EA050383EA07039C4450F892
:10204000043B9C4451F8043B9C44644449EA0A081C
:1020500008EA0B0809EA0A0348EA0308E04489EAA7
:10206000F92383EA395308EBB30884EA741C8CEA39
:10207000F44C07EBBC1C86EA050303EA040383EA7D
:1020800006039C4450F8043B9C4451F8043B9C4498
:10209000E34448EA090707EA0A0708EA090347EAA6
:1020A0000307674488EAF82383EA385307EBB3074A
:1020B0008BEA7B1C8CEAFB4C06EBBC1C85EA040318
:1020C00003EA0B0383EA05039C4450F8043B9C4459
:1020D00051F8043B9C44E24447EA080606EA090634
:1020E00007EA080346EA0306664487EAF72383EA19
:1020F000375306EBB3068AEA7A1C8CEAFA4C05EBF6
:10210000BC1C84EA0B0303EA0A0383EA04039C442D
:1021100050F8043B9C4451F8043B9C44E14446EA9B
:10212000070505EA080506EA070345EA03056544CD
:1021300086EAF62383EA365305EBB30589EA791C70
:102140008CEAF94C04EBBC1C8BEA0A0303EA090392
:1021500083EA0B039C4450F8043B9C4451F8043B35
:102160009C44E04445EA060404EA070405EA060341
:1021700044EA0304644485EAF52383EA355304EB17
:10218000B304013A7FF4E5AEA0F14000BEF1010EC8
:102190007FF483AEA0F1400C9CE80F0000194919B0
:1021A0009219DB19ACE80F009CE80F004044494449
:1021B00052445B44ACE80F00BDE8F08F2DE9F047D6
:1021C00086468C460846089E154674461946002BDE
:1021D00040F0C2808542B2FA82F245D94AB1C2F1DA
:1021E000200300FA02FC2EFA03F3954043EA0C0C9C
:1021F00094404FEA154EA8B2BCFBFEF8230C0EFB30
:1022000018CC08FB00F943EA0C43994528D9EB1890
:1022100008F1FF3704D2994502D9A8F102072B44EF
:10222000A3EB0903A4B2B3FBFEFC0EFB1C330CFBB7
:1022300000F044EA0344A04214D92C190CF1FF33F6
:1022400004D2A04202D9ACF102032C44241A43EA7E
:1022500007401EB1D440002334607360BDE8F087AE
:102260004746DDE76346F1E792BB431B01214FEA96
:10227000154EAFB2B3FBFEFC200C0EFB1C330CFB67
:1022800007F840EA0343984562D9EB180CF1FF3098
:1022900004D2984502D9ACF102002B44A3EB080309
:1022A000A4B2B3FBFEFC0EFB1C330CFB07F744EAA5
:1022B0000344A7424ED92C190CF1FF3304D2A74294
:1022C00002D9ACF102032C44E41B43EA0040C0E70E
:1022D000C2F1200320FA03F1954090402EFA03F357
:1022E00003434FEA154EAFB2B1FBFEFC0EFB1C10D0
:1022F000190C0CFB07F841EA0041884504FA02F486
:1023000022D969180CF1FF3004D2884502D9ACF10A
:1023100002002944A1EB08019BB2B1FBFEFC0EFBBD
:102320001C110CFB07F743EA01439F420ED9EB183F
:102330000CF1FF3104D29F4202D9ACF102012B44CF
:10234000DB1B41EA004192E76046E3E76146F7E7BD
:102350006046A3E76346B7E7834206D916B9002172
:1023600008467BE7C6E900E0F9E7B3FA83F78FB9DF
:10237000834201D3724508D8BEEB020460EB03032D
:1023800001209C461EB9002168E73846FAE7C6E9F5
:10239000004CF8E7C7F1200CBB4022FA0CF41C43B8
:1023A0002EFA0CF120FA0CF3B84001434FEA14491D
:1023B0000EFA07F5B3FBF9F81FFA84FE09FB183093
:1023C0000B0C08FB0EFA43EA00439A4502FA07F2A7
:1023D00040D9E31808F1FF3004D29A4502D9A8F198
:1023E00002002344A3EB0A0389B2B3FBF9F809FB0B
:1023F000183308FB0EFE41EA03418E452CD96118C3
:1024000008F1FF3304D28E4502D9A8F1020321441A
:1024100043EA0040A0FB0298A1EB0E014145CE46E5
:10242000434602D306D14D4504D2B9EB020E68EB08
:1024300004030138002EA6D0B5EB0E0261EB0301B8
:1024400001FA0CFC22FA07F34CEA0303F940C6E94F
:10245000003198E74046C5E74346D9E710F8012B1D
:1024600011F8013B012A28BF9A42F7D0D01A7047D1
:10247000034613F8012B002AFBD1181A01387047C4
:1024800010B54FF0FF331E484FF0FF321BF09AF8A3
:102490001C4B0024BFF35B8F1A68BFF35B8F7AB1CC
:1024A0000134042C03F12003F4D108F025FB172399
:1024B00003604FF0FF3412481BF064F9204610BD52
:1024C000BFF35B8F53E8001F013143E80012002A7D
:1024D000F8D1BFF35B8F9FED087B0B4800EB4413F3
:1024E00083ED007B63010C3318441BF063F8044850
:1024F0001BF048F9204610BD00000000000000005D
:10250000EC020020502100204821002000000000A3
:1025100070B59FED137B84B000248DED007B029499
:10252000234605460AF0A2FF061E0DDB2B6800932A
:1025300028460D49002200230BF032F9051EA8BFE2
:10254000204608DB04B070BD08F0D6FA764206607B
:102550004FF0FF30F6E708F0CFFA6D420560F7E77D
:102560000080010000000000B982000000000000AF
:102570002DE9F04F2DED028B83B088460E9F9DF81C
:10258000449015461E460446002800F0E080B64BF5
:10259000984279D2B549B64840F2A95204F0A8FF52
:1025A000B24840F2A95104F09BFFB4F89630D90725
:1025B00040F15081B9F1000F5AD196B1C3F3C20274
:1025C000022A08BF4FF0000956D1172F54D972685C
:1025D00006F1040A42B9B26832B9F26822B9326926
:1025E00012B96FF078063DE0E26A002A51D094F902
:1025F0009800B9F1000F01D0002D66D009F0C8FA9B
:1026000040B10368BFF35B8FDB68BFF35B8FDB0711
:1026100040F123819FED928B94F9980009F0B8FA6C
:102620008DED008BB4F8962094F89430C2F3C2027A
:1026300029460BF011FD0746002866D094F8941047
:1026400044610BF04DFBA8424DD30F9BA364109B3C
:102650002360B4F89430112B4ED06FF07A063846D0
:102660000BF0F4FA304603B0BDEC028BBDE8F08FFE
:10267000002FA2D1002E50D06FF01506304603B0C7
:10268000BDEC028BBDE8F08F03F5C36398428CD399
:1026900080E7226B002AAAD1626B002AA7D1A26B25
:1026A000002AA4D11A05A2D4504609F0EDFF07462E
:1026B000002800F0C38038460AF014F940B284F8CC
:1026C0009800B9F1000F97D198E7D9F80C100029BC
:1026D00094D0D9F8082002EBC101536808328A422D
:1026E0001D44FAD18AE7B4F89630C3F38113022B64
:1026F00000F0C9800546A8E7B4F89630C3F3C203DA
:10270000022B41D06FF01506A9E76FF0680630463E
:1027100003B0BDEC028BBDE8F08FB8F1000F3FF4C1
:1027200060AFC3F3C202022AA6D1D8E900670EB196
:10273000C1464AE7E26A04F1280604F12C0AEAB12C
:1027400094F99800C146002D7FF458AFBDE740F2E0
:10275000A9524649464804F0CBFE444840F2A951EC
:1027600004F0BEFE4349424840F25B1204F0C0FE52
:10277000404840F25B1104F0B3FE16E7226BC146FD
:10278000002A3FF42AAF85E7534600223946204607
:10279000B6F802A00AF032FE061EFFF660AF204631
:1027A0000AF098FD8346C0B1BBF1000F6EDB3846DE
:1027B0000BF08EFCB4F89630C3F3C203022B37D073
:1027C000384608F071FF061EFFF649AF2E46304628
:1027D00003B0BDEC028BBDE8F08FE18B524638466A
:1027E0000CF0C2FD83460028DED1AA46B9F1000FE5
:1027F00042D0D9F80C303BB9D9E7BAEB080AD6D0A9
:10280000D9F80C305B45D2D9D9F8083003EBCB02AC
:1028100053F83B105368534528BF53461A46384671
:1028200098460BF063FE061E0BF1010BE5DA16E786
:1028300094F8941038460CF015F8C1E70D490C488F
:1028400040F2912204F054FE0A4840F2912104F033
:1028500047FE30E76FF0080604E76FF0720601E705
:102860000080000000000000EC47002068CF03005B
:10287000C0CA0300B8CB03002A46414638460BF0D5
:1028800035FE834690E76FF00B06EBE65E46E6E624
:102890002DE9F047054686B09946002428230F46C7
:1028A000CDE9024390460BF013FC02A928460BF039
:1028B0003BFE002800F0D08083793A2B064666D094
:1028C000112B61D0062B5CD0AC68002C00F0B580D9
:1028D0004FF0000CA38924689C44002CFAD195F891
:1028E0002430A8699FED5E7B022202FB03CC8DEDB4
:1028F000007B0CF104013A230BF0AEFB04460028E8
:1029000000F0A78095F82420296A0BF0EFFDB0F1C4
:10291000000A2FDBA3689B68A36295F82C20A96AA4
:1029200020460BF0E3FDB0F1000A23DBA06895F828
:102930002C10083008F028FBA06850F8083F2362EC
:1029400095F8241008F020FB95F82C3084F82430FA
:1029500095F8243084F82C30337EFF2B06F11801D3
:1029600063D006F1080220460BF03CFF064620B378
:102970006FF0040A20460BF069F9504606B0BDE836
:10298000F0874FF03C0CAAE74FF0300CA7E7039913
:1029900004940423284605930BF0A0FB04A92846C1
:1029A0000BF0C2FD002845D090F90130A34241DA76
:1029B00028460BF08DFBB37982E704904FF0040AB0
:1029C00004A92046CDF814A00BF0AEFD0028CFD00E
:1029D00080F8018007708670C67004A920460BF04D
:1029E000C9FD0028C4D1042F29D0524601462046F3
:1029F0000BF080FB824620460BF054F9BAF1000F31
:102A0000B8D10246294620460BF08AFB0028B1D1F6
:102A100020460BF05DFB3A2120460BF023FF2046B9
:102A200008F042FE0028A5DBA7E7A06909F0A8FD91
:102A3000014696E76FF0150A9FE7A4464FE799FA1B
:102A400089F33A4604A9204604930BF04FFD8246D1
:102A5000D1E76FF00B0A90E76FF0040A8DE700BF33
:102A6000008000000000000000B589B09FED0E7BE3
:102A700006ABCDE9063302AA8023CDE902220093FA
:102A80000B4A02AB8DED047B0CF0EEFC002805DB5D
:102A90004FF48042002302A81BF0B2F809B05DF8A1
:102AA00004FB00BFAFF30080000000000100000045
:102AB00011F6000000000000474BD3F804239007F4
:102AC00002D5D3F804218AB94FF02003EFF3118225
:102AD00083F31288BFF36F8F3F4BD3F80413C903FE
:102AE0000ED482F31188BFF36F8F70473B4A0021E9
:102AF000C3F80411D3F80431136801331360E3E71A
:102B0000F0B53749BFF35B8F83B051E8000F20F079
:102B1000010441E80045002DF7D1BFF35B8F40B9B8
:102B2000D3F840312BB982F31188BFF36F8F03B014
:102B3000F0BD29480023C0F84031D0F8403182F37D
:102B40001188BFF36F8F254B1B68190A1B06BFF353
:102B50005F8FD0F80425D31841F10001B2F5801F32
:102B60000AD2204AD2E90045A34271EB050203D202
:102B700013F1807341F100014FF02002EFF3118C4B
:102B800082F31288BFF36F8F174AD2E90245A3423E
:102B9000A94118D39FED0E7B0F4E1168536800209A
:102BA0004FF4803782ED027B1060C6F848738CF3D7
:102BB0001188BFF36F8F0029B9D0009322462B46AE
:102BC000884703B0F0BD8CF31188BFF36F8FAEE779
:102BD000FFFFFFFFFFFFFFFF001001402850002014
:102BE00020500020982300208023002000000000B7
:102BF0002DE9F0472DED028B9FED358BDFF8D88066
:102C0000DFF8D8A082B0074600F595694FF0FF3392
:102C10004FF0FF3248461AF029FF43680446002B64
:102C200044D0257A0235EDB2802D2ED88DED008B63
:102C3000002338681A4629460BF022FA064680B36C
:102C400061682A4610310BF051FC0546D8B9237C47
:102C500086F84230A17C96F84430627C61F34103EF
:102C600086F84430386886F84320314608F0AEFDD7
:102C70000028606826DA11F0DBFC00236360304630
:102C80000AF0E4FFC2E76068F5E7414650464FF4BA
:102C9000457204F02DFC4FF44571404604F020FCD1
:102CA000C4E7606811F0C4FC6660AFE74146504677
:102CB00040F2053204F01CFC40F20531404604F0BD
:102CC0000FFCAEE711F0B4FC65609FE7AFF3008046
:102CD000000000000000000038D20300C0CA03005A
:102CE0000A7B02B97047F0B50B4691F800C04979EC
:102CF0000CF1010C8909ACEB020C0129BDB0864630
:102D000000EB0C0411D0022930D13D4D501C05239D
:102D10002880AB702146DA23E81C39F0E9F8284610
:102D20003DB0BDE8F0400FF0E5BA9FED337B8DED8F
:102D3000007B8DED027B4FF080501EF80C60D0F8C8
:102D4000A810D0F8A400B4F80570049089B20090DF
:102D5000D4F80100ADF80C7004AD0591ADF8041085
:102D600002902EB1022E01D1112A1DD03DB0F0BD2E
:102D70004B2AFBD12146DC799879DB7A8DF8153026
:102D800004F0030340EA03204F23ADF81300ADF82D
:102D900010300DF1160002238DF8123039F09AF838
:102DA00028460FF0A7FAE1E75EF80C20CDF81620D0
:102DB0006268CDF81A20227C8DF82620DA79A66880
:102DC000E168DC7A9B79CDF8221002F0030243EA35
:102DD0000223152104222846CDF81E60ADF81330D9
:102DE0008DF81540ADF810108DF812200FF082FA12
:102DF000BCE700BFAFF3008000000000000000004F
:102E0000385400200000000090F89D3A03F00703BA
:102E1000012B00D070479FED067B00F5336303ED77
:102E2000027B00F6283015F0FBB900BFAFF300803D
:102E300000000000000000002DE9F04F2DED028B96
:102E4000C74ECC88B3B00023002205466846CDE9C2
:102E5000002315F0F1F93378023CE4B2002B40F086
:102E6000AF809FEDC08AC04F3B780133DBB2872C27
:102E70003B700ED932783AB195F88C0520B9BB4A2F
:102E800012789A4200F2348133B0BDEC028BBDE877
:102E9000F08F0022214610A815F004F995F8CB3BDD
:102EA000002B40F008819846337823B195F88C05C3
:102EB000002800F08C809DF8403003F00706012EBA
:102EC00000F08E80032EDFD195F89D2AC3F3021304
:102ED000C2F302129A42D7D19DF8417005F69F21A4
:102EE000384613F0E5FA041ECEDB9DF940309DF81C
:102EF0004090002BC0F28A8205F29453D3ED007A01
:102F0000009ED5F8283B9DF84600D5F82C1B019A69
:102F1000DDF842A04FF0000BB34260F3070B71EBFA
:102F2000020028EE278A80F00681F01A62EB010188
:102F3000FDF7F4FD08EE900A59465046FDF7EEFD08
:102F4000B7EE007A37EE487A07EE900A67EE877A96
:102F5000F6EE006A78EEE77A67EEA67A17EE900A48
:102F6000FDF782FA7AA3D3E90023FDF7D5FA7AA315
:102F7000D3E90023FDF7D0FA7D4B0022FDF7CCFA10
:102F8000FDF7DCFC04EBC40304EB83032B4419F0D2
:102F9000080F83F8CD7BA3F8CE0B95F8CB2B40F030
:102FA000E980012A04BF802283F8D12BD5F8383B71
:102FB00095F8312B85F8302BF31AC5F8343B63E7CD
:102FC00015F0BEF808EE100AB8EEC88A4BE7674B5A
:102FD0003A781B789A42BFF46EAF15F01DFE6AE78F
:102FE000C3F3021495F89A0522460DF1420113F03D
:102FF0005FFA0028FFF648AFB5F88E35009F019ABA
:1030000003F52F7103F5487300FB01313B0A43EAD6
:10301000026303EB0121B5F89035DB1B21F00107BA
:103020004FEA072C62EB420213EB0C0342EB1162F6
:10303000611E091A0293C5F89F3A039285F8A32AE4
:10304000B1FA81F195F89D2A2301490943F0030360
:1030500002F0080243EAC113134385F89D3AB5F81C
:103060009A3585F89E3AB8F1000F5FD095F8CB4BB2
:10307000002C40D107264FF0090C95F89D3A64F3D7
:10308000C303604685F89D3A0122002114F0D2FF67
:10309000002205F69D21304614F084FF384615F0D5
:1030A00091FC012015F09EFC95F89D3A6FF30613F4
:1030B00085F89D3AE8E60AA815F076F80A9B07938A
:1030C0000C9B05930B9B0493BDF83A300D9AADF819
:1030D00020309DF83C3006928DF82430BDF8382021
:1030E000ADF8222001238DF825300DF11008DBE624
:1030F00015F092FDC8E695F8CC3B85F8A43AB8E8FF
:103100000F00C5F8A50AC5F8B13AD8F80000B8F81C
:103110000430C5F8A91A34464FF0200C1E26C5F815
:10312000AD2AC5F8B50AA5F8B93AA6E74446072678
:103130004FF0090CA1E7F01A02F5807262EB010171
:10314000FDF7ECFC08EE900AF6E600BFAFF3008056
:10315000BC058A4421DDB141FA48CE3B1835B13D6A
:10316000A169002000000000A2690020A3690020DE
:1031700000005940012A7FF419AF98F8021098F81E
:1031800004009DF8472083F8D12B00F0030001F0E4
:103190003F0141EA801198F8000083F8D20B98F8BB
:1031A000010083F8D41BB8F8041083F8D30BC1F3E3
:1031B000870183F8D51BD8F80410C1F3872183F861
:1031C000D61B98F8060093F8D71BC0F3830021F0B4
:1031D0000F01014383F8D71B98F8081083F8DA1B16
:1031E00098F8091083F8DB1B98F80A0093F8DC1BA9
:1031F00000F03F0021F03F01014383F8DC1B98F809
:103200000C0093F8D71B00F00F0001F00F0141EA0A
:10321000001183F8D71BB8F80C10C1F3071183F81D
:10322000D81BD8F80C10C1F3043093F8D91B21F047
:103230001F01014383F8D91B98F8100093F8DC1B99
:1032400000F0030001F03F0141EA801183F8DC1B2C
:10325000B8F81010C1F3870183F8DD1B98F811004E
:1032600093F8DE1BC0F3810021F00301014383F8D2
:10327000DE1B98F81200C9B200F03F0001F0030114
:1032800041EA800183F8DE1BB8F81210C1F3871100
:1032900083F8DF1B93F8E01B98F8130021F003017B
:1032A00041EA901183F8E01B98F8140093F8D91BB9
:1032B00093F8E02B60F3471183F8D91B98F81510A9
:1032C00061F3820283F8E02B9DF8481083F8E21B3B
:1032D0009DF849109DF84C0083F8E31B9DF84A10B7
:1032E00000F0030001F03F0141EA801183F8E41B84
:1032F000BDF84C10C1F3870183F8E51B1399C1F3A6
:10330000872183F8E61B9DF84E0093F8E71BC0F376
:10331000830021F00F01014383F8E71B9DF8501053
:1033200083F8EA1B9DF8511083F8EB1B9DF85200BF
:1033300093F8EC1B00F03F0021F03F01014383F8BC
:10334000EC1B9DF8540093F8E71B00F00F0001F010
:103350000F0141EA001183F8E71BBDF85410C1F3D7
:10336000071183F8E81B1599C1F3043093F8E91BA2
:1033700021F01F01014383F8E91B9DF8580093F8E1
:10338000EC1B00F0030001F03F0141EA801183F8DB
:10339000EC1BBDF85810C1F3870183F8ED1B9DF8B5
:1033A000590093F8EE1BC0F3810021F003010143A3
:1033B00083F8EE1B9DF85A00C9B200F03F0001F0FF
:1033C000030141EA800183F8EE1BBDF85A10C1F3F6
:1033D000871183F8EF1B93F8F01B9DF85B0021F039
:1033E000030141EA901183F8F01B93F8E91B9DF863
:1033F0005C0093F8F02B60F3471183F8E91B9DF80C
:103400005D1061F3820283F8F02BCFE5284613F0BC
:103410001DF99DF840906FE52DE9F04F2DED048BDF
:10342000B74ECD88BBB000230022044608A8CDE9E2
:10343000082314F001FF3378023DEDB20133DBB213
:10344000872D33700FD9AF4A12783AB194F88C05B2
:1034500020B9AD4A12789A4200F27D823BB0BDECB1
:10346000048BBDE8F08F2946002218A814F01AFE3C
:1034700094F8CB5B002D40F02681A24B1B7823B142
:1034800094F88C05002800F015819DF8603003F059
:103490000707022FC3F3020800F03881042F00F061
:1034A0007681002FDAD1C3F30216324694F89A05DA
:1034B0000DF1620112F0FCFF021ECFDB06F1FF3CB2
:1034C000ACEB020C3301BCFA8CFC4FEA5C1C43F001
:1034D000020343EACC130899B4F88E9584F89D3A18
:1034E000099BB01A090A41EA036109F52F76B4F87D
:1034F0009A3584F89E3A013806FB009009F5487326
:1035000002FB063300F5967001EB032614F0DAFF98
:1035100009F2145080B215F025FC3946042001222E
:1035200014F088FD3A4604F69D21022014F03AFD7D
:1035300026F0010015F046FA032015F053FADDE9F4
:10354000080104F53463C3E90001012384F8493B11
:1035500094F9703B9DF8612084F8482B032B3FF7CA
:103560007DAF94F8CB2B012A7FF478AF6878A978E7
:10357000352202FB034340EA080083F8D30B287985
:103580002A7800F0030001F03F0141EA801183F83E
:10359000D41BA988C1F3870141EA080183F8D51B30
:1035A0006968C1F3872141EA080183F8D61BA8792D
:1035B00093F8D71BC0F3830021F00F01014383F878
:1035C000D71B297A41EA080183F8DA1B697A41EAB4
:1035D000080183F8DB1BA87A93F8DC1B00F03F009E
:1035E00021F03F01014383F8DC1B287B93F8D71BB4
:1035F00000F00F0001F00F0141EA001183F8D71B22
:10360000A989C1F3071141EA080183F8D81BE968C9
:10361000C1F3043093F8D91B21F01F01014383F853
:10362000D91B287C93F8DC1B00F0030001F03F015C
:1036300041EA801142EA080283F8DC1B83F8D22BAE
:10364000298AC1F3870141EA080183F8DD1B687C00
:1036500093F8DE1BC0F3810021F00301014383F8DE
:10366000DE1BA87CC9B200F03F0001F0030141EA73
:10367000800183F8DE1B698AC1F3871141EA0801E2
:1036800083F8DF1B93F8E01BE87C21F0030141EA9B
:10369000901183F8E01B287D93F8D91B93F8E02B59
:1036A00060F3471183F8D91B697D61F3820283F8C7
:1036B000E02BD3E6144B32781B789A42BFF4E5AE88
:1036C00015F0AAFAE1E612A814F06EFD129B0F9312
:1036D000149B0D93139B0C93BDF85A30159AADF8BB
:1036E00040309DF85C300E928DF84430BDF8582083
:1036F000ADF8422001238DF845300CADBDE600BF8A
:10370000A5690020A4690020A669002094F8492B2F
:10371000002A7FF4A3AE94F89D2AC3F30213C2F3E8
:1037200002129A427FF49AAE9DF8610004F69F213E
:1037300012F0BEFE0028FFF691AE9DF96030002B1E
:10374000C0F25C82204612F0C7FE43B2E2189DF838
:10375000611082F84A1BDDE9080103F5B57204EB3C
:10376000C202C2E9000175B140F67232162717FB9A
:1037700003270FCDE619E0512868B260AA8871606E
:10378000F3603061B282204612F0AAFE66E620465F
:1037900012F07AFF9DF8618094F8483B9DF86060D4
:1037A0004345C6F302167FF459AE94F8493B002B0B
:1037B0003FF454AE002E3FF451AE94F89A1518AB76
:1037C000002704E00137FAB296427FF647AE9A78B6
:1037D0008A4203F10B03F5D107EB870107EB410B9D
:1037E0000BF1030318AA1A4418A99FED5D7BC85872
:1037F00092F804E0DDF820A0D4F8283BD4F82CCBD4
:10380000099A8DED0A7B0A908DF82CE0DDE90A011A
:103810005345CDE900017CEB020001D302F5807233
:10382000BAEB03000790D4F8400BD4F844EB62EBFA
:103830000C0298427EEB0C0980F0D981B3EB0009B1
:103840006CEB0E030BF108010B93059318AB03EB24
:10385000010C58589CF804100A908DF82C1094F91B
:1038600070BB0692DDE90A23BBF1030FCDE9022309
:1038700053DCDDE90001FDF751F9069A08EE900AE4
:1038800011460798FDF74AF9059B08EE100A1946FC
:103890004846FDF743F909EE100ADDE90201FDF79C
:1038A0003DF938EE287A06EE900A37EE097A26EED0
:1038B000896A68EE287A37EE267A77EEC67A4FF074
:1038C0003509C7EE877A09FB0B4989F8CD8B17EECE
:1038D000900AFCF7C9FD25A3D3E90023FCF71CFEE1
:1038E00024A3D3E90023FCF717FE1F4B0022FCF7AB
:1038F00013FEFDF723F8A9F8CE0B94F8CB3B1DB1CE
:103900009DF86020120739D43BB1012B05D1352336
:1039100003FB0B43802283F8D02BD4F8382B94F888
:10392000CA3B94F8311B84F8301BAAEB0202032B2C
:10393000C4F8342B40F24F8105F04EFC94F8713BF3
:103940005A1D0133B0FBF2F101FB120084F8700B39
:1039500084F8713B82E515F05FF97FE5AFF30080F5
:10396000000000000000000000005940BC058A442F
:1039700021DDB141FA48CE3B1835B13D012B94F918
:10398000CC2BCAD10B2303FB06F60DF1620389F899
:10399000D12B9A199B5D89F8D03B162303FB072294
:1039A00099F8E73BD2F80100D2F8051089F8E20B4C
:1039B000C0F30546C0F3072089F8E30B01F00307C5
:1039C000C1F3834023F00F0346EA87160343C1F394
:1039D0008700C1F3872189F8E73B89F8E46B89F810
:1039E000E50B89F8E61BD2F8091099F8EC0B89F879
:1039F000EA1BC1F3054620F03F003043C1F3072125
:103A000089F8EC0B89F8EB1BD2F80D1099F8E76BED
:103A100099F8E90B01F00F0706F00F0646EA0716C2
:103A200089F8E76B20F01F00C1F304363043C1F37F
:103A3000071189F8E90B89F8E81BB2F8111099F819
:103A4000EC6B99F8EE0B01F0030706F03F0646EA2F
:103A5000871689F8EC6B20F00300C1F38126304310
:103A6000C1F3870189F8EE0B89F8ED1BB2F813005A
:103A700099F8EE1B00F03F0601F0030141EA8601D0
:103A800089F8EE1BC0F3871189F8EF1B99F8F01B3A
:103A900021F0030141EA903189F8F01B507D99F83B
:103AA000E91B60F3471189F8E91B917D99F8F02B28
:103AB00061F3820289F8F02BAB782A7903F03F0397
:103AC00002F0030243EA82132A7889F8F22B6A781B
:103AD00089F8F43BAB8889F8F32BC3F3870389F8A3
:103AE000F53B6B68C3F3872389F8F63BAA7999F80D
:103AF000F73BC2F3830223F00F03134389F8F73B2C
:103B00002B7A89F8FA3B6B7A89F8FB3BAA7A99F809
:103B1000FC3B02F03F0223F03F03134389F8FC3BD8
:103B20002A7B99F8F73B02F00F0203F00F0343EAF8
:103B3000021389F8F73BAB89C3F3071389F8F83B05
:103B4000EB68C3F3043299F8F93B23F01F031343E6
:103B500089F8F93B2A7C99F8FC3B02F0030203F058
:103B60003F0343EA821389F8FC3B2B8AC3F38703A4
:103B700089F8FD3B6A7C99F8FE3BC2F3810223F091
:103B80000303134389F8FE3BAA7CDBB202F03F0239
:103B900003F0030343EA820389F8FE3B6B8AC3F315
:103BA000871389F8FF3B99F8003CEA7C23F0030374
:103BB00043EA921389F8003C2A7D99F8F93B62F3B5
:103BC000471389F8F93B6A7D99F8003C62F3820358
:103BD00089F8003CA1E60133DBB2042B84F8CA3B30
:103BE0003FF4AAAE0BF1010B84F870BB36E4B3EBE3
:103BF00000090CF5807C6CEB0E0323E6204612F0E6
:103C000043FD9FE50000000010B58C1882B01CF049
:103C100067FB43014A011B1A42EAD06262EB0102D0
:103C2000920042EA93729B001B1841EB0200C00015
:103C300040EA5370C3F3103343EA4043E41A002CC4
:103C400016DD4FF4004340F2E7300021E4FB0301AE
:103C50004FF47A720023FCF7A7FF9FED097B024621
:103C60000B4609488DED007B1CF028FC02B010BD0E
:103C7000064B01221A7002B0BDE8104007F0AABA44
:103C8000000000000000000038020020A7690020AA
:103C90002DE9F04385B004460F9E0F2E0D46914648
:103CA0001F463FD006F110031E2B3ED89FED267B0A
:103CB000109B237309F1070904F158034FF0000822
:103CC00029F00709C4E91633042205F1400384ED05
:103CD000067BA6736273AA214A461846C4F8088078
:103CE00084F80F8038F031F90E9BC4E91A0909F104
:103CF000400602930D9B01932E440C9B0093294692
:103D00003B46C4F870803246204606F0D7F9104B87
:103D1000C4F854809B6803B15B6F6367304605B09D
:103D2000BDE8F0830B4B9F42C0D00B490B484FF4CA
:103D3000067203F0DDFB08484FF4067103F0D0FB78
:103D4000B4E700BFAFF300800000000000000000F7
:103D5000BC66002059D5010030DB0300C0CA030057
:103D60002DE9F84F2DED028B05461AF031FF4FF08B
:103D70002003EFF3118B83F31288BFF36F8F564844
:103D800019F0BEFB5F46002800F08480DFF85491F4
:103D90005148DFF854A1DFF8548119F0CDFBD9F870
:103DA0000040CAF800504C453CD09FED498BD8E903
:103DB000002120464FEAE57C002C69D0D4E9046359
:103DC000B5427CEB030E79DBB21841EBE67184ED72
:103DD000048BC8E900211CF061F83F4819F09EFBF4
:103DE00000284BD087F31188BFF36F8FA36820465C
:103DF00098474FF02003EFF3118783F31288BFF346
:103E00006F8F354819F07CFBBB4668B3324819F018
:103E100093FBDAF80050D9F80040AD1B4C45CAF8C6
:103E20000050C4D14FEAE57CD8F800205219C8F8F8
:103E30000020D8F804204FF0000442EB0C02C8F830
:103E40000420CAF800401CF045F821460DF06CF83B
:103E5000214819F063FB38B38BF31188BFF36F8FE0
:103E6000BDEC028BBDE8F88F1C481D498E2203F083
:103E70003FFB1B488E2103F033FBC7E71849174867
:103E8000B92203F035FB1648B92103F029FBA9E755
:103E9000BB46C9E7124911488E2203F029FB10489E
:103EA0008E2103F01DFB71E70D490C48B92203F088
:103EB0001FFB0B48B92103F013FBCDE74C45BB4674
:103EC000B2D0761B63EB0C0226616261ACE700BFE7
:103ED000000000000000000014670020C0CA0300BA
:103EE00030CB03009401002010670020A0280020A0
:103EF0002DE9F84F0025044600F1240B05847430A9
:103F00000E462BF077FC0C23A4F878304FF0AF630B
:103F1000E36723465A4A84F87B5043F8802FC4F85D
:103F200088302346574A43F88C2FC4F894302346F0
:103F3000554A43F8982FC4F8A0302346534A43F813
:103F4000A42F3146C4F8AC30C4E92D55C4E933552B
:103F500084F8B050C4F8BC5084F8C950A4F8CA50D2
:103F6000C4F8D450A4F8D85004F1F00025F07AFB3E
:103F70009FED417BF0224FF6FE73C4E949234FF6D3
:103F8000FF7384ED4C7BA4F82C3104F14C0A3146CC
:103F90005846C4E96F552CF011FC314650462CF0C0
:103FA0000DFC2946082204F1180037F0CEFF2946FF
:103FB000082204F1DC0037F0C8FF58462CF070FCF2
:103FC00050462CF06DFC0127122204F5A6792946F3
:103FD00004F59C7037F0B9FF3946484625F0A4FA3D
:103FE0002B49484624F008FD204625F0B1FA04F597
:103FF000B27025F0ADFA04F5BE7804F5B67024F081
:104000004DFC404625F0A4FA294604F5C27024F080
:1040100087FC94F88E2142F0800284F88E211D4A9C
:104020002946C2F8048104F5CA70142237F08DFFC6
:104030004FF6FF7384F89431322384F89531294682
:10404000142284F8A25184F8A37104F5D47037F0D7
:104050007CFF33234FF0FF3220460F4984F8A8211C
:1040600084F8A93184F8B65184F8B77128F0E0FFDC
:104070002046BDE8F88F00BF0000000000000000EF
:104080003DE6020079DE0200C1E90200A9CF02008C
:104090009E3D00209039002070E3030000000000E6
:1040A0009FED177B034680ED007B80ED027B09BB13
:1040B0009FED157B83ED047B9FED157B83ED067BE8
:1040C0009FED157B83ED087B9FED157B83ED0A7BD0
:1040D0009FED157B83ED0C7B9FED157B83ED0E7BB8
:1040E0009FED157B83ED107B9FED157B084683EDDF
:1040F000127B70476FF07400704700BFAFF3008011
:10410000000000000000000008C9BCF367E6096A6F
:104110003BA7CA8485AE67BB2BF894FE72F36E3C56
:10412000F1361D5F3AF54FA5D182E6AD7F520E51B3
:104130001F6C3E2B8C68059B6BBD41FBABD9831F6D
:1041400079217E1319CDE05B00F0D2B810B507F0ED
:1041500009F9044607F010F9002120681EF004F860
:10416000204607F011F9024B00221A7010BD00BF63
:1041700088690020104621B1012901D100F012BA4E
:10418000704700F059BA00BF08B507F0EBF807F028
:1041900033F8024B01221A7008BD00BF8869002065
:1041A00010B507F0DFF8044607F0E6F820680121B3
:1041B0001DF0EEFE2068042115F01AFD2046BDE832
:1041C000104007F0E1B800BF134B10B54FF0000CE2
:1041D0009E469EF81840B4B9CCEBCC0C03EB8C0E89
:1041E00073468EF808100121CEF804008EF81810DE
:1041F0001068516892680C3307C371460748BDE8E0
:10420000104019F01BBC0CF1010CBCF1080F0EF1B1
:104210001C0EDED110BD00BFC8430020D8440020D2
:10422000704700BF2DE9F04FDFF8B890DFF8B88095
:10423000264F274EDFF8B4A083B000254FF0FF33A0
:104240004FF0FF32304619F011FC037A04465BB997
:10425000037B426800F10C0BDBB1032B06D0012B72
:104260000ED05846FFF7DCFF2576E7E73B780122C2
:1042700088F80020002BF4D116481AF04BF8F0E72C
:104280003B7888F80050002BEBD050461AF042F8EB
:10429000E7E799F80030002BE3D193680E491B6CD7
:1042A0000192104698470028DED1019A0B49936885
:1042B00010465B6C98470028D6D10123084889F83E
:1042C00000301AF027F8237BC7E700BF8869002079
:1042D000D8440020B8440020C0430020B843002048
:1042E000C84400208A69002089690020A844002071
:1042F0002DE9F0438FB03348334F18F0DDFC4FF019
:1043000000084FF00009CDE90889054600F036F9AC
:104310004FF080530AAED3F8A420D3F8A8300A9205
:104320009BB20B9396E80300ADF824102749284B65
:10433000284A089000240C704FF4FA6159802648EE
:104340001C7042F21071596040F201133C7004700D
:1043500054601380214819F02DFB214F214B224935
:1043600000940322CDE90324CDE90689CDE9014477
:104370004FF40072384618F0E5FF1C49384618F033
:10438000DBFF1B491B4819F003FF1B491B4819F0B1
:10439000FFFE1B491B4819F0FBFEAB681A4A5B6A1B
:1043A0000A920721324628469847AB68174A5B6A4B
:1043B0000A92284632460821984720460FB0BDE8A9
:1043C000F08300BF68CA03008A6900208869002062
:1043D000C0430020B843002089690020D844002051
:1043E0008020002025420000006A002078CA0300D7
:1043F000A1410000C844002089410000B8440020C9
:104400004D410000A8440020C94100007541000052
:104410002DE9F04F12F0FC6FD0E90169D0F810805F
:1044200081B0054614460F464BD104F03003302BC3
:1044300056D004F00213022B61D004F00603042BC3
:104440006CD014F4402A23D0A10304F4801B7DD542
:10445000BAF5402F0AD14749474840F2CE2203F02F
:1044600047F8444840F2CE2103F03AF8BBF1000F80
:104470000ED0E207336879D40126BE4024F4801AB6
:1044800013EA060456D0D8F8003023EA06030DE0FC
:1044900033680126BE401E4224F4801A04F0010451
:1044A00048D0D8F80030002CEFD03343C8F80030A3
:1044B000D9F8003052463946284601B0BDE8F04FE1
:1044C00018472C492C484FF42F7203F011F8294853
:1044D0004FF42F7103F004F804F03003302BA8D10F
:1044E0002449254840F2BF2203F002F8214840F257
:1044F000BF2102F0F5FF04F00213022B9DD11D49EC
:104500001D4840F2C32202F0F3FF1A4840F2C321D3
:1045100002F0E6FF04F00603042B92D11549164879
:1045200040F2C72202F0E4FF124840F2C72102F035
:10453000D7FF86E70F49104840F2DA2202F0D8FF91
:104540000C4840F2DA2102F0CBFFAAE709490A48F9
:1045500040F2CA2202F0CCFF064840F2CA2102F023
:10456000BFFFBAF5402F3FF476AF7FE784F44024D5
:104570008FE700BF8CCA0300C0CA030008B5074A12
:1045800007480E21FFF744FF002806DB034A0448D2
:10459000BDE808400421FFF73BBF08BD010016003D
:1045A0005CC503002DE9F041204E336975681F4654
:1045B0002B685A04044616D53B685B0410D43CB102
:1045C000B3681A48DB68BDE8F0414FF480411847F2
:1045D000B36816481B69BDE8F0414FF480411847A5
:1045E00080F00104EBE71249124840F2255202F034
:1045F0007FFF0F4840F2255102F072FF3B6813F431
:10460000804F2B6803F4804318BF84F00104002B13
:10461000D5D10749074840F2FC4202F069FF04483F
:1046200040F2FC4102F05CFFC9E700BF5CC503003B
:104630008CCA0300C0CA03002DE9F0411F4E336944
:1046400075681F462B68DA06044614D53B68DB06FE
:104650000ED434B1B3681948DB68BDE8F0411021CD
:104660001847B36815481B69BDE8F0411021184789
:1046700080F00104EDE71249124840F2255202F0A1
:1046800037FF0F4840F2255102F02AFF3B6813F034
:10469000100F2B6803F0100318BF84F00104002BE7
:1046A000D7D10749074840F2FC4202F021FF0448F5
:1046B00040F2FC4102F014FFCBE700BF5CC50300F1
:1046C0008CCA0300C0CA0300114A38B5114B1360ED
:1046D000D3E9012512681C6993010DD523682D6863
:1046E0000C4823F00073236000221921A8470028FA
:1046F00018BF6FF0150038BD0749084840F2DA22AC
:1047000002F0F6FE044840F2DA2102F0E9FEE5E7A5
:10471000F84400205CC503008CCA0300C0CA030033
:1047200000F0C4BA00F014BB2DE9F041404D2C68F4
:10473000D4E901371B6826699B0152D533683F686D
:104740003C4A23F00073336020461921B8472C6897
:10475000636826691B689F011ED533689B0139D4A5
:10476000A3684FF000711B6920469847642000F051
:104770008FFD2C68D4E901361B6825699A013CD568
:104780002B68366823F000732B60204633460022E6
:10479000BDE8F041192118472749284840F2255221
:1047A00002F0A6FE244840F2255102F099FE33683B
:1047B00013F0007F63681B682BD099010AD41E494F
:1047C0001E4840F2FC4202F093FE1B4840F2FC41BE
:1047D00002F086FEA3684FF00071DB682046984720
:1047E000C4E71549154840F2DA2202F081FE12486A
:1047F00040F2DA2102F074FEA0E70F490F4840F2C0
:10480000DA2202F075FE0C4840F2DA2102F068FE6E
:10481000B6E79801A4D40849084840F2FC4202F0E7
:1048200067FE054840F2FC4102F05AFE98E700BFDF
:10483000F8440020060002008CCA0300C0CA03002E
:1048400000B5A7B000238DF8003000F065FA6B4684
:1048500096221946012000F0D9FB022000F004FD49
:1048600000F068FA27B05DF804FB00BF00F054BA0E
:104870002DE9F0411C4D2C68D4E901371B682669ED
:104880005A0718D533683F6823F0040333600022C9
:1048900002212046B8472C68D4E901351B685B0724
:1048A00015D5AD692046AC460023BDE8F0414FF474
:1048B0000012022160470D490D4840F2DA2202F051
:1048C00017FE0A4840F2DA2102F00AFEDAE7074949
:1048D00007484FF41F7202F00BFE04484FF41F719B
:1048E00002F0FEFDDDE700BFF44400208CCA0300A7
:1048F000C0CA03002DE9F0411D4D2C68D4E90137F1
:104900001B6826695A071AD533683F6823F00403E9
:1049100033604FF4803202212046B8472C68D4E936
:1049200001351B685B0716D5AD692046AC464FF0D4
:104930008063BDE8F0414FF0A072022160470D494D
:104940000D4840F2DA2202F0D3FD0A4840F2DA21A3
:1049500002F0C6FDD8E7074907484FF41F7202F07E
:10496000C7FD04484FF41F7102F0BAFDDCE700BF39
:10497000F44400208CCA0300C0CA03002DE9F041B2
:10498000274E284B336082B004460D469A68019248
:104990005A681F6913685B071CD5019B2148D3F82F
:1049A00000803B6823F004033B604FF48032022117
:1049B000C047DCB13DB3306883686560DB690422C1
:1049C000A26013B101222146984702B0BDE8F04130
:1049D000FFF74EBF1449154840F2DA2202F088FD75
:1049E000114840F2DA2102F07BFDD6E70E490F486C
:1049F00040F26D5202F07CFD0B4840F26D5102F026
:104A00006FFD002DD7D10849084840F26E5202F0E0
:104A10006FFD054840F26E5102F062FDCBE700BF2A
:104A2000F444002040C503008CCA0300C0CA030040
:104A30002DE9F04F12F0FC6FD0E90169D0F8108039
:104A400081B0054614460F464BD104F03003302B9D
:104A500056D004F00213022B61D004F00603042B9D
:104A60006CD014F4402A23D0A10304F4801B7DD51C
:104A7000BAF5402F0AD14749474840F2CE2202F00A
:104A800037FD444840F2CE2102F02AFDBBF1000F71
:104A90000ED0E207336879D40126BE4024F4801A90
:104AA00013EA060456D0D8F8003023EA06030DE0D6
:104AB00033680126BE401E4224F4801A04F001042B
:104AC00048D0D8F80030002CEFD03343C8F800307D
:104AD000D9F8003052463946284601B0BDE8F04FBB
:104AE00018472C492C484FF42F7202F001FD294839
:104AF0004FF42F7102F0F4FC04F03003302BA8D1F6
:104B00002449254840F2BF2202F0F2FC214840F23D
:104B1000BF2102F0E5FC04F00213022B9DD11D49D8
:104B20001D4840F2C32202F0E3FC1A4840F2C321C0
:104B300002F0D6FC04F00603042B92D11549164866
:104B400040F2C72202F0D4FC124840F2C72102F022
:104B5000C7FC86E70F49104840F2DA2202F0C8FC91
:104B60000C4840F2DA2102F0BBFCAAE709490A48E6
:104B700040F2CA2202F0BCFC064840F2CA2102F010
:104B8000AFFCBAF5402F3FF476AF7FE784F44024C2
:104B90008FE700BF8CCA0300C0CA0300394BF0B5D1
:104BA0001B685D682C6A87B001AA002120460CF0C2
:104BB00057FA002805DB019B2268197918680CF068
:104BC000B9FA314B314F1E6805F1080EBEE80F00EF
:104BD0000DF1040C3468ACE80F00BC42DEF8003084
:104BE000CCF800303FD92A4B9C4242D9294B9C42F9
:104BF0003CD9294B9C423FD9284B9C423FD9284B5A
:104C00009C422CBF4FF000444FF08044B388039483
:104C1000990703F004021CD5002A14BF03220222C4
:104C2000204C8DF81020C3F300138DF81130237839
:104C30009BB900231A4601A9284616F0B5FD1A4B68
:104C4000984205BF012300206FF00400237007B0D5
:104C5000F0BD003A18BF0122E2E7284617F00CF930
:104C600000232370E5E74FF00074CFE74FF00064B6
:104C7000CCE74FF08064C9E74FF08054C6E74FF0AF
:104C80000054C3E718450020144500208FD00300CE
:104C90001FA107003F420F007F841E00FF083D0058
:104CA00000127A008B6900200000AD0B10B5124A8B
:104CB0001248134C0621FFF7BBFE124B12494FF46A
:104CC000807208689A801A82104A1A60104ADA6064
:104CD0009842104A226003D00B60FFF75FFF226802
:104CE0005468206840F3073005F0EAF8236804228E
:104CF000C3F80823002010BD0100160040C50300C2
:104D000018450020FC4400201445002080841E002B
:104D100000127A00B0C50300044B054A196891429D
:104D200002D01A60FFF73ABF704700BF1445002059
:104D3000FC440020044B054A1968914202D01A60D5
:104D4000FFF72CBF704700BF144500200845002026
:104D500070B5124B124D1968124A2B784C68002618
:104D600082B01660ABB9104801220621FFF760FE41
:104D7000246A01AA012120460CF072F9002805DB03
:104D8000019B2268197918680CF0D4F9002002B050
:104D900070BD204617F070F82E70E4E7184500202B
:104DA0008B6900201445002040C503002DE9F04F19
:104DB000904C2468D4F804908F4C87B0D4F804B099
:104DC000984623690193DBF800300D4659060646E4
:104DD000174638D5019B1B685B0653D4A3688648E9
:104DE000DB6840219847CDE9025600252A4602A9F2
:104DF0004846CDE9045517F0C3F9804B2269D4F831
:104E000004A001929842064640F0848002A94846D8
:104E10002A46CDE90287CDE9045517F0B1F9B04231
:104E2000DAF8003040F099805F0631D5019B1B68AD
:104E30005A064CD4A36870481B694021984700204B
:104E400007B0BDE8F08F6E496E4840F2255202F07F
:104E50004FFB6B4840F2255102F042FB019B1B685F
:104E600013F0400FDBF8003037D05B060AD46449FA
:104E7000644840F2FC4202F03BFB614840F2FC41D6
:104E800002F02EFBA3685C481B6940219847AAE703
:104E90005B495C4840F2255202F02AFB584840F238
:104EA000255102F01DFB019B1B6813F0400FDAF83F
:104EB000003021D05E060AD45149524840F2FC42EB
:104EC00002F016FB4E4840F2FC4102F009FBA368D9
:104ED0004948DB6840219847B1E75A063FF57EAF65
:104EE0004749484840F2FC4202F002FB444840F285
:104EF000FC4102F0F5FA71E75D069BD44049414858
:104F000040F2FC4202F0F4FA3D4840F2FC4102F06B
:104F1000E7FA8FE7DAF800305D062AD5019B1B68B7
:104F2000580614D4A36834481B69402198476FF091
:104F3000040085E75A060AD43149324840F2FC425F
:104F400002F0D6FA2E4840F2FC4102F0C9FAA368FA
:104F50002948DB6840219847E9E7590629D5019B94
:104F60001B685906F3D4A36823481B69402198475E
:104F7000DDE72349234840F2255202F0B9FA2048E0
:104F800040F2255102F0ACFA019B1B6813F0400F70
:104F9000DAF80030CED15806C4D41949194840F285
:104FA000FC4202F0A5FA164840F2FC4102F098FAE1
:104FB000B8E71349134840F2255202F099FA104815
:104FC00040F2255102F08CFA019B1B6813F0400F50
:104FD000DAF80030AED15B06C5D40949094840F281
:104FE000FC4202F085FA064840F2FC4102F078FAF1
:104FF000B9E700BF1845002040C503000000AD0B15
:105000008CCA0300C0CA0300002070472DE9F04F8E
:10501000904C2468D4F804908F4C87B0D4F804B036
:10502000984623690193DBF800300D465906064681
:10503000174638D5019B1B685B0653D4A368864886
:10504000DB6840219847CDE9025600252A4602A98F
:105050004846CDE9045517F093F8804B2269D4F8FF
:1050600004A001929842064640F0848002A9484676
:105070002A46CDE90487CDE9025517F081F8B04200
:10508000DAF8003040F099805F0631D5019B1B684B
:105090005A064CD4A36870481B69402198470020E9
:1050A00007B0BDE8F08F6E496E4840F2255202F01D
:1050B0001FFA6B4840F2255102F012FA019B1B685F
:1050C00013F0400FDBF8003037D05B060AD4644998
:1050D000644840F2FC4202F00BFA614840F2FC41A5
:1050E00002F0FEF9A3685C481B6940219847AAE7D3
:1050F0005B495C4840F2255202F0FAF9584840F208
:10510000255102F0EDF9019B1B6813F0400FDAF80E
:10511000003021D05E060AD45149524840F2FC4288
:1051200002F0E6F94E4840F2FC4102F0D9F9A368DA
:105130004948DB6840219847B1E75A063FF57EAF02
:105140004749484840F2FC4202F0D2F9444840F254
:10515000FC4102F0C5F971E75D069BD44049414826
:1051600040F2FC4202F0C4F93D4840F2FC4102F03A
:10517000B7F98FE7DAF800305D062AD5019B1B6886
:10518000580614D4A36834481B69402198476FF02F
:10519000040085E75A060AD43149324840F2FC42FD
:1051A00002F0A6F92E4840F2FC4102F099F9A368FA
:1051B0002948DB6840219847E9E7590629D5019B32
:1051C0001B685906F3D4A36823481B6940219847FC
:1051D000DDE72349234840F2255202F089F92048AF
:1051E00040F2255102F07CF9019B1B6813F0400F3F
:1051F000DAF80030CED15806C4D41949194840F223
:10520000FC4202F075F9164840F2FC4102F068F9E0
:10521000B8E71349134840F2255202F069F91048E3
:1052200040F2255102F05CF9019B1B6813F0400F1E
:10523000DAF80030AED15B06C5D40949094840F21E
:10524000FC4202F055F9064840F2FC4102F048F9F0
:10525000B9E700BF1845002040C503000000AD0BB2
:105260008CCA0300C0CA030008B54FF4004220EA0C
:10527000E073002140F2E730C3FB02014FF47A7281
:105280000023FBF791FCBDE808401AF07BBB00BF90
:105290001BF028B8C2B1531E0C4A00B501F1FF3C07
:1052A00001EB030E1CF8013F584003090001D35CD9
:1052B000C0B2434019091B01505CDBB2F44580EADF
:1052C0000300EFD15DF804FB704700BFD8CA0300AC
:1052D0000CB400B5034683B005AADB68019208460A
:1052E00040F20511984703B05DF804EB02B0704737
:1052F00010B40B4C430104EB401CE150CCF80420EB
:1053000052B11046D2683AB10C33234440F2051230
:105310005DF8044BFFF7DCBF5DF8044B704700BF3E
:10532000482100201649BFF35B8F400100F10803BC
:105330000B441A68BFF35B8F02B310B5BFF35B8FEA
:1053400002F1FF3C53E800EF964503D143E800C467
:10535000002CF7D1BFF35B8F02D1012A08D010BD1A
:10536000BFF35B8F1A68BFF35B8F002AE6D110BDD5
:10537000014400220023C1E9002310BD704700BF93
:105380004821002040B1436803F00303022B06D0FC
:10539000032B04D0012B05D06FF015007047036874
:1053A000002BF9D00023836018467047436803F050
:1053B0000303022B10B50446816010D0032B16D0D6
:1053C000012B08D00C490D48452202F091F80A48FB
:1053D000452102F085F800236360002010BD0068BD
:1053E000002363600028F8D01BF020FDF5E700687B
:1053F0000023636010BD00BFE8CA0300C0CA0300F9
:1054000000207047014B1B68184700BF00000020B8
:1054100030B48B680C685D1C64B14A689A4209DD3F
:10542000013A9A4208BF00238D600CBFA354E05498
:1054300030BC70478D6030BC704700BF00B583B092
:105440000B46002102460091024800F001FF03B024
:105450005DF804FB055400000FB400B585B006AB41
:10546000002153F8042B05480091039300F0F0FE4F
:1054700005B05DF804EB04B0704700BF05540000B0
:105480000CB430B587B00AAB002553F8042B009557
:10549000CDE90230CDE90415044603A9064800F021
:1054A000D7FEDDE904309842B8BF255407B0BDE807
:1054B000304002B0704700BF115400002DE9F84F92
:1054C0000546808B0407174605F1140A00F1BB81DD
:1054D00000F007039B4602299BB221D0AE69002E43
:1054E000C0F2C5805A1F012A40F25081042B40F0BF
:1054F000FA8120F00703D5F800909BB2AB83B9F195
:10550000000F00F0E98143F020039BB2AB83BBF1B5
:10551000000F00F0CD804FF00008C14644461FE068
:10552000002B40F0D7802B68002B00F0C680BBF129
:10553000000F40F05D812B691C68002C00F0778122
:10554000AB8B23F0070343F006039BB2BBF1060FBE
:10555000AB8300F0AA804FF000094FF006084E46DA
:10556000AA68002A00F094804FF0010B43F0080372
:10557000AB83504617F0D2FF002864D087F3118820
:10558000BFF36F8FBBF1000F3BD1B9F1000F13D008
:10559000A3464846314650F8044BFFF707FF07463D
:1055A0004946334642462846002F40D0A146B847D8
:1055B000B9F1000FEDD15C4614B1B1492846A047BE
:1055C0004FF02003EFF3118483F31288BFF36F8F42
:1055D000504617F095FF274600283ED0504617F05A
:1055E000ABFFAB8B23F008039BB2AB83D90623D56B
:1055F00023F0100398B2012100F00703A8839B4613
:1056000069E7A9680029C0D00F68A34633464C68F3
:1056100042462846A04747B139463F684C68334662
:1056200042462846A047002FF6D15C46ADE7A1468A
:10563000B9F1000FADD1BEE79A063FD523F02003A4
:1056400098B20221D8E78F498F48B92201F050FF64
:105650008C48B92101F044FF90E78A498A488E229C
:1056600001F046FF87488E2101F03AFFB6E720F0AF
:105670000703002243F00103D5F80090AB836A6072
:105680002A604FF00108C3454FF000047FF468AF73
:105690004FF0000BB9F1000F7FF468AFC3463CB187
:1056A0004FF00009D846CB4660E70026002CF7D122
:1056B0003C469BE7EB8B002B38D03C46504617F01E
:1056C0002DFF002800F0CD8084F31188BFF36F8F89
:1056D000BDE8F88F022BEDD0012BEED12B68002B0B
:1056E000EBD0BBF1010F0DD0684967484FF4B2729F
:1056F00001F0FEFE65484FF4B27101F0F1FE2B6837
:10570000002B5AD02B699C68002C65D0AB8B23F002
:10571000070343F005039BB2BBF1050FAB83C4D075
:105720004FF000094FF005084E4619E7BBF1020F94
:1057300017D05649544840F25D1201F0D9FE534843
:1057400040F25D1101F0CCFEEB8B53B14F494E4856
:105750004FF4AF7201F0CCFE4C484FF4AF7101F042
:10576000BFFE2B695C68002C00F09280AB8B23F0AD
:10577000070343F004039BB2BBF1040FAB8394D047
:105780004FF000094FF004084E46E9E60022062BD0
:10579000D5F800906A602A6000F0868020F0070249
:1057A000296892B2AA83002900F0B48042F0200355
:1057B0009BB2AB8302F0070865E73449324840F2F8
:1057C000651201F095FE314840F2651101F088FE46
:1057D0002B699C68002C99D12C492B484FF4B4724A
:1057E00001F086FE29484FF4B47101F079FE8DE78F
:1057F000264925484FF4AB7201F07AFE23484FF456
:10580000AB7101F06DFE2B68002B7FF494AE1F4945
:105810001D4840F2571201F06BFE1C4840F2571130
:1058200001F05EFE2B691C68002C7FF489AE1749DD
:1058300015484FF4AD7201F05BFE14484FF4AD71A2
:1058400001F04EFE7CE601290CBF40F0100040F054
:105850002000A8835046144617F060FE00287FF40D
:1058600033AFB9220749084801F042FE0548B92183
:1058700001F036FE84F31188BFF36F8FBDE8F88F17
:105880002559000030CB0300C0CA03000CCB030035
:105890002249234840F2611201F02AFE1F4840F2DB
:1058A000611101F01DFE61E7B9F1000F0AD0EB8B29
:1058B00001339BB24A461268591C1C468BB2002A1F
:1058C000F9D1EC8320F00703EA8B43F00203AB83AA
:1058D000F2B14FF00208D6E6BBF1000F3FF4E8AE9C
:1058E000C8464C463CE60D490D4840F21B1201F0FB
:1058F000FFFD0A4840F21B1101F0F2FDAB8B03F0F3
:105900000708C3453FF4D4AE4FF000094C4627E6E4
:105910001A464BE713468846B5E600BF0CCB03009A
:10592000C0CA0300F8B504460D4600F114064FF056
:105930002003EFF3118783F31288BFF36F8F304694
:1059400017F0DEFD50B1304617F0F6FDA5613A467E
:1059500020460121BDE8F840FFF7B0BD04490548E5
:105960008E2201F0C5FD02488E2101F0B9FDEAE763
:1059700030CB0300C0CA030088B138B50C4659B11A
:105980000B684BB14B683BB105462022002136F035
:10599000DCFA2C61002038BD6FF0150038BD6FF0C7
:1059A000150070472DE9F84F002800F0A3808846C5
:1059B000002900F09F8001F1040904464846FFF7E2
:1059C000E1FC051E28D1D8F80830032B00F29280A4
:1059D00004F114074FF02003EFF3118A83F31288C8
:1059E000BFF36F8F384617F08BFD002859D038462B
:1059F00017F0A2FDE38BA68B4FF6FF72934206F0E1
:105A000007065ED0022E56D0062E1ED8DFE806F01E
:105A100008441D1D086D0800DADA2846BDE8F88F35
:105A200063680022C8F80020002B59D0C3F800801A
:105A3000C4F80480002E60D120465246022135462B
:105A4000FFF73CFD2846BDE8F88F2E492E484FF45D
:105A5000E47201F04DFD2B484FF4E47101F040FD7C
:105A60006FF004054FF0000B384617F057FD68B390
:105A70008AF31188BFF36F8FBBF1000FCDD048467A
:105A80000021FFF793FC07460028C6D03246414666
:105A900020460023B847C0E76FF004054FF0000B25
:105AA000E2E71A4918488E2201F022FD17488E219C
:105AB00001F016FD9BE70133E38335464FF0010B00
:105AC000D2E76FF00A054FF0000BCDE70F490E4803
:105AD000B92201F00DFD0D48B92101F001FDC7E724
